{
	"data": {
		"bytecode": {
			"linkReferences": {},
			"object": "60806040523480156200001157600080fd5b5060405162001b6e38038062001b6e833981810160405281019062000037919062000444565b620000897f2ac4b647885dc0812ed26210d6a36d5f1c8de284183a5e4c171119cd3b54458a7f74966176c367549066de941fecec46be0069530384452daa9c31d709c544e639620000c260201b60201c565b620000bb7f74966176c367549066de941fecec46be0069530384452daa9c31d709c544e639826200012560201b60201c565b5062000476565b6000620000d5836200013b60201b60201c565b905081600080858152602001908152602001600020600101819055508181847fbd79b86ffe0ab8e8776151514217cd7cacd52c909f66475c3af44e129f0b00ff60405160405180910390a4505050565b6200013782826200015a60201b60201c565b5050565b6000806000838152602001908152602001600020600101549050919050565b620001718282620001a260201b620005e31760201c565b6200019d81600160008581526020019081526020016000206200029360201b620006c31790919060201c565b505050565b620001b48282620002cb60201b60201c565b6200028f57600160008084815260200190815260200160002060000160008373ffffffffffffffffffffffffffffffffffffffff1673ffffffffffffffffffffffffffffffffffffffff16815260200190815260200160002060006101000a81548160ff021916908315150217905550620002346200033560201b60201c565b73ffffffffffffffffffffffffffffffffffffffff168173ffffffffffffffffffffffffffffffffffffffff16837f2f8788117e7eff1d82e926ec794901d17c78024a50270940304540a733656f0d60405160405180910390a45b5050565b6000620002c3836000018373ffffffffffffffffffffffffffffffffffffffff1660001b6200033d60201b60201c565b905092915050565b600080600084815260200190815260200160002060000160008373ffffffffffffffffffffffffffffffffffffffff1673ffffffffffffffffffffffffffffffffffffffff16815260200190815260200160002060009054906101000a900460ff16905092915050565b600033905090565b6000620003518383620003b760201b60201c565b620003ac578260000182908060018154018082558091505060019003906000526020600020016000909190919091505582600001805490508360010160008481526020019081526020016000208190555060019050620003b1565b600090505b92915050565b600080836001016000848152602001908152602001600020541415905092915050565b600080fd5b600073ffffffffffffffffffffffffffffffffffffffff82169050919050565b60006200040c82620003df565b9050919050565b6200041e81620003ff565b81146200042a57600080fd5b50565b6000815190506200043e8162000413565b92915050565b6000602082840312156200045d576200045c620003da565b5b60006200046d848285016200042d565b91505092915050565b6116e880620004866000396000f3fe608060405234801561001057600080fd5b50600436106100b45760003560e01c806391d148541161007157806391d148541461019f578063a217fddf146101cf578063a3246ad3146101ed578063ca15c8731461021d578063d547741f1461024d578063ec4ab79814610269576100b4565b806301ffc9a7146100b9578063248a9ca3146100e95780632f2ff15d1461011957806336568abe14610135578063852757ad146101515780639010d07c1461016f575b600080fd5b6100d360048036038101906100ce9190610ea0565b610287565b6040516100e09190610ee8565b60405180910390f35b61010360048036038101906100fe9190610f39565b610301565b6040516101109190610f75565b60405180910390f35b610133600480360381019061012e9190610fee565b610320565b005b61014f600480360381019061014a9190610fee565b610349565b005b6101596103cc565b6040516101669190610f75565b60405180910390f35b61018960048036038101906101849190611064565b6103f0565b60405161019691906110b3565b60405180910390f35b6101b960048036038101906101b49190610fee565b61041f565b6040516101c69190610ee8565b60405180910390f35b6101d7610489565b6040516101e49190610f75565b60405180910390f35b61020760048036038101906102029190610f39565b610490565b604051610214919061118c565b60405180910390f35b61023760048036038101906102329190610f39565b610572565b60405161024491906111bd565b60405180910390f35b61026760048036038101906102629190610fee565b610596565b005b6102716105bf565b60405161027e9190610f75565b60405180910390f35b60007f5a05180f000000000000000000000000000000000000000000000000000000007bffffffffffffffffffffffffffffffffffffffffffffffffffffffff1916827bffffffffffffffffffffffffffffffffffffffffffffffffffffffff191614806102fa57506102f9826106f3565b5b9050919050565b6000806000838152602001908152602001600020600101549050919050565b61032982610301565b61033a8161033561076d565b610775565b6103448383610812565b505050565b61035161076d565b73ffffffffffffffffffffffffffffffffffffffff168173ffffffffffffffffffffffffffffffffffffffff16146103be576040517f08c379a00000000000000000000000000000000000000000000000000000000081526004016103b59061125b565b60405180910390fd5b6103c88282610846565b5050565b7f74966176c367549066de941fecec46be0069530384452daa9c31d709c544e63981565b6000610417826001600086815260200190815260200160002061087a90919063ffffffff16565b905092915050565b600080600084815260200190815260200160002060000160008373ffffffffffffffffffffffffffffffffffffffff1673ffffffffffffffffffffffffffffffffffffffff16815260200190815260200160002060009054906101000a900460ff16905092915050565b6000801b81565b6060600061049d83610572565b905060008167ffffffffffffffff8111156104bb576104ba61127b565b5b6040519080825280602002602001820160405280156104e95781602001602082028036833780820191505090505b50905060005b8281101561056757600061050386836103f0565b905080838381518110610519576105186112aa565b5b602002602001019073ffffffffffffffffffffffffffffffffffffffff16908173ffffffffffffffffffffffffffffffffffffffff168152505050808061055f90611308565b9150506104ef565b508092505050919050565b600061058f60016000848152602001908152602001600020610894565b9050919050565b61059f82610301565b6105b0816105ab61076d565b610775565b6105ba8383610846565b505050565b7f2ac4b647885dc0812ed26210d6a36d5f1c8de284183a5e4c171119cd3b54458a81565b6105ed828261041f565b6106bf57600160008084815260200190815260200160002060000160008373ffffffffffffffffffffffffffffffffffffffff1673ffffffffffffffffffffffffffffffffffffffff16815260200190815260200160002060006101000a81548160ff02191690831515021790555061066461076d565b73ffffffffffffffffffffffffffffffffffffffff168173ffffffffffffffffffffffffffffffffffffffff16837f2f8788117e7eff1d82e926ec794901d17c78024a50270940304540a733656f0d60405160405180910390a45b5050565b60006106eb836000018373ffffffffffffffffffffffffffffffffffffffff1660001b6108a9565b905092915050565b60007f7965db0b000000000000000000000000000000000000000000000000000000007bffffffffffffffffffffffffffffffffffffffffffffffffffffffff1916827bffffffffffffffffffffffffffffffffffffffffffffffffffffffff19161480610766575061076582610919565b5b9050919050565b600033905090565b61077f828261041f565b61080e576107a48173ffffffffffffffffffffffffffffffffffffffff166014610983565b6107b28360001c6020610983565b6040516020016107c3929190611463565b6040516020818303038152906040526040517f08c379a000000000000000000000000000000000000000000000000000000000815260040161080591906114e7565b60405180910390fd5b5050565b61081c82826105e3565b61084181600160008581526020019081526020016000206106c390919063ffffffff16565b505050565b6108508282610bbf565b6108758160016000858152602001908152602001600020610ca090919063ffffffff16565b505050565b60006108898360000183610cd0565b60001c905092915050565b60006108a282600001610cfb565b9050919050565b60006108b58383610d0c565b61090e578260000182908060018154018082558091505060019003906000526020600020016000909190919091505582600001805490508360010160008481526020019081526020016000208190555060019050610913565b600090505b92915050565b60007f01ffc9a7000000000000000000000000000000000000000000000000000000007bffffffffffffffffffffffffffffffffffffffffffffffffffffffff1916827bffffffffffffffffffffffffffffffffffffffffffffffffffffffff1916149050919050565b6060600060028360026109969190611509565b6109a09190611563565b67ffffffffffffffff8111156109b9576109b861127b565b5b6040519080825280601f01601f1916602001820160405280156109eb5781602001600182028036833780820191505090505b5090507f300000000000000000000000000000000000000000000000000000000000000081600081518110610a2357610a226112aa565b5b60200101907effffffffffffffffffffffffffffffffffffffffffffffffffffffffffffff1916908160001a9053507f780000000000000000000000000000000000000000000000000000000000000081600181518110610a8757610a866112aa565b5b60200101907effffffffffffffffffffffffffffffffffffffffffffffffffffffffffffff1916908160001a90535060006001846002610ac79190611509565b610ad19190611563565b90505b6001811115610b71577f3031323334353637383961626364656600000000000000000000000000000000600f861660108110610b1357610b126112aa565b5b1a60f81b828281518110610b2a57610b296112aa565b5b60200101907effffffffffffffffffffffffffffffffffffffffffffffffffffffffffffff1916908160001a905350600485901c945080610b6a906115b9565b9050610ad4565b5060008414610bb5576040517f08c379a0000000000000000000000000000000000000000000000000000000008152600401610bac9061162f565b60405180910390fd5b8091505092915050565b610bc9828261041f565b15610c9c57600080600084815260200190815260200160002060000160008373ffffffffffffffffffffffffffffffffffffffff1673ffffffffffffffffffffffffffffffffffffffff16815260200190815260200160002060006101000a81548160ff021916908315150217905550610c4161076d565b73ffffffffffffffffffffffffffffffffffffffff168173ffffffffffffffffffffffffffffffffffffffff16837ff6391f5c32d9c69d2a47ea670b442974b53935d1edc7fd64eb21e047a839171b60405160405180910390a45b5050565b6000610cc8836000018373ffffffffffffffffffffffffffffffffffffffff1660001b610d2f565b905092915050565b6000826000018281548110610ce857610ce76112aa565b5b9060005260206000200154905092915050565b600081600001805490509050919050565b600080836001016000848152602001908152602001600020541415905092915050565b60008083600101600084815260200190815260200160002054905060008114610e37576000600182610d61919061164f565b9050600060018660000180549050610d79919061164f565b9050818114610de8576000866000018281548110610d9a57610d996112aa565b5b9060005260206000200154905080876000018481548110610dbe57610dbd6112aa565b5b90600052602060002001819055508387600101600083815260200190815260200160002081905550505b85600001805480610dfc57610dfb611683565b5b600190038181906000526020600020016000905590558560010160008681526020019081526020016000206000905560019350505050610e3d565b60009150505b92915050565b600080fd5b60007fffffffff0000000000000000000000000000000000000000000000000000000082169050919050565b610e7d81610e48565b8114610e8857600080fd5b50565b600081359050610e9a81610e74565b92915050565b600060208284031215610eb657610eb5610e43565b5b6000610ec484828501610e8b565b91505092915050565b60008115159050919050565b610ee281610ecd565b82525050565b6000602082019050610efd6000830184610ed9565b92915050565b6000819050919050565b610f1681610f03565b8114610f2157600080fd5b50565b600081359050610f3381610f0d565b92915050565b600060208284031215610f4f57610f4e610e43565b5b6000610f5d84828501610f24565b91505092915050565b610f6f81610f03565b82525050565b6000602082019050610f8a6000830184610f66565b92915050565b600073ffffffffffffffffffffffffffffffffffffffff82169050919050565b6000610fbb82610f90565b9050919050565b610fcb81610fb0565b8114610fd657600080fd5b50565b600081359050610fe881610fc2565b92915050565b6000806040838503121561100557611004610e43565b5b600061101385828601610f24565b925050602061102485828601610fd9565b9150509250929050565b6000819050919050565b6110418161102e565b811461104c57600080fd5b50565b60008135905061105e81611038565b92915050565b6000806040838503121561107b5761107a610e43565b5b600061108985828601610f24565b925050602061109a8582860161104f565b9150509250929050565b6110ad81610fb0565b82525050565b60006020820190506110c860008301846110a4565b92915050565b600081519050919050565b600082825260208201905092915050565b6000819050602082019050919050565b61110381610fb0565b82525050565b600061111583836110fa565b60208301905092915050565b6000602082019050919050565b6000611139826110ce565b61114381856110d9565b935061114e836110ea565b8060005b8381101561117f5781516111668882611109565b975061117183611121565b925050600181019050611152565b5085935050505092915050565b600060208201905081810360008301526111a6818461112e565b905092915050565b6111b78161102e565b82525050565b60006020820190506111d260008301846111ae565b92915050565b600082825260208201905092915050565b7f416363657373436f6e74726f6c3a2063616e206f6e6c792072656e6f756e636560008201527f20726f6c657320666f722073656c660000000000000000000000000000000000602082015250565b6000611245602f836111d8565b9150611250826111e9565b604082019050919050565b6000602082019050818103600083015261127481611238565b9050919050565b7f4e487b7100000000000000000000000000000000000000000000000000000000600052604160045260246000fd5b7f4e487b7100000000000000000000000000000000000000000000000000000000600052603260045260246000fd5b7f4e487b7100000000000000000000000000000000000000000000000000000000600052601160045260246000fd5b60006113138261102e565b91507fffffffffffffffffffffffffffffffffffffffffffffffffffffffffffffffff821415611346576113456112d9565b5b600182019050919050565b600081905092915050565b7f416363657373436f6e74726f6c3a206163636f756e7420000000000000000000600082015250565b6000611392601783611351565b915061139d8261135c565b601782019050919050565b600081519050919050565b60005b838110156113d15780820151818401526020810190506113b6565b838111156113e0576000848401525b50505050565b60006113f1826113a8565b6113fb8185611351565b935061140b8185602086016113b3565b80840191505092915050565b7f206973206d697373696e6720726f6c6520000000000000000000000000000000600082015250565b600061144d601183611351565b915061145882611417565b601182019050919050565b600061146e82611385565b915061147a82856113e6565b915061148582611440565b915061149182846113e6565b91508190509392505050565b6000601f19601f8301169050919050565b60006114b9826113a8565b6114c381856111d8565b93506114d38185602086016113b3565b6114dc8161149d565b840191505092915050565b6000602082019050818103600083015261150181846114ae565b905092915050565b60006115148261102e565b915061151f8361102e565b9250817fffffffffffffffffffffffffffffffffffffffffffffffffffffffffffffffff0483118215151615611558576115576112d9565b5b828202905092915050565b600061156e8261102e565b91506115798361102e565b9250827fffffffffffffffffffffffffffffffffffffffffffffffffffffffffffffffff038211156115ae576115ad6112d9565b5b828201905092915050565b60006115c48261102e565b915060008214156115d8576115d76112d9565b5b600182039050919050565b7f537472696e67733a20686578206c656e67746820696e73756666696369656e74600082015250565b60006116196020836111d8565b9150611624826115e3565b602082019050919050565b600060208201905081810360008301526116488161160c565b9050919050565b600061165a8261102e565b91506116658361102e565b925082821015611678576116776112d9565b5b828203905092915050565b7f4e487b7100000000000000000000000000000000000000000000000000000000600052603160045260246000fdfea2646970667358221220444e9c0a2573c196046a82160600343a3992f903b6e9853f4d17a3c17b1b1dd664736f6c634300080c0033",
			"opcodes": "PUSH1 0x80 PUSH1 0x40 MSTORE CALLVALUE DUP1 ISZERO PUSH3 0x11 JUMPI PUSH1 0x0 DUP1 REVERT JUMPDEST POP PUSH1 0x40 MLOAD PUSH3 0x1B6E CODESIZE SUB DUP1 PUSH3 0x1B6E DUP4 CODECOPY DUP2 DUP2 ADD PUSH1 0x40 MSTORE DUP2 ADD SWAP1 PUSH3 0x37 SWAP2 SWAP1 PUSH3 0x444 JUMP JUMPDEST PUSH3 0x89 PUSH32 0x2AC4B647885DC0812ED26210D6A36D5F1C8DE284183A5E4C171119CD3B54458A PUSH32 0x74966176C367549066DE941FECEC46BE0069530384452DAA9C31D709C544E639 PUSH3 0xC2 PUSH1 0x20 SHL PUSH1 0x20 SHR JUMP JUMPDEST PUSH3 0xBB PUSH32 0x74966176C367549066DE941FECEC46BE0069530384452DAA9C31D709C544E639 DUP3 PUSH3 0x125 PUSH1 0x20 SHL PUSH1 0x20 SHR JUMP JUMPDEST POP PUSH3 0x476 JUMP JUMPDEST PUSH1 0x0 PUSH3 0xD5 DUP4 PUSH3 0x13B PUSH1 0x20 SHL PUSH1 0x20 SHR JUMP JUMPDEST SWAP1 POP DUP2 PUSH1 0x0 DUP1 DUP6 DUP2 MSTORE PUSH1 0x20 ADD SWAP1 DUP2 MSTORE PUSH1 0x20 ADD PUSH1 0x0 KECCAK256 PUSH1 0x1 ADD DUP2 SWAP1 SSTORE POP DUP2 DUP2 DUP5 PUSH32 0xBD79B86FFE0AB8E8776151514217CD7CACD52C909F66475C3AF44E129F0B00FF PUSH1 0x40 MLOAD PUSH1 0x40 MLOAD DUP1 SWAP2 SUB SWAP1 LOG4 POP POP POP JUMP JUMPDEST PUSH3 0x137 DUP3 DUP3 PUSH3 0x15A PUSH1 0x20 SHL PUSH1 0x20 SHR JUMP JUMPDEST POP POP JUMP JUMPDEST PUSH1 0x0 DUP1 PUSH1 0x0 DUP4 DUP2 MSTORE PUSH1 0x20 ADD SWAP1 DUP2 MSTORE PUSH1 0x20 ADD PUSH1 0x0 KECCAK256 PUSH1 0x1 ADD SLOAD SWAP1 POP SWAP2 SWAP1 POP JUMP JUMPDEST PUSH3 0x171 DUP3 DUP3 PUSH3 0x1A2 PUSH1 0x20 SHL PUSH3 0x5E3 OR PUSH1 0x20 SHR JUMP JUMPDEST PUSH3 0x19D DUP2 PUSH1 0x1 PUSH1 0x0 DUP6 DUP2 MSTORE PUSH1 0x20 ADD SWAP1 DUP2 MSTORE PUSH1 0x20 ADD PUSH1 0x0 KECCAK256 PUSH3 0x293 PUSH1 0x20 SHL PUSH3 0x6C3 OR SWAP1 SWAP2 SWAP1 PUSH1 0x20 SHR JUMP JUMPDEST POP POP POP JUMP JUMPDEST PUSH3 0x1B4 DUP3 DUP3 PUSH3 0x2CB PUSH1 0x20 SHL PUSH1 0x20 SHR JUMP JUMPDEST PUSH3 0x28F JUMPI PUSH1 0x1 PUSH1 0x0 DUP1 DUP5 DUP2 MSTORE PUSH1 0x20 ADD SWAP1 DUP2 MSTORE PUSH1 0x20 ADD PUSH1 0x0 KECCAK256 PUSH1 0x0 ADD PUSH1 0x0 DUP4 PUSH20 0xFFFFFFFFFFFFFFFFFFFFFFFFFFFFFFFFFFFFFFFF AND PUSH20 0xFFFFFFFFFFFFFFFFFFFFFFFFFFFFFFFFFFFFFFFF AND DUP2 MSTORE PUSH1 0x20 ADD SWAP1 DUP2 MSTORE PUSH1 0x20 ADD PUSH1 0x0 KECCAK256 PUSH1 0x0 PUSH2 0x100 EXP DUP2 SLOAD DUP2 PUSH1 0xFF MUL NOT AND SWAP1 DUP4 ISZERO ISZERO MUL OR SWAP1 SSTORE POP PUSH3 0x234 PUSH3 0x335 PUSH1 0x20 SHL PUSH1 0x20 SHR JUMP JUMPDEST PUSH20 0xFFFFFFFFFFFFFFFFFFFFFFFFFFFFFFFFFFFFFFFF AND DUP2 PUSH20 0xFFFFFFFFFFFFFFFFFFFFFFFFFFFFFFFFFFFFFFFF AND DUP4 PUSH32 0x2F8788117E7EFF1D82E926EC794901D17C78024A50270940304540A733656F0D PUSH1 0x40 MLOAD PUSH1 0x40 MLOAD DUP1 SWAP2 SUB SWAP1 LOG4 JUMPDEST POP POP JUMP JUMPDEST PUSH1 0x0 PUSH3 0x2C3 DUP4 PUSH1 0x0 ADD DUP4 PUSH20 0xFFFFFFFFFFFFFFFFFFFFFFFFFFFFFFFFFFFFFFFF AND PUSH1 0x0 SHL PUSH3 0x33D PUSH1 0x20 SHL PUSH1 0x20 SHR JUMP JUMPDEST SWAP1 POP SWAP3 SWAP2 POP POP JUMP JUMPDEST PUSH1 0x0 DUP1 PUSH1 0x0 DUP5 DUP2 MSTORE PUSH1 0x20 ADD SWAP1 DUP2 MSTORE PUSH1 0x20 ADD PUSH1 0x0 KECCAK256 PUSH1 0x0 ADD PUSH1 0x0 DUP4 PUSH20 0xFFFFFFFFFFFFFFFFFFFFFFFFFFFFFFFFFFFFFFFF AND PUSH20 0xFFFFFFFFFFFFFFFFFFFFFFFFFFFFFFFFFFFFFFFF AND DUP2 MSTORE PUSH1 0x20 ADD SWAP1 DUP2 MSTORE PUSH1 0x20 ADD PUSH1 0x0 KECCAK256 PUSH1 0x0 SWAP1 SLOAD SWAP1 PUSH2 0x100 EXP SWAP1 DIV PUSH1 0xFF AND SWAP1 POP SWAP3 SWAP2 POP POP JUMP JUMPDEST PUSH1 0x0 CALLER SWAP1 POP SWAP1 JUMP JUMPDEST PUSH1 0x0 PUSH3 0x351 DUP4 DUP4 PUSH3 0x3B7 PUSH1 0x20 SHL PUSH1 0x20 SHR JUMP JUMPDEST PUSH3 0x3AC JUMPI DUP3 PUSH1 0x0 ADD DUP3 SWAP1 DUP1 PUSH1 0x1 DUP2 SLOAD ADD DUP1 DUP3 SSTORE DUP1 SWAP2 POP POP PUSH1 0x1 SWAP1 SUB SWAP1 PUSH1 0x0 MSTORE PUSH1 0x20 PUSH1 0x0 KECCAK256 ADD PUSH1 0x0 SWAP1 SWAP2 SWAP1 SWAP2 SWAP1 SWAP2 POP SSTORE DUP3 PUSH1 0x0 ADD DUP1 SLOAD SWAP1 POP DUP4 PUSH1 0x1 ADD PUSH1 0x0 DUP5 DUP2 MSTORE PUSH1 0x20 ADD SWAP1 DUP2 MSTORE PUSH1 0x20 ADD PUSH1 0x0 KECCAK256 DUP2 SWAP1 SSTORE POP PUSH1 0x1 SWAP1 POP PUSH3 0x3B1 JUMP JUMPDEST PUSH1 0x0 SWAP1 POP JUMPDEST SWAP3 SWAP2 POP POP JUMP JUMPDEST PUSH1 0x0 DUP1 DUP4 PUSH1 0x1 ADD PUSH1 0x0 DUP5 DUP2 MSTORE PUSH1 0x20 ADD SWAP1 DUP2 MSTORE PUSH1 0x20 ADD PUSH1 0x0 KECCAK256 SLOAD EQ ISZERO SWAP1 POP SWAP3 SWAP2 POP POP JUMP JUMPDEST PUSH1 0x0 DUP1 REVERT JUMPDEST PUSH1 0x0 PUSH20 0xFFFFFFFFFFFFFFFFFFFFFFFFFFFFFFFFFFFFFFFF DUP3 AND SWAP1 POP SWAP2 SWAP1 POP JUMP JUMPDEST PUSH1 0x0 PUSH3 0x40C DUP3 PUSH3 0x3DF JUMP JUMPDEST SWAP1 POP SWAP2 SWAP1 POP JUMP JUMPDEST PUSH3 0x41E DUP2 PUSH3 0x3FF JUMP JUMPDEST DUP2 EQ PUSH3 0x42A JUMPI PUSH1 0x0 DUP1 REVERT JUMPDEST POP JUMP JUMPDEST PUSH1 0x0 DUP2 MLOAD SWAP1 POP PUSH3 0x43E DUP2 PUSH3 0x413 JUMP JUMPDEST SWAP3 SWAP2 POP POP JUMP JUMPDEST PUSH1 0x0 PUSH1 0x20 DUP3 DUP5 SUB SLT ISZERO PUSH3 0x45D JUMPI PUSH3 0x45C PUSH3 0x3DA JUMP JUMPDEST JUMPDEST PUSH1 0x0 PUSH3 0x46D DUP5 DUP3 DUP6 ADD PUSH3 0x42D JUMP JUMPDEST SWAP2 POP POP SWAP3 SWAP2 POP POP JUMP JUMPDEST PUSH2 0x16E8 DUP1 PUSH3 0x486 PUSH1 0x0 CODECOPY PUSH1 0x0 RETURN INVALID PUSH1 0x80 PUSH1 0x40 MSTORE CALLVALUE DUP1 ISZERO PUSH2 0x10 JUMPI PUSH1 0x0 DUP1 REVERT JUMPDEST POP PUSH1 0x4 CALLDATASIZE LT PUSH2 0xB4 JUMPI PUSH1 0x0 CALLDATALOAD PUSH1 0xE0 SHR DUP1 PUSH4 0x91D14854 GT PUSH2 0x71 JUMPI DUP1 PUSH4 0x91D14854 EQ PUSH2 0x19F JUMPI DUP1 PUSH4 0xA217FDDF EQ PUSH2 0x1CF JUMPI DUP1 PUSH4 0xA3246AD3 EQ PUSH2 0x1ED JUMPI DUP1 PUSH4 0xCA15C873 EQ PUSH2 0x21D JUMPI DUP1 PUSH4 0xD547741F EQ PUSH2 0x24D JUMPI DUP1 PUSH4 0xEC4AB798 EQ PUSH2 0x269 JUMPI PUSH2 0xB4 JUMP JUMPDEST DUP1 PUSH4 0x1FFC9A7 EQ PUSH2 0xB9 JUMPI DUP1 PUSH4 0x248A9CA3 EQ PUSH2 0xE9 JUMPI DUP1 PUSH4 0x2F2FF15D EQ PUSH2 0x119 JUMPI DUP1 PUSH4 0x36568ABE EQ PUSH2 0x135 JUMPI DUP1 PUSH4 0x852757AD EQ PUSH2 0x151 JUMPI DUP1 PUSH4 0x9010D07C EQ PUSH2 0x16F JUMPI JUMPDEST PUSH1 0x0 DUP1 REVERT JUMPDEST PUSH2 0xD3 PUSH1 0x4 DUP1 CALLDATASIZE SUB DUP2 ADD SWAP1 PUSH2 0xCE SWAP2 SWAP1 PUSH2 0xEA0 JUMP JUMPDEST PUSH2 0x287 JUMP JUMPDEST PUSH1 0x40 MLOAD PUSH2 0xE0 SWAP2 SWAP1 PUSH2 0xEE8 JUMP JUMPDEST PUSH1 0x40 MLOAD DUP1 SWAP2 SUB SWAP1 RETURN JUMPDEST PUSH2 0x103 PUSH1 0x4 DUP1 CALLDATASIZE SUB DUP2 ADD SWAP1 PUSH2 0xFE SWAP2 SWAP1 PUSH2 0xF39 JUMP JUMPDEST PUSH2 0x301 JUMP JUMPDEST PUSH1 0x40 MLOAD PUSH2 0x110 SWAP2 SWAP1 PUSH2 0xF75 JUMP JUMPDEST PUSH1 0x40 MLOAD DUP1 SWAP2 SUB SWAP1 RETURN JUMPDEST PUSH2 0x133 PUSH1 0x4 DUP1 CALLDATASIZE SUB DUP2 ADD SWAP1 PUSH2 0x12E SWAP2 SWAP1 PUSH2 0xFEE JUMP JUMPDEST PUSH2 0x320 JUMP JUMPDEST STOP JUMPDEST PUSH2 0x14F PUSH1 0x4 DUP1 CALLDATASIZE SUB DUP2 ADD SWAP1 PUSH2 0x14A SWAP2 SWAP1 PUSH2 0xFEE JUMP JUMPDEST PUSH2 0x349 JUMP JUMPDEST STOP JUMPDEST PUSH2 0x159 PUSH2 0x3CC JUMP JUMPDEST PUSH1 0x40 MLOAD PUSH2 0x166 SWAP2 SWAP1 PUSH2 0xF75 JUMP JUMPDEST PUSH1 0x40 MLOAD DUP1 SWAP2 SUB SWAP1 RETURN JUMPDEST PUSH2 0x189 PUSH1 0x4 DUP1 CALLDATASIZE SUB DUP2 ADD SWAP1 PUSH2 0x184 SWAP2 SWAP1 PUSH2 0x1064 JUMP JUMPDEST PUSH2 0x3F0 JUMP JUMPDEST PUSH1 0x40 MLOAD PUSH2 0x196 SWAP2 SWAP1 PUSH2 0x10B3 JUMP JUMPDEST PUSH1 0x40 MLOAD DUP1 SWAP2 SUB SWAP1 RETURN JUMPDEST PUSH2 0x1B9 PUSH1 0x4 DUP1 CALLDATASIZE SUB DUP2 ADD SWAP1 PUSH2 0x1B4 SWAP2 SWAP1 PUSH2 0xFEE JUMP JUMPDEST PUSH2 0x41F JUMP JUMPDEST PUSH1 0x40 MLOAD PUSH2 0x1C6 SWAP2 SWAP1 PUSH2 0xEE8 JUMP JUMPDEST PUSH1 0x40 MLOAD DUP1 SWAP2 SUB SWAP1 RETURN JUMPDEST PUSH2 0x1D7 PUSH2 0x489 JUMP JUMPDEST PUSH1 0x40 MLOAD PUSH2 0x1E4 SWAP2 SWAP1 PUSH2 0xF75 JUMP JUMPDEST PUSH1 0x40 MLOAD DUP1 SWAP2 SUB SWAP1 RETURN JUMPDEST PUSH2 0x207 PUSH1 0x4 DUP1 CALLDATASIZE SUB DUP2 ADD SWAP1 PUSH2 0x202 SWAP2 SWAP1 PUSH2 0xF39 JUMP JUMPDEST PUSH2 0x490 JUMP JUMPDEST PUSH1 0x40 MLOAD PUSH2 0x214 SWAP2 SWAP1 PUSH2 0x118C JUMP JUMPDEST PUSH1 0x40 MLOAD DUP1 SWAP2 SUB SWAP1 RETURN JUMPDEST PUSH2 0x237 PUSH1 0x4 DUP1 CALLDATASIZE SUB DUP2 ADD SWAP1 PUSH2 0x232 SWAP2 SWAP1 PUSH2 0xF39 JUMP JUMPDEST PUSH2 0x572 JUMP JUMPDEST PUSH1 0x40 MLOAD PUSH2 0x244 SWAP2 SWAP1 PUSH2 0x11BD JUMP JUMPDEST PUSH1 0x40 MLOAD DUP1 SWAP2 SUB SWAP1 RETURN JUMPDEST PUSH2 0x267 PUSH1 0x4 DUP1 CALLDATASIZE SUB DUP2 ADD SWAP1 PUSH2 0x262 SWAP2 SWAP1 PUSH2 0xFEE JUMP JUMPDEST PUSH2 0x596 JUMP JUMPDEST STOP JUMPDEST PUSH2 0x271 PUSH2 0x5BF JUMP JUMPDEST PUSH1 0x40 MLOAD PUSH2 0x27E SWAP2 SWAP1 PUSH2 0xF75 JUMP JUMPDEST PUSH1 0x40 MLOAD DUP1 SWAP2 SUB SWAP1 RETURN JUMPDEST PUSH1 0x0 PUSH32 0x5A05180F00000000000000000000000000000000000000000000000000000000 PUSH28 0xFFFFFFFFFFFFFFFFFFFFFFFFFFFFFFFFFFFFFFFFFFFFFFFFFFFFFFFF NOT AND DUP3 PUSH28 0xFFFFFFFFFFFFFFFFFFFFFFFFFFFFFFFFFFFFFFFFFFFFFFFFFFFFFFFF NOT AND EQ DUP1 PUSH2 0x2FA JUMPI POP PUSH2 0x2F9 DUP3 PUSH2 0x6F3 JUMP JUMPDEST JUMPDEST SWAP1 POP SWAP2 SWAP1 POP JUMP JUMPDEST PUSH1 0x0 DUP1 PUSH1 0x0 DUP4 DUP2 MSTORE PUSH1 0x20 ADD SWAP1 DUP2 MSTORE PUSH1 0x20 ADD PUSH1 0x0 KECCAK256 PUSH1 0x1 ADD SLOAD SWAP1 POP SWAP2 SWAP1 POP JUMP JUMPDEST PUSH2 0x329 DUP3 PUSH2 0x301 JUMP JUMPDEST PUSH2 0x33A DUP2 PUSH2 0x335 PUSH2 0x76D JUMP JUMPDEST PUSH2 0x775 JUMP JUMPDEST PUSH2 0x344 DUP4 DUP4 PUSH2 0x812 JUMP JUMPDEST POP POP POP JUMP JUMPDEST PUSH2 0x351 PUSH2 0x76D JUMP JUMPDEST PUSH20 0xFFFFFFFFFFFFFFFFFFFFFFFFFFFFFFFFFFFFFFFF AND DUP2 PUSH20 0xFFFFFFFFFFFFFFFFFFFFFFFFFFFFFFFFFFFFFFFF AND EQ PUSH2 0x3BE JUMPI PUSH1 0x40 MLOAD PUSH32 0x8C379A000000000000000000000000000000000000000000000000000000000 DUP2 MSTORE PUSH1 0x4 ADD PUSH2 0x3B5 SWAP1 PUSH2 0x125B JUMP JUMPDEST PUSH1 0x40 MLOAD DUP1 SWAP2 SUB SWAP1 REVERT JUMPDEST PUSH2 0x3C8 DUP3 DUP3 PUSH2 0x846 JUMP JUMPDEST POP POP JUMP JUMPDEST PUSH32 0x74966176C367549066DE941FECEC46BE0069530384452DAA9C31D709C544E639 DUP2 JUMP JUMPDEST PUSH1 0x0 PUSH2 0x417 DUP3 PUSH1 0x1 PUSH1 0x0 DUP7 DUP2 MSTORE PUSH1 0x20 ADD SWAP1 DUP2 MSTORE PUSH1 0x20 ADD PUSH1 0x0 KECCAK256 PUSH2 0x87A SWAP1 SWAP2 SWAP1 PUSH4 0xFFFFFFFF AND JUMP JUMPDEST SWAP1 POP SWAP3 SWAP2 POP POP JUMP JUMPDEST PUSH1 0x0 DUP1 PUSH1 0x0 DUP5 DUP2 MSTORE PUSH1 0x20 ADD SWAP1 DUP2 MSTORE PUSH1 0x20 ADD PUSH1 0x0 KECCAK256 PUSH1 0x0 ADD PUSH1 0x0 DUP4 PUSH20 0xFFFFFFFFFFFFFFFFFFFFFFFFFFFFFFFFFFFFFFFF AND PUSH20 0xFFFFFFFFFFFFFFFFFFFFFFFFFFFFFFFFFFFFFFFF AND DUP2 MSTORE PUSH1 0x20 ADD SWAP1 DUP2 MSTORE PUSH1 0x20 ADD PUSH1 0x0 KECCAK256 PUSH1 0x0 SWAP1 SLOAD SWAP1 PUSH2 0x100 EXP SWAP1 DIV PUSH1 0xFF AND SWAP1 POP SWAP3 SWAP2 POP POP JUMP JUMPDEST PUSH1 0x0 DUP1 SHL DUP2 JUMP JUMPDEST PUSH1 0x60 PUSH1 0x0 PUSH2 0x49D DUP4 PUSH2 0x572 JUMP JUMPDEST SWAP1 POP PUSH1 0x0 DUP2 PUSH8 0xFFFFFFFFFFFFFFFF DUP2 GT ISZERO PUSH2 0x4BB JUMPI PUSH2 0x4BA PUSH2 0x127B JUMP JUMPDEST JUMPDEST PUSH1 0x40 MLOAD SWAP1 DUP1 DUP3 MSTORE DUP1 PUSH1 0x20 MUL PUSH1 0x20 ADD DUP3 ADD PUSH1 0x40 MSTORE DUP1 ISZERO PUSH2 0x4E9 JUMPI DUP2 PUSH1 0x20 ADD PUSH1 0x20 DUP3 MUL DUP1 CALLDATASIZE DUP4 CALLDATACOPY DUP1 DUP3 ADD SWAP2 POP POP SWAP1 POP JUMPDEST POP SWAP1 POP PUSH1 0x0 JUMPDEST DUP3 DUP2 LT ISZERO PUSH2 0x567 JUMPI PUSH1 0x0 PUSH2 0x503 DUP7 DUP4 PUSH2 0x3F0 JUMP JUMPDEST SWAP1 POP DUP1 DUP4 DUP4 DUP2 MLOAD DUP2 LT PUSH2 0x519 JUMPI PUSH2 0x518 PUSH2 0x12AA JUMP JUMPDEST JUMPDEST PUSH1 0x20 MUL PUSH1 0x20 ADD ADD SWAP1 PUSH20 0xFFFFFFFFFFFFFFFFFFFFFFFFFFFFFFFFFFFFFFFF AND SWAP1 DUP2 PUSH20 0xFFFFFFFFFFFFFFFFFFFFFFFFFFFFFFFFFFFFFFFF AND DUP2 MSTORE POP POP POP DUP1 DUP1 PUSH2 0x55F SWAP1 PUSH2 0x1308 JUMP JUMPDEST SWAP2 POP POP PUSH2 0x4EF JUMP JUMPDEST POP DUP1 SWAP3 POP POP POP SWAP2 SWAP1 POP JUMP JUMPDEST PUSH1 0x0 PUSH2 0x58F PUSH1 0x1 PUSH1 0x0 DUP5 DUP2 MSTORE PUSH1 0x20 ADD SWAP1 DUP2 MSTORE PUSH1 0x20 ADD PUSH1 0x0 KECCAK256 PUSH2 0x894 JUMP JUMPDEST SWAP1 POP SWAP2 SWAP1 POP JUMP JUMPDEST PUSH2 0x59F DUP3 PUSH2 0x301 JUMP JUMPDEST PUSH2 0x5B0 DUP2 PUSH2 0x5AB PUSH2 0x76D JUMP JUMPDEST PUSH2 0x775 JUMP JUMPDEST PUSH2 0x5BA DUP4 DUP4 PUSH2 0x846 JUMP JUMPDEST POP POP POP JUMP JUMPDEST PUSH32 0x2AC4B647885DC0812ED26210D6A36D5F1C8DE284183A5E4C171119CD3B54458A DUP2 JUMP JUMPDEST PUSH2 0x5ED DUP3 DUP3 PUSH2 0x41F JUMP JUMPDEST PUSH2 0x6BF JUMPI PUSH1 0x1 PUSH1 0x0 DUP1 DUP5 DUP2 MSTORE PUSH1 0x20 ADD SWAP1 DUP2 MSTORE PUSH1 0x20 ADD PUSH1 0x0 KECCAK256 PUSH1 0x0 ADD PUSH1 0x0 DUP4 PUSH20 0xFFFFFFFFFFFFFFFFFFFFFFFFFFFFFFFFFFFFFFFF AND PUSH20 0xFFFFFFFFFFFFFFFFFFFFFFFFFFFFFFFFFFFFFFFF AND DUP2 MSTORE PUSH1 0x20 ADD SWAP1 DUP2 MSTORE PUSH1 0x20 ADD PUSH1 0x0 KECCAK256 PUSH1 0x0 PUSH2 0x100 EXP DUP2 SLOAD DUP2 PUSH1 0xFF MUL NOT AND SWAP1 DUP4 ISZERO ISZERO MUL OR SWAP1 SSTORE POP PUSH2 0x664 PUSH2 0x76D JUMP JUMPDEST PUSH20 0xFFFFFFFFFFFFFFFFFFFFFFFFFFFFFFFFFFFFFFFF AND DUP2 PUSH20 0xFFFFFFFFFFFFFFFFFFFFFFFFFFFFFFFFFFFFFFFF AND DUP4 PUSH32 0x2F8788117E7EFF1D82E926EC794901D17C78024A50270940304540A733656F0D PUSH1 0x40 MLOAD PUSH1 0x40 MLOAD DUP1 SWAP2 SUB SWAP1 LOG4 JUMPDEST POP POP JUMP JUMPDEST PUSH1 0x0 PUSH2 0x6EB DUP4 PUSH1 0x0 ADD DUP4 PUSH20 0xFFFFFFFFFFFFFFFFFFFFFFFFFFFFFFFFFFFFFFFF AND PUSH1 0x0 SHL PUSH2 0x8A9 JUMP JUMPDEST SWAP1 POP SWAP3 SWAP2 POP POP JUMP JUMPDEST PUSH1 0x0 PUSH32 0x7965DB0B00000000000000000000000000000000000000000000000000000000 PUSH28 0xFFFFFFFFFFFFFFFFFFFFFFFFFFFFFFFFFFFFFFFFFFFFFFFFFFFFFFFF NOT AND DUP3 PUSH28 0xFFFFFFFFFFFFFFFFFFFFFFFFFFFFFFFFFFFFFFFFFFFFFFFFFFFFFFFF NOT AND EQ DUP1 PUSH2 0x766 JUMPI POP PUSH2 0x765 DUP3 PUSH2 0x919 JUMP JUMPDEST JUMPDEST SWAP1 POP SWAP2 SWAP1 POP JUMP JUMPDEST PUSH1 0x0 CALLER SWAP1 POP SWAP1 JUMP JUMPDEST PUSH2 0x77F DUP3 DUP3 PUSH2 0x41F JUMP JUMPDEST PUSH2 0x80E JUMPI PUSH2 0x7A4 DUP2 PUSH20 0xFFFFFFFFFFFFFFFFFFFFFFFFFFFFFFFFFFFFFFFF AND PUSH1 0x14 PUSH2 0x983 JUMP JUMPDEST PUSH2 0x7B2 DUP4 PUSH1 0x0 SHR PUSH1 0x20 PUSH2 0x983 JUMP JUMPDEST PUSH1 0x40 MLOAD PUSH1 0x20 ADD PUSH2 0x7C3 SWAP3 SWAP2 SWAP1 PUSH2 0x1463 JUMP JUMPDEST PUSH1 0x40 MLOAD PUSH1 0x20 DUP2 DUP4 SUB SUB DUP2 MSTORE SWAP1 PUSH1 0x40 MSTORE PUSH1 0x40 MLOAD PUSH32 0x8C379A000000000000000000000000000000000000000000000000000000000 DUP2 MSTORE PUSH1 0x4 ADD PUSH2 0x805 SWAP2 SWAP1 PUSH2 0x14E7 JUMP JUMPDEST PUSH1 0x40 MLOAD DUP1 SWAP2 SUB SWAP1 REVERT JUMPDEST POP POP JUMP JUMPDEST PUSH2 0x81C DUP3 DUP3 PUSH2 0x5E3 JUMP JUMPDEST PUSH2 0x841 DUP2 PUSH1 0x1 PUSH1 0x0 DUP6 DUP2 MSTORE PUSH1 0x20 ADD SWAP1 DUP2 MSTORE PUSH1 0x20 ADD PUSH1 0x0 KECCAK256 PUSH2 0x6C3 SWAP1 SWAP2 SWAP1 PUSH4 0xFFFFFFFF AND JUMP JUMPDEST POP POP POP JUMP JUMPDEST PUSH2 0x850 DUP3 DUP3 PUSH2 0xBBF JUMP JUMPDEST PUSH2 0x875 DUP2 PUSH1 0x1 PUSH1 0x0 DUP6 DUP2 MSTORE PUSH1 0x20 ADD SWAP1 DUP2 MSTORE PUSH1 0x20 ADD PUSH1 0x0 KECCAK256 PUSH2 0xCA0 SWAP1 SWAP2 SWAP1 PUSH4 0xFFFFFFFF AND JUMP JUMPDEST POP POP POP JUMP JUMPDEST PUSH1 0x0 PUSH2 0x889 DUP4 PUSH1 0x0 ADD DUP4 PUSH2 0xCD0 JUMP JUMPDEST PUSH1 0x0 SHR SWAP1 POP SWAP3 SWAP2 POP POP JUMP JUMPDEST PUSH1 0x0 PUSH2 0x8A2 DUP3 PUSH1 0x0 ADD PUSH2 0xCFB JUMP JUMPDEST SWAP1 POP SWAP2 SWAP1 POP JUMP JUMPDEST PUSH1 0x0 PUSH2 0x8B5 DUP4 DUP4 PUSH2 0xD0C JUMP JUMPDEST PUSH2 0x90E JUMPI DUP3 PUSH1 0x0 ADD DUP3 SWAP1 DUP1 PUSH1 0x1 DUP2 SLOAD ADD DUP1 DUP3 SSTORE DUP1 SWAP2 POP POP PUSH1 0x1 SWAP1 SUB SWAP1 PUSH1 0x0 MSTORE PUSH1 0x20 PUSH1 0x0 KECCAK256 ADD PUSH1 0x0 SWAP1 SWAP2 SWAP1 SWAP2 SWAP1 SWAP2 POP SSTORE DUP3 PUSH1 0x0 ADD DUP1 SLOAD SWAP1 POP DUP4 PUSH1 0x1 ADD PUSH1 0x0 DUP5 DUP2 MSTORE PUSH1 0x20 ADD SWAP1 DUP2 MSTORE PUSH1 0x20 ADD PUSH1 0x0 KECCAK256 DUP2 SWAP1 SSTORE POP PUSH1 0x1 SWAP1 POP PUSH2 0x913 JUMP JUMPDEST PUSH1 0x0 SWAP1 POP JUMPDEST SWAP3 SWAP2 POP POP JUMP JUMPDEST PUSH1 0x0 PUSH32 0x1FFC9A700000000000000000000000000000000000000000000000000000000 PUSH28 0xFFFFFFFFFFFFFFFFFFFFFFFFFFFFFFFFFFFFFFFFFFFFFFFFFFFFFFFF NOT AND DUP3 PUSH28 0xFFFFFFFFFFFFFFFFFFFFFFFFFFFFFFFFFFFFFFFFFFFFFFFFFFFFFFFF NOT AND EQ SWAP1 POP SWAP2 SWAP1 POP JUMP JUMPDEST PUSH1 0x60 PUSH1 0x0 PUSH1 0x2 DUP4 PUSH1 0x2 PUSH2 0x996 SWAP2 SWAP1 PUSH2 0x1509 JUMP JUMPDEST PUSH2 0x9A0 SWAP2 SWAP1 PUSH2 0x1563 JUMP JUMPDEST PUSH8 0xFFFFFFFFFFFFFFFF DUP2 GT ISZERO PUSH2 0x9B9 JUMPI PUSH2 0x9B8 PUSH2 0x127B JUMP JUMPDEST JUMPDEST PUSH1 0x40 MLOAD SWAP1 DUP1 DUP3 MSTORE DUP1 PUSH1 0x1F ADD PUSH1 0x1F NOT AND PUSH1 0x20 ADD DUP3 ADD PUSH1 0x40 MSTORE DUP1 ISZERO PUSH2 0x9EB JUMPI DUP2 PUSH1 0x20 ADD PUSH1 0x1 DUP3 MUL DUP1 CALLDATASIZE DUP4 CALLDATACOPY DUP1 DUP3 ADD SWAP2 POP POP SWAP1 POP JUMPDEST POP SWAP1 POP PUSH32 0x3000000000000000000000000000000000000000000000000000000000000000 DUP2 PUSH1 0x0 DUP2 MLOAD DUP2 LT PUSH2 0xA23 JUMPI PUSH2 0xA22 PUSH2 0x12AA JUMP JUMPDEST JUMPDEST PUSH1 0x20 ADD ADD SWAP1 PUSH31 0xFFFFFFFFFFFFFFFFFFFFFFFFFFFFFFFFFFFFFFFFFFFFFFFFFFFFFFFFFFFFFF NOT AND SWAP1 DUP2 PUSH1 0x0 BYTE SWAP1 MSTORE8 POP PUSH32 0x7800000000000000000000000000000000000000000000000000000000000000 DUP2 PUSH1 0x1 DUP2 MLOAD DUP2 LT PUSH2 0xA87 JUMPI PUSH2 0xA86 PUSH2 0x12AA JUMP JUMPDEST JUMPDEST PUSH1 0x20 ADD ADD SWAP1 PUSH31 0xFFFFFFFFFFFFFFFFFFFFFFFFFFFFFFFFFFFFFFFFFFFFFFFFFFFFFFFFFFFFFF NOT AND SWAP1 DUP2 PUSH1 0x0 BYTE SWAP1 MSTORE8 POP PUSH1 0x0 PUSH1 0x1 DUP5 PUSH1 0x2 PUSH2 0xAC7 SWAP2 SWAP1 PUSH2 0x1509 JUMP JUMPDEST PUSH2 0xAD1 SWAP2 SWAP1 PUSH2 0x1563 JUMP JUMPDEST SWAP1 POP JUMPDEST PUSH1 0x1 DUP2 GT ISZERO PUSH2 0xB71 JUMPI PUSH32 0x3031323334353637383961626364656600000000000000000000000000000000 PUSH1 0xF DUP7 AND PUSH1 0x10 DUP2 LT PUSH2 0xB13 JUMPI PUSH2 0xB12 PUSH2 0x12AA JUMP JUMPDEST JUMPDEST BYTE PUSH1 0xF8 SHL DUP3 DUP3 DUP2 MLOAD DUP2 LT PUSH2 0xB2A JUMPI PUSH2 0xB29 PUSH2 0x12AA JUMP JUMPDEST JUMPDEST PUSH1 0x20 ADD ADD SWAP1 PUSH31 0xFFFFFFFFFFFFFFFFFFFFFFFFFFFFFFFFFFFFFFFFFFFFFFFFFFFFFFFFFFFFFF NOT AND SWAP1 DUP2 PUSH1 0x0 BYTE SWAP1 MSTORE8 POP PUSH1 0x4 DUP6 SWAP1 SHR SWAP5 POP DUP1 PUSH2 0xB6A SWAP1 PUSH2 0x15B9 JUMP JUMPDEST SWAP1 POP PUSH2 0xAD4 JUMP JUMPDEST POP PUSH1 0x0 DUP5 EQ PUSH2 0xBB5 JUMPI PUSH1 0x40 MLOAD PUSH32 0x8C379A000000000000000000000000000000000000000000000000000000000 DUP2 MSTORE PUSH1 0x4 ADD PUSH2 0xBAC SWAP1 PUSH2 0x162F JUMP JUMPDEST PUSH1 0x40 MLOAD DUP1 SWAP2 SUB SWAP1 REVERT JUMPDEST DUP1 SWAP2 POP POP SWAP3 SWAP2 POP POP JUMP JUMPDEST PUSH2 0xBC9 DUP3 DUP3 PUSH2 0x41F JUMP JUMPDEST ISZERO PUSH2 0xC9C JUMPI PUSH1 0x0 DUP1 PUSH1 0x0 DUP5 DUP2 MSTORE PUSH1 0x20 ADD SWAP1 DUP2 MSTORE PUSH1 0x20 ADD PUSH1 0x0 KECCAK256 PUSH1 0x0 ADD PUSH1 0x0 DUP4 PUSH20 0xFFFFFFFFFFFFFFFFFFFFFFFFFFFFFFFFFFFFFFFF AND PUSH20 0xFFFFFFFFFFFFFFFFFFFFFFFFFFFFFFFFFFFFFFFF AND DUP2 MSTORE PUSH1 0x20 ADD SWAP1 DUP2 MSTORE PUSH1 0x20 ADD PUSH1 0x0 KECCAK256 PUSH1 0x0 PUSH2 0x100 EXP DUP2 SLOAD DUP2 PUSH1 0xFF MUL NOT AND SWAP1 DUP4 ISZERO ISZERO MUL OR SWAP1 SSTORE POP PUSH2 0xC41 PUSH2 0x76D JUMP JUMPDEST PUSH20 0xFFFFFFFFFFFFFFFFFFFFFFFFFFFFFFFFFFFFFFFF AND DUP2 PUSH20 0xFFFFFFFFFFFFFFFFFFFFFFFFFFFFFFFFFFFFFFFF AND DUP4 PUSH32 0xF6391F5C32D9C69D2A47EA670B442974B53935D1EDC7FD64EB21E047A839171B PUSH1 0x40 MLOAD PUSH1 0x40 MLOAD DUP1 SWAP2 SUB SWAP1 LOG4 JUMPDEST POP POP JUMP JUMPDEST PUSH1 0x0 PUSH2 0xCC8 DUP4 PUSH1 0x0 ADD DUP4 PUSH20 0xFFFFFFFFFFFFFFFFFFFFFFFFFFFFFFFFFFFFFFFF AND PUSH1 0x0 SHL PUSH2 0xD2F JUMP JUMPDEST SWAP1 POP SWAP3 SWAP2 POP POP JUMP JUMPDEST PUSH1 0x0 DUP3 PUSH1 0x0 ADD DUP3 DUP2 SLOAD DUP2 LT PUSH2 0xCE8 JUMPI PUSH2 0xCE7 PUSH2 0x12AA JUMP JUMPDEST JUMPDEST SWAP1 PUSH1 0x0 MSTORE PUSH1 0x20 PUSH1 0x0 KECCAK256 ADD SLOAD SWAP1 POP SWAP3 SWAP2 POP POP JUMP JUMPDEST PUSH1 0x0 DUP2 PUSH1 0x0 ADD DUP1 SLOAD SWAP1 POP SWAP1 POP SWAP2 SWAP1 POP JUMP JUMPDEST PUSH1 0x0 DUP1 DUP4 PUSH1 0x1 ADD PUSH1 0x0 DUP5 DUP2 MSTORE PUSH1 0x20 ADD SWAP1 DUP2 MSTORE PUSH1 0x20 ADD PUSH1 0x0 KECCAK256 SLOAD EQ ISZERO SWAP1 POP SWAP3 SWAP2 POP POP JUMP JUMPDEST PUSH1 0x0 DUP1 DUP4 PUSH1 0x1 ADD PUSH1 0x0 DUP5 DUP2 MSTORE PUSH1 0x20 ADD SWAP1 DUP2 MSTORE PUSH1 0x20 ADD PUSH1 0x0 KECCAK256 SLOAD SWAP1 POP PUSH1 0x0 DUP2 EQ PUSH2 0xE37 JUMPI PUSH1 0x0 PUSH1 0x1 DUP3 PUSH2 0xD61 SWAP2 SWAP1 PUSH2 0x164F JUMP JUMPDEST SWAP1 POP PUSH1 0x0 PUSH1 0x1 DUP7 PUSH1 0x0 ADD DUP1 SLOAD SWAP1 POP PUSH2 0xD79 SWAP2 SWAP1 PUSH2 0x164F JUMP JUMPDEST SWAP1 POP DUP2 DUP2 EQ PUSH2 0xDE8 JUMPI PUSH1 0x0 DUP7 PUSH1 0x0 ADD DUP3 DUP2 SLOAD DUP2 LT PUSH2 0xD9A JUMPI PUSH2 0xD99 PUSH2 0x12AA JUMP JUMPDEST JUMPDEST SWAP1 PUSH1 0x0 MSTORE PUSH1 0x20 PUSH1 0x0 KECCAK256 ADD SLOAD SWAP1 POP DUP1 DUP8 PUSH1 0x0 ADD DUP5 DUP2 SLOAD DUP2 LT PUSH2 0xDBE JUMPI PUSH2 0xDBD PUSH2 0x12AA JUMP JUMPDEST JUMPDEST SWAP1 PUSH1 0x0 MSTORE PUSH1 0x20 PUSH1 0x0 KECCAK256 ADD DUP2 SWAP1 SSTORE POP DUP4 DUP8 PUSH1 0x1 ADD PUSH1 0x0 DUP4 DUP2 MSTORE PUSH1 0x20 ADD SWAP1 DUP2 MSTORE PUSH1 0x20 ADD PUSH1 0x0 KECCAK256 DUP2 SWAP1 SSTORE POP POP JUMPDEST DUP6 PUSH1 0x0 ADD DUP1 SLOAD DUP1 PUSH2 0xDFC JUMPI PUSH2 0xDFB PUSH2 0x1683 JUMP JUMPDEST JUMPDEST PUSH1 0x1 SWAP1 SUB DUP2 DUP2 SWAP1 PUSH1 0x0 MSTORE PUSH1 0x20 PUSH1 0x0 KECCAK256 ADD PUSH1 0x0 SWAP1 SSTORE SWAP1 SSTORE DUP6 PUSH1 0x1 ADD PUSH1 0x0 DUP7 DUP2 MSTORE PUSH1 0x20 ADD SWAP1 DUP2 MSTORE PUSH1 0x20 ADD PUSH1 0x0 KECCAK256 PUSH1 0x0 SWAP1 SSTORE PUSH1 0x1 SWAP4 POP POP POP POP PUSH2 0xE3D JUMP JUMPDEST PUSH1 0x0 SWAP2 POP POP JUMPDEST SWAP3 SWAP2 POP POP JUMP JUMPDEST PUSH1 0x0 DUP1 REVERT JUMPDEST PUSH1 0x0 PUSH32 0xFFFFFFFF00000000000000000000000000000000000000000000000000000000 DUP3 AND SWAP1 POP SWAP2 SWAP1 POP JUMP JUMPDEST PUSH2 0xE7D DUP2 PUSH2 0xE48 JUMP JUMPDEST DUP2 EQ PUSH2 0xE88 JUMPI PUSH1 0x0 DUP1 REVERT JUMPDEST POP JUMP JUMPDEST PUSH1 0x0 DUP2 CALLDATALOAD SWAP1 POP PUSH2 0xE9A DUP2 PUSH2 0xE74 JUMP JUMPDEST SWAP3 SWAP2 POP POP JUMP JUMPDEST PUSH1 0x0 PUSH1 0x20 DUP3 DUP5 SUB SLT ISZERO PUSH2 0xEB6 JUMPI PUSH2 0xEB5 PUSH2 0xE43 JUMP JUMPDEST JUMPDEST PUSH1 0x0 PUSH2 0xEC4 DUP5 DUP3 DUP6 ADD PUSH2 0xE8B JUMP JUMPDEST SWAP2 POP POP SWAP3 SWAP2 POP POP JUMP JUMPDEST PUSH1 0x0 DUP2 ISZERO ISZERO SWAP1 POP SWAP2 SWAP1 POP JUMP JUMPDEST PUSH2 0xEE2 DUP2 PUSH2 0xECD JUMP JUMPDEST DUP3 MSTORE POP POP JUMP JUMPDEST PUSH1 0x0 PUSH1 0x20 DUP3 ADD SWAP1 POP PUSH2 0xEFD PUSH1 0x0 DUP4 ADD DUP5 PUSH2 0xED9 JUMP JUMPDEST SWAP3 SWAP2 POP POP JUMP JUMPDEST PUSH1 0x0 DUP2 SWAP1 POP SWAP2 SWAP1 POP JUMP JUMPDEST PUSH2 0xF16 DUP2 PUSH2 0xF03 JUMP JUMPDEST DUP2 EQ PUSH2 0xF21 JUMPI PUSH1 0x0 DUP1 REVERT JUMPDEST POP JUMP JUMPDEST PUSH1 0x0 DUP2 CALLDATALOAD SWAP1 POP PUSH2 0xF33 DUP2 PUSH2 0xF0D JUMP JUMPDEST SWAP3 SWAP2 POP POP JUMP JUMPDEST PUSH1 0x0 PUSH1 0x20 DUP3 DUP5 SUB SLT ISZERO PUSH2 0xF4F JUMPI PUSH2 0xF4E PUSH2 0xE43 JUMP JUMPDEST JUMPDEST PUSH1 0x0 PUSH2 0xF5D DUP5 DUP3 DUP6 ADD PUSH2 0xF24 JUMP JUMPDEST SWAP2 POP POP SWAP3 SWAP2 POP POP JUMP JUMPDEST PUSH2 0xF6F DUP2 PUSH2 0xF03 JUMP JUMPDEST DUP3 MSTORE POP POP JUMP JUMPDEST PUSH1 0x0 PUSH1 0x20 DUP3 ADD SWAP1 POP PUSH2 0xF8A PUSH1 0x0 DUP4 ADD DUP5 PUSH2 0xF66 JUMP JUMPDEST SWAP3 SWAP2 POP POP JUMP JUMPDEST PUSH1 0x0 PUSH20 0xFFFFFFFFFFFFFFFFFFFFFFFFFFFFFFFFFFFFFFFF DUP3 AND SWAP1 POP SWAP2 SWAP1 POP JUMP JUMPDEST PUSH1 0x0 PUSH2 0xFBB DUP3 PUSH2 0xF90 JUMP JUMPDEST SWAP1 POP SWAP2 SWAP1 POP JUMP JUMPDEST PUSH2 0xFCB DUP2 PUSH2 0xFB0 JUMP JUMPDEST DUP2 EQ PUSH2 0xFD6 JUMPI PUSH1 0x0 DUP1 REVERT JUMPDEST POP JUMP JUMPDEST PUSH1 0x0 DUP2 CALLDATALOAD SWAP1 POP PUSH2 0xFE8 DUP2 PUSH2 0xFC2 JUMP JUMPDEST SWAP3 SWAP2 POP POP JUMP JUMPDEST PUSH1 0x0 DUP1 PUSH1 0x40 DUP4 DUP6 SUB SLT ISZERO PUSH2 0x1005 JUMPI PUSH2 0x1004 PUSH2 0xE43 JUMP JUMPDEST JUMPDEST PUSH1 0x0 PUSH2 0x1013 DUP6 DUP3 DUP7 ADD PUSH2 0xF24 JUMP JUMPDEST SWAP3 POP POP PUSH1 0x20 PUSH2 0x1024 DUP6 DUP3 DUP7 ADD PUSH2 0xFD9 JUMP JUMPDEST SWAP2 POP POP SWAP3 POP SWAP3 SWAP1 POP JUMP JUMPDEST PUSH1 0x0 DUP2 SWAP1 POP SWAP2 SWAP1 POP JUMP JUMPDEST PUSH2 0x1041 DUP2 PUSH2 0x102E JUMP JUMPDEST DUP2 EQ PUSH2 0x104C JUMPI PUSH1 0x0 DUP1 REVERT JUMPDEST POP JUMP JUMPDEST PUSH1 0x0 DUP2 CALLDATALOAD SWAP1 POP PUSH2 0x105E DUP2 PUSH2 0x1038 JUMP JUMPDEST SWAP3 SWAP2 POP POP JUMP JUMPDEST PUSH1 0x0 DUP1 PUSH1 0x40 DUP4 DUP6 SUB SLT ISZERO PUSH2 0x107B JUMPI PUSH2 0x107A PUSH2 0xE43 JUMP JUMPDEST JUMPDEST PUSH1 0x0 PUSH2 0x1089 DUP6 DUP3 DUP7 ADD PUSH2 0xF24 JUMP JUMPDEST SWAP3 POP POP PUSH1 0x20 PUSH2 0x109A DUP6 DUP3 DUP7 ADD PUSH2 0x104F JUMP JUMPDEST SWAP2 POP POP SWAP3 POP SWAP3 SWAP1 POP JUMP JUMPDEST PUSH2 0x10AD DUP2 PUSH2 0xFB0 JUMP JUMPDEST DUP3 MSTORE POP POP JUMP JUMPDEST PUSH1 0x0 PUSH1 0x20 DUP3 ADD SWAP1 POP PUSH2 0x10C8 PUSH1 0x0 DUP4 ADD DUP5 PUSH2 0x10A4 JUMP JUMPDEST SWAP3 SWAP2 POP POP JUMP JUMPDEST PUSH1 0x0 DUP2 MLOAD SWAP1 POP SWAP2 SWAP1 POP JUMP JUMPDEST PUSH1 0x0 DUP3 DUP3 MSTORE PUSH1 0x20 DUP3 ADD SWAP1 POP SWAP3 SWAP2 POP POP JUMP JUMPDEST PUSH1 0x0 DUP2 SWAP1 POP PUSH1 0x20 DUP3 ADD SWAP1 POP SWAP2 SWAP1 POP JUMP JUMPDEST PUSH2 0x1103 DUP2 PUSH2 0xFB0 JUMP JUMPDEST DUP3 MSTORE POP POP JUMP JUMPDEST PUSH1 0x0 PUSH2 0x1115 DUP4 DUP4 PUSH2 0x10FA JUMP JUMPDEST PUSH1 0x20 DUP4 ADD SWAP1 POP SWAP3 SWAP2 POP POP JUMP JUMPDEST PUSH1 0x0 PUSH1 0x20 DUP3 ADD SWAP1 POP SWAP2 SWAP1 POP JUMP JUMPDEST PUSH1 0x0 PUSH2 0x1139 DUP3 PUSH2 0x10CE JUMP JUMPDEST PUSH2 0x1143 DUP2 DUP6 PUSH2 0x10D9 JUMP JUMPDEST SWAP4 POP PUSH2 0x114E DUP4 PUSH2 0x10EA JUMP JUMPDEST DUP1 PUSH1 0x0 JUMPDEST DUP4 DUP2 LT ISZERO PUSH2 0x117F JUMPI DUP2 MLOAD PUSH2 0x1166 DUP9 DUP3 PUSH2 0x1109 JUMP JUMPDEST SWAP8 POP PUSH2 0x1171 DUP4 PUSH2 0x1121 JUMP JUMPDEST SWAP3 POP POP PUSH1 0x1 DUP2 ADD SWAP1 POP PUSH2 0x1152 JUMP JUMPDEST POP DUP6 SWAP4 POP POP POP POP SWAP3 SWAP2 POP POP JUMP JUMPDEST PUSH1 0x0 PUSH1 0x20 DUP3 ADD SWAP1 POP DUP2 DUP2 SUB PUSH1 0x0 DUP4 ADD MSTORE PUSH2 0x11A6 DUP2 DUP5 PUSH2 0x112E JUMP JUMPDEST SWAP1 POP SWAP3 SWAP2 POP POP JUMP JUMPDEST PUSH2 0x11B7 DUP2 PUSH2 0x102E JUMP JUMPDEST DUP3 MSTORE POP POP JUMP JUMPDEST PUSH1 0x0 PUSH1 0x20 DUP3 ADD SWAP1 POP PUSH2 0x11D2 PUSH1 0x0 DUP4 ADD DUP5 PUSH2 0x11AE JUMP JUMPDEST SWAP3 SWAP2 POP POP JUMP JUMPDEST PUSH1 0x0 DUP3 DUP3 MSTORE PUSH1 0x20 DUP3 ADD SWAP1 POP SWAP3 SWAP2 POP POP JUMP JUMPDEST PUSH32 0x416363657373436F6E74726F6C3A2063616E206F6E6C792072656E6F756E6365 PUSH1 0x0 DUP3 ADD MSTORE PUSH32 0x20726F6C657320666F722073656C660000000000000000000000000000000000 PUSH1 0x20 DUP3 ADD MSTORE POP JUMP JUMPDEST PUSH1 0x0 PUSH2 0x1245 PUSH1 0x2F DUP4 PUSH2 0x11D8 JUMP JUMPDEST SWAP2 POP PUSH2 0x1250 DUP3 PUSH2 0x11E9 JUMP JUMPDEST PUSH1 0x40 DUP3 ADD SWAP1 POP SWAP2 SWAP1 POP JUMP JUMPDEST PUSH1 0x0 PUSH1 0x20 DUP3 ADD SWAP1 POP DUP2 DUP2 SUB PUSH1 0x0 DUP4 ADD MSTORE PUSH2 0x1274 DUP2 PUSH2 0x1238 JUMP JUMPDEST SWAP1 POP SWAP2 SWAP1 POP JUMP JUMPDEST PUSH32 0x4E487B7100000000000000000000000000000000000000000000000000000000 PUSH1 0x0 MSTORE PUSH1 0x41 PUSH1 0x4 MSTORE PUSH1 0x24 PUSH1 0x0 REVERT JUMPDEST PUSH32 0x4E487B7100000000000000000000000000000000000000000000000000000000 PUSH1 0x0 MSTORE PUSH1 0x32 PUSH1 0x4 MSTORE PUSH1 0x24 PUSH1 0x0 REVERT JUMPDEST PUSH32 0x4E487B7100000000000000000000000000000000000000000000000000000000 PUSH1 0x0 MSTORE PUSH1 0x11 PUSH1 0x4 MSTORE PUSH1 0x24 PUSH1 0x0 REVERT JUMPDEST PUSH1 0x0 PUSH2 0x1313 DUP3 PUSH2 0x102E JUMP JUMPDEST SWAP2 POP PUSH32 0xFFFFFFFFFFFFFFFFFFFFFFFFFFFFFFFFFFFFFFFFFFFFFFFFFFFFFFFFFFFFFFFF DUP3 EQ ISZERO PUSH2 0x1346 JUMPI PUSH2 0x1345 PUSH2 0x12D9 JUMP JUMPDEST JUMPDEST PUSH1 0x1 DUP3 ADD SWAP1 POP SWAP2 SWAP1 POP JUMP JUMPDEST PUSH1 0x0 DUP2 SWAP1 POP SWAP3 SWAP2 POP POP JUMP JUMPDEST PUSH32 0x416363657373436F6E74726F6C3A206163636F756E7420000000000000000000 PUSH1 0x0 DUP3 ADD MSTORE POP JUMP JUMPDEST PUSH1 0x0 PUSH2 0x1392 PUSH1 0x17 DUP4 PUSH2 0x1351 JUMP JUMPDEST SWAP2 POP PUSH2 0x139D DUP3 PUSH2 0x135C JUMP JUMPDEST PUSH1 0x17 DUP3 ADD SWAP1 POP SWAP2 SWAP1 POP JUMP JUMPDEST PUSH1 0x0 DUP2 MLOAD SWAP1 POP SWAP2 SWAP1 POP JUMP JUMPDEST PUSH1 0x0 JUMPDEST DUP4 DUP2 LT ISZERO PUSH2 0x13D1 JUMPI DUP1 DUP3 ADD MLOAD DUP2 DUP5 ADD MSTORE PUSH1 0x20 DUP2 ADD SWAP1 POP PUSH2 0x13B6 JUMP JUMPDEST DUP4 DUP2 GT ISZERO PUSH2 0x13E0 JUMPI PUSH1 0x0 DUP5 DUP5 ADD MSTORE JUMPDEST POP POP POP POP JUMP JUMPDEST PUSH1 0x0 PUSH2 0x13F1 DUP3 PUSH2 0x13A8 JUMP JUMPDEST PUSH2 0x13FB DUP2 DUP6 PUSH2 0x1351 JUMP JUMPDEST SWAP4 POP PUSH2 0x140B DUP2 DUP6 PUSH1 0x20 DUP7 ADD PUSH2 0x13B3 JUMP JUMPDEST DUP1 DUP5 ADD SWAP2 POP POP SWAP3 SWAP2 POP POP JUMP JUMPDEST PUSH32 0x206973206D697373696E6720726F6C6520000000000000000000000000000000 PUSH1 0x0 DUP3 ADD MSTORE POP JUMP JUMPDEST PUSH1 0x0 PUSH2 0x144D PUSH1 0x11 DUP4 PUSH2 0x1351 JUMP JUMPDEST SWAP2 POP PUSH2 0x1458 DUP3 PUSH2 0x1417 JUMP JUMPDEST PUSH1 0x11 DUP3 ADD SWAP1 POP SWAP2 SWAP1 POP JUMP JUMPDEST PUSH1 0x0 PUSH2 0x146E DUP3 PUSH2 0x1385 JUMP JUMPDEST SWAP2 POP PUSH2 0x147A DUP3 DUP6 PUSH2 0x13E6 JUMP JUMPDEST SWAP2 POP PUSH2 0x1485 DUP3 PUSH2 0x1440 JUMP JUMPDEST SWAP2 POP PUSH2 0x1491 DUP3 DUP5 PUSH2 0x13E6 JUMP JUMPDEST SWAP2 POP DUP2 SWAP1 POP SWAP4 SWAP3 POP POP POP JUMP JUMPDEST PUSH1 0x0 PUSH1 0x1F NOT PUSH1 0x1F DUP4 ADD AND SWAP1 POP SWAP2 SWAP1 POP JUMP JUMPDEST PUSH1 0x0 PUSH2 0x14B9 DUP3 PUSH2 0x13A8 JUMP JUMPDEST PUSH2 0x14C3 DUP2 DUP6 PUSH2 0x11D8 JUMP JUMPDEST SWAP4 POP PUSH2 0x14D3 DUP2 DUP6 PUSH1 0x20 DUP7 ADD PUSH2 0x13B3 JUMP JUMPDEST PUSH2 0x14DC DUP2 PUSH2 0x149D JUMP JUMPDEST DUP5 ADD SWAP2 POP POP SWAP3 SWAP2 POP POP JUMP JUMPDEST PUSH1 0x0 PUSH1 0x20 DUP3 ADD SWAP1 POP DUP2 DUP2 SUB PUSH1 0x0 DUP4 ADD MSTORE PUSH2 0x1501 DUP2 DUP5 PUSH2 0x14AE JUMP JUMPDEST SWAP1 POP SWAP3 SWAP2 POP POP JUMP JUMPDEST PUSH1 0x0 PUSH2 0x1514 DUP3 PUSH2 0x102E JUMP JUMPDEST SWAP2 POP PUSH2 0x151F DUP4 PUSH2 0x102E JUMP JUMPDEST SWAP3 POP DUP2 PUSH32 0xFFFFFFFFFFFFFFFFFFFFFFFFFFFFFFFFFFFFFFFFFFFFFFFFFFFFFFFFFFFFFFFF DIV DUP4 GT DUP3 ISZERO ISZERO AND ISZERO PUSH2 0x1558 JUMPI PUSH2 0x1557 PUSH2 0x12D9 JUMP JUMPDEST JUMPDEST DUP3 DUP3 MUL SWAP1 POP SWAP3 SWAP2 POP POP JUMP JUMPDEST PUSH1 0x0 PUSH2 0x156E DUP3 PUSH2 0x102E JUMP JUMPDEST SWAP2 POP PUSH2 0x1579 DUP4 PUSH2 0x102E JUMP JUMPDEST SWAP3 POP DUP3 PUSH32 0xFFFFFFFFFFFFFFFFFFFFFFFFFFFFFFFFFFFFFFFFFFFFFFFFFFFFFFFFFFFFFFFF SUB DUP3 GT ISZERO PUSH2 0x15AE JUMPI PUSH2 0x15AD PUSH2 0x12D9 JUMP JUMPDEST JUMPDEST DUP3 DUP3 ADD SWAP1 POP SWAP3 SWAP2 POP POP JUMP JUMPDEST PUSH1 0x0 PUSH2 0x15C4 DUP3 PUSH2 0x102E JUMP JUMPDEST SWAP2 POP PUSH1 0x0 DUP3 EQ ISZERO PUSH2 0x15D8 JUMPI PUSH2 0x15D7 PUSH2 0x12D9 JUMP JUMPDEST JUMPDEST PUSH1 0x1 DUP3 SUB SWAP1 POP SWAP2 SWAP1 POP JUMP JUMPDEST PUSH32 0x537472696E67733A20686578206C656E67746820696E73756666696369656E74 PUSH1 0x0 DUP3 ADD MSTORE POP JUMP JUMPDEST PUSH1 0x0 PUSH2 0x1619 PUSH1 0x20 DUP4 PUSH2 0x11D8 JUMP JUMPDEST SWAP2 POP PUSH2 0x1624 DUP3 PUSH2 0x15E3 JUMP JUMPDEST PUSH1 0x20 DUP3 ADD SWAP1 POP SWAP2 SWAP1 POP JUMP JUMPDEST PUSH1 0x0 PUSH1 0x20 DUP3 ADD SWAP1 POP DUP2 DUP2 SUB PUSH1 0x0 DUP4 ADD MSTORE PUSH2 0x1648 DUP2 PUSH2 0x160C JUMP JUMPDEST SWAP1 POP SWAP2 SWAP1 POP JUMP JUMPDEST PUSH1 0x0 PUSH2 0x165A DUP3 PUSH2 0x102E JUMP JUMPDEST SWAP2 POP PUSH2 0x1665 DUP4 PUSH2 0x102E JUMP JUMPDEST SWAP3 POP DUP3 DUP3 LT ISZERO PUSH2 0x1678 JUMPI PUSH2 0x1677 PUSH2 0x12D9 JUMP JUMPDEST JUMPDEST DUP3 DUP3 SUB SWAP1 POP SWAP3 SWAP2 POP POP JUMP JUMPDEST PUSH32 0x4E487B7100000000000000000000000000000000000000000000000000000000 PUSH1 0x0 MSTORE PUSH1 0x31 PUSH1 0x4 MSTORE PUSH1 0x24 PUSH1 0x0 REVERT INVALID LOG2 PUSH5 0x6970667358 0x22 SLT KECCAK256 DIFFICULTY 0x4E SWAP13 EXP 0x25 PUSH20 0xC196046A82160600343A3992F903B6E9853F4D17 LOG3 0xC1 PUSH28 0x1B1DD664736F6C634300080C00330000000000000000000000000000 "
		},
		"gasEstimates": {
			"creation": {
				"codeDepositCost": "1172800",
				"executionCost": "infinite",
				"totalCost": "infinite"
			},
			"external": {
				"CONTEST_ADMIN()": "439",
				"DEFAULT_ADMIN_ROLE()": "357",
				"SYSTEM_ADMIN()": "418",
				"getRoleAdmin(bytes32)": "infinite",
				"getRoleMember(bytes32,uint256)": "infinite",
				"getRoleMemberCount(bytes32)": "2952",
				"getRoleMembers(bytes32)": "infinite",
				"grantRole(bytes32,address)": "infinite",
				"hasRole(bytes32,address)": "3140",
				"renounceRole(bytes32,address)": "infinite",
				"revokeRole(bytes32,address)": "infinite",
				"supportsInterface(bytes4)": "817"
			}
		},
		"methodIdentifiers": {
			"CONTEST_ADMIN()": "ec4ab798",
			"DEFAULT_ADMIN_ROLE()": "a217fddf",
			"SYSTEM_ADMIN()": "852757ad",
			"getRoleAdmin(bytes32)": "248a9ca3",
			"getRoleMember(bytes32,uint256)": "9010d07c",
			"getRoleMemberCount(bytes32)": "ca15c873",
			"getRoleMembers(bytes32)": "a3246ad3",
			"grantRole(bytes32,address)": "2f2ff15d",
			"hasRole(bytes32,address)": "91d14854",
			"renounceRole(bytes32,address)": "36568abe",
			"revokeRole(bytes32,address)": "d547741f",
			"supportsInterface(bytes4)": "01ffc9a7"
		}
	},
	"abi": [
		{
			"inputs": [
				{
					"internalType": "address",
					"name": "systemAdmin",
					"type": "address"
				}
			],
			"stateMutability": "nonpayable",
			"type": "constructor"
		},
		{
			"anonymous": false,
			"inputs": [
				{
					"indexed": true,
					"internalType": "bytes32",
					"name": "role",
					"type": "bytes32"
				},
				{
					"indexed": true,
					"internalType": "bytes32",
					"name": "previousAdminRole",
					"type": "bytes32"
				},
				{
					"indexed": true,
					"internalType": "bytes32",
					"name": "newAdminRole",
					"type": "bytes32"
				}
			],
			"name": "RoleAdminChanged",
			"type": "event"
		},
		{
			"anonymous": false,
			"inputs": [
				{
					"indexed": true,
					"internalType": "bytes32",
					"name": "role",
					"type": "bytes32"
				},
				{
					"indexed": true,
					"internalType": "address",
					"name": "account",
					"type": "address"
				},
				{
					"indexed": true,
					"internalType": "address",
					"name": "sender",
					"type": "address"
				}
			],
			"name": "RoleGranted",
			"type": "event"
		},
		{
			"anonymous": false,
			"inputs": [
				{
					"indexed": true,
					"internalType": "bytes32",
					"name": "role",
					"type": "bytes32"
				},
				{
					"indexed": true,
					"internalType": "address",
					"name": "account",
					"type": "address"
				},
				{
					"indexed": true,
					"internalType": "address",
					"name": "sender",
					"type": "address"
				}
			],
			"name": "RoleRevoked",
			"type": "event"
		},
		{
			"inputs": [],
			"name": "CONTEST_ADMIN",
			"outputs": [
				{
					"internalType": "bytes32",
					"name": "",
					"type": "bytes32"
				}
			],
			"stateMutability": "view",
			"type": "function"
		},
		{
			"inputs": [],
			"name": "DEFAULT_ADMIN_ROLE",
			"outputs": [
				{
					"internalType": "bytes32",
					"name": "",
					"type": "bytes32"
				}
			],
			"stateMutability": "view",
			"type": "function"
		},
		{
			"inputs": [],
			"name": "SYSTEM_ADMIN",
			"outputs": [
				{
					"internalType": "bytes32",
					"name": "",
					"type": "bytes32"
				}
			],
			"stateMutability": "view",
			"type": "function"
		},
		{
			"inputs": [
				{
					"internalType": "bytes32",
					"name": "role",
					"type": "bytes32"
				}
			],
			"name": "getRoleAdmin",
			"outputs": [
				{
					"internalType": "bytes32",
					"name": "",
					"type": "bytes32"
				}
			],
			"stateMutability": "view",
			"type": "function"
		},
		{
			"inputs": [
				{
					"internalType": "bytes32",
					"name": "role",
					"type": "bytes32"
				},
				{
					"internalType": "uint256",
					"name": "index",
					"type": "uint256"
				}
			],
			"name": "getRoleMember",
			"outputs": [
				{
					"internalType": "address",
					"name": "",
					"type": "address"
				}
			],
			"stateMutability": "view",
			"type": "function"
		},
		{
			"inputs": [
				{
					"internalType": "bytes32",
					"name": "role",
					"type": "bytes32"
				}
			],
			"name": "getRoleMemberCount",
			"outputs": [
				{
					"internalType": "uint256",
					"name": "",
					"type": "uint256"
				}
			],
			"stateMutability": "view",
			"type": "function"
		},
		{
			"inputs": [
				{
					"internalType": "bytes32",
					"name": "role",
					"type": "bytes32"
				}
			],
			"name": "getRoleMembers",
			"outputs": [
				{
					"internalType": "address[]",
					"name": "",
					"type": "address[]"
				}
			],
			"stateMutability": "view",
			"type": "function"
		},
		{
			"inputs": [
				{
					"internalType": "bytes32",
					"name": "role",
					"type": "bytes32"
				},
				{
					"internalType": "address",
					"name": "account",
					"type": "address"
				}
			],
			"name": "grantRole",
			"outputs": [],
			"stateMutability": "nonpayable",
			"type": "function"
		},
		{
			"inputs": [
				{
					"internalType": "bytes32",
					"name": "role",
					"type": "bytes32"
				},
				{
					"internalType": "address",
					"name": "account",
					"type": "address"
				}
			],
			"name": "hasRole",
			"outputs": [
				{
					"internalType": "bool",
					"name": "",
					"type": "bool"
				}
			],
			"stateMutability": "view",
			"type": "function"
		},
		{
			"inputs": [
				{
					"internalType": "bytes32",
					"name": "role",
					"type": "bytes32"
				},
				{
					"internalType": "address",
					"name": "account",
					"type": "address"
				}
			],
			"name": "renounceRole",
			"outputs": [],
			"stateMutability": "nonpayable",
			"type": "function"
		},
		{
			"inputs": [
				{
					"internalType": "bytes32",
					"name": "role",
					"type": "bytes32"
				},
				{
					"internalType": "address",
					"name": "account",
					"type": "address"
				}
			],
			"name": "revokeRole",
			"outputs": [],
			"stateMutability": "nonpayable",
			"type": "function"
		},
		{
			"inputs": [
				{
					"internalType": "bytes4",
					"name": "interfaceId",
					"type": "bytes4"
				}
			],
			"name": "supportsInterface",
			"outputs": [
				{
					"internalType": "bool",
					"name": "",
					"type": "bool"
				}
			],
			"stateMutability": "view",
			"type": "function"
		}
	]
}