{
	"data": {
		"bytecode": {
			"linkReferences": {},
			"object": "608060405260016004553480156200001657600080fd5b506040516200335d3803806200335d83398181016040528101906200003c9190620000ed565b806000806101000a81548173ffffffffffffffffffffffffffffffffffffffff021916908373ffffffffffffffffffffffffffffffffffffffff160217905550506200011f565b600080fd5b600073ffffffffffffffffffffffffffffffffffffffff82169050919050565b6000620000b58262000088565b9050919050565b620000c781620000a8565b8114620000d357600080fd5b50565b600081519050620000e781620000bc565b92915050565b60006020828403121562000106576200010562000083565b5b60006200011684828501620000d6565b91505092915050565b61322e806200012f6000396000f3fe608060405234801561001057600080fd5b50600436106100935760003560e01c80638f1d3776116100665780638f1d3776146101325780639507d39a14610165578063a87d942c14610195578063bddfa122146101b3578063f34cce88146101cf57610093565b80631bdd4b7414610098578063270a4952146100c857806361b8ce8c146100f85780637b1b175a14610116575b600080fd5b6100b260048036038101906100ad9190611d52565b6101eb565b6040516100bf9190611f64565b60405180910390f35b6100e260048036038101906100dd9190611d52565b610653565b6040516100ef9190612035565b60405180910390f35b610100610677565b60405161010d9190612066565b60405180910390f35b610130600480360381019061012b91906120a6565b61067d565b005b61014c60048036038101906101479190611d52565b6108fe565b60405161015c94939291906121ef565b60405180910390f35b61017f600480360381019061017a9190611d52565b610d41565b60405161018c9190611f64565b60405180910390f35b61019d6111bc565b6040516101aa9190612066565b60405180910390f35b6101cd60048036038101906101c89190612383565b6111cd565b005b6101e960048036038101906101e491906123df565b611215565b005b6101f3611bb2565b60036000838152602001908152602001600020604051806080016040529081600082015481526020016001820154815260200160028201604051806101000160405290816000820180546102469061246a565b80601f01602080910402602001604051908101604052809291908181526020018280546102729061246a565b80156102bf5780601f10610294576101008083540402835291602001916102bf565b820191906000526020600020905b8154815290600101906020018083116102a257829003601f168201915b505050505081526020016001820180546102d89061246a565b80601f01602080910402602001604051908101604052809291908181526020018280546103049061246a565b80156103515780601f1061032657610100808354040283529160200191610351565b820191906000526020600020905b81548152906001019060200180831161033457829003601f168201915b5050505050815260200160028201805461036a9061246a565b80601f01602080910402602001604051908101604052809291908181526020018280546103969061246a565b80156103e35780601f106103b8576101008083540402835291602001916103e3565b820191906000526020600020905b8154815290600101906020018083116103c657829003601f168201915b505050505081526020016003820180546103fc9061246a565b80601f01602080910402602001604051908101604052809291908181526020018280546104289061246a565b80156104755780601f1061044a57610100808354040283529160200191610475565b820191906000526020600020905b81548152906001019060200180831161045857829003601f168201915b5050505050815260200160048201805461048e9061246a565b80601f01602080910402602001604051908101604052809291908181526020018280546104ba9061246a565b80156105075780601f106104dc57610100808354040283529160200191610507565b820191906000526020600020905b8154815290600101906020018083116104ea57829003601f168201915b505050505081526020016005820180546105209061246a565b80601f016020809104026020016040519081016040528092919081815260200182805461054c9061246a565b80156105995780601f1061056e57610100808354040283529160200191610599565b820191906000526020600020905b81548152906001019060200180831161057c57829003601f168201915b505050505081526020016006820180546105b29061246a565b80601f01602080910402602001604051908101604052809291908181526020018280546105de9061246a565b801561062b5780601f106106005761010080835404028352916020019161062b565b820191906000526020600020905b81548152906001019060200180831161060e57829003601f168201915b505050505081526020016007820154815250508152602001600a820154815250509050919050565b6060610670600560008481526020019081526020016000206115ad565b9050919050565b60045481565b8160006003600083815260200190815260200160002060000154116106d7576040517f08c379a00000000000000000000000000000000000000000000000000000000081526004016106ce906124f9565b60405180910390fd5b8360008060009054906101000a900473ffffffffffffffffffffffffffffffffffffffff1673ffffffffffffffffffffffffffffffffffffffff1663904b9f72836040518263ffffffff1660e01b81526004016107349190612066565b600060405180830381865afa158015610751573d6000803e3d6000fd5b505050506040513d6000823e3d601f19601f8201168201806040525081019061077a91906127fd565b90503373ffffffffffffffffffffffffffffffffffffffff16816040015173ffffffffffffffffffffffffffffffffffffffff16146107ee576040517f08c379a00000000000000000000000000000000000000000000000000000000081526004016107e590612892565b60405180910390fd5b85600260008054906101000a900473ffffffffffffffffffffffffffffffffffffffff1673ffffffffffffffffffffffffffffffffffffffff1663434e540b83836040518363ffffffff1660e01b815260040161084c929190612929565b6020604051808303816000875af115801561086b573d6000803e3d6000fd5b505050506040513d601f19601f8201168201806040525081019061088f919061298a565b6108ce576040517f08c379a00000000000000000000000000000000000000000000000000000000081526004016108c590612a03565b60405180910390fd5b856003600089815260200190815260200160002060020181816108f19190612ec0565b9050505050505050505050565b6003602052806000526040600020600091509050806000015490806001015490806002016040518061010001604052908160008201805461093e9061246a565b80601f016020809104026020016040519081016040528092919081815260200182805461096a9061246a565b80156109b75780601f1061098c576101008083540402835291602001916109b7565b820191906000526020600020905b81548152906001019060200180831161099a57829003601f168201915b505050505081526020016001820180546109d09061246a565b80601f01602080910402602001604051908101604052809291908181526020018280546109fc9061246a565b8015610a495780601f10610a1e57610100808354040283529160200191610a49565b820191906000526020600020905b815481529060010190602001808311610a2c57829003601f168201915b50505050508152602001600282018054610a629061246a565b80601f0160208091040260200160405190810160405280929190818152602001828054610a8e9061246a565b8015610adb5780601f10610ab057610100808354040283529160200191610adb565b820191906000526020600020905b815481529060010190602001808311610abe57829003601f168201915b50505050508152602001600382018054610af49061246a565b80601f0160208091040260200160405190810160405280929190818152602001828054610b209061246a565b8015610b6d5780601f10610b4257610100808354040283529160200191610b6d565b820191906000526020600020905b815481529060010190602001808311610b5057829003601f168201915b50505050508152602001600482018054610b869061246a565b80601f0160208091040260200160405190810160405280929190818152602001828054610bb29061246a565b8015610bff5780601f10610bd457610100808354040283529160200191610bff565b820191906000526020600020905b815481529060010190602001808311610be257829003601f168201915b50505050508152602001600582018054610c189061246a565b80601f0160208091040260200160405190810160405280929190818152602001828054610c449061246a565b8015610c915780601f10610c6657610100808354040283529160200191610c91565b820191906000526020600020905b815481529060010190602001808311610c7457829003601f168201915b50505050508152602001600682018054610caa9061246a565b80601f0160208091040260200160405190810160405280929190818152602001828054610cd69061246a565b8015610d235780601f10610cf857610100808354040283529160200191610d23565b820191906000526020600020905b815481529060010190602001808311610d0657829003601f168201915b505050505081526020016007820154815250509080600a0154905084565b610d49611bb2565b60036000610d618460016115ce90919063ffffffff16565b815260200190815260200160002060405180608001604052908160008201548152602001600182015481526020016002820160405180610100016040529081600082018054610daf9061246a565b80601f0160208091040260200160405190810160405280929190818152602001828054610ddb9061246a565b8015610e285780601f10610dfd57610100808354040283529160200191610e28565b820191906000526020600020905b815481529060010190602001808311610e0b57829003601f168201915b50505050508152602001600182018054610e419061246a565b80601f0160208091040260200160405190810160405280929190818152602001828054610e6d9061246a565b8015610eba5780601f10610e8f57610100808354040283529160200191610eba565b820191906000526020600020905b815481529060010190602001808311610e9d57829003601f168201915b50505050508152602001600282018054610ed39061246a565b80601f0160208091040260200160405190810160405280929190818152602001828054610eff9061246a565b8015610f4c5780601f10610f2157610100808354040283529160200191610f4c565b820191906000526020600020905b815481529060010190602001808311610f2f57829003601f168201915b50505050508152602001600382018054610f659061246a565b80601f0160208091040260200160405190810160405280929190818152602001828054610f919061246a565b8015610fde5780601f10610fb357610100808354040283529160200191610fde565b820191906000526020600020905b815481529060010190602001808311610fc157829003601f168201915b50505050508152602001600482018054610ff79061246a565b80601f01602080910402602001604051908101604052809291908181526020018280546110239061246a565b80156110705780601f1061104557610100808354040283529160200191611070565b820191906000526020600020905b81548152906001019060200180831161105357829003601f168201915b505050505081526020016005820180546110899061246a565b80601f01602080910402602001604051908101604052809291908181526020018280546110b59061246a565b80156111025780601f106110d757610100808354040283529160200191611102565b820191906000526020600020905b8154815290600101906020018083116110e557829003601f168201915b5050505050815260200160068201805461111b9061246a565b80601f01602080910402602001604051908101604052809291908181526020018280546111479061246a565b80156111945780601f1061116957610100808354040283529160200191611194565b820191906000526020600020905b81548152906001019060200180831161117757829003601f168201915b505050505081526020016007820154815250508152602001600a820154815250509050919050565b60006111c860016115e8565b905090565b60005b8151811015611210576111fd838383815181106111f0576111ef612ece565b5b60200260200101516115fd565b808061120890612f2c565b9150506111d0565b505050565b8160008060009054906101000a900473ffffffffffffffffffffffffffffffffffffffff1673ffffffffffffffffffffffffffffffffffffffff1663904b9f72836040518263ffffffff1660e01b81526004016112729190612066565b600060405180830381865afa15801561128f573d6000803e3d6000fd5b505050506040513d6000823e3d601f19601f820116820180604052508101906112b891906127fd565b90503373ffffffffffffffffffffffffffffffffffffffff16816040015173ffffffffffffffffffffffffffffffffffffffff161461132c576040517f08c379a000000000000000000000000000000000000000000000000000000000815260040161132390612892565b60405180910390fd5b83600260008054906101000a900473ffffffffffffffffffffffffffffffffffffffff1673ffffffffffffffffffffffffffffffffffffffff1663434e540b83836040518363ffffffff1660e01b815260040161138a929190612929565b6020604051808303816000875af11580156113a9573d6000803e3d6000fd5b505050506040513d601f19601f820116820180604052508101906113cd919061298a565b61140c576040517f08c379a000000000000000000000000000000000000000000000000000000000815260040161140390612a03565b60405180910390fd5b611422600454600161193f90919063ffffffff16565b5061144a6004546005600089815260200190815260200160002061193f90919063ffffffff16565b50604051806080016040528060045481526020018781526020018661146e90613182565b815260200142815250600360006004548152602001908152602001600020600082015181600001556020820151816001015560408201518160020160008201518160000190805190602001906114c5929190611be0565b5060208201518160010190805190602001906114e2929190611be0565b5060408201518160020190805190602001906114ff929190611be0565b50606082015181600301908051906020019061151c929190611be0565b506080820151816004019080519060200190611539929190611be0565b5060a0820151816005019080519060200190611556929190611be0565b5060c0820151816006019080519060200190611573929190611be0565b5060e082015181600701555050606082015181600a0155905050600460008154809291906115a090612f2c565b9190505550505050505050565b606060006115bd83600001611959565b905060608190508092505050919050565b60006115dd83600001836119b5565b60001c905092915050565b60006115f6826000016119e0565b9050919050565b806000600360008381526020019081526020016000206000015411611657576040517f08c379a000000000000000000000000000000000000000000000000000000000815260040161164e906124f9565b60405180910390fd5b8260008060009054906101000a900473ffffffffffffffffffffffffffffffffffffffff1673ffffffffffffffffffffffffffffffffffffffff1663904b9f72836040518263ffffffff1660e01b81526004016116b49190612066565b600060405180830381865afa1580156116d1573d6000803e3d6000fd5b505050506040513d6000823e3d601f19601f820116820180604052508101906116fa91906127fd565b90503373ffffffffffffffffffffffffffffffffffffffff16816040015173ffffffffffffffffffffffffffffffffffffffff161461176e576040517f08c379a000000000000000000000000000000000000000000000000000000000815260040161176590612892565b60405180910390fd5b84600260008054906101000a900473ffffffffffffffffffffffffffffffffffffffff1673ffffffffffffffffffffffffffffffffffffffff1663434e540b83836040518363ffffffff1660e01b81526004016117cc929190612929565b6020604051808303816000875af11580156117eb573d6000803e3d6000fd5b505050506040513d601f19601f8201168201806040525081019061180f919061298a565b61184e576040517f08c379a000000000000000000000000000000000000000000000000000000000815260040161184590612a03565b60405180910390fd5b6118628660016119f190919063ffffffff16565b5061188886600560008a81526020019081526020016000206119f190919063ffffffff16565b5060036000878152602001908152602001600020600080820160009055600182016000905560028201600080820160006118c29190611c66565b6001820160006118d29190611c66565b6002820160006118e29190611c66565b6003820160006118f29190611c66565b6004820160006119029190611c66565b6005820160006119129190611c66565b6006820160006119229190611c66565b60078201600090555050600a820160009055505050505050505050565b6000611951836000018360001b611a0b565b905092915050565b6060816000018054806020026020016040519081016040528092919081815260200182805480156119a957602002820191906000526020600020905b815481526020019060010190808311611995575b50505050509050919050565b60008260000182815481106119cd576119cc612ece565b5b9060005260206000200154905092915050565b600081600001805490509050919050565b6000611a03836000018360001b611a7b565b905092915050565b6000611a178383611b8f565b611a70578260000182908060018154018082558091505060019003906000526020600020016000909190919091505582600001805490508360010160008481526020019081526020016000208190555060019050611a75565b600090505b92915050565b60008083600101600084815260200190815260200160002054905060008114611b83576000600182611aad9190613195565b9050600060018660000180549050611ac59190613195565b9050818114611b34576000866000018281548110611ae657611ae5612ece565b5b9060005260206000200154905080876000018481548110611b0a57611b09612ece565b5b90600052602060002001819055508387600101600083815260200190815260200160002081905550505b85600001805480611b4857611b476131c9565b5b600190038181906000526020600020016000905590558560010160008681526020019081526020016000206000905560019350505050611b89565b60009150505b92915050565b600080836001016000848152602001908152602001600020541415905092915050565b60405180608001604052806000815260200160008152602001611bd3611ca6565b8152602001600081525090565b828054611bec9061246a565b90600052602060002090601f016020900481019282611c0e5760008555611c55565b82601f10611c2757805160ff1916838001178555611c55565b82800160010185558215611c55579182015b82811115611c54578251825591602001919060010190611c39565b5b509050611c629190611ceb565b5090565b508054611c729061246a565b6000825580601f10611c845750611ca3565b601f016020900490600052602060002090810190611ca29190611ceb565b5b50565b60405180610100016040528060608152602001606081526020016060815260200160608152602001606081526020016060815260200160608152602001600081525090565b5b80821115611d04576000816000905550600101611cec565b5090565b6000604051905090565b600080fd5b600080fd5b6000819050919050565b611d2f81611d1c565b8114611d3a57600080fd5b50565b600081359050611d4c81611d26565b92915050565b600060208284031215611d6857611d67611d12565b5b6000611d7684828501611d3d565b91505092915050565b611d8881611d1c565b82525050565b600081519050919050565b600082825260208201905092915050565b60005b83811015611dc8578082015181840152602081019050611dad565b83811115611dd7576000848401525b50505050565b6000601f19601f8301169050919050565b6000611df982611d8e565b611e038185611d99565b9350611e13818560208601611daa565b611e1c81611ddd565b840191505092915050565b6000610100830160008301518482036000860152611e458282611dee565b91505060208301518482036020860152611e5f8282611dee565b91505060408301518482036040860152611e798282611dee565b91505060608301518482036060860152611e938282611dee565b91505060808301518482036080860152611ead8282611dee565b91505060a083015184820360a0860152611ec78282611dee565b91505060c083015184820360c0860152611ee18282611dee565b91505060e0830151611ef660e0860182611d7f565b508091505092915050565b6000608083016000830151611f196000860182611d7f565b506020830151611f2c6020860182611d7f565b5060408301518482036040860152611f448282611e27565b9150506060830151611f596060860182611d7f565b508091505092915050565b60006020820190508181036000830152611f7e8184611f01565b905092915050565b600081519050919050565b600082825260208201905092915050565b6000819050602082019050919050565b6000611fbe8383611d7f565b60208301905092915050565b6000602082019050919050565b6000611fe282611f86565b611fec8185611f91565b9350611ff783611fa2565b8060005b8381101561202857815161200f8882611fb2565b975061201a83611fca565b925050600181019050611ffb565b5085935050505092915050565b6000602082019050818103600083015261204f8184611fd7565b905092915050565b61206081611d1c565b82525050565b600060208201905061207b6000830184612057565b92915050565b600080fd5b6000610100828403121561209d5761209c612081565b5b81905092915050565b6000806000606084860312156120bf576120be611d12565b5b60006120cd86828701611d3d565b93505060206120de86828701611d3d565b925050604084013567ffffffffffffffff8111156120ff576120fe611d17565b5b61210b86828701612086565b9150509250925092565b60006101008301600083015184820360008601526121338282611dee565b9150506020830151848203602086015261214d8282611dee565b915050604083015184820360408601526121678282611dee565b915050606083015184820360608601526121818282611dee565b9150506080830151848203608086015261219b8282611dee565b91505060a083015184820360a08601526121b58282611dee565b91505060c083015184820360c08601526121cf8282611dee565b91505060e08301516121e460e0860182611d7f565b508091505092915050565b60006080820190506122046000830187612057565b6122116020830186612057565b81810360408301526122238185612115565b90506122326060830184612057565b95945050505050565b600080fd5b7f4e487b7100000000000000000000000000000000000000000000000000000000600052604160045260246000fd5b61227882611ddd565b810181811067ffffffffffffffff8211171561229757612296612240565b5b80604052505050565b60006122aa611d08565b90506122b6828261226f565b919050565b600067ffffffffffffffff8211156122d6576122d5612240565b5b602082029050602081019050919050565b600080fd5b60006122ff6122fa846122bb565b6122a0565b90508083825260208201905060208402830185811115612322576123216122e7565b5b835b8181101561234b57806123378882611d3d565b845260208401935050602081019050612324565b5050509392505050565b600082601f83011261236a5761236961223b565b5b813561237a8482602086016122ec565b91505092915050565b6000806040838503121561239a57612399611d12565b5b60006123a885828601611d3d565b925050602083013567ffffffffffffffff8111156123c9576123c8611d17565b5b6123d585828601612355565b9150509250929050565b600080604083850312156123f6576123f5611d12565b5b600061240485828601611d3d565b925050602083013567ffffffffffffffff81111561242557612424611d17565b5b61243185828601612086565b9150509250929050565b7f4e487b7100000000000000000000000000000000000000000000000000000000600052602260045260246000fd5b6000600282049050600182168061248257607f821691505b602082108114156124965761249561243b565b5b50919050565b600082825260208201905092915050565b7f6368616c6c656e676520646f6573206e6f742065786973740000000000000000600082015250565b60006124e360188361249c565b91506124ee826124ad565b602082019050919050565b60006020820190508181036000830152612512816124d6565b9050919050565b600080fd5b600080fd5b60008151905061253281611d26565b92915050565b600080fd5b600067ffffffffffffffff82111561255857612557612240565b5b61256182611ddd565b9050602081019050919050565b600061258161257c8461253d565b6122a0565b90508281526020810184848401111561259d5761259c612538565b5b6125a8848285611daa565b509392505050565b600082601f8301126125c5576125c461223b565b5b81516125d584826020860161256e565b91505092915050565b600060c082840312156125f4576125f3612519565b5b6125fe60c06122a0565b9050600082015167ffffffffffffffff81111561261e5761261d61251e565b5b61262a848285016125b0565b600083015250602082015167ffffffffffffffff81111561264e5761264d61251e565b5b61265a848285016125b0565b602083015250604061266e84828501612523565b604083015250606061268284828501612523565b606083015250608061269684828501612523565b60808301525060a082015167ffffffffffffffff8111156126ba576126b961251e565b5b6126c6848285016125b0565b60a08301525092915050565b600073ffffffffffffffffffffffffffffffffffffffff82169050919050565b60006126fd826126d2565b9050919050565b61270d816126f2565b811461271857600080fd5b50565b60008151905061272a81612704565b92915050565b6004811061273d57600080fd5b50565b60008151905061274f81612730565b92915050565b600060a0828403121561276b5761276a612519565b5b61277560a06122a0565b9050600061278584828501612523565b600083015250602082015167ffffffffffffffff8111156127a9576127a861251e565b5b6127b5848285016125de565b60208301525060406127c98482850161271b565b60408301525060606127dd84828501612740565b60608301525060806127f184828501612523565b60808301525092915050565b60006020828403121561281357612812611d12565b5b600082015167ffffffffffffffff81111561283157612830611d17565b5b61283d84828501612755565b91505092915050565b7f6f6e6c7920636f6e74657374206f776e65720000000000000000000000000000600082015250565b600061287c60128361249c565b915061288782612846565b602082019050919050565b600060208201905081810360008301526128ab8161286f565b9050919050565b7f4e487b7100000000000000000000000000000000000000000000000000000000600052602160045260246000fd5b600481106128f2576128f16128b2565b5b50565b6000819050612903826128e1565b919050565b6000612913826128f5565b9050919050565b61292381612908565b82525050565b600060408201905061293e6000830185612057565b61294b602083018461291a565b9392505050565b60008115159050919050565b61296781612952565b811461297257600080fd5b50565b6000815190506129848161295e565b92915050565b6000602082840312156129a05761299f611d12565b5b60006129ae84828501612975565b91505092915050565b7f77726f6e6720636f6e7465737420737461746500000000000000000000000000600082015250565b60006129ed60138361249c565b91506129f8826129b7565b602082019050919050565b60006020820190508181036000830152612a1c816129e0565b9050919050565b600080fd5b600080fd5b600080fd5b60008083356001602003843603038112612a4f57612a4e612a23565b5b80840192508235915067ffffffffffffffff821115612a7157612a70612a28565b5b602083019250600182023603831315612a8d57612a8c612a2d565b5b509250929050565b600082905092915050565b60008190508160005260206000209050919050565b60006020601f8301049050919050565b600082821b905092915050565b600060088302612b027fffffffffffffffffffffffffffffffffffffffffffffffffffffffffffffffff82612ac5565b612b0c8683612ac5565b95508019841693508086168417925050509392505050565b6000819050919050565b6000612b49612b44612b3f84611d1c565b612b24565b611d1c565b9050919050565b6000819050919050565b612b6383612b2e565b612b77612b6f82612b50565b848454612ad2565b825550505050565b600090565b612b8c612b7f565b612b97818484612b5a565b505050565b5b81811015612bbb57612bb0600082612b84565b600181019050612b9d565b5050565b601f821115612c0057612bd181612aa0565b612bda84612ab5565b81016020851015612be9578190505b612bfd612bf585612ab5565b830182612b9c565b50505b505050565b600082821c905092915050565b6000612c2360001984600802612c05565b1980831691505092915050565b6000612c3c8383612c12565b9150826002028217905092915050565b612c568383612a95565b67ffffffffffffffff811115612c6f57612c6e612240565b5b612c79825461246a565b612c84828285612bbf565b6000601f831160018114612cb35760008415612ca1578287013590505b612cab8582612c30565b865550612d13565b601f198416612cc186612aa0565b60005b82811015612ce957848901358255600182019150602085019450602081019050612cc4565b86831015612d065784890135612d02601f891682612c12565b8355505b6001600288020188555050505b50505050505050565b612d27838383612c4c565b505050565b60008135612d3981611d26565b80915050919050565b60008160001b9050919050565b60007fffffffffffffffffffffffffffffffffffffffffffffffffffffffffffffffff612d7b84612d42565b9350801983169250808416831791505092915050565b612d9a82612b2e565b612dad612da682612b50565b8354612d4f565b8255505050565b6000810160008301612dc68185612a32565b612dd1818386612d1c565b505050506001810160208301612de78185612a32565b612df2818386612d1c565b505050506002810160408301612e088185612a32565b612e13818386612d1c565b505050506003810160608301612e298185612a32565b612e34818386612d1c565b505050506004810160808301612e4a8185612a32565b612e55818386612d1c565b505050506005810160a08301612e6b8185612a32565b612e76818386612d1c565b505050506006810160c08301612e8c8185612a32565b612e97818386612d1c565b505050506007810160e0830180612ead81612d2c565b9050612eb98184612d91565b5050505050565b612eca8282612db4565b5050565b7f4e487b7100000000000000000000000000000000000000000000000000000000600052603260045260246000fd5b7f4e487b7100000000000000000000000000000000000000000000000000000000600052601160045260246000fd5b6000612f3782611d1c565b91507fffffffffffffffffffffffffffffffffffffffffffffffffffffffffffffffff821415612f6a57612f69612efd565b5b600182019050919050565b82818337600083830152505050565b6000612f97612f928461253d565b6122a0565b905082815260208101848484011115612fb357612fb2612538565b5b612fbe848285612f75565b509392505050565b600082601f830112612fdb57612fda61223b565b5b8135612feb848260208601612f84565b91505092915050565b6000610100828403121561300b5761300a612519565b5b6130166101006122a0565b9050600082013567ffffffffffffffff8111156130365761303561251e565b5b61304284828501612fc6565b600083015250602082013567ffffffffffffffff8111156130665761306561251e565b5b61307284828501612fc6565b602083015250604082013567ffffffffffffffff8111156130965761309561251e565b5b6130a284828501612fc6565b604083015250606082013567ffffffffffffffff8111156130c6576130c561251e565b5b6130d284828501612fc6565b606083015250608082013567ffffffffffffffff8111156130f6576130f561251e565b5b61310284828501612fc6565b60808301525060a082013567ffffffffffffffff8111156131265761312561251e565b5b61313284828501612fc6565b60a08301525060c082013567ffffffffffffffff8111156131565761315561251e565b5b61316284828501612fc6565b60c08301525060e061317684828501611d3d565b60e08301525092915050565b600061318e3683612ff4565b9050919050565b60006131a082611d1c565b91506131ab83611d1c565b9250828210156131be576131bd612efd565b5b828203905092915050565b7f4e487b7100000000000000000000000000000000000000000000000000000000600052603160045260246000fdfea2646970667358221220f9fe25911886d6b74abb4ef5b11de4853f244ef362a16feff2369231dde4fb7164736f6c634300080c0033",
			"opcodes": "PUSH1 0x80 PUSH1 0x40 MSTORE PUSH1 0x1 PUSH1 0x4 SSTORE CALLVALUE DUP1 ISZERO PUSH3 0x16 JUMPI PUSH1 0x0 DUP1 REVERT JUMPDEST POP PUSH1 0x40 MLOAD PUSH3 0x335D CODESIZE SUB DUP1 PUSH3 0x335D DUP4 CODECOPY DUP2 DUP2 ADD PUSH1 0x40 MSTORE DUP2 ADD SWAP1 PUSH3 0x3C SWAP2 SWAP1 PUSH3 0xED JUMP JUMPDEST DUP1 PUSH1 0x0 DUP1 PUSH2 0x100 EXP DUP2 SLOAD DUP2 PUSH20 0xFFFFFFFFFFFFFFFFFFFFFFFFFFFFFFFFFFFFFFFF MUL NOT AND SWAP1 DUP4 PUSH20 0xFFFFFFFFFFFFFFFFFFFFFFFFFFFFFFFFFFFFFFFF AND MUL OR SWAP1 SSTORE POP POP PUSH3 0x11F JUMP JUMPDEST PUSH1 0x0 DUP1 REVERT JUMPDEST PUSH1 0x0 PUSH20 0xFFFFFFFFFFFFFFFFFFFFFFFFFFFFFFFFFFFFFFFF DUP3 AND SWAP1 POP SWAP2 SWAP1 POP JUMP JUMPDEST PUSH1 0x0 PUSH3 0xB5 DUP3 PUSH3 0x88 JUMP JUMPDEST SWAP1 POP SWAP2 SWAP1 POP JUMP JUMPDEST PUSH3 0xC7 DUP2 PUSH3 0xA8 JUMP JUMPDEST DUP2 EQ PUSH3 0xD3 JUMPI PUSH1 0x0 DUP1 REVERT JUMPDEST POP JUMP JUMPDEST PUSH1 0x0 DUP2 MLOAD SWAP1 POP PUSH3 0xE7 DUP2 PUSH3 0xBC JUMP JUMPDEST SWAP3 SWAP2 POP POP JUMP JUMPDEST PUSH1 0x0 PUSH1 0x20 DUP3 DUP5 SUB SLT ISZERO PUSH3 0x106 JUMPI PUSH3 0x105 PUSH3 0x83 JUMP JUMPDEST JUMPDEST PUSH1 0x0 PUSH3 0x116 DUP5 DUP3 DUP6 ADD PUSH3 0xD6 JUMP JUMPDEST SWAP2 POP POP SWAP3 SWAP2 POP POP JUMP JUMPDEST PUSH2 0x322E DUP1 PUSH3 0x12F PUSH1 0x0 CODECOPY PUSH1 0x0 RETURN INVALID PUSH1 0x80 PUSH1 0x40 MSTORE CALLVALUE DUP1 ISZERO PUSH2 0x10 JUMPI PUSH1 0x0 DUP1 REVERT JUMPDEST POP PUSH1 0x4 CALLDATASIZE LT PUSH2 0x93 JUMPI PUSH1 0x0 CALLDATALOAD PUSH1 0xE0 SHR DUP1 PUSH4 0x8F1D3776 GT PUSH2 0x66 JUMPI DUP1 PUSH4 0x8F1D3776 EQ PUSH2 0x132 JUMPI DUP1 PUSH4 0x9507D39A EQ PUSH2 0x165 JUMPI DUP1 PUSH4 0xA87D942C EQ PUSH2 0x195 JUMPI DUP1 PUSH4 0xBDDFA122 EQ PUSH2 0x1B3 JUMPI DUP1 PUSH4 0xF34CCE88 EQ PUSH2 0x1CF JUMPI PUSH2 0x93 JUMP JUMPDEST DUP1 PUSH4 0x1BDD4B74 EQ PUSH2 0x98 JUMPI DUP1 PUSH4 0x270A4952 EQ PUSH2 0xC8 JUMPI DUP1 PUSH4 0x61B8CE8C EQ PUSH2 0xF8 JUMPI DUP1 PUSH4 0x7B1B175A EQ PUSH2 0x116 JUMPI JUMPDEST PUSH1 0x0 DUP1 REVERT JUMPDEST PUSH2 0xB2 PUSH1 0x4 DUP1 CALLDATASIZE SUB DUP2 ADD SWAP1 PUSH2 0xAD SWAP2 SWAP1 PUSH2 0x1D52 JUMP JUMPDEST PUSH2 0x1EB JUMP JUMPDEST PUSH1 0x40 MLOAD PUSH2 0xBF SWAP2 SWAP1 PUSH2 0x1F64 JUMP JUMPDEST PUSH1 0x40 MLOAD DUP1 SWAP2 SUB SWAP1 RETURN JUMPDEST PUSH2 0xE2 PUSH1 0x4 DUP1 CALLDATASIZE SUB DUP2 ADD SWAP1 PUSH2 0xDD SWAP2 SWAP1 PUSH2 0x1D52 JUMP JUMPDEST PUSH2 0x653 JUMP JUMPDEST PUSH1 0x40 MLOAD PUSH2 0xEF SWAP2 SWAP1 PUSH2 0x2035 JUMP JUMPDEST PUSH1 0x40 MLOAD DUP1 SWAP2 SUB SWAP1 RETURN JUMPDEST PUSH2 0x100 PUSH2 0x677 JUMP JUMPDEST PUSH1 0x40 MLOAD PUSH2 0x10D SWAP2 SWAP1 PUSH2 0x2066 JUMP JUMPDEST PUSH1 0x40 MLOAD DUP1 SWAP2 SUB SWAP1 RETURN JUMPDEST PUSH2 0x130 PUSH1 0x4 DUP1 CALLDATASIZE SUB DUP2 ADD SWAP1 PUSH2 0x12B SWAP2 SWAP1 PUSH2 0x20A6 JUMP JUMPDEST PUSH2 0x67D JUMP JUMPDEST STOP JUMPDEST PUSH2 0x14C PUSH1 0x4 DUP1 CALLDATASIZE SUB DUP2 ADD SWAP1 PUSH2 0x147 SWAP2 SWAP1 PUSH2 0x1D52 JUMP JUMPDEST PUSH2 0x8FE JUMP JUMPDEST PUSH1 0x40 MLOAD PUSH2 0x15C SWAP5 SWAP4 SWAP3 SWAP2 SWAP1 PUSH2 0x21EF JUMP JUMPDEST PUSH1 0x40 MLOAD DUP1 SWAP2 SUB SWAP1 RETURN JUMPDEST PUSH2 0x17F PUSH1 0x4 DUP1 CALLDATASIZE SUB DUP2 ADD SWAP1 PUSH2 0x17A SWAP2 SWAP1 PUSH2 0x1D52 JUMP JUMPDEST PUSH2 0xD41 JUMP JUMPDEST PUSH1 0x40 MLOAD PUSH2 0x18C SWAP2 SWAP1 PUSH2 0x1F64 JUMP JUMPDEST PUSH1 0x40 MLOAD DUP1 SWAP2 SUB SWAP1 RETURN JUMPDEST PUSH2 0x19D PUSH2 0x11BC JUMP JUMPDEST PUSH1 0x40 MLOAD PUSH2 0x1AA SWAP2 SWAP1 PUSH2 0x2066 JUMP JUMPDEST PUSH1 0x40 MLOAD DUP1 SWAP2 SUB SWAP1 RETURN JUMPDEST PUSH2 0x1CD PUSH1 0x4 DUP1 CALLDATASIZE SUB DUP2 ADD SWAP1 PUSH2 0x1C8 SWAP2 SWAP1 PUSH2 0x2383 JUMP JUMPDEST PUSH2 0x11CD JUMP JUMPDEST STOP JUMPDEST PUSH2 0x1E9 PUSH1 0x4 DUP1 CALLDATASIZE SUB DUP2 ADD SWAP1 PUSH2 0x1E4 SWAP2 SWAP1 PUSH2 0x23DF JUMP JUMPDEST PUSH2 0x1215 JUMP JUMPDEST STOP JUMPDEST PUSH2 0x1F3 PUSH2 0x1BB2 JUMP JUMPDEST PUSH1 0x3 PUSH1 0x0 DUP4 DUP2 MSTORE PUSH1 0x20 ADD SWAP1 DUP2 MSTORE PUSH1 0x20 ADD PUSH1 0x0 KECCAK256 PUSH1 0x40 MLOAD DUP1 PUSH1 0x80 ADD PUSH1 0x40 MSTORE SWAP1 DUP2 PUSH1 0x0 DUP3 ADD SLOAD DUP2 MSTORE PUSH1 0x20 ADD PUSH1 0x1 DUP3 ADD SLOAD DUP2 MSTORE PUSH1 0x20 ADD PUSH1 0x2 DUP3 ADD PUSH1 0x40 MLOAD DUP1 PUSH2 0x100 ADD PUSH1 0x40 MSTORE SWAP1 DUP2 PUSH1 0x0 DUP3 ADD DUP1 SLOAD PUSH2 0x246 SWAP1 PUSH2 0x246A JUMP JUMPDEST DUP1 PUSH1 0x1F ADD PUSH1 0x20 DUP1 SWAP2 DIV MUL PUSH1 0x20 ADD PUSH1 0x40 MLOAD SWAP1 DUP2 ADD PUSH1 0x40 MSTORE DUP1 SWAP3 SWAP2 SWAP1 DUP2 DUP2 MSTORE PUSH1 0x20 ADD DUP3 DUP1 SLOAD PUSH2 0x272 SWAP1 PUSH2 0x246A JUMP JUMPDEST DUP1 ISZERO PUSH2 0x2BF JUMPI DUP1 PUSH1 0x1F LT PUSH2 0x294 JUMPI PUSH2 0x100 DUP1 DUP4 SLOAD DIV MUL DUP4 MSTORE SWAP2 PUSH1 0x20 ADD SWAP2 PUSH2 0x2BF JUMP JUMPDEST DUP3 ADD SWAP2 SWAP1 PUSH1 0x0 MSTORE PUSH1 0x20 PUSH1 0x0 KECCAK256 SWAP1 JUMPDEST DUP2 SLOAD DUP2 MSTORE SWAP1 PUSH1 0x1 ADD SWAP1 PUSH1 0x20 ADD DUP1 DUP4 GT PUSH2 0x2A2 JUMPI DUP3 SWAP1 SUB PUSH1 0x1F AND DUP3 ADD SWAP2 JUMPDEST POP POP POP POP POP DUP2 MSTORE PUSH1 0x20 ADD PUSH1 0x1 DUP3 ADD DUP1 SLOAD PUSH2 0x2D8 SWAP1 PUSH2 0x246A JUMP JUMPDEST DUP1 PUSH1 0x1F ADD PUSH1 0x20 DUP1 SWAP2 DIV MUL PUSH1 0x20 ADD PUSH1 0x40 MLOAD SWAP1 DUP2 ADD PUSH1 0x40 MSTORE DUP1 SWAP3 SWAP2 SWAP1 DUP2 DUP2 MSTORE PUSH1 0x20 ADD DUP3 DUP1 SLOAD PUSH2 0x304 SWAP1 PUSH2 0x246A JUMP JUMPDEST DUP1 ISZERO PUSH2 0x351 JUMPI DUP1 PUSH1 0x1F LT PUSH2 0x326 JUMPI PUSH2 0x100 DUP1 DUP4 SLOAD DIV MUL DUP4 MSTORE SWAP2 PUSH1 0x20 ADD SWAP2 PUSH2 0x351 JUMP JUMPDEST DUP3 ADD SWAP2 SWAP1 PUSH1 0x0 MSTORE PUSH1 0x20 PUSH1 0x0 KECCAK256 SWAP1 JUMPDEST DUP2 SLOAD DUP2 MSTORE SWAP1 PUSH1 0x1 ADD SWAP1 PUSH1 0x20 ADD DUP1 DUP4 GT PUSH2 0x334 JUMPI DUP3 SWAP1 SUB PUSH1 0x1F AND DUP3 ADD SWAP2 JUMPDEST POP POP POP POP POP DUP2 MSTORE PUSH1 0x20 ADD PUSH1 0x2 DUP3 ADD DUP1 SLOAD PUSH2 0x36A SWAP1 PUSH2 0x246A JUMP JUMPDEST DUP1 PUSH1 0x1F ADD PUSH1 0x20 DUP1 SWAP2 DIV MUL PUSH1 0x20 ADD PUSH1 0x40 MLOAD SWAP1 DUP2 ADD PUSH1 0x40 MSTORE DUP1 SWAP3 SWAP2 SWAP1 DUP2 DUP2 MSTORE PUSH1 0x20 ADD DUP3 DUP1 SLOAD PUSH2 0x396 SWAP1 PUSH2 0x246A JUMP JUMPDEST DUP1 ISZERO PUSH2 0x3E3 JUMPI DUP1 PUSH1 0x1F LT PUSH2 0x3B8 JUMPI PUSH2 0x100 DUP1 DUP4 SLOAD DIV MUL DUP4 MSTORE SWAP2 PUSH1 0x20 ADD SWAP2 PUSH2 0x3E3 JUMP JUMPDEST DUP3 ADD SWAP2 SWAP1 PUSH1 0x0 MSTORE PUSH1 0x20 PUSH1 0x0 KECCAK256 SWAP1 JUMPDEST DUP2 SLOAD DUP2 MSTORE SWAP1 PUSH1 0x1 ADD SWAP1 PUSH1 0x20 ADD DUP1 DUP4 GT PUSH2 0x3C6 JUMPI DUP3 SWAP1 SUB PUSH1 0x1F AND DUP3 ADD SWAP2 JUMPDEST POP POP POP POP POP DUP2 MSTORE PUSH1 0x20 ADD PUSH1 0x3 DUP3 ADD DUP1 SLOAD PUSH2 0x3FC SWAP1 PUSH2 0x246A JUMP JUMPDEST DUP1 PUSH1 0x1F ADD PUSH1 0x20 DUP1 SWAP2 DIV MUL PUSH1 0x20 ADD PUSH1 0x40 MLOAD SWAP1 DUP2 ADD PUSH1 0x40 MSTORE DUP1 SWAP3 SWAP2 SWAP1 DUP2 DUP2 MSTORE PUSH1 0x20 ADD DUP3 DUP1 SLOAD PUSH2 0x428 SWAP1 PUSH2 0x246A JUMP JUMPDEST DUP1 ISZERO PUSH2 0x475 JUMPI DUP1 PUSH1 0x1F LT PUSH2 0x44A JUMPI PUSH2 0x100 DUP1 DUP4 SLOAD DIV MUL DUP4 MSTORE SWAP2 PUSH1 0x20 ADD SWAP2 PUSH2 0x475 JUMP JUMPDEST DUP3 ADD SWAP2 SWAP1 PUSH1 0x0 MSTORE PUSH1 0x20 PUSH1 0x0 KECCAK256 SWAP1 JUMPDEST DUP2 SLOAD DUP2 MSTORE SWAP1 PUSH1 0x1 ADD SWAP1 PUSH1 0x20 ADD DUP1 DUP4 GT PUSH2 0x458 JUMPI DUP3 SWAP1 SUB PUSH1 0x1F AND DUP3 ADD SWAP2 JUMPDEST POP POP POP POP POP DUP2 MSTORE PUSH1 0x20 ADD PUSH1 0x4 DUP3 ADD DUP1 SLOAD PUSH2 0x48E SWAP1 PUSH2 0x246A JUMP JUMPDEST DUP1 PUSH1 0x1F ADD PUSH1 0x20 DUP1 SWAP2 DIV MUL PUSH1 0x20 ADD PUSH1 0x40 MLOAD SWAP1 DUP2 ADD PUSH1 0x40 MSTORE DUP1 SWAP3 SWAP2 SWAP1 DUP2 DUP2 MSTORE PUSH1 0x20 ADD DUP3 DUP1 SLOAD PUSH2 0x4BA SWAP1 PUSH2 0x246A JUMP JUMPDEST DUP1 ISZERO PUSH2 0x507 JUMPI DUP1 PUSH1 0x1F LT PUSH2 0x4DC JUMPI PUSH2 0x100 DUP1 DUP4 SLOAD DIV MUL DUP4 MSTORE SWAP2 PUSH1 0x20 ADD SWAP2 PUSH2 0x507 JUMP JUMPDEST DUP3 ADD SWAP2 SWAP1 PUSH1 0x0 MSTORE PUSH1 0x20 PUSH1 0x0 KECCAK256 SWAP1 JUMPDEST DUP2 SLOAD DUP2 MSTORE SWAP1 PUSH1 0x1 ADD SWAP1 PUSH1 0x20 ADD DUP1 DUP4 GT PUSH2 0x4EA JUMPI DUP3 SWAP1 SUB PUSH1 0x1F AND DUP3 ADD SWAP2 JUMPDEST POP POP POP POP POP DUP2 MSTORE PUSH1 0x20 ADD PUSH1 0x5 DUP3 ADD DUP1 SLOAD PUSH2 0x520 SWAP1 PUSH2 0x246A JUMP JUMPDEST DUP1 PUSH1 0x1F ADD PUSH1 0x20 DUP1 SWAP2 DIV MUL PUSH1 0x20 ADD PUSH1 0x40 MLOAD SWAP1 DUP2 ADD PUSH1 0x40 MSTORE DUP1 SWAP3 SWAP2 SWAP1 DUP2 DUP2 MSTORE PUSH1 0x20 ADD DUP3 DUP1 SLOAD PUSH2 0x54C SWAP1 PUSH2 0x246A JUMP JUMPDEST DUP1 ISZERO PUSH2 0x599 JUMPI DUP1 PUSH1 0x1F LT PUSH2 0x56E JUMPI PUSH2 0x100 DUP1 DUP4 SLOAD DIV MUL DUP4 MSTORE SWAP2 PUSH1 0x20 ADD SWAP2 PUSH2 0x599 JUMP JUMPDEST DUP3 ADD SWAP2 SWAP1 PUSH1 0x0 MSTORE PUSH1 0x20 PUSH1 0x0 KECCAK256 SWAP1 JUMPDEST DUP2 SLOAD DUP2 MSTORE SWAP1 PUSH1 0x1 ADD SWAP1 PUSH1 0x20 ADD DUP1 DUP4 GT PUSH2 0x57C JUMPI DUP3 SWAP1 SUB PUSH1 0x1F AND DUP3 ADD SWAP2 JUMPDEST POP POP POP POP POP DUP2 MSTORE PUSH1 0x20 ADD PUSH1 0x6 DUP3 ADD DUP1 SLOAD PUSH2 0x5B2 SWAP1 PUSH2 0x246A JUMP JUMPDEST DUP1 PUSH1 0x1F ADD PUSH1 0x20 DUP1 SWAP2 DIV MUL PUSH1 0x20 ADD PUSH1 0x40 MLOAD SWAP1 DUP2 ADD PUSH1 0x40 MSTORE DUP1 SWAP3 SWAP2 SWAP1 DUP2 DUP2 MSTORE PUSH1 0x20 ADD DUP3 DUP1 SLOAD PUSH2 0x5DE SWAP1 PUSH2 0x246A JUMP JUMPDEST DUP1 ISZERO PUSH2 0x62B JUMPI DUP1 PUSH1 0x1F LT PUSH2 0x600 JUMPI PUSH2 0x100 DUP1 DUP4 SLOAD DIV MUL DUP4 MSTORE SWAP2 PUSH1 0x20 ADD SWAP2 PUSH2 0x62B JUMP JUMPDEST DUP3 ADD SWAP2 SWAP1 PUSH1 0x0 MSTORE PUSH1 0x20 PUSH1 0x0 KECCAK256 SWAP1 JUMPDEST DUP2 SLOAD DUP2 MSTORE SWAP1 PUSH1 0x1 ADD SWAP1 PUSH1 0x20 ADD DUP1 DUP4 GT PUSH2 0x60E JUMPI DUP3 SWAP1 SUB PUSH1 0x1F AND DUP3 ADD SWAP2 JUMPDEST POP POP POP POP POP DUP2 MSTORE PUSH1 0x20 ADD PUSH1 0x7 DUP3 ADD SLOAD DUP2 MSTORE POP POP DUP2 MSTORE PUSH1 0x20 ADD PUSH1 0xA DUP3 ADD SLOAD DUP2 MSTORE POP POP SWAP1 POP SWAP2 SWAP1 POP JUMP JUMPDEST PUSH1 0x60 PUSH2 0x670 PUSH1 0x5 PUSH1 0x0 DUP5 DUP2 MSTORE PUSH1 0x20 ADD SWAP1 DUP2 MSTORE PUSH1 0x20 ADD PUSH1 0x0 KECCAK256 PUSH2 0x15AD JUMP JUMPDEST SWAP1 POP SWAP2 SWAP1 POP JUMP JUMPDEST PUSH1 0x4 SLOAD DUP2 JUMP JUMPDEST DUP2 PUSH1 0x0 PUSH1 0x3 PUSH1 0x0 DUP4 DUP2 MSTORE PUSH1 0x20 ADD SWAP1 DUP2 MSTORE PUSH1 0x20 ADD PUSH1 0x0 KECCAK256 PUSH1 0x0 ADD SLOAD GT PUSH2 0x6D7 JUMPI PUSH1 0x40 MLOAD PUSH32 0x8C379A000000000000000000000000000000000000000000000000000000000 DUP2 MSTORE PUSH1 0x4 ADD PUSH2 0x6CE SWAP1 PUSH2 0x24F9 JUMP JUMPDEST PUSH1 0x40 MLOAD DUP1 SWAP2 SUB SWAP1 REVERT JUMPDEST DUP4 PUSH1 0x0 DUP1 PUSH1 0x0 SWAP1 SLOAD SWAP1 PUSH2 0x100 EXP SWAP1 DIV PUSH20 0xFFFFFFFFFFFFFFFFFFFFFFFFFFFFFFFFFFFFFFFF AND PUSH20 0xFFFFFFFFFFFFFFFFFFFFFFFFFFFFFFFFFFFFFFFF AND PUSH4 0x904B9F72 DUP4 PUSH1 0x40 MLOAD DUP3 PUSH4 0xFFFFFFFF AND PUSH1 0xE0 SHL DUP2 MSTORE PUSH1 0x4 ADD PUSH2 0x734 SWAP2 SWAP1 PUSH2 0x2066 JUMP JUMPDEST PUSH1 0x0 PUSH1 0x40 MLOAD DUP1 DUP4 SUB DUP2 DUP7 GAS STATICCALL ISZERO DUP1 ISZERO PUSH2 0x751 JUMPI RETURNDATASIZE PUSH1 0x0 DUP1 RETURNDATACOPY RETURNDATASIZE PUSH1 0x0 REVERT JUMPDEST POP POP POP POP PUSH1 0x40 MLOAD RETURNDATASIZE PUSH1 0x0 DUP3 RETURNDATACOPY RETURNDATASIZE PUSH1 0x1F NOT PUSH1 0x1F DUP3 ADD AND DUP3 ADD DUP1 PUSH1 0x40 MSTORE POP DUP2 ADD SWAP1 PUSH2 0x77A SWAP2 SWAP1 PUSH2 0x27FD JUMP JUMPDEST SWAP1 POP CALLER PUSH20 0xFFFFFFFFFFFFFFFFFFFFFFFFFFFFFFFFFFFFFFFF AND DUP2 PUSH1 0x40 ADD MLOAD PUSH20 0xFFFFFFFFFFFFFFFFFFFFFFFFFFFFFFFFFFFFFFFF AND EQ PUSH2 0x7EE JUMPI PUSH1 0x40 MLOAD PUSH32 0x8C379A000000000000000000000000000000000000000000000000000000000 DUP2 MSTORE PUSH1 0x4 ADD PUSH2 0x7E5 SWAP1 PUSH2 0x2892 JUMP JUMPDEST PUSH1 0x40 MLOAD DUP1 SWAP2 SUB SWAP1 REVERT JUMPDEST DUP6 PUSH1 0x2 PUSH1 0x0 DUP1 SLOAD SWAP1 PUSH2 0x100 EXP SWAP1 DIV PUSH20 0xFFFFFFFFFFFFFFFFFFFFFFFFFFFFFFFFFFFFFFFF AND PUSH20 0xFFFFFFFFFFFFFFFFFFFFFFFFFFFFFFFFFFFFFFFF AND PUSH4 0x434E540B DUP4 DUP4 PUSH1 0x40 MLOAD DUP4 PUSH4 0xFFFFFFFF AND PUSH1 0xE0 SHL DUP2 MSTORE PUSH1 0x4 ADD PUSH2 0x84C SWAP3 SWAP2 SWAP1 PUSH2 0x2929 JUMP JUMPDEST PUSH1 0x20 PUSH1 0x40 MLOAD DUP1 DUP4 SUB DUP2 PUSH1 0x0 DUP8 GAS CALL ISZERO DUP1 ISZERO PUSH2 0x86B JUMPI RETURNDATASIZE PUSH1 0x0 DUP1 RETURNDATACOPY RETURNDATASIZE PUSH1 0x0 REVERT JUMPDEST POP POP POP POP PUSH1 0x40 MLOAD RETURNDATASIZE PUSH1 0x1F NOT PUSH1 0x1F DUP3 ADD AND DUP3 ADD DUP1 PUSH1 0x40 MSTORE POP DUP2 ADD SWAP1 PUSH2 0x88F SWAP2 SWAP1 PUSH2 0x298A JUMP JUMPDEST PUSH2 0x8CE JUMPI PUSH1 0x40 MLOAD PUSH32 0x8C379A000000000000000000000000000000000000000000000000000000000 DUP2 MSTORE PUSH1 0x4 ADD PUSH2 0x8C5 SWAP1 PUSH2 0x2A03 JUMP JUMPDEST PUSH1 0x40 MLOAD DUP1 SWAP2 SUB SWAP1 REVERT JUMPDEST DUP6 PUSH1 0x3 PUSH1 0x0 DUP10 DUP2 MSTORE PUSH1 0x20 ADD SWAP1 DUP2 MSTORE PUSH1 0x20 ADD PUSH1 0x0 KECCAK256 PUSH1 0x2 ADD DUP2 DUP2 PUSH2 0x8F1 SWAP2 SWAP1 PUSH2 0x2EC0 JUMP JUMPDEST SWAP1 POP POP POP POP POP POP POP POP POP POP JUMP JUMPDEST PUSH1 0x3 PUSH1 0x20 MSTORE DUP1 PUSH1 0x0 MSTORE PUSH1 0x40 PUSH1 0x0 KECCAK256 PUSH1 0x0 SWAP2 POP SWAP1 POP DUP1 PUSH1 0x0 ADD SLOAD SWAP1 DUP1 PUSH1 0x1 ADD SLOAD SWAP1 DUP1 PUSH1 0x2 ADD PUSH1 0x40 MLOAD DUP1 PUSH2 0x100 ADD PUSH1 0x40 MSTORE SWAP1 DUP2 PUSH1 0x0 DUP3 ADD DUP1 SLOAD PUSH2 0x93E SWAP1 PUSH2 0x246A JUMP JUMPDEST DUP1 PUSH1 0x1F ADD PUSH1 0x20 DUP1 SWAP2 DIV MUL PUSH1 0x20 ADD PUSH1 0x40 MLOAD SWAP1 DUP2 ADD PUSH1 0x40 MSTORE DUP1 SWAP3 SWAP2 SWAP1 DUP2 DUP2 MSTORE PUSH1 0x20 ADD DUP3 DUP1 SLOAD PUSH2 0x96A SWAP1 PUSH2 0x246A JUMP JUMPDEST DUP1 ISZERO PUSH2 0x9B7 JUMPI DUP1 PUSH1 0x1F LT PUSH2 0x98C JUMPI PUSH2 0x100 DUP1 DUP4 SLOAD DIV MUL DUP4 MSTORE SWAP2 PUSH1 0x20 ADD SWAP2 PUSH2 0x9B7 JUMP JUMPDEST DUP3 ADD SWAP2 SWAP1 PUSH1 0x0 MSTORE PUSH1 0x20 PUSH1 0x0 KECCAK256 SWAP1 JUMPDEST DUP2 SLOAD DUP2 MSTORE SWAP1 PUSH1 0x1 ADD SWAP1 PUSH1 0x20 ADD DUP1 DUP4 GT PUSH2 0x99A JUMPI DUP3 SWAP1 SUB PUSH1 0x1F AND DUP3 ADD SWAP2 JUMPDEST POP POP POP POP POP DUP2 MSTORE PUSH1 0x20 ADD PUSH1 0x1 DUP3 ADD DUP1 SLOAD PUSH2 0x9D0 SWAP1 PUSH2 0x246A JUMP JUMPDEST DUP1 PUSH1 0x1F ADD PUSH1 0x20 DUP1 SWAP2 DIV MUL PUSH1 0x20 ADD PUSH1 0x40 MLOAD SWAP1 DUP2 ADD PUSH1 0x40 MSTORE DUP1 SWAP3 SWAP2 SWAP1 DUP2 DUP2 MSTORE PUSH1 0x20 ADD DUP3 DUP1 SLOAD PUSH2 0x9FC SWAP1 PUSH2 0x246A JUMP JUMPDEST DUP1 ISZERO PUSH2 0xA49 JUMPI DUP1 PUSH1 0x1F LT PUSH2 0xA1E JUMPI PUSH2 0x100 DUP1 DUP4 SLOAD DIV MUL DUP4 MSTORE SWAP2 PUSH1 0x20 ADD SWAP2 PUSH2 0xA49 JUMP JUMPDEST DUP3 ADD SWAP2 SWAP1 PUSH1 0x0 MSTORE PUSH1 0x20 PUSH1 0x0 KECCAK256 SWAP1 JUMPDEST DUP2 SLOAD DUP2 MSTORE SWAP1 PUSH1 0x1 ADD SWAP1 PUSH1 0x20 ADD DUP1 DUP4 GT PUSH2 0xA2C JUMPI DUP3 SWAP1 SUB PUSH1 0x1F AND DUP3 ADD SWAP2 JUMPDEST POP POP POP POP POP DUP2 MSTORE PUSH1 0x20 ADD PUSH1 0x2 DUP3 ADD DUP1 SLOAD PUSH2 0xA62 SWAP1 PUSH2 0x246A JUMP JUMPDEST DUP1 PUSH1 0x1F ADD PUSH1 0x20 DUP1 SWAP2 DIV MUL PUSH1 0x20 ADD PUSH1 0x40 MLOAD SWAP1 DUP2 ADD PUSH1 0x40 MSTORE DUP1 SWAP3 SWAP2 SWAP1 DUP2 DUP2 MSTORE PUSH1 0x20 ADD DUP3 DUP1 SLOAD PUSH2 0xA8E SWAP1 PUSH2 0x246A JUMP JUMPDEST DUP1 ISZERO PUSH2 0xADB JUMPI DUP1 PUSH1 0x1F LT PUSH2 0xAB0 JUMPI PUSH2 0x100 DUP1 DUP4 SLOAD DIV MUL DUP4 MSTORE SWAP2 PUSH1 0x20 ADD SWAP2 PUSH2 0xADB JUMP JUMPDEST DUP3 ADD SWAP2 SWAP1 PUSH1 0x0 MSTORE PUSH1 0x20 PUSH1 0x0 KECCAK256 SWAP1 JUMPDEST DUP2 SLOAD DUP2 MSTORE SWAP1 PUSH1 0x1 ADD SWAP1 PUSH1 0x20 ADD DUP1 DUP4 GT PUSH2 0xABE JUMPI DUP3 SWAP1 SUB PUSH1 0x1F AND DUP3 ADD SWAP2 JUMPDEST POP POP POP POP POP DUP2 MSTORE PUSH1 0x20 ADD PUSH1 0x3 DUP3 ADD DUP1 SLOAD PUSH2 0xAF4 SWAP1 PUSH2 0x246A JUMP JUMPDEST DUP1 PUSH1 0x1F ADD PUSH1 0x20 DUP1 SWAP2 DIV MUL PUSH1 0x20 ADD PUSH1 0x40 MLOAD SWAP1 DUP2 ADD PUSH1 0x40 MSTORE DUP1 SWAP3 SWAP2 SWAP1 DUP2 DUP2 MSTORE PUSH1 0x20 ADD DUP3 DUP1 SLOAD PUSH2 0xB20 SWAP1 PUSH2 0x246A JUMP JUMPDEST DUP1 ISZERO PUSH2 0xB6D JUMPI DUP1 PUSH1 0x1F LT PUSH2 0xB42 JUMPI PUSH2 0x100 DUP1 DUP4 SLOAD DIV MUL DUP4 MSTORE SWAP2 PUSH1 0x20 ADD SWAP2 PUSH2 0xB6D JUMP JUMPDEST DUP3 ADD SWAP2 SWAP1 PUSH1 0x0 MSTORE PUSH1 0x20 PUSH1 0x0 KECCAK256 SWAP1 JUMPDEST DUP2 SLOAD DUP2 MSTORE SWAP1 PUSH1 0x1 ADD SWAP1 PUSH1 0x20 ADD DUP1 DUP4 GT PUSH2 0xB50 JUMPI DUP3 SWAP1 SUB PUSH1 0x1F AND DUP3 ADD SWAP2 JUMPDEST POP POP POP POP POP DUP2 MSTORE PUSH1 0x20 ADD PUSH1 0x4 DUP3 ADD DUP1 SLOAD PUSH2 0xB86 SWAP1 PUSH2 0x246A JUMP JUMPDEST DUP1 PUSH1 0x1F ADD PUSH1 0x20 DUP1 SWAP2 DIV MUL PUSH1 0x20 ADD PUSH1 0x40 MLOAD SWAP1 DUP2 ADD PUSH1 0x40 MSTORE DUP1 SWAP3 SWAP2 SWAP1 DUP2 DUP2 MSTORE PUSH1 0x20 ADD DUP3 DUP1 SLOAD PUSH2 0xBB2 SWAP1 PUSH2 0x246A JUMP JUMPDEST DUP1 ISZERO PUSH2 0xBFF JUMPI DUP1 PUSH1 0x1F LT PUSH2 0xBD4 JUMPI PUSH2 0x100 DUP1 DUP4 SLOAD DIV MUL DUP4 MSTORE SWAP2 PUSH1 0x20 ADD SWAP2 PUSH2 0xBFF JUMP JUMPDEST DUP3 ADD SWAP2 SWAP1 PUSH1 0x0 MSTORE PUSH1 0x20 PUSH1 0x0 KECCAK256 SWAP1 JUMPDEST DUP2 SLOAD DUP2 MSTORE SWAP1 PUSH1 0x1 ADD SWAP1 PUSH1 0x20 ADD DUP1 DUP4 GT PUSH2 0xBE2 JUMPI DUP3 SWAP1 SUB PUSH1 0x1F AND DUP3 ADD SWAP2 JUMPDEST POP POP POP POP POP DUP2 MSTORE PUSH1 0x20 ADD PUSH1 0x5 DUP3 ADD DUP1 SLOAD PUSH2 0xC18 SWAP1 PUSH2 0x246A JUMP JUMPDEST DUP1 PUSH1 0x1F ADD PUSH1 0x20 DUP1 SWAP2 DIV MUL PUSH1 0x20 ADD PUSH1 0x40 MLOAD SWAP1 DUP2 ADD PUSH1 0x40 MSTORE DUP1 SWAP3 SWAP2 SWAP1 DUP2 DUP2 MSTORE PUSH1 0x20 ADD DUP3 DUP1 SLOAD PUSH2 0xC44 SWAP1 PUSH2 0x246A JUMP JUMPDEST DUP1 ISZERO PUSH2 0xC91 JUMPI DUP1 PUSH1 0x1F LT PUSH2 0xC66 JUMPI PUSH2 0x100 DUP1 DUP4 SLOAD DIV MUL DUP4 MSTORE SWAP2 PUSH1 0x20 ADD SWAP2 PUSH2 0xC91 JUMP JUMPDEST DUP3 ADD SWAP2 SWAP1 PUSH1 0x0 MSTORE PUSH1 0x20 PUSH1 0x0 KECCAK256 SWAP1 JUMPDEST DUP2 SLOAD DUP2 MSTORE SWAP1 PUSH1 0x1 ADD SWAP1 PUSH1 0x20 ADD DUP1 DUP4 GT PUSH2 0xC74 JUMPI DUP3 SWAP1 SUB PUSH1 0x1F AND DUP3 ADD SWAP2 JUMPDEST POP POP POP POP POP DUP2 MSTORE PUSH1 0x20 ADD PUSH1 0x6 DUP3 ADD DUP1 SLOAD PUSH2 0xCAA SWAP1 PUSH2 0x246A JUMP JUMPDEST DUP1 PUSH1 0x1F ADD PUSH1 0x20 DUP1 SWAP2 DIV MUL PUSH1 0x20 ADD PUSH1 0x40 MLOAD SWAP1 DUP2 ADD PUSH1 0x40 MSTORE DUP1 SWAP3 SWAP2 SWAP1 DUP2 DUP2 MSTORE PUSH1 0x20 ADD DUP3 DUP1 SLOAD PUSH2 0xCD6 SWAP1 PUSH2 0x246A JUMP JUMPDEST DUP1 ISZERO PUSH2 0xD23 JUMPI DUP1 PUSH1 0x1F LT PUSH2 0xCF8 JUMPI PUSH2 0x100 DUP1 DUP4 SLOAD DIV MUL DUP4 MSTORE SWAP2 PUSH1 0x20 ADD SWAP2 PUSH2 0xD23 JUMP JUMPDEST DUP3 ADD SWAP2 SWAP1 PUSH1 0x0 MSTORE PUSH1 0x20 PUSH1 0x0 KECCAK256 SWAP1 JUMPDEST DUP2 SLOAD DUP2 MSTORE SWAP1 PUSH1 0x1 ADD SWAP1 PUSH1 0x20 ADD DUP1 DUP4 GT PUSH2 0xD06 JUMPI DUP3 SWAP1 SUB PUSH1 0x1F AND DUP3 ADD SWAP2 JUMPDEST POP POP POP POP POP DUP2 MSTORE PUSH1 0x20 ADD PUSH1 0x7 DUP3 ADD SLOAD DUP2 MSTORE POP POP SWAP1 DUP1 PUSH1 0xA ADD SLOAD SWAP1 POP DUP5 JUMP JUMPDEST PUSH2 0xD49 PUSH2 0x1BB2 JUMP JUMPDEST PUSH1 0x3 PUSH1 0x0 PUSH2 0xD61 DUP5 PUSH1 0x1 PUSH2 0x15CE SWAP1 SWAP2 SWAP1 PUSH4 0xFFFFFFFF AND JUMP JUMPDEST DUP2 MSTORE PUSH1 0x20 ADD SWAP1 DUP2 MSTORE PUSH1 0x20 ADD PUSH1 0x0 KECCAK256 PUSH1 0x40 MLOAD DUP1 PUSH1 0x80 ADD PUSH1 0x40 MSTORE SWAP1 DUP2 PUSH1 0x0 DUP3 ADD SLOAD DUP2 MSTORE PUSH1 0x20 ADD PUSH1 0x1 DUP3 ADD SLOAD DUP2 MSTORE PUSH1 0x20 ADD PUSH1 0x2 DUP3 ADD PUSH1 0x40 MLOAD DUP1 PUSH2 0x100 ADD PUSH1 0x40 MSTORE SWAP1 DUP2 PUSH1 0x0 DUP3 ADD DUP1 SLOAD PUSH2 0xDAF SWAP1 PUSH2 0x246A JUMP JUMPDEST DUP1 PUSH1 0x1F ADD PUSH1 0x20 DUP1 SWAP2 DIV MUL PUSH1 0x20 ADD PUSH1 0x40 MLOAD SWAP1 DUP2 ADD PUSH1 0x40 MSTORE DUP1 SWAP3 SWAP2 SWAP1 DUP2 DUP2 MSTORE PUSH1 0x20 ADD DUP3 DUP1 SLOAD PUSH2 0xDDB SWAP1 PUSH2 0x246A JUMP JUMPDEST DUP1 ISZERO PUSH2 0xE28 JUMPI DUP1 PUSH1 0x1F LT PUSH2 0xDFD JUMPI PUSH2 0x100 DUP1 DUP4 SLOAD DIV MUL DUP4 MSTORE SWAP2 PUSH1 0x20 ADD SWAP2 PUSH2 0xE28 JUMP JUMPDEST DUP3 ADD SWAP2 SWAP1 PUSH1 0x0 MSTORE PUSH1 0x20 PUSH1 0x0 KECCAK256 SWAP1 JUMPDEST DUP2 SLOAD DUP2 MSTORE SWAP1 PUSH1 0x1 ADD SWAP1 PUSH1 0x20 ADD DUP1 DUP4 GT PUSH2 0xE0B JUMPI DUP3 SWAP1 SUB PUSH1 0x1F AND DUP3 ADD SWAP2 JUMPDEST POP POP POP POP POP DUP2 MSTORE PUSH1 0x20 ADD PUSH1 0x1 DUP3 ADD DUP1 SLOAD PUSH2 0xE41 SWAP1 PUSH2 0x246A JUMP JUMPDEST DUP1 PUSH1 0x1F ADD PUSH1 0x20 DUP1 SWAP2 DIV MUL PUSH1 0x20 ADD PUSH1 0x40 MLOAD SWAP1 DUP2 ADD PUSH1 0x40 MSTORE DUP1 SWAP3 SWAP2 SWAP1 DUP2 DUP2 MSTORE PUSH1 0x20 ADD DUP3 DUP1 SLOAD PUSH2 0xE6D SWAP1 PUSH2 0x246A JUMP JUMPDEST DUP1 ISZERO PUSH2 0xEBA JUMPI DUP1 PUSH1 0x1F LT PUSH2 0xE8F JUMPI PUSH2 0x100 DUP1 DUP4 SLOAD DIV MUL DUP4 MSTORE SWAP2 PUSH1 0x20 ADD SWAP2 PUSH2 0xEBA JUMP JUMPDEST DUP3 ADD SWAP2 SWAP1 PUSH1 0x0 MSTORE PUSH1 0x20 PUSH1 0x0 KECCAK256 SWAP1 JUMPDEST DUP2 SLOAD DUP2 MSTORE SWAP1 PUSH1 0x1 ADD SWAP1 PUSH1 0x20 ADD DUP1 DUP4 GT PUSH2 0xE9D JUMPI DUP3 SWAP1 SUB PUSH1 0x1F AND DUP3 ADD SWAP2 JUMPDEST POP POP POP POP POP DUP2 MSTORE PUSH1 0x20 ADD PUSH1 0x2 DUP3 ADD DUP1 SLOAD PUSH2 0xED3 SWAP1 PUSH2 0x246A JUMP JUMPDEST DUP1 PUSH1 0x1F ADD PUSH1 0x20 DUP1 SWAP2 DIV MUL PUSH1 0x20 ADD PUSH1 0x40 MLOAD SWAP1 DUP2 ADD PUSH1 0x40 MSTORE DUP1 SWAP3 SWAP2 SWAP1 DUP2 DUP2 MSTORE PUSH1 0x20 ADD DUP3 DUP1 SLOAD PUSH2 0xEFF SWAP1 PUSH2 0x246A JUMP JUMPDEST DUP1 ISZERO PUSH2 0xF4C JUMPI DUP1 PUSH1 0x1F LT PUSH2 0xF21 JUMPI PUSH2 0x100 DUP1 DUP4 SLOAD DIV MUL DUP4 MSTORE SWAP2 PUSH1 0x20 ADD SWAP2 PUSH2 0xF4C JUMP JUMPDEST DUP3 ADD SWAP2 SWAP1 PUSH1 0x0 MSTORE PUSH1 0x20 PUSH1 0x0 KECCAK256 SWAP1 JUMPDEST DUP2 SLOAD DUP2 MSTORE SWAP1 PUSH1 0x1 ADD SWAP1 PUSH1 0x20 ADD DUP1 DUP4 GT PUSH2 0xF2F JUMPI DUP3 SWAP1 SUB PUSH1 0x1F AND DUP3 ADD SWAP2 JUMPDEST POP POP POP POP POP DUP2 MSTORE PUSH1 0x20 ADD PUSH1 0x3 DUP3 ADD DUP1 SLOAD PUSH2 0xF65 SWAP1 PUSH2 0x246A JUMP JUMPDEST DUP1 PUSH1 0x1F ADD PUSH1 0x20 DUP1 SWAP2 DIV MUL PUSH1 0x20 ADD PUSH1 0x40 MLOAD SWAP1 DUP2 ADD PUSH1 0x40 MSTORE DUP1 SWAP3 SWAP2 SWAP1 DUP2 DUP2 MSTORE PUSH1 0x20 ADD DUP3 DUP1 SLOAD PUSH2 0xF91 SWAP1 PUSH2 0x246A JUMP JUMPDEST DUP1 ISZERO PUSH2 0xFDE JUMPI DUP1 PUSH1 0x1F LT PUSH2 0xFB3 JUMPI PUSH2 0x100 DUP1 DUP4 SLOAD DIV MUL DUP4 MSTORE SWAP2 PUSH1 0x20 ADD SWAP2 PUSH2 0xFDE JUMP JUMPDEST DUP3 ADD SWAP2 SWAP1 PUSH1 0x0 MSTORE PUSH1 0x20 PUSH1 0x0 KECCAK256 SWAP1 JUMPDEST DUP2 SLOAD DUP2 MSTORE SWAP1 PUSH1 0x1 ADD SWAP1 PUSH1 0x20 ADD DUP1 DUP4 GT PUSH2 0xFC1 JUMPI DUP3 SWAP1 SUB PUSH1 0x1F AND DUP3 ADD SWAP2 JUMPDEST POP POP POP POP POP DUP2 MSTORE PUSH1 0x20 ADD PUSH1 0x4 DUP3 ADD DUP1 SLOAD PUSH2 0xFF7 SWAP1 PUSH2 0x246A JUMP JUMPDEST DUP1 PUSH1 0x1F ADD PUSH1 0x20 DUP1 SWAP2 DIV MUL PUSH1 0x20 ADD PUSH1 0x40 MLOAD SWAP1 DUP2 ADD PUSH1 0x40 MSTORE DUP1 SWAP3 SWAP2 SWAP1 DUP2 DUP2 MSTORE PUSH1 0x20 ADD DUP3 DUP1 SLOAD PUSH2 0x1023 SWAP1 PUSH2 0x246A JUMP JUMPDEST DUP1 ISZERO PUSH2 0x1070 JUMPI DUP1 PUSH1 0x1F LT PUSH2 0x1045 JUMPI PUSH2 0x100 DUP1 DUP4 SLOAD DIV MUL DUP4 MSTORE SWAP2 PUSH1 0x20 ADD SWAP2 PUSH2 0x1070 JUMP JUMPDEST DUP3 ADD SWAP2 SWAP1 PUSH1 0x0 MSTORE PUSH1 0x20 PUSH1 0x0 KECCAK256 SWAP1 JUMPDEST DUP2 SLOAD DUP2 MSTORE SWAP1 PUSH1 0x1 ADD SWAP1 PUSH1 0x20 ADD DUP1 DUP4 GT PUSH2 0x1053 JUMPI DUP3 SWAP1 SUB PUSH1 0x1F AND DUP3 ADD SWAP2 JUMPDEST POP POP POP POP POP DUP2 MSTORE PUSH1 0x20 ADD PUSH1 0x5 DUP3 ADD DUP1 SLOAD PUSH2 0x1089 SWAP1 PUSH2 0x246A JUMP JUMPDEST DUP1 PUSH1 0x1F ADD PUSH1 0x20 DUP1 SWAP2 DIV MUL PUSH1 0x20 ADD PUSH1 0x40 MLOAD SWAP1 DUP2 ADD PUSH1 0x40 MSTORE DUP1 SWAP3 SWAP2 SWAP1 DUP2 DUP2 MSTORE PUSH1 0x20 ADD DUP3 DUP1 SLOAD PUSH2 0x10B5 SWAP1 PUSH2 0x246A JUMP JUMPDEST DUP1 ISZERO PUSH2 0x1102 JUMPI DUP1 PUSH1 0x1F LT PUSH2 0x10D7 JUMPI PUSH2 0x100 DUP1 DUP4 SLOAD DIV MUL DUP4 MSTORE SWAP2 PUSH1 0x20 ADD SWAP2 PUSH2 0x1102 JUMP JUMPDEST DUP3 ADD SWAP2 SWAP1 PUSH1 0x0 MSTORE PUSH1 0x20 PUSH1 0x0 KECCAK256 SWAP1 JUMPDEST DUP2 SLOAD DUP2 MSTORE SWAP1 PUSH1 0x1 ADD SWAP1 PUSH1 0x20 ADD DUP1 DUP4 GT PUSH2 0x10E5 JUMPI DUP3 SWAP1 SUB PUSH1 0x1F AND DUP3 ADD SWAP2 JUMPDEST POP POP POP POP POP DUP2 MSTORE PUSH1 0x20 ADD PUSH1 0x6 DUP3 ADD DUP1 SLOAD PUSH2 0x111B SWAP1 PUSH2 0x246A JUMP JUMPDEST DUP1 PUSH1 0x1F ADD PUSH1 0x20 DUP1 SWAP2 DIV MUL PUSH1 0x20 ADD PUSH1 0x40 MLOAD SWAP1 DUP2 ADD PUSH1 0x40 MSTORE DUP1 SWAP3 SWAP2 SWAP1 DUP2 DUP2 MSTORE PUSH1 0x20 ADD DUP3 DUP1 SLOAD PUSH2 0x1147 SWAP1 PUSH2 0x246A JUMP JUMPDEST DUP1 ISZERO PUSH2 0x1194 JUMPI DUP1 PUSH1 0x1F LT PUSH2 0x1169 JUMPI PUSH2 0x100 DUP1 DUP4 SLOAD DIV MUL DUP4 MSTORE SWAP2 PUSH1 0x20 ADD SWAP2 PUSH2 0x1194 JUMP JUMPDEST DUP3 ADD SWAP2 SWAP1 PUSH1 0x0 MSTORE PUSH1 0x20 PUSH1 0x0 KECCAK256 SWAP1 JUMPDEST DUP2 SLOAD DUP2 MSTORE SWAP1 PUSH1 0x1 ADD SWAP1 PUSH1 0x20 ADD DUP1 DUP4 GT PUSH2 0x1177 JUMPI DUP3 SWAP1 SUB PUSH1 0x1F AND DUP3 ADD SWAP2 JUMPDEST POP POP POP POP POP DUP2 MSTORE PUSH1 0x20 ADD PUSH1 0x7 DUP3 ADD SLOAD DUP2 MSTORE POP POP DUP2 MSTORE PUSH1 0x20 ADD PUSH1 0xA DUP3 ADD SLOAD DUP2 MSTORE POP POP SWAP1 POP SWAP2 SWAP1 POP JUMP JUMPDEST PUSH1 0x0 PUSH2 0x11C8 PUSH1 0x1 PUSH2 0x15E8 JUMP JUMPDEST SWAP1 POP SWAP1 JUMP JUMPDEST PUSH1 0x0 JUMPDEST DUP2 MLOAD DUP2 LT ISZERO PUSH2 0x1210 JUMPI PUSH2 0x11FD DUP4 DUP4 DUP4 DUP2 MLOAD DUP2 LT PUSH2 0x11F0 JUMPI PUSH2 0x11EF PUSH2 0x2ECE JUMP JUMPDEST JUMPDEST PUSH1 0x20 MUL PUSH1 0x20 ADD ADD MLOAD PUSH2 0x15FD JUMP JUMPDEST DUP1 DUP1 PUSH2 0x1208 SWAP1 PUSH2 0x2F2C JUMP JUMPDEST SWAP2 POP POP PUSH2 0x11D0 JUMP JUMPDEST POP POP POP JUMP JUMPDEST DUP2 PUSH1 0x0 DUP1 PUSH1 0x0 SWAP1 SLOAD SWAP1 PUSH2 0x100 EXP SWAP1 DIV PUSH20 0xFFFFFFFFFFFFFFFFFFFFFFFFFFFFFFFFFFFFFFFF AND PUSH20 0xFFFFFFFFFFFFFFFFFFFFFFFFFFFFFFFFFFFFFFFF AND PUSH4 0x904B9F72 DUP4 PUSH1 0x40 MLOAD DUP3 PUSH4 0xFFFFFFFF AND PUSH1 0xE0 SHL DUP2 MSTORE PUSH1 0x4 ADD PUSH2 0x1272 SWAP2 SWAP1 PUSH2 0x2066 JUMP JUMPDEST PUSH1 0x0 PUSH1 0x40 MLOAD DUP1 DUP4 SUB DUP2 DUP7 GAS STATICCALL ISZERO DUP1 ISZERO PUSH2 0x128F JUMPI RETURNDATASIZE PUSH1 0x0 DUP1 RETURNDATACOPY RETURNDATASIZE PUSH1 0x0 REVERT JUMPDEST POP POP POP POP PUSH1 0x40 MLOAD RETURNDATASIZE PUSH1 0x0 DUP3 RETURNDATACOPY RETURNDATASIZE PUSH1 0x1F NOT PUSH1 0x1F DUP3 ADD AND DUP3 ADD DUP1 PUSH1 0x40 MSTORE POP DUP2 ADD SWAP1 PUSH2 0x12B8 SWAP2 SWAP1 PUSH2 0x27FD JUMP JUMPDEST SWAP1 POP CALLER PUSH20 0xFFFFFFFFFFFFFFFFFFFFFFFFFFFFFFFFFFFFFFFF AND DUP2 PUSH1 0x40 ADD MLOAD PUSH20 0xFFFFFFFFFFFFFFFFFFFFFFFFFFFFFFFFFFFFFFFF AND EQ PUSH2 0x132C JUMPI PUSH1 0x40 MLOAD PUSH32 0x8C379A000000000000000000000000000000000000000000000000000000000 DUP2 MSTORE PUSH1 0x4 ADD PUSH2 0x1323 SWAP1 PUSH2 0x2892 JUMP JUMPDEST PUSH1 0x40 MLOAD DUP1 SWAP2 SUB SWAP1 REVERT JUMPDEST DUP4 PUSH1 0x2 PUSH1 0x0 DUP1 SLOAD SWAP1 PUSH2 0x100 EXP SWAP1 DIV PUSH20 0xFFFFFFFFFFFFFFFFFFFFFFFFFFFFFFFFFFFFFFFF AND PUSH20 0xFFFFFFFFFFFFFFFFFFFFFFFFFFFFFFFFFFFFFFFF AND PUSH4 0x434E540B DUP4 DUP4 PUSH1 0x40 MLOAD DUP4 PUSH4 0xFFFFFFFF AND PUSH1 0xE0 SHL DUP2 MSTORE PUSH1 0x4 ADD PUSH2 0x138A SWAP3 SWAP2 SWAP1 PUSH2 0x2929 JUMP JUMPDEST PUSH1 0x20 PUSH1 0x40 MLOAD DUP1 DUP4 SUB DUP2 PUSH1 0x0 DUP8 GAS CALL ISZERO DUP1 ISZERO PUSH2 0x13A9 JUMPI RETURNDATASIZE PUSH1 0x0 DUP1 RETURNDATACOPY RETURNDATASIZE PUSH1 0x0 REVERT JUMPDEST POP POP POP POP PUSH1 0x40 MLOAD RETURNDATASIZE PUSH1 0x1F NOT PUSH1 0x1F DUP3 ADD AND DUP3 ADD DUP1 PUSH1 0x40 MSTORE POP DUP2 ADD SWAP1 PUSH2 0x13CD SWAP2 SWAP1 PUSH2 0x298A JUMP JUMPDEST PUSH2 0x140C JUMPI PUSH1 0x40 MLOAD PUSH32 0x8C379A000000000000000000000000000000000000000000000000000000000 DUP2 MSTORE PUSH1 0x4 ADD PUSH2 0x1403 SWAP1 PUSH2 0x2A03 JUMP JUMPDEST PUSH1 0x40 MLOAD DUP1 SWAP2 SUB SWAP1 REVERT JUMPDEST PUSH2 0x1422 PUSH1 0x4 SLOAD PUSH1 0x1 PUSH2 0x193F SWAP1 SWAP2 SWAP1 PUSH4 0xFFFFFFFF AND JUMP JUMPDEST POP PUSH2 0x144A PUSH1 0x4 SLOAD PUSH1 0x5 PUSH1 0x0 DUP10 DUP2 MSTORE PUSH1 0x20 ADD SWAP1 DUP2 MSTORE PUSH1 0x20 ADD PUSH1 0x0 KECCAK256 PUSH2 0x193F SWAP1 SWAP2 SWAP1 PUSH4 0xFFFFFFFF AND JUMP JUMPDEST POP PUSH1 0x40 MLOAD DUP1 PUSH1 0x80 ADD PUSH1 0x40 MSTORE DUP1 PUSH1 0x4 SLOAD DUP2 MSTORE PUSH1 0x20 ADD DUP8 DUP2 MSTORE PUSH1 0x20 ADD DUP7 PUSH2 0x146E SWAP1 PUSH2 0x3182 JUMP JUMPDEST DUP2 MSTORE PUSH1 0x20 ADD TIMESTAMP DUP2 MSTORE POP PUSH1 0x3 PUSH1 0x0 PUSH1 0x4 SLOAD DUP2 MSTORE PUSH1 0x20 ADD SWAP1 DUP2 MSTORE PUSH1 0x20 ADD PUSH1 0x0 KECCAK256 PUSH1 0x0 DUP3 ADD MLOAD DUP2 PUSH1 0x0 ADD SSTORE PUSH1 0x20 DUP3 ADD MLOAD DUP2 PUSH1 0x1 ADD SSTORE PUSH1 0x40 DUP3 ADD MLOAD DUP2 PUSH1 0x2 ADD PUSH1 0x0 DUP3 ADD MLOAD DUP2 PUSH1 0x0 ADD SWAP1 DUP1 MLOAD SWAP1 PUSH1 0x20 ADD SWAP1 PUSH2 0x14C5 SWAP3 SWAP2 SWAP1 PUSH2 0x1BE0 JUMP JUMPDEST POP PUSH1 0x20 DUP3 ADD MLOAD DUP2 PUSH1 0x1 ADD SWAP1 DUP1 MLOAD SWAP1 PUSH1 0x20 ADD SWAP1 PUSH2 0x14E2 SWAP3 SWAP2 SWAP1 PUSH2 0x1BE0 JUMP JUMPDEST POP PUSH1 0x40 DUP3 ADD MLOAD DUP2 PUSH1 0x2 ADD SWAP1 DUP1 MLOAD SWAP1 PUSH1 0x20 ADD SWAP1 PUSH2 0x14FF SWAP3 SWAP2 SWAP1 PUSH2 0x1BE0 JUMP JUMPDEST POP PUSH1 0x60 DUP3 ADD MLOAD DUP2 PUSH1 0x3 ADD SWAP1 DUP1 MLOAD SWAP1 PUSH1 0x20 ADD SWAP1 PUSH2 0x151C SWAP3 SWAP2 SWAP1 PUSH2 0x1BE0 JUMP JUMPDEST POP PUSH1 0x80 DUP3 ADD MLOAD DUP2 PUSH1 0x4 ADD SWAP1 DUP1 MLOAD SWAP1 PUSH1 0x20 ADD SWAP1 PUSH2 0x1539 SWAP3 SWAP2 SWAP1 PUSH2 0x1BE0 JUMP JUMPDEST POP PUSH1 0xA0 DUP3 ADD MLOAD DUP2 PUSH1 0x5 ADD SWAP1 DUP1 MLOAD SWAP1 PUSH1 0x20 ADD SWAP1 PUSH2 0x1556 SWAP3 SWAP2 SWAP1 PUSH2 0x1BE0 JUMP JUMPDEST POP PUSH1 0xC0 DUP3 ADD MLOAD DUP2 PUSH1 0x6 ADD SWAP1 DUP1 MLOAD SWAP1 PUSH1 0x20 ADD SWAP1 PUSH2 0x1573 SWAP3 SWAP2 SWAP1 PUSH2 0x1BE0 JUMP JUMPDEST POP PUSH1 0xE0 DUP3 ADD MLOAD DUP2 PUSH1 0x7 ADD SSTORE POP POP PUSH1 0x60 DUP3 ADD MLOAD DUP2 PUSH1 0xA ADD SSTORE SWAP1 POP POP PUSH1 0x4 PUSH1 0x0 DUP2 SLOAD DUP1 SWAP3 SWAP2 SWAP1 PUSH2 0x15A0 SWAP1 PUSH2 0x2F2C JUMP JUMPDEST SWAP2 SWAP1 POP SSTORE POP POP POP POP POP POP POP JUMP JUMPDEST PUSH1 0x60 PUSH1 0x0 PUSH2 0x15BD DUP4 PUSH1 0x0 ADD PUSH2 0x1959 JUMP JUMPDEST SWAP1 POP PUSH1 0x60 DUP2 SWAP1 POP DUP1 SWAP3 POP POP POP SWAP2 SWAP1 POP JUMP JUMPDEST PUSH1 0x0 PUSH2 0x15DD DUP4 PUSH1 0x0 ADD DUP4 PUSH2 0x19B5 JUMP JUMPDEST PUSH1 0x0 SHR SWAP1 POP SWAP3 SWAP2 POP POP JUMP JUMPDEST PUSH1 0x0 PUSH2 0x15F6 DUP3 PUSH1 0x0 ADD PUSH2 0x19E0 JUMP JUMPDEST SWAP1 POP SWAP2 SWAP1 POP JUMP JUMPDEST DUP1 PUSH1 0x0 PUSH1 0x3 PUSH1 0x0 DUP4 DUP2 MSTORE PUSH1 0x20 ADD SWAP1 DUP2 MSTORE PUSH1 0x20 ADD PUSH1 0x0 KECCAK256 PUSH1 0x0 ADD SLOAD GT PUSH2 0x1657 JUMPI PUSH1 0x40 MLOAD PUSH32 0x8C379A000000000000000000000000000000000000000000000000000000000 DUP2 MSTORE PUSH1 0x4 ADD PUSH2 0x164E SWAP1 PUSH2 0x24F9 JUMP JUMPDEST PUSH1 0x40 MLOAD DUP1 SWAP2 SUB SWAP1 REVERT JUMPDEST DUP3 PUSH1 0x0 DUP1 PUSH1 0x0 SWAP1 SLOAD SWAP1 PUSH2 0x100 EXP SWAP1 DIV PUSH20 0xFFFFFFFFFFFFFFFFFFFFFFFFFFFFFFFFFFFFFFFF AND PUSH20 0xFFFFFFFFFFFFFFFFFFFFFFFFFFFFFFFFFFFFFFFF AND PUSH4 0x904B9F72 DUP4 PUSH1 0x40 MLOAD DUP3 PUSH4 0xFFFFFFFF AND PUSH1 0xE0 SHL DUP2 MSTORE PUSH1 0x4 ADD PUSH2 0x16B4 SWAP2 SWAP1 PUSH2 0x2066 JUMP JUMPDEST PUSH1 0x0 PUSH1 0x40 MLOAD DUP1 DUP4 SUB DUP2 DUP7 GAS STATICCALL ISZERO DUP1 ISZERO PUSH2 0x16D1 JUMPI RETURNDATASIZE PUSH1 0x0 DUP1 RETURNDATACOPY RETURNDATASIZE PUSH1 0x0 REVERT JUMPDEST POP POP POP POP PUSH1 0x40 MLOAD RETURNDATASIZE PUSH1 0x0 DUP3 RETURNDATACOPY RETURNDATASIZE PUSH1 0x1F NOT PUSH1 0x1F DUP3 ADD AND DUP3 ADD DUP1 PUSH1 0x40 MSTORE POP DUP2 ADD SWAP1 PUSH2 0x16FA SWAP2 SWAP1 PUSH2 0x27FD JUMP JUMPDEST SWAP1 POP CALLER PUSH20 0xFFFFFFFFFFFFFFFFFFFFFFFFFFFFFFFFFFFFFFFF AND DUP2 PUSH1 0x40 ADD MLOAD PUSH20 0xFFFFFFFFFFFFFFFFFFFFFFFFFFFFFFFFFFFFFFFF AND EQ PUSH2 0x176E JUMPI PUSH1 0x40 MLOAD PUSH32 0x8C379A000000000000000000000000000000000000000000000000000000000 DUP2 MSTORE PUSH1 0x4 ADD PUSH2 0x1765 SWAP1 PUSH2 0x2892 JUMP JUMPDEST PUSH1 0x40 MLOAD DUP1 SWAP2 SUB SWAP1 REVERT JUMPDEST DUP5 PUSH1 0x2 PUSH1 0x0 DUP1 SLOAD SWAP1 PUSH2 0x100 EXP SWAP1 DIV PUSH20 0xFFFFFFFFFFFFFFFFFFFFFFFFFFFFFFFFFFFFFFFF AND PUSH20 0xFFFFFFFFFFFFFFFFFFFFFFFFFFFFFFFFFFFFFFFF AND PUSH4 0x434E540B DUP4 DUP4 PUSH1 0x40 MLOAD DUP4 PUSH4 0xFFFFFFFF AND PUSH1 0xE0 SHL DUP2 MSTORE PUSH1 0x4 ADD PUSH2 0x17CC SWAP3 SWAP2 SWAP1 PUSH2 0x2929 JUMP JUMPDEST PUSH1 0x20 PUSH1 0x40 MLOAD DUP1 DUP4 SUB DUP2 PUSH1 0x0 DUP8 GAS CALL ISZERO DUP1 ISZERO PUSH2 0x17EB JUMPI RETURNDATASIZE PUSH1 0x0 DUP1 RETURNDATACOPY RETURNDATASIZE PUSH1 0x0 REVERT JUMPDEST POP POP POP POP PUSH1 0x40 MLOAD RETURNDATASIZE PUSH1 0x1F NOT PUSH1 0x1F DUP3 ADD AND DUP3 ADD DUP1 PUSH1 0x40 MSTORE POP DUP2 ADD SWAP1 PUSH2 0x180F SWAP2 SWAP1 PUSH2 0x298A JUMP JUMPDEST PUSH2 0x184E JUMPI PUSH1 0x40 MLOAD PUSH32 0x8C379A000000000000000000000000000000000000000000000000000000000 DUP2 MSTORE PUSH1 0x4 ADD PUSH2 0x1845 SWAP1 PUSH2 0x2A03 JUMP JUMPDEST PUSH1 0x40 MLOAD DUP1 SWAP2 SUB SWAP1 REVERT JUMPDEST PUSH2 0x1862 DUP7 PUSH1 0x1 PUSH2 0x19F1 SWAP1 SWAP2 SWAP1 PUSH4 0xFFFFFFFF AND JUMP JUMPDEST POP PUSH2 0x1888 DUP7 PUSH1 0x5 PUSH1 0x0 DUP11 DUP2 MSTORE PUSH1 0x20 ADD SWAP1 DUP2 MSTORE PUSH1 0x20 ADD PUSH1 0x0 KECCAK256 PUSH2 0x19F1 SWAP1 SWAP2 SWAP1 PUSH4 0xFFFFFFFF AND JUMP JUMPDEST POP PUSH1 0x3 PUSH1 0x0 DUP8 DUP2 MSTORE PUSH1 0x20 ADD SWAP1 DUP2 MSTORE PUSH1 0x20 ADD PUSH1 0x0 KECCAK256 PUSH1 0x0 DUP1 DUP3 ADD PUSH1 0x0 SWAP1 SSTORE PUSH1 0x1 DUP3 ADD PUSH1 0x0 SWAP1 SSTORE PUSH1 0x2 DUP3 ADD PUSH1 0x0 DUP1 DUP3 ADD PUSH1 0x0 PUSH2 0x18C2 SWAP2 SWAP1 PUSH2 0x1C66 JUMP JUMPDEST PUSH1 0x1 DUP3 ADD PUSH1 0x0 PUSH2 0x18D2 SWAP2 SWAP1 PUSH2 0x1C66 JUMP JUMPDEST PUSH1 0x2 DUP3 ADD PUSH1 0x0 PUSH2 0x18E2 SWAP2 SWAP1 PUSH2 0x1C66 JUMP JUMPDEST PUSH1 0x3 DUP3 ADD PUSH1 0x0 PUSH2 0x18F2 SWAP2 SWAP1 PUSH2 0x1C66 JUMP JUMPDEST PUSH1 0x4 DUP3 ADD PUSH1 0x0 PUSH2 0x1902 SWAP2 SWAP1 PUSH2 0x1C66 JUMP JUMPDEST PUSH1 0x5 DUP3 ADD PUSH1 0x0 PUSH2 0x1912 SWAP2 SWAP1 PUSH2 0x1C66 JUMP JUMPDEST PUSH1 0x6 DUP3 ADD PUSH1 0x0 PUSH2 0x1922 SWAP2 SWAP1 PUSH2 0x1C66 JUMP JUMPDEST PUSH1 0x7 DUP3 ADD PUSH1 0x0 SWAP1 SSTORE POP POP PUSH1 0xA DUP3 ADD PUSH1 0x0 SWAP1 SSTORE POP POP POP POP POP POP POP POP POP JUMP JUMPDEST PUSH1 0x0 PUSH2 0x1951 DUP4 PUSH1 0x0 ADD DUP4 PUSH1 0x0 SHL PUSH2 0x1A0B JUMP JUMPDEST SWAP1 POP SWAP3 SWAP2 POP POP JUMP JUMPDEST PUSH1 0x60 DUP2 PUSH1 0x0 ADD DUP1 SLOAD DUP1 PUSH1 0x20 MUL PUSH1 0x20 ADD PUSH1 0x40 MLOAD SWAP1 DUP2 ADD PUSH1 0x40 MSTORE DUP1 SWAP3 SWAP2 SWAP1 DUP2 DUP2 MSTORE PUSH1 0x20 ADD DUP3 DUP1 SLOAD DUP1 ISZERO PUSH2 0x19A9 JUMPI PUSH1 0x20 MUL DUP3 ADD SWAP2 SWAP1 PUSH1 0x0 MSTORE PUSH1 0x20 PUSH1 0x0 KECCAK256 SWAP1 JUMPDEST DUP2 SLOAD DUP2 MSTORE PUSH1 0x20 ADD SWAP1 PUSH1 0x1 ADD SWAP1 DUP1 DUP4 GT PUSH2 0x1995 JUMPI JUMPDEST POP POP POP POP POP SWAP1 POP SWAP2 SWAP1 POP JUMP JUMPDEST PUSH1 0x0 DUP3 PUSH1 0x0 ADD DUP3 DUP2 SLOAD DUP2 LT PUSH2 0x19CD JUMPI PUSH2 0x19CC PUSH2 0x2ECE JUMP JUMPDEST JUMPDEST SWAP1 PUSH1 0x0 MSTORE PUSH1 0x20 PUSH1 0x0 KECCAK256 ADD SLOAD SWAP1 POP SWAP3 SWAP2 POP POP JUMP JUMPDEST PUSH1 0x0 DUP2 PUSH1 0x0 ADD DUP1 SLOAD SWAP1 POP SWAP1 POP SWAP2 SWAP1 POP JUMP JUMPDEST PUSH1 0x0 PUSH2 0x1A03 DUP4 PUSH1 0x0 ADD DUP4 PUSH1 0x0 SHL PUSH2 0x1A7B JUMP JUMPDEST SWAP1 POP SWAP3 SWAP2 POP POP JUMP JUMPDEST PUSH1 0x0 PUSH2 0x1A17 DUP4 DUP4 PUSH2 0x1B8F JUMP JUMPDEST PUSH2 0x1A70 JUMPI DUP3 PUSH1 0x0 ADD DUP3 SWAP1 DUP1 PUSH1 0x1 DUP2 SLOAD ADD DUP1 DUP3 SSTORE DUP1 SWAP2 POP POP PUSH1 0x1 SWAP1 SUB SWAP1 PUSH1 0x0 MSTORE PUSH1 0x20 PUSH1 0x0 KECCAK256 ADD PUSH1 0x0 SWAP1 SWAP2 SWAP1 SWAP2 SWAP1 SWAP2 POP SSTORE DUP3 PUSH1 0x0 ADD DUP1 SLOAD SWAP1 POP DUP4 PUSH1 0x1 ADD PUSH1 0x0 DUP5 DUP2 MSTORE PUSH1 0x20 ADD SWAP1 DUP2 MSTORE PUSH1 0x20 ADD PUSH1 0x0 KECCAK256 DUP2 SWAP1 SSTORE POP PUSH1 0x1 SWAP1 POP PUSH2 0x1A75 JUMP JUMPDEST PUSH1 0x0 SWAP1 POP JUMPDEST SWAP3 SWAP2 POP POP JUMP JUMPDEST PUSH1 0x0 DUP1 DUP4 PUSH1 0x1 ADD PUSH1 0x0 DUP5 DUP2 MSTORE PUSH1 0x20 ADD SWAP1 DUP2 MSTORE PUSH1 0x20 ADD PUSH1 0x0 KECCAK256 SLOAD SWAP1 POP PUSH1 0x0 DUP2 EQ PUSH2 0x1B83 JUMPI PUSH1 0x0 PUSH1 0x1 DUP3 PUSH2 0x1AAD SWAP2 SWAP1 PUSH2 0x3195 JUMP JUMPDEST SWAP1 POP PUSH1 0x0 PUSH1 0x1 DUP7 PUSH1 0x0 ADD DUP1 SLOAD SWAP1 POP PUSH2 0x1AC5 SWAP2 SWAP1 PUSH2 0x3195 JUMP JUMPDEST SWAP1 POP DUP2 DUP2 EQ PUSH2 0x1B34 JUMPI PUSH1 0x0 DUP7 PUSH1 0x0 ADD DUP3 DUP2 SLOAD DUP2 LT PUSH2 0x1AE6 JUMPI PUSH2 0x1AE5 PUSH2 0x2ECE JUMP JUMPDEST JUMPDEST SWAP1 PUSH1 0x0 MSTORE PUSH1 0x20 PUSH1 0x0 KECCAK256 ADD SLOAD SWAP1 POP DUP1 DUP8 PUSH1 0x0 ADD DUP5 DUP2 SLOAD DUP2 LT PUSH2 0x1B0A JUMPI PUSH2 0x1B09 PUSH2 0x2ECE JUMP JUMPDEST JUMPDEST SWAP1 PUSH1 0x0 MSTORE PUSH1 0x20 PUSH1 0x0 KECCAK256 ADD DUP2 SWAP1 SSTORE POP DUP4 DUP8 PUSH1 0x1 ADD PUSH1 0x0 DUP4 DUP2 MSTORE PUSH1 0x20 ADD SWAP1 DUP2 MSTORE PUSH1 0x20 ADD PUSH1 0x0 KECCAK256 DUP2 SWAP1 SSTORE POP POP JUMPDEST DUP6 PUSH1 0x0 ADD DUP1 SLOAD DUP1 PUSH2 0x1B48 JUMPI PUSH2 0x1B47 PUSH2 0x31C9 JUMP JUMPDEST JUMPDEST PUSH1 0x1 SWAP1 SUB DUP2 DUP2 SWAP1 PUSH1 0x0 MSTORE PUSH1 0x20 PUSH1 0x0 KECCAK256 ADD PUSH1 0x0 SWAP1 SSTORE SWAP1 SSTORE DUP6 PUSH1 0x1 ADD PUSH1 0x0 DUP7 DUP2 MSTORE PUSH1 0x20 ADD SWAP1 DUP2 MSTORE PUSH1 0x20 ADD PUSH1 0x0 KECCAK256 PUSH1 0x0 SWAP1 SSTORE PUSH1 0x1 SWAP4 POP POP POP POP PUSH2 0x1B89 JUMP JUMPDEST PUSH1 0x0 SWAP2 POP POP JUMPDEST SWAP3 SWAP2 POP POP JUMP JUMPDEST PUSH1 0x0 DUP1 DUP4 PUSH1 0x1 ADD PUSH1 0x0 DUP5 DUP2 MSTORE PUSH1 0x20 ADD SWAP1 DUP2 MSTORE PUSH1 0x20 ADD PUSH1 0x0 KECCAK256 SLOAD EQ ISZERO SWAP1 POP SWAP3 SWAP2 POP POP JUMP JUMPDEST PUSH1 0x40 MLOAD DUP1 PUSH1 0x80 ADD PUSH1 0x40 MSTORE DUP1 PUSH1 0x0 DUP2 MSTORE PUSH1 0x20 ADD PUSH1 0x0 DUP2 MSTORE PUSH1 0x20 ADD PUSH2 0x1BD3 PUSH2 0x1CA6 JUMP JUMPDEST DUP2 MSTORE PUSH1 0x20 ADD PUSH1 0x0 DUP2 MSTORE POP SWAP1 JUMP JUMPDEST DUP3 DUP1 SLOAD PUSH2 0x1BEC SWAP1 PUSH2 0x246A JUMP JUMPDEST SWAP1 PUSH1 0x0 MSTORE PUSH1 0x20 PUSH1 0x0 KECCAK256 SWAP1 PUSH1 0x1F ADD PUSH1 0x20 SWAP1 DIV DUP2 ADD SWAP3 DUP3 PUSH2 0x1C0E JUMPI PUSH1 0x0 DUP6 SSTORE PUSH2 0x1C55 JUMP JUMPDEST DUP3 PUSH1 0x1F LT PUSH2 0x1C27 JUMPI DUP1 MLOAD PUSH1 0xFF NOT AND DUP4 DUP1 ADD OR DUP6 SSTORE PUSH2 0x1C55 JUMP JUMPDEST DUP3 DUP1 ADD PUSH1 0x1 ADD DUP6 SSTORE DUP3 ISZERO PUSH2 0x1C55 JUMPI SWAP2 DUP3 ADD JUMPDEST DUP3 DUP2 GT ISZERO PUSH2 0x1C54 JUMPI DUP3 MLOAD DUP3 SSTORE SWAP2 PUSH1 0x20 ADD SWAP2 SWAP1 PUSH1 0x1 ADD SWAP1 PUSH2 0x1C39 JUMP JUMPDEST JUMPDEST POP SWAP1 POP PUSH2 0x1C62 SWAP2 SWAP1 PUSH2 0x1CEB JUMP JUMPDEST POP SWAP1 JUMP JUMPDEST POP DUP1 SLOAD PUSH2 0x1C72 SWAP1 PUSH2 0x246A JUMP JUMPDEST PUSH1 0x0 DUP3 SSTORE DUP1 PUSH1 0x1F LT PUSH2 0x1C84 JUMPI POP PUSH2 0x1CA3 JUMP JUMPDEST PUSH1 0x1F ADD PUSH1 0x20 SWAP1 DIV SWAP1 PUSH1 0x0 MSTORE PUSH1 0x20 PUSH1 0x0 KECCAK256 SWAP1 DUP2 ADD SWAP1 PUSH2 0x1CA2 SWAP2 SWAP1 PUSH2 0x1CEB JUMP JUMPDEST JUMPDEST POP JUMP JUMPDEST PUSH1 0x40 MLOAD DUP1 PUSH2 0x100 ADD PUSH1 0x40 MSTORE DUP1 PUSH1 0x60 DUP2 MSTORE PUSH1 0x20 ADD PUSH1 0x60 DUP2 MSTORE PUSH1 0x20 ADD PUSH1 0x60 DUP2 MSTORE PUSH1 0x20 ADD PUSH1 0x60 DUP2 MSTORE PUSH1 0x20 ADD PUSH1 0x60 DUP2 MSTORE PUSH1 0x20 ADD PUSH1 0x60 DUP2 MSTORE PUSH1 0x20 ADD PUSH1 0x60 DUP2 MSTORE PUSH1 0x20 ADD PUSH1 0x0 DUP2 MSTORE POP SWAP1 JUMP JUMPDEST JUMPDEST DUP1 DUP3 GT ISZERO PUSH2 0x1D04 JUMPI PUSH1 0x0 DUP2 PUSH1 0x0 SWAP1 SSTORE POP PUSH1 0x1 ADD PUSH2 0x1CEC JUMP JUMPDEST POP SWAP1 JUMP JUMPDEST PUSH1 0x0 PUSH1 0x40 MLOAD SWAP1 POP SWAP1 JUMP JUMPDEST PUSH1 0x0 DUP1 REVERT JUMPDEST PUSH1 0x0 DUP1 REVERT JUMPDEST PUSH1 0x0 DUP2 SWAP1 POP SWAP2 SWAP1 POP JUMP JUMPDEST PUSH2 0x1D2F DUP2 PUSH2 0x1D1C JUMP JUMPDEST DUP2 EQ PUSH2 0x1D3A JUMPI PUSH1 0x0 DUP1 REVERT JUMPDEST POP JUMP JUMPDEST PUSH1 0x0 DUP2 CALLDATALOAD SWAP1 POP PUSH2 0x1D4C DUP2 PUSH2 0x1D26 JUMP JUMPDEST SWAP3 SWAP2 POP POP JUMP JUMPDEST PUSH1 0x0 PUSH1 0x20 DUP3 DUP5 SUB SLT ISZERO PUSH2 0x1D68 JUMPI PUSH2 0x1D67 PUSH2 0x1D12 JUMP JUMPDEST JUMPDEST PUSH1 0x0 PUSH2 0x1D76 DUP5 DUP3 DUP6 ADD PUSH2 0x1D3D JUMP JUMPDEST SWAP2 POP POP SWAP3 SWAP2 POP POP JUMP JUMPDEST PUSH2 0x1D88 DUP2 PUSH2 0x1D1C JUMP JUMPDEST DUP3 MSTORE POP POP JUMP JUMPDEST PUSH1 0x0 DUP2 MLOAD SWAP1 POP SWAP2 SWAP1 POP JUMP JUMPDEST PUSH1 0x0 DUP3 DUP3 MSTORE PUSH1 0x20 DUP3 ADD SWAP1 POP SWAP3 SWAP2 POP POP JUMP JUMPDEST PUSH1 0x0 JUMPDEST DUP4 DUP2 LT ISZERO PUSH2 0x1DC8 JUMPI DUP1 DUP3 ADD MLOAD DUP2 DUP5 ADD MSTORE PUSH1 0x20 DUP2 ADD SWAP1 POP PUSH2 0x1DAD JUMP JUMPDEST DUP4 DUP2 GT ISZERO PUSH2 0x1DD7 JUMPI PUSH1 0x0 DUP5 DUP5 ADD MSTORE JUMPDEST POP POP POP POP JUMP JUMPDEST PUSH1 0x0 PUSH1 0x1F NOT PUSH1 0x1F DUP4 ADD AND SWAP1 POP SWAP2 SWAP1 POP JUMP JUMPDEST PUSH1 0x0 PUSH2 0x1DF9 DUP3 PUSH2 0x1D8E JUMP JUMPDEST PUSH2 0x1E03 DUP2 DUP6 PUSH2 0x1D99 JUMP JUMPDEST SWAP4 POP PUSH2 0x1E13 DUP2 DUP6 PUSH1 0x20 DUP7 ADD PUSH2 0x1DAA JUMP JUMPDEST PUSH2 0x1E1C DUP2 PUSH2 0x1DDD JUMP JUMPDEST DUP5 ADD SWAP2 POP POP SWAP3 SWAP2 POP POP JUMP JUMPDEST PUSH1 0x0 PUSH2 0x100 DUP4 ADD PUSH1 0x0 DUP4 ADD MLOAD DUP5 DUP3 SUB PUSH1 0x0 DUP7 ADD MSTORE PUSH2 0x1E45 DUP3 DUP3 PUSH2 0x1DEE JUMP JUMPDEST SWAP2 POP POP PUSH1 0x20 DUP4 ADD MLOAD DUP5 DUP3 SUB PUSH1 0x20 DUP7 ADD MSTORE PUSH2 0x1E5F DUP3 DUP3 PUSH2 0x1DEE JUMP JUMPDEST SWAP2 POP POP PUSH1 0x40 DUP4 ADD MLOAD DUP5 DUP3 SUB PUSH1 0x40 DUP7 ADD MSTORE PUSH2 0x1E79 DUP3 DUP3 PUSH2 0x1DEE JUMP JUMPDEST SWAP2 POP POP PUSH1 0x60 DUP4 ADD MLOAD DUP5 DUP3 SUB PUSH1 0x60 DUP7 ADD MSTORE PUSH2 0x1E93 DUP3 DUP3 PUSH2 0x1DEE JUMP JUMPDEST SWAP2 POP POP PUSH1 0x80 DUP4 ADD MLOAD DUP5 DUP3 SUB PUSH1 0x80 DUP7 ADD MSTORE PUSH2 0x1EAD DUP3 DUP3 PUSH2 0x1DEE JUMP JUMPDEST SWAP2 POP POP PUSH1 0xA0 DUP4 ADD MLOAD DUP5 DUP3 SUB PUSH1 0xA0 DUP7 ADD MSTORE PUSH2 0x1EC7 DUP3 DUP3 PUSH2 0x1DEE JUMP JUMPDEST SWAP2 POP POP PUSH1 0xC0 DUP4 ADD MLOAD DUP5 DUP3 SUB PUSH1 0xC0 DUP7 ADD MSTORE PUSH2 0x1EE1 DUP3 DUP3 PUSH2 0x1DEE JUMP JUMPDEST SWAP2 POP POP PUSH1 0xE0 DUP4 ADD MLOAD PUSH2 0x1EF6 PUSH1 0xE0 DUP7 ADD DUP3 PUSH2 0x1D7F JUMP JUMPDEST POP DUP1 SWAP2 POP POP SWAP3 SWAP2 POP POP JUMP JUMPDEST PUSH1 0x0 PUSH1 0x80 DUP4 ADD PUSH1 0x0 DUP4 ADD MLOAD PUSH2 0x1F19 PUSH1 0x0 DUP7 ADD DUP3 PUSH2 0x1D7F JUMP JUMPDEST POP PUSH1 0x20 DUP4 ADD MLOAD PUSH2 0x1F2C PUSH1 0x20 DUP7 ADD DUP3 PUSH2 0x1D7F JUMP JUMPDEST POP PUSH1 0x40 DUP4 ADD MLOAD DUP5 DUP3 SUB PUSH1 0x40 DUP7 ADD MSTORE PUSH2 0x1F44 DUP3 DUP3 PUSH2 0x1E27 JUMP JUMPDEST SWAP2 POP POP PUSH1 0x60 DUP4 ADD MLOAD PUSH2 0x1F59 PUSH1 0x60 DUP7 ADD DUP3 PUSH2 0x1D7F JUMP JUMPDEST POP DUP1 SWAP2 POP POP SWAP3 SWAP2 POP POP JUMP JUMPDEST PUSH1 0x0 PUSH1 0x20 DUP3 ADD SWAP1 POP DUP2 DUP2 SUB PUSH1 0x0 DUP4 ADD MSTORE PUSH2 0x1F7E DUP2 DUP5 PUSH2 0x1F01 JUMP JUMPDEST SWAP1 POP SWAP3 SWAP2 POP POP JUMP JUMPDEST PUSH1 0x0 DUP2 MLOAD SWAP1 POP SWAP2 SWAP1 POP JUMP JUMPDEST PUSH1 0x0 DUP3 DUP3 MSTORE PUSH1 0x20 DUP3 ADD SWAP1 POP SWAP3 SWAP2 POP POP JUMP JUMPDEST PUSH1 0x0 DUP2 SWAP1 POP PUSH1 0x20 DUP3 ADD SWAP1 POP SWAP2 SWAP1 POP JUMP JUMPDEST PUSH1 0x0 PUSH2 0x1FBE DUP4 DUP4 PUSH2 0x1D7F JUMP JUMPDEST PUSH1 0x20 DUP4 ADD SWAP1 POP SWAP3 SWAP2 POP POP JUMP JUMPDEST PUSH1 0x0 PUSH1 0x20 DUP3 ADD SWAP1 POP SWAP2 SWAP1 POP JUMP JUMPDEST PUSH1 0x0 PUSH2 0x1FE2 DUP3 PUSH2 0x1F86 JUMP JUMPDEST PUSH2 0x1FEC DUP2 DUP6 PUSH2 0x1F91 JUMP JUMPDEST SWAP4 POP PUSH2 0x1FF7 DUP4 PUSH2 0x1FA2 JUMP JUMPDEST DUP1 PUSH1 0x0 JUMPDEST DUP4 DUP2 LT ISZERO PUSH2 0x2028 JUMPI DUP2 MLOAD PUSH2 0x200F DUP9 DUP3 PUSH2 0x1FB2 JUMP JUMPDEST SWAP8 POP PUSH2 0x201A DUP4 PUSH2 0x1FCA JUMP JUMPDEST SWAP3 POP POP PUSH1 0x1 DUP2 ADD SWAP1 POP PUSH2 0x1FFB JUMP JUMPDEST POP DUP6 SWAP4 POP POP POP POP SWAP3 SWAP2 POP POP JUMP JUMPDEST PUSH1 0x0 PUSH1 0x20 DUP3 ADD SWAP1 POP DUP2 DUP2 SUB PUSH1 0x0 DUP4 ADD MSTORE PUSH2 0x204F DUP2 DUP5 PUSH2 0x1FD7 JUMP JUMPDEST SWAP1 POP SWAP3 SWAP2 POP POP JUMP JUMPDEST PUSH2 0x2060 DUP2 PUSH2 0x1D1C JUMP JUMPDEST DUP3 MSTORE POP POP JUMP JUMPDEST PUSH1 0x0 PUSH1 0x20 DUP3 ADD SWAP1 POP PUSH2 0x207B PUSH1 0x0 DUP4 ADD DUP5 PUSH2 0x2057 JUMP JUMPDEST SWAP3 SWAP2 POP POP JUMP JUMPDEST PUSH1 0x0 DUP1 REVERT JUMPDEST PUSH1 0x0 PUSH2 0x100 DUP3 DUP5 SUB SLT ISZERO PUSH2 0x209D JUMPI PUSH2 0x209C PUSH2 0x2081 JUMP JUMPDEST JUMPDEST DUP2 SWAP1 POP SWAP3 SWAP2 POP POP JUMP JUMPDEST PUSH1 0x0 DUP1 PUSH1 0x0 PUSH1 0x60 DUP5 DUP7 SUB SLT ISZERO PUSH2 0x20BF JUMPI PUSH2 0x20BE PUSH2 0x1D12 JUMP JUMPDEST JUMPDEST PUSH1 0x0 PUSH2 0x20CD DUP7 DUP3 DUP8 ADD PUSH2 0x1D3D JUMP JUMPDEST SWAP4 POP POP PUSH1 0x20 PUSH2 0x20DE DUP7 DUP3 DUP8 ADD PUSH2 0x1D3D JUMP JUMPDEST SWAP3 POP POP PUSH1 0x40 DUP5 ADD CALLDATALOAD PUSH8 0xFFFFFFFFFFFFFFFF DUP2 GT ISZERO PUSH2 0x20FF JUMPI PUSH2 0x20FE PUSH2 0x1D17 JUMP JUMPDEST JUMPDEST PUSH2 0x210B DUP7 DUP3 DUP8 ADD PUSH2 0x2086 JUMP JUMPDEST SWAP2 POP POP SWAP3 POP SWAP3 POP SWAP3 JUMP JUMPDEST PUSH1 0x0 PUSH2 0x100 DUP4 ADD PUSH1 0x0 DUP4 ADD MLOAD DUP5 DUP3 SUB PUSH1 0x0 DUP7 ADD MSTORE PUSH2 0x2133 DUP3 DUP3 PUSH2 0x1DEE JUMP JUMPDEST SWAP2 POP POP PUSH1 0x20 DUP4 ADD MLOAD DUP5 DUP3 SUB PUSH1 0x20 DUP7 ADD MSTORE PUSH2 0x214D DUP3 DUP3 PUSH2 0x1DEE JUMP JUMPDEST SWAP2 POP POP PUSH1 0x40 DUP4 ADD MLOAD DUP5 DUP3 SUB PUSH1 0x40 DUP7 ADD MSTORE PUSH2 0x2167 DUP3 DUP3 PUSH2 0x1DEE JUMP JUMPDEST SWAP2 POP POP PUSH1 0x60 DUP4 ADD MLOAD DUP5 DUP3 SUB PUSH1 0x60 DUP7 ADD MSTORE PUSH2 0x2181 DUP3 DUP3 PUSH2 0x1DEE JUMP JUMPDEST SWAP2 POP POP PUSH1 0x80 DUP4 ADD MLOAD DUP5 DUP3 SUB PUSH1 0x80 DUP7 ADD MSTORE PUSH2 0x219B DUP3 DUP3 PUSH2 0x1DEE JUMP JUMPDEST SWAP2 POP POP PUSH1 0xA0 DUP4 ADD MLOAD DUP5 DUP3 SUB PUSH1 0xA0 DUP7 ADD MSTORE PUSH2 0x21B5 DUP3 DUP3 PUSH2 0x1DEE JUMP JUMPDEST SWAP2 POP POP PUSH1 0xC0 DUP4 ADD MLOAD DUP5 DUP3 SUB PUSH1 0xC0 DUP7 ADD MSTORE PUSH2 0x21CF DUP3 DUP3 PUSH2 0x1DEE JUMP JUMPDEST SWAP2 POP POP PUSH1 0xE0 DUP4 ADD MLOAD PUSH2 0x21E4 PUSH1 0xE0 DUP7 ADD DUP3 PUSH2 0x1D7F JUMP JUMPDEST POP DUP1 SWAP2 POP POP SWAP3 SWAP2 POP POP JUMP JUMPDEST PUSH1 0x0 PUSH1 0x80 DUP3 ADD SWAP1 POP PUSH2 0x2204 PUSH1 0x0 DUP4 ADD DUP8 PUSH2 0x2057 JUMP JUMPDEST PUSH2 0x2211 PUSH1 0x20 DUP4 ADD DUP7 PUSH2 0x2057 JUMP JUMPDEST DUP2 DUP2 SUB PUSH1 0x40 DUP4 ADD MSTORE PUSH2 0x2223 DUP2 DUP6 PUSH2 0x2115 JUMP JUMPDEST SWAP1 POP PUSH2 0x2232 PUSH1 0x60 DUP4 ADD DUP5 PUSH2 0x2057 JUMP JUMPDEST SWAP6 SWAP5 POP POP POP POP POP JUMP JUMPDEST PUSH1 0x0 DUP1 REVERT JUMPDEST PUSH32 0x4E487B7100000000000000000000000000000000000000000000000000000000 PUSH1 0x0 MSTORE PUSH1 0x41 PUSH1 0x4 MSTORE PUSH1 0x24 PUSH1 0x0 REVERT JUMPDEST PUSH2 0x2278 DUP3 PUSH2 0x1DDD JUMP JUMPDEST DUP2 ADD DUP2 DUP2 LT PUSH8 0xFFFFFFFFFFFFFFFF DUP3 GT OR ISZERO PUSH2 0x2297 JUMPI PUSH2 0x2296 PUSH2 0x2240 JUMP JUMPDEST JUMPDEST DUP1 PUSH1 0x40 MSTORE POP POP POP JUMP JUMPDEST PUSH1 0x0 PUSH2 0x22AA PUSH2 0x1D08 JUMP JUMPDEST SWAP1 POP PUSH2 0x22B6 DUP3 DUP3 PUSH2 0x226F JUMP JUMPDEST SWAP2 SWAP1 POP JUMP JUMPDEST PUSH1 0x0 PUSH8 0xFFFFFFFFFFFFFFFF DUP3 GT ISZERO PUSH2 0x22D6 JUMPI PUSH2 0x22D5 PUSH2 0x2240 JUMP JUMPDEST JUMPDEST PUSH1 0x20 DUP3 MUL SWAP1 POP PUSH1 0x20 DUP2 ADD SWAP1 POP SWAP2 SWAP1 POP JUMP JUMPDEST PUSH1 0x0 DUP1 REVERT JUMPDEST PUSH1 0x0 PUSH2 0x22FF PUSH2 0x22FA DUP5 PUSH2 0x22BB JUMP JUMPDEST PUSH2 0x22A0 JUMP JUMPDEST SWAP1 POP DUP1 DUP4 DUP3 MSTORE PUSH1 0x20 DUP3 ADD SWAP1 POP PUSH1 0x20 DUP5 MUL DUP4 ADD DUP6 DUP2 GT ISZERO PUSH2 0x2322 JUMPI PUSH2 0x2321 PUSH2 0x22E7 JUMP JUMPDEST JUMPDEST DUP4 JUMPDEST DUP2 DUP2 LT ISZERO PUSH2 0x234B JUMPI DUP1 PUSH2 0x2337 DUP9 DUP3 PUSH2 0x1D3D JUMP JUMPDEST DUP5 MSTORE PUSH1 0x20 DUP5 ADD SWAP4 POP POP PUSH1 0x20 DUP2 ADD SWAP1 POP PUSH2 0x2324 JUMP JUMPDEST POP POP POP SWAP4 SWAP3 POP POP POP JUMP JUMPDEST PUSH1 0x0 DUP3 PUSH1 0x1F DUP4 ADD SLT PUSH2 0x236A JUMPI PUSH2 0x2369 PUSH2 0x223B JUMP JUMPDEST JUMPDEST DUP2 CALLDATALOAD PUSH2 0x237A DUP5 DUP3 PUSH1 0x20 DUP7 ADD PUSH2 0x22EC JUMP JUMPDEST SWAP2 POP POP SWAP3 SWAP2 POP POP JUMP JUMPDEST PUSH1 0x0 DUP1 PUSH1 0x40 DUP4 DUP6 SUB SLT ISZERO PUSH2 0x239A JUMPI PUSH2 0x2399 PUSH2 0x1D12 JUMP JUMPDEST JUMPDEST PUSH1 0x0 PUSH2 0x23A8 DUP6 DUP3 DUP7 ADD PUSH2 0x1D3D JUMP JUMPDEST SWAP3 POP POP PUSH1 0x20 DUP4 ADD CALLDATALOAD PUSH8 0xFFFFFFFFFFFFFFFF DUP2 GT ISZERO PUSH2 0x23C9 JUMPI PUSH2 0x23C8 PUSH2 0x1D17 JUMP JUMPDEST JUMPDEST PUSH2 0x23D5 DUP6 DUP3 DUP7 ADD PUSH2 0x2355 JUMP JUMPDEST SWAP2 POP POP SWAP3 POP SWAP3 SWAP1 POP JUMP JUMPDEST PUSH1 0x0 DUP1 PUSH1 0x40 DUP4 DUP6 SUB SLT ISZERO PUSH2 0x23F6 JUMPI PUSH2 0x23F5 PUSH2 0x1D12 JUMP JUMPDEST JUMPDEST PUSH1 0x0 PUSH2 0x2404 DUP6 DUP3 DUP7 ADD PUSH2 0x1D3D JUMP JUMPDEST SWAP3 POP POP PUSH1 0x20 DUP4 ADD CALLDATALOAD PUSH8 0xFFFFFFFFFFFFFFFF DUP2 GT ISZERO PUSH2 0x2425 JUMPI PUSH2 0x2424 PUSH2 0x1D17 JUMP JUMPDEST JUMPDEST PUSH2 0x2431 DUP6 DUP3 DUP7 ADD PUSH2 0x2086 JUMP JUMPDEST SWAP2 POP POP SWAP3 POP SWAP3 SWAP1 POP JUMP JUMPDEST PUSH32 0x4E487B7100000000000000000000000000000000000000000000000000000000 PUSH1 0x0 MSTORE PUSH1 0x22 PUSH1 0x4 MSTORE PUSH1 0x24 PUSH1 0x0 REVERT JUMPDEST PUSH1 0x0 PUSH1 0x2 DUP3 DIV SWAP1 POP PUSH1 0x1 DUP3 AND DUP1 PUSH2 0x2482 JUMPI PUSH1 0x7F DUP3 AND SWAP2 POP JUMPDEST PUSH1 0x20 DUP3 LT DUP2 EQ ISZERO PUSH2 0x2496 JUMPI PUSH2 0x2495 PUSH2 0x243B JUMP JUMPDEST JUMPDEST POP SWAP2 SWAP1 POP JUMP JUMPDEST PUSH1 0x0 DUP3 DUP3 MSTORE PUSH1 0x20 DUP3 ADD SWAP1 POP SWAP3 SWAP2 POP POP JUMP JUMPDEST PUSH32 0x6368616C6C656E676520646F6573206E6F742065786973740000000000000000 PUSH1 0x0 DUP3 ADD MSTORE POP JUMP JUMPDEST PUSH1 0x0 PUSH2 0x24E3 PUSH1 0x18 DUP4 PUSH2 0x249C JUMP JUMPDEST SWAP2 POP PUSH2 0x24EE DUP3 PUSH2 0x24AD JUMP JUMPDEST PUSH1 0x20 DUP3 ADD SWAP1 POP SWAP2 SWAP1 POP JUMP JUMPDEST PUSH1 0x0 PUSH1 0x20 DUP3 ADD SWAP1 POP DUP2 DUP2 SUB PUSH1 0x0 DUP4 ADD MSTORE PUSH2 0x2512 DUP2 PUSH2 0x24D6 JUMP JUMPDEST SWAP1 POP SWAP2 SWAP1 POP JUMP JUMPDEST PUSH1 0x0 DUP1 REVERT JUMPDEST PUSH1 0x0 DUP1 REVERT JUMPDEST PUSH1 0x0 DUP2 MLOAD SWAP1 POP PUSH2 0x2532 DUP2 PUSH2 0x1D26 JUMP JUMPDEST SWAP3 SWAP2 POP POP JUMP JUMPDEST PUSH1 0x0 DUP1 REVERT JUMPDEST PUSH1 0x0 PUSH8 0xFFFFFFFFFFFFFFFF DUP3 GT ISZERO PUSH2 0x2558 JUMPI PUSH2 0x2557 PUSH2 0x2240 JUMP JUMPDEST JUMPDEST PUSH2 0x2561 DUP3 PUSH2 0x1DDD JUMP JUMPDEST SWAP1 POP PUSH1 0x20 DUP2 ADD SWAP1 POP SWAP2 SWAP1 POP JUMP JUMPDEST PUSH1 0x0 PUSH2 0x2581 PUSH2 0x257C DUP5 PUSH2 0x253D JUMP JUMPDEST PUSH2 0x22A0 JUMP JUMPDEST SWAP1 POP DUP3 DUP2 MSTORE PUSH1 0x20 DUP2 ADD DUP5 DUP5 DUP5 ADD GT ISZERO PUSH2 0x259D JUMPI PUSH2 0x259C PUSH2 0x2538 JUMP JUMPDEST JUMPDEST PUSH2 0x25A8 DUP5 DUP3 DUP6 PUSH2 0x1DAA JUMP JUMPDEST POP SWAP4 SWAP3 POP POP POP JUMP JUMPDEST PUSH1 0x0 DUP3 PUSH1 0x1F DUP4 ADD SLT PUSH2 0x25C5 JUMPI PUSH2 0x25C4 PUSH2 0x223B JUMP JUMPDEST JUMPDEST DUP2 MLOAD PUSH2 0x25D5 DUP5 DUP3 PUSH1 0x20 DUP7 ADD PUSH2 0x256E JUMP JUMPDEST SWAP2 POP POP SWAP3 SWAP2 POP POP JUMP JUMPDEST PUSH1 0x0 PUSH1 0xC0 DUP3 DUP5 SUB SLT ISZERO PUSH2 0x25F4 JUMPI PUSH2 0x25F3 PUSH2 0x2519 JUMP JUMPDEST JUMPDEST PUSH2 0x25FE PUSH1 0xC0 PUSH2 0x22A0 JUMP JUMPDEST SWAP1 POP PUSH1 0x0 DUP3 ADD MLOAD PUSH8 0xFFFFFFFFFFFFFFFF DUP2 GT ISZERO PUSH2 0x261E JUMPI PUSH2 0x261D PUSH2 0x251E JUMP JUMPDEST JUMPDEST PUSH2 0x262A DUP5 DUP3 DUP6 ADD PUSH2 0x25B0 JUMP JUMPDEST PUSH1 0x0 DUP4 ADD MSTORE POP PUSH1 0x20 DUP3 ADD MLOAD PUSH8 0xFFFFFFFFFFFFFFFF DUP2 GT ISZERO PUSH2 0x264E JUMPI PUSH2 0x264D PUSH2 0x251E JUMP JUMPDEST JUMPDEST PUSH2 0x265A DUP5 DUP3 DUP6 ADD PUSH2 0x25B0 JUMP JUMPDEST PUSH1 0x20 DUP4 ADD MSTORE POP PUSH1 0x40 PUSH2 0x266E DUP5 DUP3 DUP6 ADD PUSH2 0x2523 JUMP JUMPDEST PUSH1 0x40 DUP4 ADD MSTORE POP PUSH1 0x60 PUSH2 0x2682 DUP5 DUP3 DUP6 ADD PUSH2 0x2523 JUMP JUMPDEST PUSH1 0x60 DUP4 ADD MSTORE POP PUSH1 0x80 PUSH2 0x2696 DUP5 DUP3 DUP6 ADD PUSH2 0x2523 JUMP JUMPDEST PUSH1 0x80 DUP4 ADD MSTORE POP PUSH1 0xA0 DUP3 ADD MLOAD PUSH8 0xFFFFFFFFFFFFFFFF DUP2 GT ISZERO PUSH2 0x26BA JUMPI PUSH2 0x26B9 PUSH2 0x251E JUMP JUMPDEST JUMPDEST PUSH2 0x26C6 DUP5 DUP3 DUP6 ADD PUSH2 0x25B0 JUMP JUMPDEST PUSH1 0xA0 DUP4 ADD MSTORE POP SWAP3 SWAP2 POP POP JUMP JUMPDEST PUSH1 0x0 PUSH20 0xFFFFFFFFFFFFFFFFFFFFFFFFFFFFFFFFFFFFFFFF DUP3 AND SWAP1 POP SWAP2 SWAP1 POP JUMP JUMPDEST PUSH1 0x0 PUSH2 0x26FD DUP3 PUSH2 0x26D2 JUMP JUMPDEST SWAP1 POP SWAP2 SWAP1 POP JUMP JUMPDEST PUSH2 0x270D DUP2 PUSH2 0x26F2 JUMP JUMPDEST DUP2 EQ PUSH2 0x2718 JUMPI PUSH1 0x0 DUP1 REVERT JUMPDEST POP JUMP JUMPDEST PUSH1 0x0 DUP2 MLOAD SWAP1 POP PUSH2 0x272A DUP2 PUSH2 0x2704 JUMP JUMPDEST SWAP3 SWAP2 POP POP JUMP JUMPDEST PUSH1 0x4 DUP2 LT PUSH2 0x273D JUMPI PUSH1 0x0 DUP1 REVERT JUMPDEST POP JUMP JUMPDEST PUSH1 0x0 DUP2 MLOAD SWAP1 POP PUSH2 0x274F DUP2 PUSH2 0x2730 JUMP JUMPDEST SWAP3 SWAP2 POP POP JUMP JUMPDEST PUSH1 0x0 PUSH1 0xA0 DUP3 DUP5 SUB SLT ISZERO PUSH2 0x276B JUMPI PUSH2 0x276A PUSH2 0x2519 JUMP JUMPDEST JUMPDEST PUSH2 0x2775 PUSH1 0xA0 PUSH2 0x22A0 JUMP JUMPDEST SWAP1 POP PUSH1 0x0 PUSH2 0x2785 DUP5 DUP3 DUP6 ADD PUSH2 0x2523 JUMP JUMPDEST PUSH1 0x0 DUP4 ADD MSTORE POP PUSH1 0x20 DUP3 ADD MLOAD PUSH8 0xFFFFFFFFFFFFFFFF DUP2 GT ISZERO PUSH2 0x27A9 JUMPI PUSH2 0x27A8 PUSH2 0x251E JUMP JUMPDEST JUMPDEST PUSH2 0x27B5 DUP5 DUP3 DUP6 ADD PUSH2 0x25DE JUMP JUMPDEST PUSH1 0x20 DUP4 ADD MSTORE POP PUSH1 0x40 PUSH2 0x27C9 DUP5 DUP3 DUP6 ADD PUSH2 0x271B JUMP JUMPDEST PUSH1 0x40 DUP4 ADD MSTORE POP PUSH1 0x60 PUSH2 0x27DD DUP5 DUP3 DUP6 ADD PUSH2 0x2740 JUMP JUMPDEST PUSH1 0x60 DUP4 ADD MSTORE POP PUSH1 0x80 PUSH2 0x27F1 DUP5 DUP3 DUP6 ADD PUSH2 0x2523 JUMP JUMPDEST PUSH1 0x80 DUP4 ADD MSTORE POP SWAP3 SWAP2 POP POP JUMP JUMPDEST PUSH1 0x0 PUSH1 0x20 DUP3 DUP5 SUB SLT ISZERO PUSH2 0x2813 JUMPI PUSH2 0x2812 PUSH2 0x1D12 JUMP JUMPDEST JUMPDEST PUSH1 0x0 DUP3 ADD MLOAD PUSH8 0xFFFFFFFFFFFFFFFF DUP2 GT ISZERO PUSH2 0x2831 JUMPI PUSH2 0x2830 PUSH2 0x1D17 JUMP JUMPDEST JUMPDEST PUSH2 0x283D DUP5 DUP3 DUP6 ADD PUSH2 0x2755 JUMP JUMPDEST SWAP2 POP POP SWAP3 SWAP2 POP POP JUMP JUMPDEST PUSH32 0x6F6E6C7920636F6E74657374206F776E65720000000000000000000000000000 PUSH1 0x0 DUP3 ADD MSTORE POP JUMP JUMPDEST PUSH1 0x0 PUSH2 0x287C PUSH1 0x12 DUP4 PUSH2 0x249C JUMP JUMPDEST SWAP2 POP PUSH2 0x2887 DUP3 PUSH2 0x2846 JUMP JUMPDEST PUSH1 0x20 DUP3 ADD SWAP1 POP SWAP2 SWAP1 POP JUMP JUMPDEST PUSH1 0x0 PUSH1 0x20 DUP3 ADD SWAP1 POP DUP2 DUP2 SUB PUSH1 0x0 DUP4 ADD MSTORE PUSH2 0x28AB DUP2 PUSH2 0x286F JUMP JUMPDEST SWAP1 POP SWAP2 SWAP1 POP JUMP JUMPDEST PUSH32 0x4E487B7100000000000000000000000000000000000000000000000000000000 PUSH1 0x0 MSTORE PUSH1 0x21 PUSH1 0x4 MSTORE PUSH1 0x24 PUSH1 0x0 REVERT JUMPDEST PUSH1 0x4 DUP2 LT PUSH2 0x28F2 JUMPI PUSH2 0x28F1 PUSH2 0x28B2 JUMP JUMPDEST JUMPDEST POP JUMP JUMPDEST PUSH1 0x0 DUP2 SWAP1 POP PUSH2 0x2903 DUP3 PUSH2 0x28E1 JUMP JUMPDEST SWAP2 SWAP1 POP JUMP JUMPDEST PUSH1 0x0 PUSH2 0x2913 DUP3 PUSH2 0x28F5 JUMP JUMPDEST SWAP1 POP SWAP2 SWAP1 POP JUMP JUMPDEST PUSH2 0x2923 DUP2 PUSH2 0x2908 JUMP JUMPDEST DUP3 MSTORE POP POP JUMP JUMPDEST PUSH1 0x0 PUSH1 0x40 DUP3 ADD SWAP1 POP PUSH2 0x293E PUSH1 0x0 DUP4 ADD DUP6 PUSH2 0x2057 JUMP JUMPDEST PUSH2 0x294B PUSH1 0x20 DUP4 ADD DUP5 PUSH2 0x291A JUMP JUMPDEST SWAP4 SWAP3 POP POP POP JUMP JUMPDEST PUSH1 0x0 DUP2 ISZERO ISZERO SWAP1 POP SWAP2 SWAP1 POP JUMP JUMPDEST PUSH2 0x2967 DUP2 PUSH2 0x2952 JUMP JUMPDEST DUP2 EQ PUSH2 0x2972 JUMPI PUSH1 0x0 DUP1 REVERT JUMPDEST POP JUMP JUMPDEST PUSH1 0x0 DUP2 MLOAD SWAP1 POP PUSH2 0x2984 DUP2 PUSH2 0x295E JUMP JUMPDEST SWAP3 SWAP2 POP POP JUMP JUMPDEST PUSH1 0x0 PUSH1 0x20 DUP3 DUP5 SUB SLT ISZERO PUSH2 0x29A0 JUMPI PUSH2 0x299F PUSH2 0x1D12 JUMP JUMPDEST JUMPDEST PUSH1 0x0 PUSH2 0x29AE DUP5 DUP3 DUP6 ADD PUSH2 0x2975 JUMP JUMPDEST SWAP2 POP POP SWAP3 SWAP2 POP POP JUMP JUMPDEST PUSH32 0x77726F6E6720636F6E7465737420737461746500000000000000000000000000 PUSH1 0x0 DUP3 ADD MSTORE POP JUMP JUMPDEST PUSH1 0x0 PUSH2 0x29ED PUSH1 0x13 DUP4 PUSH2 0x249C JUMP JUMPDEST SWAP2 POP PUSH2 0x29F8 DUP3 PUSH2 0x29B7 JUMP JUMPDEST PUSH1 0x20 DUP3 ADD SWAP1 POP SWAP2 SWAP1 POP JUMP JUMPDEST PUSH1 0x0 PUSH1 0x20 DUP3 ADD SWAP1 POP DUP2 DUP2 SUB PUSH1 0x0 DUP4 ADD MSTORE PUSH2 0x2A1C DUP2 PUSH2 0x29E0 JUMP JUMPDEST SWAP1 POP SWAP2 SWAP1 POP JUMP JUMPDEST PUSH1 0x0 DUP1 REVERT JUMPDEST PUSH1 0x0 DUP1 REVERT JUMPDEST PUSH1 0x0 DUP1 REVERT JUMPDEST PUSH1 0x0 DUP1 DUP4 CALLDATALOAD PUSH1 0x1 PUSH1 0x20 SUB DUP5 CALLDATASIZE SUB SUB DUP2 SLT PUSH2 0x2A4F JUMPI PUSH2 0x2A4E PUSH2 0x2A23 JUMP JUMPDEST JUMPDEST DUP1 DUP5 ADD SWAP3 POP DUP3 CALLDATALOAD SWAP2 POP PUSH8 0xFFFFFFFFFFFFFFFF DUP3 GT ISZERO PUSH2 0x2A71 JUMPI PUSH2 0x2A70 PUSH2 0x2A28 JUMP JUMPDEST JUMPDEST PUSH1 0x20 DUP4 ADD SWAP3 POP PUSH1 0x1 DUP3 MUL CALLDATASIZE SUB DUP4 SGT ISZERO PUSH2 0x2A8D JUMPI PUSH2 0x2A8C PUSH2 0x2A2D JUMP JUMPDEST JUMPDEST POP SWAP3 POP SWAP3 SWAP1 POP JUMP JUMPDEST PUSH1 0x0 DUP3 SWAP1 POP SWAP3 SWAP2 POP POP JUMP JUMPDEST PUSH1 0x0 DUP2 SWAP1 POP DUP2 PUSH1 0x0 MSTORE PUSH1 0x20 PUSH1 0x0 KECCAK256 SWAP1 POP SWAP2 SWAP1 POP JUMP JUMPDEST PUSH1 0x0 PUSH1 0x20 PUSH1 0x1F DUP4 ADD DIV SWAP1 POP SWAP2 SWAP1 POP JUMP JUMPDEST PUSH1 0x0 DUP3 DUP3 SHL SWAP1 POP SWAP3 SWAP2 POP POP JUMP JUMPDEST PUSH1 0x0 PUSH1 0x8 DUP4 MUL PUSH2 0x2B02 PUSH32 0xFFFFFFFFFFFFFFFFFFFFFFFFFFFFFFFFFFFFFFFFFFFFFFFFFFFFFFFFFFFFFFFF DUP3 PUSH2 0x2AC5 JUMP JUMPDEST PUSH2 0x2B0C DUP7 DUP4 PUSH2 0x2AC5 JUMP JUMPDEST SWAP6 POP DUP1 NOT DUP5 AND SWAP4 POP DUP1 DUP7 AND DUP5 OR SWAP3 POP POP POP SWAP4 SWAP3 POP POP POP JUMP JUMPDEST PUSH1 0x0 DUP2 SWAP1 POP SWAP2 SWAP1 POP JUMP JUMPDEST PUSH1 0x0 PUSH2 0x2B49 PUSH2 0x2B44 PUSH2 0x2B3F DUP5 PUSH2 0x1D1C JUMP JUMPDEST PUSH2 0x2B24 JUMP JUMPDEST PUSH2 0x1D1C JUMP JUMPDEST SWAP1 POP SWAP2 SWAP1 POP JUMP JUMPDEST PUSH1 0x0 DUP2 SWAP1 POP SWAP2 SWAP1 POP JUMP JUMPDEST PUSH2 0x2B63 DUP4 PUSH2 0x2B2E JUMP JUMPDEST PUSH2 0x2B77 PUSH2 0x2B6F DUP3 PUSH2 0x2B50 JUMP JUMPDEST DUP5 DUP5 SLOAD PUSH2 0x2AD2 JUMP JUMPDEST DUP3 SSTORE POP POP POP POP JUMP JUMPDEST PUSH1 0x0 SWAP1 JUMP JUMPDEST PUSH2 0x2B8C PUSH2 0x2B7F JUMP JUMPDEST PUSH2 0x2B97 DUP2 DUP5 DUP5 PUSH2 0x2B5A JUMP JUMPDEST POP POP POP JUMP JUMPDEST JUMPDEST DUP2 DUP2 LT ISZERO PUSH2 0x2BBB JUMPI PUSH2 0x2BB0 PUSH1 0x0 DUP3 PUSH2 0x2B84 JUMP JUMPDEST PUSH1 0x1 DUP2 ADD SWAP1 POP PUSH2 0x2B9D JUMP JUMPDEST POP POP JUMP JUMPDEST PUSH1 0x1F DUP3 GT ISZERO PUSH2 0x2C00 JUMPI PUSH2 0x2BD1 DUP2 PUSH2 0x2AA0 JUMP JUMPDEST PUSH2 0x2BDA DUP5 PUSH2 0x2AB5 JUMP JUMPDEST DUP2 ADD PUSH1 0x20 DUP6 LT ISZERO PUSH2 0x2BE9 JUMPI DUP2 SWAP1 POP JUMPDEST PUSH2 0x2BFD PUSH2 0x2BF5 DUP6 PUSH2 0x2AB5 JUMP JUMPDEST DUP4 ADD DUP3 PUSH2 0x2B9C JUMP JUMPDEST POP POP JUMPDEST POP POP POP JUMP JUMPDEST PUSH1 0x0 DUP3 DUP3 SHR SWAP1 POP SWAP3 SWAP2 POP POP JUMP JUMPDEST PUSH1 0x0 PUSH2 0x2C23 PUSH1 0x0 NOT DUP5 PUSH1 0x8 MUL PUSH2 0x2C05 JUMP JUMPDEST NOT DUP1 DUP4 AND SWAP2 POP POP SWAP3 SWAP2 POP POP JUMP JUMPDEST PUSH1 0x0 PUSH2 0x2C3C DUP4 DUP4 PUSH2 0x2C12 JUMP JUMPDEST SWAP2 POP DUP3 PUSH1 0x2 MUL DUP3 OR SWAP1 POP SWAP3 SWAP2 POP POP JUMP JUMPDEST PUSH2 0x2C56 DUP4 DUP4 PUSH2 0x2A95 JUMP JUMPDEST PUSH8 0xFFFFFFFFFFFFFFFF DUP2 GT ISZERO PUSH2 0x2C6F JUMPI PUSH2 0x2C6E PUSH2 0x2240 JUMP JUMPDEST JUMPDEST PUSH2 0x2C79 DUP3 SLOAD PUSH2 0x246A JUMP JUMPDEST PUSH2 0x2C84 DUP3 DUP3 DUP6 PUSH2 0x2BBF JUMP JUMPDEST PUSH1 0x0 PUSH1 0x1F DUP4 GT PUSH1 0x1 DUP2 EQ PUSH2 0x2CB3 JUMPI PUSH1 0x0 DUP5 ISZERO PUSH2 0x2CA1 JUMPI DUP3 DUP8 ADD CALLDATALOAD SWAP1 POP JUMPDEST PUSH2 0x2CAB DUP6 DUP3 PUSH2 0x2C30 JUMP JUMPDEST DUP7 SSTORE POP PUSH2 0x2D13 JUMP JUMPDEST PUSH1 0x1F NOT DUP5 AND PUSH2 0x2CC1 DUP7 PUSH2 0x2AA0 JUMP JUMPDEST PUSH1 0x0 JUMPDEST DUP3 DUP2 LT ISZERO PUSH2 0x2CE9 JUMPI DUP5 DUP10 ADD CALLDATALOAD DUP3 SSTORE PUSH1 0x1 DUP3 ADD SWAP2 POP PUSH1 0x20 DUP6 ADD SWAP5 POP PUSH1 0x20 DUP2 ADD SWAP1 POP PUSH2 0x2CC4 JUMP JUMPDEST DUP7 DUP4 LT ISZERO PUSH2 0x2D06 JUMPI DUP5 DUP10 ADD CALLDATALOAD PUSH2 0x2D02 PUSH1 0x1F DUP10 AND DUP3 PUSH2 0x2C12 JUMP JUMPDEST DUP4 SSTORE POP JUMPDEST PUSH1 0x1 PUSH1 0x2 DUP9 MUL ADD DUP9 SSTORE POP POP POP JUMPDEST POP POP POP POP POP POP POP JUMP JUMPDEST PUSH2 0x2D27 DUP4 DUP4 DUP4 PUSH2 0x2C4C JUMP JUMPDEST POP POP POP JUMP JUMPDEST PUSH1 0x0 DUP2 CALLDATALOAD PUSH2 0x2D39 DUP2 PUSH2 0x1D26 JUMP JUMPDEST DUP1 SWAP2 POP POP SWAP2 SWAP1 POP JUMP JUMPDEST PUSH1 0x0 DUP2 PUSH1 0x0 SHL SWAP1 POP SWAP2 SWAP1 POP JUMP JUMPDEST PUSH1 0x0 PUSH32 0xFFFFFFFFFFFFFFFFFFFFFFFFFFFFFFFFFFFFFFFFFFFFFFFFFFFFFFFFFFFFFFFF PUSH2 0x2D7B DUP5 PUSH2 0x2D42 JUMP JUMPDEST SWAP4 POP DUP1 NOT DUP4 AND SWAP3 POP DUP1 DUP5 AND DUP4 OR SWAP2 POP POP SWAP3 SWAP2 POP POP JUMP JUMPDEST PUSH2 0x2D9A DUP3 PUSH2 0x2B2E JUMP JUMPDEST PUSH2 0x2DAD PUSH2 0x2DA6 DUP3 PUSH2 0x2B50 JUMP JUMPDEST DUP4 SLOAD PUSH2 0x2D4F JUMP JUMPDEST DUP3 SSTORE POP POP POP JUMP JUMPDEST PUSH1 0x0 DUP2 ADD PUSH1 0x0 DUP4 ADD PUSH2 0x2DC6 DUP2 DUP6 PUSH2 0x2A32 JUMP JUMPDEST PUSH2 0x2DD1 DUP2 DUP4 DUP7 PUSH2 0x2D1C JUMP JUMPDEST POP POP POP POP PUSH1 0x1 DUP2 ADD PUSH1 0x20 DUP4 ADD PUSH2 0x2DE7 DUP2 DUP6 PUSH2 0x2A32 JUMP JUMPDEST PUSH2 0x2DF2 DUP2 DUP4 DUP7 PUSH2 0x2D1C JUMP JUMPDEST POP POP POP POP PUSH1 0x2 DUP2 ADD PUSH1 0x40 DUP4 ADD PUSH2 0x2E08 DUP2 DUP6 PUSH2 0x2A32 JUMP JUMPDEST PUSH2 0x2E13 DUP2 DUP4 DUP7 PUSH2 0x2D1C JUMP JUMPDEST POP POP POP POP PUSH1 0x3 DUP2 ADD PUSH1 0x60 DUP4 ADD PUSH2 0x2E29 DUP2 DUP6 PUSH2 0x2A32 JUMP JUMPDEST PUSH2 0x2E34 DUP2 DUP4 DUP7 PUSH2 0x2D1C JUMP JUMPDEST POP POP POP POP PUSH1 0x4 DUP2 ADD PUSH1 0x80 DUP4 ADD PUSH2 0x2E4A DUP2 DUP6 PUSH2 0x2A32 JUMP JUMPDEST PUSH2 0x2E55 DUP2 DUP4 DUP7 PUSH2 0x2D1C JUMP JUMPDEST POP POP POP POP PUSH1 0x5 DUP2 ADD PUSH1 0xA0 DUP4 ADD PUSH2 0x2E6B DUP2 DUP6 PUSH2 0x2A32 JUMP JUMPDEST PUSH2 0x2E76 DUP2 DUP4 DUP7 PUSH2 0x2D1C JUMP JUMPDEST POP POP POP POP PUSH1 0x6 DUP2 ADD PUSH1 0xC0 DUP4 ADD PUSH2 0x2E8C DUP2 DUP6 PUSH2 0x2A32 JUMP JUMPDEST PUSH2 0x2E97 DUP2 DUP4 DUP7 PUSH2 0x2D1C JUMP JUMPDEST POP POP POP POP PUSH1 0x7 DUP2 ADD PUSH1 0xE0 DUP4 ADD DUP1 PUSH2 0x2EAD DUP2 PUSH2 0x2D2C JUMP JUMPDEST SWAP1 POP PUSH2 0x2EB9 DUP2 DUP5 PUSH2 0x2D91 JUMP JUMPDEST POP POP POP POP POP JUMP JUMPDEST PUSH2 0x2ECA DUP3 DUP3 PUSH2 0x2DB4 JUMP JUMPDEST POP POP JUMP JUMPDEST PUSH32 0x4E487B7100000000000000000000000000000000000000000000000000000000 PUSH1 0x0 MSTORE PUSH1 0x32 PUSH1 0x4 MSTORE PUSH1 0x24 PUSH1 0x0 REVERT JUMPDEST PUSH32 0x4E487B7100000000000000000000000000000000000000000000000000000000 PUSH1 0x0 MSTORE PUSH1 0x11 PUSH1 0x4 MSTORE PUSH1 0x24 PUSH1 0x0 REVERT JUMPDEST PUSH1 0x0 PUSH2 0x2F37 DUP3 PUSH2 0x1D1C JUMP JUMPDEST SWAP2 POP PUSH32 0xFFFFFFFFFFFFFFFFFFFFFFFFFFFFFFFFFFFFFFFFFFFFFFFFFFFFFFFFFFFFFFFF DUP3 EQ ISZERO PUSH2 0x2F6A JUMPI PUSH2 0x2F69 PUSH2 0x2EFD JUMP JUMPDEST JUMPDEST PUSH1 0x1 DUP3 ADD SWAP1 POP SWAP2 SWAP1 POP JUMP JUMPDEST DUP3 DUP2 DUP4 CALLDATACOPY PUSH1 0x0 DUP4 DUP4 ADD MSTORE POP POP POP JUMP JUMPDEST PUSH1 0x0 PUSH2 0x2F97 PUSH2 0x2F92 DUP5 PUSH2 0x253D JUMP JUMPDEST PUSH2 0x22A0 JUMP JUMPDEST SWAP1 POP DUP3 DUP2 MSTORE PUSH1 0x20 DUP2 ADD DUP5 DUP5 DUP5 ADD GT ISZERO PUSH2 0x2FB3 JUMPI PUSH2 0x2FB2 PUSH2 0x2538 JUMP JUMPDEST JUMPDEST PUSH2 0x2FBE DUP5 DUP3 DUP6 PUSH2 0x2F75 JUMP JUMPDEST POP SWAP4 SWAP3 POP POP POP JUMP JUMPDEST PUSH1 0x0 DUP3 PUSH1 0x1F DUP4 ADD SLT PUSH2 0x2FDB JUMPI PUSH2 0x2FDA PUSH2 0x223B JUMP JUMPDEST JUMPDEST DUP2 CALLDATALOAD PUSH2 0x2FEB DUP5 DUP3 PUSH1 0x20 DUP7 ADD PUSH2 0x2F84 JUMP JUMPDEST SWAP2 POP POP SWAP3 SWAP2 POP POP JUMP JUMPDEST PUSH1 0x0 PUSH2 0x100 DUP3 DUP5 SUB SLT ISZERO PUSH2 0x300B JUMPI PUSH2 0x300A PUSH2 0x2519 JUMP JUMPDEST JUMPDEST PUSH2 0x3016 PUSH2 0x100 PUSH2 0x22A0 JUMP JUMPDEST SWAP1 POP PUSH1 0x0 DUP3 ADD CALLDATALOAD PUSH8 0xFFFFFFFFFFFFFFFF DUP2 GT ISZERO PUSH2 0x3036 JUMPI PUSH2 0x3035 PUSH2 0x251E JUMP JUMPDEST JUMPDEST PUSH2 0x3042 DUP5 DUP3 DUP6 ADD PUSH2 0x2FC6 JUMP JUMPDEST PUSH1 0x0 DUP4 ADD MSTORE POP PUSH1 0x20 DUP3 ADD CALLDATALOAD PUSH8 0xFFFFFFFFFFFFFFFF DUP2 GT ISZERO PUSH2 0x3066 JUMPI PUSH2 0x3065 PUSH2 0x251E JUMP JUMPDEST JUMPDEST PUSH2 0x3072 DUP5 DUP3 DUP6 ADD PUSH2 0x2FC6 JUMP JUMPDEST PUSH1 0x20 DUP4 ADD MSTORE POP PUSH1 0x40 DUP3 ADD CALLDATALOAD PUSH8 0xFFFFFFFFFFFFFFFF DUP2 GT ISZERO PUSH2 0x3096 JUMPI PUSH2 0x3095 PUSH2 0x251E JUMP JUMPDEST JUMPDEST PUSH2 0x30A2 DUP5 DUP3 DUP6 ADD PUSH2 0x2FC6 JUMP JUMPDEST PUSH1 0x40 DUP4 ADD MSTORE POP PUSH1 0x60 DUP3 ADD CALLDATALOAD PUSH8 0xFFFFFFFFFFFFFFFF DUP2 GT ISZERO PUSH2 0x30C6 JUMPI PUSH2 0x30C5 PUSH2 0x251E JUMP JUMPDEST JUMPDEST PUSH2 0x30D2 DUP5 DUP3 DUP6 ADD PUSH2 0x2FC6 JUMP JUMPDEST PUSH1 0x60 DUP4 ADD MSTORE POP PUSH1 0x80 DUP3 ADD CALLDATALOAD PUSH8 0xFFFFFFFFFFFFFFFF DUP2 GT ISZERO PUSH2 0x30F6 JUMPI PUSH2 0x30F5 PUSH2 0x251E JUMP JUMPDEST JUMPDEST PUSH2 0x3102 DUP5 DUP3 DUP6 ADD PUSH2 0x2FC6 JUMP JUMPDEST PUSH1 0x80 DUP4 ADD MSTORE POP PUSH1 0xA0 DUP3 ADD CALLDATALOAD PUSH8 0xFFFFFFFFFFFFFFFF DUP2 GT ISZERO PUSH2 0x3126 JUMPI PUSH2 0x3125 PUSH2 0x251E JUMP JUMPDEST JUMPDEST PUSH2 0x3132 DUP5 DUP3 DUP6 ADD PUSH2 0x2FC6 JUMP JUMPDEST PUSH1 0xA0 DUP4 ADD MSTORE POP PUSH1 0xC0 DUP3 ADD CALLDATALOAD PUSH8 0xFFFFFFFFFFFFFFFF DUP2 GT ISZERO PUSH2 0x3156 JUMPI PUSH2 0x3155 PUSH2 0x251E JUMP JUMPDEST JUMPDEST PUSH2 0x3162 DUP5 DUP3 DUP6 ADD PUSH2 0x2FC6 JUMP JUMPDEST PUSH1 0xC0 DUP4 ADD MSTORE POP PUSH1 0xE0 PUSH2 0x3176 DUP5 DUP3 DUP6 ADD PUSH2 0x1D3D JUMP JUMPDEST PUSH1 0xE0 DUP4 ADD MSTORE POP SWAP3 SWAP2 POP POP JUMP JUMPDEST PUSH1 0x0 PUSH2 0x318E CALLDATASIZE DUP4 PUSH2 0x2FF4 JUMP JUMPDEST SWAP1 POP SWAP2 SWAP1 POP JUMP JUMPDEST PUSH1 0x0 PUSH2 0x31A0 DUP3 PUSH2 0x1D1C JUMP JUMPDEST SWAP2 POP PUSH2 0x31AB DUP4 PUSH2 0x1D1C JUMP JUMPDEST SWAP3 POP DUP3 DUP3 LT ISZERO PUSH2 0x31BE JUMPI PUSH2 0x31BD PUSH2 0x2EFD JUMP JUMPDEST JUMPDEST DUP3 DUP3 SUB SWAP1 POP SWAP3 SWAP2 POP POP JUMP JUMPDEST PUSH32 0x4E487B7100000000000000000000000000000000000000000000000000000000 PUSH1 0x0 MSTORE PUSH1 0x31 PUSH1 0x4 MSTORE PUSH1 0x24 PUSH1 0x0 REVERT INVALID LOG2 PUSH5 0x6970667358 0x22 SLT KECCAK256 0xF9 INVALID 0x25 SWAP2 XOR DUP7 0xD6 0xB7 0x4A 0xBB 0x4E CREATE2 0xB1 SAR 0xE4 DUP6 EXTCODEHASH 0x24 0x4E RETURN PUSH3 0xA16FEF CALLCODE CALLDATASIZE SWAP3 BALANCE 0xDD 0xE4 0xFB PUSH18 0x64736F6C634300080C003300000000000000 "
		},
		"gasEstimates": {
			"creation": {
				"codeDepositCost": "2569200",
				"executionCost": "infinite",
				"totalCost": "infinite"
			},
			"external": {
				"add(uint256,(string,string,string,string,string,string,string,uint256))": "infinite",
				"challenges(uint256)": "infinite",
				"get(uint256)": "infinite",
				"getChallenge(uint256)": "infinite",
				"getContestChallengeIds(uint256)": "infinite",
				"getCount()": "2587",
				"nextId()": "2474",
				"removes(uint256,uint256[])": "infinite",
				"update(uint256,uint256,(string,string,string,string,string,string,string,uint256))": "infinite"
			},
			"internal": {
				"_remove(uint256,uint256)": "infinite"
			}
		},
		"methodIdentifiers": {
			"add(uint256,(string,string,string,string,string,string,string,uint256))": "f34cce88",
			"challenges(uint256)": "8f1d3776",
			"get(uint256)": "9507d39a",
			"getChallenge(uint256)": "1bdd4b74",
			"getContestChallengeIds(uint256)": "270a4952",
			"getCount()": "a87d942c",
			"nextId()": "61b8ce8c",
			"removes(uint256,uint256[])": "bddfa122",
			"update(uint256,uint256,(string,string,string,string,string,string,string,uint256))": "7b1b175a"
		}
	},
	"abi": [
		{
			"inputs": [
				{
					"internalType": "address",
					"name": "_Contests",
					"type": "address"
				}
			],
			"stateMutability": "nonpayable",
			"type": "constructor"
		},
		{
			"inputs": [
				{
					"internalType": "uint256",
					"name": "contestId",
					"type": "uint256"
				},
				{
					"components": [
						{
							"internalType": "string",
							"name": "challengeType",
							"type": "string"
						},
						{
							"internalType": "string",
							"name": "name",
							"type": "string"
						},
						{
							"internalType": "string",
							"name": "category",
							"type": "string"
						},
						{
							"internalType": "string",
							"name": "message",
							"type": "string"
						},
						{
							"internalType": "string",
							"name": "connectionInfo",
							"type": "string"
						},
						{
							"internalType": "string",
							"name": "file",
							"type": "string"
						},
						{
							"internalType": "string",
							"name": "hint",
							"type": "string"
						},
						{
							"internalType": "uint256",
							"name": "value",
							"type": "uint256"
						}
					],
					"internalType": "struct IChallenges.IChallenge",
					"name": "challenge",
					"type": "tuple"
				}
			],
			"name": "add",
			"outputs": [],
			"stateMutability": "nonpayable",
			"type": "function"
		},
		{
			"inputs": [
				{
					"internalType": "uint256",
					"name": "",
					"type": "uint256"
				}
			],
			"name": "challenges",
			"outputs": [
				{
					"internalType": "uint256",
					"name": "id",
					"type": "uint256"
				},
				{
					"internalType": "uint256",
					"name": "contestId",
					"type": "uint256"
				},
				{
					"components": [
						{
							"internalType": "string",
							"name": "challengeType",
							"type": "string"
						},
						{
							"internalType": "string",
							"name": "name",
							"type": "string"
						},
						{
							"internalType": "string",
							"name": "category",
							"type": "string"
						},
						{
							"internalType": "string",
							"name": "message",
							"type": "string"
						},
						{
							"internalType": "string",
							"name": "connectionInfo",
							"type": "string"
						},
						{
							"internalType": "string",
							"name": "file",
							"type": "string"
						},
						{
							"internalType": "string",
							"name": "hint",
							"type": "string"
						},
						{
							"internalType": "uint256",
							"name": "value",
							"type": "uint256"
						}
					],
					"internalType": "struct IChallenges.IChallenge",
					"name": "info",
					"type": "tuple"
				},
				{
					"internalType": "uint256",
					"name": "timeStamp",
					"type": "uint256"
				}
			],
			"stateMutability": "view",
			"type": "function"
		},
		{
			"inputs": [
				{
					"internalType": "uint256",
					"name": "index",
					"type": "uint256"
				}
			],
			"name": "get",
			"outputs": [
				{
					"components": [
						{
							"internalType": "uint256",
							"name": "id",
							"type": "uint256"
						},
						{
							"internalType": "uint256",
							"name": "contestId",
							"type": "uint256"
						},
						{
							"components": [
								{
									"internalType": "string",
									"name": "challengeType",
									"type": "string"
								},
								{
									"internalType": "string",
									"name": "name",
									"type": "string"
								},
								{
									"internalType": "string",
									"name": "category",
									"type": "string"
								},
								{
									"internalType": "string",
									"name": "message",
									"type": "string"
								},
								{
									"internalType": "string",
									"name": "connectionInfo",
									"type": "string"
								},
								{
									"internalType": "string",
									"name": "file",
									"type": "string"
								},
								{
									"internalType": "string",
									"name": "hint",
									"type": "string"
								},
								{
									"internalType": "uint256",
									"name": "value",
									"type": "uint256"
								}
							],
							"internalType": "struct IChallenges.IChallenge",
							"name": "info",
							"type": "tuple"
						},
						{
							"internalType": "uint256",
							"name": "timeStamp",
							"type": "uint256"
						}
					],
					"internalType": "struct IChallenges.Challenge",
					"name": "",
					"type": "tuple"
				}
			],
			"stateMutability": "view",
			"type": "function"
		},
		{
			"inputs": [
				{
					"internalType": "uint256",
					"name": "id",
					"type": "uint256"
				}
			],
			"name": "getChallenge",
			"outputs": [
				{
					"components": [
						{
							"internalType": "uint256",
							"name": "id",
							"type": "uint256"
						},
						{
							"internalType": "uint256",
							"name": "contestId",
							"type": "uint256"
						},
						{
							"components": [
								{
									"internalType": "string",
									"name": "challengeType",
									"type": "string"
								},
								{
									"internalType": "string",
									"name": "name",
									"type": "string"
								},
								{
									"internalType": "string",
									"name": "category",
									"type": "string"
								},
								{
									"internalType": "string",
									"name": "message",
									"type": "string"
								},
								{
									"internalType": "string",
									"name": "connectionInfo",
									"type": "string"
								},
								{
									"internalType": "string",
									"name": "file",
									"type": "string"
								},
								{
									"internalType": "string",
									"name": "hint",
									"type": "string"
								},
								{
									"internalType": "uint256",
									"name": "value",
									"type": "uint256"
								}
							],
							"internalType": "struct IChallenges.IChallenge",
							"name": "info",
							"type": "tuple"
						},
						{
							"internalType": "uint256",
							"name": "timeStamp",
							"type": "uint256"
						}
					],
					"internalType": "struct IChallenges.Challenge",
					"name": "",
					"type": "tuple"
				}
			],
			"stateMutability": "view",
			"type": "function"
		},
		{
			"inputs": [
				{
					"internalType": "uint256",
					"name": "contestId",
					"type": "uint256"
				}
			],
			"name": "getContestChallengeIds",
			"outputs": [
				{
					"internalType": "uint256[]",
					"name": "",
					"type": "uint256[]"
				}
			],
			"stateMutability": "view",
			"type": "function"
		},
		{
			"inputs": [],
			"name": "getCount",
			"outputs": [
				{
					"internalType": "uint256",
					"name": "",
					"type": "uint256"
				}
			],
			"stateMutability": "view",
			"type": "function"
		},
		{
			"inputs": [],
			"name": "nextId",
			"outputs": [
				{
					"internalType": "uint256",
					"name": "",
					"type": "uint256"
				}
			],
			"stateMutability": "view",
			"type": "function"
		},
		{
			"inputs": [
				{
					"internalType": "uint256",
					"name": "contestId",
					"type": "uint256"
				},
				{
					"internalType": "uint256[]",
					"name": "_ids",
					"type": "uint256[]"
				}
			],
			"name": "removes",
			"outputs": [],
			"stateMutability": "nonpayable",
			"type": "function"
		},
		{
			"inputs": [
				{
					"internalType": "uint256",
					"name": "contestId",
					"type": "uint256"
				},
				{
					"internalType": "uint256",
					"name": "id",
					"type": "uint256"
				},
				{
					"components": [
						{
							"internalType": "string",
							"name": "challengeType",
							"type": "string"
						},
						{
							"internalType": "string",
							"name": "name",
							"type": "string"
						},
						{
							"internalType": "string",
							"name": "category",
							"type": "string"
						},
						{
							"internalType": "string",
							"name": "message",
							"type": "string"
						},
						{
							"internalType": "string",
							"name": "connectionInfo",
							"type": "string"
						},
						{
							"internalType": "string",
							"name": "file",
							"type": "string"
						},
						{
							"internalType": "string",
							"name": "hint",
							"type": "string"
						},
						{
							"internalType": "uint256",
							"name": "value",
							"type": "uint256"
						}
					],
					"internalType": "struct IChallenges.IChallenge",
					"name": "challenge",
					"type": "tuple"
				}
			],
			"name": "update",
			"outputs": [],
			"stateMutability": "nonpayable",
			"type": "function"
		}
	]
}