{
	"data": {
		"bytecode": {
			"linkReferences": {},
			"object": "608060405260016006553480156200001657600080fd5b506040516200342e3803806200342e83398181016040528101906200003c919062000171565b826000806101000a81548173ffffffffffffffffffffffffffffffffffffffff021916908373ffffffffffffffffffffffffffffffffffffffff16021790555080600260006101000a81548173ffffffffffffffffffffffffffffffffffffffff021916908373ffffffffffffffffffffffffffffffffffffffff16021790555081600160006101000a81548173ffffffffffffffffffffffffffffffffffffffff021916908373ffffffffffffffffffffffffffffffffffffffff160217905550505050620001cd565b600080fd5b600073ffffffffffffffffffffffffffffffffffffffff82169050919050565b600062000139826200010c565b9050919050565b6200014b816200012c565b81146200015757600080fd5b50565b6000815190506200016b8162000140565b92915050565b6000806000606084860312156200018d576200018c62000107565b5b60006200019d868287016200015a565b9350506020620001b0868287016200015a565b9250506040620001c3868287016200015a565b9150509250925092565b61325180620001dd6000396000f3fe608060405234801561001057600080fd5b50600436106100cf5760003560e01c80635aeba8351161008c5780637698baec116100665780637698baec146102225780639507d39a14610258578063a87d942c14610288578063a8f0a382146102a6576100cf565b80635aeba835146101b857806361b8ce8c146101d457806371dbd330146101f2576100cf565b80630abcad0f146100d457806319488c091461010457806330d6345a146101345780633861d430146101645780633c1fc8c81461018057806344d5d1c31461019c575b600080fd5b6100ee60048036038101906100e99190611c6a565b6102d6565b6040516100fb9190611ca6565b60405180910390f35b61011e60048036038101906101199190611c6a565b6102f3565b60405161012b9190611d7f565b60405180910390f35b61014e60048036038101906101499190611c6a565b610317565b60405161015b9190611d7f565b60405180910390f35b61017e60048036038101906101799190612189565b61033b565b005b61019a60048036038101906101959190612258565b610445565b005b6101b660048036038101906101b191906122bf565b610804565b005b6101d260048036038101906101cd919061237a565b61090c565b005b6101dc610c14565b6040516101e99190611ca6565b60405180910390f35b61020c60048036038101906102079190611c6a565b610c1a565b60405161021991906125c7565b60405180910390f35b61023c60048036038101906102379190611c6a565b610d6e565b60405161024f9796959493929190612648565b60405180910390f35b610272600480360381019061026d9190611c6a565b610e6d565b60405161027f91906125c7565b60405180910390f35b610290610fd4565b60405161029d9190611ca6565b60405180910390f35b6102c060048036038101906102bb91906126be565b610fe5565b6040516102cd9190611ca6565b60405180910390f35b600060076000838152602001908152602001600020549050919050565b606061031060096000848152602001908152602001600020611014565b9050919050565b6060610334600a6000848152602001908152602001600020611014565b9050919050565b815183511461037f576040517f08c379a00000000000000000000000000000000000000000000000000000000081526004016103769061275b565b60405180910390fd5b81518151146103c3576040517f08c379a00000000000000000000000000000000000000000000000000000000081526004016103ba9061275b565b60405180910390fd5b60005b835181101561043d5761042a86868684815181106103e7576103e661277b565b5b60200260200101518685815181106104025761040161277b565b5b602002602001015186868151811061041d5761041c61277b565b5b6020026020010151611035565b8080610435906127d9565b9150506103c6565b505050505050565b826000600260009054906101000a900473ffffffffffffffffffffffffffffffffffffffff1673ffffffffffffffffffffffffffffffffffffffff16628e0f1b836040518263ffffffff1660e01b81526004016104a29190611ca6565b600060405180830381865afa1580156104bf573d6000803e3d6000fd5b505050506040513d6000823e3d601f19601f820116820180604052508101906104e89190612b8d565b905060003373ffffffffffffffffffffffffffffffffffffffff1682604001516020015173ffffffffffffffffffffffffffffffffffffffff16141561052d57600190505b60005b826040015160400151518110156105af573373ffffffffffffffffffffffffffffffffffffffff1683604001516040015182815181106105735761057261277b565b5b602002602001015173ffffffffffffffffffffffffffffffffffffffff16141561059c57600191505b80806105a7906127d9565b915050610530565b50806105f0576040517f08c379a00000000000000000000000000000000000000000000000000000000081526004016105e790612c22565b60405180910390fd5b86600260008054906101000a900473ffffffffffffffffffffffffffffffffffffffff1673ffffffffffffffffffffffffffffffffffffffff1663434e540b83836040518363ffffffff1660e01b815260040161064e929190612c8a565b6020604051808303816000875af115801561066d573d6000803e3d6000fd5b505050506040513d601f19601f820116820180604052508101906106919190612ceb565b6106d0576040517f08c379a00000000000000000000000000000000000000000000000000000000081526004016106c790612d64565b60405180910390fd5b60006008600089815260200190815260200160002060008a815260200190815260200160002054905061071e81600a60008d81526020019081526020016000206112fb90919063ffffffff16565b5060056000828152602001908152602001600020600080820160009055600182016000905560028201600090556003820160009055600482016000808201600090556001820160006107709190611ac1565b600282016000905550506007820160006101000a81549060ff02191690556008820160009055505060006107a68b8a8c8b611315565b905080600860008b815260200190815260200160002060008c8152602001908152602001600020819055506107f681600a60008e815260200190815260200160002061147d90919063ffffffff16565b505050505050505050505050565b8151835114610848576040517f08c379a000000000000000000000000000000000000000000000000000000000815260040161083f9061275b565b60405180910390fd5b815181511461088c576040517f08c379a00000000000000000000000000000000000000000000000000000000081526004016108839061275b565b60405180910390fd5b60005b8351811015610905576108f2858583815181106108af576108ae61277b565b5b60200260200101518584815181106108ca576108c961277b565b5b60200260200101518585815181106108e5576108e461277b565b5b6020026020010151611497565b80806108fd906127d9565b91505061088f565b5050505050565b8260008060009054906101000a900473ffffffffffffffffffffffffffffffffffffffff1673ffffffffffffffffffffffffffffffffffffffff1663904b9f72836040518263ffffffff1660e01b81526004016109699190611ca6565b600060405180830381865afa158015610986573d6000803e3d6000fd5b505050506040513d6000823e3d601f19601f820116820180604052508101906109af9190612f45565b90503373ffffffffffffffffffffffffffffffffffffffff16816040015173ffffffffffffffffffffffffffffffffffffffff1614610a23576040517f08c379a0000000000000000000000000000000000000000000000000000000008152600401610a1a90612fda565b60405180910390fd5b84600260008054906101000a900473ffffffffffffffffffffffffffffffffffffffff1673ffffffffffffffffffffffffffffffffffffffff1663434e540b83836040518363ffffffff1660e01b8152600401610a81929190612c8a565b6020604051808303816000875af1158015610aa0573d6000803e3d6000fd5b505050506040513d601f19601f82011682018060405250810190610ac49190612ceb565b610b03576040517f08c379a0000000000000000000000000000000000000000000000000000000008152600401610afa90612d64565b60405180910390fd5b600060076000888152602001908152602001600020549050610b4081600960008b81526020019081526020016000206112fb90919063ffffffff16565b506005600082815260200190815260200160002060008082016000905560018201600090556002820160009055600382016000905560048201600080820160009055600182016000610b929190611ac1565b600282016000905550506007820160006101000a81549060ff0219169055600882016000905550506000610bc9898960008a611315565b905080600760008a815260200190815260200160002081905550610c0881600960008c815260200190815260200160002061147d90919063ffffffff16565b50505050505050505050565b60065481565b610c22611b01565b600560008381526020019081526020016000206040518060e0016040529081600082015481526020016001820154815260200160028201548152602001600382015481526020016004820160405180606001604052908160008201548152602001600182018054610c9290613029565b80601f0160208091040260200160405190810160405280929190818152602001828054610cbe90613029565b8015610d0b5780601f10610ce057610100808354040283529160200191610d0b565b820191906000526020600020905b815481529060010190602001808311610cee57829003601f168201915b5050505050815260200160028201548152505081526020016007820160009054906101000a900460ff166002811115610d4757610d466124b4565b5b6002811115610d5957610d586124b4565b5b81526020016008820154815250509050919050565b60056020528060005260406000206000915090508060000154908060010154908060020154908060030154908060040160405180606001604052908160008201548152602001600182018054610dc390613029565b80601f0160208091040260200160405190810160405280929190818152602001828054610def90613029565b8015610e3c5780601f10610e1157610100808354040283529160200191610e3c565b820191906000526020600020905b815481529060010190602001808311610e1f57829003601f168201915b50505050508152602001600282015481525050908060070160009054906101000a900460ff16908060080154905087565b610e75611b01565b60056000610e8d8460036116b690919063ffffffff16565b81526020019081526020016000206040518060e0016040529081600082015481526020016001820154815260200160028201548152602001600382015481526020016004820160405180606001604052908160008201548152602001600182018054610ef890613029565b80601f0160208091040260200160405190810160405280929190818152602001828054610f2490613029565b8015610f715780601f10610f4657610100808354040283529160200191610f71565b820191906000526020600020905b815481529060010190602001808311610f5457829003601f168201915b5050505050815260200160028201548152505081526020016007820160009054906101000a900460ff166002811115610fad57610fac6124b4565b5b6002811115610fbf57610fbe6124b4565b5b81526020016008820154815250509050919050565b6000610fe060036116d0565b905090565b600060086000848152602001908152602001600020600083815260200190815260200160002054905092915050565b60606000611024836000016116e5565b905060608190508092505050919050565b836000600260009054906101000a900473ffffffffffffffffffffffffffffffffffffffff1673ffffffffffffffffffffffffffffffffffffffff16628e0f1b836040518263ffffffff1660e01b81526004016110929190611ca6565b600060405180830381865afa1580156110af573d6000803e3d6000fd5b505050506040513d6000823e3d601f19601f820116820180604052508101906110d89190612b8d565b905060003373ffffffffffffffffffffffffffffffffffffffff1682604001516020015173ffffffffffffffffffffffffffffffffffffffff16141561111d57600190505b60005b8260400151604001515181101561119f573373ffffffffffffffffffffffffffffffffffffffff1683604001516040015182815181106111635761116261277b565b5b602002602001015173ffffffffffffffffffffffffffffffffffffffff16141561118c57600191505b8080611197906127d9565b915050611120565b50806111e0576040517f08c379a00000000000000000000000000000000000000000000000000000000081526004016111d790612c22565b60405180910390fd5b87600360008054906101000a900473ffffffffffffffffffffffffffffffffffffffff1673ffffffffffffffffffffffffffffffffffffffff1663434e540b83836040518363ffffffff1660e01b815260040161123e929190612c8a565b6020604051808303816000875af115801561125d573d6000803e3d6000fd5b505050506040513d601f19601f820116820180604052508101906112819190612ceb565b6112c0576040517f08c379a00000000000000000000000000000000000000000000000000000000081526004016112b790612d64565b60405180910390fd5b6112ef600860008a815260200190815260200160002060008b8152602001908152602001600020548888611741565b50505050505050505050565b600061130d836000018360001b6118de565b905092915050565b600080600654905061133181600361147d90919063ffffffff16565b506040518060e001604052808281526020018781526020018681526020018581526020016040518060600160405280868152602001604051806020016040528060008152508152602001600080191681525081526020016001600281111561139c5761139b6124b4565b5b815260200142815250600560008381526020019081526020016000206000820151816000015560208201518160010155604082015181600201556060820151816003015560808201518160040160008201518160000155602082015181600101908051906020019061140f929190611b56565b5060408201518160020155505060a08201518160070160006101000a81548160ff02191690836002811115611447576114466124b4565b5b021790555060c082015181600801559050506006600081548092919061146c906127d9565b919050555080915050949350505050565b600061148f836000018360001b6119f2565b905092915050565b8360008060009054906101000a900473ffffffffffffffffffffffffffffffffffffffff1673ffffffffffffffffffffffffffffffffffffffff1663904b9f72836040518263ffffffff1660e01b81526004016114f49190611ca6565b600060405180830381865afa158015611511573d6000803e3d6000fd5b505050506040513d6000823e3d601f19601f8201168201806040525081019061153a9190612f45565b90503373ffffffffffffffffffffffffffffffffffffffff16816040015173ffffffffffffffffffffffffffffffffffffffff16146115ae576040517f08c379a00000000000000000000000000000000000000000000000000000000081526004016115a590612fda565b60405180910390fd5b85600360008054906101000a900473ffffffffffffffffffffffffffffffffffffffff1673ffffffffffffffffffffffffffffffffffffffff1663434e540b83836040518363ffffffff1660e01b815260040161160c929190612c8a565b6020604051808303816000875af115801561162b573d6000803e3d6000fd5b505050506040513d601f19601f8201168201806040525081019061164f9190612ceb565b61168e576040517f08c379a000000000000000000000000000000000000000000000000000000000815260040161168590612d64565b60405180910390fd5b6116ac60076000898152602001908152602001600020548787611741565b5050505050505050565b60006116c58360000183611a62565b60001c905092915050565b60006116de82600001611a8d565b9050919050565b60608160000180548060200260200160405190810160405280929190818152602001828054801561173557602002820191906000526020600020905b815481526020019060010190808311611721575b50505050509050919050565b60016002811115611755576117546124b4565b5b6005600085815260200190815260200160002060070160009054906101000a900460ff16600281111561178b5761178a6124b4565b5b146117cb576040517f08c379a00000000000000000000000000000000000000000000000000000000081526004016117c2906130a7565b60405180910390fd5b81816040516020016117de929190613124565b6040516020818303038152906040528051906020012060056000858152602001908152602001600020600401600001541461184e576040517f08c379a000000000000000000000000000000000000000000000000000000000815260040161184590613198565b60405180910390fd5b8160056000858152602001908152602001600020600401600101908051906020019061187b929190611b56565b5080600560008581526020019081526020016000206004016002018190555060026005600085815260200190815260200160002060070160006101000a81548160ff021916908360028111156118d4576118d36124b4565b5b0217905550505050565b600080836001016000848152602001908152602001600020549050600081146119e657600060018261191091906131b8565b905060006001866000018054905061192891906131b8565b90508181146119975760008660000182815481106119495761194861277b565b5b906000526020600020015490508087600001848154811061196d5761196c61277b565b5b90600052602060002001819055508387600101600083815260200190815260200160002081905550505b856000018054806119ab576119aa6131ec565b5b6001900381819060005260206000200160009055905585600101600086815260200190815260200160002060009055600193505050506119ec565b60009150505b92915050565b60006119fe8383611a9e565b611a57578260000182908060018154018082558091505060019003906000526020600020016000909190919091505582600001805490508360010160008481526020019081526020016000208190555060019050611a5c565b600090505b92915050565b6000826000018281548110611a7a57611a7961277b565b5b9060005260206000200154905092915050565b600081600001805490509050919050565b600080836001016000848152602001908152602001600020541415905092915050565b508054611acd90613029565b6000825580601f10611adf5750611afe565b601f016020900490600052602060002090810190611afd9190611bdc565b5b50565b6040518060e0016040528060008152602001600081526020016000815260200160008152602001611b30611bf9565b815260200160006002811115611b4957611b486124b4565b5b8152602001600081525090565b828054611b6290613029565b90600052602060002090601f016020900481019282611b845760008555611bcb565b82601f10611b9d57805160ff1916838001178555611bcb565b82800160010185558215611bcb579182015b82811115611bca578251825591602001919060010190611baf565b5b509050611bd89190611bdc565b5090565b5b80821115611bf5576000816000905550600101611bdd565b5090565b60405180606001604052806000801916815260200160608152602001600080191681525090565b6000604051905090565b600080fd5b600080fd5b6000819050919050565b611c4781611c34565b8114611c5257600080fd5b50565b600081359050611c6481611c3e565b92915050565b600060208284031215611c8057611c7f611c2a565b5b6000611c8e84828501611c55565b91505092915050565b611ca081611c34565b82525050565b6000602082019050611cbb6000830184611c97565b92915050565b600081519050919050565b600082825260208201905092915050565b6000819050602082019050919050565b611cf681611c34565b82525050565b6000611d088383611ced565b60208301905092915050565b6000602082019050919050565b6000611d2c82611cc1565b611d368185611ccc565b9350611d4183611cdd565b8060005b83811015611d72578151611d598882611cfc565b9750611d6483611d14565b925050600181019050611d45565b5085935050505092915050565b60006020820190508181036000830152611d998184611d21565b905092915050565b600080fd5b6000601f19601f8301169050919050565b7f4e487b7100000000000000000000000000000000000000000000000000000000600052604160045260246000fd5b611def82611da6565b810181811067ffffffffffffffff82111715611e0e57611e0d611db7565b5b80604052505050565b6000611e21611c20565b9050611e2d8282611de6565b919050565b600067ffffffffffffffff821115611e4d57611e4c611db7565b5b602082029050602081019050919050565b600080fd5b6000611e76611e7184611e32565b611e17565b90508083825260208201905060208402830185811115611e9957611e98611e5e565b5b835b81811015611ec25780611eae8882611c55565b845260208401935050602081019050611e9b565b5050509392505050565b600082601f830112611ee157611ee0611da1565b5b8135611ef1848260208601611e63565b91505092915050565b600067ffffffffffffffff821115611f1557611f14611db7565b5b602082029050602081019050919050565b600080fd5b600067ffffffffffffffff821115611f4657611f45611db7565b5b611f4f82611da6565b9050602081019050919050565b82818337600083830152505050565b6000611f7e611f7984611f2b565b611e17565b905082815260208101848484011115611f9a57611f99611f26565b5b611fa5848285611f5c565b509392505050565b600082601f830112611fc257611fc1611da1565b5b8135611fd2848260208601611f6b565b91505092915050565b6000611fee611fe984611efa565b611e17565b9050808382526020820190506020840283018581111561201157612010611e5e565b5b835b8181101561205857803567ffffffffffffffff81111561203657612035611da1565b5b8086016120438982611fad565b85526020850194505050602081019050612013565b5050509392505050565b600082601f83011261207757612076611da1565b5b8135612087848260208601611fdb565b91505092915050565b600067ffffffffffffffff8211156120ab576120aa611db7565b5b602082029050602081019050919050565b6000819050919050565b6120cf816120bc565b81146120da57600080fd5b50565b6000813590506120ec816120c6565b92915050565b600061210561210084612090565b611e17565b9050808382526020820190506020840283018581111561212857612127611e5e565b5b835b81811015612151578061213d88826120dd565b84526020840193505060208101905061212a565b5050509392505050565b600082601f8301126121705761216f611da1565b5b81356121808482602086016120f2565b91505092915050565b600080600080600060a086880312156121a5576121a4611c2a565b5b60006121b388828901611c55565b95505060206121c488828901611c55565b945050604086013567ffffffffffffffff8111156121e5576121e4611c2f565b5b6121f188828901611ecc565b935050606086013567ffffffffffffffff81111561221257612211611c2f565b5b61221e88828901612062565b925050608086013567ffffffffffffffff81111561223f5761223e611c2f565b5b61224b8882890161215b565b9150509295509295909350565b6000806000806080858703121561227257612271611c2a565b5b600061228087828801611c55565b945050602061229187828801611c55565b93505060406122a287828801611c55565b92505060606122b3878288016120dd565b91505092959194509250565b600080600080608085870312156122d9576122d8611c2a565b5b60006122e787828801611c55565b945050602085013567ffffffffffffffff81111561230857612307611c2f565b5b61231487828801611ecc565b935050604085013567ffffffffffffffff81111561233557612334611c2f565b5b61234187828801612062565b925050606085013567ffffffffffffffff81111561236257612361611c2f565b5b61236e8782880161215b565b91505092959194509250565b60008060006060848603121561239357612392611c2a565b5b60006123a186828701611c55565b93505060206123b286828701611c55565b92505060406123c3868287016120dd565b9150509250925092565b6123d6816120bc565b82525050565b600081519050919050565b600082825260208201905092915050565b60005b838110156124165780820151818401526020810190506123fb565b83811115612425576000848401525b50505050565b6000612436826123dc565b61244081856123e7565b93506124508185602086016123f8565b61245981611da6565b840191505092915050565b600060608301600083015161247c60008601826123cd565b5060208301518482036020860152612494828261242b565b91505060408301516124a960408601826123cd565b508091505092915050565b7f4e487b7100000000000000000000000000000000000000000000000000000000600052602160045260246000fd5b600381106124f4576124f36124b4565b5b50565b6000819050612505826124e3565b919050565b6000612515826124f7565b9050919050565b6125258161250a565b82525050565b600060e0830160008301516125436000860182611ced565b5060208301516125566020860182611ced565b5060408301516125696040860182611ced565b50606083015161257c6060860182611ced565b50608083015184820360808601526125948282612464565b91505060a08301516125a960a086018261251c565b5060c08301516125bc60c0860182611ced565b508091505092915050565b600060208201905081810360008301526125e1818461252b565b905092915050565b600060608301600083015161260160008601826123cd565b5060208301518482036020860152612619828261242b565b915050604083015161262e60408601826123cd565b508091505092915050565b6126428161250a565b82525050565b600060e08201905061265d600083018a611c97565b61266a6020830189611c97565b6126776040830188611c97565b6126846060830187611c97565b818103608083015261269681866125e9565b90506126a560a0830185612639565b6126b260c0830184611c97565b98975050505050505050565b600080604083850312156126d5576126d4611c2a565b5b60006126e385828601611c55565b92505060206126f485828601611c55565b9150509250929050565b600082825260208201905092915050565b7f6c656e6774682073686f756c6420626520657175616c00000000000000000000600082015250565b60006127456016836126fe565b91506127508261270f565b602082019050919050565b6000602082019050818103600083015261277481612738565b9050919050565b7f4e487b7100000000000000000000000000000000000000000000000000000000600052603260045260246000fd5b7f4e487b7100000000000000000000000000000000000000000000000000000000600052601160045260246000fd5b60006127e482611c34565b91507fffffffffffffffffffffffffffffffffffffffffffffffffffffffffffffffff821415612817576128166127aa565b5b600182019050919050565b600080fd5b600080fd5b60008151905061283b81611c3e565b92915050565b600061285461284f84611f2b565b611e17565b9050828152602081018484840111156128705761286f611f26565b5b61287b8482856123f8565b509392505050565b600082601f83011261289857612897611da1565b5b81516128a8848260208601612841565b91505092915050565b600073ffffffffffffffffffffffffffffffffffffffff82169050919050565b60006128dc826128b1565b9050919050565b6128ec816128d1565b81146128f757600080fd5b50565b600081519050612909816128e3565b92915050565b600067ffffffffffffffff82111561292a57612929611db7565b5b602082029050602081019050919050565b6000612946826128b1565b9050919050565b6129568161293b565b811461296157600080fd5b50565b6000815190506129738161294d565b92915050565b600061298c6129878461290f565b611e17565b905080838252602082019050602084028301858111156129af576129ae611e5e565b5b835b818110156129d857806129c48882612964565b8452602084019350506020810190506129b1565b5050509392505050565b600082601f8301126129f7576129f6611da1565b5b8151612a07848260208601612979565b91505092915050565b600060608284031215612a2657612a25612822565b5b612a306060611e17565b9050600082015167ffffffffffffffff811115612a5057612a4f612827565b5b612a5c84828501612883565b6000830152506020612a70848285016128fa565b602083015250604082015167ffffffffffffffff811115612a9457612a93612827565b5b612aa0848285016129e2565b60408301525092915050565b60048110612ab957600080fd5b50565b600081519050612acb81612aac565b92915050565b600060c08284031215612ae757612ae6612822565b5b612af160c0611e17565b90506000612b018482850161282c565b6000830152506020612b158482850161282c565b602083015250604082015167ffffffffffffffff811115612b3957612b38612827565b5b612b4584828501612a10565b6040830152506060612b5984828501612abc565b6060830152506080612b6d8482850161282c565b60808301525060a0612b818482850161282c565b60a08301525092915050565b600060208284031215612ba357612ba2611c2a565b5b600082015167ffffffffffffffff811115612bc157612bc0611c2f565b5b612bcd84828501612ad1565b91505092915050565b7f6f6e6c79207465616d206361707461696e206f72206d656d6265720000000000600082015250565b6000612c0c601b836126fe565b9150612c1782612bd6565b602082019050919050565b60006020820190508181036000830152612c3b81612bff565b9050919050565b60048110612c5357612c526124b4565b5b50565b6000819050612c6482612c42565b919050565b6000612c7482612c56565b9050919050565b612c8481612c69565b82525050565b6000604082019050612c9f6000830185611c97565b612cac6020830184612c7b565b9392505050565b60008115159050919050565b612cc881612cb3565b8114612cd357600080fd5b50565b600081519050612ce581612cbf565b92915050565b600060208284031215612d0157612d00611c2a565b5b6000612d0f84828501612cd6565b91505092915050565b7f77726f6e6720636f6e7465737420737461746500000000000000000000000000600082015250565b6000612d4e6013836126fe565b9150612d5982612d18565b602082019050919050565b60006020820190508181036000830152612d7d81612d41565b9050919050565b600060c08284031215612d9a57612d99612822565b5b612da460c0611e17565b9050600082015167ffffffffffffffff811115612dc457612dc3612827565b5b612dd084828501612883565b600083015250602082015167ffffffffffffffff811115612df457612df3612827565b5b612e0084828501612883565b6020830152506040612e148482850161282c565b6040830152506060612e288482850161282c565b6060830152506080612e3c8482850161282c565b60808301525060a082015167ffffffffffffffff811115612e6057612e5f612827565b5b612e6c84828501612883565b60a08301525092915050565b60048110612e8557600080fd5b50565b600081519050612e9781612e78565b92915050565b600060a08284031215612eb357612eb2612822565b5b612ebd60a0611e17565b90506000612ecd8482850161282c565b600083015250602082015167ffffffffffffffff811115612ef157612ef0612827565b5b612efd84828501612d84565b6020830152506040612f1184828501612964565b6040830152506060612f2584828501612e88565b6060830152506080612f398482850161282c565b60808301525092915050565b600060208284031215612f5b57612f5a611c2a565b5b600082015167ffffffffffffffff811115612f7957612f78611c2f565b5b612f8584828501612e9d565b91505092915050565b7f6f6e6c7920636f6e74657374206f776e65720000000000000000000000000000600082015250565b6000612fc46012836126fe565b9150612fcf82612f8e565b602082019050919050565b60006020820190508181036000830152612ff381612fb7565b9050919050565b7f4e487b7100000000000000000000000000000000000000000000000000000000600052602260045260246000fd5b6000600282049050600182168061304157607f821691505b6020821081141561305557613054612ffa565b5b50919050565b7f616c72656164792072657665616c656400000000000000000000000000000000600082015250565b60006130916010836126fe565b915061309c8261305b565b602082019050919050565b600060208201905081810360008301526130c081613084565b9050919050565b600081905092915050565b60006130dd826123dc565b6130e781856130c7565b93506130f78185602086016123f8565b80840191505092915050565b6000819050919050565b61311e613119826120bc565b613103565b82525050565b600061313082856130d2565b915061313c828461310d565b6020820191508190509392505050565b7f646f6573206e6f74206d6174636820636f6d6d69746d656e7400000000000000600082015250565b60006131826019836126fe565b915061318d8261314c565b602082019050919050565b600060208201905081810360008301526131b181613175565b9050919050565b60006131c382611c34565b91506131ce83611c34565b9250828210156131e1576131e06127aa565b5b828203905092915050565b7f4e487b7100000000000000000000000000000000000000000000000000000000600052603160045260246000fdfea264697066735822122027df77227da74295b269603f9750aea5a4f2fc0d23f80d39b70f17c59c57610b64736f6c634300080c0033",
			"opcodes": "PUSH1 0x80 PUSH1 0x40 MSTORE PUSH1 0x1 PUSH1 0x6 SSTORE CALLVALUE DUP1 ISZERO PUSH3 0x16 JUMPI PUSH1 0x0 DUP1 REVERT JUMPDEST POP PUSH1 0x40 MLOAD PUSH3 0x342E CODESIZE SUB DUP1 PUSH3 0x342E DUP4 CODECOPY DUP2 DUP2 ADD PUSH1 0x40 MSTORE DUP2 ADD SWAP1 PUSH3 0x3C SWAP2 SWAP1 PUSH3 0x171 JUMP JUMPDEST DUP3 PUSH1 0x0 DUP1 PUSH2 0x100 EXP DUP2 SLOAD DUP2 PUSH20 0xFFFFFFFFFFFFFFFFFFFFFFFFFFFFFFFFFFFFFFFF MUL NOT AND SWAP1 DUP4 PUSH20 0xFFFFFFFFFFFFFFFFFFFFFFFFFFFFFFFFFFFFFFFF AND MUL OR SWAP1 SSTORE POP DUP1 PUSH1 0x2 PUSH1 0x0 PUSH2 0x100 EXP DUP2 SLOAD DUP2 PUSH20 0xFFFFFFFFFFFFFFFFFFFFFFFFFFFFFFFFFFFFFFFF MUL NOT AND SWAP1 DUP4 PUSH20 0xFFFFFFFFFFFFFFFFFFFFFFFFFFFFFFFFFFFFFFFF AND MUL OR SWAP1 SSTORE POP DUP2 PUSH1 0x1 PUSH1 0x0 PUSH2 0x100 EXP DUP2 SLOAD DUP2 PUSH20 0xFFFFFFFFFFFFFFFFFFFFFFFFFFFFFFFFFFFFFFFF MUL NOT AND SWAP1 DUP4 PUSH20 0xFFFFFFFFFFFFFFFFFFFFFFFFFFFFFFFFFFFFFFFF AND MUL OR SWAP1 SSTORE POP POP POP POP PUSH3 0x1CD JUMP JUMPDEST PUSH1 0x0 DUP1 REVERT JUMPDEST PUSH1 0x0 PUSH20 0xFFFFFFFFFFFFFFFFFFFFFFFFFFFFFFFFFFFFFFFF DUP3 AND SWAP1 POP SWAP2 SWAP1 POP JUMP JUMPDEST PUSH1 0x0 PUSH3 0x139 DUP3 PUSH3 0x10C JUMP JUMPDEST SWAP1 POP SWAP2 SWAP1 POP JUMP JUMPDEST PUSH3 0x14B DUP2 PUSH3 0x12C JUMP JUMPDEST DUP2 EQ PUSH3 0x157 JUMPI PUSH1 0x0 DUP1 REVERT JUMPDEST POP JUMP JUMPDEST PUSH1 0x0 DUP2 MLOAD SWAP1 POP PUSH3 0x16B DUP2 PUSH3 0x140 JUMP JUMPDEST SWAP3 SWAP2 POP POP JUMP JUMPDEST PUSH1 0x0 DUP1 PUSH1 0x0 PUSH1 0x60 DUP5 DUP7 SUB SLT ISZERO PUSH3 0x18D JUMPI PUSH3 0x18C PUSH3 0x107 JUMP JUMPDEST JUMPDEST PUSH1 0x0 PUSH3 0x19D DUP7 DUP3 DUP8 ADD PUSH3 0x15A JUMP JUMPDEST SWAP4 POP POP PUSH1 0x20 PUSH3 0x1B0 DUP7 DUP3 DUP8 ADD PUSH3 0x15A JUMP JUMPDEST SWAP3 POP POP PUSH1 0x40 PUSH3 0x1C3 DUP7 DUP3 DUP8 ADD PUSH3 0x15A JUMP JUMPDEST SWAP2 POP POP SWAP3 POP SWAP3 POP SWAP3 JUMP JUMPDEST PUSH2 0x3251 DUP1 PUSH3 0x1DD PUSH1 0x0 CODECOPY PUSH1 0x0 RETURN INVALID PUSH1 0x80 PUSH1 0x40 MSTORE CALLVALUE DUP1 ISZERO PUSH2 0x10 JUMPI PUSH1 0x0 DUP1 REVERT JUMPDEST POP PUSH1 0x4 CALLDATASIZE LT PUSH2 0xCF JUMPI PUSH1 0x0 CALLDATALOAD PUSH1 0xE0 SHR DUP1 PUSH4 0x5AEBA835 GT PUSH2 0x8C JUMPI DUP1 PUSH4 0x7698BAEC GT PUSH2 0x66 JUMPI DUP1 PUSH4 0x7698BAEC EQ PUSH2 0x222 JUMPI DUP1 PUSH4 0x9507D39A EQ PUSH2 0x258 JUMPI DUP1 PUSH4 0xA87D942C EQ PUSH2 0x288 JUMPI DUP1 PUSH4 0xA8F0A382 EQ PUSH2 0x2A6 JUMPI PUSH2 0xCF JUMP JUMPDEST DUP1 PUSH4 0x5AEBA835 EQ PUSH2 0x1B8 JUMPI DUP1 PUSH4 0x61B8CE8C EQ PUSH2 0x1D4 JUMPI DUP1 PUSH4 0x71DBD330 EQ PUSH2 0x1F2 JUMPI PUSH2 0xCF JUMP JUMPDEST DUP1 PUSH4 0xABCAD0F EQ PUSH2 0xD4 JUMPI DUP1 PUSH4 0x19488C09 EQ PUSH2 0x104 JUMPI DUP1 PUSH4 0x30D6345A EQ PUSH2 0x134 JUMPI DUP1 PUSH4 0x3861D430 EQ PUSH2 0x164 JUMPI DUP1 PUSH4 0x3C1FC8C8 EQ PUSH2 0x180 JUMPI DUP1 PUSH4 0x44D5D1C3 EQ PUSH2 0x19C JUMPI JUMPDEST PUSH1 0x0 DUP1 REVERT JUMPDEST PUSH2 0xEE PUSH1 0x4 DUP1 CALLDATASIZE SUB DUP2 ADD SWAP1 PUSH2 0xE9 SWAP2 SWAP1 PUSH2 0x1C6A JUMP JUMPDEST PUSH2 0x2D6 JUMP JUMPDEST PUSH1 0x40 MLOAD PUSH2 0xFB SWAP2 SWAP1 PUSH2 0x1CA6 JUMP JUMPDEST PUSH1 0x40 MLOAD DUP1 SWAP2 SUB SWAP1 RETURN JUMPDEST PUSH2 0x11E PUSH1 0x4 DUP1 CALLDATASIZE SUB DUP2 ADD SWAP1 PUSH2 0x119 SWAP2 SWAP1 PUSH2 0x1C6A JUMP JUMPDEST PUSH2 0x2F3 JUMP JUMPDEST PUSH1 0x40 MLOAD PUSH2 0x12B SWAP2 SWAP1 PUSH2 0x1D7F JUMP JUMPDEST PUSH1 0x40 MLOAD DUP1 SWAP2 SUB SWAP1 RETURN JUMPDEST PUSH2 0x14E PUSH1 0x4 DUP1 CALLDATASIZE SUB DUP2 ADD SWAP1 PUSH2 0x149 SWAP2 SWAP1 PUSH2 0x1C6A JUMP JUMPDEST PUSH2 0x317 JUMP JUMPDEST PUSH1 0x40 MLOAD PUSH2 0x15B SWAP2 SWAP1 PUSH2 0x1D7F JUMP JUMPDEST PUSH1 0x40 MLOAD DUP1 SWAP2 SUB SWAP1 RETURN JUMPDEST PUSH2 0x17E PUSH1 0x4 DUP1 CALLDATASIZE SUB DUP2 ADD SWAP1 PUSH2 0x179 SWAP2 SWAP1 PUSH2 0x2189 JUMP JUMPDEST PUSH2 0x33B JUMP JUMPDEST STOP JUMPDEST PUSH2 0x19A PUSH1 0x4 DUP1 CALLDATASIZE SUB DUP2 ADD SWAP1 PUSH2 0x195 SWAP2 SWAP1 PUSH2 0x2258 JUMP JUMPDEST PUSH2 0x445 JUMP JUMPDEST STOP JUMPDEST PUSH2 0x1B6 PUSH1 0x4 DUP1 CALLDATASIZE SUB DUP2 ADD SWAP1 PUSH2 0x1B1 SWAP2 SWAP1 PUSH2 0x22BF JUMP JUMPDEST PUSH2 0x804 JUMP JUMPDEST STOP JUMPDEST PUSH2 0x1D2 PUSH1 0x4 DUP1 CALLDATASIZE SUB DUP2 ADD SWAP1 PUSH2 0x1CD SWAP2 SWAP1 PUSH2 0x237A JUMP JUMPDEST PUSH2 0x90C JUMP JUMPDEST STOP JUMPDEST PUSH2 0x1DC PUSH2 0xC14 JUMP JUMPDEST PUSH1 0x40 MLOAD PUSH2 0x1E9 SWAP2 SWAP1 PUSH2 0x1CA6 JUMP JUMPDEST PUSH1 0x40 MLOAD DUP1 SWAP2 SUB SWAP1 RETURN JUMPDEST PUSH2 0x20C PUSH1 0x4 DUP1 CALLDATASIZE SUB DUP2 ADD SWAP1 PUSH2 0x207 SWAP2 SWAP1 PUSH2 0x1C6A JUMP JUMPDEST PUSH2 0xC1A JUMP JUMPDEST PUSH1 0x40 MLOAD PUSH2 0x219 SWAP2 SWAP1 PUSH2 0x25C7 JUMP JUMPDEST PUSH1 0x40 MLOAD DUP1 SWAP2 SUB SWAP1 RETURN JUMPDEST PUSH2 0x23C PUSH1 0x4 DUP1 CALLDATASIZE SUB DUP2 ADD SWAP1 PUSH2 0x237 SWAP2 SWAP1 PUSH2 0x1C6A JUMP JUMPDEST PUSH2 0xD6E JUMP JUMPDEST PUSH1 0x40 MLOAD PUSH2 0x24F SWAP8 SWAP7 SWAP6 SWAP5 SWAP4 SWAP3 SWAP2 SWAP1 PUSH2 0x2648 JUMP JUMPDEST PUSH1 0x40 MLOAD DUP1 SWAP2 SUB SWAP1 RETURN JUMPDEST PUSH2 0x272 PUSH1 0x4 DUP1 CALLDATASIZE SUB DUP2 ADD SWAP1 PUSH2 0x26D SWAP2 SWAP1 PUSH2 0x1C6A JUMP JUMPDEST PUSH2 0xE6D JUMP JUMPDEST PUSH1 0x40 MLOAD PUSH2 0x27F SWAP2 SWAP1 PUSH2 0x25C7 JUMP JUMPDEST PUSH1 0x40 MLOAD DUP1 SWAP2 SUB SWAP1 RETURN JUMPDEST PUSH2 0x290 PUSH2 0xFD4 JUMP JUMPDEST PUSH1 0x40 MLOAD PUSH2 0x29D SWAP2 SWAP1 PUSH2 0x1CA6 JUMP JUMPDEST PUSH1 0x40 MLOAD DUP1 SWAP2 SUB SWAP1 RETURN JUMPDEST PUSH2 0x2C0 PUSH1 0x4 DUP1 CALLDATASIZE SUB DUP2 ADD SWAP1 PUSH2 0x2BB SWAP2 SWAP1 PUSH2 0x26BE JUMP JUMPDEST PUSH2 0xFE5 JUMP JUMPDEST PUSH1 0x40 MLOAD PUSH2 0x2CD SWAP2 SWAP1 PUSH2 0x1CA6 JUMP JUMPDEST PUSH1 0x40 MLOAD DUP1 SWAP2 SUB SWAP1 RETURN JUMPDEST PUSH1 0x0 PUSH1 0x7 PUSH1 0x0 DUP4 DUP2 MSTORE PUSH1 0x20 ADD SWAP1 DUP2 MSTORE PUSH1 0x20 ADD PUSH1 0x0 KECCAK256 SLOAD SWAP1 POP SWAP2 SWAP1 POP JUMP JUMPDEST PUSH1 0x60 PUSH2 0x310 PUSH1 0x9 PUSH1 0x0 DUP5 DUP2 MSTORE PUSH1 0x20 ADD SWAP1 DUP2 MSTORE PUSH1 0x20 ADD PUSH1 0x0 KECCAK256 PUSH2 0x1014 JUMP JUMPDEST SWAP1 POP SWAP2 SWAP1 POP JUMP JUMPDEST PUSH1 0x60 PUSH2 0x334 PUSH1 0xA PUSH1 0x0 DUP5 DUP2 MSTORE PUSH1 0x20 ADD SWAP1 DUP2 MSTORE PUSH1 0x20 ADD PUSH1 0x0 KECCAK256 PUSH2 0x1014 JUMP JUMPDEST SWAP1 POP SWAP2 SWAP1 POP JUMP JUMPDEST DUP2 MLOAD DUP4 MLOAD EQ PUSH2 0x37F JUMPI PUSH1 0x40 MLOAD PUSH32 0x8C379A000000000000000000000000000000000000000000000000000000000 DUP2 MSTORE PUSH1 0x4 ADD PUSH2 0x376 SWAP1 PUSH2 0x275B JUMP JUMPDEST PUSH1 0x40 MLOAD DUP1 SWAP2 SUB SWAP1 REVERT JUMPDEST DUP2 MLOAD DUP2 MLOAD EQ PUSH2 0x3C3 JUMPI PUSH1 0x40 MLOAD PUSH32 0x8C379A000000000000000000000000000000000000000000000000000000000 DUP2 MSTORE PUSH1 0x4 ADD PUSH2 0x3BA SWAP1 PUSH2 0x275B JUMP JUMPDEST PUSH1 0x40 MLOAD DUP1 SWAP2 SUB SWAP1 REVERT JUMPDEST PUSH1 0x0 JUMPDEST DUP4 MLOAD DUP2 LT ISZERO PUSH2 0x43D JUMPI PUSH2 0x42A DUP7 DUP7 DUP7 DUP5 DUP2 MLOAD DUP2 LT PUSH2 0x3E7 JUMPI PUSH2 0x3E6 PUSH2 0x277B JUMP JUMPDEST JUMPDEST PUSH1 0x20 MUL PUSH1 0x20 ADD ADD MLOAD DUP7 DUP6 DUP2 MLOAD DUP2 LT PUSH2 0x402 JUMPI PUSH2 0x401 PUSH2 0x277B JUMP JUMPDEST JUMPDEST PUSH1 0x20 MUL PUSH1 0x20 ADD ADD MLOAD DUP7 DUP7 DUP2 MLOAD DUP2 LT PUSH2 0x41D JUMPI PUSH2 0x41C PUSH2 0x277B JUMP JUMPDEST JUMPDEST PUSH1 0x20 MUL PUSH1 0x20 ADD ADD MLOAD PUSH2 0x1035 JUMP JUMPDEST DUP1 DUP1 PUSH2 0x435 SWAP1 PUSH2 0x27D9 JUMP JUMPDEST SWAP2 POP POP PUSH2 0x3C6 JUMP JUMPDEST POP POP POP POP POP POP JUMP JUMPDEST DUP3 PUSH1 0x0 PUSH1 0x2 PUSH1 0x0 SWAP1 SLOAD SWAP1 PUSH2 0x100 EXP SWAP1 DIV PUSH20 0xFFFFFFFFFFFFFFFFFFFFFFFFFFFFFFFFFFFFFFFF AND PUSH20 0xFFFFFFFFFFFFFFFFFFFFFFFFFFFFFFFFFFFFFFFF AND PUSH3 0x8E0F1B DUP4 PUSH1 0x40 MLOAD DUP3 PUSH4 0xFFFFFFFF AND PUSH1 0xE0 SHL DUP2 MSTORE PUSH1 0x4 ADD PUSH2 0x4A2 SWAP2 SWAP1 PUSH2 0x1CA6 JUMP JUMPDEST PUSH1 0x0 PUSH1 0x40 MLOAD DUP1 DUP4 SUB DUP2 DUP7 GAS STATICCALL ISZERO DUP1 ISZERO PUSH2 0x4BF JUMPI RETURNDATASIZE PUSH1 0x0 DUP1 RETURNDATACOPY RETURNDATASIZE PUSH1 0x0 REVERT JUMPDEST POP POP POP POP PUSH1 0x40 MLOAD RETURNDATASIZE PUSH1 0x0 DUP3 RETURNDATACOPY RETURNDATASIZE PUSH1 0x1F NOT PUSH1 0x1F DUP3 ADD AND DUP3 ADD DUP1 PUSH1 0x40 MSTORE POP DUP2 ADD SWAP1 PUSH2 0x4E8 SWAP2 SWAP1 PUSH2 0x2B8D JUMP JUMPDEST SWAP1 POP PUSH1 0x0 CALLER PUSH20 0xFFFFFFFFFFFFFFFFFFFFFFFFFFFFFFFFFFFFFFFF AND DUP3 PUSH1 0x40 ADD MLOAD PUSH1 0x20 ADD MLOAD PUSH20 0xFFFFFFFFFFFFFFFFFFFFFFFFFFFFFFFFFFFFFFFF AND EQ ISZERO PUSH2 0x52D JUMPI PUSH1 0x1 SWAP1 POP JUMPDEST PUSH1 0x0 JUMPDEST DUP3 PUSH1 0x40 ADD MLOAD PUSH1 0x40 ADD MLOAD MLOAD DUP2 LT ISZERO PUSH2 0x5AF JUMPI CALLER PUSH20 0xFFFFFFFFFFFFFFFFFFFFFFFFFFFFFFFFFFFFFFFF AND DUP4 PUSH1 0x40 ADD MLOAD PUSH1 0x40 ADD MLOAD DUP3 DUP2 MLOAD DUP2 LT PUSH2 0x573 JUMPI PUSH2 0x572 PUSH2 0x277B JUMP JUMPDEST JUMPDEST PUSH1 0x20 MUL PUSH1 0x20 ADD ADD MLOAD PUSH20 0xFFFFFFFFFFFFFFFFFFFFFFFFFFFFFFFFFFFFFFFF AND EQ ISZERO PUSH2 0x59C JUMPI PUSH1 0x1 SWAP2 POP JUMPDEST DUP1 DUP1 PUSH2 0x5A7 SWAP1 PUSH2 0x27D9 JUMP JUMPDEST SWAP2 POP POP PUSH2 0x530 JUMP JUMPDEST POP DUP1 PUSH2 0x5F0 JUMPI PUSH1 0x40 MLOAD PUSH32 0x8C379A000000000000000000000000000000000000000000000000000000000 DUP2 MSTORE PUSH1 0x4 ADD PUSH2 0x5E7 SWAP1 PUSH2 0x2C22 JUMP JUMPDEST PUSH1 0x40 MLOAD DUP1 SWAP2 SUB SWAP1 REVERT JUMPDEST DUP7 PUSH1 0x2 PUSH1 0x0 DUP1 SLOAD SWAP1 PUSH2 0x100 EXP SWAP1 DIV PUSH20 0xFFFFFFFFFFFFFFFFFFFFFFFFFFFFFFFFFFFFFFFF AND PUSH20 0xFFFFFFFFFFFFFFFFFFFFFFFFFFFFFFFFFFFFFFFF AND PUSH4 0x434E540B DUP4 DUP4 PUSH1 0x40 MLOAD DUP4 PUSH4 0xFFFFFFFF AND PUSH1 0xE0 SHL DUP2 MSTORE PUSH1 0x4 ADD PUSH2 0x64E SWAP3 SWAP2 SWAP1 PUSH2 0x2C8A JUMP JUMPDEST PUSH1 0x20 PUSH1 0x40 MLOAD DUP1 DUP4 SUB DUP2 PUSH1 0x0 DUP8 GAS CALL ISZERO DUP1 ISZERO PUSH2 0x66D JUMPI RETURNDATASIZE PUSH1 0x0 DUP1 RETURNDATACOPY RETURNDATASIZE PUSH1 0x0 REVERT JUMPDEST POP POP POP POP PUSH1 0x40 MLOAD RETURNDATASIZE PUSH1 0x1F NOT PUSH1 0x1F DUP3 ADD AND DUP3 ADD DUP1 PUSH1 0x40 MSTORE POP DUP2 ADD SWAP1 PUSH2 0x691 SWAP2 SWAP1 PUSH2 0x2CEB JUMP JUMPDEST PUSH2 0x6D0 JUMPI PUSH1 0x40 MLOAD PUSH32 0x8C379A000000000000000000000000000000000000000000000000000000000 DUP2 MSTORE PUSH1 0x4 ADD PUSH2 0x6C7 SWAP1 PUSH2 0x2D64 JUMP JUMPDEST PUSH1 0x40 MLOAD DUP1 SWAP2 SUB SWAP1 REVERT JUMPDEST PUSH1 0x0 PUSH1 0x8 PUSH1 0x0 DUP10 DUP2 MSTORE PUSH1 0x20 ADD SWAP1 DUP2 MSTORE PUSH1 0x20 ADD PUSH1 0x0 KECCAK256 PUSH1 0x0 DUP11 DUP2 MSTORE PUSH1 0x20 ADD SWAP1 DUP2 MSTORE PUSH1 0x20 ADD PUSH1 0x0 KECCAK256 SLOAD SWAP1 POP PUSH2 0x71E DUP2 PUSH1 0xA PUSH1 0x0 DUP14 DUP2 MSTORE PUSH1 0x20 ADD SWAP1 DUP2 MSTORE PUSH1 0x20 ADD PUSH1 0x0 KECCAK256 PUSH2 0x12FB SWAP1 SWAP2 SWAP1 PUSH4 0xFFFFFFFF AND JUMP JUMPDEST POP PUSH1 0x5 PUSH1 0x0 DUP3 DUP2 MSTORE PUSH1 0x20 ADD SWAP1 DUP2 MSTORE PUSH1 0x20 ADD PUSH1 0x0 KECCAK256 PUSH1 0x0 DUP1 DUP3 ADD PUSH1 0x0 SWAP1 SSTORE PUSH1 0x1 DUP3 ADD PUSH1 0x0 SWAP1 SSTORE PUSH1 0x2 DUP3 ADD PUSH1 0x0 SWAP1 SSTORE PUSH1 0x3 DUP3 ADD PUSH1 0x0 SWAP1 SSTORE PUSH1 0x4 DUP3 ADD PUSH1 0x0 DUP1 DUP3 ADD PUSH1 0x0 SWAP1 SSTORE PUSH1 0x1 DUP3 ADD PUSH1 0x0 PUSH2 0x770 SWAP2 SWAP1 PUSH2 0x1AC1 JUMP JUMPDEST PUSH1 0x2 DUP3 ADD PUSH1 0x0 SWAP1 SSTORE POP POP PUSH1 0x7 DUP3 ADD PUSH1 0x0 PUSH2 0x100 EXP DUP2 SLOAD SWAP1 PUSH1 0xFF MUL NOT AND SWAP1 SSTORE PUSH1 0x8 DUP3 ADD PUSH1 0x0 SWAP1 SSTORE POP POP PUSH1 0x0 PUSH2 0x7A6 DUP12 DUP11 DUP13 DUP12 PUSH2 0x1315 JUMP JUMPDEST SWAP1 POP DUP1 PUSH1 0x8 PUSH1 0x0 DUP12 DUP2 MSTORE PUSH1 0x20 ADD SWAP1 DUP2 MSTORE PUSH1 0x20 ADD PUSH1 0x0 KECCAK256 PUSH1 0x0 DUP13 DUP2 MSTORE PUSH1 0x20 ADD SWAP1 DUP2 MSTORE PUSH1 0x20 ADD PUSH1 0x0 KECCAK256 DUP2 SWAP1 SSTORE POP PUSH2 0x7F6 DUP2 PUSH1 0xA PUSH1 0x0 DUP15 DUP2 MSTORE PUSH1 0x20 ADD SWAP1 DUP2 MSTORE PUSH1 0x20 ADD PUSH1 0x0 KECCAK256 PUSH2 0x147D SWAP1 SWAP2 SWAP1 PUSH4 0xFFFFFFFF AND JUMP JUMPDEST POP POP POP POP POP POP POP POP POP POP POP POP JUMP JUMPDEST DUP2 MLOAD DUP4 MLOAD EQ PUSH2 0x848 JUMPI PUSH1 0x40 MLOAD PUSH32 0x8C379A000000000000000000000000000000000000000000000000000000000 DUP2 MSTORE PUSH1 0x4 ADD PUSH2 0x83F SWAP1 PUSH2 0x275B JUMP JUMPDEST PUSH1 0x40 MLOAD DUP1 SWAP2 SUB SWAP1 REVERT JUMPDEST DUP2 MLOAD DUP2 MLOAD EQ PUSH2 0x88C JUMPI PUSH1 0x40 MLOAD PUSH32 0x8C379A000000000000000000000000000000000000000000000000000000000 DUP2 MSTORE PUSH1 0x4 ADD PUSH2 0x883 SWAP1 PUSH2 0x275B JUMP JUMPDEST PUSH1 0x40 MLOAD DUP1 SWAP2 SUB SWAP1 REVERT JUMPDEST PUSH1 0x0 JUMPDEST DUP4 MLOAD DUP2 LT ISZERO PUSH2 0x905 JUMPI PUSH2 0x8F2 DUP6 DUP6 DUP4 DUP2 MLOAD DUP2 LT PUSH2 0x8AF JUMPI PUSH2 0x8AE PUSH2 0x277B JUMP JUMPDEST JUMPDEST PUSH1 0x20 MUL PUSH1 0x20 ADD ADD MLOAD DUP6 DUP5 DUP2 MLOAD DUP2 LT PUSH2 0x8CA JUMPI PUSH2 0x8C9 PUSH2 0x277B JUMP JUMPDEST JUMPDEST PUSH1 0x20 MUL PUSH1 0x20 ADD ADD MLOAD DUP6 DUP6 DUP2 MLOAD DUP2 LT PUSH2 0x8E5 JUMPI PUSH2 0x8E4 PUSH2 0x277B JUMP JUMPDEST JUMPDEST PUSH1 0x20 MUL PUSH1 0x20 ADD ADD MLOAD PUSH2 0x1497 JUMP JUMPDEST DUP1 DUP1 PUSH2 0x8FD SWAP1 PUSH2 0x27D9 JUMP JUMPDEST SWAP2 POP POP PUSH2 0x88F JUMP JUMPDEST POP POP POP POP POP JUMP JUMPDEST DUP3 PUSH1 0x0 DUP1 PUSH1 0x0 SWAP1 SLOAD SWAP1 PUSH2 0x100 EXP SWAP1 DIV PUSH20 0xFFFFFFFFFFFFFFFFFFFFFFFFFFFFFFFFFFFFFFFF AND PUSH20 0xFFFFFFFFFFFFFFFFFFFFFFFFFFFFFFFFFFFFFFFF AND PUSH4 0x904B9F72 DUP4 PUSH1 0x40 MLOAD DUP3 PUSH4 0xFFFFFFFF AND PUSH1 0xE0 SHL DUP2 MSTORE PUSH1 0x4 ADD PUSH2 0x969 SWAP2 SWAP1 PUSH2 0x1CA6 JUMP JUMPDEST PUSH1 0x0 PUSH1 0x40 MLOAD DUP1 DUP4 SUB DUP2 DUP7 GAS STATICCALL ISZERO DUP1 ISZERO PUSH2 0x986 JUMPI RETURNDATASIZE PUSH1 0x0 DUP1 RETURNDATACOPY RETURNDATASIZE PUSH1 0x0 REVERT JUMPDEST POP POP POP POP PUSH1 0x40 MLOAD RETURNDATASIZE PUSH1 0x0 DUP3 RETURNDATACOPY RETURNDATASIZE PUSH1 0x1F NOT PUSH1 0x1F DUP3 ADD AND DUP3 ADD DUP1 PUSH1 0x40 MSTORE POP DUP2 ADD SWAP1 PUSH2 0x9AF SWAP2 SWAP1 PUSH2 0x2F45 JUMP JUMPDEST SWAP1 POP CALLER PUSH20 0xFFFFFFFFFFFFFFFFFFFFFFFFFFFFFFFFFFFFFFFF AND DUP2 PUSH1 0x40 ADD MLOAD PUSH20 0xFFFFFFFFFFFFFFFFFFFFFFFFFFFFFFFFFFFFFFFF AND EQ PUSH2 0xA23 JUMPI PUSH1 0x40 MLOAD PUSH32 0x8C379A000000000000000000000000000000000000000000000000000000000 DUP2 MSTORE PUSH1 0x4 ADD PUSH2 0xA1A SWAP1 PUSH2 0x2FDA JUMP JUMPDEST PUSH1 0x40 MLOAD DUP1 SWAP2 SUB SWAP1 REVERT JUMPDEST DUP5 PUSH1 0x2 PUSH1 0x0 DUP1 SLOAD SWAP1 PUSH2 0x100 EXP SWAP1 DIV PUSH20 0xFFFFFFFFFFFFFFFFFFFFFFFFFFFFFFFFFFFFFFFF AND PUSH20 0xFFFFFFFFFFFFFFFFFFFFFFFFFFFFFFFFFFFFFFFF AND PUSH4 0x434E540B DUP4 DUP4 PUSH1 0x40 MLOAD DUP4 PUSH4 0xFFFFFFFF AND PUSH1 0xE0 SHL DUP2 MSTORE PUSH1 0x4 ADD PUSH2 0xA81 SWAP3 SWAP2 SWAP1 PUSH2 0x2C8A JUMP JUMPDEST PUSH1 0x20 PUSH1 0x40 MLOAD DUP1 DUP4 SUB DUP2 PUSH1 0x0 DUP8 GAS CALL ISZERO DUP1 ISZERO PUSH2 0xAA0 JUMPI RETURNDATASIZE PUSH1 0x0 DUP1 RETURNDATACOPY RETURNDATASIZE PUSH1 0x0 REVERT JUMPDEST POP POP POP POP PUSH1 0x40 MLOAD RETURNDATASIZE PUSH1 0x1F NOT PUSH1 0x1F DUP3 ADD AND DUP3 ADD DUP1 PUSH1 0x40 MSTORE POP DUP2 ADD SWAP1 PUSH2 0xAC4 SWAP2 SWAP1 PUSH2 0x2CEB JUMP JUMPDEST PUSH2 0xB03 JUMPI PUSH1 0x40 MLOAD PUSH32 0x8C379A000000000000000000000000000000000000000000000000000000000 DUP2 MSTORE PUSH1 0x4 ADD PUSH2 0xAFA SWAP1 PUSH2 0x2D64 JUMP JUMPDEST PUSH1 0x40 MLOAD DUP1 SWAP2 SUB SWAP1 REVERT JUMPDEST PUSH1 0x0 PUSH1 0x7 PUSH1 0x0 DUP9 DUP2 MSTORE PUSH1 0x20 ADD SWAP1 DUP2 MSTORE PUSH1 0x20 ADD PUSH1 0x0 KECCAK256 SLOAD SWAP1 POP PUSH2 0xB40 DUP2 PUSH1 0x9 PUSH1 0x0 DUP12 DUP2 MSTORE PUSH1 0x20 ADD SWAP1 DUP2 MSTORE PUSH1 0x20 ADD PUSH1 0x0 KECCAK256 PUSH2 0x12FB SWAP1 SWAP2 SWAP1 PUSH4 0xFFFFFFFF AND JUMP JUMPDEST POP PUSH1 0x5 PUSH1 0x0 DUP3 DUP2 MSTORE PUSH1 0x20 ADD SWAP1 DUP2 MSTORE PUSH1 0x20 ADD PUSH1 0x0 KECCAK256 PUSH1 0x0 DUP1 DUP3 ADD PUSH1 0x0 SWAP1 SSTORE PUSH1 0x1 DUP3 ADD PUSH1 0x0 SWAP1 SSTORE PUSH1 0x2 DUP3 ADD PUSH1 0x0 SWAP1 SSTORE PUSH1 0x3 DUP3 ADD PUSH1 0x0 SWAP1 SSTORE PUSH1 0x4 DUP3 ADD PUSH1 0x0 DUP1 DUP3 ADD PUSH1 0x0 SWAP1 SSTORE PUSH1 0x1 DUP3 ADD PUSH1 0x0 PUSH2 0xB92 SWAP2 SWAP1 PUSH2 0x1AC1 JUMP JUMPDEST PUSH1 0x2 DUP3 ADD PUSH1 0x0 SWAP1 SSTORE POP POP PUSH1 0x7 DUP3 ADD PUSH1 0x0 PUSH2 0x100 EXP DUP2 SLOAD SWAP1 PUSH1 0xFF MUL NOT AND SWAP1 SSTORE PUSH1 0x8 DUP3 ADD PUSH1 0x0 SWAP1 SSTORE POP POP PUSH1 0x0 PUSH2 0xBC9 DUP10 DUP10 PUSH1 0x0 DUP11 PUSH2 0x1315 JUMP JUMPDEST SWAP1 POP DUP1 PUSH1 0x7 PUSH1 0x0 DUP11 DUP2 MSTORE PUSH1 0x20 ADD SWAP1 DUP2 MSTORE PUSH1 0x20 ADD PUSH1 0x0 KECCAK256 DUP2 SWAP1 SSTORE POP PUSH2 0xC08 DUP2 PUSH1 0x9 PUSH1 0x0 DUP13 DUP2 MSTORE PUSH1 0x20 ADD SWAP1 DUP2 MSTORE PUSH1 0x20 ADD PUSH1 0x0 KECCAK256 PUSH2 0x147D SWAP1 SWAP2 SWAP1 PUSH4 0xFFFFFFFF AND JUMP JUMPDEST POP POP POP POP POP POP POP POP POP POP JUMP JUMPDEST PUSH1 0x6 SLOAD DUP2 JUMP JUMPDEST PUSH2 0xC22 PUSH2 0x1B01 JUMP JUMPDEST PUSH1 0x5 PUSH1 0x0 DUP4 DUP2 MSTORE PUSH1 0x20 ADD SWAP1 DUP2 MSTORE PUSH1 0x20 ADD PUSH1 0x0 KECCAK256 PUSH1 0x40 MLOAD DUP1 PUSH1 0xE0 ADD PUSH1 0x40 MSTORE SWAP1 DUP2 PUSH1 0x0 DUP3 ADD SLOAD DUP2 MSTORE PUSH1 0x20 ADD PUSH1 0x1 DUP3 ADD SLOAD DUP2 MSTORE PUSH1 0x20 ADD PUSH1 0x2 DUP3 ADD SLOAD DUP2 MSTORE PUSH1 0x20 ADD PUSH1 0x3 DUP3 ADD SLOAD DUP2 MSTORE PUSH1 0x20 ADD PUSH1 0x4 DUP3 ADD PUSH1 0x40 MLOAD DUP1 PUSH1 0x60 ADD PUSH1 0x40 MSTORE SWAP1 DUP2 PUSH1 0x0 DUP3 ADD SLOAD DUP2 MSTORE PUSH1 0x20 ADD PUSH1 0x1 DUP3 ADD DUP1 SLOAD PUSH2 0xC92 SWAP1 PUSH2 0x3029 JUMP JUMPDEST DUP1 PUSH1 0x1F ADD PUSH1 0x20 DUP1 SWAP2 DIV MUL PUSH1 0x20 ADD PUSH1 0x40 MLOAD SWAP1 DUP2 ADD PUSH1 0x40 MSTORE DUP1 SWAP3 SWAP2 SWAP1 DUP2 DUP2 MSTORE PUSH1 0x20 ADD DUP3 DUP1 SLOAD PUSH2 0xCBE SWAP1 PUSH2 0x3029 JUMP JUMPDEST DUP1 ISZERO PUSH2 0xD0B JUMPI DUP1 PUSH1 0x1F LT PUSH2 0xCE0 JUMPI PUSH2 0x100 DUP1 DUP4 SLOAD DIV MUL DUP4 MSTORE SWAP2 PUSH1 0x20 ADD SWAP2 PUSH2 0xD0B JUMP JUMPDEST DUP3 ADD SWAP2 SWAP1 PUSH1 0x0 MSTORE PUSH1 0x20 PUSH1 0x0 KECCAK256 SWAP1 JUMPDEST DUP2 SLOAD DUP2 MSTORE SWAP1 PUSH1 0x1 ADD SWAP1 PUSH1 0x20 ADD DUP1 DUP4 GT PUSH2 0xCEE JUMPI DUP3 SWAP1 SUB PUSH1 0x1F AND DUP3 ADD SWAP2 JUMPDEST POP POP POP POP POP DUP2 MSTORE PUSH1 0x20 ADD PUSH1 0x2 DUP3 ADD SLOAD DUP2 MSTORE POP POP DUP2 MSTORE PUSH1 0x20 ADD PUSH1 0x7 DUP3 ADD PUSH1 0x0 SWAP1 SLOAD SWAP1 PUSH2 0x100 EXP SWAP1 DIV PUSH1 0xFF AND PUSH1 0x2 DUP2 GT ISZERO PUSH2 0xD47 JUMPI PUSH2 0xD46 PUSH2 0x24B4 JUMP JUMPDEST JUMPDEST PUSH1 0x2 DUP2 GT ISZERO PUSH2 0xD59 JUMPI PUSH2 0xD58 PUSH2 0x24B4 JUMP JUMPDEST JUMPDEST DUP2 MSTORE PUSH1 0x20 ADD PUSH1 0x8 DUP3 ADD SLOAD DUP2 MSTORE POP POP SWAP1 POP SWAP2 SWAP1 POP JUMP JUMPDEST PUSH1 0x5 PUSH1 0x20 MSTORE DUP1 PUSH1 0x0 MSTORE PUSH1 0x40 PUSH1 0x0 KECCAK256 PUSH1 0x0 SWAP2 POP SWAP1 POP DUP1 PUSH1 0x0 ADD SLOAD SWAP1 DUP1 PUSH1 0x1 ADD SLOAD SWAP1 DUP1 PUSH1 0x2 ADD SLOAD SWAP1 DUP1 PUSH1 0x3 ADD SLOAD SWAP1 DUP1 PUSH1 0x4 ADD PUSH1 0x40 MLOAD DUP1 PUSH1 0x60 ADD PUSH1 0x40 MSTORE SWAP1 DUP2 PUSH1 0x0 DUP3 ADD SLOAD DUP2 MSTORE PUSH1 0x20 ADD PUSH1 0x1 DUP3 ADD DUP1 SLOAD PUSH2 0xDC3 SWAP1 PUSH2 0x3029 JUMP JUMPDEST DUP1 PUSH1 0x1F ADD PUSH1 0x20 DUP1 SWAP2 DIV MUL PUSH1 0x20 ADD PUSH1 0x40 MLOAD SWAP1 DUP2 ADD PUSH1 0x40 MSTORE DUP1 SWAP3 SWAP2 SWAP1 DUP2 DUP2 MSTORE PUSH1 0x20 ADD DUP3 DUP1 SLOAD PUSH2 0xDEF SWAP1 PUSH2 0x3029 JUMP JUMPDEST DUP1 ISZERO PUSH2 0xE3C JUMPI DUP1 PUSH1 0x1F LT PUSH2 0xE11 JUMPI PUSH2 0x100 DUP1 DUP4 SLOAD DIV MUL DUP4 MSTORE SWAP2 PUSH1 0x20 ADD SWAP2 PUSH2 0xE3C JUMP JUMPDEST DUP3 ADD SWAP2 SWAP1 PUSH1 0x0 MSTORE PUSH1 0x20 PUSH1 0x0 KECCAK256 SWAP1 JUMPDEST DUP2 SLOAD DUP2 MSTORE SWAP1 PUSH1 0x1 ADD SWAP1 PUSH1 0x20 ADD DUP1 DUP4 GT PUSH2 0xE1F JUMPI DUP3 SWAP1 SUB PUSH1 0x1F AND DUP3 ADD SWAP2 JUMPDEST POP POP POP POP POP DUP2 MSTORE PUSH1 0x20 ADD PUSH1 0x2 DUP3 ADD SLOAD DUP2 MSTORE POP POP SWAP1 DUP1 PUSH1 0x7 ADD PUSH1 0x0 SWAP1 SLOAD SWAP1 PUSH2 0x100 EXP SWAP1 DIV PUSH1 0xFF AND SWAP1 DUP1 PUSH1 0x8 ADD SLOAD SWAP1 POP DUP8 JUMP JUMPDEST PUSH2 0xE75 PUSH2 0x1B01 JUMP JUMPDEST PUSH1 0x5 PUSH1 0x0 PUSH2 0xE8D DUP5 PUSH1 0x3 PUSH2 0x16B6 SWAP1 SWAP2 SWAP1 PUSH4 0xFFFFFFFF AND JUMP JUMPDEST DUP2 MSTORE PUSH1 0x20 ADD SWAP1 DUP2 MSTORE PUSH1 0x20 ADD PUSH1 0x0 KECCAK256 PUSH1 0x40 MLOAD DUP1 PUSH1 0xE0 ADD PUSH1 0x40 MSTORE SWAP1 DUP2 PUSH1 0x0 DUP3 ADD SLOAD DUP2 MSTORE PUSH1 0x20 ADD PUSH1 0x1 DUP3 ADD SLOAD DUP2 MSTORE PUSH1 0x20 ADD PUSH1 0x2 DUP3 ADD SLOAD DUP2 MSTORE PUSH1 0x20 ADD PUSH1 0x3 DUP3 ADD SLOAD DUP2 MSTORE PUSH1 0x20 ADD PUSH1 0x4 DUP3 ADD PUSH1 0x40 MLOAD DUP1 PUSH1 0x60 ADD PUSH1 0x40 MSTORE SWAP1 DUP2 PUSH1 0x0 DUP3 ADD SLOAD DUP2 MSTORE PUSH1 0x20 ADD PUSH1 0x1 DUP3 ADD DUP1 SLOAD PUSH2 0xEF8 SWAP1 PUSH2 0x3029 JUMP JUMPDEST DUP1 PUSH1 0x1F ADD PUSH1 0x20 DUP1 SWAP2 DIV MUL PUSH1 0x20 ADD PUSH1 0x40 MLOAD SWAP1 DUP2 ADD PUSH1 0x40 MSTORE DUP1 SWAP3 SWAP2 SWAP1 DUP2 DUP2 MSTORE PUSH1 0x20 ADD DUP3 DUP1 SLOAD PUSH2 0xF24 SWAP1 PUSH2 0x3029 JUMP JUMPDEST DUP1 ISZERO PUSH2 0xF71 JUMPI DUP1 PUSH1 0x1F LT PUSH2 0xF46 JUMPI PUSH2 0x100 DUP1 DUP4 SLOAD DIV MUL DUP4 MSTORE SWAP2 PUSH1 0x20 ADD SWAP2 PUSH2 0xF71 JUMP JUMPDEST DUP3 ADD SWAP2 SWAP1 PUSH1 0x0 MSTORE PUSH1 0x20 PUSH1 0x0 KECCAK256 SWAP1 JUMPDEST DUP2 SLOAD DUP2 MSTORE SWAP1 PUSH1 0x1 ADD SWAP1 PUSH1 0x20 ADD DUP1 DUP4 GT PUSH2 0xF54 JUMPI DUP3 SWAP1 SUB PUSH1 0x1F AND DUP3 ADD SWAP2 JUMPDEST POP POP POP POP POP DUP2 MSTORE PUSH1 0x20 ADD PUSH1 0x2 DUP3 ADD SLOAD DUP2 MSTORE POP POP DUP2 MSTORE PUSH1 0x20 ADD PUSH1 0x7 DUP3 ADD PUSH1 0x0 SWAP1 SLOAD SWAP1 PUSH2 0x100 EXP SWAP1 DIV PUSH1 0xFF AND PUSH1 0x2 DUP2 GT ISZERO PUSH2 0xFAD JUMPI PUSH2 0xFAC PUSH2 0x24B4 JUMP JUMPDEST JUMPDEST PUSH1 0x2 DUP2 GT ISZERO PUSH2 0xFBF JUMPI PUSH2 0xFBE PUSH2 0x24B4 JUMP JUMPDEST JUMPDEST DUP2 MSTORE PUSH1 0x20 ADD PUSH1 0x8 DUP3 ADD SLOAD DUP2 MSTORE POP POP SWAP1 POP SWAP2 SWAP1 POP JUMP JUMPDEST PUSH1 0x0 PUSH2 0xFE0 PUSH1 0x3 PUSH2 0x16D0 JUMP JUMPDEST SWAP1 POP SWAP1 JUMP JUMPDEST PUSH1 0x0 PUSH1 0x8 PUSH1 0x0 DUP5 DUP2 MSTORE PUSH1 0x20 ADD SWAP1 DUP2 MSTORE PUSH1 0x20 ADD PUSH1 0x0 KECCAK256 PUSH1 0x0 DUP4 DUP2 MSTORE PUSH1 0x20 ADD SWAP1 DUP2 MSTORE PUSH1 0x20 ADD PUSH1 0x0 KECCAK256 SLOAD SWAP1 POP SWAP3 SWAP2 POP POP JUMP JUMPDEST PUSH1 0x60 PUSH1 0x0 PUSH2 0x1024 DUP4 PUSH1 0x0 ADD PUSH2 0x16E5 JUMP JUMPDEST SWAP1 POP PUSH1 0x60 DUP2 SWAP1 POP DUP1 SWAP3 POP POP POP SWAP2 SWAP1 POP JUMP JUMPDEST DUP4 PUSH1 0x0 PUSH1 0x2 PUSH1 0x0 SWAP1 SLOAD SWAP1 PUSH2 0x100 EXP SWAP1 DIV PUSH20 0xFFFFFFFFFFFFFFFFFFFFFFFFFFFFFFFFFFFFFFFF AND PUSH20 0xFFFFFFFFFFFFFFFFFFFFFFFFFFFFFFFFFFFFFFFF AND PUSH3 0x8E0F1B DUP4 PUSH1 0x40 MLOAD DUP3 PUSH4 0xFFFFFFFF AND PUSH1 0xE0 SHL DUP2 MSTORE PUSH1 0x4 ADD PUSH2 0x1092 SWAP2 SWAP1 PUSH2 0x1CA6 JUMP JUMPDEST PUSH1 0x0 PUSH1 0x40 MLOAD DUP1 DUP4 SUB DUP2 DUP7 GAS STATICCALL ISZERO DUP1 ISZERO PUSH2 0x10AF JUMPI RETURNDATASIZE PUSH1 0x0 DUP1 RETURNDATACOPY RETURNDATASIZE PUSH1 0x0 REVERT JUMPDEST POP POP POP POP PUSH1 0x40 MLOAD RETURNDATASIZE PUSH1 0x0 DUP3 RETURNDATACOPY RETURNDATASIZE PUSH1 0x1F NOT PUSH1 0x1F DUP3 ADD AND DUP3 ADD DUP1 PUSH1 0x40 MSTORE POP DUP2 ADD SWAP1 PUSH2 0x10D8 SWAP2 SWAP1 PUSH2 0x2B8D JUMP JUMPDEST SWAP1 POP PUSH1 0x0 CALLER PUSH20 0xFFFFFFFFFFFFFFFFFFFFFFFFFFFFFFFFFFFFFFFF AND DUP3 PUSH1 0x40 ADD MLOAD PUSH1 0x20 ADD MLOAD PUSH20 0xFFFFFFFFFFFFFFFFFFFFFFFFFFFFFFFFFFFFFFFF AND EQ ISZERO PUSH2 0x111D JUMPI PUSH1 0x1 SWAP1 POP JUMPDEST PUSH1 0x0 JUMPDEST DUP3 PUSH1 0x40 ADD MLOAD PUSH1 0x40 ADD MLOAD MLOAD DUP2 LT ISZERO PUSH2 0x119F JUMPI CALLER PUSH20 0xFFFFFFFFFFFFFFFFFFFFFFFFFFFFFFFFFFFFFFFF AND DUP4 PUSH1 0x40 ADD MLOAD PUSH1 0x40 ADD MLOAD DUP3 DUP2 MLOAD DUP2 LT PUSH2 0x1163 JUMPI PUSH2 0x1162 PUSH2 0x277B JUMP JUMPDEST JUMPDEST PUSH1 0x20 MUL PUSH1 0x20 ADD ADD MLOAD PUSH20 0xFFFFFFFFFFFFFFFFFFFFFFFFFFFFFFFFFFFFFFFF AND EQ ISZERO PUSH2 0x118C JUMPI PUSH1 0x1 SWAP2 POP JUMPDEST DUP1 DUP1 PUSH2 0x1197 SWAP1 PUSH2 0x27D9 JUMP JUMPDEST SWAP2 POP POP PUSH2 0x1120 JUMP JUMPDEST POP DUP1 PUSH2 0x11E0 JUMPI PUSH1 0x40 MLOAD PUSH32 0x8C379A000000000000000000000000000000000000000000000000000000000 DUP2 MSTORE PUSH1 0x4 ADD PUSH2 0x11D7 SWAP1 PUSH2 0x2C22 JUMP JUMPDEST PUSH1 0x40 MLOAD DUP1 SWAP2 SUB SWAP1 REVERT JUMPDEST DUP8 PUSH1 0x3 PUSH1 0x0 DUP1 SLOAD SWAP1 PUSH2 0x100 EXP SWAP1 DIV PUSH20 0xFFFFFFFFFFFFFFFFFFFFFFFFFFFFFFFFFFFFFFFF AND PUSH20 0xFFFFFFFFFFFFFFFFFFFFFFFFFFFFFFFFFFFFFFFF AND PUSH4 0x434E540B DUP4 DUP4 PUSH1 0x40 MLOAD DUP4 PUSH4 0xFFFFFFFF AND PUSH1 0xE0 SHL DUP2 MSTORE PUSH1 0x4 ADD PUSH2 0x123E SWAP3 SWAP2 SWAP1 PUSH2 0x2C8A JUMP JUMPDEST PUSH1 0x20 PUSH1 0x40 MLOAD DUP1 DUP4 SUB DUP2 PUSH1 0x0 DUP8 GAS CALL ISZERO DUP1 ISZERO PUSH2 0x125D JUMPI RETURNDATASIZE PUSH1 0x0 DUP1 RETURNDATACOPY RETURNDATASIZE PUSH1 0x0 REVERT JUMPDEST POP POP POP POP PUSH1 0x40 MLOAD RETURNDATASIZE PUSH1 0x1F NOT PUSH1 0x1F DUP3 ADD AND DUP3 ADD DUP1 PUSH1 0x40 MSTORE POP DUP2 ADD SWAP1 PUSH2 0x1281 SWAP2 SWAP1 PUSH2 0x2CEB JUMP JUMPDEST PUSH2 0x12C0 JUMPI PUSH1 0x40 MLOAD PUSH32 0x8C379A000000000000000000000000000000000000000000000000000000000 DUP2 MSTORE PUSH1 0x4 ADD PUSH2 0x12B7 SWAP1 PUSH2 0x2D64 JUMP JUMPDEST PUSH1 0x40 MLOAD DUP1 SWAP2 SUB SWAP1 REVERT JUMPDEST PUSH2 0x12EF PUSH1 0x8 PUSH1 0x0 DUP11 DUP2 MSTORE PUSH1 0x20 ADD SWAP1 DUP2 MSTORE PUSH1 0x20 ADD PUSH1 0x0 KECCAK256 PUSH1 0x0 DUP12 DUP2 MSTORE PUSH1 0x20 ADD SWAP1 DUP2 MSTORE PUSH1 0x20 ADD PUSH1 0x0 KECCAK256 SLOAD DUP9 DUP9 PUSH2 0x1741 JUMP JUMPDEST POP POP POP POP POP POP POP POP POP POP JUMP JUMPDEST PUSH1 0x0 PUSH2 0x130D DUP4 PUSH1 0x0 ADD DUP4 PUSH1 0x0 SHL PUSH2 0x18DE JUMP JUMPDEST SWAP1 POP SWAP3 SWAP2 POP POP JUMP JUMPDEST PUSH1 0x0 DUP1 PUSH1 0x6 SLOAD SWAP1 POP PUSH2 0x1331 DUP2 PUSH1 0x3 PUSH2 0x147D SWAP1 SWAP2 SWAP1 PUSH4 0xFFFFFFFF AND JUMP JUMPDEST POP PUSH1 0x40 MLOAD DUP1 PUSH1 0xE0 ADD PUSH1 0x40 MSTORE DUP1 DUP3 DUP2 MSTORE PUSH1 0x20 ADD DUP8 DUP2 MSTORE PUSH1 0x20 ADD DUP7 DUP2 MSTORE PUSH1 0x20 ADD DUP6 DUP2 MSTORE PUSH1 0x20 ADD PUSH1 0x40 MLOAD DUP1 PUSH1 0x60 ADD PUSH1 0x40 MSTORE DUP1 DUP7 DUP2 MSTORE PUSH1 0x20 ADD PUSH1 0x40 MLOAD DUP1 PUSH1 0x20 ADD PUSH1 0x40 MSTORE DUP1 PUSH1 0x0 DUP2 MSTORE POP DUP2 MSTORE PUSH1 0x20 ADD PUSH1 0x0 DUP1 NOT AND DUP2 MSTORE POP DUP2 MSTORE PUSH1 0x20 ADD PUSH1 0x1 PUSH1 0x2 DUP2 GT ISZERO PUSH2 0x139C JUMPI PUSH2 0x139B PUSH2 0x24B4 JUMP JUMPDEST JUMPDEST DUP2 MSTORE PUSH1 0x20 ADD TIMESTAMP DUP2 MSTORE POP PUSH1 0x5 PUSH1 0x0 DUP4 DUP2 MSTORE PUSH1 0x20 ADD SWAP1 DUP2 MSTORE PUSH1 0x20 ADD PUSH1 0x0 KECCAK256 PUSH1 0x0 DUP3 ADD MLOAD DUP2 PUSH1 0x0 ADD SSTORE PUSH1 0x20 DUP3 ADD MLOAD DUP2 PUSH1 0x1 ADD SSTORE PUSH1 0x40 DUP3 ADD MLOAD DUP2 PUSH1 0x2 ADD SSTORE PUSH1 0x60 DUP3 ADD MLOAD DUP2 PUSH1 0x3 ADD SSTORE PUSH1 0x80 DUP3 ADD MLOAD DUP2 PUSH1 0x4 ADD PUSH1 0x0 DUP3 ADD MLOAD DUP2 PUSH1 0x0 ADD SSTORE PUSH1 0x20 DUP3 ADD MLOAD DUP2 PUSH1 0x1 ADD SWAP1 DUP1 MLOAD SWAP1 PUSH1 0x20 ADD SWAP1 PUSH2 0x140F SWAP3 SWAP2 SWAP1 PUSH2 0x1B56 JUMP JUMPDEST POP PUSH1 0x40 DUP3 ADD MLOAD DUP2 PUSH1 0x2 ADD SSTORE POP POP PUSH1 0xA0 DUP3 ADD MLOAD DUP2 PUSH1 0x7 ADD PUSH1 0x0 PUSH2 0x100 EXP DUP2 SLOAD DUP2 PUSH1 0xFF MUL NOT AND SWAP1 DUP4 PUSH1 0x2 DUP2 GT ISZERO PUSH2 0x1447 JUMPI PUSH2 0x1446 PUSH2 0x24B4 JUMP JUMPDEST JUMPDEST MUL OR SWAP1 SSTORE POP PUSH1 0xC0 DUP3 ADD MLOAD DUP2 PUSH1 0x8 ADD SSTORE SWAP1 POP POP PUSH1 0x6 PUSH1 0x0 DUP2 SLOAD DUP1 SWAP3 SWAP2 SWAP1 PUSH2 0x146C SWAP1 PUSH2 0x27D9 JUMP JUMPDEST SWAP2 SWAP1 POP SSTORE POP DUP1 SWAP2 POP POP SWAP5 SWAP4 POP POP POP POP JUMP JUMPDEST PUSH1 0x0 PUSH2 0x148F DUP4 PUSH1 0x0 ADD DUP4 PUSH1 0x0 SHL PUSH2 0x19F2 JUMP JUMPDEST SWAP1 POP SWAP3 SWAP2 POP POP JUMP JUMPDEST DUP4 PUSH1 0x0 DUP1 PUSH1 0x0 SWAP1 SLOAD SWAP1 PUSH2 0x100 EXP SWAP1 DIV PUSH20 0xFFFFFFFFFFFFFFFFFFFFFFFFFFFFFFFFFFFFFFFF AND PUSH20 0xFFFFFFFFFFFFFFFFFFFFFFFFFFFFFFFFFFFFFFFF AND PUSH4 0x904B9F72 DUP4 PUSH1 0x40 MLOAD DUP3 PUSH4 0xFFFFFFFF AND PUSH1 0xE0 SHL DUP2 MSTORE PUSH1 0x4 ADD PUSH2 0x14F4 SWAP2 SWAP1 PUSH2 0x1CA6 JUMP JUMPDEST PUSH1 0x0 PUSH1 0x40 MLOAD DUP1 DUP4 SUB DUP2 DUP7 GAS STATICCALL ISZERO DUP1 ISZERO PUSH2 0x1511 JUMPI RETURNDATASIZE PUSH1 0x0 DUP1 RETURNDATACOPY RETURNDATASIZE PUSH1 0x0 REVERT JUMPDEST POP POP POP POP PUSH1 0x40 MLOAD RETURNDATASIZE PUSH1 0x0 DUP3 RETURNDATACOPY RETURNDATASIZE PUSH1 0x1F NOT PUSH1 0x1F DUP3 ADD AND DUP3 ADD DUP1 PUSH1 0x40 MSTORE POP DUP2 ADD SWAP1 PUSH2 0x153A SWAP2 SWAP1 PUSH2 0x2F45 JUMP JUMPDEST SWAP1 POP CALLER PUSH20 0xFFFFFFFFFFFFFFFFFFFFFFFFFFFFFFFFFFFFFFFF AND DUP2 PUSH1 0x40 ADD MLOAD PUSH20 0xFFFFFFFFFFFFFFFFFFFFFFFFFFFFFFFFFFFFFFFF AND EQ PUSH2 0x15AE JUMPI PUSH1 0x40 MLOAD PUSH32 0x8C379A000000000000000000000000000000000000000000000000000000000 DUP2 MSTORE PUSH1 0x4 ADD PUSH2 0x15A5 SWAP1 PUSH2 0x2FDA JUMP JUMPDEST PUSH1 0x40 MLOAD DUP1 SWAP2 SUB SWAP1 REVERT JUMPDEST DUP6 PUSH1 0x3 PUSH1 0x0 DUP1 SLOAD SWAP1 PUSH2 0x100 EXP SWAP1 DIV PUSH20 0xFFFFFFFFFFFFFFFFFFFFFFFFFFFFFFFFFFFFFFFF AND PUSH20 0xFFFFFFFFFFFFFFFFFFFFFFFFFFFFFFFFFFFFFFFF AND PUSH4 0x434E540B DUP4 DUP4 PUSH1 0x40 MLOAD DUP4 PUSH4 0xFFFFFFFF AND PUSH1 0xE0 SHL DUP2 MSTORE PUSH1 0x4 ADD PUSH2 0x160C SWAP3 SWAP2 SWAP1 PUSH2 0x2C8A JUMP JUMPDEST PUSH1 0x20 PUSH1 0x40 MLOAD DUP1 DUP4 SUB DUP2 PUSH1 0x0 DUP8 GAS CALL ISZERO DUP1 ISZERO PUSH2 0x162B JUMPI RETURNDATASIZE PUSH1 0x0 DUP1 RETURNDATACOPY RETURNDATASIZE PUSH1 0x0 REVERT JUMPDEST POP POP POP POP PUSH1 0x40 MLOAD RETURNDATASIZE PUSH1 0x1F NOT PUSH1 0x1F DUP3 ADD AND DUP3 ADD DUP1 PUSH1 0x40 MSTORE POP DUP2 ADD SWAP1 PUSH2 0x164F SWAP2 SWAP1 PUSH2 0x2CEB JUMP JUMPDEST PUSH2 0x168E JUMPI PUSH1 0x40 MLOAD PUSH32 0x8C379A000000000000000000000000000000000000000000000000000000000 DUP2 MSTORE PUSH1 0x4 ADD PUSH2 0x1685 SWAP1 PUSH2 0x2D64 JUMP JUMPDEST PUSH1 0x40 MLOAD DUP1 SWAP2 SUB SWAP1 REVERT JUMPDEST PUSH2 0x16AC PUSH1 0x7 PUSH1 0x0 DUP10 DUP2 MSTORE PUSH1 0x20 ADD SWAP1 DUP2 MSTORE PUSH1 0x20 ADD PUSH1 0x0 KECCAK256 SLOAD DUP8 DUP8 PUSH2 0x1741 JUMP JUMPDEST POP POP POP POP POP POP POP POP JUMP JUMPDEST PUSH1 0x0 PUSH2 0x16C5 DUP4 PUSH1 0x0 ADD DUP4 PUSH2 0x1A62 JUMP JUMPDEST PUSH1 0x0 SHR SWAP1 POP SWAP3 SWAP2 POP POP JUMP JUMPDEST PUSH1 0x0 PUSH2 0x16DE DUP3 PUSH1 0x0 ADD PUSH2 0x1A8D JUMP JUMPDEST SWAP1 POP SWAP2 SWAP1 POP JUMP JUMPDEST PUSH1 0x60 DUP2 PUSH1 0x0 ADD DUP1 SLOAD DUP1 PUSH1 0x20 MUL PUSH1 0x20 ADD PUSH1 0x40 MLOAD SWAP1 DUP2 ADD PUSH1 0x40 MSTORE DUP1 SWAP3 SWAP2 SWAP1 DUP2 DUP2 MSTORE PUSH1 0x20 ADD DUP3 DUP1 SLOAD DUP1 ISZERO PUSH2 0x1735 JUMPI PUSH1 0x20 MUL DUP3 ADD SWAP2 SWAP1 PUSH1 0x0 MSTORE PUSH1 0x20 PUSH1 0x0 KECCAK256 SWAP1 JUMPDEST DUP2 SLOAD DUP2 MSTORE PUSH1 0x20 ADD SWAP1 PUSH1 0x1 ADD SWAP1 DUP1 DUP4 GT PUSH2 0x1721 JUMPI JUMPDEST POP POP POP POP POP SWAP1 POP SWAP2 SWAP1 POP JUMP JUMPDEST PUSH1 0x1 PUSH1 0x2 DUP2 GT ISZERO PUSH2 0x1755 JUMPI PUSH2 0x1754 PUSH2 0x24B4 JUMP JUMPDEST JUMPDEST PUSH1 0x5 PUSH1 0x0 DUP6 DUP2 MSTORE PUSH1 0x20 ADD SWAP1 DUP2 MSTORE PUSH1 0x20 ADD PUSH1 0x0 KECCAK256 PUSH1 0x7 ADD PUSH1 0x0 SWAP1 SLOAD SWAP1 PUSH2 0x100 EXP SWAP1 DIV PUSH1 0xFF AND PUSH1 0x2 DUP2 GT ISZERO PUSH2 0x178B JUMPI PUSH2 0x178A PUSH2 0x24B4 JUMP JUMPDEST JUMPDEST EQ PUSH2 0x17CB JUMPI PUSH1 0x40 MLOAD PUSH32 0x8C379A000000000000000000000000000000000000000000000000000000000 DUP2 MSTORE PUSH1 0x4 ADD PUSH2 0x17C2 SWAP1 PUSH2 0x30A7 JUMP JUMPDEST PUSH1 0x40 MLOAD DUP1 SWAP2 SUB SWAP1 REVERT JUMPDEST DUP2 DUP2 PUSH1 0x40 MLOAD PUSH1 0x20 ADD PUSH2 0x17DE SWAP3 SWAP2 SWAP1 PUSH2 0x3124 JUMP JUMPDEST PUSH1 0x40 MLOAD PUSH1 0x20 DUP2 DUP4 SUB SUB DUP2 MSTORE SWAP1 PUSH1 0x40 MSTORE DUP1 MLOAD SWAP1 PUSH1 0x20 ADD KECCAK256 PUSH1 0x5 PUSH1 0x0 DUP6 DUP2 MSTORE PUSH1 0x20 ADD SWAP1 DUP2 MSTORE PUSH1 0x20 ADD PUSH1 0x0 KECCAK256 PUSH1 0x4 ADD PUSH1 0x0 ADD SLOAD EQ PUSH2 0x184E JUMPI PUSH1 0x40 MLOAD PUSH32 0x8C379A000000000000000000000000000000000000000000000000000000000 DUP2 MSTORE PUSH1 0x4 ADD PUSH2 0x1845 SWAP1 PUSH2 0x3198 JUMP JUMPDEST PUSH1 0x40 MLOAD DUP1 SWAP2 SUB SWAP1 REVERT JUMPDEST DUP2 PUSH1 0x5 PUSH1 0x0 DUP6 DUP2 MSTORE PUSH1 0x20 ADD SWAP1 DUP2 MSTORE PUSH1 0x20 ADD PUSH1 0x0 KECCAK256 PUSH1 0x4 ADD PUSH1 0x1 ADD SWAP1 DUP1 MLOAD SWAP1 PUSH1 0x20 ADD SWAP1 PUSH2 0x187B SWAP3 SWAP2 SWAP1 PUSH2 0x1B56 JUMP JUMPDEST POP DUP1 PUSH1 0x5 PUSH1 0x0 DUP6 DUP2 MSTORE PUSH1 0x20 ADD SWAP1 DUP2 MSTORE PUSH1 0x20 ADD PUSH1 0x0 KECCAK256 PUSH1 0x4 ADD PUSH1 0x2 ADD DUP2 SWAP1 SSTORE POP PUSH1 0x2 PUSH1 0x5 PUSH1 0x0 DUP6 DUP2 MSTORE PUSH1 0x20 ADD SWAP1 DUP2 MSTORE PUSH1 0x20 ADD PUSH1 0x0 KECCAK256 PUSH1 0x7 ADD PUSH1 0x0 PUSH2 0x100 EXP DUP2 SLOAD DUP2 PUSH1 0xFF MUL NOT AND SWAP1 DUP4 PUSH1 0x2 DUP2 GT ISZERO PUSH2 0x18D4 JUMPI PUSH2 0x18D3 PUSH2 0x24B4 JUMP JUMPDEST JUMPDEST MUL OR SWAP1 SSTORE POP POP POP POP JUMP JUMPDEST PUSH1 0x0 DUP1 DUP4 PUSH1 0x1 ADD PUSH1 0x0 DUP5 DUP2 MSTORE PUSH1 0x20 ADD SWAP1 DUP2 MSTORE PUSH1 0x20 ADD PUSH1 0x0 KECCAK256 SLOAD SWAP1 POP PUSH1 0x0 DUP2 EQ PUSH2 0x19E6 JUMPI PUSH1 0x0 PUSH1 0x1 DUP3 PUSH2 0x1910 SWAP2 SWAP1 PUSH2 0x31B8 JUMP JUMPDEST SWAP1 POP PUSH1 0x0 PUSH1 0x1 DUP7 PUSH1 0x0 ADD DUP1 SLOAD SWAP1 POP PUSH2 0x1928 SWAP2 SWAP1 PUSH2 0x31B8 JUMP JUMPDEST SWAP1 POP DUP2 DUP2 EQ PUSH2 0x1997 JUMPI PUSH1 0x0 DUP7 PUSH1 0x0 ADD DUP3 DUP2 SLOAD DUP2 LT PUSH2 0x1949 JUMPI PUSH2 0x1948 PUSH2 0x277B JUMP JUMPDEST JUMPDEST SWAP1 PUSH1 0x0 MSTORE PUSH1 0x20 PUSH1 0x0 KECCAK256 ADD SLOAD SWAP1 POP DUP1 DUP8 PUSH1 0x0 ADD DUP5 DUP2 SLOAD DUP2 LT PUSH2 0x196D JUMPI PUSH2 0x196C PUSH2 0x277B JUMP JUMPDEST JUMPDEST SWAP1 PUSH1 0x0 MSTORE PUSH1 0x20 PUSH1 0x0 KECCAK256 ADD DUP2 SWAP1 SSTORE POP DUP4 DUP8 PUSH1 0x1 ADD PUSH1 0x0 DUP4 DUP2 MSTORE PUSH1 0x20 ADD SWAP1 DUP2 MSTORE PUSH1 0x20 ADD PUSH1 0x0 KECCAK256 DUP2 SWAP1 SSTORE POP POP JUMPDEST DUP6 PUSH1 0x0 ADD DUP1 SLOAD DUP1 PUSH2 0x19AB JUMPI PUSH2 0x19AA PUSH2 0x31EC JUMP JUMPDEST JUMPDEST PUSH1 0x1 SWAP1 SUB DUP2 DUP2 SWAP1 PUSH1 0x0 MSTORE PUSH1 0x20 PUSH1 0x0 KECCAK256 ADD PUSH1 0x0 SWAP1 SSTORE SWAP1 SSTORE DUP6 PUSH1 0x1 ADD PUSH1 0x0 DUP7 DUP2 MSTORE PUSH1 0x20 ADD SWAP1 DUP2 MSTORE PUSH1 0x20 ADD PUSH1 0x0 KECCAK256 PUSH1 0x0 SWAP1 SSTORE PUSH1 0x1 SWAP4 POP POP POP POP PUSH2 0x19EC JUMP JUMPDEST PUSH1 0x0 SWAP2 POP POP JUMPDEST SWAP3 SWAP2 POP POP JUMP JUMPDEST PUSH1 0x0 PUSH2 0x19FE DUP4 DUP4 PUSH2 0x1A9E JUMP JUMPDEST PUSH2 0x1A57 JUMPI DUP3 PUSH1 0x0 ADD DUP3 SWAP1 DUP1 PUSH1 0x1 DUP2 SLOAD ADD DUP1 DUP3 SSTORE DUP1 SWAP2 POP POP PUSH1 0x1 SWAP1 SUB SWAP1 PUSH1 0x0 MSTORE PUSH1 0x20 PUSH1 0x0 KECCAK256 ADD PUSH1 0x0 SWAP1 SWAP2 SWAP1 SWAP2 SWAP1 SWAP2 POP SSTORE DUP3 PUSH1 0x0 ADD DUP1 SLOAD SWAP1 POP DUP4 PUSH1 0x1 ADD PUSH1 0x0 DUP5 DUP2 MSTORE PUSH1 0x20 ADD SWAP1 DUP2 MSTORE PUSH1 0x20 ADD PUSH1 0x0 KECCAK256 DUP2 SWAP1 SSTORE POP PUSH1 0x1 SWAP1 POP PUSH2 0x1A5C JUMP JUMPDEST PUSH1 0x0 SWAP1 POP JUMPDEST SWAP3 SWAP2 POP POP JUMP JUMPDEST PUSH1 0x0 DUP3 PUSH1 0x0 ADD DUP3 DUP2 SLOAD DUP2 LT PUSH2 0x1A7A JUMPI PUSH2 0x1A79 PUSH2 0x277B JUMP JUMPDEST JUMPDEST SWAP1 PUSH1 0x0 MSTORE PUSH1 0x20 PUSH1 0x0 KECCAK256 ADD SLOAD SWAP1 POP SWAP3 SWAP2 POP POP JUMP JUMPDEST PUSH1 0x0 DUP2 PUSH1 0x0 ADD DUP1 SLOAD SWAP1 POP SWAP1 POP SWAP2 SWAP1 POP JUMP JUMPDEST PUSH1 0x0 DUP1 DUP4 PUSH1 0x1 ADD PUSH1 0x0 DUP5 DUP2 MSTORE PUSH1 0x20 ADD SWAP1 DUP2 MSTORE PUSH1 0x20 ADD PUSH1 0x0 KECCAK256 SLOAD EQ ISZERO SWAP1 POP SWAP3 SWAP2 POP POP JUMP JUMPDEST POP DUP1 SLOAD PUSH2 0x1ACD SWAP1 PUSH2 0x3029 JUMP JUMPDEST PUSH1 0x0 DUP3 SSTORE DUP1 PUSH1 0x1F LT PUSH2 0x1ADF JUMPI POP PUSH2 0x1AFE JUMP JUMPDEST PUSH1 0x1F ADD PUSH1 0x20 SWAP1 DIV SWAP1 PUSH1 0x0 MSTORE PUSH1 0x20 PUSH1 0x0 KECCAK256 SWAP1 DUP2 ADD SWAP1 PUSH2 0x1AFD SWAP2 SWAP1 PUSH2 0x1BDC JUMP JUMPDEST JUMPDEST POP JUMP JUMPDEST PUSH1 0x40 MLOAD DUP1 PUSH1 0xE0 ADD PUSH1 0x40 MSTORE DUP1 PUSH1 0x0 DUP2 MSTORE PUSH1 0x20 ADD PUSH1 0x0 DUP2 MSTORE PUSH1 0x20 ADD PUSH1 0x0 DUP2 MSTORE PUSH1 0x20 ADD PUSH1 0x0 DUP2 MSTORE PUSH1 0x20 ADD PUSH2 0x1B30 PUSH2 0x1BF9 JUMP JUMPDEST DUP2 MSTORE PUSH1 0x20 ADD PUSH1 0x0 PUSH1 0x2 DUP2 GT ISZERO PUSH2 0x1B49 JUMPI PUSH2 0x1B48 PUSH2 0x24B4 JUMP JUMPDEST JUMPDEST DUP2 MSTORE PUSH1 0x20 ADD PUSH1 0x0 DUP2 MSTORE POP SWAP1 JUMP JUMPDEST DUP3 DUP1 SLOAD PUSH2 0x1B62 SWAP1 PUSH2 0x3029 JUMP JUMPDEST SWAP1 PUSH1 0x0 MSTORE PUSH1 0x20 PUSH1 0x0 KECCAK256 SWAP1 PUSH1 0x1F ADD PUSH1 0x20 SWAP1 DIV DUP2 ADD SWAP3 DUP3 PUSH2 0x1B84 JUMPI PUSH1 0x0 DUP6 SSTORE PUSH2 0x1BCB JUMP JUMPDEST DUP3 PUSH1 0x1F LT PUSH2 0x1B9D JUMPI DUP1 MLOAD PUSH1 0xFF NOT AND DUP4 DUP1 ADD OR DUP6 SSTORE PUSH2 0x1BCB JUMP JUMPDEST DUP3 DUP1 ADD PUSH1 0x1 ADD DUP6 SSTORE DUP3 ISZERO PUSH2 0x1BCB JUMPI SWAP2 DUP3 ADD JUMPDEST DUP3 DUP2 GT ISZERO PUSH2 0x1BCA JUMPI DUP3 MLOAD DUP3 SSTORE SWAP2 PUSH1 0x20 ADD SWAP2 SWAP1 PUSH1 0x1 ADD SWAP1 PUSH2 0x1BAF JUMP JUMPDEST JUMPDEST POP SWAP1 POP PUSH2 0x1BD8 SWAP2 SWAP1 PUSH2 0x1BDC JUMP JUMPDEST POP SWAP1 JUMP JUMPDEST JUMPDEST DUP1 DUP3 GT ISZERO PUSH2 0x1BF5 JUMPI PUSH1 0x0 DUP2 PUSH1 0x0 SWAP1 SSTORE POP PUSH1 0x1 ADD PUSH2 0x1BDD JUMP JUMPDEST POP SWAP1 JUMP JUMPDEST PUSH1 0x40 MLOAD DUP1 PUSH1 0x60 ADD PUSH1 0x40 MSTORE DUP1 PUSH1 0x0 DUP1 NOT AND DUP2 MSTORE PUSH1 0x20 ADD PUSH1 0x60 DUP2 MSTORE PUSH1 0x20 ADD PUSH1 0x0 DUP1 NOT AND DUP2 MSTORE POP SWAP1 JUMP JUMPDEST PUSH1 0x0 PUSH1 0x40 MLOAD SWAP1 POP SWAP1 JUMP JUMPDEST PUSH1 0x0 DUP1 REVERT JUMPDEST PUSH1 0x0 DUP1 REVERT JUMPDEST PUSH1 0x0 DUP2 SWAP1 POP SWAP2 SWAP1 POP JUMP JUMPDEST PUSH2 0x1C47 DUP2 PUSH2 0x1C34 JUMP JUMPDEST DUP2 EQ PUSH2 0x1C52 JUMPI PUSH1 0x0 DUP1 REVERT JUMPDEST POP JUMP JUMPDEST PUSH1 0x0 DUP2 CALLDATALOAD SWAP1 POP PUSH2 0x1C64 DUP2 PUSH2 0x1C3E JUMP JUMPDEST SWAP3 SWAP2 POP POP JUMP JUMPDEST PUSH1 0x0 PUSH1 0x20 DUP3 DUP5 SUB SLT ISZERO PUSH2 0x1C80 JUMPI PUSH2 0x1C7F PUSH2 0x1C2A JUMP JUMPDEST JUMPDEST PUSH1 0x0 PUSH2 0x1C8E DUP5 DUP3 DUP6 ADD PUSH2 0x1C55 JUMP JUMPDEST SWAP2 POP POP SWAP3 SWAP2 POP POP JUMP JUMPDEST PUSH2 0x1CA0 DUP2 PUSH2 0x1C34 JUMP JUMPDEST DUP3 MSTORE POP POP JUMP JUMPDEST PUSH1 0x0 PUSH1 0x20 DUP3 ADD SWAP1 POP PUSH2 0x1CBB PUSH1 0x0 DUP4 ADD DUP5 PUSH2 0x1C97 JUMP JUMPDEST SWAP3 SWAP2 POP POP JUMP JUMPDEST PUSH1 0x0 DUP2 MLOAD SWAP1 POP SWAP2 SWAP1 POP JUMP JUMPDEST PUSH1 0x0 DUP3 DUP3 MSTORE PUSH1 0x20 DUP3 ADD SWAP1 POP SWAP3 SWAP2 POP POP JUMP JUMPDEST PUSH1 0x0 DUP2 SWAP1 POP PUSH1 0x20 DUP3 ADD SWAP1 POP SWAP2 SWAP1 POP JUMP JUMPDEST PUSH2 0x1CF6 DUP2 PUSH2 0x1C34 JUMP JUMPDEST DUP3 MSTORE POP POP JUMP JUMPDEST PUSH1 0x0 PUSH2 0x1D08 DUP4 DUP4 PUSH2 0x1CED JUMP JUMPDEST PUSH1 0x20 DUP4 ADD SWAP1 POP SWAP3 SWAP2 POP POP JUMP JUMPDEST PUSH1 0x0 PUSH1 0x20 DUP3 ADD SWAP1 POP SWAP2 SWAP1 POP JUMP JUMPDEST PUSH1 0x0 PUSH2 0x1D2C DUP3 PUSH2 0x1CC1 JUMP JUMPDEST PUSH2 0x1D36 DUP2 DUP6 PUSH2 0x1CCC JUMP JUMPDEST SWAP4 POP PUSH2 0x1D41 DUP4 PUSH2 0x1CDD JUMP JUMPDEST DUP1 PUSH1 0x0 JUMPDEST DUP4 DUP2 LT ISZERO PUSH2 0x1D72 JUMPI DUP2 MLOAD PUSH2 0x1D59 DUP9 DUP3 PUSH2 0x1CFC JUMP JUMPDEST SWAP8 POP PUSH2 0x1D64 DUP4 PUSH2 0x1D14 JUMP JUMPDEST SWAP3 POP POP PUSH1 0x1 DUP2 ADD SWAP1 POP PUSH2 0x1D45 JUMP JUMPDEST POP DUP6 SWAP4 POP POP POP POP SWAP3 SWAP2 POP POP JUMP JUMPDEST PUSH1 0x0 PUSH1 0x20 DUP3 ADD SWAP1 POP DUP2 DUP2 SUB PUSH1 0x0 DUP4 ADD MSTORE PUSH2 0x1D99 DUP2 DUP5 PUSH2 0x1D21 JUMP JUMPDEST SWAP1 POP SWAP3 SWAP2 POP POP JUMP JUMPDEST PUSH1 0x0 DUP1 REVERT JUMPDEST PUSH1 0x0 PUSH1 0x1F NOT PUSH1 0x1F DUP4 ADD AND SWAP1 POP SWAP2 SWAP1 POP JUMP JUMPDEST PUSH32 0x4E487B7100000000000000000000000000000000000000000000000000000000 PUSH1 0x0 MSTORE PUSH1 0x41 PUSH1 0x4 MSTORE PUSH1 0x24 PUSH1 0x0 REVERT JUMPDEST PUSH2 0x1DEF DUP3 PUSH2 0x1DA6 JUMP JUMPDEST DUP2 ADD DUP2 DUP2 LT PUSH8 0xFFFFFFFFFFFFFFFF DUP3 GT OR ISZERO PUSH2 0x1E0E JUMPI PUSH2 0x1E0D PUSH2 0x1DB7 JUMP JUMPDEST JUMPDEST DUP1 PUSH1 0x40 MSTORE POP POP POP JUMP JUMPDEST PUSH1 0x0 PUSH2 0x1E21 PUSH2 0x1C20 JUMP JUMPDEST SWAP1 POP PUSH2 0x1E2D DUP3 DUP3 PUSH2 0x1DE6 JUMP JUMPDEST SWAP2 SWAP1 POP JUMP JUMPDEST PUSH1 0x0 PUSH8 0xFFFFFFFFFFFFFFFF DUP3 GT ISZERO PUSH2 0x1E4D JUMPI PUSH2 0x1E4C PUSH2 0x1DB7 JUMP JUMPDEST JUMPDEST PUSH1 0x20 DUP3 MUL SWAP1 POP PUSH1 0x20 DUP2 ADD SWAP1 POP SWAP2 SWAP1 POP JUMP JUMPDEST PUSH1 0x0 DUP1 REVERT JUMPDEST PUSH1 0x0 PUSH2 0x1E76 PUSH2 0x1E71 DUP5 PUSH2 0x1E32 JUMP JUMPDEST PUSH2 0x1E17 JUMP JUMPDEST SWAP1 POP DUP1 DUP4 DUP3 MSTORE PUSH1 0x20 DUP3 ADD SWAP1 POP PUSH1 0x20 DUP5 MUL DUP4 ADD DUP6 DUP2 GT ISZERO PUSH2 0x1E99 JUMPI PUSH2 0x1E98 PUSH2 0x1E5E JUMP JUMPDEST JUMPDEST DUP4 JUMPDEST DUP2 DUP2 LT ISZERO PUSH2 0x1EC2 JUMPI DUP1 PUSH2 0x1EAE DUP9 DUP3 PUSH2 0x1C55 JUMP JUMPDEST DUP5 MSTORE PUSH1 0x20 DUP5 ADD SWAP4 POP POP PUSH1 0x20 DUP2 ADD SWAP1 POP PUSH2 0x1E9B JUMP JUMPDEST POP POP POP SWAP4 SWAP3 POP POP POP JUMP JUMPDEST PUSH1 0x0 DUP3 PUSH1 0x1F DUP4 ADD SLT PUSH2 0x1EE1 JUMPI PUSH2 0x1EE0 PUSH2 0x1DA1 JUMP JUMPDEST JUMPDEST DUP2 CALLDATALOAD PUSH2 0x1EF1 DUP5 DUP3 PUSH1 0x20 DUP7 ADD PUSH2 0x1E63 JUMP JUMPDEST SWAP2 POP POP SWAP3 SWAP2 POP POP JUMP JUMPDEST PUSH1 0x0 PUSH8 0xFFFFFFFFFFFFFFFF DUP3 GT ISZERO PUSH2 0x1F15 JUMPI PUSH2 0x1F14 PUSH2 0x1DB7 JUMP JUMPDEST JUMPDEST PUSH1 0x20 DUP3 MUL SWAP1 POP PUSH1 0x20 DUP2 ADD SWAP1 POP SWAP2 SWAP1 POP JUMP JUMPDEST PUSH1 0x0 DUP1 REVERT JUMPDEST PUSH1 0x0 PUSH8 0xFFFFFFFFFFFFFFFF DUP3 GT ISZERO PUSH2 0x1F46 JUMPI PUSH2 0x1F45 PUSH2 0x1DB7 JUMP JUMPDEST JUMPDEST PUSH2 0x1F4F DUP3 PUSH2 0x1DA6 JUMP JUMPDEST SWAP1 POP PUSH1 0x20 DUP2 ADD SWAP1 POP SWAP2 SWAP1 POP JUMP JUMPDEST DUP3 DUP2 DUP4 CALLDATACOPY PUSH1 0x0 DUP4 DUP4 ADD MSTORE POP POP POP JUMP JUMPDEST PUSH1 0x0 PUSH2 0x1F7E PUSH2 0x1F79 DUP5 PUSH2 0x1F2B JUMP JUMPDEST PUSH2 0x1E17 JUMP JUMPDEST SWAP1 POP DUP3 DUP2 MSTORE PUSH1 0x20 DUP2 ADD DUP5 DUP5 DUP5 ADD GT ISZERO PUSH2 0x1F9A JUMPI PUSH2 0x1F99 PUSH2 0x1F26 JUMP JUMPDEST JUMPDEST PUSH2 0x1FA5 DUP5 DUP3 DUP6 PUSH2 0x1F5C JUMP JUMPDEST POP SWAP4 SWAP3 POP POP POP JUMP JUMPDEST PUSH1 0x0 DUP3 PUSH1 0x1F DUP4 ADD SLT PUSH2 0x1FC2 JUMPI PUSH2 0x1FC1 PUSH2 0x1DA1 JUMP JUMPDEST JUMPDEST DUP2 CALLDATALOAD PUSH2 0x1FD2 DUP5 DUP3 PUSH1 0x20 DUP7 ADD PUSH2 0x1F6B JUMP JUMPDEST SWAP2 POP POP SWAP3 SWAP2 POP POP JUMP JUMPDEST PUSH1 0x0 PUSH2 0x1FEE PUSH2 0x1FE9 DUP5 PUSH2 0x1EFA JUMP JUMPDEST PUSH2 0x1E17 JUMP JUMPDEST SWAP1 POP DUP1 DUP4 DUP3 MSTORE PUSH1 0x20 DUP3 ADD SWAP1 POP PUSH1 0x20 DUP5 MUL DUP4 ADD DUP6 DUP2 GT ISZERO PUSH2 0x2011 JUMPI PUSH2 0x2010 PUSH2 0x1E5E JUMP JUMPDEST JUMPDEST DUP4 JUMPDEST DUP2 DUP2 LT ISZERO PUSH2 0x2058 JUMPI DUP1 CALLDATALOAD PUSH8 0xFFFFFFFFFFFFFFFF DUP2 GT ISZERO PUSH2 0x2036 JUMPI PUSH2 0x2035 PUSH2 0x1DA1 JUMP JUMPDEST JUMPDEST DUP1 DUP7 ADD PUSH2 0x2043 DUP10 DUP3 PUSH2 0x1FAD JUMP JUMPDEST DUP6 MSTORE PUSH1 0x20 DUP6 ADD SWAP5 POP POP POP PUSH1 0x20 DUP2 ADD SWAP1 POP PUSH2 0x2013 JUMP JUMPDEST POP POP POP SWAP4 SWAP3 POP POP POP JUMP JUMPDEST PUSH1 0x0 DUP3 PUSH1 0x1F DUP4 ADD SLT PUSH2 0x2077 JUMPI PUSH2 0x2076 PUSH2 0x1DA1 JUMP JUMPDEST JUMPDEST DUP2 CALLDATALOAD PUSH2 0x2087 DUP5 DUP3 PUSH1 0x20 DUP7 ADD PUSH2 0x1FDB JUMP JUMPDEST SWAP2 POP POP SWAP3 SWAP2 POP POP JUMP JUMPDEST PUSH1 0x0 PUSH8 0xFFFFFFFFFFFFFFFF DUP3 GT ISZERO PUSH2 0x20AB JUMPI PUSH2 0x20AA PUSH2 0x1DB7 JUMP JUMPDEST JUMPDEST PUSH1 0x20 DUP3 MUL SWAP1 POP PUSH1 0x20 DUP2 ADD SWAP1 POP SWAP2 SWAP1 POP JUMP JUMPDEST PUSH1 0x0 DUP2 SWAP1 POP SWAP2 SWAP1 POP JUMP JUMPDEST PUSH2 0x20CF DUP2 PUSH2 0x20BC JUMP JUMPDEST DUP2 EQ PUSH2 0x20DA JUMPI PUSH1 0x0 DUP1 REVERT JUMPDEST POP JUMP JUMPDEST PUSH1 0x0 DUP2 CALLDATALOAD SWAP1 POP PUSH2 0x20EC DUP2 PUSH2 0x20C6 JUMP JUMPDEST SWAP3 SWAP2 POP POP JUMP JUMPDEST PUSH1 0x0 PUSH2 0x2105 PUSH2 0x2100 DUP5 PUSH2 0x2090 JUMP JUMPDEST PUSH2 0x1E17 JUMP JUMPDEST SWAP1 POP DUP1 DUP4 DUP3 MSTORE PUSH1 0x20 DUP3 ADD SWAP1 POP PUSH1 0x20 DUP5 MUL DUP4 ADD DUP6 DUP2 GT ISZERO PUSH2 0x2128 JUMPI PUSH2 0x2127 PUSH2 0x1E5E JUMP JUMPDEST JUMPDEST DUP4 JUMPDEST DUP2 DUP2 LT ISZERO PUSH2 0x2151 JUMPI DUP1 PUSH2 0x213D DUP9 DUP3 PUSH2 0x20DD JUMP JUMPDEST DUP5 MSTORE PUSH1 0x20 DUP5 ADD SWAP4 POP POP PUSH1 0x20 DUP2 ADD SWAP1 POP PUSH2 0x212A JUMP JUMPDEST POP POP POP SWAP4 SWAP3 POP POP POP JUMP JUMPDEST PUSH1 0x0 DUP3 PUSH1 0x1F DUP4 ADD SLT PUSH2 0x2170 JUMPI PUSH2 0x216F PUSH2 0x1DA1 JUMP JUMPDEST JUMPDEST DUP2 CALLDATALOAD PUSH2 0x2180 DUP5 DUP3 PUSH1 0x20 DUP7 ADD PUSH2 0x20F2 JUMP JUMPDEST SWAP2 POP POP SWAP3 SWAP2 POP POP JUMP JUMPDEST PUSH1 0x0 DUP1 PUSH1 0x0 DUP1 PUSH1 0x0 PUSH1 0xA0 DUP7 DUP9 SUB SLT ISZERO PUSH2 0x21A5 JUMPI PUSH2 0x21A4 PUSH2 0x1C2A JUMP JUMPDEST JUMPDEST PUSH1 0x0 PUSH2 0x21B3 DUP9 DUP3 DUP10 ADD PUSH2 0x1C55 JUMP JUMPDEST SWAP6 POP POP PUSH1 0x20 PUSH2 0x21C4 DUP9 DUP3 DUP10 ADD PUSH2 0x1C55 JUMP JUMPDEST SWAP5 POP POP PUSH1 0x40 DUP7 ADD CALLDATALOAD PUSH8 0xFFFFFFFFFFFFFFFF DUP2 GT ISZERO PUSH2 0x21E5 JUMPI PUSH2 0x21E4 PUSH2 0x1C2F JUMP JUMPDEST JUMPDEST PUSH2 0x21F1 DUP9 DUP3 DUP10 ADD PUSH2 0x1ECC JUMP JUMPDEST SWAP4 POP POP PUSH1 0x60 DUP7 ADD CALLDATALOAD PUSH8 0xFFFFFFFFFFFFFFFF DUP2 GT ISZERO PUSH2 0x2212 JUMPI PUSH2 0x2211 PUSH2 0x1C2F JUMP JUMPDEST JUMPDEST PUSH2 0x221E DUP9 DUP3 DUP10 ADD PUSH2 0x2062 JUMP JUMPDEST SWAP3 POP POP PUSH1 0x80 DUP7 ADD CALLDATALOAD PUSH8 0xFFFFFFFFFFFFFFFF DUP2 GT ISZERO PUSH2 0x223F JUMPI PUSH2 0x223E PUSH2 0x1C2F JUMP JUMPDEST JUMPDEST PUSH2 0x224B DUP9 DUP3 DUP10 ADD PUSH2 0x215B JUMP JUMPDEST SWAP2 POP POP SWAP3 SWAP6 POP SWAP3 SWAP6 SWAP1 SWAP4 POP JUMP JUMPDEST PUSH1 0x0 DUP1 PUSH1 0x0 DUP1 PUSH1 0x80 DUP6 DUP8 SUB SLT ISZERO PUSH2 0x2272 JUMPI PUSH2 0x2271 PUSH2 0x1C2A JUMP JUMPDEST JUMPDEST PUSH1 0x0 PUSH2 0x2280 DUP8 DUP3 DUP9 ADD PUSH2 0x1C55 JUMP JUMPDEST SWAP5 POP POP PUSH1 0x20 PUSH2 0x2291 DUP8 DUP3 DUP9 ADD PUSH2 0x1C55 JUMP JUMPDEST SWAP4 POP POP PUSH1 0x40 PUSH2 0x22A2 DUP8 DUP3 DUP9 ADD PUSH2 0x1C55 JUMP JUMPDEST SWAP3 POP POP PUSH1 0x60 PUSH2 0x22B3 DUP8 DUP3 DUP9 ADD PUSH2 0x20DD JUMP JUMPDEST SWAP2 POP POP SWAP3 SWAP6 SWAP2 SWAP5 POP SWAP3 POP JUMP JUMPDEST PUSH1 0x0 DUP1 PUSH1 0x0 DUP1 PUSH1 0x80 DUP6 DUP8 SUB SLT ISZERO PUSH2 0x22D9 JUMPI PUSH2 0x22D8 PUSH2 0x1C2A JUMP JUMPDEST JUMPDEST PUSH1 0x0 PUSH2 0x22E7 DUP8 DUP3 DUP9 ADD PUSH2 0x1C55 JUMP JUMPDEST SWAP5 POP POP PUSH1 0x20 DUP6 ADD CALLDATALOAD PUSH8 0xFFFFFFFFFFFFFFFF DUP2 GT ISZERO PUSH2 0x2308 JUMPI PUSH2 0x2307 PUSH2 0x1C2F JUMP JUMPDEST JUMPDEST PUSH2 0x2314 DUP8 DUP3 DUP9 ADD PUSH2 0x1ECC JUMP JUMPDEST SWAP4 POP POP PUSH1 0x40 DUP6 ADD CALLDATALOAD PUSH8 0xFFFFFFFFFFFFFFFF DUP2 GT ISZERO PUSH2 0x2335 JUMPI PUSH2 0x2334 PUSH2 0x1C2F JUMP JUMPDEST JUMPDEST PUSH2 0x2341 DUP8 DUP3 DUP9 ADD PUSH2 0x2062 JUMP JUMPDEST SWAP3 POP POP PUSH1 0x60 DUP6 ADD CALLDATALOAD PUSH8 0xFFFFFFFFFFFFFFFF DUP2 GT ISZERO PUSH2 0x2362 JUMPI PUSH2 0x2361 PUSH2 0x1C2F JUMP JUMPDEST JUMPDEST PUSH2 0x236E DUP8 DUP3 DUP9 ADD PUSH2 0x215B JUMP JUMPDEST SWAP2 POP POP SWAP3 SWAP6 SWAP2 SWAP5 POP SWAP3 POP JUMP JUMPDEST PUSH1 0x0 DUP1 PUSH1 0x0 PUSH1 0x60 DUP5 DUP7 SUB SLT ISZERO PUSH2 0x2393 JUMPI PUSH2 0x2392 PUSH2 0x1C2A JUMP JUMPDEST JUMPDEST PUSH1 0x0 PUSH2 0x23A1 DUP7 DUP3 DUP8 ADD PUSH2 0x1C55 JUMP JUMPDEST SWAP4 POP POP PUSH1 0x20 PUSH2 0x23B2 DUP7 DUP3 DUP8 ADD PUSH2 0x1C55 JUMP JUMPDEST SWAP3 POP POP PUSH1 0x40 PUSH2 0x23C3 DUP7 DUP3 DUP8 ADD PUSH2 0x20DD JUMP JUMPDEST SWAP2 POP POP SWAP3 POP SWAP3 POP SWAP3 JUMP JUMPDEST PUSH2 0x23D6 DUP2 PUSH2 0x20BC JUMP JUMPDEST DUP3 MSTORE POP POP JUMP JUMPDEST PUSH1 0x0 DUP2 MLOAD SWAP1 POP SWAP2 SWAP1 POP JUMP JUMPDEST PUSH1 0x0 DUP3 DUP3 MSTORE PUSH1 0x20 DUP3 ADD SWAP1 POP SWAP3 SWAP2 POP POP JUMP JUMPDEST PUSH1 0x0 JUMPDEST DUP4 DUP2 LT ISZERO PUSH2 0x2416 JUMPI DUP1 DUP3 ADD MLOAD DUP2 DUP5 ADD MSTORE PUSH1 0x20 DUP2 ADD SWAP1 POP PUSH2 0x23FB JUMP JUMPDEST DUP4 DUP2 GT ISZERO PUSH2 0x2425 JUMPI PUSH1 0x0 DUP5 DUP5 ADD MSTORE JUMPDEST POP POP POP POP JUMP JUMPDEST PUSH1 0x0 PUSH2 0x2436 DUP3 PUSH2 0x23DC JUMP JUMPDEST PUSH2 0x2440 DUP2 DUP6 PUSH2 0x23E7 JUMP JUMPDEST SWAP4 POP PUSH2 0x2450 DUP2 DUP6 PUSH1 0x20 DUP7 ADD PUSH2 0x23F8 JUMP JUMPDEST PUSH2 0x2459 DUP2 PUSH2 0x1DA6 JUMP JUMPDEST DUP5 ADD SWAP2 POP POP SWAP3 SWAP2 POP POP JUMP JUMPDEST PUSH1 0x0 PUSH1 0x60 DUP4 ADD PUSH1 0x0 DUP4 ADD MLOAD PUSH2 0x247C PUSH1 0x0 DUP7 ADD DUP3 PUSH2 0x23CD JUMP JUMPDEST POP PUSH1 0x20 DUP4 ADD MLOAD DUP5 DUP3 SUB PUSH1 0x20 DUP7 ADD MSTORE PUSH2 0x2494 DUP3 DUP3 PUSH2 0x242B JUMP JUMPDEST SWAP2 POP POP PUSH1 0x40 DUP4 ADD MLOAD PUSH2 0x24A9 PUSH1 0x40 DUP7 ADD DUP3 PUSH2 0x23CD JUMP JUMPDEST POP DUP1 SWAP2 POP POP SWAP3 SWAP2 POP POP JUMP JUMPDEST PUSH32 0x4E487B7100000000000000000000000000000000000000000000000000000000 PUSH1 0x0 MSTORE PUSH1 0x21 PUSH1 0x4 MSTORE PUSH1 0x24 PUSH1 0x0 REVERT JUMPDEST PUSH1 0x3 DUP2 LT PUSH2 0x24F4 JUMPI PUSH2 0x24F3 PUSH2 0x24B4 JUMP JUMPDEST JUMPDEST POP JUMP JUMPDEST PUSH1 0x0 DUP2 SWAP1 POP PUSH2 0x2505 DUP3 PUSH2 0x24E3 JUMP JUMPDEST SWAP2 SWAP1 POP JUMP JUMPDEST PUSH1 0x0 PUSH2 0x2515 DUP3 PUSH2 0x24F7 JUMP JUMPDEST SWAP1 POP SWAP2 SWAP1 POP JUMP JUMPDEST PUSH2 0x2525 DUP2 PUSH2 0x250A JUMP JUMPDEST DUP3 MSTORE POP POP JUMP JUMPDEST PUSH1 0x0 PUSH1 0xE0 DUP4 ADD PUSH1 0x0 DUP4 ADD MLOAD PUSH2 0x2543 PUSH1 0x0 DUP7 ADD DUP3 PUSH2 0x1CED JUMP JUMPDEST POP PUSH1 0x20 DUP4 ADD MLOAD PUSH2 0x2556 PUSH1 0x20 DUP7 ADD DUP3 PUSH2 0x1CED JUMP JUMPDEST POP PUSH1 0x40 DUP4 ADD MLOAD PUSH2 0x2569 PUSH1 0x40 DUP7 ADD DUP3 PUSH2 0x1CED JUMP JUMPDEST POP PUSH1 0x60 DUP4 ADD MLOAD PUSH2 0x257C PUSH1 0x60 DUP7 ADD DUP3 PUSH2 0x1CED JUMP JUMPDEST POP PUSH1 0x80 DUP4 ADD MLOAD DUP5 DUP3 SUB PUSH1 0x80 DUP7 ADD MSTORE PUSH2 0x2594 DUP3 DUP3 PUSH2 0x2464 JUMP JUMPDEST SWAP2 POP POP PUSH1 0xA0 DUP4 ADD MLOAD PUSH2 0x25A9 PUSH1 0xA0 DUP7 ADD DUP3 PUSH2 0x251C JUMP JUMPDEST POP PUSH1 0xC0 DUP4 ADD MLOAD PUSH2 0x25BC PUSH1 0xC0 DUP7 ADD DUP3 PUSH2 0x1CED JUMP JUMPDEST POP DUP1 SWAP2 POP POP SWAP3 SWAP2 POP POP JUMP JUMPDEST PUSH1 0x0 PUSH1 0x20 DUP3 ADD SWAP1 POP DUP2 DUP2 SUB PUSH1 0x0 DUP4 ADD MSTORE PUSH2 0x25E1 DUP2 DUP5 PUSH2 0x252B JUMP JUMPDEST SWAP1 POP SWAP3 SWAP2 POP POP JUMP JUMPDEST PUSH1 0x0 PUSH1 0x60 DUP4 ADD PUSH1 0x0 DUP4 ADD MLOAD PUSH2 0x2601 PUSH1 0x0 DUP7 ADD DUP3 PUSH2 0x23CD JUMP JUMPDEST POP PUSH1 0x20 DUP4 ADD MLOAD DUP5 DUP3 SUB PUSH1 0x20 DUP7 ADD MSTORE PUSH2 0x2619 DUP3 DUP3 PUSH2 0x242B JUMP JUMPDEST SWAP2 POP POP PUSH1 0x40 DUP4 ADD MLOAD PUSH2 0x262E PUSH1 0x40 DUP7 ADD DUP3 PUSH2 0x23CD JUMP JUMPDEST POP DUP1 SWAP2 POP POP SWAP3 SWAP2 POP POP JUMP JUMPDEST PUSH2 0x2642 DUP2 PUSH2 0x250A JUMP JUMPDEST DUP3 MSTORE POP POP JUMP JUMPDEST PUSH1 0x0 PUSH1 0xE0 DUP3 ADD SWAP1 POP PUSH2 0x265D PUSH1 0x0 DUP4 ADD DUP11 PUSH2 0x1C97 JUMP JUMPDEST PUSH2 0x266A PUSH1 0x20 DUP4 ADD DUP10 PUSH2 0x1C97 JUMP JUMPDEST PUSH2 0x2677 PUSH1 0x40 DUP4 ADD DUP9 PUSH2 0x1C97 JUMP JUMPDEST PUSH2 0x2684 PUSH1 0x60 DUP4 ADD DUP8 PUSH2 0x1C97 JUMP JUMPDEST DUP2 DUP2 SUB PUSH1 0x80 DUP4 ADD MSTORE PUSH2 0x2696 DUP2 DUP7 PUSH2 0x25E9 JUMP JUMPDEST SWAP1 POP PUSH2 0x26A5 PUSH1 0xA0 DUP4 ADD DUP6 PUSH2 0x2639 JUMP JUMPDEST PUSH2 0x26B2 PUSH1 0xC0 DUP4 ADD DUP5 PUSH2 0x1C97 JUMP JUMPDEST SWAP9 SWAP8 POP POP POP POP POP POP POP POP JUMP JUMPDEST PUSH1 0x0 DUP1 PUSH1 0x40 DUP4 DUP6 SUB SLT ISZERO PUSH2 0x26D5 JUMPI PUSH2 0x26D4 PUSH2 0x1C2A JUMP JUMPDEST JUMPDEST PUSH1 0x0 PUSH2 0x26E3 DUP6 DUP3 DUP7 ADD PUSH2 0x1C55 JUMP JUMPDEST SWAP3 POP POP PUSH1 0x20 PUSH2 0x26F4 DUP6 DUP3 DUP7 ADD PUSH2 0x1C55 JUMP JUMPDEST SWAP2 POP POP SWAP3 POP SWAP3 SWAP1 POP JUMP JUMPDEST PUSH1 0x0 DUP3 DUP3 MSTORE PUSH1 0x20 DUP3 ADD SWAP1 POP SWAP3 SWAP2 POP POP JUMP JUMPDEST PUSH32 0x6C656E6774682073686F756C6420626520657175616C00000000000000000000 PUSH1 0x0 DUP3 ADD MSTORE POP JUMP JUMPDEST PUSH1 0x0 PUSH2 0x2745 PUSH1 0x16 DUP4 PUSH2 0x26FE JUMP JUMPDEST SWAP2 POP PUSH2 0x2750 DUP3 PUSH2 0x270F JUMP JUMPDEST PUSH1 0x20 DUP3 ADD SWAP1 POP SWAP2 SWAP1 POP JUMP JUMPDEST PUSH1 0x0 PUSH1 0x20 DUP3 ADD SWAP1 POP DUP2 DUP2 SUB PUSH1 0x0 DUP4 ADD MSTORE PUSH2 0x2774 DUP2 PUSH2 0x2738 JUMP JUMPDEST SWAP1 POP SWAP2 SWAP1 POP JUMP JUMPDEST PUSH32 0x4E487B7100000000000000000000000000000000000000000000000000000000 PUSH1 0x0 MSTORE PUSH1 0x32 PUSH1 0x4 MSTORE PUSH1 0x24 PUSH1 0x0 REVERT JUMPDEST PUSH32 0x4E487B7100000000000000000000000000000000000000000000000000000000 PUSH1 0x0 MSTORE PUSH1 0x11 PUSH1 0x4 MSTORE PUSH1 0x24 PUSH1 0x0 REVERT JUMPDEST PUSH1 0x0 PUSH2 0x27E4 DUP3 PUSH2 0x1C34 JUMP JUMPDEST SWAP2 POP PUSH32 0xFFFFFFFFFFFFFFFFFFFFFFFFFFFFFFFFFFFFFFFFFFFFFFFFFFFFFFFFFFFFFFFF DUP3 EQ ISZERO PUSH2 0x2817 JUMPI PUSH2 0x2816 PUSH2 0x27AA JUMP JUMPDEST JUMPDEST PUSH1 0x1 DUP3 ADD SWAP1 POP SWAP2 SWAP1 POP JUMP JUMPDEST PUSH1 0x0 DUP1 REVERT JUMPDEST PUSH1 0x0 DUP1 REVERT JUMPDEST PUSH1 0x0 DUP2 MLOAD SWAP1 POP PUSH2 0x283B DUP2 PUSH2 0x1C3E JUMP JUMPDEST SWAP3 SWAP2 POP POP JUMP JUMPDEST PUSH1 0x0 PUSH2 0x2854 PUSH2 0x284F DUP5 PUSH2 0x1F2B JUMP JUMPDEST PUSH2 0x1E17 JUMP JUMPDEST SWAP1 POP DUP3 DUP2 MSTORE PUSH1 0x20 DUP2 ADD DUP5 DUP5 DUP5 ADD GT ISZERO PUSH2 0x2870 JUMPI PUSH2 0x286F PUSH2 0x1F26 JUMP JUMPDEST JUMPDEST PUSH2 0x287B DUP5 DUP3 DUP6 PUSH2 0x23F8 JUMP JUMPDEST POP SWAP4 SWAP3 POP POP POP JUMP JUMPDEST PUSH1 0x0 DUP3 PUSH1 0x1F DUP4 ADD SLT PUSH2 0x2898 JUMPI PUSH2 0x2897 PUSH2 0x1DA1 JUMP JUMPDEST JUMPDEST DUP2 MLOAD PUSH2 0x28A8 DUP5 DUP3 PUSH1 0x20 DUP7 ADD PUSH2 0x2841 JUMP JUMPDEST SWAP2 POP POP SWAP3 SWAP2 POP POP JUMP JUMPDEST PUSH1 0x0 PUSH20 0xFFFFFFFFFFFFFFFFFFFFFFFFFFFFFFFFFFFFFFFF DUP3 AND SWAP1 POP SWAP2 SWAP1 POP JUMP JUMPDEST PUSH1 0x0 PUSH2 0x28DC DUP3 PUSH2 0x28B1 JUMP JUMPDEST SWAP1 POP SWAP2 SWAP1 POP JUMP JUMPDEST PUSH2 0x28EC DUP2 PUSH2 0x28D1 JUMP JUMPDEST DUP2 EQ PUSH2 0x28F7 JUMPI PUSH1 0x0 DUP1 REVERT JUMPDEST POP JUMP JUMPDEST PUSH1 0x0 DUP2 MLOAD SWAP1 POP PUSH2 0x2909 DUP2 PUSH2 0x28E3 JUMP JUMPDEST SWAP3 SWAP2 POP POP JUMP JUMPDEST PUSH1 0x0 PUSH8 0xFFFFFFFFFFFFFFFF DUP3 GT ISZERO PUSH2 0x292A JUMPI PUSH2 0x2929 PUSH2 0x1DB7 JUMP JUMPDEST JUMPDEST PUSH1 0x20 DUP3 MUL SWAP1 POP PUSH1 0x20 DUP2 ADD SWAP1 POP SWAP2 SWAP1 POP JUMP JUMPDEST PUSH1 0x0 PUSH2 0x2946 DUP3 PUSH2 0x28B1 JUMP JUMPDEST SWAP1 POP SWAP2 SWAP1 POP JUMP JUMPDEST PUSH2 0x2956 DUP2 PUSH2 0x293B JUMP JUMPDEST DUP2 EQ PUSH2 0x2961 JUMPI PUSH1 0x0 DUP1 REVERT JUMPDEST POP JUMP JUMPDEST PUSH1 0x0 DUP2 MLOAD SWAP1 POP PUSH2 0x2973 DUP2 PUSH2 0x294D JUMP JUMPDEST SWAP3 SWAP2 POP POP JUMP JUMPDEST PUSH1 0x0 PUSH2 0x298C PUSH2 0x2987 DUP5 PUSH2 0x290F JUMP JUMPDEST PUSH2 0x1E17 JUMP JUMPDEST SWAP1 POP DUP1 DUP4 DUP3 MSTORE PUSH1 0x20 DUP3 ADD SWAP1 POP PUSH1 0x20 DUP5 MUL DUP4 ADD DUP6 DUP2 GT ISZERO PUSH2 0x29AF JUMPI PUSH2 0x29AE PUSH2 0x1E5E JUMP JUMPDEST JUMPDEST DUP4 JUMPDEST DUP2 DUP2 LT ISZERO PUSH2 0x29D8 JUMPI DUP1 PUSH2 0x29C4 DUP9 DUP3 PUSH2 0x2964 JUMP JUMPDEST DUP5 MSTORE PUSH1 0x20 DUP5 ADD SWAP4 POP POP PUSH1 0x20 DUP2 ADD SWAP1 POP PUSH2 0x29B1 JUMP JUMPDEST POP POP POP SWAP4 SWAP3 POP POP POP JUMP JUMPDEST PUSH1 0x0 DUP3 PUSH1 0x1F DUP4 ADD SLT PUSH2 0x29F7 JUMPI PUSH2 0x29F6 PUSH2 0x1DA1 JUMP JUMPDEST JUMPDEST DUP2 MLOAD PUSH2 0x2A07 DUP5 DUP3 PUSH1 0x20 DUP7 ADD PUSH2 0x2979 JUMP JUMPDEST SWAP2 POP POP SWAP3 SWAP2 POP POP JUMP JUMPDEST PUSH1 0x0 PUSH1 0x60 DUP3 DUP5 SUB SLT ISZERO PUSH2 0x2A26 JUMPI PUSH2 0x2A25 PUSH2 0x2822 JUMP JUMPDEST JUMPDEST PUSH2 0x2A30 PUSH1 0x60 PUSH2 0x1E17 JUMP JUMPDEST SWAP1 POP PUSH1 0x0 DUP3 ADD MLOAD PUSH8 0xFFFFFFFFFFFFFFFF DUP2 GT ISZERO PUSH2 0x2A50 JUMPI PUSH2 0x2A4F PUSH2 0x2827 JUMP JUMPDEST JUMPDEST PUSH2 0x2A5C DUP5 DUP3 DUP6 ADD PUSH2 0x2883 JUMP JUMPDEST PUSH1 0x0 DUP4 ADD MSTORE POP PUSH1 0x20 PUSH2 0x2A70 DUP5 DUP3 DUP6 ADD PUSH2 0x28FA JUMP JUMPDEST PUSH1 0x20 DUP4 ADD MSTORE POP PUSH1 0x40 DUP3 ADD MLOAD PUSH8 0xFFFFFFFFFFFFFFFF DUP2 GT ISZERO PUSH2 0x2A94 JUMPI PUSH2 0x2A93 PUSH2 0x2827 JUMP JUMPDEST JUMPDEST PUSH2 0x2AA0 DUP5 DUP3 DUP6 ADD PUSH2 0x29E2 JUMP JUMPDEST PUSH1 0x40 DUP4 ADD MSTORE POP SWAP3 SWAP2 POP POP JUMP JUMPDEST PUSH1 0x4 DUP2 LT PUSH2 0x2AB9 JUMPI PUSH1 0x0 DUP1 REVERT JUMPDEST POP JUMP JUMPDEST PUSH1 0x0 DUP2 MLOAD SWAP1 POP PUSH2 0x2ACB DUP2 PUSH2 0x2AAC JUMP JUMPDEST SWAP3 SWAP2 POP POP JUMP JUMPDEST PUSH1 0x0 PUSH1 0xC0 DUP3 DUP5 SUB SLT ISZERO PUSH2 0x2AE7 JUMPI PUSH2 0x2AE6 PUSH2 0x2822 JUMP JUMPDEST JUMPDEST PUSH2 0x2AF1 PUSH1 0xC0 PUSH2 0x1E17 JUMP JUMPDEST SWAP1 POP PUSH1 0x0 PUSH2 0x2B01 DUP5 DUP3 DUP6 ADD PUSH2 0x282C JUMP JUMPDEST PUSH1 0x0 DUP4 ADD MSTORE POP PUSH1 0x20 PUSH2 0x2B15 DUP5 DUP3 DUP6 ADD PUSH2 0x282C JUMP JUMPDEST PUSH1 0x20 DUP4 ADD MSTORE POP PUSH1 0x40 DUP3 ADD MLOAD PUSH8 0xFFFFFFFFFFFFFFFF DUP2 GT ISZERO PUSH2 0x2B39 JUMPI PUSH2 0x2B38 PUSH2 0x2827 JUMP JUMPDEST JUMPDEST PUSH2 0x2B45 DUP5 DUP3 DUP6 ADD PUSH2 0x2A10 JUMP JUMPDEST PUSH1 0x40 DUP4 ADD MSTORE POP PUSH1 0x60 PUSH2 0x2B59 DUP5 DUP3 DUP6 ADD PUSH2 0x2ABC JUMP JUMPDEST PUSH1 0x60 DUP4 ADD MSTORE POP PUSH1 0x80 PUSH2 0x2B6D DUP5 DUP3 DUP6 ADD PUSH2 0x282C JUMP JUMPDEST PUSH1 0x80 DUP4 ADD MSTORE POP PUSH1 0xA0 PUSH2 0x2B81 DUP5 DUP3 DUP6 ADD PUSH2 0x282C JUMP JUMPDEST PUSH1 0xA0 DUP4 ADD MSTORE POP SWAP3 SWAP2 POP POP JUMP JUMPDEST PUSH1 0x0 PUSH1 0x20 DUP3 DUP5 SUB SLT ISZERO PUSH2 0x2BA3 JUMPI PUSH2 0x2BA2 PUSH2 0x1C2A JUMP JUMPDEST JUMPDEST PUSH1 0x0 DUP3 ADD MLOAD PUSH8 0xFFFFFFFFFFFFFFFF DUP2 GT ISZERO PUSH2 0x2BC1 JUMPI PUSH2 0x2BC0 PUSH2 0x1C2F JUMP JUMPDEST JUMPDEST PUSH2 0x2BCD DUP5 DUP3 DUP6 ADD PUSH2 0x2AD1 JUMP JUMPDEST SWAP2 POP POP SWAP3 SWAP2 POP POP JUMP JUMPDEST PUSH32 0x6F6E6C79207465616D206361707461696E206F72206D656D6265720000000000 PUSH1 0x0 DUP3 ADD MSTORE POP JUMP JUMPDEST PUSH1 0x0 PUSH2 0x2C0C PUSH1 0x1B DUP4 PUSH2 0x26FE JUMP JUMPDEST SWAP2 POP PUSH2 0x2C17 DUP3 PUSH2 0x2BD6 JUMP JUMPDEST PUSH1 0x20 DUP3 ADD SWAP1 POP SWAP2 SWAP1 POP JUMP JUMPDEST PUSH1 0x0 PUSH1 0x20 DUP3 ADD SWAP1 POP DUP2 DUP2 SUB PUSH1 0x0 DUP4 ADD MSTORE PUSH2 0x2C3B DUP2 PUSH2 0x2BFF JUMP JUMPDEST SWAP1 POP SWAP2 SWAP1 POP JUMP JUMPDEST PUSH1 0x4 DUP2 LT PUSH2 0x2C53 JUMPI PUSH2 0x2C52 PUSH2 0x24B4 JUMP JUMPDEST JUMPDEST POP JUMP JUMPDEST PUSH1 0x0 DUP2 SWAP1 POP PUSH2 0x2C64 DUP3 PUSH2 0x2C42 JUMP JUMPDEST SWAP2 SWAP1 POP JUMP JUMPDEST PUSH1 0x0 PUSH2 0x2C74 DUP3 PUSH2 0x2C56 JUMP JUMPDEST SWAP1 POP SWAP2 SWAP1 POP JUMP JUMPDEST PUSH2 0x2C84 DUP2 PUSH2 0x2C69 JUMP JUMPDEST DUP3 MSTORE POP POP JUMP JUMPDEST PUSH1 0x0 PUSH1 0x40 DUP3 ADD SWAP1 POP PUSH2 0x2C9F PUSH1 0x0 DUP4 ADD DUP6 PUSH2 0x1C97 JUMP JUMPDEST PUSH2 0x2CAC PUSH1 0x20 DUP4 ADD DUP5 PUSH2 0x2C7B JUMP JUMPDEST SWAP4 SWAP3 POP POP POP JUMP JUMPDEST PUSH1 0x0 DUP2 ISZERO ISZERO SWAP1 POP SWAP2 SWAP1 POP JUMP JUMPDEST PUSH2 0x2CC8 DUP2 PUSH2 0x2CB3 JUMP JUMPDEST DUP2 EQ PUSH2 0x2CD3 JUMPI PUSH1 0x0 DUP1 REVERT JUMPDEST POP JUMP JUMPDEST PUSH1 0x0 DUP2 MLOAD SWAP1 POP PUSH2 0x2CE5 DUP2 PUSH2 0x2CBF JUMP JUMPDEST SWAP3 SWAP2 POP POP JUMP JUMPDEST PUSH1 0x0 PUSH1 0x20 DUP3 DUP5 SUB SLT ISZERO PUSH2 0x2D01 JUMPI PUSH2 0x2D00 PUSH2 0x1C2A JUMP JUMPDEST JUMPDEST PUSH1 0x0 PUSH2 0x2D0F DUP5 DUP3 DUP6 ADD PUSH2 0x2CD6 JUMP JUMPDEST SWAP2 POP POP SWAP3 SWAP2 POP POP JUMP JUMPDEST PUSH32 0x77726F6E6720636F6E7465737420737461746500000000000000000000000000 PUSH1 0x0 DUP3 ADD MSTORE POP JUMP JUMPDEST PUSH1 0x0 PUSH2 0x2D4E PUSH1 0x13 DUP4 PUSH2 0x26FE JUMP JUMPDEST SWAP2 POP PUSH2 0x2D59 DUP3 PUSH2 0x2D18 JUMP JUMPDEST PUSH1 0x20 DUP3 ADD SWAP1 POP SWAP2 SWAP1 POP JUMP JUMPDEST PUSH1 0x0 PUSH1 0x20 DUP3 ADD SWAP1 POP DUP2 DUP2 SUB PUSH1 0x0 DUP4 ADD MSTORE PUSH2 0x2D7D DUP2 PUSH2 0x2D41 JUMP JUMPDEST SWAP1 POP SWAP2 SWAP1 POP JUMP JUMPDEST PUSH1 0x0 PUSH1 0xC0 DUP3 DUP5 SUB SLT ISZERO PUSH2 0x2D9A JUMPI PUSH2 0x2D99 PUSH2 0x2822 JUMP JUMPDEST JUMPDEST PUSH2 0x2DA4 PUSH1 0xC0 PUSH2 0x1E17 JUMP JUMPDEST SWAP1 POP PUSH1 0x0 DUP3 ADD MLOAD PUSH8 0xFFFFFFFFFFFFFFFF DUP2 GT ISZERO PUSH2 0x2DC4 JUMPI PUSH2 0x2DC3 PUSH2 0x2827 JUMP JUMPDEST JUMPDEST PUSH2 0x2DD0 DUP5 DUP3 DUP6 ADD PUSH2 0x2883 JUMP JUMPDEST PUSH1 0x0 DUP4 ADD MSTORE POP PUSH1 0x20 DUP3 ADD MLOAD PUSH8 0xFFFFFFFFFFFFFFFF DUP2 GT ISZERO PUSH2 0x2DF4 JUMPI PUSH2 0x2DF3 PUSH2 0x2827 JUMP JUMPDEST JUMPDEST PUSH2 0x2E00 DUP5 DUP3 DUP6 ADD PUSH2 0x2883 JUMP JUMPDEST PUSH1 0x20 DUP4 ADD MSTORE POP PUSH1 0x40 PUSH2 0x2E14 DUP5 DUP3 DUP6 ADD PUSH2 0x282C JUMP JUMPDEST PUSH1 0x40 DUP4 ADD MSTORE POP PUSH1 0x60 PUSH2 0x2E28 DUP5 DUP3 DUP6 ADD PUSH2 0x282C JUMP JUMPDEST PUSH1 0x60 DUP4 ADD MSTORE POP PUSH1 0x80 PUSH2 0x2E3C DUP5 DUP3 DUP6 ADD PUSH2 0x282C JUMP JUMPDEST PUSH1 0x80 DUP4 ADD MSTORE POP PUSH1 0xA0 DUP3 ADD MLOAD PUSH8 0xFFFFFFFFFFFFFFFF DUP2 GT ISZERO PUSH2 0x2E60 JUMPI PUSH2 0x2E5F PUSH2 0x2827 JUMP JUMPDEST JUMPDEST PUSH2 0x2E6C DUP5 DUP3 DUP6 ADD PUSH2 0x2883 JUMP JUMPDEST PUSH1 0xA0 DUP4 ADD MSTORE POP SWAP3 SWAP2 POP POP JUMP JUMPDEST PUSH1 0x4 DUP2 LT PUSH2 0x2E85 JUMPI PUSH1 0x0 DUP1 REVERT JUMPDEST POP JUMP JUMPDEST PUSH1 0x0 DUP2 MLOAD SWAP1 POP PUSH2 0x2E97 DUP2 PUSH2 0x2E78 JUMP JUMPDEST SWAP3 SWAP2 POP POP JUMP JUMPDEST PUSH1 0x0 PUSH1 0xA0 DUP3 DUP5 SUB SLT ISZERO PUSH2 0x2EB3 JUMPI PUSH2 0x2EB2 PUSH2 0x2822 JUMP JUMPDEST JUMPDEST PUSH2 0x2EBD PUSH1 0xA0 PUSH2 0x1E17 JUMP JUMPDEST SWAP1 POP PUSH1 0x0 PUSH2 0x2ECD DUP5 DUP3 DUP6 ADD PUSH2 0x282C JUMP JUMPDEST PUSH1 0x0 DUP4 ADD MSTORE POP PUSH1 0x20 DUP3 ADD MLOAD PUSH8 0xFFFFFFFFFFFFFFFF DUP2 GT ISZERO PUSH2 0x2EF1 JUMPI PUSH2 0x2EF0 PUSH2 0x2827 JUMP JUMPDEST JUMPDEST PUSH2 0x2EFD DUP5 DUP3 DUP6 ADD PUSH2 0x2D84 JUMP JUMPDEST PUSH1 0x20 DUP4 ADD MSTORE POP PUSH1 0x40 PUSH2 0x2F11 DUP5 DUP3 DUP6 ADD PUSH2 0x2964 JUMP JUMPDEST PUSH1 0x40 DUP4 ADD MSTORE POP PUSH1 0x60 PUSH2 0x2F25 DUP5 DUP3 DUP6 ADD PUSH2 0x2E88 JUMP JUMPDEST PUSH1 0x60 DUP4 ADD MSTORE POP PUSH1 0x80 PUSH2 0x2F39 DUP5 DUP3 DUP6 ADD PUSH2 0x282C JUMP JUMPDEST PUSH1 0x80 DUP4 ADD MSTORE POP SWAP3 SWAP2 POP POP JUMP JUMPDEST PUSH1 0x0 PUSH1 0x20 DUP3 DUP5 SUB SLT ISZERO PUSH2 0x2F5B JUMPI PUSH2 0x2F5A PUSH2 0x1C2A JUMP JUMPDEST JUMPDEST PUSH1 0x0 DUP3 ADD MLOAD PUSH8 0xFFFFFFFFFFFFFFFF DUP2 GT ISZERO PUSH2 0x2F79 JUMPI PUSH2 0x2F78 PUSH2 0x1C2F JUMP JUMPDEST JUMPDEST PUSH2 0x2F85 DUP5 DUP3 DUP6 ADD PUSH2 0x2E9D JUMP JUMPDEST SWAP2 POP POP SWAP3 SWAP2 POP POP JUMP JUMPDEST PUSH32 0x6F6E6C7920636F6E74657374206F776E65720000000000000000000000000000 PUSH1 0x0 DUP3 ADD MSTORE POP JUMP JUMPDEST PUSH1 0x0 PUSH2 0x2FC4 PUSH1 0x12 DUP4 PUSH2 0x26FE JUMP JUMPDEST SWAP2 POP PUSH2 0x2FCF DUP3 PUSH2 0x2F8E JUMP JUMPDEST PUSH1 0x20 DUP3 ADD SWAP1 POP SWAP2 SWAP1 POP JUMP JUMPDEST PUSH1 0x0 PUSH1 0x20 DUP3 ADD SWAP1 POP DUP2 DUP2 SUB PUSH1 0x0 DUP4 ADD MSTORE PUSH2 0x2FF3 DUP2 PUSH2 0x2FB7 JUMP JUMPDEST SWAP1 POP SWAP2 SWAP1 POP JUMP JUMPDEST PUSH32 0x4E487B7100000000000000000000000000000000000000000000000000000000 PUSH1 0x0 MSTORE PUSH1 0x22 PUSH1 0x4 MSTORE PUSH1 0x24 PUSH1 0x0 REVERT JUMPDEST PUSH1 0x0 PUSH1 0x2 DUP3 DIV SWAP1 POP PUSH1 0x1 DUP3 AND DUP1 PUSH2 0x3041 JUMPI PUSH1 0x7F DUP3 AND SWAP2 POP JUMPDEST PUSH1 0x20 DUP3 LT DUP2 EQ ISZERO PUSH2 0x3055 JUMPI PUSH2 0x3054 PUSH2 0x2FFA JUMP JUMPDEST JUMPDEST POP SWAP2 SWAP1 POP JUMP JUMPDEST PUSH32 0x616C72656164792072657665616C656400000000000000000000000000000000 PUSH1 0x0 DUP3 ADD MSTORE POP JUMP JUMPDEST PUSH1 0x0 PUSH2 0x3091 PUSH1 0x10 DUP4 PUSH2 0x26FE JUMP JUMPDEST SWAP2 POP PUSH2 0x309C DUP3 PUSH2 0x305B JUMP JUMPDEST PUSH1 0x20 DUP3 ADD SWAP1 POP SWAP2 SWAP1 POP JUMP JUMPDEST PUSH1 0x0 PUSH1 0x20 DUP3 ADD SWAP1 POP DUP2 DUP2 SUB PUSH1 0x0 DUP4 ADD MSTORE PUSH2 0x30C0 DUP2 PUSH2 0x3084 JUMP JUMPDEST SWAP1 POP SWAP2 SWAP1 POP JUMP JUMPDEST PUSH1 0x0 DUP2 SWAP1 POP SWAP3 SWAP2 POP POP JUMP JUMPDEST PUSH1 0x0 PUSH2 0x30DD DUP3 PUSH2 0x23DC JUMP JUMPDEST PUSH2 0x30E7 DUP2 DUP6 PUSH2 0x30C7 JUMP JUMPDEST SWAP4 POP PUSH2 0x30F7 DUP2 DUP6 PUSH1 0x20 DUP7 ADD PUSH2 0x23F8 JUMP JUMPDEST DUP1 DUP5 ADD SWAP2 POP POP SWAP3 SWAP2 POP POP JUMP JUMPDEST PUSH1 0x0 DUP2 SWAP1 POP SWAP2 SWAP1 POP JUMP JUMPDEST PUSH2 0x311E PUSH2 0x3119 DUP3 PUSH2 0x20BC JUMP JUMPDEST PUSH2 0x3103 JUMP JUMPDEST DUP3 MSTORE POP POP JUMP JUMPDEST PUSH1 0x0 PUSH2 0x3130 DUP3 DUP6 PUSH2 0x30D2 JUMP JUMPDEST SWAP2 POP PUSH2 0x313C DUP3 DUP5 PUSH2 0x310D JUMP JUMPDEST PUSH1 0x20 DUP3 ADD SWAP2 POP DUP2 SWAP1 POP SWAP4 SWAP3 POP POP POP JUMP JUMPDEST PUSH32 0x646F6573206E6F74206D6174636820636F6D6D69746D656E7400000000000000 PUSH1 0x0 DUP3 ADD MSTORE POP JUMP JUMPDEST PUSH1 0x0 PUSH2 0x3182 PUSH1 0x19 DUP4 PUSH2 0x26FE JUMP JUMPDEST SWAP2 POP PUSH2 0x318D DUP3 PUSH2 0x314C JUMP JUMPDEST PUSH1 0x20 DUP3 ADD SWAP1 POP SWAP2 SWAP1 POP JUMP JUMPDEST PUSH1 0x0 PUSH1 0x20 DUP3 ADD SWAP1 POP DUP2 DUP2 SUB PUSH1 0x0 DUP4 ADD MSTORE PUSH2 0x31B1 DUP2 PUSH2 0x3175 JUMP JUMPDEST SWAP1 POP SWAP2 SWAP1 POP JUMP JUMPDEST PUSH1 0x0 PUSH2 0x31C3 DUP3 PUSH2 0x1C34 JUMP JUMPDEST SWAP2 POP PUSH2 0x31CE DUP4 PUSH2 0x1C34 JUMP JUMPDEST SWAP3 POP DUP3 DUP3 LT ISZERO PUSH2 0x31E1 JUMPI PUSH2 0x31E0 PUSH2 0x27AA JUMP JUMPDEST JUMPDEST DUP3 DUP3 SUB SWAP1 POP SWAP3 SWAP2 POP POP JUMP JUMPDEST PUSH32 0x4E487B7100000000000000000000000000000000000000000000000000000000 PUSH1 0x0 MSTORE PUSH1 0x31 PUSH1 0x4 MSTORE PUSH1 0x24 PUSH1 0x0 REVERT INVALID LOG2 PUSH5 0x6970667358 0x22 SLT KECCAK256 0x27 0xDF PUSH24 0x227DA74295B269603F9750AEA5A4F2FC0D23F80D39B70F17 0xC5 SWAP13 JUMPI PUSH2 0xB64 PUSH20 0x6F6C634300080C00330000000000000000000000 "
		},
		"gasEstimates": {
			"creation": {
				"codeDepositCost": "2576200",
				"executionCost": "infinite",
				"totalCost": "infinite"
			},
			"external": {
				"commitForAdmin(uint256,uint256,bytes32)": "infinite",
				"commitForMember(uint256,uint256,uint256,bytes32)": "infinite",
				"get(uint256)": "infinite",
				"getChallengeAnswerMoveId(uint256)": "infinite",
				"getChallengeTeamSubmitMoveId(uint256,uint256)": "infinite",
				"getContestAnswerIds(uint256)": "infinite",
				"getContestSubmitIds(uint256)": "infinite",
				"getCount()": "2609",
				"getMove(uint256)": "infinite",
				"moves(uint256)": "infinite",
				"nextId()": "2474",
				"revealForAdmins(uint256,uint256[],string[],bytes32[])": "infinite",
				"revealForMembers(uint256,uint256,uint256[],string[],bytes32[])": "infinite"
			},
			"internal": {
				"_commit(uint256,uint256,uint256,bytes32)": "infinite",
				"_reveal(uint256,string memory,bytes32)": "infinite",
				"_revealForAdmin(uint256,uint256,string memory,bytes32)": "infinite",
				"_revealForMember(uint256,uint256,uint256,string memory,bytes32)": "infinite"
			}
		},
		"methodIdentifiers": {
			"commitForAdmin(uint256,uint256,bytes32)": "5aeba835",
			"commitForMember(uint256,uint256,uint256,bytes32)": "3c1fc8c8",
			"get(uint256)": "9507d39a",
			"getChallengeAnswerMoveId(uint256)": "0abcad0f",
			"getChallengeTeamSubmitMoveId(uint256,uint256)": "a8f0a382",
			"getContestAnswerIds(uint256)": "19488c09",
			"getContestSubmitIds(uint256)": "30d6345a",
			"getCount()": "a87d942c",
			"getMove(uint256)": "71dbd330",
			"moves(uint256)": "7698baec",
			"nextId()": "61b8ce8c",
			"revealForAdmins(uint256,uint256[],string[],bytes32[])": "44d5d1c3",
			"revealForMembers(uint256,uint256,uint256[],string[],bytes32[])": "3861d430"
		}
	},
	"abi": [
		{
			"inputs": [
				{
					"internalType": "address",
					"name": "_Contests",
					"type": "address"
				},
				{
					"internalType": "address",
					"name": "_Challenges",
					"type": "address"
				},
				{
					"internalType": "address",
					"name": "_Teams",
					"type": "address"
				}
			],
			"stateMutability": "nonpayable",
			"type": "constructor"
		},
		{
			"inputs": [
				{
					"internalType": "uint256",
					"name": "contestId",
					"type": "uint256"
				},
				{
					"internalType": "uint256",
					"name": "challengeId",
					"type": "uint256"
				},
				{
					"internalType": "bytes32",
					"name": "hash",
					"type": "bytes32"
				}
			],
			"name": "commitForAdmin",
			"outputs": [],
			"stateMutability": "nonpayable",
			"type": "function"
		},
		{
			"inputs": [
				{
					"internalType": "uint256",
					"name": "contestId",
					"type": "uint256"
				},
				{
					"internalType": "uint256",
					"name": "teamId",
					"type": "uint256"
				},
				{
					"internalType": "uint256",
					"name": "challengeId",
					"type": "uint256"
				},
				{
					"internalType": "bytes32",
					"name": "hash",
					"type": "bytes32"
				}
			],
			"name": "commitForMember",
			"outputs": [],
			"stateMutability": "nonpayable",
			"type": "function"
		},
		{
			"inputs": [
				{
					"internalType": "uint256",
					"name": "index",
					"type": "uint256"
				}
			],
			"name": "get",
			"outputs": [
				{
					"components": [
						{
							"internalType": "uint256",
							"name": "id",
							"type": "uint256"
						},
						{
							"internalType": "uint256",
							"name": "contestId",
							"type": "uint256"
						},
						{
							"internalType": "uint256",
							"name": "challengeId",
							"type": "uint256"
						},
						{
							"internalType": "uint256",
							"name": "teamId",
							"type": "uint256"
						},
						{
							"components": [
								{
									"internalType": "bytes32",
									"name": "hash",
									"type": "bytes32"
								},
								{
									"internalType": "string",
									"name": "flag",
									"type": "string"
								},
								{
									"internalType": "bytes32",
									"name": "salt",
									"type": "bytes32"
								}
							],
							"internalType": "struct IMoves.IMove",
							"name": "info",
							"type": "tuple"
						},
						{
							"internalType": "enum IMoves.MoveState",
							"name": "state",
							"type": "uint8"
						},
						{
							"internalType": "uint256",
							"name": "timeStamp",
							"type": "uint256"
						}
					],
					"internalType": "struct IMoves.Move",
					"name": "",
					"type": "tuple"
				}
			],
			"stateMutability": "view",
			"type": "function"
		},
		{
			"inputs": [
				{
					"internalType": "uint256",
					"name": "challengeId",
					"type": "uint256"
				}
			],
			"name": "getChallengeAnswerMoveId",
			"outputs": [
				{
					"internalType": "uint256",
					"name": "",
					"type": "uint256"
				}
			],
			"stateMutability": "view",
			"type": "function"
		},
		{
			"inputs": [
				{
					"internalType": "uint256",
					"name": "challengeId",
					"type": "uint256"
				},
				{
					"internalType": "uint256",
					"name": "teamId",
					"type": "uint256"
				}
			],
			"name": "getChallengeTeamSubmitMoveId",
			"outputs": [
				{
					"internalType": "uint256",
					"name": "",
					"type": "uint256"
				}
			],
			"stateMutability": "view",
			"type": "function"
		},
		{
			"inputs": [
				{
					"internalType": "uint256",
					"name": "contestId",
					"type": "uint256"
				}
			],
			"name": "getContestAnswerIds",
			"outputs": [
				{
					"internalType": "uint256[]",
					"name": "",
					"type": "uint256[]"
				}
			],
			"stateMutability": "view",
			"type": "function"
		},
		{
			"inputs": [
				{
					"internalType": "uint256",
					"name": "contestId",
					"type": "uint256"
				}
			],
			"name": "getContestSubmitIds",
			"outputs": [
				{
					"internalType": "uint256[]",
					"name": "",
					"type": "uint256[]"
				}
			],
			"stateMutability": "view",
			"type": "function"
		},
		{
			"inputs": [],
			"name": "getCount",
			"outputs": [
				{
					"internalType": "uint256",
					"name": "",
					"type": "uint256"
				}
			],
			"stateMutability": "view",
			"type": "function"
		},
		{
			"inputs": [
				{
					"internalType": "uint256",
					"name": "id",
					"type": "uint256"
				}
			],
			"name": "getMove",
			"outputs": [
				{
					"components": [
						{
							"internalType": "uint256",
							"name": "id",
							"type": "uint256"
						},
						{
							"internalType": "uint256",
							"name": "contestId",
							"type": "uint256"
						},
						{
							"internalType": "uint256",
							"name": "challengeId",
							"type": "uint256"
						},
						{
							"internalType": "uint256",
							"name": "teamId",
							"type": "uint256"
						},
						{
							"components": [
								{
									"internalType": "bytes32",
									"name": "hash",
									"type": "bytes32"
								},
								{
									"internalType": "string",
									"name": "flag",
									"type": "string"
								},
								{
									"internalType": "bytes32",
									"name": "salt",
									"type": "bytes32"
								}
							],
							"internalType": "struct IMoves.IMove",
							"name": "info",
							"type": "tuple"
						},
						{
							"internalType": "enum IMoves.MoveState",
							"name": "state",
							"type": "uint8"
						},
						{
							"internalType": "uint256",
							"name": "timeStamp",
							"type": "uint256"
						}
					],
					"internalType": "struct IMoves.Move",
					"name": "",
					"type": "tuple"
				}
			],
			"stateMutability": "view",
			"type": "function"
		},
		{
			"inputs": [
				{
					"internalType": "uint256",
					"name": "",
					"type": "uint256"
				}
			],
			"name": "moves",
			"outputs": [
				{
					"internalType": "uint256",
					"name": "id",
					"type": "uint256"
				},
				{
					"internalType": "uint256",
					"name": "contestId",
					"type": "uint256"
				},
				{
					"internalType": "uint256",
					"name": "challengeId",
					"type": "uint256"
				},
				{
					"internalType": "uint256",
					"name": "teamId",
					"type": "uint256"
				},
				{
					"components": [
						{
							"internalType": "bytes32",
							"name": "hash",
							"type": "bytes32"
						},
						{
							"internalType": "string",
							"name": "flag",
							"type": "string"
						},
						{
							"internalType": "bytes32",
							"name": "salt",
							"type": "bytes32"
						}
					],
					"internalType": "struct IMoves.IMove",
					"name": "info",
					"type": "tuple"
				},
				{
					"internalType": "enum IMoves.MoveState",
					"name": "state",
					"type": "uint8"
				},
				{
					"internalType": "uint256",
					"name": "timeStamp",
					"type": "uint256"
				}
			],
			"stateMutability": "view",
			"type": "function"
		},
		{
			"inputs": [],
			"name": "nextId",
			"outputs": [
				{
					"internalType": "uint256",
					"name": "",
					"type": "uint256"
				}
			],
			"stateMutability": "view",
			"type": "function"
		},
		{
			"inputs": [
				{
					"internalType": "uint256",
					"name": "contestId",
					"type": "uint256"
				},
				{
					"internalType": "uint256[]",
					"name": "challengeIds",
					"type": "uint256[]"
				},
				{
					"internalType": "string[]",
					"name": "flags",
					"type": "string[]"
				},
				{
					"internalType": "bytes32[]",
					"name": "salts",
					"type": "bytes32[]"
				}
			],
			"name": "revealForAdmins",
			"outputs": [],
			"stateMutability": "nonpayable",
			"type": "function"
		},
		{
			"inputs": [
				{
					"internalType": "uint256",
					"name": "contestId",
					"type": "uint256"
				},
				{
					"internalType": "uint256",
					"name": "teamId",
					"type": "uint256"
				},
				{
					"internalType": "uint256[]",
					"name": "challengeIds",
					"type": "uint256[]"
				},
				{
					"internalType": "string[]",
					"name": "flags",
					"type": "string[]"
				},
				{
					"internalType": "bytes32[]",
					"name": "salts",
					"type": "bytes32[]"
				}
			],
			"name": "revealForMembers",
			"outputs": [],
			"stateMutability": "nonpayable",
			"type": "function"
		}
	]
}