{
  "contractName": "AccessContr0l",
  "abi": [
    {
      "inputs": [
        {
          "internalType": "address",
          "name": "systemAdmin",
          "type": "address"
        }
      ],
      "stateMutability": "nonpayable",
      "type": "constructor"
    },
    {
      "anonymous": false,
      "inputs": [
        {
          "indexed": true,
          "internalType": "bytes32",
          "name": "role",
          "type": "bytes32"
        },
        {
          "indexed": true,
          "internalType": "bytes32",
          "name": "previousAdminRole",
          "type": "bytes32"
        },
        {
          "indexed": true,
          "internalType": "bytes32",
          "name": "newAdminRole",
          "type": "bytes32"
        }
      ],
      "name": "RoleAdminChanged",
      "type": "event"
    },
    {
      "anonymous": false,
      "inputs": [
        {
          "indexed": true,
          "internalType": "bytes32",
          "name": "role",
          "type": "bytes32"
        },
        {
          "indexed": true,
          "internalType": "address",
          "name": "account",
          "type": "address"
        },
        {
          "indexed": true,
          "internalType": "address",
          "name": "sender",
          "type": "address"
        }
      ],
      "name": "RoleGranted",
      "type": "event"
    },
    {
      "anonymous": false,
      "inputs": [
        {
          "indexed": true,
          "internalType": "bytes32",
          "name": "role",
          "type": "bytes32"
        },
        {
          "indexed": true,
          "internalType": "address",
          "name": "account",
          "type": "address"
        },
        {
          "indexed": true,
          "internalType": "address",
          "name": "sender",
          "type": "address"
        }
      ],
      "name": "RoleRevoked",
      "type": "event"
    },
    {
      "inputs": [],
      "name": "CONTEST_ADMIN",
      "outputs": [
        {
          "internalType": "bytes32",
          "name": "",
          "type": "bytes32"
        }
      ],
      "stateMutability": "view",
      "type": "function",
      "constant": true
    },
    {
      "inputs": [],
      "name": "DEFAULT_ADMIN_ROLE",
      "outputs": [
        {
          "internalType": "bytes32",
          "name": "",
          "type": "bytes32"
        }
      ],
      "stateMutability": "view",
      "type": "function",
      "constant": true
    },
    {
      "inputs": [],
      "name": "SYSTEM_ADMIN",
      "outputs": [
        {
          "internalType": "bytes32",
          "name": "",
          "type": "bytes32"
        }
      ],
      "stateMutability": "view",
      "type": "function",
      "constant": true
    },
    {
      "inputs": [
        {
          "internalType": "bytes32",
          "name": "role",
          "type": "bytes32"
        }
      ],
      "name": "getRoleAdmin",
      "outputs": [
        {
          "internalType": "bytes32",
          "name": "",
          "type": "bytes32"
        }
      ],
      "stateMutability": "view",
      "type": "function",
      "constant": true
    },
    {
      "inputs": [
        {
          "internalType": "bytes32",
          "name": "role",
          "type": "bytes32"
        },
        {
          "internalType": "uint256",
          "name": "index",
          "type": "uint256"
        }
      ],
      "name": "getRoleMember",
      "outputs": [
        {
          "internalType": "address",
          "name": "",
          "type": "address"
        }
      ],
      "stateMutability": "view",
      "type": "function",
      "constant": true
    },
    {
      "inputs": [
        {
          "internalType": "bytes32",
          "name": "role",
          "type": "bytes32"
        }
      ],
      "name": "getRoleMemberCount",
      "outputs": [
        {
          "internalType": "uint256",
          "name": "",
          "type": "uint256"
        }
      ],
      "stateMutability": "view",
      "type": "function",
      "constant": true
    },
    {
      "inputs": [
        {
          "internalType": "bytes32",
          "name": "role",
          "type": "bytes32"
        },
        {
          "internalType": "address",
          "name": "account",
          "type": "address"
        }
      ],
      "name": "grantRole",
      "outputs": [],
      "stateMutability": "nonpayable",
      "type": "function"
    },
    {
      "inputs": [
        {
          "internalType": "bytes32",
          "name": "role",
          "type": "bytes32"
        },
        {
          "internalType": "address",
          "name": "account",
          "type": "address"
        }
      ],
      "name": "hasRole",
      "outputs": [
        {
          "internalType": "bool",
          "name": "",
          "type": "bool"
        }
      ],
      "stateMutability": "view",
      "type": "function",
      "constant": true
    },
    {
      "inputs": [
        {
          "internalType": "bytes32",
          "name": "role",
          "type": "bytes32"
        },
        {
          "internalType": "address",
          "name": "account",
          "type": "address"
        }
      ],
      "name": "renounceRole",
      "outputs": [],
      "stateMutability": "nonpayable",
      "type": "function"
    },
    {
      "inputs": [
        {
          "internalType": "bytes32",
          "name": "role",
          "type": "bytes32"
        },
        {
          "internalType": "address",
          "name": "account",
          "type": "address"
        }
      ],
      "name": "revokeRole",
      "outputs": [],
      "stateMutability": "nonpayable",
      "type": "function"
    },
    {
      "inputs": [
        {
          "internalType": "bytes4",
          "name": "interfaceId",
          "type": "bytes4"
        }
      ],
      "name": "supportsInterface",
      "outputs": [
        {
          "internalType": "bool",
          "name": "",
          "type": "bool"
        }
      ],
      "stateMutability": "view",
      "type": "function",
      "constant": true
    },
    {
      "inputs": [
        {
          "internalType": "bytes32",
          "name": "role",
          "type": "bytes32"
        },
        {
          "internalType": "address[]",
          "name": "accounts",
          "type": "address[]"
        }
      ],
      "name": "grantRoles",
      "outputs": [],
      "stateMutability": "nonpayable",
      "type": "function"
    },
    {
      "inputs": [
        {
          "internalType": "bytes32",
          "name": "role",
          "type": "bytes32"
        },
        {
          "internalType": "address[]",
          "name": "accounts",
          "type": "address[]"
        }
      ],
      "name": "revokeRoles",
      "outputs": [],
      "stateMutability": "nonpayable",
      "type": "function"
    }
  ],
  "bytecode": "0x60806040523480156200001157600080fd5b5060405162001be338038062001be3833981810160405281019062000037919062000444565b620000897f2ac4b647885dc0812ed26210d6a36d5f1c8de284183a5e4c171119cd3b54458a7f74966176c367549066de941fecec46be0069530384452daa9c31d709c544e639620000c260201b60201c565b620000bb7f74966176c367549066de941fecec46be0069530384452daa9c31d709c544e639826200012560201b60201c565b5062000476565b6000620000d5836200013b60201b60201c565b905081600080858152602001908152602001600020600101819055508181847fbd79b86ffe0ab8e8776151514217cd7cacd52c909f66475c3af44e129f0b00ff60405160405180910390a4505050565b6200013782826200015a60201b60201c565b5050565b6000806000838152602001908152602001600020600101549050919050565b620001718282620001a260201b620005b41760201c565b6200019d81600160008581526020019081526020016000206200029360201b620006941790919060201c565b505050565b620001b48282620002cb60201b60201c565b6200028f57600160008084815260200190815260200160002060000160008373ffffffffffffffffffffffffffffffffffffffff1673ffffffffffffffffffffffffffffffffffffffff16815260200190815260200160002060006101000a81548160ff021916908315150217905550620002346200033560201b60201c565b73ffffffffffffffffffffffffffffffffffffffff168173ffffffffffffffffffffffffffffffffffffffff16837f2f8788117e7eff1d82e926ec794901d17c78024a50270940304540a733656f0d60405160405180910390a45b5050565b6000620002c3836000018373ffffffffffffffffffffffffffffffffffffffff1660001b6200033d60201b60201c565b905092915050565b600080600084815260200190815260200160002060000160008373ffffffffffffffffffffffffffffffffffffffff1673ffffffffffffffffffffffffffffffffffffffff16815260200190815260200160002060009054906101000a900460ff16905092915050565b600033905090565b6000620003518383620003b760201b60201c565b620003ac578260000182908060018154018082558091505060019003906000526020600020016000909190919091505582600001805490508360010160008481526020019081526020016000208190555060019050620003b1565b600090505b92915050565b600080836001016000848152602001908152602001600020541415905092915050565b600080fd5b600073ffffffffffffffffffffffffffffffffffffffff82169050919050565b60006200040c82620003df565b9050919050565b6200041e81620003ff565b81146200042a57600080fd5b50565b6000815190506200043e8162000413565b92915050565b6000602082840312156200045d576200045c620003da565b5b60006200046d848285016200042d565b91505092915050565b61175d80620004866000396000f3fe608060405234801561001057600080fd5b50600436106100cf5760003560e01c80639010d07c1161008c578063ca15c87311610066578063ca15c87314610224578063d547741f14610254578063deb9a3a214610270578063ec4ab7981461028c576100cf565b80639010d07c146101a657806391d14854146101d6578063a217fddf14610206576100cf565b806301ffc9a7146100d4578063196f0f6214610104578063248a9ca3146101205780632f2ff15d1461015057806336568abe1461016c578063852757ad14610188575b600080fd5b6100ee60048036038101906100e99190610e80565b6102aa565b6040516100fb9190610ec8565b60405180910390f35b61011e600480360381019061011991906110d0565b610324565b005b61013a6004803603810190610135919061112c565b61036c565b6040516101479190611168565b60405180910390f35b61016a60048036038101906101659190611183565b61038b565b005b61018660048036038101906101819190611183565b6103b4565b005b610190610437565b60405161019d9190611168565b60405180910390f35b6101c060048036038101906101bb91906111f9565b61045b565b6040516101cd9190611248565b60405180910390f35b6101f060048036038101906101eb9190611183565b61048a565b6040516101fd9190610ec8565b60405180910390f35b61020e6104f4565b60405161021b9190611168565b60405180910390f35b61023e6004803603810190610239919061112c565b6104fb565b60405161024b9190611272565b60405180910390f35b61026e60048036038101906102699190611183565b61051f565b005b61028a600480360381019061028591906110d0565b610548565b005b610294610590565b6040516102a19190611168565b60405180910390f35b60007f5a05180f000000000000000000000000000000000000000000000000000000007bffffffffffffffffffffffffffffffffffffffffffffffffffffffff1916827bffffffffffffffffffffffffffffffffffffffffffffffffffffffff1916148061031d575061031c826106c4565b5b9050919050565b60005b815181101561036757610354838383815181106103475761034661128d565b5b602002602001015161051f565b808061035f906112eb565b915050610327565b505050565b6000806000838152602001908152602001600020600101549050919050565b6103948261036c565b6103a5816103a061073e565b610746565b6103af83836107e3565b505050565b6103bc61073e565b73ffffffffffffffffffffffffffffffffffffffff168173ffffffffffffffffffffffffffffffffffffffff1614610429576040517f08c379a0000000000000000000000000000000000000000000000000000000008152600401610420906113b7565b60405180910390fd5b6104338282610817565b5050565b7f74966176c367549066de941fecec46be0069530384452daa9c31d709c544e63981565b6000610482826001600086815260200190815260200160002061084b90919063ffffffff16565b905092915050565b600080600084815260200190815260200160002060000160008373ffffffffffffffffffffffffffffffffffffffff1673ffffffffffffffffffffffffffffffffffffffff16815260200190815260200160002060009054906101000a900460ff16905092915050565b6000801b81565b600061051860016000848152602001908152602001600020610865565b9050919050565b6105288261036c565b6105398161053461073e565b610746565b6105438383610817565b505050565b60005b815181101561058b576105788383838151811061056b5761056a61128d565b5b602002602001015161038b565b8080610583906112eb565b91505061054b565b505050565b7f2ac4b647885dc0812ed26210d6a36d5f1c8de284183a5e4c171119cd3b54458a81565b6105be828261048a565b61069057600160008084815260200190815260200160002060000160008373ffffffffffffffffffffffffffffffffffffffff1673ffffffffffffffffffffffffffffffffffffffff16815260200190815260200160002060006101000a81548160ff02191690831515021790555061063561073e565b73ffffffffffffffffffffffffffffffffffffffff168173ffffffffffffffffffffffffffffffffffffffff16837f2f8788117e7eff1d82e926ec794901d17c78024a50270940304540a733656f0d60405160405180910390a45b5050565b60006106bc836000018373ffffffffffffffffffffffffffffffffffffffff1660001b61087a565b905092915050565b60007f7965db0b000000000000000000000000000000000000000000000000000000007bffffffffffffffffffffffffffffffffffffffffffffffffffffffff1916827bffffffffffffffffffffffffffffffffffffffffffffffffffffffff191614806107375750610736826108ea565b5b9050919050565b600033905090565b610750828261048a565b6107df576107758173ffffffffffffffffffffffffffffffffffffffff166014610954565b6107838360001c6020610954565b6040516020016107949291906114e9565b6040516020818303038152906040526040517f08c379a00000000000000000000000000000000000000000000000000000000081526004016107d6919061155c565b60405180910390fd5b5050565b6107ed82826105b4565b610812816001600085815260200190815260200160002061069490919063ffffffff16565b505050565b6108218282610b90565b6108468160016000858152602001908152602001600020610c7190919063ffffffff16565b505050565b600061085a8360000183610ca1565b60001c905092915050565b600061087382600001610ccc565b9050919050565b60006108868383610cdd565b6108df5782600001829080600181540180825580915050600190039060005260206000200160009091909190915055826000018054905083600101600084815260200190815260200160002081905550600190506108e4565b600090505b92915050565b60007f01ffc9a7000000000000000000000000000000000000000000000000000000007bffffffffffffffffffffffffffffffffffffffffffffffffffffffff1916827bffffffffffffffffffffffffffffffffffffffffffffffffffffffff1916149050919050565b606060006002836002610967919061157e565b61097191906115d8565b67ffffffffffffffff81111561098a57610989610f2f565b5b6040519080825280601f01601f1916602001820160405280156109bc5781602001600182028036833780820191505090505b5090507f3000000000000000000000000000000000000000000000000000000000000000816000815181106109f4576109f361128d565b5b60200101907effffffffffffffffffffffffffffffffffffffffffffffffffffffffffffff1916908160001a9053507f780000000000000000000000000000000000000000000000000000000000000081600181518110610a5857610a5761128d565b5b60200101907effffffffffffffffffffffffffffffffffffffffffffffffffffffffffffff1916908160001a90535060006001846002610a98919061157e565b610aa291906115d8565b90505b6001811115610b42577f3031323334353637383961626364656600000000000000000000000000000000600f861660108110610ae457610ae361128d565b5b1a60f81b828281518110610afb57610afa61128d565b5b60200101907effffffffffffffffffffffffffffffffffffffffffffffffffffffffffffff1916908160001a905350600485901c945080610b3b9061162e565b9050610aa5565b5060008414610b86576040517f08c379a0000000000000000000000000000000000000000000000000000000008152600401610b7d906116a4565b60405180910390fd5b8091505092915050565b610b9a828261048a565b15610c6d57600080600084815260200190815260200160002060000160008373ffffffffffffffffffffffffffffffffffffffff1673ffffffffffffffffffffffffffffffffffffffff16815260200190815260200160002060006101000a81548160ff021916908315150217905550610c1261073e565b73ffffffffffffffffffffffffffffffffffffffff168173ffffffffffffffffffffffffffffffffffffffff16837ff6391f5c32d9c69d2a47ea670b442974b53935d1edc7fd64eb21e047a839171b60405160405180910390a45b5050565b6000610c99836000018373ffffffffffffffffffffffffffffffffffffffff1660001b610d00565b905092915050565b6000826000018281548110610cb957610cb861128d565b5b9060005260206000200154905092915050565b600081600001805490509050919050565b600080836001016000848152602001908152602001600020541415905092915050565b60008083600101600084815260200190815260200160002054905060008114610e08576000600182610d3291906116c4565b9050600060018660000180549050610d4a91906116c4565b9050818114610db9576000866000018281548110610d6b57610d6a61128d565b5b9060005260206000200154905080876000018481548110610d8f57610d8e61128d565b5b90600052602060002001819055508387600101600083815260200190815260200160002081905550505b85600001805480610dcd57610dcc6116f8565b5b600190038181906000526020600020016000905590558560010160008681526020019081526020016000206000905560019350505050610e0e565b60009150505b92915050565b6000604051905090565b600080fd5b600080fd5b60007fffffffff0000000000000000000000000000000000000000000000000000000082169050919050565b610e5d81610e28565b8114610e6857600080fd5b50565b600081359050610e7a81610e54565b92915050565b600060208284031215610e9657610e95610e1e565b5b6000610ea484828501610e6b565b91505092915050565b60008115159050919050565b610ec281610ead565b82525050565b6000602082019050610edd6000830184610eb9565b92915050565b6000819050919050565b610ef681610ee3565b8114610f0157600080fd5b50565b600081359050610f1381610eed565b92915050565b600080fd5b6000601f19601f8301169050919050565b7f4e487b7100000000000000000000000000000000000000000000000000000000600052604160045260246000fd5b610f6782610f1e565b810181811067ffffffffffffffff82111715610f8657610f85610f2f565b5b80604052505050565b6000610f99610e14565b9050610fa58282610f5e565b919050565b600067ffffffffffffffff821115610fc557610fc4610f2f565b5b602082029050602081019050919050565b600080fd5b600073ffffffffffffffffffffffffffffffffffffffff82169050919050565b600061100682610fdb565b9050919050565b61101681610ffb565b811461102157600080fd5b50565b6000813590506110338161100d565b92915050565b600061104c61104784610faa565b610f8f565b9050808382526020820190506020840283018581111561106f5761106e610fd6565b5b835b8181101561109857806110848882611024565b845260208401935050602081019050611071565b5050509392505050565b600082601f8301126110b7576110b6610f19565b5b81356110c7848260208601611039565b91505092915050565b600080604083850312156110e7576110e6610e1e565b5b60006110f585828601610f04565b925050602083013567ffffffffffffffff81111561111657611115610e23565b5b611122858286016110a2565b9150509250929050565b60006020828403121561114257611141610e1e565b5b600061115084828501610f04565b91505092915050565b61116281610ee3565b82525050565b600060208201905061117d6000830184611159565b92915050565b6000806040838503121561119a57611199610e1e565b5b60006111a885828601610f04565b92505060206111b985828601611024565b9150509250929050565b6000819050919050565b6111d6816111c3565b81146111e157600080fd5b50565b6000813590506111f3816111cd565b92915050565b600080604083850312156112105761120f610e1e565b5b600061121e85828601610f04565b925050602061122f858286016111e4565b9150509250929050565b61124281610ffb565b82525050565b600060208201905061125d6000830184611239565b92915050565b61126c816111c3565b82525050565b60006020820190506112876000830184611263565b92915050565b7f4e487b7100000000000000000000000000000000000000000000000000000000600052603260045260246000fd5b7f4e487b7100000000000000000000000000000000000000000000000000000000600052601160045260246000fd5b60006112f6826111c3565b91507fffffffffffffffffffffffffffffffffffffffffffffffffffffffffffffffff821415611329576113286112bc565b5b600182019050919050565b600082825260208201905092915050565b7f416363657373436f6e74726f6c3a2063616e206f6e6c792072656e6f756e636560008201527f20726f6c657320666f722073656c660000000000000000000000000000000000602082015250565b60006113a1602f83611334565b91506113ac82611345565b604082019050919050565b600060208201905081810360008301526113d081611394565b9050919050565b600081905092915050565b7f416363657373436f6e74726f6c3a206163636f756e7420000000000000000000600082015250565b60006114186017836113d7565b9150611423826113e2565b601782019050919050565b600081519050919050565b60005b8381101561145757808201518184015260208101905061143c565b83811115611466576000848401525b50505050565b60006114778261142e565b61148181856113d7565b9350611491818560208601611439565b80840191505092915050565b7f206973206d697373696e6720726f6c6520000000000000000000000000000000600082015250565b60006114d36011836113d7565b91506114de8261149d565b601182019050919050565b60006114f48261140b565b9150611500828561146c565b915061150b826114c6565b9150611517828461146c565b91508190509392505050565b600061152e8261142e565b6115388185611334565b9350611548818560208601611439565b61155181610f1e565b840191505092915050565b600060208201905081810360008301526115768184611523565b905092915050565b6000611589826111c3565b9150611594836111c3565b9250817fffffffffffffffffffffffffffffffffffffffffffffffffffffffffffffffff04831182151516156115cd576115cc6112bc565b5b828202905092915050565b60006115e3826111c3565b91506115ee836111c3565b9250827fffffffffffffffffffffffffffffffffffffffffffffffffffffffffffffffff03821115611623576116226112bc565b5b828201905092915050565b6000611639826111c3565b9150600082141561164d5761164c6112bc565b5b600182039050919050565b7f537472696e67733a20686578206c656e67746820696e73756666696369656e74600082015250565b600061168e602083611334565b915061169982611658565b602082019050919050565b600060208201905081810360008301526116bd81611681565b9050919050565b60006116cf826111c3565b91506116da836111c3565b9250828210156116ed576116ec6112bc565b5b828203905092915050565b7f4e487b7100000000000000000000000000000000000000000000000000000000600052603160045260246000fdfea264697066735822122087c5e96c99c55e8e160dcd9a48e336db14005e049b7f1d417a935be3791acb2864736f6c634300080a0033",
  "immutableReferences": {},
  "source": "// SPDX-License-Identifier: MIT\npragma solidity ^0.8.10;\npragma experimental ABIEncoderV2;\n\nimport \"@openzeppelin/contracts/access/AccessControlEnumerable.sol\";\n\ncontract AccessContr0l is AccessControlEnumerable {\n\n    bytes32 public constant SYSTEM_ADMIN = keccak256(\"SYSTEM_ADMIN\");\n    bytes32 public constant CONTEST_ADMIN = keccak256(\"CONTEST_ADMIN\");\n\n    constructor(address systemAdmin) {\n        _setRoleAdmin(CONTEST_ADMIN, SYSTEM_ADMIN);\n        _setupRole(SYSTEM_ADMIN, systemAdmin);\n    }\n\n    function grantRoles(bytes32 role, address [] memory accounts) external {\n        for(uint i = 0; i < accounts.length; i++) {\n            grantRole(role, accounts[i]);\n        }\n    }\n    function revokeRoles(bytes32 role, address [] memory accounts) external {\n        for(uint i = 0; i < accounts.length; i++) {\n            revokeRole(role, accounts[i]);\n        }\n    }\n\n}",
  "sourcePath": "/Users/yhy/Code/GitHub/DCTF/contracts/AccessContr0l.sol",
  "compiler": {
    "name": "solc",
    "version": "0.8.10+commit.fc410830.Emscripten.clang"
  },
  "schemaVersion": "3.4.4",
  "updatedAt": "2022-03-04T12:31:25.746Z",
  "networkType": "ethereum",
  "devdoc": {
    "kind": "dev",
    "methods": {
      "getRoleAdmin(bytes32)": {
        "details": "Returns the admin role that controls `role`. See {grantRole} and {revokeRole}. To change a role's admin, use {_setRoleAdmin}."
      },
      "getRoleMember(bytes32,uint256)": {
        "details": "Returns one of the accounts that have `role`. `index` must be a value between 0 and {getRoleMemberCount}, non-inclusive. Role bearers are not sorted in any particular way, and their ordering may change at any point. WARNING: When using {getRoleMember} and {getRoleMemberCount}, make sure you perform all queries on the same block. See the following https://forum.openzeppelin.com/t/iterating-over-elements-on-enumerableset-in-openzeppelin-contracts/2296[forum post] for more information."
      },
      "getRoleMemberCount(bytes32)": {
        "details": "Returns the number of accounts that have `role`. Can be used together with {getRoleMember} to enumerate all bearers of a role."
      },
      "grantRole(bytes32,address)": {
        "details": "Grants `role` to `account`. If `account` had not been already granted `role`, emits a {RoleGranted} event. Requirements: - the caller must have ``role``'s admin role."
      },
      "hasRole(bytes32,address)": {
        "details": "Returns `true` if `account` has been granted `role`."
      },
      "renounceRole(bytes32,address)": {
        "details": "Revokes `role` from the calling account. Roles are often managed via {grantRole} and {revokeRole}: this function's purpose is to provide a mechanism for accounts to lose their privileges if they are compromised (such as when a trusted device is misplaced). If the calling account had been revoked `role`, emits a {RoleRevoked} event. Requirements: - the caller must be `account`."
      },
      "revokeRole(bytes32,address)": {
        "details": "Revokes `role` from `account`. If `account` had been granted `role`, emits a {RoleRevoked} event. Requirements: - the caller must have ``role``'s admin role."
      },
      "supportsInterface(bytes4)": {
        "details": "See {IERC165-supportsInterface}."
      }
    },
    "version": 1
  },
  "userdoc": {
    "kind": "user",
    "methods": {},
    "version": 1
  }
}