{
  "contractName": "AccessContr0l",
  "abi": [
    {
      "inputs": [
        {
          "internalType": "address",
          "name": "systemAdmin",
          "type": "address"
        }
      ],
      "stateMutability": "nonpayable",
      "type": "constructor"
    },
    {
      "anonymous": false,
      "inputs": [
        {
          "indexed": true,
          "internalType": "bytes32",
          "name": "role",
          "type": "bytes32"
        },
        {
          "indexed": true,
          "internalType": "bytes32",
          "name": "previousAdminRole",
          "type": "bytes32"
        },
        {
          "indexed": true,
          "internalType": "bytes32",
          "name": "newAdminRole",
          "type": "bytes32"
        }
      ],
      "name": "RoleAdminChanged",
      "type": "event"
    },
    {
      "anonymous": false,
      "inputs": [
        {
          "indexed": true,
          "internalType": "bytes32",
          "name": "role",
          "type": "bytes32"
        },
        {
          "indexed": true,
          "internalType": "address",
          "name": "account",
          "type": "address"
        },
        {
          "indexed": true,
          "internalType": "address",
          "name": "sender",
          "type": "address"
        }
      ],
      "name": "RoleGranted",
      "type": "event"
    },
    {
      "anonymous": false,
      "inputs": [
        {
          "indexed": true,
          "internalType": "bytes32",
          "name": "role",
          "type": "bytes32"
        },
        {
          "indexed": true,
          "internalType": "address",
          "name": "account",
          "type": "address"
        },
        {
          "indexed": true,
          "internalType": "address",
          "name": "sender",
          "type": "address"
        }
      ],
      "name": "RoleRevoked",
      "type": "event"
    },
    {
      "inputs": [],
      "name": "CONTEST_ADMIN",
      "outputs": [
        {
          "internalType": "bytes32",
          "name": "",
          "type": "bytes32"
        }
      ],
      "stateMutability": "view",
      "type": "function",
      "constant": true
    },
    {
      "inputs": [],
      "name": "DEFAULT_ADMIN_ROLE",
      "outputs": [
        {
          "internalType": "bytes32",
          "name": "",
          "type": "bytes32"
        }
      ],
      "stateMutability": "view",
      "type": "function",
      "constant": true
    },
    {
      "inputs": [],
      "name": "SYSTEM_ADMIN",
      "outputs": [
        {
          "internalType": "bytes32",
          "name": "",
          "type": "bytes32"
        }
      ],
      "stateMutability": "view",
      "type": "function",
      "constant": true
    },
    {
      "inputs": [
        {
          "internalType": "bytes32",
          "name": "role",
          "type": "bytes32"
        }
      ],
      "name": "getRoleAdmin",
      "outputs": [
        {
          "internalType": "bytes32",
          "name": "",
          "type": "bytes32"
        }
      ],
      "stateMutability": "view",
      "type": "function",
      "constant": true
    },
    {
      "inputs": [
        {
          "internalType": "bytes32",
          "name": "role",
          "type": "bytes32"
        },
        {
          "internalType": "uint256",
          "name": "index",
          "type": "uint256"
        }
      ],
      "name": "getRoleMember",
      "outputs": [
        {
          "internalType": "address",
          "name": "",
          "type": "address"
        }
      ],
      "stateMutability": "view",
      "type": "function",
      "constant": true
    },
    {
      "inputs": [
        {
          "internalType": "bytes32",
          "name": "role",
          "type": "bytes32"
        }
      ],
      "name": "getRoleMemberCount",
      "outputs": [
        {
          "internalType": "uint256",
          "name": "",
          "type": "uint256"
        }
      ],
      "stateMutability": "view",
      "type": "function",
      "constant": true
    },
    {
      "inputs": [
        {
          "internalType": "bytes32",
          "name": "role",
          "type": "bytes32"
        },
        {
          "internalType": "address",
          "name": "account",
          "type": "address"
        }
      ],
      "name": "grantRole",
      "outputs": [],
      "stateMutability": "nonpayable",
      "type": "function"
    },
    {
      "inputs": [
        {
          "internalType": "bytes32",
          "name": "role",
          "type": "bytes32"
        },
        {
          "internalType": "address",
          "name": "account",
          "type": "address"
        }
      ],
      "name": "hasRole",
      "outputs": [
        {
          "internalType": "bool",
          "name": "",
          "type": "bool"
        }
      ],
      "stateMutability": "view",
      "type": "function",
      "constant": true
    },
    {
      "inputs": [
        {
          "internalType": "bytes32",
          "name": "role",
          "type": "bytes32"
        },
        {
          "internalType": "address",
          "name": "account",
          "type": "address"
        }
      ],
      "name": "renounceRole",
      "outputs": [],
      "stateMutability": "nonpayable",
      "type": "function"
    },
    {
      "inputs": [
        {
          "internalType": "bytes32",
          "name": "role",
          "type": "bytes32"
        },
        {
          "internalType": "address",
          "name": "account",
          "type": "address"
        }
      ],
      "name": "revokeRole",
      "outputs": [],
      "stateMutability": "nonpayable",
      "type": "function"
    },
    {
      "inputs": [
        {
          "internalType": "bytes4",
          "name": "interfaceId",
          "type": "bytes4"
        }
      ],
      "name": "supportsInterface",
      "outputs": [
        {
          "internalType": "bool",
          "name": "",
          "type": "bool"
        }
      ],
      "stateMutability": "view",
      "type": "function",
      "constant": true
    },
    {
      "inputs": [
        {
          "internalType": "bytes32",
          "name": "role",
          "type": "bytes32"
        }
      ],
      "name": "getRoleMembers",
      "outputs": [
        {
          "internalType": "address[]",
          "name": "",
          "type": "address[]"
        }
      ],
      "stateMutability": "view",
      "type": "function",
      "constant": true
    }
  ],
  "bytecode": "0x60806040523480156200001157600080fd5b5060405162001b6e38038062001b6e833981810160405281019062000037919062000444565b620000897f2ac4b647885dc0812ed26210d6a36d5f1c8de284183a5e4c171119cd3b54458a7f74966176c367549066de941fecec46be0069530384452daa9c31d709c544e639620000c260201b60201c565b620000bb7f74966176c367549066de941fecec46be0069530384452daa9c31d709c544e639826200012560201b60201c565b5062000476565b6000620000d5836200013b60201b60201c565b905081600080858152602001908152602001600020600101819055508181847fbd79b86ffe0ab8e8776151514217cd7cacd52c909f66475c3af44e129f0b00ff60405160405180910390a4505050565b6200013782826200015a60201b60201c565b5050565b6000806000838152602001908152602001600020600101549050919050565b620001718282620001a260201b620005e31760201c565b6200019d81600160008581526020019081526020016000206200029360201b620006c31790919060201c565b505050565b620001b48282620002cb60201b60201c565b6200028f57600160008084815260200190815260200160002060000160008373ffffffffffffffffffffffffffffffffffffffff1673ffffffffffffffffffffffffffffffffffffffff16815260200190815260200160002060006101000a81548160ff021916908315150217905550620002346200033560201b60201c565b73ffffffffffffffffffffffffffffffffffffffff168173ffffffffffffffffffffffffffffffffffffffff16837f2f8788117e7eff1d82e926ec794901d17c78024a50270940304540a733656f0d60405160405180910390a45b5050565b6000620002c3836000018373ffffffffffffffffffffffffffffffffffffffff1660001b6200033d60201b60201c565b905092915050565b600080600084815260200190815260200160002060000160008373ffffffffffffffffffffffffffffffffffffffff1673ffffffffffffffffffffffffffffffffffffffff16815260200190815260200160002060009054906101000a900460ff16905092915050565b600033905090565b6000620003518383620003b760201b60201c565b620003ac578260000182908060018154018082558091505060019003906000526020600020016000909190919091505582600001805490508360010160008481526020019081526020016000208190555060019050620003b1565b600090505b92915050565b600080836001016000848152602001908152602001600020541415905092915050565b600080fd5b600073ffffffffffffffffffffffffffffffffffffffff82169050919050565b60006200040c82620003df565b9050919050565b6200041e81620003ff565b81146200042a57600080fd5b50565b6000815190506200043e8162000413565b92915050565b6000602082840312156200045d576200045c620003da565b5b60006200046d848285016200042d565b91505092915050565b6116e880620004866000396000f3fe608060405234801561001057600080fd5b50600436106100b45760003560e01c806391d148541161007157806391d148541461019f578063a217fddf146101cf578063a3246ad3146101ed578063ca15c8731461021d578063d547741f1461024d578063ec4ab79814610269576100b4565b806301ffc9a7146100b9578063248a9ca3146100e95780632f2ff15d1461011957806336568abe14610135578063852757ad146101515780639010d07c1461016f575b600080fd5b6100d360048036038101906100ce9190610ea0565b610287565b6040516100e09190610ee8565b60405180910390f35b61010360048036038101906100fe9190610f39565b610301565b6040516101109190610f75565b60405180910390f35b610133600480360381019061012e9190610fee565b610320565b005b61014f600480360381019061014a9190610fee565b610349565b005b6101596103cc565b6040516101669190610f75565b60405180910390f35b61018960048036038101906101849190611064565b6103f0565b60405161019691906110b3565b60405180910390f35b6101b960048036038101906101b49190610fee565b61041f565b6040516101c69190610ee8565b60405180910390f35b6101d7610489565b6040516101e49190610f75565b60405180910390f35b61020760048036038101906102029190610f39565b610490565b604051610214919061118c565b60405180910390f35b61023760048036038101906102329190610f39565b610572565b60405161024491906111bd565b60405180910390f35b61026760048036038101906102629190610fee565b610596565b005b6102716105bf565b60405161027e9190610f75565b60405180910390f35b60007f5a05180f000000000000000000000000000000000000000000000000000000007bffffffffffffffffffffffffffffffffffffffffffffffffffffffff1916827bffffffffffffffffffffffffffffffffffffffffffffffffffffffff191614806102fa57506102f9826106f3565b5b9050919050565b6000806000838152602001908152602001600020600101549050919050565b61032982610301565b61033a8161033561076d565b610775565b6103448383610812565b505050565b61035161076d565b73ffffffffffffffffffffffffffffffffffffffff168173ffffffffffffffffffffffffffffffffffffffff16146103be576040517f08c379a00000000000000000000000000000000000000000000000000000000081526004016103b59061125b565b60405180910390fd5b6103c88282610846565b5050565b7f74966176c367549066de941fecec46be0069530384452daa9c31d709c544e63981565b6000610417826001600086815260200190815260200160002061087a90919063ffffffff16565b905092915050565b600080600084815260200190815260200160002060000160008373ffffffffffffffffffffffffffffffffffffffff1673ffffffffffffffffffffffffffffffffffffffff16815260200190815260200160002060009054906101000a900460ff16905092915050565b6000801b81565b6060600061049d83610572565b905060008167ffffffffffffffff8111156104bb576104ba61127b565b5b6040519080825280602002602001820160405280156104e95781602001602082028036833780820191505090505b50905060005b8281101561056757600061050386836103f0565b905080838381518110610519576105186112aa565b5b602002602001019073ffffffffffffffffffffffffffffffffffffffff16908173ffffffffffffffffffffffffffffffffffffffff168152505050808061055f90611308565b9150506104ef565b508092505050919050565b600061058f60016000848152602001908152602001600020610894565b9050919050565b61059f82610301565b6105b0816105ab61076d565b610775565b6105ba8383610846565b505050565b7f2ac4b647885dc0812ed26210d6a36d5f1c8de284183a5e4c171119cd3b54458a81565b6105ed828261041f565b6106bf57600160008084815260200190815260200160002060000160008373ffffffffffffffffffffffffffffffffffffffff1673ffffffffffffffffffffffffffffffffffffffff16815260200190815260200160002060006101000a81548160ff02191690831515021790555061066461076d565b73ffffffffffffffffffffffffffffffffffffffff168173ffffffffffffffffffffffffffffffffffffffff16837f2f8788117e7eff1d82e926ec794901d17c78024a50270940304540a733656f0d60405160405180910390a45b5050565b60006106eb836000018373ffffffffffffffffffffffffffffffffffffffff1660001b6108a9565b905092915050565b60007f7965db0b000000000000000000000000000000000000000000000000000000007bffffffffffffffffffffffffffffffffffffffffffffffffffffffff1916827bffffffffffffffffffffffffffffffffffffffffffffffffffffffff19161480610766575061076582610919565b5b9050919050565b600033905090565b61077f828261041f565b61080e576107a48173ffffffffffffffffffffffffffffffffffffffff166014610983565b6107b28360001c6020610983565b6040516020016107c3929190611463565b6040516020818303038152906040526040517f08c379a000000000000000000000000000000000000000000000000000000000815260040161080591906114e7565b60405180910390fd5b5050565b61081c82826105e3565b61084181600160008581526020019081526020016000206106c390919063ffffffff16565b505050565b6108508282610bbf565b6108758160016000858152602001908152602001600020610ca090919063ffffffff16565b505050565b60006108898360000183610cd0565b60001c905092915050565b60006108a282600001610cfb565b9050919050565b60006108b58383610d0c565b61090e578260000182908060018154018082558091505060019003906000526020600020016000909190919091505582600001805490508360010160008481526020019081526020016000208190555060019050610913565b600090505b92915050565b60007f01ffc9a7000000000000000000000000000000000000000000000000000000007bffffffffffffffffffffffffffffffffffffffffffffffffffffffff1916827bffffffffffffffffffffffffffffffffffffffffffffffffffffffff1916149050919050565b6060600060028360026109969190611509565b6109a09190611563565b67ffffffffffffffff8111156109b9576109b861127b565b5b6040519080825280601f01601f1916602001820160405280156109eb5781602001600182028036833780820191505090505b5090507f300000000000000000000000000000000000000000000000000000000000000081600081518110610a2357610a226112aa565b5b60200101907effffffffffffffffffffffffffffffffffffffffffffffffffffffffffffff1916908160001a9053507f780000000000000000000000000000000000000000000000000000000000000081600181518110610a8757610a866112aa565b5b60200101907effffffffffffffffffffffffffffffffffffffffffffffffffffffffffffff1916908160001a90535060006001846002610ac79190611509565b610ad19190611563565b90505b6001811115610b71577f3031323334353637383961626364656600000000000000000000000000000000600f861660108110610b1357610b126112aa565b5b1a60f81b828281518110610b2a57610b296112aa565b5b60200101907effffffffffffffffffffffffffffffffffffffffffffffffffffffffffffff1916908160001a905350600485901c945080610b6a906115b9565b9050610ad4565b5060008414610bb5576040517f08c379a0000000000000000000000000000000000000000000000000000000008152600401610bac9061162f565b60405180910390fd5b8091505092915050565b610bc9828261041f565b15610c9c57600080600084815260200190815260200160002060000160008373ffffffffffffffffffffffffffffffffffffffff1673ffffffffffffffffffffffffffffffffffffffff16815260200190815260200160002060006101000a81548160ff021916908315150217905550610c4161076d565b73ffffffffffffffffffffffffffffffffffffffff168173ffffffffffffffffffffffffffffffffffffffff16837ff6391f5c32d9c69d2a47ea670b442974b53935d1edc7fd64eb21e047a839171b60405160405180910390a45b5050565b6000610cc8836000018373ffffffffffffffffffffffffffffffffffffffff1660001b610d2f565b905092915050565b6000826000018281548110610ce857610ce76112aa565b5b9060005260206000200154905092915050565b600081600001805490509050919050565b600080836001016000848152602001908152602001600020541415905092915050565b60008083600101600084815260200190815260200160002054905060008114610e37576000600182610d61919061164f565b9050600060018660000180549050610d79919061164f565b9050818114610de8576000866000018281548110610d9a57610d996112aa565b5b9060005260206000200154905080876000018481548110610dbe57610dbd6112aa565b5b90600052602060002001819055508387600101600083815260200190815260200160002081905550505b85600001805480610dfc57610dfb611683565b5b600190038181906000526020600020016000905590558560010160008681526020019081526020016000206000905560019350505050610e3d565b60009150505b92915050565b600080fd5b60007fffffffff0000000000000000000000000000000000000000000000000000000082169050919050565b610e7d81610e48565b8114610e8857600080fd5b50565b600081359050610e9a81610e74565b92915050565b600060208284031215610eb657610eb5610e43565b5b6000610ec484828501610e8b565b91505092915050565b60008115159050919050565b610ee281610ecd565b82525050565b6000602082019050610efd6000830184610ed9565b92915050565b6000819050919050565b610f1681610f03565b8114610f2157600080fd5b50565b600081359050610f3381610f0d565b92915050565b600060208284031215610f4f57610f4e610e43565b5b6000610f5d84828501610f24565b91505092915050565b610f6f81610f03565b82525050565b6000602082019050610f8a6000830184610f66565b92915050565b600073ffffffffffffffffffffffffffffffffffffffff82169050919050565b6000610fbb82610f90565b9050919050565b610fcb81610fb0565b8114610fd657600080fd5b50565b600081359050610fe881610fc2565b92915050565b6000806040838503121561100557611004610e43565b5b600061101385828601610f24565b925050602061102485828601610fd9565b9150509250929050565b6000819050919050565b6110418161102e565b811461104c57600080fd5b50565b60008135905061105e81611038565b92915050565b6000806040838503121561107b5761107a610e43565b5b600061108985828601610f24565b925050602061109a8582860161104f565b9150509250929050565b6110ad81610fb0565b82525050565b60006020820190506110c860008301846110a4565b92915050565b600081519050919050565b600082825260208201905092915050565b6000819050602082019050919050565b61110381610fb0565b82525050565b600061111583836110fa565b60208301905092915050565b6000602082019050919050565b6000611139826110ce565b61114381856110d9565b935061114e836110ea565b8060005b8381101561117f5781516111668882611109565b975061117183611121565b925050600181019050611152565b5085935050505092915050565b600060208201905081810360008301526111a6818461112e565b905092915050565b6111b78161102e565b82525050565b60006020820190506111d260008301846111ae565b92915050565b600082825260208201905092915050565b7f416363657373436f6e74726f6c3a2063616e206f6e6c792072656e6f756e636560008201527f20726f6c657320666f722073656c660000000000000000000000000000000000602082015250565b6000611245602f836111d8565b9150611250826111e9565b604082019050919050565b6000602082019050818103600083015261127481611238565b9050919050565b7f4e487b7100000000000000000000000000000000000000000000000000000000600052604160045260246000fd5b7f4e487b7100000000000000000000000000000000000000000000000000000000600052603260045260246000fd5b7f4e487b7100000000000000000000000000000000000000000000000000000000600052601160045260246000fd5b60006113138261102e565b91507fffffffffffffffffffffffffffffffffffffffffffffffffffffffffffffffff821415611346576113456112d9565b5b600182019050919050565b600081905092915050565b7f416363657373436f6e74726f6c3a206163636f756e7420000000000000000000600082015250565b6000611392601783611351565b915061139d8261135c565b601782019050919050565b600081519050919050565b60005b838110156113d15780820151818401526020810190506113b6565b838111156113e0576000848401525b50505050565b60006113f1826113a8565b6113fb8185611351565b935061140b8185602086016113b3565b80840191505092915050565b7f206973206d697373696e6720726f6c6520000000000000000000000000000000600082015250565b600061144d601183611351565b915061145882611417565b601182019050919050565b600061146e82611385565b915061147a82856113e6565b915061148582611440565b915061149182846113e6565b91508190509392505050565b6000601f19601f8301169050919050565b60006114b9826113a8565b6114c381856111d8565b93506114d38185602086016113b3565b6114dc8161149d565b840191505092915050565b6000602082019050818103600083015261150181846114ae565b905092915050565b60006115148261102e565b915061151f8361102e565b9250817fffffffffffffffffffffffffffffffffffffffffffffffffffffffffffffffff0483118215151615611558576115576112d9565b5b828202905092915050565b600061156e8261102e565b91506115798361102e565b9250827fffffffffffffffffffffffffffffffffffffffffffffffffffffffffffffffff038211156115ae576115ad6112d9565b5b828201905092915050565b60006115c48261102e565b915060008214156115d8576115d76112d9565b5b600182039050919050565b7f537472696e67733a20686578206c656e67746820696e73756666696369656e74600082015250565b60006116196020836111d8565b9150611624826115e3565b602082019050919050565b600060208201905081810360008301526116488161160c565b9050919050565b600061165a8261102e565b91506116658361102e565b925082821015611678576116776112d9565b5b828203905092915050565b7f4e487b7100000000000000000000000000000000000000000000000000000000600052603160045260246000fdfea26469706673582212201a8a7783694220fd44fc18e6b4a5d7a6ca959bd43664ec52f1469c3dd732b3ee64736f6c634300080a0033",
  "immutableReferences": {},
  "source": "// SPDX-License-Identifier: MIT\npragma solidity ^0.8.10;\npragma experimental ABIEncoderV2;\n\nimport \"@openzeppelin/contracts/access/AccessControlEnumerable.sol\";\n\ncontract AccessContr0l is AccessControlEnumerable {\n\n    bytes32 public constant SYSTEM_ADMIN = keccak256(\"SYSTEM_ADMIN\");\n    bytes32 public constant CONTEST_ADMIN = keccak256(\"CONTEST_ADMIN\");\n\n    constructor(address systemAdmin) {\n        _setRoleAdmin(CONTEST_ADMIN, SYSTEM_ADMIN);\n        _setupRole(SYSTEM_ADMIN, systemAdmin);\n    }\n\n    function getRoleMembers(bytes32 role) external view returns(address [] memory) {\n        uint number = getRoleMemberCount(role);\n        address [] memory accounts = new address [] (number);\n        for(uint i = 0; i < number; i++) {\n            address account = getRoleMember(role, i);\n            accounts[i] = account;\n        }\n        return accounts;\n    }\n\n}",
  "sourcePath": "/Users/yhy/Code/GitHub/DCTF/contracts/AccessContr0l.sol",
  "compiler": {
    "name": "solc",
    "version": "0.8.10+commit.fc410830.Emscripten.clang"
  },
  "schemaVersion": "3.4.4",
  "updatedAt": "2022-02-14T05:54:43.486Z",
  "networkType": "ethereum",
  "devdoc": {
    "kind": "dev",
    "methods": {
      "getRoleAdmin(bytes32)": {
        "details": "Returns the admin role that controls `role`. See {grantRole} and {revokeRole}. To change a role's admin, use {_setRoleAdmin}."
      },
      "getRoleMember(bytes32,uint256)": {
        "details": "Returns one of the accounts that have `role`. `index` must be a value between 0 and {getRoleMemberCount}, non-inclusive. Role bearers are not sorted in any particular way, and their ordering may change at any point. WARNING: When using {getRoleMember} and {getRoleMemberCount}, make sure you perform all queries on the same block. See the following https://forum.openzeppelin.com/t/iterating-over-elements-on-enumerableset-in-openzeppelin-contracts/2296[forum post] for more information."
      },
      "getRoleMemberCount(bytes32)": {
        "details": "Returns the number of accounts that have `role`. Can be used together with {getRoleMember} to enumerate all bearers of a role."
      },
      "grantRole(bytes32,address)": {
        "details": "Grants `role` to `account`. If `account` had not been already granted `role`, emits a {RoleGranted} event. Requirements: - the caller must have ``role``'s admin role."
      },
      "hasRole(bytes32,address)": {
        "details": "Returns `true` if `account` has been granted `role`."
      },
      "renounceRole(bytes32,address)": {
        "details": "Revokes `role` from the calling account. Roles are often managed via {grantRole} and {revokeRole}: this function's purpose is to provide a mechanism for accounts to lose their privileges if they are compromised (such as when a trusted device is misplaced). If the calling account had been revoked `role`, emits a {RoleRevoked} event. Requirements: - the caller must be `account`."
      },
      "revokeRole(bytes32,address)": {
        "details": "Revokes `role` from `account`. If `account` had been granted `role`, emits a {RoleRevoked} event. Requirements: - the caller must have ``role``'s admin role."
      },
      "supportsInterface(bytes4)": {
        "details": "See {IERC165-supportsInterface}."
      }
    },
    "version": 1
  },
  "userdoc": {
    "kind": "user",
    "methods": {},
    "version": 1
  }
}