{
  "contractName": "AccessContr0l",
  "abi": [
    {
      "inputs": [
        {
          "internalType": "address",
          "name": "systemAdmin",
          "type": "address"
        }
      ],
      "stateMutability": "nonpayable",
      "type": "constructor"
    },
    {
      "anonymous": false,
      "inputs": [
        {
          "indexed": true,
          "internalType": "bytes32",
          "name": "role",
          "type": "bytes32"
        },
        {
          "indexed": true,
          "internalType": "bytes32",
          "name": "previousAdminRole",
          "type": "bytes32"
        },
        {
          "indexed": true,
          "internalType": "bytes32",
          "name": "newAdminRole",
          "type": "bytes32"
        }
      ],
      "name": "RoleAdminChanged",
      "type": "event"
    },
    {
      "anonymous": false,
      "inputs": [
        {
          "indexed": true,
          "internalType": "bytes32",
          "name": "role",
          "type": "bytes32"
        },
        {
          "indexed": true,
          "internalType": "address",
          "name": "account",
          "type": "address"
        },
        {
          "indexed": true,
          "internalType": "address",
          "name": "sender",
          "type": "address"
        }
      ],
      "name": "RoleGranted",
      "type": "event"
    },
    {
      "anonymous": false,
      "inputs": [
        {
          "indexed": true,
          "internalType": "bytes32",
          "name": "role",
          "type": "bytes32"
        },
        {
          "indexed": true,
          "internalType": "address",
          "name": "account",
          "type": "address"
        },
        {
          "indexed": true,
          "internalType": "address",
          "name": "sender",
          "type": "address"
        }
      ],
      "name": "RoleRevoked",
      "type": "event"
    },
    {
      "inputs": [],
      "name": "CONTEST_ADMIN",
      "outputs": [
        {
          "internalType": "bytes32",
          "name": "",
          "type": "bytes32"
        }
      ],
      "stateMutability": "view",
      "type": "function",
      "constant": true
    },
    {
      "inputs": [],
      "name": "DEFAULT_ADMIN_ROLE",
      "outputs": [
        {
          "internalType": "bytes32",
          "name": "",
          "type": "bytes32"
        }
      ],
      "stateMutability": "view",
      "type": "function",
      "constant": true
    },
    {
      "inputs": [],
      "name": "SYSTEM_ADMIN",
      "outputs": [
        {
          "internalType": "bytes32",
          "name": "",
          "type": "bytes32"
        }
      ],
      "stateMutability": "view",
      "type": "function",
      "constant": true
    },
    {
      "inputs": [
        {
          "internalType": "bytes32",
          "name": "role",
          "type": "bytes32"
        }
      ],
      "name": "getRoleAdmin",
      "outputs": [
        {
          "internalType": "bytes32",
          "name": "",
          "type": "bytes32"
        }
      ],
      "stateMutability": "view",
      "type": "function",
      "constant": true
    },
    {
      "inputs": [
        {
          "internalType": "bytes32",
          "name": "role",
          "type": "bytes32"
        },
        {
          "internalType": "uint256",
          "name": "index",
          "type": "uint256"
        }
      ],
      "name": "getRoleMember",
      "outputs": [
        {
          "internalType": "address",
          "name": "",
          "type": "address"
        }
      ],
      "stateMutability": "view",
      "type": "function",
      "constant": true
    },
    {
      "inputs": [
        {
          "internalType": "bytes32",
          "name": "role",
          "type": "bytes32"
        }
      ],
      "name": "getRoleMemberCount",
      "outputs": [
        {
          "internalType": "uint256",
          "name": "",
          "type": "uint256"
        }
      ],
      "stateMutability": "view",
      "type": "function",
      "constant": true
    },
    {
      "inputs": [
        {
          "internalType": "bytes32",
          "name": "role",
          "type": "bytes32"
        },
        {
          "internalType": "address",
          "name": "account",
          "type": "address"
        }
      ],
      "name": "grantRole",
      "outputs": [],
      "stateMutability": "nonpayable",
      "type": "function"
    },
    {
      "inputs": [
        {
          "internalType": "bytes32",
          "name": "role",
          "type": "bytes32"
        },
        {
          "internalType": "address",
          "name": "account",
          "type": "address"
        }
      ],
      "name": "hasRole",
      "outputs": [
        {
          "internalType": "bool",
          "name": "",
          "type": "bool"
        }
      ],
      "stateMutability": "view",
      "type": "function",
      "constant": true
    },
    {
      "inputs": [
        {
          "internalType": "bytes32",
          "name": "role",
          "type": "bytes32"
        },
        {
          "internalType": "address",
          "name": "account",
          "type": "address"
        }
      ],
      "name": "renounceRole",
      "outputs": [],
      "stateMutability": "nonpayable",
      "type": "function"
    },
    {
      "inputs": [
        {
          "internalType": "bytes32",
          "name": "role",
          "type": "bytes32"
        },
        {
          "internalType": "address",
          "name": "account",
          "type": "address"
        }
      ],
      "name": "revokeRole",
      "outputs": [],
      "stateMutability": "nonpayable",
      "type": "function"
    },
    {
      "inputs": [
        {
          "internalType": "bytes4",
          "name": "interfaceId",
          "type": "bytes4"
        }
      ],
      "name": "supportsInterface",
      "outputs": [
        {
          "internalType": "bool",
          "name": "",
          "type": "bool"
        }
      ],
      "stateMutability": "view",
      "type": "function",
      "constant": true
    },
    {
      "inputs": [
        {
          "internalType": "bytes32",
          "name": "role",
          "type": "bytes32"
        }
      ],
      "name": "getRoleMembers",
      "outputs": [
        {
          "internalType": "address[]",
          "name": "",
          "type": "address[]"
        }
      ],
      "stateMutability": "view",
      "type": "function",
      "constant": true
    },
    {
      "inputs": [
        {
          "internalType": "bytes32",
          "name": "role",
          "type": "bytes32"
        },
        {
          "internalType": "address[]",
          "name": "accounts",
          "type": "address[]"
        }
      ],
      "name": "grantRoles",
      "outputs": [],
      "stateMutability": "nonpayable",
      "type": "function"
    },
    {
      "inputs": [
        {
          "internalType": "bytes32",
          "name": "role",
          "type": "bytes32"
        },
        {
          "internalType": "address[]",
          "name": "accounts",
          "type": "address[]"
        }
      ],
      "name": "revokeRoles",
      "outputs": [],
      "stateMutability": "nonpayable",
      "type": "function"
    }
  ],
  "bytecode": "0x60806040523480156200001157600080fd5b5060405162001df038038062001df0833981810160405281019062000037919062000444565b620000897f2ac4b647885dc0812ed26210d6a36d5f1c8de284183a5e4c171119cd3b54458a7f74966176c367549066de941fecec46be0069530384452daa9c31d709c544e639620000c260201b60201c565b620000bb7f74966176c367549066de941fecec46be0069530384452daa9c31d709c544e639826200012560201b60201c565b5062000476565b6000620000d5836200013b60201b60201c565b905081600080858152602001908152602001600020600101819055508181847fbd79b86ffe0ab8e8776151514217cd7cacd52c909f66475c3af44e129f0b00ff60405160405180910390a4505050565b6200013782826200015a60201b60201c565b5050565b6000806000838152602001908152602001600020600101549050919050565b620001718282620001a260201b620006e11760201c565b6200019d81600160008581526020019081526020016000206200029360201b620007c11790919060201c565b505050565b620001b48282620002cb60201b60201c565b6200028f57600160008084815260200190815260200160002060000160008373ffffffffffffffffffffffffffffffffffffffff1673ffffffffffffffffffffffffffffffffffffffff16815260200190815260200160002060006101000a81548160ff021916908315150217905550620002346200033560201b60201c565b73ffffffffffffffffffffffffffffffffffffffff168173ffffffffffffffffffffffffffffffffffffffff16837f2f8788117e7eff1d82e926ec794901d17c78024a50270940304540a733656f0d60405160405180910390a45b5050565b6000620002c3836000018373ffffffffffffffffffffffffffffffffffffffff1660001b6200033d60201b60201c565b905092915050565b600080600084815260200190815260200160002060000160008373ffffffffffffffffffffffffffffffffffffffff1673ffffffffffffffffffffffffffffffffffffffff16815260200190815260200160002060009054906101000a900460ff16905092915050565b600033905090565b6000620003518383620003b760201b60201c565b620003ac578260000182908060018154018082558091505060019003906000526020600020016000909190919091505582600001805490508360010160008481526020019081526020016000208190555060019050620003b1565b600090505b92915050565b600080836001016000848152602001908152602001600020541415905092915050565b600080fd5b600073ffffffffffffffffffffffffffffffffffffffff82169050919050565b60006200040c82620003df565b9050919050565b6200041e81620003ff565b81146200042a57600080fd5b50565b6000815190506200043e8162000413565b92915050565b6000602082840312156200045d576200045c620003da565b5b60006200046d848285016200042d565b91505092915050565b61196a80620004866000396000f3fe608060405234801561001057600080fd5b50600436106100ea5760003560e01c806391d148541161008c578063ca15c87311610066578063ca15c8731461026f578063d547741f1461029f578063deb9a3a2146102bb578063ec4ab798146102d7576100ea565b806391d14854146101f1578063a217fddf14610221578063a3246ad31461023f576100ea565b80632f2ff15d116100c85780632f2ff15d1461016b57806336568abe14610187578063852757ad146101a35780639010d07c146101c1576100ea565b806301ffc9a7146100ef578063196f0f621461011f578063248a9ca31461013b575b600080fd5b61010960048036038101906101049190610fad565b6102f5565b6040516101169190610ff5565b60405180910390f35b610139600480360381019061013491906111fd565b61036f565b005b61015560048036038101906101509190611259565b6103b7565b6040516101629190611295565b60405180910390f35b610185600480360381019061018091906112b0565b6103d6565b005b6101a1600480360381019061019c91906112b0565b6103ff565b005b6101ab610482565b6040516101b89190611295565b60405180910390f35b6101db60048036038101906101d69190611326565b6104a6565b6040516101e89190611375565b60405180910390f35b61020b600480360381019061020691906112b0565b6104d5565b6040516102189190610ff5565b60405180910390f35b61022961053f565b6040516102369190611295565b60405180910390f35b61025960048036038101906102549190611259565b610546565b604051610266919061144e565b60405180910390f35b61028960048036038101906102849190611259565b610628565b604051610296919061147f565b60405180910390f35b6102b960048036038101906102b491906112b0565b61064c565b005b6102d560048036038101906102d091906111fd565b610675565b005b6102df6106bd565b6040516102ec9190611295565b60405180910390f35b60007f5a05180f000000000000000000000000000000000000000000000000000000007bffffffffffffffffffffffffffffffffffffffffffffffffffffffff1916827bffffffffffffffffffffffffffffffffffffffffffffffffffffffff191614806103685750610367826107f1565b5b9050919050565b60005b81518110156103b25761039f838383815181106103925761039161149a565b5b602002602001015161064c565b80806103aa906114f8565b915050610372565b505050565b6000806000838152602001908152602001600020600101549050919050565b6103df826103b7565b6103f0816103eb61086b565b610873565b6103fa8383610910565b505050565b61040761086b565b73ffffffffffffffffffffffffffffffffffffffff168173ffffffffffffffffffffffffffffffffffffffff1614610474576040517f08c379a000000000000000000000000000000000000000000000000000000000815260040161046b906115c4565b60405180910390fd5b61047e8282610944565b5050565b7f74966176c367549066de941fecec46be0069530384452daa9c31d709c544e63981565b60006104cd826001600086815260200190815260200160002061097890919063ffffffff16565b905092915050565b600080600084815260200190815260200160002060000160008373ffffffffffffffffffffffffffffffffffffffff1673ffffffffffffffffffffffffffffffffffffffff16815260200190815260200160002060009054906101000a900460ff16905092915050565b6000801b81565b6060600061055383610628565b905060008167ffffffffffffffff8111156105715761057061105c565b5b60405190808252806020026020018201604052801561059f5781602001602082028036833780820191505090505b50905060005b8281101561061d5760006105b986836104a6565b9050808383815181106105cf576105ce61149a565b5b602002602001019073ffffffffffffffffffffffffffffffffffffffff16908173ffffffffffffffffffffffffffffffffffffffff1681525050508080610615906114f8565b9150506105a5565b508092505050919050565b600061064560016000848152602001908152602001600020610992565b9050919050565b610655826103b7565b6106668161066161086b565b610873565b6106708383610944565b505050565b60005b81518110156106b8576106a5838383815181106106985761069761149a565b5b60200260200101516103d6565b80806106b0906114f8565b915050610678565b505050565b7f2ac4b647885dc0812ed26210d6a36d5f1c8de284183a5e4c171119cd3b54458a81565b6106eb82826104d5565b6107bd57600160008084815260200190815260200160002060000160008373ffffffffffffffffffffffffffffffffffffffff1673ffffffffffffffffffffffffffffffffffffffff16815260200190815260200160002060006101000a81548160ff02191690831515021790555061076261086b565b73ffffffffffffffffffffffffffffffffffffffff168173ffffffffffffffffffffffffffffffffffffffff16837f2f8788117e7eff1d82e926ec794901d17c78024a50270940304540a733656f0d60405160405180910390a45b5050565b60006107e9836000018373ffffffffffffffffffffffffffffffffffffffff1660001b6109a7565b905092915050565b60007f7965db0b000000000000000000000000000000000000000000000000000000007bffffffffffffffffffffffffffffffffffffffffffffffffffffffff1916827bffffffffffffffffffffffffffffffffffffffffffffffffffffffff19161480610864575061086382610a17565b5b9050919050565b600033905090565b61087d82826104d5565b61090c576108a28173ffffffffffffffffffffffffffffffffffffffff166014610a81565b6108b08360001c6020610a81565b6040516020016108c19291906116f6565b6040516020818303038152906040526040517f08c379a00000000000000000000000000000000000000000000000000000000081526004016109039190611769565b60405180910390fd5b5050565b61091a82826106e1565b61093f81600160008581526020019081526020016000206107c190919063ffffffff16565b505050565b61094e8282610cbd565b6109738160016000858152602001908152602001600020610d9e90919063ffffffff16565b505050565b60006109878360000183610dce565b60001c905092915050565b60006109a082600001610df9565b9050919050565b60006109b38383610e0a565b610a0c578260000182908060018154018082558091505060019003906000526020600020016000909190919091505582600001805490508360010160008481526020019081526020016000208190555060019050610a11565b600090505b92915050565b60007f01ffc9a7000000000000000000000000000000000000000000000000000000007bffffffffffffffffffffffffffffffffffffffffffffffffffffffff1916827bffffffffffffffffffffffffffffffffffffffffffffffffffffffff1916149050919050565b606060006002836002610a94919061178b565b610a9e91906117e5565b67ffffffffffffffff811115610ab757610ab661105c565b5b6040519080825280601f01601f191660200182016040528015610ae95781602001600182028036833780820191505090505b5090507f300000000000000000000000000000000000000000000000000000000000000081600081518110610b2157610b2061149a565b5b60200101907effffffffffffffffffffffffffffffffffffffffffffffffffffffffffffff1916908160001a9053507f780000000000000000000000000000000000000000000000000000000000000081600181518110610b8557610b8461149a565b5b60200101907effffffffffffffffffffffffffffffffffffffffffffffffffffffffffffff1916908160001a90535060006001846002610bc5919061178b565b610bcf91906117e5565b90505b6001811115610c6f577f3031323334353637383961626364656600000000000000000000000000000000600f861660108110610c1157610c1061149a565b5b1a60f81b828281518110610c2857610c2761149a565b5b60200101907effffffffffffffffffffffffffffffffffffffffffffffffffffffffffffff1916908160001a905350600485901c945080610c689061183b565b9050610bd2565b5060008414610cb3576040517f08c379a0000000000000000000000000000000000000000000000000000000008152600401610caa906118b1565b60405180910390fd5b8091505092915050565b610cc782826104d5565b15610d9a57600080600084815260200190815260200160002060000160008373ffffffffffffffffffffffffffffffffffffffff1673ffffffffffffffffffffffffffffffffffffffff16815260200190815260200160002060006101000a81548160ff021916908315150217905550610d3f61086b565b73ffffffffffffffffffffffffffffffffffffffff168173ffffffffffffffffffffffffffffffffffffffff16837ff6391f5c32d9c69d2a47ea670b442974b53935d1edc7fd64eb21e047a839171b60405160405180910390a45b5050565b6000610dc6836000018373ffffffffffffffffffffffffffffffffffffffff1660001b610e2d565b905092915050565b6000826000018281548110610de657610de561149a565b5b9060005260206000200154905092915050565b600081600001805490509050919050565b600080836001016000848152602001908152602001600020541415905092915050565b60008083600101600084815260200190815260200160002054905060008114610f35576000600182610e5f91906118d1565b9050600060018660000180549050610e7791906118d1565b9050818114610ee6576000866000018281548110610e9857610e9761149a565b5b9060005260206000200154905080876000018481548110610ebc57610ebb61149a565b5b90600052602060002001819055508387600101600083815260200190815260200160002081905550505b85600001805480610efa57610ef9611905565b5b600190038181906000526020600020016000905590558560010160008681526020019081526020016000206000905560019350505050610f3b565b60009150505b92915050565b6000604051905090565b600080fd5b600080fd5b60007fffffffff0000000000000000000000000000000000000000000000000000000082169050919050565b610f8a81610f55565b8114610f9557600080fd5b50565b600081359050610fa781610f81565b92915050565b600060208284031215610fc357610fc2610f4b565b5b6000610fd184828501610f98565b91505092915050565b60008115159050919050565b610fef81610fda565b82525050565b600060208201905061100a6000830184610fe6565b92915050565b6000819050919050565b61102381611010565b811461102e57600080fd5b50565b6000813590506110408161101a565b92915050565b600080fd5b6000601f19601f8301169050919050565b7f4e487b7100000000000000000000000000000000000000000000000000000000600052604160045260246000fd5b6110948261104b565b810181811067ffffffffffffffff821117156110b3576110b261105c565b5b80604052505050565b60006110c6610f41565b90506110d2828261108b565b919050565b600067ffffffffffffffff8211156110f2576110f161105c565b5b602082029050602081019050919050565b600080fd5b600073ffffffffffffffffffffffffffffffffffffffff82169050919050565b600061113382611108565b9050919050565b61114381611128565b811461114e57600080fd5b50565b6000813590506111608161113a565b92915050565b6000611179611174846110d7565b6110bc565b9050808382526020820190506020840283018581111561119c5761119b611103565b5b835b818110156111c557806111b18882611151565b84526020840193505060208101905061119e565b5050509392505050565b600082601f8301126111e4576111e3611046565b5b81356111f4848260208601611166565b91505092915050565b6000806040838503121561121457611213610f4b565b5b600061122285828601611031565b925050602083013567ffffffffffffffff81111561124357611242610f50565b5b61124f858286016111cf565b9150509250929050565b60006020828403121561126f5761126e610f4b565b5b600061127d84828501611031565b91505092915050565b61128f81611010565b82525050565b60006020820190506112aa6000830184611286565b92915050565b600080604083850312156112c7576112c6610f4b565b5b60006112d585828601611031565b92505060206112e685828601611151565b9150509250929050565b6000819050919050565b611303816112f0565b811461130e57600080fd5b50565b600081359050611320816112fa565b92915050565b6000806040838503121561133d5761133c610f4b565b5b600061134b85828601611031565b925050602061135c85828601611311565b9150509250929050565b61136f81611128565b82525050565b600060208201905061138a6000830184611366565b92915050565b600081519050919050565b600082825260208201905092915050565b6000819050602082019050919050565b6113c581611128565b82525050565b60006113d783836113bc565b60208301905092915050565b6000602082019050919050565b60006113fb82611390565b611405818561139b565b9350611410836113ac565b8060005b8381101561144157815161142888826113cb565b9750611433836113e3565b925050600181019050611414565b5085935050505092915050565b6000602082019050818103600083015261146881846113f0565b905092915050565b611479816112f0565b82525050565b60006020820190506114946000830184611470565b92915050565b7f4e487b7100000000000000000000000000000000000000000000000000000000600052603260045260246000fd5b7f4e487b7100000000000000000000000000000000000000000000000000000000600052601160045260246000fd5b6000611503826112f0565b91507fffffffffffffffffffffffffffffffffffffffffffffffffffffffffffffffff821415611536576115356114c9565b5b600182019050919050565b600082825260208201905092915050565b7f416363657373436f6e74726f6c3a2063616e206f6e6c792072656e6f756e636560008201527f20726f6c657320666f722073656c660000000000000000000000000000000000602082015250565b60006115ae602f83611541565b91506115b982611552565b604082019050919050565b600060208201905081810360008301526115dd816115a1565b9050919050565b600081905092915050565b7f416363657373436f6e74726f6c3a206163636f756e7420000000000000000000600082015250565b60006116256017836115e4565b9150611630826115ef565b601782019050919050565b600081519050919050565b60005b83811015611664578082015181840152602081019050611649565b83811115611673576000848401525b50505050565b60006116848261163b565b61168e81856115e4565b935061169e818560208601611646565b80840191505092915050565b7f206973206d697373696e6720726f6c6520000000000000000000000000000000600082015250565b60006116e06011836115e4565b91506116eb826116aa565b601182019050919050565b600061170182611618565b915061170d8285611679565b9150611718826116d3565b91506117248284611679565b91508190509392505050565b600061173b8261163b565b6117458185611541565b9350611755818560208601611646565b61175e8161104b565b840191505092915050565b600060208201905081810360008301526117838184611730565b905092915050565b6000611796826112f0565b91506117a1836112f0565b9250817fffffffffffffffffffffffffffffffffffffffffffffffffffffffffffffffff04831182151516156117da576117d96114c9565b5b828202905092915050565b60006117f0826112f0565b91506117fb836112f0565b9250827fffffffffffffffffffffffffffffffffffffffffffffffffffffffffffffffff038211156118305761182f6114c9565b5b828201905092915050565b6000611846826112f0565b9150600082141561185a576118596114c9565b5b600182039050919050565b7f537472696e67733a20686578206c656e67746820696e73756666696369656e74600082015250565b600061189b602083611541565b91506118a682611865565b602082019050919050565b600060208201905081810360008301526118ca8161188e565b9050919050565b60006118dc826112f0565b91506118e7836112f0565b9250828210156118fa576118f96114c9565b5b828203905092915050565b7f4e487b7100000000000000000000000000000000000000000000000000000000600052603160045260246000fdfea2646970667358221220ff67b532e613c9ddf14d4c457625cb766743e234595df4503556ab686471eaf464736f6c634300080a0033",
  "immutableReferences": {},
  "source": "// SPDX-License-Identifier: MIT\npragma solidity ^0.8.10;\npragma experimental ABIEncoderV2;\n\nimport \"@openzeppelin/contracts/access/AccessControlEnumerable.sol\";\n\ncontract AccessContr0l is AccessControlEnumerable {\n\n    bytes32 public constant SYSTEM_ADMIN = keccak256(\"SYSTEM_ADMIN\");\n    bytes32 public constant CONTEST_ADMIN = keccak256(\"CONTEST_ADMIN\");\n\n    constructor(address systemAdmin) {\n        _setRoleAdmin(CONTEST_ADMIN, SYSTEM_ADMIN);\n        _setupRole(SYSTEM_ADMIN, systemAdmin);\n    }\n\n    function getRoleMembers(bytes32 role) external view returns(address [] memory) {\n        uint number = getRoleMemberCount(role);\n        address [] memory accounts = new address [] (number);\n        for(uint i = 0; i < number; i++) {\n            address account = getRoleMember(role, i);\n            accounts[i] = account;\n        }\n        return accounts;\n    }\n    function grantRoles(bytes32 role, address [] memory accounts) external {\n        for(uint i = 0; i < accounts.length; i++) {\n            grantRole(role, accounts[i]);\n        }\n    }\n    function revokeRoles(bytes32 role, address [] memory accounts) external {\n        for(uint i = 0; i < accounts.length; i++) {\n            revokeRole(role, accounts[i]);\n        }\n    }\n\n}",
  "sourcePath": "/Users/yhy/Code/GitHub/DCTF/contracts/AccessContr0l.sol",
  "compiler": {
    "name": "solc",
    "version": "0.8.10+commit.fc410830.Emscripten.clang"
  },
  "schemaVersion": "3.4.4",
  "updatedAt": "2022-02-19T13:26:47.699Z",
  "networkType": "ethereum",
  "devdoc": {
    "kind": "dev",
    "methods": {
      "getRoleAdmin(bytes32)": {
        "details": "Returns the admin role that controls `role`. See {grantRole} and {revokeRole}. To change a role's admin, use {_setRoleAdmin}."
      },
      "getRoleMember(bytes32,uint256)": {
        "details": "Returns one of the accounts that have `role`. `index` must be a value between 0 and {getRoleMemberCount}, non-inclusive. Role bearers are not sorted in any particular way, and their ordering may change at any point. WARNING: When using {getRoleMember} and {getRoleMemberCount}, make sure you perform all queries on the same block. See the following https://forum.openzeppelin.com/t/iterating-over-elements-on-enumerableset-in-openzeppelin-contracts/2296[forum post] for more information."
      },
      "getRoleMemberCount(bytes32)": {
        "details": "Returns the number of accounts that have `role`. Can be used together with {getRoleMember} to enumerate all bearers of a role."
      },
      "grantRole(bytes32,address)": {
        "details": "Grants `role` to `account`. If `account` had not been already granted `role`, emits a {RoleGranted} event. Requirements: - the caller must have ``role``'s admin role."
      },
      "hasRole(bytes32,address)": {
        "details": "Returns `true` if `account` has been granted `role`."
      },
      "renounceRole(bytes32,address)": {
        "details": "Revokes `role` from the calling account. Roles are often managed via {grantRole} and {revokeRole}: this function's purpose is to provide a mechanism for accounts to lose their privileges if they are compromised (such as when a trusted device is misplaced). If the calling account had been revoked `role`, emits a {RoleRevoked} event. Requirements: - the caller must be `account`."
      },
      "revokeRole(bytes32,address)": {
        "details": "Revokes `role` from `account`. If `account` had been granted `role`, emits a {RoleRevoked} event. Requirements: - the caller must have ``role``'s admin role."
      },
      "supportsInterface(bytes4)": {
        "details": "See {IERC165-supportsInterface}."
      }
    },
    "version": 1
  },
  "userdoc": {
    "kind": "user",
    "methods": {},
    "version": 1
  }
}