{
  "contractName": "AWD",
  "abi": [
    {
      "inputs": [
        {
          "internalType": "address",
          "name": "_Contests",
          "type": "address"
        },
        {
          "internalType": "address",
          "name": "_Challenges",
          "type": "address"
        },
        {
          "internalType": "address",
          "name": "_Teams",
          "type": "address"
        },
        {
          "internalType": "address",
          "name": "_Moves",
          "type": "address"
        }
      ],
      "stateMutability": "nonpayable",
      "type": "constructor"
    },
    {
      "inputs": [
        {
          "internalType": "uint256",
          "name": "contestId",
          "type": "uint256"
        },
        {
          "internalType": "uint256",
          "name": "challengeId",
          "type": "uint256"
        },
        {
          "internalType": "uint256",
          "name": "teamId",
          "type": "uint256"
        },
        {
          "internalType": "bytes32",
          "name": "hash",
          "type": "bytes32"
        }
      ],
      "name": "commitFlag",
      "outputs": [],
      "stateMutability": "nonpayable",
      "type": "function"
    },
    {
      "inputs": [
        {
          "internalType": "uint256",
          "name": "contestId",
          "type": "uint256"
        },
        {
          "internalType": "uint256",
          "name": "challengeId",
          "type": "uint256"
        },
        {
          "internalType": "uint256",
          "name": "teamId",
          "type": "uint256"
        },
        {
          "internalType": "uint256",
          "name": "targetTeamId",
          "type": "uint256"
        },
        {
          "internalType": "bytes32",
          "name": "hash",
          "type": "bytes32"
        }
      ],
      "name": "commitSubmit",
      "outputs": [],
      "stateMutability": "nonpayable",
      "type": "function"
    },
    {
      "inputs": [
        {
          "internalType": "uint256",
          "name": "contestId",
          "type": "uint256"
        },
        {
          "internalType": "uint256[]",
          "name": "challengeIds",
          "type": "uint256[]"
        },
        {
          "internalType": "uint256[]",
          "name": "teamIds",
          "type": "uint256[]"
        },
        {
          "internalType": "string[]",
          "name": "flags",
          "type": "string[]"
        },
        {
          "internalType": "bytes32[]",
          "name": "salts",
          "type": "bytes32[]"
        }
      ],
      "name": "revealFlags",
      "outputs": [],
      "stateMutability": "nonpayable",
      "type": "function"
    },
    {
      "inputs": [
        {
          "internalType": "uint256",
          "name": "contestId",
          "type": "uint256"
        },
        {
          "internalType": "uint256",
          "name": "teamId",
          "type": "uint256"
        },
        {
          "internalType": "uint256[]",
          "name": "challengeIds",
          "type": "uint256[]"
        },
        {
          "internalType": "uint256[]",
          "name": "targetTeamIds",
          "type": "uint256[]"
        },
        {
          "internalType": "string[]",
          "name": "flags",
          "type": "string[]"
        },
        {
          "internalType": "bytes32[]",
          "name": "salts",
          "type": "bytes32[]"
        }
      ],
      "name": "revealSubmits",
      "outputs": [],
      "stateMutability": "nonpayable",
      "type": "function"
    },
    {
      "inputs": [
        {
          "internalType": "uint256",
          "name": "contestId",
          "type": "uint256"
        }
      ],
      "name": "updateScore",
      "outputs": [],
      "stateMutability": "nonpayable",
      "type": "function"
    },
    {
      "inputs": [
        {
          "internalType": "uint256",
          "name": "contestId",
          "type": "uint256"
        }
      ],
      "name": "getContestSubmitIds",
      "outputs": [
        {
          "internalType": "uint256[]",
          "name": "",
          "type": "uint256[]"
        }
      ],
      "stateMutability": "view",
      "type": "function",
      "constant": true
    },
    {
      "inputs": [
        {
          "internalType": "uint256",
          "name": "challengeId",
          "type": "uint256"
        },
        {
          "internalType": "uint256",
          "name": "teamId",
          "type": "uint256"
        }
      ],
      "name": "getChallengeTeamFlagMoveId",
      "outputs": [
        {
          "internalType": "uint256",
          "name": "",
          "type": "uint256"
        }
      ],
      "stateMutability": "view",
      "type": "function",
      "constant": true
    },
    {
      "inputs": [
        {
          "internalType": "uint256",
          "name": "challengeId",
          "type": "uint256"
        },
        {
          "internalType": "uint256",
          "name": "teamId",
          "type": "uint256"
        },
        {
          "internalType": "uint256",
          "name": "targetTeam",
          "type": "uint256"
        }
      ],
      "name": "getChallengeTeamTargetTeamSubmitMoveId",
      "outputs": [
        {
          "internalType": "uint256",
          "name": "",
          "type": "uint256"
        }
      ],
      "stateMutability": "view",
      "type": "function",
      "constant": true
    },
    {
      "inputs": [
        {
          "internalType": "uint256",
          "name": "contestId",
          "type": "uint256"
        }
      ],
      "name": "getContestFlagIds",
      "outputs": [
        {
          "internalType": "uint256[]",
          "name": "",
          "type": "uint256[]"
        }
      ],
      "stateMutability": "view",
      "type": "function",
      "constant": true
    },
    {
      "inputs": [
        {
          "internalType": "uint256",
          "name": "teamId",
          "type": "uint256"
        }
      ],
      "name": "getScore",
      "outputs": [
        {
          "internalType": "uint256",
          "name": "",
          "type": "uint256"
        }
      ],
      "stateMutability": "view",
      "type": "function",
      "constant": true
    }
  ],
  "bytecode": "0x60806040523480156200001157600080fd5b5060405162001b1338038062001b138339818101604052810190620000379190620001ae565b836000806101000a81548173ffffffffffffffffffffffffffffffffffffffff021916908373ffffffffffffffffffffffffffffffffffffffff16021790555081600260006101000a81548173ffffffffffffffffffffffffffffffffffffffff021916908373ffffffffffffffffffffffffffffffffffffffff16021790555082600160006101000a81548173ffffffffffffffffffffffffffffffffffffffff021916908373ffffffffffffffffffffffffffffffffffffffff16021790555080600360006101000a81548173ffffffffffffffffffffffffffffffffffffffff021916908373ffffffffffffffffffffffffffffffffffffffff1602179055505050505062000220565b600080fd5b600073ffffffffffffffffffffffffffffffffffffffff82169050919050565b6000620001768262000149565b9050919050565b620001888162000169565b81146200019457600080fd5b50565b600081519050620001a8816200017d565b92915050565b60008060008060808587031215620001cb57620001ca62000144565b5b6000620001db8782880162000197565b9450506020620001ee8782880162000197565b9350506040620002018782880162000197565b9250506060620002148782880162000197565b91505092959194509250565b6118e380620002306000396000f3fe608060405234801561001057600080fd5b506004361061009e5760003560e01c80636c959f9e116100665780636c959f9e1461016b5780636cc9ab8714610187578063811c8165146101b7578063f853e34d146101e7578063fc956e25146102035761009e565b8063082251a7146100a35780630e1af57b146100bf5780631ee46ce2146100ef57806326c52fa21461010b57806330d6345a1461013b575b600080fd5b6100bd60048036038101906100b89190610cef565b61021f565b005b6100d960048036038101906100d49190610d6a565b610392565b6040516100e69190610da6565b60405180910390f35b61010960048036038101906101049190611173565b6103af565b005b61012560048036038101906101209190610d6a565b610519565b604051610132919061132e565b60405180910390f35b61015560048036038101906101509190610d6a565b61053d565b604051610162919061132e565b60405180910390f35b61018560048036038101906101809190611350565b610561565b005b6101a1600480360381019061019c919061143b565b6106c9565b6040516101ae9190610da6565b60405180910390f35b6101d160048036038101906101cc919061148e565b61070a565b6040516101de9190610da6565b60405180910390f35b61020160048036038101906101fc9190610d6a565b610739565b005b61021d600480360381019061021891906114ce565b61073c565b005b6000600660008681526020019081526020016000206000858152602001908152602001600020600084815260200190815260200160002054905061027e816008600089815260200190815260200160002061088d90919063ffffffff16565b506000600360009054906101000a900473ffffffffffffffffffffffffffffffffffffffff1673ffffffffffffffffffffffffffffffffffffffff1663ef027f4d88888888886040518663ffffffff1660e01b81526004016102e4959493929190611544565b6020604051808303816000875af1158015610303573d6000803e3d6000fd5b505050506040513d601f19601f8201168201806040525081019061032791906115ac565b90508060066000888152602001908152602001600020600087815260200190815260200160002060008681526020019081526020016000208190555061038881600860008a81526020019081526020016000206108a790919063ffffffff16565b5050505050505050565b600060046000838152602001908152602001600020549050919050565b82518451146103f3576040517f08c379a00000000000000000000000000000000000000000000000000000000081526004016103ea90611636565b60405180910390fd5b8151845114610437576040517f08c379a000000000000000000000000000000000000000000000000000000000815260040161042e90611636565b60405180910390fd5b805184511461047b576040517f08c379a000000000000000000000000000000000000000000000000000000000815260040161047290611636565b60405180910390fd5b60005b8451811015610510576104fd878787848151811061049f5761049e611656565b5b60200260200101518785815181106104ba576104b9611656565b5b60200260200101518786815181106104d5576104d4611656565b5b60200260200101518787815181106104f0576104ef611656565b5b60200260200101516108c1565b8080610508906116b4565b91505061047e565b50505050505050565b60606105366007600084815260200190815260200160002061098f565b9050919050565b606061055a6008600084815260200190815260200160002061098f565b9050919050565b82518451146105a5576040517f08c379a000000000000000000000000000000000000000000000000000000000815260040161059c90611636565b60405180910390fd5b81518451146105e9576040517f08c379a00000000000000000000000000000000000000000000000000000000081526004016105e090611636565b60405180910390fd5b805184511461062d576040517f08c379a000000000000000000000000000000000000000000000000000000000815260040161062490611636565b60405180910390fd5b60005b84518110156106c1576106ae868683815181106106505761064f611656565b5b602002602001015186848151811061066b5761066a611656565b5b602002602001015186858151811061068657610685611656565b5b60200260200101518686815181106106a1576106a0611656565b5b60200260200101516109b0565b80806106b9906116b4565b915050610630565b505050505050565b600060066000858152602001908152602001600020600084815260200190815260200160002060008381526020019081526020016000205490509392505050565b600060056000848152602001908152602001600020600083815260200190815260200160002054905092915050565b50565b600060056000858152602001908152602001600020600084815260200190815260200160002054905061078a816007600088815260200190815260200160002061088d90919063ffffffff16565b506000600360009054906101000a900473ffffffffffffffffffffffffffffffffffffffff1673ffffffffffffffffffffffffffffffffffffffff1663ef027f4d8787876000886040518663ffffffff1660e01b81526004016107f1959493929190611742565b6020604051808303816000875af1158015610810573d6000803e3d6000fd5b505050506040513d601f19601f8201168201806040525081019061083491906115ac565b9050806005600087815260200190815260200160002060008681526020019081526020016000208190555061088481600760008981526020019081526020016000206108a790919063ffffffff16565b50505050505050565b600061089f836000018360001b610a6c565b905092915050565b60006108b9836000018360001b610b80565b905092915050565b600360009054906101000a900473ffffffffffffffffffffffffffffffffffffffff1673ffffffffffffffffffffffffffffffffffffffff1663ae416c4b60066000878152602001908152602001600020600088815260200190815260200160002060008681526020019081526020016000205484846040518463ffffffff1660e01b81526004016109559392919061180c565b600060405180830381600087803b15801561096f57600080fd5b505af1158015610983573d6000803e3d6000fd5b50505050505050505050565b6060600061099f83600001610bf0565b905060608190508092505050919050565b600360009054906101000a900473ffffffffffffffffffffffffffffffffffffffff1673ffffffffffffffffffffffffffffffffffffffff1663ae416c4b6005600087815260200190815260200160002060008681526020019081526020016000205484846040518463ffffffff1660e01b8152600401610a339392919061180c565b600060405180830381600087803b158015610a4d57600080fd5b505af1158015610a61573d6000803e3d6000fd5b505050505050505050565b60008083600101600084815260200190815260200160002054905060008114610b74576000600182610a9e919061184a565b9050600060018660000180549050610ab6919061184a565b9050818114610b25576000866000018281548110610ad757610ad6611656565b5b9060005260206000200154905080876000018481548110610afb57610afa611656565b5b90600052602060002001819055508387600101600083815260200190815260200160002081905550505b85600001805480610b3957610b3861187e565b5b600190038181906000526020600020016000905590558560010160008681526020019081526020016000206000905560019350505050610b7a565b60009150505b92915050565b6000610b8c8383610c4c565b610be5578260000182908060018154018082558091505060019003906000526020600020016000909190919091505582600001805490508360010160008481526020019081526020016000208190555060019050610bea565b600090505b92915050565b606081600001805480602002602001604051908101604052809291908181526020018280548015610c4057602002820191906000526020600020905b815481526020019060010190808311610c2c575b50505050509050919050565b600080836001016000848152602001908152602001600020541415905092915050565b6000604051905090565b600080fd5b600080fd5b6000819050919050565b610c9681610c83565b8114610ca157600080fd5b50565b600081359050610cb381610c8d565b92915050565b6000819050919050565b610ccc81610cb9565b8114610cd757600080fd5b50565b600081359050610ce981610cc3565b92915050565b600080600080600060a08688031215610d0b57610d0a610c79565b5b6000610d1988828901610ca4565b9550506020610d2a88828901610ca4565b9450506040610d3b88828901610ca4565b9350506060610d4c88828901610ca4565b9250506080610d5d88828901610cda565b9150509295509295909350565b600060208284031215610d8057610d7f610c79565b5b6000610d8e84828501610ca4565b91505092915050565b610da081610c83565b82525050565b6000602082019050610dbb6000830184610d97565b92915050565b600080fd5b6000601f19601f8301169050919050565b7f4e487b7100000000000000000000000000000000000000000000000000000000600052604160045260246000fd5b610e0f82610dc6565b810181811067ffffffffffffffff82111715610e2e57610e2d610dd7565b5b80604052505050565b6000610e41610c6f565b9050610e4d8282610e06565b919050565b600067ffffffffffffffff821115610e6d57610e6c610dd7565b5b602082029050602081019050919050565b600080fd5b6000610e96610e9184610e52565b610e37565b90508083825260208201905060208402830185811115610eb957610eb8610e7e565b5b835b81811015610ee25780610ece8882610ca4565b845260208401935050602081019050610ebb565b5050509392505050565b600082601f830112610f0157610f00610dc1565b5b8135610f11848260208601610e83565b91505092915050565b600067ffffffffffffffff821115610f3557610f34610dd7565b5b602082029050602081019050919050565b600080fd5b600067ffffffffffffffff821115610f6657610f65610dd7565b5b610f6f82610dc6565b9050602081019050919050565b82818337600083830152505050565b6000610f9e610f9984610f4b565b610e37565b905082815260208101848484011115610fba57610fb9610f46565b5b610fc5848285610f7c565b509392505050565b600082601f830112610fe257610fe1610dc1565b5b8135610ff2848260208601610f8b565b91505092915050565b600061100e61100984610f1a565b610e37565b9050808382526020820190506020840283018581111561103157611030610e7e565b5b835b8181101561107857803567ffffffffffffffff81111561105657611055610dc1565b5b8086016110638982610fcd565b85526020850194505050602081019050611033565b5050509392505050565b600082601f83011261109757611096610dc1565b5b81356110a7848260208601610ffb565b91505092915050565b600067ffffffffffffffff8211156110cb576110ca610dd7565b5b602082029050602081019050919050565b60006110ef6110ea846110b0565b610e37565b9050808382526020820190506020840283018581111561111257611111610e7e565b5b835b8181101561113b57806111278882610cda565b845260208401935050602081019050611114565b5050509392505050565b600082601f83011261115a57611159610dc1565b5b813561116a8482602086016110dc565b91505092915050565b60008060008060008060c087890312156111905761118f610c79565b5b600061119e89828a01610ca4565b96505060206111af89828a01610ca4565b955050604087013567ffffffffffffffff8111156111d0576111cf610c7e565b5b6111dc89828a01610eec565b945050606087013567ffffffffffffffff8111156111fd576111fc610c7e565b5b61120989828a01610eec565b935050608087013567ffffffffffffffff81111561122a57611229610c7e565b5b61123689828a01611082565b92505060a087013567ffffffffffffffff81111561125757611256610c7e565b5b61126389828a01611145565b9150509295509295509295565b600081519050919050565b600082825260208201905092915050565b6000819050602082019050919050565b6112a581610c83565b82525050565b60006112b7838361129c565b60208301905092915050565b6000602082019050919050565b60006112db82611270565b6112e5818561127b565b93506112f08361128c565b8060005b8381101561132157815161130888826112ab565b9750611313836112c3565b9250506001810190506112f4565b5085935050505092915050565b6000602082019050818103600083015261134881846112d0565b905092915050565b600080600080600060a0868803121561136c5761136b610c79565b5b600061137a88828901610ca4565b955050602086013567ffffffffffffffff81111561139b5761139a610c7e565b5b6113a788828901610eec565b945050604086013567ffffffffffffffff8111156113c8576113c7610c7e565b5b6113d488828901610eec565b935050606086013567ffffffffffffffff8111156113f5576113f4610c7e565b5b61140188828901611082565b925050608086013567ffffffffffffffff81111561142257611421610c7e565b5b61142e88828901611145565b9150509295509295909350565b60008060006060848603121561145457611453610c79565b5b600061146286828701610ca4565b935050602061147386828701610ca4565b925050604061148486828701610ca4565b9150509250925092565b600080604083850312156114a5576114a4610c79565b5b60006114b385828601610ca4565b92505060206114c485828601610ca4565b9150509250929050565b600080600080608085870312156114e8576114e7610c79565b5b60006114f687828801610ca4565b945050602061150787828801610ca4565b935050604061151887828801610ca4565b925050606061152987828801610cda565b91505092959194509250565b61153e81610cb9565b82525050565b600060a0820190506115596000830188610d97565b6115666020830187610d97565b6115736040830186610d97565b6115806060830185610d97565b61158d6080830184611535565b9695505050505050565b6000815190506115a681610c8d565b92915050565b6000602082840312156115c2576115c1610c79565b5b60006115d084828501611597565b91505092915050565b600082825260208201905092915050565b7f6c656e6774682073686f756c6420626520657175616c00000000000000000000600082015250565b60006116206016836115d9565b915061162b826115ea565b602082019050919050565b6000602082019050818103600083015261164f81611613565b9050919050565b7f4e487b7100000000000000000000000000000000000000000000000000000000600052603260045260246000fd5b7f4e487b7100000000000000000000000000000000000000000000000000000000600052601160045260246000fd5b60006116bf82610c83565b91507fffffffffffffffffffffffffffffffffffffffffffffffffffffffffffffffff8214156116f2576116f1611685565b5b600182019050919050565b6000819050919050565b6000819050919050565b600061172c611727611722846116fd565b611707565b610c83565b9050919050565b61173c81611711565b82525050565b600060a0820190506117576000830188610d97565b6117646020830187610d97565b6117716040830186610d97565b61177e6060830185611733565b61178b6080830184611535565b9695505050505050565b600081519050919050565b60005b838110156117be5780820151818401526020810190506117a3565b838111156117cd576000848401525b50505050565b60006117de82611795565b6117e881856115d9565b93506117f88185602086016117a0565b61180181610dc6565b840191505092915050565b60006060820190506118216000830186610d97565b818103602083015261183381856117d3565b90506118426040830184611535565b949350505050565b600061185582610c83565b915061186083610c83565b92508282101561187357611872611685565b5b828203905092915050565b7f4e487b7100000000000000000000000000000000000000000000000000000000600052603160045260246000fdfea2646970667358221220dcb8f012eaa41fff5b64da20c0b96b19c9cb1029e7391fc00678adfb9701be8064736f6c634300080a0033",
  "immutableReferences": {},
  "source": "// SPDX-License-Identifier: MIT\npragma solidity ^0.8.10;\npragma experimental ABIEncoderV2;\n\nimport \"@openzeppelin/contracts/utils/structs/EnumerableSet.sol\";\nimport \"./IMoves.sol\";\nimport \"./IContests.sol\";\nimport \"./ITeams.sol\";\nimport \"./IChallenges.sol\";\nimport \"./IAWD.sol\";\n\ncontract AWD is IAWD {\n    using EnumerableSet for EnumerableSet.UintSet;\n\n    IContests Contests;\n    IChallenges Challenges;\n    ITeams Teams;\n    IMoves Moves;\n\n    constructor(address _Contests, address _Challenges, address _Teams, address _Moves) {\n        Contests = IContests(_Contests);\n        Teams = ITeams(_Teams);\n        Challenges = IChallenges(_Challenges);\n        Moves = IMoves(_Moves);\n    }\n    // teamID => score\n    mapping(uint => uint) scores;\n\n    mapping(uint => mapping(uint => uint)) ChallengeIdAndTeamIdToFlagMoveId;\n    mapping(uint => mapping(uint => mapping(uint => uint))) ChallengeIdTeamIdAndTargetTeamIdToSubmitMoveId;\n    mapping(uint => EnumerableSet.UintSet) contestFlags;\n    mapping(uint => EnumerableSet.UintSet) contestSubmits;\n\n    function _compareStrings(string memory a, string memory b) internal pure returns (bool) {\n        return (keccak256(abi.encodePacked((a))) == keccak256(abi.encodePacked((b))));\n    }\n\n    function _revealFlag(uint contestId, uint challengeId, uint teamId, string memory flag, bytes32 salt) internal\n    {\n        Moves.reveal(ChallengeIdAndTeamIdToFlagMoveId[challengeId][teamId], flag, salt);\n    }\n\n    function _revealSubmit(uint contestId, uint teamId, uint challengeId, uint targetTeamId, string memory flag, bytes32 salt) internal\n    {\n        Moves.reveal(ChallengeIdTeamIdAndTargetTeamIdToSubmitMoveId[challengeId][teamId][targetTeamId], flag, salt);\n    }\n\n    function commitFlag(uint contestId, uint challengeId, uint teamId, bytes32 hash) external\n    {\n        uint oldId = ChallengeIdAndTeamIdToFlagMoveId[challengeId][teamId];\n        contestFlags[contestId].remove(oldId);\n        uint id = Moves.commit(contestId, challengeId, teamId, 0, hash);\n        ChallengeIdAndTeamIdToFlagMoveId[challengeId][teamId] = id;\n        contestFlags[contestId].add(id);\n    }\n\n    function commitSubmit(uint contestId, uint challengeId, uint teamId, uint targetTeamId, bytes32 hash) external\n    {\n        uint oldId = ChallengeIdTeamIdAndTargetTeamIdToSubmitMoveId[challengeId][teamId][targetTeamId];\n        contestSubmits[contestId].remove(oldId);\n        uint id = Moves.commit(contestId, challengeId, teamId, targetTeamId, hash);\n        ChallengeIdTeamIdAndTargetTeamIdToSubmitMoveId[challengeId][teamId][targetTeamId] = id;\n        contestSubmits[contestId].add(id);\n    }\n\n    function revealFlags(uint contestId, uint [] memory challengeIds, uint [] memory teamIds, string [] memory flags, bytes32 [] memory salts) external {\n        require(challengeIds.length == teamIds.length, \"length should be equal\");\n        require(challengeIds.length == flags.length, \"length should be equal\");\n        require(challengeIds.length == salts.length, \"length should be equal\");\n        for (uint i = 0; i < challengeIds.length; i++) {\n            _revealFlag(contestId, challengeIds[i], teamIds[i], flags[i], salts[i]);\n        }\n    }\n\n    function revealSubmits(uint contestId, uint teamId, uint [] memory challengeIds, uint [] memory targetTeamIds, string [] memory flags, bytes32 [] memory salts) external {\n        require(challengeIds.length == targetTeamIds.length, \"length should be equal\");\n        require(challengeIds.length == flags.length, \"length should be equal\");\n        require(challengeIds.length == salts.length, \"length should be equal\");\n        for (uint i = 0; i < challengeIds.length; i++) {\n            _revealSubmit(contestId, teamId, challengeIds[i], targetTeamIds[i], flags[i], salts[i]);\n        }\n    }\n\n    function updateScore(uint contestId) external {\n\n    }\n\n    function getContestSubmitIds(uint contestId) external view returns (uint [] memory) {\n        return contestSubmits[contestId].values();\n    }\n\n    function getChallengeTeamFlagMoveId(uint challengeId, uint teamId) external view returns (uint) {\n        return ChallengeIdAndTeamIdToFlagMoveId[challengeId][teamId];\n    }\n\n    function getChallengeTeamTargetTeamSubmitMoveId(uint challengeId, uint teamId, uint targetTeam) external view returns (uint){\n        return ChallengeIdTeamIdAndTargetTeamIdToSubmitMoveId[challengeId][teamId][targetTeam];\n    }\n\n    function getContestFlagIds(uint contestId) external view returns (uint [] memory) {\n        return contestFlags[contestId].values();\n    }\n\n    function getScore(uint teamId) external view returns (uint){\n        return scores[teamId];\n    }\n\n}",
  "sourcePath": "/Users/yhy/Code/GitHub/DCTF/contracts/AWD.sol",
  "compiler": {
    "name": "solc",
    "version": "0.8.10+commit.fc410830.Emscripten.clang"
  },
  "schemaVersion": "3.4.4",
  "updatedAt": "2022-03-03T12:57:46.378Z",
  "networkType": "ethereum",
  "devdoc": {
    "kind": "dev",
    "methods": {},
    "version": 1
  },
  "userdoc": {
    "kind": "user",
    "methods": {},
    "version": 1
  }
}