{
  "contractName": "AWD",
  "abi": [
    {
      "inputs": [
        {
          "internalType": "address",
          "name": "_Contests",
          "type": "address"
        },
        {
          "internalType": "address",
          "name": "_Challenges",
          "type": "address"
        },
        {
          "internalType": "address",
          "name": "_Teams",
          "type": "address"
        },
        {
          "internalType": "address",
          "name": "_Moves",
          "type": "address"
        }
      ],
      "stateMutability": "nonpayable",
      "type": "constructor"
    },
    {
      "inputs": [
        {
          "internalType": "uint256",
          "name": "contestId",
          "type": "uint256"
        },
        {
          "internalType": "uint256",
          "name": "challengeId",
          "type": "uint256"
        },
        {
          "internalType": "uint256",
          "name": "teamId",
          "type": "uint256"
        },
        {
          "internalType": "bytes32",
          "name": "hash",
          "type": "bytes32"
        }
      ],
      "name": "commitFlag",
      "outputs": [],
      "stateMutability": "nonpayable",
      "type": "function"
    },
    {
      "inputs": [
        {
          "internalType": "uint256",
          "name": "contestId",
          "type": "uint256"
        },
        {
          "internalType": "uint256",
          "name": "challengeId",
          "type": "uint256"
        },
        {
          "internalType": "uint256",
          "name": "teamId",
          "type": "uint256"
        },
        {
          "internalType": "uint256",
          "name": "targetTeamId",
          "type": "uint256"
        },
        {
          "internalType": "bytes32",
          "name": "hash",
          "type": "bytes32"
        }
      ],
      "name": "commitSubmit",
      "outputs": [],
      "stateMutability": "nonpayable",
      "type": "function"
    },
    {
      "inputs": [
        {
          "internalType": "uint256",
          "name": "contestId",
          "type": "uint256"
        },
        {
          "internalType": "uint256[]",
          "name": "challengeIds",
          "type": "uint256[]"
        },
        {
          "internalType": "uint256",
          "name": "teamId",
          "type": "uint256"
        },
        {
          "internalType": "string[]",
          "name": "flags",
          "type": "string[]"
        },
        {
          "internalType": "bytes32[]",
          "name": "salts",
          "type": "bytes32[]"
        }
      ],
      "name": "revealFlags",
      "outputs": [],
      "stateMutability": "nonpayable",
      "type": "function"
    },
    {
      "inputs": [
        {
          "internalType": "uint256",
          "name": "contestId",
          "type": "uint256"
        },
        {
          "internalType": "uint256",
          "name": "teamId",
          "type": "uint256"
        },
        {
          "internalType": "uint256[]",
          "name": "challengeIds",
          "type": "uint256[]"
        },
        {
          "internalType": "uint256[]",
          "name": "targetTeamIds",
          "type": "uint256[]"
        },
        {
          "internalType": "string[]",
          "name": "flags",
          "type": "string[]"
        },
        {
          "internalType": "bytes32[]",
          "name": "salts",
          "type": "bytes32[]"
        }
      ],
      "name": "revealSubmits",
      "outputs": [],
      "stateMutability": "nonpayable",
      "type": "function"
    },
    {
      "inputs": [
        {
          "internalType": "uint256",
          "name": "contestId",
          "type": "uint256"
        }
      ],
      "name": "updateScore",
      "outputs": [],
      "stateMutability": "nonpayable",
      "type": "function"
    },
    {
      "inputs": [
        {
          "internalType": "uint256",
          "name": "contestId",
          "type": "uint256"
        }
      ],
      "name": "getContestSubmitIds",
      "outputs": [
        {
          "internalType": "uint256[]",
          "name": "",
          "type": "uint256[]"
        }
      ],
      "stateMutability": "view",
      "type": "function",
      "constant": true
    },
    {
      "inputs": [
        {
          "internalType": "uint256",
          "name": "challengeId",
          "type": "uint256"
        },
        {
          "internalType": "uint256",
          "name": "teamId",
          "type": "uint256"
        }
      ],
      "name": "getChallengeTeamFlagMoveId",
      "outputs": [
        {
          "internalType": "uint256",
          "name": "",
          "type": "uint256"
        }
      ],
      "stateMutability": "view",
      "type": "function",
      "constant": true
    },
    {
      "inputs": [
        {
          "internalType": "uint256",
          "name": "challengeId",
          "type": "uint256"
        },
        {
          "internalType": "uint256",
          "name": "teamId",
          "type": "uint256"
        },
        {
          "internalType": "uint256",
          "name": "targetTeam",
          "type": "uint256"
        }
      ],
      "name": "getChallengeTeamTargetTeamSubmitMoveId",
      "outputs": [
        {
          "internalType": "uint256",
          "name": "",
          "type": "uint256"
        }
      ],
      "stateMutability": "view",
      "type": "function",
      "constant": true
    },
    {
      "inputs": [
        {
          "internalType": "uint256",
          "name": "contestId",
          "type": "uint256"
        }
      ],
      "name": "getContestFlagIds",
      "outputs": [
        {
          "internalType": "uint256[]",
          "name": "",
          "type": "uint256[]"
        }
      ],
      "stateMutability": "view",
      "type": "function",
      "constant": true
    },
    {
      "inputs": [
        {
          "internalType": "uint256",
          "name": "teamId",
          "type": "uint256"
        }
      ],
      "name": "getScore",
      "outputs": [
        {
          "internalType": "uint256",
          "name": "",
          "type": "uint256"
        }
      ],
      "stateMutability": "view",
      "type": "function",
      "constant": true
    }
  ],
  "bytecode": "0x60806040523480156200001157600080fd5b5060405162001a9938038062001a998339818101604052810190620000379190620001ae565b836000806101000a81548173ffffffffffffffffffffffffffffffffffffffff021916908373ffffffffffffffffffffffffffffffffffffffff16021790555081600260006101000a81548173ffffffffffffffffffffffffffffffffffffffff021916908373ffffffffffffffffffffffffffffffffffffffff16021790555082600160006101000a81548173ffffffffffffffffffffffffffffffffffffffff021916908373ffffffffffffffffffffffffffffffffffffffff16021790555080600360006101000a81548173ffffffffffffffffffffffffffffffffffffffff021916908373ffffffffffffffffffffffffffffffffffffffff1602179055505050505062000220565b600080fd5b600073ffffffffffffffffffffffffffffffffffffffff82169050919050565b6000620001768262000149565b9050919050565b620001888162000169565b81146200019457600080fd5b50565b600081519050620001a8816200017d565b92915050565b60008060008060808587031215620001cb57620001ca62000144565b5b6000620001db8782880162000197565b9450506020620001ee8782880162000197565b9350506040620002018782880162000197565b9250506060620002148782880162000197565b91505092959194509250565b61186980620002306000396000f3fe608060405234801561001057600080fd5b506004361061009e5760003560e01c80636cc9ab87116100665780636cc9ab871461016b578063811c81651461019b578063c73d7794146101cb578063f853e34d146101e7578063fc956e25146102035761009e565b8063082251a7146100a35780630e1af57b146100bf5780631ee46ce2146100ef57806326c52fa21461010b57806330d6345a1461013b575b600080fd5b6100bd60048036038101906100b89190610c91565b61021f565b005b6100d960048036038101906100d49190610d0c565b610392565b6040516100e69190610d48565b60405180910390f35b61010960048036038101906101049190611115565b6103af565b005b61012560048036038101906101209190610d0c565b610519565b60405161013291906112d0565b60405180910390f35b61015560048036038101906101509190610d0c565b61053d565b60405161016291906112d0565b60405180910390f35b610185600480360381019061018091906112f2565b610561565b6040516101929190610d48565b60405180910390f35b6101b560048036038101906101b09190611345565b6105a2565b6040516101c29190610d48565b60405180910390f35b6101e560048036038101906101e09190611385565b6105d1565b005b61020160048036038101906101fc9190610d0c565b6106db565b005b61021d60048036038101906102189190611454565b6106de565b005b6000600660008681526020019081526020016000206000858152602001908152602001600020600084815260200190815260200160002054905061027e816008600089815260200190815260200160002061082f90919063ffffffff16565b506000600360009054906101000a900473ffffffffffffffffffffffffffffffffffffffff1673ffffffffffffffffffffffffffffffffffffffff1663ef027f4d88888888886040518663ffffffff1660e01b81526004016102e49594939291906114ca565b6020604051808303816000875af1158015610303573d6000803e3d6000fd5b505050506040513d601f19601f820116820180604052508101906103279190611532565b90508060066000888152602001908152602001600020600087815260200190815260200160002060008681526020019081526020016000208190555061038881600860008a815260200190815260200160002061084990919063ffffffff16565b5050505050505050565b600060046000838152602001908152602001600020549050919050565b82518451146103f3576040517f08c379a00000000000000000000000000000000000000000000000000000000081526004016103ea906115bc565b60405180910390fd5b8151845114610437576040517f08c379a000000000000000000000000000000000000000000000000000000000815260040161042e906115bc565b60405180910390fd5b805184511461047b576040517f08c379a0000000000000000000000000000000000000000000000000000000008152600401610472906115bc565b60405180910390fd5b60005b8451811015610510576104fd878787848151811061049f5761049e6115dc565b5b60200260200101518785815181106104ba576104b96115dc565b5b60200260200101518786815181106104d5576104d46115dc565b5b60200260200101518787815181106104f0576104ef6115dc565b5b6020026020010151610863565b80806105089061163a565b91505061047e565b50505050505050565b606061053660076000848152602001908152602001600020610931565b9050919050565b606061055a60086000848152602001908152602001600020610931565b9050919050565b600060066000858152602001908152602001600020600084815260200190815260200160002060008381526020019081526020016000205490509392505050565b600060056000848152602001908152602001600020600083815260200190815260200160002054905092915050565b8151845114610615576040517f08c379a000000000000000000000000000000000000000000000000000000000815260040161060c906115bc565b60405180910390fd5b8051845114610659576040517f08c379a0000000000000000000000000000000000000000000000000000000008152600401610650906115bc565b60405180910390fd5b60005b84518110156106d3576106c08686838151811061067c5761067b6115dc565b5b602002602001015186868581518110610698576106976115dc565b5b60200260200101518686815181106106b3576106b26115dc565b5b6020026020010151610952565b80806106cb9061163a565b91505061065c565b505050505050565b50565b600060056000858152602001908152602001600020600084815260200190815260200160002054905061072c816007600088815260200190815260200160002061082f90919063ffffffff16565b506000600360009054906101000a900473ffffffffffffffffffffffffffffffffffffffff1673ffffffffffffffffffffffffffffffffffffffff1663ef027f4d8787876000886040518663ffffffff1660e01b81526004016107939594939291906116c8565b6020604051808303816000875af11580156107b2573d6000803e3d6000fd5b505050506040513d601f19601f820116820180604052508101906107d69190611532565b90508060056000878152602001908152602001600020600086815260200190815260200160002081905550610826816007600089815260200190815260200160002061084990919063ffffffff16565b50505050505050565b6000610841836000018360001b610a0e565b905092915050565b600061085b836000018360001b610b22565b905092915050565b600360009054906101000a900473ffffffffffffffffffffffffffffffffffffffff1673ffffffffffffffffffffffffffffffffffffffff1663ae416c4b60066000878152602001908152602001600020600088815260200190815260200160002060008681526020019081526020016000205484846040518463ffffffff1660e01b81526004016108f793929190611792565b600060405180830381600087803b15801561091157600080fd5b505af1158015610925573d6000803e3d6000fd5b50505050505050505050565b6060600061094183600001610b92565b905060608190508092505050919050565b600360009054906101000a900473ffffffffffffffffffffffffffffffffffffffff1673ffffffffffffffffffffffffffffffffffffffff1663ae416c4b6005600087815260200190815260200160002060008681526020019081526020016000205484846040518463ffffffff1660e01b81526004016109d593929190611792565b600060405180830381600087803b1580156109ef57600080fd5b505af1158015610a03573d6000803e3d6000fd5b505050505050505050565b60008083600101600084815260200190815260200160002054905060008114610b16576000600182610a4091906117d0565b9050600060018660000180549050610a5891906117d0565b9050818114610ac7576000866000018281548110610a7957610a786115dc565b5b9060005260206000200154905080876000018481548110610a9d57610a9c6115dc565b5b90600052602060002001819055508387600101600083815260200190815260200160002081905550505b85600001805480610adb57610ada611804565b5b600190038181906000526020600020016000905590558560010160008681526020019081526020016000206000905560019350505050610b1c565b60009150505b92915050565b6000610b2e8383610bee565b610b87578260000182908060018154018082558091505060019003906000526020600020016000909190919091505582600001805490508360010160008481526020019081526020016000208190555060019050610b8c565b600090505b92915050565b606081600001805480602002602001604051908101604052809291908181526020018280548015610be257602002820191906000526020600020905b815481526020019060010190808311610bce575b50505050509050919050565b600080836001016000848152602001908152602001600020541415905092915050565b6000604051905090565b600080fd5b600080fd5b6000819050919050565b610c3881610c25565b8114610c4357600080fd5b50565b600081359050610c5581610c2f565b92915050565b6000819050919050565b610c6e81610c5b565b8114610c7957600080fd5b50565b600081359050610c8b81610c65565b92915050565b600080600080600060a08688031215610cad57610cac610c1b565b5b6000610cbb88828901610c46565b9550506020610ccc88828901610c46565b9450506040610cdd88828901610c46565b9350506060610cee88828901610c46565b9250506080610cff88828901610c7c565b9150509295509295909350565b600060208284031215610d2257610d21610c1b565b5b6000610d3084828501610c46565b91505092915050565b610d4281610c25565b82525050565b6000602082019050610d5d6000830184610d39565b92915050565b600080fd5b6000601f19601f8301169050919050565b7f4e487b7100000000000000000000000000000000000000000000000000000000600052604160045260246000fd5b610db182610d68565b810181811067ffffffffffffffff82111715610dd057610dcf610d79565b5b80604052505050565b6000610de3610c11565b9050610def8282610da8565b919050565b600067ffffffffffffffff821115610e0f57610e0e610d79565b5b602082029050602081019050919050565b600080fd5b6000610e38610e3384610df4565b610dd9565b90508083825260208201905060208402830185811115610e5b57610e5a610e20565b5b835b81811015610e845780610e708882610c46565b845260208401935050602081019050610e5d565b5050509392505050565b600082601f830112610ea357610ea2610d63565b5b8135610eb3848260208601610e25565b91505092915050565b600067ffffffffffffffff821115610ed757610ed6610d79565b5b602082029050602081019050919050565b600080fd5b600067ffffffffffffffff821115610f0857610f07610d79565b5b610f1182610d68565b9050602081019050919050565b82818337600083830152505050565b6000610f40610f3b84610eed565b610dd9565b905082815260208101848484011115610f5c57610f5b610ee8565b5b610f67848285610f1e565b509392505050565b600082601f830112610f8457610f83610d63565b5b8135610f94848260208601610f2d565b91505092915050565b6000610fb0610fab84610ebc565b610dd9565b90508083825260208201905060208402830185811115610fd357610fd2610e20565b5b835b8181101561101a57803567ffffffffffffffff811115610ff857610ff7610d63565b5b8086016110058982610f6f565b85526020850194505050602081019050610fd5565b5050509392505050565b600082601f83011261103957611038610d63565b5b8135611049848260208601610f9d565b91505092915050565b600067ffffffffffffffff82111561106d5761106c610d79565b5b602082029050602081019050919050565b600061109161108c84611052565b610dd9565b905080838252602082019050602084028301858111156110b4576110b3610e20565b5b835b818110156110dd57806110c98882610c7c565b8452602084019350506020810190506110b6565b5050509392505050565b600082601f8301126110fc576110fb610d63565b5b813561110c84826020860161107e565b91505092915050565b60008060008060008060c0878903121561113257611131610c1b565b5b600061114089828a01610c46565b965050602061115189828a01610c46565b955050604087013567ffffffffffffffff81111561117257611171610c20565b5b61117e89828a01610e8e565b945050606087013567ffffffffffffffff81111561119f5761119e610c20565b5b6111ab89828a01610e8e565b935050608087013567ffffffffffffffff8111156111cc576111cb610c20565b5b6111d889828a01611024565b92505060a087013567ffffffffffffffff8111156111f9576111f8610c20565b5b61120589828a016110e7565b9150509295509295509295565b600081519050919050565b600082825260208201905092915050565b6000819050602082019050919050565b61124781610c25565b82525050565b6000611259838361123e565b60208301905092915050565b6000602082019050919050565b600061127d82611212565b611287818561121d565b93506112928361122e565b8060005b838110156112c35781516112aa888261124d565b97506112b583611265565b925050600181019050611296565b5085935050505092915050565b600060208201905081810360008301526112ea8184611272565b905092915050565b60008060006060848603121561130b5761130a610c1b565b5b600061131986828701610c46565b935050602061132a86828701610c46565b925050604061133b86828701610c46565b9150509250925092565b6000806040838503121561135c5761135b610c1b565b5b600061136a85828601610c46565b925050602061137b85828601610c46565b9150509250929050565b600080600080600060a086880312156113a1576113a0610c1b565b5b60006113af88828901610c46565b955050602086013567ffffffffffffffff8111156113d0576113cf610c20565b5b6113dc88828901610e8e565b94505060406113ed88828901610c46565b935050606086013567ffffffffffffffff81111561140e5761140d610c20565b5b61141a88828901611024565b925050608086013567ffffffffffffffff81111561143b5761143a610c20565b5b611447888289016110e7565b9150509295509295909350565b6000806000806080858703121561146e5761146d610c1b565b5b600061147c87828801610c46565b945050602061148d87828801610c46565b935050604061149e87828801610c46565b92505060606114af87828801610c7c565b91505092959194509250565b6114c481610c5b565b82525050565b600060a0820190506114df6000830188610d39565b6114ec6020830187610d39565b6114f96040830186610d39565b6115066060830185610d39565b61151360808301846114bb565b9695505050505050565b60008151905061152c81610c2f565b92915050565b60006020828403121561154857611547610c1b565b5b60006115568482850161151d565b91505092915050565b600082825260208201905092915050565b7f6c656e6774682073686f756c6420626520657175616c00000000000000000000600082015250565b60006115a660168361155f565b91506115b182611570565b602082019050919050565b600060208201905081810360008301526115d581611599565b9050919050565b7f4e487b7100000000000000000000000000000000000000000000000000000000600052603260045260246000fd5b7f4e487b7100000000000000000000000000000000000000000000000000000000600052601160045260246000fd5b600061164582610c25565b91507fffffffffffffffffffffffffffffffffffffffffffffffffffffffffffffffff8214156116785761167761160b565b5b600182019050919050565b6000819050919050565b6000819050919050565b60006116b26116ad6116a884611683565b61168d565b610c25565b9050919050565b6116c281611697565b82525050565b600060a0820190506116dd6000830188610d39565b6116ea6020830187610d39565b6116f76040830186610d39565b61170460608301856116b9565b61171160808301846114bb565b9695505050505050565b600081519050919050565b60005b83811015611744578082015181840152602081019050611729565b83811115611753576000848401525b50505050565b60006117648261171b565b61176e818561155f565b935061177e818560208601611726565b61178781610d68565b840191505092915050565b60006060820190506117a76000830186610d39565b81810360208301526117b98185611759565b90506117c860408301846114bb565b949350505050565b60006117db82610c25565b91506117e683610c25565b9250828210156117f9576117f861160b565b5b828203905092915050565b7f4e487b7100000000000000000000000000000000000000000000000000000000600052603160045260246000fdfea2646970667358221220cd5289b7f025132c1734e36eb40eb6b301060e2b08b8b71084fa7ca454eef22b64736f6c634300080a0033",
  "immutableReferences": {},
  "source": "// SPDX-License-Identifier: MIT\npragma solidity ^0.8.10;\npragma experimental ABIEncoderV2;\n\nimport \"@openzeppelin/contracts/utils/structs/EnumerableSet.sol\";\nimport \"./IMoves.sol\";\nimport \"./IContests.sol\";\nimport \"./ITeams.sol\";\nimport \"./IChallenges.sol\";\nimport \"./IAWD.sol\";\n\ncontract AWD is IAWD {\n    using EnumerableSet for EnumerableSet.UintSet;\n\n    IContests Contests;\n    IChallenges Challenges;\n    ITeams Teams;\n    IMoves Moves;\n\n    constructor(address _Contests, address _Challenges, address _Teams, address _Moves) {\n        Contests = IContests(_Contests);\n        Teams = ITeams(_Teams);\n        Challenges = IChallenges(_Challenges);\n        Moves = IMoves(_Moves);\n    }\n    // teamID => score\n    mapping(uint => uint) scores;\n\n    mapping(uint => mapping(uint => uint)) ChallengeIdAndTeamIdToFlagMoveId;\n    mapping(uint => mapping(uint => mapping(uint => uint))) ChallengeIdTeamIdAndTargetTeamIdToSubmitMoveId;\n    mapping(uint => EnumerableSet.UintSet) contestFlags;\n    mapping(uint => EnumerableSet.UintSet) contestSubmits;\n\n    function _compareStrings(string memory a, string memory b) internal pure returns (bool) {\n        return (keccak256(abi.encodePacked((a))) == keccak256(abi.encodePacked((b))));\n    }\n\n    function _revealFlag(uint contestId, uint challengeId, uint teamId, string memory flag, bytes32 salt) internal\n    {\n        Moves.reveal(ChallengeIdAndTeamIdToFlagMoveId[challengeId][teamId], flag, salt);\n    }\n\n    function _revealSubmit(uint contestId, uint teamId, uint challengeId, uint targetTeamId, string memory flag, bytes32 salt) internal\n    {\n        Moves.reveal(ChallengeIdTeamIdAndTargetTeamIdToSubmitMoveId[challengeId][teamId][targetTeamId], flag, salt);\n    }\n\n    function commitFlag(uint contestId, uint challengeId, uint teamId, bytes32 hash) external\n    {\n        uint oldId = ChallengeIdAndTeamIdToFlagMoveId[challengeId][teamId];\n        contestFlags[contestId].remove(oldId);\n        uint id = Moves.commit(contestId, challengeId, teamId, 0, hash);\n        ChallengeIdAndTeamIdToFlagMoveId[challengeId][teamId] = id;\n        contestFlags[contestId].add(id);\n    }\n\n    function commitSubmit(uint contestId, uint challengeId, uint teamId, uint targetTeamId, bytes32 hash) external\n    {\n        uint oldId = ChallengeIdTeamIdAndTargetTeamIdToSubmitMoveId[challengeId][teamId][targetTeamId];\n        contestSubmits[contestId].remove(oldId);\n        uint id = Moves.commit(contestId, challengeId, teamId, targetTeamId, hash);\n        ChallengeIdTeamIdAndTargetTeamIdToSubmitMoveId[challengeId][teamId][targetTeamId] = id;\n        contestSubmits[contestId].add(id);\n    }\n\n    function revealFlags(uint contestId, uint [] memory challengeIds, uint teamId, string [] memory flags, bytes32 [] memory salts) external {\n        require(challengeIds.length == flags.length, \"length should be equal\");\n        require(challengeIds.length == salts.length, \"length should be equal\");\n        for (uint i = 0; i < challengeIds.length; i++) {\n            _revealFlag(contestId, challengeIds[i], teamId, flags[i], salts[i]);\n        }\n    }\n\n    function revealSubmits(uint contestId, uint teamId, uint [] memory challengeIds, uint [] memory targetTeamIds, string [] memory flags, bytes32 [] memory salts) external {\n        require(challengeIds.length == targetTeamIds.length, \"length should be equal\");\n        require(challengeIds.length == flags.length, \"length should be equal\");\n        require(challengeIds.length == salts.length, \"length should be equal\");\n        for (uint i = 0; i < challengeIds.length; i++) {\n            _revealSubmit(contestId, teamId, challengeIds[i], targetTeamIds[i], flags[i], salts[i]);\n        }\n    }\n\n    function updateScore(uint contestId) external {\n\n    }\n\n    function getContestSubmitIds(uint contestId) external view returns (uint [] memory) {\n        return contestSubmits[contestId].values();\n    }\n\n    function getChallengeTeamFlagMoveId(uint challengeId, uint teamId) external view returns (uint) {\n        return ChallengeIdAndTeamIdToFlagMoveId[challengeId][teamId];\n    }\n\n    function getChallengeTeamTargetTeamSubmitMoveId(uint challengeId, uint teamId, uint targetTeam) external view returns (uint){\n        return ChallengeIdTeamIdAndTargetTeamIdToSubmitMoveId[challengeId][teamId][targetTeam];\n    }\n\n    function getContestFlagIds(uint contestId) external view returns (uint [] memory) {\n        return contestFlags[contestId].values();\n    }\n\n    function getScore(uint teamId) external view returns (uint){\n        return scores[teamId];\n    }\n\n}",
  "sourcePath": "/Users/yhy/Code/GitHub/DCTF/contracts/AWD.sol",
  "compiler": {
    "name": "solc",
    "version": "0.8.10+commit.fc410830.Emscripten.clang"
  },
  "schemaVersion": "3.4.4",
  "updatedAt": "2022-03-04T12:31:25.854Z",
  "networkType": "ethereum",
  "devdoc": {
    "kind": "dev",
    "methods": {},
    "version": 1
  },
  "userdoc": {
    "kind": "user",
    "methods": {},
    "version": 1
  }
}