{
  "contractName": "Challenges",
  "abi": [
    {
      "inputs": [
        {
          "internalType": "address",
          "name": "_Contests",
          "type": "address"
        }
      ],
      "stateMutability": "nonpayable",
      "type": "constructor"
    },
    {
      "inputs": [
        {
          "internalType": "uint256",
          "name": "",
          "type": "uint256"
        }
      ],
      "name": "challenges",
      "outputs": [
        {
          "internalType": "uint256",
          "name": "id",
          "type": "uint256"
        },
        {
          "internalType": "uint256",
          "name": "contestId",
          "type": "uint256"
        },
        {
          "components": [
            {
              "internalType": "string",
              "name": "challengeType",
              "type": "string"
            },
            {
              "internalType": "string",
              "name": "name",
              "type": "string"
            },
            {
              "internalType": "string",
              "name": "category",
              "type": "string"
            },
            {
              "internalType": "string",
              "name": "message",
              "type": "string"
            },
            {
              "internalType": "string",
              "name": "connectionInfo",
              "type": "string"
            },
            {
              "internalType": "string",
              "name": "file",
              "type": "string"
            },
            {
              "internalType": "string",
              "name": "hint",
              "type": "string"
            },
            {
              "internalType": "uint256",
              "name": "value",
              "type": "uint256"
            }
          ],
          "internalType": "struct IChallenges.IChallenge",
          "name": "info",
          "type": "tuple"
        },
        {
          "internalType": "uint256",
          "name": "timeStamp",
          "type": "uint256"
        }
      ],
      "stateMutability": "view",
      "type": "function",
      "constant": true
    },
    {
      "inputs": [],
      "name": "nextId",
      "outputs": [
        {
          "internalType": "uint256",
          "name": "",
          "type": "uint256"
        }
      ],
      "stateMutability": "view",
      "type": "function",
      "constant": true
    },
    {
      "inputs": [
        {
          "internalType": "uint256",
          "name": "contestId",
          "type": "uint256"
        },
        {
          "components": [
            {
              "internalType": "string",
              "name": "challengeType",
              "type": "string"
            },
            {
              "internalType": "string",
              "name": "name",
              "type": "string"
            },
            {
              "internalType": "string",
              "name": "category",
              "type": "string"
            },
            {
              "internalType": "string",
              "name": "message",
              "type": "string"
            },
            {
              "internalType": "string",
              "name": "connectionInfo",
              "type": "string"
            },
            {
              "internalType": "string",
              "name": "file",
              "type": "string"
            },
            {
              "internalType": "string",
              "name": "hint",
              "type": "string"
            },
            {
              "internalType": "uint256",
              "name": "value",
              "type": "uint256"
            }
          ],
          "internalType": "struct IChallenges.IChallenge",
          "name": "challenge",
          "type": "tuple"
        }
      ],
      "name": "add",
      "outputs": [],
      "stateMutability": "nonpayable",
      "type": "function"
    },
    {
      "inputs": [
        {
          "internalType": "uint256",
          "name": "contestId",
          "type": "uint256"
        },
        {
          "internalType": "uint256",
          "name": "id",
          "type": "uint256"
        },
        {
          "components": [
            {
              "internalType": "string",
              "name": "challengeType",
              "type": "string"
            },
            {
              "internalType": "string",
              "name": "name",
              "type": "string"
            },
            {
              "internalType": "string",
              "name": "category",
              "type": "string"
            },
            {
              "internalType": "string",
              "name": "message",
              "type": "string"
            },
            {
              "internalType": "string",
              "name": "connectionInfo",
              "type": "string"
            },
            {
              "internalType": "string",
              "name": "file",
              "type": "string"
            },
            {
              "internalType": "string",
              "name": "hint",
              "type": "string"
            },
            {
              "internalType": "uint256",
              "name": "value",
              "type": "uint256"
            }
          ],
          "internalType": "struct IChallenges.IChallenge",
          "name": "challenge",
          "type": "tuple"
        }
      ],
      "name": "update",
      "outputs": [],
      "stateMutability": "nonpayable",
      "type": "function"
    },
    {
      "inputs": [
        {
          "internalType": "uint256",
          "name": "contestId",
          "type": "uint256"
        },
        {
          "internalType": "uint256[]",
          "name": "_ids",
          "type": "uint256[]"
        }
      ],
      "name": "removes",
      "outputs": [],
      "stateMutability": "nonpayable",
      "type": "function"
    },
    {
      "inputs": [
        {
          "internalType": "uint256",
          "name": "contestId",
          "type": "uint256"
        }
      ],
      "name": "getContestChallengeIds",
      "outputs": [
        {
          "internalType": "uint256[]",
          "name": "",
          "type": "uint256[]"
        }
      ],
      "stateMutability": "view",
      "type": "function",
      "constant": true
    },
    {
      "inputs": [
        {
          "internalType": "uint256",
          "name": "id",
          "type": "uint256"
        }
      ],
      "name": "getChallenge",
      "outputs": [
        {
          "components": [
            {
              "internalType": "uint256",
              "name": "id",
              "type": "uint256"
            },
            {
              "internalType": "uint256",
              "name": "contestId",
              "type": "uint256"
            },
            {
              "components": [
                {
                  "internalType": "string",
                  "name": "challengeType",
                  "type": "string"
                },
                {
                  "internalType": "string",
                  "name": "name",
                  "type": "string"
                },
                {
                  "internalType": "string",
                  "name": "category",
                  "type": "string"
                },
                {
                  "internalType": "string",
                  "name": "message",
                  "type": "string"
                },
                {
                  "internalType": "string",
                  "name": "connectionInfo",
                  "type": "string"
                },
                {
                  "internalType": "string",
                  "name": "file",
                  "type": "string"
                },
                {
                  "internalType": "string",
                  "name": "hint",
                  "type": "string"
                },
                {
                  "internalType": "uint256",
                  "name": "value",
                  "type": "uint256"
                }
              ],
              "internalType": "struct IChallenges.IChallenge",
              "name": "info",
              "type": "tuple"
            },
            {
              "internalType": "uint256",
              "name": "timeStamp",
              "type": "uint256"
            }
          ],
          "internalType": "struct IChallenges.Challenge",
          "name": "",
          "type": "tuple"
        }
      ],
      "stateMutability": "view",
      "type": "function",
      "constant": true
    },
    {
      "inputs": [],
      "name": "getCount",
      "outputs": [
        {
          "internalType": "uint256",
          "name": "",
          "type": "uint256"
        }
      ],
      "stateMutability": "view",
      "type": "function",
      "constant": true
    },
    {
      "inputs": [
        {
          "internalType": "uint256",
          "name": "index",
          "type": "uint256"
        }
      ],
      "name": "get",
      "outputs": [
        {
          "components": [
            {
              "internalType": "uint256",
              "name": "id",
              "type": "uint256"
            },
            {
              "internalType": "uint256",
              "name": "contestId",
              "type": "uint256"
            },
            {
              "components": [
                {
                  "internalType": "string",
                  "name": "challengeType",
                  "type": "string"
                },
                {
                  "internalType": "string",
                  "name": "name",
                  "type": "string"
                },
                {
                  "internalType": "string",
                  "name": "category",
                  "type": "string"
                },
                {
                  "internalType": "string",
                  "name": "message",
                  "type": "string"
                },
                {
                  "internalType": "string",
                  "name": "connectionInfo",
                  "type": "string"
                },
                {
                  "internalType": "string",
                  "name": "file",
                  "type": "string"
                },
                {
                  "internalType": "string",
                  "name": "hint",
                  "type": "string"
                },
                {
                  "internalType": "uint256",
                  "name": "value",
                  "type": "uint256"
                }
              ],
              "internalType": "struct IChallenges.IChallenge",
              "name": "info",
              "type": "tuple"
            },
            {
              "internalType": "uint256",
              "name": "timeStamp",
              "type": "uint256"
            }
          ],
          "internalType": "struct IChallenges.Challenge",
          "name": "",
          "type": "tuple"
        }
      ],
      "stateMutability": "view",
      "type": "function",
      "constant": true
    }
  ],
  "bytecode": "0x608060405260016004553480156200001657600080fd5b50604051620033713803806200337183398181016040528101906200003c9190620000ed565b806000806101000a81548173ffffffffffffffffffffffffffffffffffffffff021916908373ffffffffffffffffffffffffffffffffffffffff160217905550506200011f565b600080fd5b600073ffffffffffffffffffffffffffffffffffffffff82169050919050565b6000620000b58262000088565b9050919050565b620000c781620000a8565b8114620000d357600080fd5b50565b600081519050620000e781620000bc565b92915050565b60006020828403121562000106576200010562000083565b5b60006200011684828501620000d6565b91505092915050565b613242806200012f6000396000f3fe608060405234801561001057600080fd5b50600436106100935760003560e01c80638f1d3776116100665780638f1d3776146101325780639507d39a14610165578063a87d942c14610195578063bddfa122146101b3578063f34cce88146101cf57610093565b80631bdd4b7414610098578063270a4952146100c857806361b8ce8c146100f85780637b1b175a14610116575b600080fd5b6100b260048036038101906100ad9190611d52565b6101eb565b6040516100bf9190611f64565b60405180910390f35b6100e260048036038101906100dd9190611d52565b610653565b6040516100ef9190612035565b60405180910390f35b610100610677565b60405161010d9190612066565b60405180910390f35b610130600480360381019061012b91906120a6565b61067d565b005b61014c60048036038101906101479190611d52565b6108fe565b60405161015c94939291906121ef565b60405180910390f35b61017f600480360381019061017a9190611d52565b610d41565b60405161018c9190611f64565b60405180910390f35b61019d6111bc565b6040516101aa9190612066565b60405180910390f35b6101cd60048036038101906101c89190612383565b6111cd565b005b6101e960048036038101906101e491906123df565b611215565b005b6101f3611bb2565b60036000838152602001908152602001600020604051806080016040529081600082015481526020016001820154815260200160028201604051806101000160405290816000820180546102469061246a565b80601f01602080910402602001604051908101604052809291908181526020018280546102729061246a565b80156102bf5780601f10610294576101008083540402835291602001916102bf565b820191906000526020600020905b8154815290600101906020018083116102a257829003601f168201915b505050505081526020016001820180546102d89061246a565b80601f01602080910402602001604051908101604052809291908181526020018280546103049061246a565b80156103515780601f1061032657610100808354040283529160200191610351565b820191906000526020600020905b81548152906001019060200180831161033457829003601f168201915b5050505050815260200160028201805461036a9061246a565b80601f01602080910402602001604051908101604052809291908181526020018280546103969061246a565b80156103e35780601f106103b8576101008083540402835291602001916103e3565b820191906000526020600020905b8154815290600101906020018083116103c657829003601f168201915b505050505081526020016003820180546103fc9061246a565b80601f01602080910402602001604051908101604052809291908181526020018280546104289061246a565b80156104755780601f1061044a57610100808354040283529160200191610475565b820191906000526020600020905b81548152906001019060200180831161045857829003601f168201915b5050505050815260200160048201805461048e9061246a565b80601f01602080910402602001604051908101604052809291908181526020018280546104ba9061246a565b80156105075780601f106104dc57610100808354040283529160200191610507565b820191906000526020600020905b8154815290600101906020018083116104ea57829003601f168201915b505050505081526020016005820180546105209061246a565b80601f016020809104026020016040519081016040528092919081815260200182805461054c9061246a565b80156105995780601f1061056e57610100808354040283529160200191610599565b820191906000526020600020905b81548152906001019060200180831161057c57829003601f168201915b505050505081526020016006820180546105b29061246a565b80601f01602080910402602001604051908101604052809291908181526020018280546105de9061246a565b801561062b5780601f106106005761010080835404028352916020019161062b565b820191906000526020600020905b81548152906001019060200180831161060e57829003601f168201915b505050505081526020016007820154815250508152602001600a820154815250509050919050565b6060610670600560008481526020019081526020016000206115ad565b9050919050565b60045481565b8160006003600083815260200190815260200160002060000154116106d7576040517f08c379a00000000000000000000000000000000000000000000000000000000081526004016106ce906124f9565b60405180910390fd5b8360008060009054906101000a900473ffffffffffffffffffffffffffffffffffffffff1673ffffffffffffffffffffffffffffffffffffffff1663904b9f72836040518263ffffffff1660e01b81526004016107349190612066565b600060405180830381865afa158015610751573d6000803e3d6000fd5b505050506040513d6000823e3d601f19601f8201168201806040525081019061077a9190612811565b90503373ffffffffffffffffffffffffffffffffffffffff16816040015173ffffffffffffffffffffffffffffffffffffffff16146107ee576040517f08c379a00000000000000000000000000000000000000000000000000000000081526004016107e5906128a6565b60405180910390fd5b85600260008054906101000a900473ffffffffffffffffffffffffffffffffffffffff1673ffffffffffffffffffffffffffffffffffffffff1663434e540b83836040518363ffffffff1660e01b815260040161084c92919061293d565b6020604051808303816000875af115801561086b573d6000803e3d6000fd5b505050506040513d601f19601f8201168201806040525081019061088f919061299e565b6108ce576040517f08c379a00000000000000000000000000000000000000000000000000000000081526004016108c590612a17565b60405180910390fd5b856003600089815260200190815260200160002060020181816108f19190612ed4565b9050505050505050505050565b6003602052806000526040600020600091509050806000015490806001015490806002016040518061010001604052908160008201805461093e9061246a565b80601f016020809104026020016040519081016040528092919081815260200182805461096a9061246a565b80156109b75780601f1061098c576101008083540402835291602001916109b7565b820191906000526020600020905b81548152906001019060200180831161099a57829003601f168201915b505050505081526020016001820180546109d09061246a565b80601f01602080910402602001604051908101604052809291908181526020018280546109fc9061246a565b8015610a495780601f10610a1e57610100808354040283529160200191610a49565b820191906000526020600020905b815481529060010190602001808311610a2c57829003601f168201915b50505050508152602001600282018054610a629061246a565b80601f0160208091040260200160405190810160405280929190818152602001828054610a8e9061246a565b8015610adb5780601f10610ab057610100808354040283529160200191610adb565b820191906000526020600020905b815481529060010190602001808311610abe57829003601f168201915b50505050508152602001600382018054610af49061246a565b80601f0160208091040260200160405190810160405280929190818152602001828054610b209061246a565b8015610b6d5780601f10610b4257610100808354040283529160200191610b6d565b820191906000526020600020905b815481529060010190602001808311610b5057829003601f168201915b50505050508152602001600482018054610b869061246a565b80601f0160208091040260200160405190810160405280929190818152602001828054610bb29061246a565b8015610bff5780601f10610bd457610100808354040283529160200191610bff565b820191906000526020600020905b815481529060010190602001808311610be257829003601f168201915b50505050508152602001600582018054610c189061246a565b80601f0160208091040260200160405190810160405280929190818152602001828054610c449061246a565b8015610c915780601f10610c6657610100808354040283529160200191610c91565b820191906000526020600020905b815481529060010190602001808311610c7457829003601f168201915b50505050508152602001600682018054610caa9061246a565b80601f0160208091040260200160405190810160405280929190818152602001828054610cd69061246a565b8015610d235780601f10610cf857610100808354040283529160200191610d23565b820191906000526020600020905b815481529060010190602001808311610d0657829003601f168201915b505050505081526020016007820154815250509080600a0154905084565b610d49611bb2565b60036000610d618460016115ce90919063ffffffff16565b815260200190815260200160002060405180608001604052908160008201548152602001600182015481526020016002820160405180610100016040529081600082018054610daf9061246a565b80601f0160208091040260200160405190810160405280929190818152602001828054610ddb9061246a565b8015610e285780601f10610dfd57610100808354040283529160200191610e28565b820191906000526020600020905b815481529060010190602001808311610e0b57829003601f168201915b50505050508152602001600182018054610e419061246a565b80601f0160208091040260200160405190810160405280929190818152602001828054610e6d9061246a565b8015610eba5780601f10610e8f57610100808354040283529160200191610eba565b820191906000526020600020905b815481529060010190602001808311610e9d57829003601f168201915b50505050508152602001600282018054610ed39061246a565b80601f0160208091040260200160405190810160405280929190818152602001828054610eff9061246a565b8015610f4c5780601f10610f2157610100808354040283529160200191610f4c565b820191906000526020600020905b815481529060010190602001808311610f2f57829003601f168201915b50505050508152602001600382018054610f659061246a565b80601f0160208091040260200160405190810160405280929190818152602001828054610f919061246a565b8015610fde5780601f10610fb357610100808354040283529160200191610fde565b820191906000526020600020905b815481529060010190602001808311610fc157829003601f168201915b50505050508152602001600482018054610ff79061246a565b80601f01602080910402602001604051908101604052809291908181526020018280546110239061246a565b80156110705780601f1061104557610100808354040283529160200191611070565b820191906000526020600020905b81548152906001019060200180831161105357829003601f168201915b505050505081526020016005820180546110899061246a565b80601f01602080910402602001604051908101604052809291908181526020018280546110b59061246a565b80156111025780601f106110d757610100808354040283529160200191611102565b820191906000526020600020905b8154815290600101906020018083116110e557829003601f168201915b5050505050815260200160068201805461111b9061246a565b80601f01602080910402602001604051908101604052809291908181526020018280546111479061246a565b80156111945780601f1061116957610100808354040283529160200191611194565b820191906000526020600020905b81548152906001019060200180831161117757829003601f168201915b505050505081526020016007820154815250508152602001600a820154815250509050919050565b60006111c860016115e8565b905090565b60005b8151811015611210576111fd838383815181106111f0576111ef612ee2565b5b60200260200101516115fd565b808061120890612f40565b9150506111d0565b505050565b8160008060009054906101000a900473ffffffffffffffffffffffffffffffffffffffff1673ffffffffffffffffffffffffffffffffffffffff1663904b9f72836040518263ffffffff1660e01b81526004016112729190612066565b600060405180830381865afa15801561128f573d6000803e3d6000fd5b505050506040513d6000823e3d601f19601f820116820180604052508101906112b89190612811565b90503373ffffffffffffffffffffffffffffffffffffffff16816040015173ffffffffffffffffffffffffffffffffffffffff161461132c576040517f08c379a0000000000000000000000000000000000000000000000000000000008152600401611323906128a6565b60405180910390fd5b83600260008054906101000a900473ffffffffffffffffffffffffffffffffffffffff1673ffffffffffffffffffffffffffffffffffffffff1663434e540b83836040518363ffffffff1660e01b815260040161138a92919061293d565b6020604051808303816000875af11580156113a9573d6000803e3d6000fd5b505050506040513d601f19601f820116820180604052508101906113cd919061299e565b61140c576040517f08c379a000000000000000000000000000000000000000000000000000000000815260040161140390612a17565b60405180910390fd5b611422600454600161193f90919063ffffffff16565b5061144a6004546005600089815260200190815260200160002061193f90919063ffffffff16565b50604051806080016040528060045481526020018781526020018661146e90613196565b815260200142815250600360006004548152602001908152602001600020600082015181600001556020820151816001015560408201518160020160008201518160000190805190602001906114c5929190611be0565b5060208201518160010190805190602001906114e2929190611be0565b5060408201518160020190805190602001906114ff929190611be0565b50606082015181600301908051906020019061151c929190611be0565b506080820151816004019080519060200190611539929190611be0565b5060a0820151816005019080519060200190611556929190611be0565b5060c0820151816006019080519060200190611573929190611be0565b5060e082015181600701555050606082015181600a0155905050600460008154809291906115a090612f40565b9190505550505050505050565b606060006115bd83600001611959565b905060608190508092505050919050565b60006115dd83600001836119b5565b60001c905092915050565b60006115f6826000016119e0565b9050919050565b806000600360008381526020019081526020016000206000015411611657576040517f08c379a000000000000000000000000000000000000000000000000000000000815260040161164e906124f9565b60405180910390fd5b8260008060009054906101000a900473ffffffffffffffffffffffffffffffffffffffff1673ffffffffffffffffffffffffffffffffffffffff1663904b9f72836040518263ffffffff1660e01b81526004016116b49190612066565b600060405180830381865afa1580156116d1573d6000803e3d6000fd5b505050506040513d6000823e3d601f19601f820116820180604052508101906116fa9190612811565b90503373ffffffffffffffffffffffffffffffffffffffff16816040015173ffffffffffffffffffffffffffffffffffffffff161461176e576040517f08c379a0000000000000000000000000000000000000000000000000000000008152600401611765906128a6565b60405180910390fd5b84600260008054906101000a900473ffffffffffffffffffffffffffffffffffffffff1673ffffffffffffffffffffffffffffffffffffffff1663434e540b83836040518363ffffffff1660e01b81526004016117cc92919061293d565b6020604051808303816000875af11580156117eb573d6000803e3d6000fd5b505050506040513d601f19601f8201168201806040525081019061180f919061299e565b61184e576040517f08c379a000000000000000000000000000000000000000000000000000000000815260040161184590612a17565b60405180910390fd5b6118628660016119f190919063ffffffff16565b5061188886600560008a81526020019081526020016000206119f190919063ffffffff16565b5060036000878152602001908152602001600020600080820160009055600182016000905560028201600080820160006118c29190611c66565b6001820160006118d29190611c66565b6002820160006118e29190611c66565b6003820160006118f29190611c66565b6004820160006119029190611c66565b6005820160006119129190611c66565b6006820160006119229190611c66565b60078201600090555050600a820160009055505050505050505050565b6000611951836000018360001b611a0b565b905092915050565b6060816000018054806020026020016040519081016040528092919081815260200182805480156119a957602002820191906000526020600020905b815481526020019060010190808311611995575b50505050509050919050565b60008260000182815481106119cd576119cc612ee2565b5b9060005260206000200154905092915050565b600081600001805490509050919050565b6000611a03836000018360001b611a7b565b905092915050565b6000611a178383611b8f565b611a70578260000182908060018154018082558091505060019003906000526020600020016000909190919091505582600001805490508360010160008481526020019081526020016000208190555060019050611a75565b600090505b92915050565b60008083600101600084815260200190815260200160002054905060008114611b83576000600182611aad91906131a9565b9050600060018660000180549050611ac591906131a9565b9050818114611b34576000866000018281548110611ae657611ae5612ee2565b5b9060005260206000200154905080876000018481548110611b0a57611b09612ee2565b5b90600052602060002001819055508387600101600083815260200190815260200160002081905550505b85600001805480611b4857611b476131dd565b5b600190038181906000526020600020016000905590558560010160008681526020019081526020016000206000905560019350505050611b89565b60009150505b92915050565b600080836001016000848152602001908152602001600020541415905092915050565b60405180608001604052806000815260200160008152602001611bd3611ca6565b8152602001600081525090565b828054611bec9061246a565b90600052602060002090601f016020900481019282611c0e5760008555611c55565b82601f10611c2757805160ff1916838001178555611c55565b82800160010185558215611c55579182015b82811115611c54578251825591602001919060010190611c39565b5b509050611c629190611ceb565b5090565b508054611c729061246a565b6000825580601f10611c845750611ca3565b601f016020900490600052602060002090810190611ca29190611ceb565b5b50565b60405180610100016040528060608152602001606081526020016060815260200160608152602001606081526020016060815260200160608152602001600081525090565b5b80821115611d04576000816000905550600101611cec565b5090565b6000604051905090565b600080fd5b600080fd5b6000819050919050565b611d2f81611d1c565b8114611d3a57600080fd5b50565b600081359050611d4c81611d26565b92915050565b600060208284031215611d6857611d67611d12565b5b6000611d7684828501611d3d565b91505092915050565b611d8881611d1c565b82525050565b600081519050919050565b600082825260208201905092915050565b60005b83811015611dc8578082015181840152602081019050611dad565b83811115611dd7576000848401525b50505050565b6000601f19601f8301169050919050565b6000611df982611d8e565b611e038185611d99565b9350611e13818560208601611daa565b611e1c81611ddd565b840191505092915050565b6000610100830160008301518482036000860152611e458282611dee565b91505060208301518482036020860152611e5f8282611dee565b91505060408301518482036040860152611e798282611dee565b91505060608301518482036060860152611e938282611dee565b91505060808301518482036080860152611ead8282611dee565b91505060a083015184820360a0860152611ec78282611dee565b91505060c083015184820360c0860152611ee18282611dee565b91505060e0830151611ef660e0860182611d7f565b508091505092915050565b6000608083016000830151611f196000860182611d7f565b506020830151611f2c6020860182611d7f565b5060408301518482036040860152611f448282611e27565b9150506060830151611f596060860182611d7f565b508091505092915050565b60006020820190508181036000830152611f7e8184611f01565b905092915050565b600081519050919050565b600082825260208201905092915050565b6000819050602082019050919050565b6000611fbe8383611d7f565b60208301905092915050565b6000602082019050919050565b6000611fe282611f86565b611fec8185611f91565b9350611ff783611fa2565b8060005b8381101561202857815161200f8882611fb2565b975061201a83611fca565b925050600181019050611ffb565b5085935050505092915050565b6000602082019050818103600083015261204f8184611fd7565b905092915050565b61206081611d1c565b82525050565b600060208201905061207b6000830184612057565b92915050565b600080fd5b6000610100828403121561209d5761209c612081565b5b81905092915050565b6000806000606084860312156120bf576120be611d12565b5b60006120cd86828701611d3d565b93505060206120de86828701611d3d565b925050604084013567ffffffffffffffff8111156120ff576120fe611d17565b5b61210b86828701612086565b9150509250925092565b60006101008301600083015184820360008601526121338282611dee565b9150506020830151848203602086015261214d8282611dee565b915050604083015184820360408601526121678282611dee565b915050606083015184820360608601526121818282611dee565b9150506080830151848203608086015261219b8282611dee565b91505060a083015184820360a08601526121b58282611dee565b91505060c083015184820360c08601526121cf8282611dee565b91505060e08301516121e460e0860182611d7f565b508091505092915050565b60006080820190506122046000830187612057565b6122116020830186612057565b81810360408301526122238185612115565b90506122326060830184612057565b95945050505050565b600080fd5b7f4e487b7100000000000000000000000000000000000000000000000000000000600052604160045260246000fd5b61227882611ddd565b810181811067ffffffffffffffff8211171561229757612296612240565b5b80604052505050565b60006122aa611d08565b90506122b6828261226f565b919050565b600067ffffffffffffffff8211156122d6576122d5612240565b5b602082029050602081019050919050565b600080fd5b60006122ff6122fa846122bb565b6122a0565b90508083825260208201905060208402830185811115612322576123216122e7565b5b835b8181101561234b57806123378882611d3d565b845260208401935050602081019050612324565b5050509392505050565b600082601f83011261236a5761236961223b565b5b813561237a8482602086016122ec565b91505092915050565b6000806040838503121561239a57612399611d12565b5b60006123a885828601611d3d565b925050602083013567ffffffffffffffff8111156123c9576123c8611d17565b5b6123d585828601612355565b9150509250929050565b600080604083850312156123f6576123f5611d12565b5b600061240485828601611d3d565b925050602083013567ffffffffffffffff81111561242557612424611d17565b5b61243185828601612086565b9150509250929050565b7f4e487b7100000000000000000000000000000000000000000000000000000000600052602260045260246000fd5b6000600282049050600182168061248257607f821691505b602082108114156124965761249561243b565b5b50919050565b600082825260208201905092915050565b7f6368616c6c656e676520646f6573206e6f742065786973740000000000000000600082015250565b60006124e360188361249c565b91506124ee826124ad565b602082019050919050565b60006020820190508181036000830152612512816124d6565b9050919050565b600080fd5b600080fd5b60008151905061253281611d26565b92915050565b600080fd5b600067ffffffffffffffff82111561255857612557612240565b5b61256182611ddd565b9050602081019050919050565b600061258161257c8461253d565b6122a0565b90508281526020810184848401111561259d5761259c612538565b5b6125a8848285611daa565b509392505050565b600082601f8301126125c5576125c461223b565b5b81516125d584826020860161256e565b91505092915050565b600060e082840312156125f4576125f3612519565b5b6125fe60e06122a0565b9050600082015167ffffffffffffffff81111561261e5761261d61251e565b5b61262a848285016125b0565b600083015250602082015167ffffffffffffffff81111561264e5761264d61251e565b5b61265a848285016125b0565b602083015250604061266e84828501612523565b604083015250606061268284828501612523565b606083015250608061269684828501612523565b60808301525060a06126aa84828501612523565b60a08301525060c082015167ffffffffffffffff8111156126ce576126cd61251e565b5b6126da848285016125b0565b60c08301525092915050565b600073ffffffffffffffffffffffffffffffffffffffff82169050919050565b6000612711826126e6565b9050919050565b61272181612706565b811461272c57600080fd5b50565b60008151905061273e81612718565b92915050565b6005811061275157600080fd5b50565b60008151905061276381612744565b92915050565b600060a0828403121561277f5761277e612519565b5b61278960a06122a0565b9050600061279984828501612523565b600083015250602082015167ffffffffffffffff8111156127bd576127bc61251e565b5b6127c9848285016125de565b60208301525060406127dd8482850161272f565b60408301525060606127f184828501612754565b606083015250608061280584828501612523565b60808301525092915050565b60006020828403121561282757612826611d12565b5b600082015167ffffffffffffffff81111561284557612844611d17565b5b61285184828501612769565b91505092915050565b7f6f6e6c7920636f6e74657374206f776e65720000000000000000000000000000600082015250565b600061289060128361249c565b915061289b8261285a565b602082019050919050565b600060208201905081810360008301526128bf81612883565b9050919050565b7f4e487b7100000000000000000000000000000000000000000000000000000000600052602160045260246000fd5b60058110612906576129056128c6565b5b50565b6000819050612917826128f5565b919050565b600061292782612909565b9050919050565b6129378161291c565b82525050565b60006040820190506129526000830185612057565b61295f602083018461292e565b9392505050565b60008115159050919050565b61297b81612966565b811461298657600080fd5b50565b60008151905061299881612972565b92915050565b6000602082840312156129b4576129b3611d12565b5b60006129c284828501612989565b91505092915050565b7f77726f6e6720636f6e7465737420737461746500000000000000000000000000600082015250565b6000612a0160138361249c565b9150612a0c826129cb565b602082019050919050565b60006020820190508181036000830152612a30816129f4565b9050919050565b600080fd5b600080fd5b600080fd5b60008083356001602003843603038112612a6357612a62612a37565b5b80840192508235915067ffffffffffffffff821115612a8557612a84612a3c565b5b602083019250600182023603831315612aa157612aa0612a41565b5b509250929050565b600082905092915050565b60008190508160005260206000209050919050565b60006020601f8301049050919050565b600082821b905092915050565b600060088302612b167fffffffffffffffffffffffffffffffffffffffffffffffffffffffffffffffff82612ad9565b612b208683612ad9565b95508019841693508086168417925050509392505050565b6000819050919050565b6000612b5d612b58612b5384611d1c565b612b38565b611d1c565b9050919050565b6000819050919050565b612b7783612b42565b612b8b612b8382612b64565b848454612ae6565b825550505050565b600090565b612ba0612b93565b612bab818484612b6e565b505050565b5b81811015612bcf57612bc4600082612b98565b600181019050612bb1565b5050565b601f821115612c1457612be581612ab4565b612bee84612ac9565b81016020851015612bfd578190505b612c11612c0985612ac9565b830182612bb0565b50505b505050565b600082821c905092915050565b6000612c3760001984600802612c19565b1980831691505092915050565b6000612c508383612c26565b9150826002028217905092915050565b612c6a8383612aa9565b67ffffffffffffffff811115612c8357612c82612240565b5b612c8d825461246a565b612c98828285612bd3565b6000601f831160018114612cc75760008415612cb5578287013590505b612cbf8582612c44565b865550612d27565b601f198416612cd586612ab4565b60005b82811015612cfd57848901358255600182019150602085019450602081019050612cd8565b86831015612d1a5784890135612d16601f891682612c26565b8355505b6001600288020188555050505b50505050505050565b612d3b838383612c60565b505050565b60008135612d4d81611d26565b80915050919050565b60008160001b9050919050565b60007fffffffffffffffffffffffffffffffffffffffffffffffffffffffffffffffff612d8f84612d56565b9350801983169250808416831791505092915050565b612dae82612b42565b612dc1612dba82612b64565b8354612d63565b8255505050565b6000810160008301612dda8185612a46565b612de5818386612d30565b505050506001810160208301612dfb8185612a46565b612e06818386612d30565b505050506002810160408301612e1c8185612a46565b612e27818386612d30565b505050506003810160608301612e3d8185612a46565b612e48818386612d30565b505050506004810160808301612e5e8185612a46565b612e69818386612d30565b505050506005810160a08301612e7f8185612a46565b612e8a818386612d30565b505050506006810160c08301612ea08185612a46565b612eab818386612d30565b505050506007810160e0830180612ec181612d40565b9050612ecd8184612da5565b5050505050565b612ede8282612dc8565b5050565b7f4e487b7100000000000000000000000000000000000000000000000000000000600052603260045260246000fd5b7f4e487b7100000000000000000000000000000000000000000000000000000000600052601160045260246000fd5b6000612f4b82611d1c565b91507fffffffffffffffffffffffffffffffffffffffffffffffffffffffffffffffff821415612f7e57612f7d612f11565b5b600182019050919050565b82818337600083830152505050565b6000612fab612fa68461253d565b6122a0565b905082815260208101848484011115612fc757612fc6612538565b5b612fd2848285612f89565b509392505050565b600082601f830112612fef57612fee61223b565b5b8135612fff848260208601612f98565b91505092915050565b6000610100828403121561301f5761301e612519565b5b61302a6101006122a0565b9050600082013567ffffffffffffffff81111561304a5761304961251e565b5b61305684828501612fda565b600083015250602082013567ffffffffffffffff81111561307a5761307961251e565b5b61308684828501612fda565b602083015250604082013567ffffffffffffffff8111156130aa576130a961251e565b5b6130b684828501612fda565b604083015250606082013567ffffffffffffffff8111156130da576130d961251e565b5b6130e684828501612fda565b606083015250608082013567ffffffffffffffff81111561310a5761310961251e565b5b61311684828501612fda565b60808301525060a082013567ffffffffffffffff81111561313a5761313961251e565b5b61314684828501612fda565b60a08301525060c082013567ffffffffffffffff81111561316a5761316961251e565b5b61317684828501612fda565b60c08301525060e061318a84828501611d3d565b60e08301525092915050565b60006131a23683613008565b9050919050565b60006131b482611d1c565b91506131bf83611d1c565b9250828210156131d2576131d1612f11565b5b828203905092915050565b7f4e487b7100000000000000000000000000000000000000000000000000000000600052603160045260246000fdfea2646970667358221220af48114927f99aa0da503db7b41ee91a20f10445d7679a46ee0363dc1421276864736f6c634300080a0033",
  "immutableReferences": {},
  "source": "// SPDX-License-Identifier: MIT\npragma solidity ^0.8.10;\npragma experimental ABIEncoderV2;\n\n\nimport \"@openzeppelin/contracts/utils/structs/EnumerableSet.sol\";\nimport \"./IChallenges.sol\";\nimport \"./IContests.sol\";\n\ncontract Challenges is IChallenges{\n\n    using EnumerableSet for EnumerableSet.UintSet;\n\n    IContests Contests;\n\n    constructor(address _Contests) {\n        Contests = IContests(_Contests);\n    }\n\n    EnumerableSet.UintSet ids;\n    mapping(uint => Challenge) public challenges;\n    uint public nextId = 1;\n\n    mapping(uint => EnumerableSet.UintSet) contestChallenges;\n\n    function _remove(uint contestId, uint id) internal\n    onlyChallengeExist(id)\n    onlyContestOwner(contestId)\n    onlyContestInState(contestId, IContests.ContestState.STARTED) {\n        ids.remove(id);\n        contestChallenges[contestId].remove(id);\n        delete challenges[id];\n    }\n\n    function add(uint contestId, IChallenge calldata challenge) external\n    onlyContestOwner(contestId)\n    onlyContestInState(contestId, IContests.ContestState.STARTED) {\n        ids.add(nextId);\n        contestChallenges[contestId].add(nextId);\n        challenges[nextId] = Challenge(nextId, contestId, challenge, block.timestamp);\n        nextId++;\n    }\n\n    function update(uint contestId, uint id, IChallenge calldata challenge) external\n    onlyChallengeExist(id)\n    onlyContestOwner(contestId)\n    onlyContestInState(contestId, IContests.ContestState.STARTED){\n        challenges[id].info = challenge;\n    }\n\n    function removes(uint contestId, uint [] memory _ids) external {\n        for (uint i = 0; i < _ids.length; i++) {\n            _remove(contestId, _ids[i]);\n        }\n    }\n\n    function getContestChallengeIds(uint contestId) external view returns (uint [] memory){\n        return contestChallenges[contestId].values();\n    }\n\n    function getChallenge(uint id) external view returns (Challenge memory) {\n        return challenges[id];\n    }\n\n    function getCount() external view returns (uint) {\n        return ids.length();\n    }\n\n    function get(uint index) external view returns (Challenge memory) {\n        return challenges[ids.at(index)];\n    }\n\n    modifier onlyChallengeExist(uint id){\n        require(challenges[id].id > 0, \"challenge does not exist\");\n        _;\n    }\n    modifier onlyContestOwner(uint contestId){\n        IContests.Contest memory contest = Contests.getContest(contestId);\n        require(contest.owner == msg.sender, \"only contest owner\");\n        _;\n    }\n    modifier onlyContestInState(uint contestId, IContests.ContestState state){\n        require(Contests.contestInState(contestId, state), \"wrong contest state\");\n        _;\n    }\n}",
  "sourcePath": "/Users/yhy/Code/GitHub/DCTF/contracts/Challenges.sol",
  "compiler": {
    "name": "solc",
    "version": "0.8.10+commit.fc410830.Emscripten.clang"
  },
  "schemaVersion": "3.4.4",
  "updatedAt": "2022-03-04T12:31:25.779Z",
  "networkType": "ethereum",
  "devdoc": {
    "kind": "dev",
    "methods": {},
    "version": 1
  },
  "userdoc": {
    "kind": "user",
    "methods": {},
    "version": 1
  }
}