{
  "contractName": "Challenges",
  "abi": [
    {
      "inputs": [
        {
          "internalType": "address",
          "name": "_Contests",
          "type": "address"
        }
      ],
      "stateMutability": "nonpayable",
      "type": "constructor"
    },
    {
      "inputs": [
        {
          "internalType": "uint256",
          "name": "",
          "type": "uint256"
        }
      ],
      "name": "challenges",
      "outputs": [
        {
          "internalType": "uint256",
          "name": "id",
          "type": "uint256"
        },
        {
          "internalType": "uint256",
          "name": "contestId",
          "type": "uint256"
        },
        {
          "components": [
            {
              "internalType": "string",
              "name": "challengeType",
              "type": "string"
            },
            {
              "internalType": "string",
              "name": "name",
              "type": "string"
            },
            {
              "internalType": "string",
              "name": "category",
              "type": "string"
            },
            {
              "internalType": "string",
              "name": "message",
              "type": "string"
            },
            {
              "internalType": "string",
              "name": "connectionInfo",
              "type": "string"
            },
            {
              "internalType": "string",
              "name": "file",
              "type": "string"
            },
            {
              "internalType": "string",
              "name": "hint",
              "type": "string"
            },
            {
              "internalType": "uint256",
              "name": "value",
              "type": "uint256"
            }
          ],
          "internalType": "struct IChallenges.IChallenge",
          "name": "challengeInfo",
          "type": "tuple"
        },
        {
          "internalType": "uint256",
          "name": "timeStamp",
          "type": "uint256"
        }
      ],
      "stateMutability": "view",
      "type": "function",
      "constant": true
    },
    {
      "inputs": [],
      "name": "nextId",
      "outputs": [
        {
          "internalType": "uint256",
          "name": "",
          "type": "uint256"
        }
      ],
      "stateMutability": "view",
      "type": "function",
      "constant": true
    },
    {
      "inputs": [
        {
          "internalType": "uint256",
          "name": "contestId",
          "type": "uint256"
        },
        {
          "components": [
            {
              "internalType": "string",
              "name": "challengeType",
              "type": "string"
            },
            {
              "internalType": "string",
              "name": "name",
              "type": "string"
            },
            {
              "internalType": "string",
              "name": "category",
              "type": "string"
            },
            {
              "internalType": "string",
              "name": "message",
              "type": "string"
            },
            {
              "internalType": "string",
              "name": "connectionInfo",
              "type": "string"
            },
            {
              "internalType": "string",
              "name": "file",
              "type": "string"
            },
            {
              "internalType": "string",
              "name": "hint",
              "type": "string"
            },
            {
              "internalType": "uint256",
              "name": "value",
              "type": "uint256"
            }
          ],
          "internalType": "struct IChallenges.IChallenge",
          "name": "challenge",
          "type": "tuple"
        }
      ],
      "name": "add",
      "outputs": [],
      "stateMutability": "nonpayable",
      "type": "function"
    },
    {
      "inputs": [
        {
          "internalType": "uint256",
          "name": "contestId",
          "type": "uint256"
        },
        {
          "internalType": "uint256",
          "name": "id",
          "type": "uint256"
        },
        {
          "components": [
            {
              "internalType": "string",
              "name": "challengeType",
              "type": "string"
            },
            {
              "internalType": "string",
              "name": "name",
              "type": "string"
            },
            {
              "internalType": "string",
              "name": "category",
              "type": "string"
            },
            {
              "internalType": "string",
              "name": "message",
              "type": "string"
            },
            {
              "internalType": "string",
              "name": "connectionInfo",
              "type": "string"
            },
            {
              "internalType": "string",
              "name": "file",
              "type": "string"
            },
            {
              "internalType": "string",
              "name": "hint",
              "type": "string"
            },
            {
              "internalType": "uint256",
              "name": "value",
              "type": "uint256"
            }
          ],
          "internalType": "struct IChallenges.IChallenge",
          "name": "challenge",
          "type": "tuple"
        }
      ],
      "name": "update",
      "outputs": [],
      "stateMutability": "nonpayable",
      "type": "function"
    },
    {
      "inputs": [
        {
          "internalType": "uint256",
          "name": "contestId",
          "type": "uint256"
        },
        {
          "internalType": "uint256",
          "name": "id",
          "type": "uint256"
        }
      ],
      "name": "remove",
      "outputs": [],
      "stateMutability": "nonpayable",
      "type": "function"
    },
    {
      "inputs": [],
      "name": "getAll",
      "outputs": [
        {
          "components": [
            {
              "internalType": "uint256",
              "name": "id",
              "type": "uint256"
            },
            {
              "internalType": "uint256",
              "name": "contestId",
              "type": "uint256"
            },
            {
              "components": [
                {
                  "internalType": "string",
                  "name": "challengeType",
                  "type": "string"
                },
                {
                  "internalType": "string",
                  "name": "name",
                  "type": "string"
                },
                {
                  "internalType": "string",
                  "name": "category",
                  "type": "string"
                },
                {
                  "internalType": "string",
                  "name": "message",
                  "type": "string"
                },
                {
                  "internalType": "string",
                  "name": "connectionInfo",
                  "type": "string"
                },
                {
                  "internalType": "string",
                  "name": "file",
                  "type": "string"
                },
                {
                  "internalType": "string",
                  "name": "hint",
                  "type": "string"
                },
                {
                  "internalType": "uint256",
                  "name": "value",
                  "type": "uint256"
                }
              ],
              "internalType": "struct IChallenges.IChallenge",
              "name": "challengeInfo",
              "type": "tuple"
            },
            {
              "internalType": "uint256",
              "name": "timeStamp",
              "type": "uint256"
            }
          ],
          "internalType": "struct IChallenges.Challenge[]",
          "name": "",
          "type": "tuple[]"
        }
      ],
      "stateMutability": "view",
      "type": "function",
      "constant": true
    },
    {
      "inputs": [
        {
          "internalType": "uint256[]",
          "name": "_ids",
          "type": "uint256[]"
        }
      ],
      "name": "getSome",
      "outputs": [
        {
          "components": [
            {
              "internalType": "uint256",
              "name": "id",
              "type": "uint256"
            },
            {
              "internalType": "uint256",
              "name": "contestId",
              "type": "uint256"
            },
            {
              "components": [
                {
                  "internalType": "string",
                  "name": "challengeType",
                  "type": "string"
                },
                {
                  "internalType": "string",
                  "name": "name",
                  "type": "string"
                },
                {
                  "internalType": "string",
                  "name": "category",
                  "type": "string"
                },
                {
                  "internalType": "string",
                  "name": "message",
                  "type": "string"
                },
                {
                  "internalType": "string",
                  "name": "connectionInfo",
                  "type": "string"
                },
                {
                  "internalType": "string",
                  "name": "file",
                  "type": "string"
                },
                {
                  "internalType": "string",
                  "name": "hint",
                  "type": "string"
                },
                {
                  "internalType": "uint256",
                  "name": "value",
                  "type": "uint256"
                }
              ],
              "internalType": "struct IChallenges.IChallenge",
              "name": "challengeInfo",
              "type": "tuple"
            },
            {
              "internalType": "uint256",
              "name": "timeStamp",
              "type": "uint256"
            }
          ],
          "internalType": "struct IChallenges.Challenge[]",
          "name": "",
          "type": "tuple[]"
        }
      ],
      "stateMutability": "view",
      "type": "function",
      "constant": true
    },
    {
      "inputs": [
        {
          "internalType": "uint256",
          "name": "contestId",
          "type": "uint256"
        }
      ],
      "name": "gets",
      "outputs": [
        {
          "components": [
            {
              "internalType": "uint256",
              "name": "id",
              "type": "uint256"
            },
            {
              "internalType": "uint256",
              "name": "contestId",
              "type": "uint256"
            },
            {
              "components": [
                {
                  "internalType": "string",
                  "name": "challengeType",
                  "type": "string"
                },
                {
                  "internalType": "string",
                  "name": "name",
                  "type": "string"
                },
                {
                  "internalType": "string",
                  "name": "category",
                  "type": "string"
                },
                {
                  "internalType": "string",
                  "name": "message",
                  "type": "string"
                },
                {
                  "internalType": "string",
                  "name": "connectionInfo",
                  "type": "string"
                },
                {
                  "internalType": "string",
                  "name": "file",
                  "type": "string"
                },
                {
                  "internalType": "string",
                  "name": "hint",
                  "type": "string"
                },
                {
                  "internalType": "uint256",
                  "name": "value",
                  "type": "uint256"
                }
              ],
              "internalType": "struct IChallenges.IChallenge",
              "name": "challengeInfo",
              "type": "tuple"
            },
            {
              "internalType": "uint256",
              "name": "timeStamp",
              "type": "uint256"
            }
          ],
          "internalType": "struct IChallenges.Challenge[]",
          "name": "",
          "type": "tuple[]"
        }
      ],
      "stateMutability": "view",
      "type": "function",
      "constant": true
    },
    {
      "inputs": [
        {
          "internalType": "uint256",
          "name": "contestId",
          "type": "uint256"
        }
      ],
      "name": "getsId",
      "outputs": [
        {
          "internalType": "uint256[]",
          "name": "",
          "type": "uint256[]"
        }
      ],
      "stateMutability": "view",
      "type": "function",
      "constant": true
    },
    {
      "inputs": [],
      "name": "getCount",
      "outputs": [
        {
          "internalType": "uint256",
          "name": "",
          "type": "uint256"
        }
      ],
      "stateMutability": "view",
      "type": "function",
      "constant": true
    },
    {
      "inputs": [
        {
          "internalType": "uint256",
          "name": "index",
          "type": "uint256"
        }
      ],
      "name": "get",
      "outputs": [
        {
          "components": [
            {
              "internalType": "uint256",
              "name": "id",
              "type": "uint256"
            },
            {
              "internalType": "uint256",
              "name": "contestId",
              "type": "uint256"
            },
            {
              "components": [
                {
                  "internalType": "string",
                  "name": "challengeType",
                  "type": "string"
                },
                {
                  "internalType": "string",
                  "name": "name",
                  "type": "string"
                },
                {
                  "internalType": "string",
                  "name": "category",
                  "type": "string"
                },
                {
                  "internalType": "string",
                  "name": "message",
                  "type": "string"
                },
                {
                  "internalType": "string",
                  "name": "connectionInfo",
                  "type": "string"
                },
                {
                  "internalType": "string",
                  "name": "file",
                  "type": "string"
                },
                {
                  "internalType": "string",
                  "name": "hint",
                  "type": "string"
                },
                {
                  "internalType": "uint256",
                  "name": "value",
                  "type": "uint256"
                }
              ],
              "internalType": "struct IChallenges.IChallenge",
              "name": "challengeInfo",
              "type": "tuple"
            },
            {
              "internalType": "uint256",
              "name": "timeStamp",
              "type": "uint256"
            }
          ],
          "internalType": "struct IChallenges.Challenge",
          "name": "",
          "type": "tuple"
        }
      ],
      "stateMutability": "view",
      "type": "function",
      "constant": true
    }
  ],
  "bytecode": "0x608060405260016004553480156200001657600080fd5b50604051620032cd380380620032cd83398181016040528101906200003c9190620000ed565b806000806101000a81548173ffffffffffffffffffffffffffffffffffffffff021916908373ffffffffffffffffffffffffffffffffffffffff160217905550506200011f565b600080fd5b600073ffffffffffffffffffffffffffffffffffffffff82169050919050565b6000620000b58262000088565b9050919050565b620000c781620000a8565b8114620000d357600080fd5b50565b600081519050620000e781620000bc565b92915050565b60006020828403121562000106576200010562000083565b5b60006200011684828501620000d6565b91505092915050565b61319e806200012f6000396000f3fe608060405234801561001057600080fd5b50600436106100a95760003560e01c80638f1d3776116100715780638f1d3776146101525780639507d39a14610185578063a87d942c146101b5578063d30f3f48146101d3578063f34cce8814610203578063f640a0061461021f576100a9565b806353ed5143146100ae57806361b8ce8c146100cc5780636526db7a146100ea5780637b1b175a146101065780638324180314610122575b600080fd5b6100b661024f565b6040516100c39190612038565b60405180910390f35b6100d4610268565b6040516100e19190612069565b60405180910390f35b61010460048036038101906100ff91906120c4565b61026e565b005b610120600480360381019061011b9190612129565b61056e565b005b61013c600480360381019061013791906122e0565b6107ad565b6040516101499190612038565b60405180910390f35b61016c60048036038101906101679190612329565b6107bf565b60405161017c9493929190612430565b60405180910390f35b61019f600480360381019061019a9190612329565b610c02565b6040516101ac91906124df565b60405180910390f35b6101bd61107d565b6040516101ca9190612069565b60405180910390f35b6101ed60048036038101906101e89190612329565b61108e565b6040516101fa9190612038565b60405180910390f35b61021d60048036038101906102189190612501565b6110ba565b005b61023960048036038101906102349190612329565b611416565b604051610246919061260c565b60405180910390f35b606061026361025e600161143a565b61145b565b905090565b60045481565b8061028381600161197590919063ffffffff16565b6102c2576040517f08c379a00000000000000000000000000000000000000000000000000000000081526004016102b99061268b565b60405180910390fd5b8260008054906101000a900473ffffffffffffffffffffffffffffffffffffffff1673ffffffffffffffffffffffffffffffffffffffff16635a5d096c82336040518363ffffffff1660e01b815260040161031e9291906126ec565b602060405180830381865afa15801561033b573d6000803e3d6000fd5b505050506040513d601f19601f8201168201806040525081019061035f919061274d565b61039e576040517f08c379a0000000000000000000000000000000000000000000000000000000008152600401610395906127c6565b60405180910390fd5b83600260008054906101000a900473ffffffffffffffffffffffffffffffffffffffff1673ffffffffffffffffffffffffffffffffffffffff1663434e540b83836040518363ffffffff1660e01b81526004016103fc92919061285d565b6020604051808303816000875af115801561041b573d6000803e3d6000fd5b505050506040513d601f19601f8201168201806040525081019061043f919061274d565b61047e576040517f08c379a0000000000000000000000000000000000000000000000000000000008152600401610475906128d2565b60405180910390fd5b61049285600161198f90919063ffffffff16565b506104b8856005600089815260200190815260200160002061198f90919063ffffffff16565b5060036000868152602001908152602001600020600080820160009055600182016000905560028201600080820160006104f29190611c31565b6001820160006105029190611c31565b6002820160006105129190611c31565b6003820160006105229190611c31565b6004820160006105329190611c31565b6005820160006105429190611c31565b6006820160006105529190611c31565b60078201600090555050600a8201600090555050505050505050565b8161058381600161197590919063ffffffff16565b6105c2576040517f08c379a00000000000000000000000000000000000000000000000000000000081526004016105b99061268b565b60405180910390fd5b8360008054906101000a900473ffffffffffffffffffffffffffffffffffffffff1673ffffffffffffffffffffffffffffffffffffffff16635a5d096c82336040518363ffffffff1660e01b815260040161061e9291906126ec565b602060405180830381865afa15801561063b573d6000803e3d6000fd5b505050506040513d601f19601f8201168201806040525081019061065f919061274d565b61069e576040517f08c379a0000000000000000000000000000000000000000000000000000000008152600401610695906127c6565b60405180910390fd5b84600260008054906101000a900473ffffffffffffffffffffffffffffffffffffffff1673ffffffffffffffffffffffffffffffffffffffff1663434e540b83836040518363ffffffff1660e01b81526004016106fc92919061285d565b6020604051808303816000875af115801561071b573d6000803e3d6000fd5b505050506040513d601f19601f8201168201806040525081019061073f919061274d565b61077e576040517f08c379a0000000000000000000000000000000000000000000000000000000008152600401610775906128d2565b60405180910390fd5b846003600088815260200190815260200160002060020181816107a19190612df0565b90505050505050505050565b60606107b88261145b565b9050919050565b600360205280600052604060002060009150905080600001549080600101549080600201604051806101000160405290816000820180546107ff9061299e565b80601f016020809104026020016040519081016040528092919081815260200182805461082b9061299e565b80156108785780601f1061084d57610100808354040283529160200191610878565b820191906000526020600020905b81548152906001019060200180831161085b57829003601f168201915b505050505081526020016001820180546108919061299e565b80601f01602080910402602001604051908101604052809291908181526020018280546108bd9061299e565b801561090a5780601f106108df5761010080835404028352916020019161090a565b820191906000526020600020905b8154815290600101906020018083116108ed57829003601f168201915b505050505081526020016002820180546109239061299e565b80601f016020809104026020016040519081016040528092919081815260200182805461094f9061299e565b801561099c5780601f106109715761010080835404028352916020019161099c565b820191906000526020600020905b81548152906001019060200180831161097f57829003601f168201915b505050505081526020016003820180546109b59061299e565b80601f01602080910402602001604051908101604052809291908181526020018280546109e19061299e565b8015610a2e5780601f10610a0357610100808354040283529160200191610a2e565b820191906000526020600020905b815481529060010190602001808311610a1157829003601f168201915b50505050508152602001600482018054610a479061299e565b80601f0160208091040260200160405190810160405280929190818152602001828054610a739061299e565b8015610ac05780601f10610a9557610100808354040283529160200191610ac0565b820191906000526020600020905b815481529060010190602001808311610aa357829003601f168201915b50505050508152602001600582018054610ad99061299e565b80601f0160208091040260200160405190810160405280929190818152602001828054610b059061299e565b8015610b525780601f10610b2757610100808354040283529160200191610b52565b820191906000526020600020905b815481529060010190602001808311610b3557829003601f168201915b50505050508152602001600682018054610b6b9061299e565b80601f0160208091040260200160405190810160405280929190818152602001828054610b979061299e565b8015610be45780601f10610bb957610100808354040283529160200191610be4565b820191906000526020600020905b815481529060010190602001808311610bc757829003601f168201915b505050505081526020016007820154815250509080600a0154905084565b610c0a611c71565b60036000610c228460016119a990919063ffffffff16565b815260200190815260200160002060405180608001604052908160008201548152602001600182015481526020016002820160405180610100016040529081600082018054610c709061299e565b80601f0160208091040260200160405190810160405280929190818152602001828054610c9c9061299e565b8015610ce95780601f10610cbe57610100808354040283529160200191610ce9565b820191906000526020600020905b815481529060010190602001808311610ccc57829003601f168201915b50505050508152602001600182018054610d029061299e565b80601f0160208091040260200160405190810160405280929190818152602001828054610d2e9061299e565b8015610d7b5780601f10610d5057610100808354040283529160200191610d7b565b820191906000526020600020905b815481529060010190602001808311610d5e57829003601f168201915b50505050508152602001600282018054610d949061299e565b80601f0160208091040260200160405190810160405280929190818152602001828054610dc09061299e565b8015610e0d5780601f10610de257610100808354040283529160200191610e0d565b820191906000526020600020905b815481529060010190602001808311610df057829003601f168201915b50505050508152602001600382018054610e269061299e565b80601f0160208091040260200160405190810160405280929190818152602001828054610e529061299e565b8015610e9f5780601f10610e7457610100808354040283529160200191610e9f565b820191906000526020600020905b815481529060010190602001808311610e8257829003601f168201915b50505050508152602001600482018054610eb89061299e565b80601f0160208091040260200160405190810160405280929190818152602001828054610ee49061299e565b8015610f315780601f10610f0657610100808354040283529160200191610f31565b820191906000526020600020905b815481529060010190602001808311610f1457829003601f168201915b50505050508152602001600582018054610f4a9061299e565b80601f0160208091040260200160405190810160405280929190818152602001828054610f769061299e565b8015610fc35780601f10610f9857610100808354040283529160200191610fc3565b820191906000526020600020905b815481529060010190602001808311610fa657829003601f168201915b50505050508152602001600682018054610fdc9061299e565b80601f01602080910402602001604051908101604052809291908181526020018280546110089061299e565b80156110555780601f1061102a57610100808354040283529160200191611055565b820191906000526020600020905b81548152906001019060200180831161103857829003601f168201915b505050505081526020016007820154815250508152602001600a820154815250509050919050565b600061108960016119c3565b905090565b60606110b36110ae6005600085815260200190815260200160002061143a565b61145b565b9050919050565b8160008054906101000a900473ffffffffffffffffffffffffffffffffffffffff1673ffffffffffffffffffffffffffffffffffffffff16635a5d096c82336040518363ffffffff1660e01b81526004016111169291906126ec565b602060405180830381865afa158015611133573d6000803e3d6000fd5b505050506040513d601f19601f82011682018060405250810190611157919061274d565b611196576040517f08c379a000000000000000000000000000000000000000000000000000000000815260040161118d906127c6565b60405180910390fd5b82600260008054906101000a900473ffffffffffffffffffffffffffffffffffffffff1673ffffffffffffffffffffffffffffffffffffffff1663434e540b83836040518363ffffffff1660e01b81526004016111f492919061285d565b6020604051808303816000875af1158015611213573d6000803e3d6000fd5b505050506040513d601f19601f82011682018060405250810190611237919061274d565b611276576040517f08c379a000000000000000000000000000000000000000000000000000000000815260040161126d906128d2565b60405180910390fd5b61128c60045460016119d890919063ffffffff16565b506112b4600454600560008881526020019081526020016000206119d890919063ffffffff16565b5060405180608001604052806004548152602001868152602001856112d89061304b565b8152602001428152506003600060045481526020019081526020016000206000820151816000015560208201518160010155604082015181600201600082015181600001908051906020019061132f929190611c9f565b50602082015181600101908051906020019061134c929190611c9f565b506040820151816002019080519060200190611369929190611c9f565b506060820151816003019080519060200190611386929190611c9f565b5060808201518160040190805190602001906113a3929190611c9f565b5060a08201518160050190805190602001906113c0929190611c9f565b5060c08201518160060190805190602001906113dd929190611c9f565b5060e082015181600701555050606082015181600a01559050506004600081548092919061140a9061308d565b91905055505050505050565b60606114336005600084815260200190815260200160002061143a565b9050919050565b6060600061144a836000016119f2565b905060608190508092505050919050565b606060008251905060008167ffffffffffffffff81111561147f5761147e61219d565b5b6040519080825280602002602001820160405280156114b857816020015b6114a5611c71565b81526020019060019003908161149d5790505b50905060005b8281101561196a57600360008683815181106114dd576114dc6130d6565b5b60200260200101518152602001908152602001600020604051806080016040529081600082015481526020016001820154815260200160028201604051806101000160405290816000820180546115339061299e565b80601f016020809104026020016040519081016040528092919081815260200182805461155f9061299e565b80156115ac5780601f10611581576101008083540402835291602001916115ac565b820191906000526020600020905b81548152906001019060200180831161158f57829003601f168201915b505050505081526020016001820180546115c59061299e565b80601f01602080910402602001604051908101604052809291908181526020018280546115f19061299e565b801561163e5780601f106116135761010080835404028352916020019161163e565b820191906000526020600020905b81548152906001019060200180831161162157829003601f168201915b505050505081526020016002820180546116579061299e565b80601f01602080910402602001604051908101604052809291908181526020018280546116839061299e565b80156116d05780601f106116a5576101008083540402835291602001916116d0565b820191906000526020600020905b8154815290600101906020018083116116b357829003601f168201915b505050505081526020016003820180546116e99061299e565b80601f01602080910402602001604051908101604052809291908181526020018280546117159061299e565b80156117625780601f1061173757610100808354040283529160200191611762565b820191906000526020600020905b81548152906001019060200180831161174557829003601f168201915b5050505050815260200160048201805461177b9061299e565b80601f01602080910402602001604051908101604052809291908181526020018280546117a79061299e565b80156117f45780601f106117c9576101008083540402835291602001916117f4565b820191906000526020600020905b8154815290600101906020018083116117d757829003601f168201915b5050505050815260200160058201805461180d9061299e565b80601f01602080910402602001604051908101604052809291908181526020018280546118399061299e565b80156118865780601f1061185b57610100808354040283529160200191611886565b820191906000526020600020905b81548152906001019060200180831161186957829003601f168201915b5050505050815260200160068201805461189f9061299e565b80601f01602080910402602001604051908101604052809291908181526020018280546118cb9061299e565b80156119185780601f106118ed57610100808354040283529160200191611918565b820191906000526020600020905b8154815290600101906020018083116118fb57829003601f168201915b505050505081526020016007820154815250508152602001600a8201548152505082828151811061194c5761194b6130d6565b5b602002602001018190525080806119629061308d565b9150506114be565b508092505050919050565b6000611987836000018360001b611a4e565b905092915050565b60006119a1836000018360001b611a71565b905092915050565b60006119b88360000183611b85565b60001c905092915050565b60006119d182600001611bb0565b9050919050565b60006119ea836000018360001b611bc1565b905092915050565b606081600001805480602002602001604051908101604052809291908181526020018280548015611a4257602002820191906000526020600020905b815481526020019060010190808311611a2e575b50505050509050919050565b600080836001016000848152602001908152602001600020541415905092915050565b60008083600101600084815260200190815260200160002054905060008114611b79576000600182611aa39190613105565b9050600060018660000180549050611abb9190613105565b9050818114611b2a576000866000018281548110611adc57611adb6130d6565b5b9060005260206000200154905080876000018481548110611b0057611aff6130d6565b5b90600052602060002001819055508387600101600083815260200190815260200160002081905550505b85600001805480611b3e57611b3d613139565b5b600190038181906000526020600020016000905590558560010160008681526020019081526020016000206000905560019350505050611b7f565b60009150505b92915050565b6000826000018281548110611b9d57611b9c6130d6565b5b9060005260206000200154905092915050565b600081600001805490509050919050565b6000611bcd8383611a4e565b611c26578260000182908060018154018082558091505060019003906000526020600020016000909190919091505582600001805490508360010160008481526020019081526020016000208190555060019050611c2b565b600090505b92915050565b508054611c3d9061299e565b6000825580601f10611c4f5750611c6e565b601f016020900490600052602060002090810190611c6d9190611d25565b5b50565b60405180608001604052806000815260200160008152602001611c92611d42565b8152602001600081525090565b828054611cab9061299e565b90600052602060002090601f016020900481019282611ccd5760008555611d14565b82601f10611ce657805160ff1916838001178555611d14565b82800160010185558215611d14579182015b82811115611d13578251825591602001919060010190611cf8565b5b509050611d219190611d25565b5090565b5b80821115611d3e576000816000905550600101611d26565b5090565b60405180610100016040528060608152602001606081526020016060815260200160608152602001606081526020016060815260200160608152602001600081525090565b600081519050919050565b600082825260208201905092915050565b6000819050602082019050919050565b6000819050919050565b611dc681611db3565b82525050565b600081519050919050565b600082825260208201905092915050565b60005b83811015611e06578082015181840152602081019050611deb565b83811115611e15576000848401525b50505050565b6000601f19601f8301169050919050565b6000611e3782611dcc565b611e418185611dd7565b9350611e51818560208601611de8565b611e5a81611e1b565b840191505092915050565b6000610100830160008301518482036000860152611e838282611e2c565b91505060208301518482036020860152611e9d8282611e2c565b91505060408301518482036040860152611eb78282611e2c565b91505060608301518482036060860152611ed18282611e2c565b91505060808301518482036080860152611eeb8282611e2c565b91505060a083015184820360a0860152611f058282611e2c565b91505060c083015184820360c0860152611f1f8282611e2c565b91505060e0830151611f3460e0860182611dbd565b508091505092915050565b6000608083016000830151611f576000860182611dbd565b506020830151611f6a6020860182611dbd565b5060408301518482036040860152611f828282611e65565b9150506060830151611f976060860182611dbd565b508091505092915050565b6000611fae8383611f3f565b905092915050565b6000602082019050919050565b6000611fce82611d87565b611fd88185611d92565b935083602082028501611fea85611da3565b8060005b8581101561202657848403895281516120078582611fa2565b945061201283611fb6565b925060208a01995050600181019050611fee565b50829750879550505050505092915050565b600060208201905081810360008301526120528184611fc3565b905092915050565b61206381611db3565b82525050565b600060208201905061207e600083018461205a565b92915050565b6000604051905090565b600080fd5b600080fd5b6120a181611db3565b81146120ac57600080fd5b50565b6000813590506120be81612098565b92915050565b600080604083850312156120db576120da61208e565b5b60006120e9858286016120af565b92505060206120fa858286016120af565b9150509250929050565b600080fd5b600061010082840312156121205761211f612104565b5b81905092915050565b6000806000606084860312156121425761214161208e565b5b6000612150868287016120af565b9350506020612161868287016120af565b925050604084013567ffffffffffffffff81111561218257612181612093565b5b61218e86828701612109565b9150509250925092565b600080fd5b7f4e487b7100000000000000000000000000000000000000000000000000000000600052604160045260246000fd5b6121d582611e1b565b810181811067ffffffffffffffff821117156121f4576121f361219d565b5b80604052505050565b6000612207612084565b905061221382826121cc565b919050565b600067ffffffffffffffff8211156122335761223261219d565b5b602082029050602081019050919050565b600080fd5b600061225c61225784612218565b6121fd565b9050808382526020820190506020840283018581111561227f5761227e612244565b5b835b818110156122a8578061229488826120af565b845260208401935050602081019050612281565b5050509392505050565b600082601f8301126122c7576122c6612198565b5b81356122d7848260208601612249565b91505092915050565b6000602082840312156122f6576122f561208e565b5b600082013567ffffffffffffffff81111561231457612313612093565b5b612320848285016122b2565b91505092915050565b60006020828403121561233f5761233e61208e565b5b600061234d848285016120af565b91505092915050565b60006101008301600083015184820360008601526123748282611e2c565b9150506020830151848203602086015261238e8282611e2c565b915050604083015184820360408601526123a88282611e2c565b915050606083015184820360608601526123c28282611e2c565b915050608083015184820360808601526123dc8282611e2c565b91505060a083015184820360a08601526123f68282611e2c565b91505060c083015184820360c08601526124108282611e2c565b91505060e083015161242560e0860182611dbd565b508091505092915050565b6000608082019050612445600083018761205a565b612452602083018661205a565b81810360408301526124648185612356565b9050612473606083018461205a565b95945050505050565b60006080830160008301516124946000860182611dbd565b5060208301516124a76020860182611dbd565b50604083015184820360408601526124bf8282611e65565b91505060608301516124d46060860182611dbd565b508091505092915050565b600060208201905081810360008301526124f9818461247c565b905092915050565b600080604083850312156125185761251761208e565b5b6000612526858286016120af565b925050602083013567ffffffffffffffff81111561254757612546612093565b5b61255385828601612109565b9150509250929050565b600081519050919050565b600082825260208201905092915050565b6000819050602082019050919050565b60006125958383611dbd565b60208301905092915050565b6000602082019050919050565b60006125b98261255d565b6125c38185612568565b93506125ce83612579565b8060005b838110156125ff5781516125e68882612589565b97506125f1836125a1565b9250506001810190506125d2565b5085935050505092915050565b6000602082019050818103600083015261262681846125ae565b905092915050565b600082825260208201905092915050565b7f6368616c6c656e676520646f6573206e6f742065786973740000000000000000600082015250565b600061267560188361262e565b91506126808261263f565b602082019050919050565b600060208201905081810360008301526126a481612668565b9050919050565b600073ffffffffffffffffffffffffffffffffffffffff82169050919050565b60006126d6826126ab565b9050919050565b6126e6816126cb565b82525050565b6000604082019050612701600083018561205a565b61270e60208301846126dd565b9392505050565b60008115159050919050565b61272a81612715565b811461273557600080fd5b50565b60008151905061274781612721565b92915050565b6000602082840312156127635761276261208e565b5b600061277184828501612738565b91505092915050565b7f6f6e6c7920636f6e74657374206f776e65720000000000000000000000000000600082015250565b60006127b060128361262e565b91506127bb8261277a565b602082019050919050565b600060208201905081810360008301526127df816127a3565b9050919050565b7f4e487b7100000000000000000000000000000000000000000000000000000000600052602160045260246000fd5b60048110612826576128256127e6565b5b50565b600081905061283782612815565b919050565b600061284782612829565b9050919050565b6128578161283c565b82525050565b6000604082019050612872600083018561205a565b61287f602083018461284e565b9392505050565b7f77726f6e6720636f6e7465737420737461746500000000000000000000000000600082015250565b60006128bc60138361262e565b91506128c782612886565b602082019050919050565b600060208201905081810360008301526128eb816128af565b9050919050565b600080fd5b600080fd5b600080fd5b6000808335600160200384360303811261291e5761291d6128f2565b5b80840192508235915067ffffffffffffffff8211156129405761293f6128f7565b5b60208301925060018202360383131561295c5761295b6128fc565b5b509250929050565b600082905092915050565b7f4e487b7100000000000000000000000000000000000000000000000000000000600052602260045260246000fd5b600060028204905060018216806129b657607f821691505b602082108114156129ca576129c961296f565b5b50919050565b60008190508160005260206000209050919050565b60006020601f8301049050919050565b600082821b905092915050565b600060088302612a327fffffffffffffffffffffffffffffffffffffffffffffffffffffffffffffffff826129f5565b612a3c86836129f5565b95508019841693508086168417925050509392505050565b6000819050919050565b6000612a79612a74612a6f84611db3565b612a54565b611db3565b9050919050565b6000819050919050565b612a9383612a5e565b612aa7612a9f82612a80565b848454612a02565b825550505050565b600090565b612abc612aaf565b612ac7818484612a8a565b505050565b5b81811015612aeb57612ae0600082612ab4565b600181019050612acd565b5050565b601f821115612b3057612b01816129d0565b612b0a846129e5565b81016020851015612b19578190505b612b2d612b25856129e5565b830182612acc565b50505b505050565b600082821c905092915050565b6000612b5360001984600802612b35565b1980831691505092915050565b6000612b6c8383612b42565b9150826002028217905092915050565b612b868383612964565b67ffffffffffffffff811115612b9f57612b9e61219d565b5b612ba9825461299e565b612bb4828285612aef565b6000601f831160018114612be35760008415612bd1578287013590505b612bdb8582612b60565b865550612c43565b601f198416612bf1866129d0565b60005b82811015612c1957848901358255600182019150602085019450602081019050612bf4565b86831015612c365784890135612c32601f891682612b42565b8355505b6001600288020188555050505b50505050505050565b612c57838383612b7c565b505050565b60008135612c6981612098565b80915050919050565b60008160001b9050919050565b60007fffffffffffffffffffffffffffffffffffffffffffffffffffffffffffffffff612cab84612c72565b9350801983169250808416831791505092915050565b612cca82612a5e565b612cdd612cd682612a80565b8354612c7f565b8255505050565b6000810160008301612cf68185612901565b612d01818386612c4c565b505050506001810160208301612d178185612901565b612d22818386612c4c565b505050506002810160408301612d388185612901565b612d43818386612c4c565b505050506003810160608301612d598185612901565b612d64818386612c4c565b505050506004810160808301612d7a8185612901565b612d85818386612c4c565b505050506005810160a08301612d9b8185612901565b612da6818386612c4c565b505050506006810160c08301612dbc8185612901565b612dc7818386612c4c565b505050506007810160e0830180612ddd81612c5c565b9050612de98184612cc1565b5050505050565b612dfa8282612ce4565b5050565b600080fd5b600080fd5b600080fd5b600067ffffffffffffffff821115612e2857612e2761219d565b5b612e3182611e1b565b9050602081019050919050565b82818337600083830152505050565b6000612e60612e5b84612e0d565b6121fd565b905082815260208101848484011115612e7c57612e7b612e08565b5b612e87848285612e3e565b509392505050565b600082601f830112612ea457612ea3612198565b5b8135612eb4848260208601612e4d565b91505092915050565b60006101008284031215612ed457612ed3612dfe565b5b612edf6101006121fd565b9050600082013567ffffffffffffffff811115612eff57612efe612e03565b5b612f0b84828501612e8f565b600083015250602082013567ffffffffffffffff811115612f2f57612f2e612e03565b5b612f3b84828501612e8f565b602083015250604082013567ffffffffffffffff811115612f5f57612f5e612e03565b5b612f6b84828501612e8f565b604083015250606082013567ffffffffffffffff811115612f8f57612f8e612e03565b5b612f9b84828501612e8f565b606083015250608082013567ffffffffffffffff811115612fbf57612fbe612e03565b5b612fcb84828501612e8f565b60808301525060a082013567ffffffffffffffff811115612fef57612fee612e03565b5b612ffb84828501612e8f565b60a08301525060c082013567ffffffffffffffff81111561301f5761301e612e03565b5b61302b84828501612e8f565b60c08301525060e061303f848285016120af565b60e08301525092915050565b60006130573683612ebd565b9050919050565b7f4e487b7100000000000000000000000000000000000000000000000000000000600052601160045260246000fd5b600061309882611db3565b91507fffffffffffffffffffffffffffffffffffffffffffffffffffffffffffffffff8214156130cb576130ca61305e565b5b600182019050919050565b7f4e487b7100000000000000000000000000000000000000000000000000000000600052603260045260246000fd5b600061311082611db3565b915061311b83611db3565b92508282101561312e5761312d61305e565b5b828203905092915050565b7f4e487b7100000000000000000000000000000000000000000000000000000000600052603160045260246000fdfea2646970667358221220c1e46aeb354627e230ff208522f5c1a7475b0611faedbe0381d83ccf5abf212364736f6c634300080a0033",
  "immutableReferences": {},
  "source": "// SPDX-License-Identifier: MIT\npragma solidity ^0.8.10;\npragma experimental ABIEncoderV2;\n\n\nimport \"@openzeppelin/contracts/utils/structs/EnumerableSet.sol\";\nimport \"./IChallenges.sol\";\nimport \"./IContests.sol\";\n\ncontract Challenges is IChallenges{\n\n    using EnumerableSet for EnumerableSet.UintSet;\n\n    IContests Contests;\n\n    constructor(address _Contests) {\n        Contests = IContests(_Contests);\n    }\n\n    //ContestId  => challengeIds\n    EnumerableSet.UintSet ids;\n    //ChallengeId => Challenge\n    mapping(uint => Challenge) public challenges;\n    uint public nextId = 1;\n\n    // index\n    // contestId => challengeIds\n    mapping(uint => EnumerableSet.UintSet) contestChallenges;\n\n    function _gets(uint [] memory _ids) internal view returns (Challenge [] memory) {\n        uint number = _ids.length;\n        Challenge [] memory result = new Challenge [] (number);\n        for(uint i = 0; i < number; i++) {\n            result[i] = challenges[_ids[i]];\n        }\n        return result;\n    }\n\n    function add(uint contestId, IChallenge calldata challenge) external\n    onlyContestOwner(contestId)\n    onlyContestInState(contestId, IContests.ContestState.STARTED){\n        ids.add(nextId);\n        contestChallenges[contestId].add(nextId);\n        challenges[nextId] = Challenge(nextId, contestId, challenge, block.timestamp);\n        nextId++;\n    }\n\n    function update(uint contestId, uint id, IChallenge calldata challenge) external\n    onlyChallengeExist(id)\n    onlyContestOwner(contestId)\n    onlyContestInState(contestId, IContests.ContestState.STARTED){\n        challenges[id].challengeInfo = challenge;\n    }\n\n    function remove(uint contestId, uint id) external\n    onlyChallengeExist(id)\n    onlyContestOwner(contestId)\n    onlyContestInState(contestId, IContests.ContestState.STARTED){\n        ids.remove(id);\n        contestChallenges[contestId].remove(id);\n        delete challenges[id];\n    }\n\n    function getAll() external view returns (Challenge [] memory) {\n        return _gets(ids.values());\n    }\n\n    function getSome(uint [] memory _ids) external view returns (Challenge [] memory) {\n        return _gets(_ids);\n    }\n\n    function gets(uint contestId) external view returns (Challenge [] memory){\n        return _gets(contestChallenges[contestId].values());\n    }\n    function getsId(uint contestId) external view returns (uint [] memory){\n        return contestChallenges[contestId].values();\n    }\n\n    function getCount() external view returns (uint) {\n        return ids.length();\n    }\n\n    function get(uint index) external view returns (Challenge memory) {\n        return challenges[ids.at(index)];\n    }\n\n    modifier onlyChallengeExist(uint id){\n        require(ids.contains(id), \"challenge does not exist\");\n        _;\n    }\n    modifier onlyContestOwner(uint contestId){\n        require(Contests.isOwner(contestId, msg.sender), \"only contest owner\");\n        _;\n    }\n    modifier onlyContestInState(uint contestId, IContests.ContestState state){\n        require(Contests.contestInState(contestId, state), \"wrong contest state\");\n        _;\n    }\n}",
  "sourcePath": "/Users/yhy/Code/GitHub/DCTF/contracts/Challenges.sol",
  "compiler": {
    "name": "solc",
    "version": "0.8.10+commit.fc410830.Emscripten.clang"
  },
  "schemaVersion": "3.4.4",
  "updatedAt": "2022-02-19T03:11:05.798Z",
  "networkType": "ethereum",
  "devdoc": {
    "kind": "dev",
    "methods": {},
    "version": 1
  },
  "userdoc": {
    "kind": "user",
    "methods": {},
    "version": 1
  }
}