{
  "contractName": "Challenges",
  "abi": [
    {
      "inputs": [
        {
          "internalType": "address",
          "name": "_Contests",
          "type": "address"
        }
      ],
      "stateMutability": "nonpayable",
      "type": "constructor"
    },
    {
      "inputs": [
        {
          "internalType": "uint256",
          "name": "",
          "type": "uint256"
        }
      ],
      "name": "challenges",
      "outputs": [
        {
          "internalType": "uint256",
          "name": "id",
          "type": "uint256"
        },
        {
          "internalType": "uint256",
          "name": "contestId",
          "type": "uint256"
        },
        {
          "components": [
            {
              "internalType": "string",
              "name": "challengeType",
              "type": "string"
            },
            {
              "internalType": "string",
              "name": "name",
              "type": "string"
            },
            {
              "internalType": "string",
              "name": "category",
              "type": "string"
            },
            {
              "internalType": "string",
              "name": "message",
              "type": "string"
            },
            {
              "internalType": "string",
              "name": "connectionInfo",
              "type": "string"
            },
            {
              "internalType": "string",
              "name": "file",
              "type": "string"
            },
            {
              "internalType": "string",
              "name": "hint",
              "type": "string"
            },
            {
              "internalType": "uint256",
              "name": "value",
              "type": "uint256"
            }
          ],
          "internalType": "struct IChallenges.IChallenge",
          "name": "challengeInfo",
          "type": "tuple"
        },
        {
          "internalType": "uint256",
          "name": "timeStamp",
          "type": "uint256"
        }
      ],
      "stateMutability": "view",
      "type": "function",
      "constant": true
    },
    {
      "inputs": [],
      "name": "nextId",
      "outputs": [
        {
          "internalType": "uint256",
          "name": "",
          "type": "uint256"
        }
      ],
      "stateMutability": "view",
      "type": "function",
      "constant": true
    },
    {
      "inputs": [
        {
          "internalType": "uint256",
          "name": "contestId",
          "type": "uint256"
        },
        {
          "components": [
            {
              "internalType": "string",
              "name": "challengeType",
              "type": "string"
            },
            {
              "internalType": "string",
              "name": "name",
              "type": "string"
            },
            {
              "internalType": "string",
              "name": "category",
              "type": "string"
            },
            {
              "internalType": "string",
              "name": "message",
              "type": "string"
            },
            {
              "internalType": "string",
              "name": "connectionInfo",
              "type": "string"
            },
            {
              "internalType": "string",
              "name": "file",
              "type": "string"
            },
            {
              "internalType": "string",
              "name": "hint",
              "type": "string"
            },
            {
              "internalType": "uint256",
              "name": "value",
              "type": "uint256"
            }
          ],
          "internalType": "struct IChallenges.IChallenge",
          "name": "challenge",
          "type": "tuple"
        }
      ],
      "name": "add",
      "outputs": [],
      "stateMutability": "nonpayable",
      "type": "function"
    },
    {
      "inputs": [
        {
          "internalType": "uint256",
          "name": "contestId",
          "type": "uint256"
        },
        {
          "internalType": "uint256",
          "name": "id",
          "type": "uint256"
        },
        {
          "components": [
            {
              "internalType": "string",
              "name": "challengeType",
              "type": "string"
            },
            {
              "internalType": "string",
              "name": "name",
              "type": "string"
            },
            {
              "internalType": "string",
              "name": "category",
              "type": "string"
            },
            {
              "internalType": "string",
              "name": "message",
              "type": "string"
            },
            {
              "internalType": "string",
              "name": "connectionInfo",
              "type": "string"
            },
            {
              "internalType": "string",
              "name": "file",
              "type": "string"
            },
            {
              "internalType": "string",
              "name": "hint",
              "type": "string"
            },
            {
              "internalType": "uint256",
              "name": "value",
              "type": "uint256"
            }
          ],
          "internalType": "struct IChallenges.IChallenge",
          "name": "challenge",
          "type": "tuple"
        }
      ],
      "name": "update",
      "outputs": [],
      "stateMutability": "nonpayable",
      "type": "function"
    },
    {
      "inputs": [
        {
          "internalType": "uint256",
          "name": "contestId",
          "type": "uint256"
        },
        {
          "internalType": "uint256",
          "name": "id",
          "type": "uint256"
        }
      ],
      "name": "remove",
      "outputs": [],
      "stateMutability": "nonpayable",
      "type": "function"
    },
    {
      "inputs": [],
      "name": "getAll",
      "outputs": [
        {
          "components": [
            {
              "internalType": "uint256",
              "name": "id",
              "type": "uint256"
            },
            {
              "internalType": "uint256",
              "name": "contestId",
              "type": "uint256"
            },
            {
              "components": [
                {
                  "internalType": "string",
                  "name": "challengeType",
                  "type": "string"
                },
                {
                  "internalType": "string",
                  "name": "name",
                  "type": "string"
                },
                {
                  "internalType": "string",
                  "name": "category",
                  "type": "string"
                },
                {
                  "internalType": "string",
                  "name": "message",
                  "type": "string"
                },
                {
                  "internalType": "string",
                  "name": "connectionInfo",
                  "type": "string"
                },
                {
                  "internalType": "string",
                  "name": "file",
                  "type": "string"
                },
                {
                  "internalType": "string",
                  "name": "hint",
                  "type": "string"
                },
                {
                  "internalType": "uint256",
                  "name": "value",
                  "type": "uint256"
                }
              ],
              "internalType": "struct IChallenges.IChallenge",
              "name": "challengeInfo",
              "type": "tuple"
            },
            {
              "internalType": "uint256",
              "name": "timeStamp",
              "type": "uint256"
            }
          ],
          "internalType": "struct IChallenges.Challenge[]",
          "name": "",
          "type": "tuple[]"
        }
      ],
      "stateMutability": "view",
      "type": "function",
      "constant": true
    },
    {
      "inputs": [
        {
          "internalType": "uint256[]",
          "name": "_ids",
          "type": "uint256[]"
        }
      ],
      "name": "getSome",
      "outputs": [
        {
          "components": [
            {
              "internalType": "uint256",
              "name": "id",
              "type": "uint256"
            },
            {
              "internalType": "uint256",
              "name": "contestId",
              "type": "uint256"
            },
            {
              "components": [
                {
                  "internalType": "string",
                  "name": "challengeType",
                  "type": "string"
                },
                {
                  "internalType": "string",
                  "name": "name",
                  "type": "string"
                },
                {
                  "internalType": "string",
                  "name": "category",
                  "type": "string"
                },
                {
                  "internalType": "string",
                  "name": "message",
                  "type": "string"
                },
                {
                  "internalType": "string",
                  "name": "connectionInfo",
                  "type": "string"
                },
                {
                  "internalType": "string",
                  "name": "file",
                  "type": "string"
                },
                {
                  "internalType": "string",
                  "name": "hint",
                  "type": "string"
                },
                {
                  "internalType": "uint256",
                  "name": "value",
                  "type": "uint256"
                }
              ],
              "internalType": "struct IChallenges.IChallenge",
              "name": "challengeInfo",
              "type": "tuple"
            },
            {
              "internalType": "uint256",
              "name": "timeStamp",
              "type": "uint256"
            }
          ],
          "internalType": "struct IChallenges.Challenge[]",
          "name": "",
          "type": "tuple[]"
        }
      ],
      "stateMutability": "view",
      "type": "function",
      "constant": true
    },
    {
      "inputs": [
        {
          "internalType": "uint256",
          "name": "contestId",
          "type": "uint256"
        }
      ],
      "name": "gets",
      "outputs": [
        {
          "components": [
            {
              "internalType": "uint256",
              "name": "id",
              "type": "uint256"
            },
            {
              "internalType": "uint256",
              "name": "contestId",
              "type": "uint256"
            },
            {
              "components": [
                {
                  "internalType": "string",
                  "name": "challengeType",
                  "type": "string"
                },
                {
                  "internalType": "string",
                  "name": "name",
                  "type": "string"
                },
                {
                  "internalType": "string",
                  "name": "category",
                  "type": "string"
                },
                {
                  "internalType": "string",
                  "name": "message",
                  "type": "string"
                },
                {
                  "internalType": "string",
                  "name": "connectionInfo",
                  "type": "string"
                },
                {
                  "internalType": "string",
                  "name": "file",
                  "type": "string"
                },
                {
                  "internalType": "string",
                  "name": "hint",
                  "type": "string"
                },
                {
                  "internalType": "uint256",
                  "name": "value",
                  "type": "uint256"
                }
              ],
              "internalType": "struct IChallenges.IChallenge",
              "name": "challengeInfo",
              "type": "tuple"
            },
            {
              "internalType": "uint256",
              "name": "timeStamp",
              "type": "uint256"
            }
          ],
          "internalType": "struct IChallenges.Challenge[]",
          "name": "",
          "type": "tuple[]"
        }
      ],
      "stateMutability": "view",
      "type": "function",
      "constant": true
    },
    {
      "inputs": [],
      "name": "getCount",
      "outputs": [
        {
          "internalType": "uint256",
          "name": "",
          "type": "uint256"
        }
      ],
      "stateMutability": "view",
      "type": "function",
      "constant": true
    },
    {
      "inputs": [
        {
          "internalType": "uint256",
          "name": "index",
          "type": "uint256"
        }
      ],
      "name": "get",
      "outputs": [
        {
          "components": [
            {
              "internalType": "uint256",
              "name": "id",
              "type": "uint256"
            },
            {
              "internalType": "uint256",
              "name": "contestId",
              "type": "uint256"
            },
            {
              "components": [
                {
                  "internalType": "string",
                  "name": "challengeType",
                  "type": "string"
                },
                {
                  "internalType": "string",
                  "name": "name",
                  "type": "string"
                },
                {
                  "internalType": "string",
                  "name": "category",
                  "type": "string"
                },
                {
                  "internalType": "string",
                  "name": "message",
                  "type": "string"
                },
                {
                  "internalType": "string",
                  "name": "connectionInfo",
                  "type": "string"
                },
                {
                  "internalType": "string",
                  "name": "file",
                  "type": "string"
                },
                {
                  "internalType": "string",
                  "name": "hint",
                  "type": "string"
                },
                {
                  "internalType": "uint256",
                  "name": "value",
                  "type": "uint256"
                }
              ],
              "internalType": "struct IChallenges.IChallenge",
              "name": "challengeInfo",
              "type": "tuple"
            },
            {
              "internalType": "uint256",
              "name": "timeStamp",
              "type": "uint256"
            }
          ],
          "internalType": "struct IChallenges.Challenge",
          "name": "",
          "type": "tuple"
        }
      ],
      "stateMutability": "view",
      "type": "function",
      "constant": true
    }
  ],
  "bytecode": "0x608060405260016004553480156200001657600080fd5b5060405162002deb38038062002deb83398181016040528101906200003c9190620000ed565b806000806101000a81548173ffffffffffffffffffffffffffffffffffffffff021916908373ffffffffffffffffffffffffffffffffffffffff160217905550506200011f565b600080fd5b600073ffffffffffffffffffffffffffffffffffffffff82169050919050565b6000620000b58262000088565b9050919050565b620000c781620000a8565b8114620000d357600080fd5b50565b600081519050620000e781620000bc565b92915050565b60006020828403121562000106576200010562000083565b5b60006200011684828501620000d6565b91505092915050565b612cbc806200012f6000396000f3fe608060405234801561001057600080fd5b506004361061009e5760003560e01c80638f1d3776116100665780638f1d3776146101475780639507d39a1461017a578063a87d942c146101aa578063d30f3f48146101c8578063f34cce88146101f85761009e565b806353ed5143146100a357806361b8ce8c146100c15780636526db7a146100df5780637b1b175a146100fb5780638324180314610117575b600080fd5b6100ab610214565b6040516100b89190611d33565b60405180910390f35b6100c961022d565b6040516100d69190611d64565b60405180910390f35b6100f960048036038101906100f49190611dbf565b610233565b005b61011560048036038101906101109190611e24565b610451565b005b610131600480360381019061012c9190611fdb565b6105ae565b60405161013e9190611d33565b60405180910390f35b610161600480360381019061015c9190612024565b6105c0565b604051610171949392919061212b565b60405180910390f35b610194600480360381019061018f9190612024565b610a03565b6040516101a191906121da565b60405180910390f35b6101b2610e7e565b6040516101bf9190611d64565b60405180910390f35b6101e260048036038101906101dd9190612024565b610e8f565b6040516101ef9190611d33565b60405180910390f35b610212600480360381019061020d91906121fc565b610ebb565b005b60606102286102236001611135565b611156565b905090565b60045481565b8061024881600161167090919063ffffffff16565b610287576040517f08c379a000000000000000000000000000000000000000000000000000000000815260040161027e906122b5565b60405180910390fd5b8260008054906101000a900473ffffffffffffffffffffffffffffffffffffffff1673ffffffffffffffffffffffffffffffffffffffff16635a5d096c82336040518363ffffffff1660e01b81526004016102e3929190612316565b602060405180830381865afa158015610300573d6000803e3d6000fd5b505050506040513d601f19601f820116820180604052508101906103249190612377565b610363576040517f08c379a000000000000000000000000000000000000000000000000000000000815260040161035a906123f0565b60405180910390fd5b61037783600161168a90919063ffffffff16565b5061039d836005600087815260200190815260200160002061168a90919063ffffffff16565b5060036000848152602001908152602001600020600080820160009055600182016000905560028201600080820160006103d7919061192c565b6001820160006103e7919061192c565b6002820160006103f7919061192c565b600382016000610407919061192c565b600482016000610417919061192c565b600582016000610427919061192c565b600682016000610437919061192c565b60078201600090555050600a820160009055505050505050565b8161046681600161167090919063ffffffff16565b6104a5576040517f08c379a000000000000000000000000000000000000000000000000000000000815260040161049c906122b5565b60405180910390fd5b8360008054906101000a900473ffffffffffffffffffffffffffffffffffffffff1673ffffffffffffffffffffffffffffffffffffffff16635a5d096c82336040518363ffffffff1660e01b8152600401610501929190612316565b602060405180830381865afa15801561051e573d6000803e3d6000fd5b505050506040513d601f19601f820116820180604052508101906105429190612377565b610581576040517f08c379a0000000000000000000000000000000000000000000000000000000008152600401610578906123f0565b60405180910390fd5b826003600086815260200190815260200160002060020181816105a4919061290e565b9050505050505050565b60606105b982611156565b9050919050565b60036020528060005260406000206000915090508060000154908060010154908060020160405180610100016040529081600082018054610600906124bc565b80601f016020809104026020016040519081016040528092919081815260200182805461062c906124bc565b80156106795780601f1061064e57610100808354040283529160200191610679565b820191906000526020600020905b81548152906001019060200180831161065c57829003601f168201915b50505050508152602001600182018054610692906124bc565b80601f01602080910402602001604051908101604052809291908181526020018280546106be906124bc565b801561070b5780601f106106e05761010080835404028352916020019161070b565b820191906000526020600020905b8154815290600101906020018083116106ee57829003601f168201915b50505050508152602001600282018054610724906124bc565b80601f0160208091040260200160405190810160405280929190818152602001828054610750906124bc565b801561079d5780601f106107725761010080835404028352916020019161079d565b820191906000526020600020905b81548152906001019060200180831161078057829003601f168201915b505050505081526020016003820180546107b6906124bc565b80601f01602080910402602001604051908101604052809291908181526020018280546107e2906124bc565b801561082f5780601f106108045761010080835404028352916020019161082f565b820191906000526020600020905b81548152906001019060200180831161081257829003601f168201915b50505050508152602001600482018054610848906124bc565b80601f0160208091040260200160405190810160405280929190818152602001828054610874906124bc565b80156108c15780601f10610896576101008083540402835291602001916108c1565b820191906000526020600020905b8154815290600101906020018083116108a457829003601f168201915b505050505081526020016005820180546108da906124bc565b80601f0160208091040260200160405190810160405280929190818152602001828054610906906124bc565b80156109535780601f1061092857610100808354040283529160200191610953565b820191906000526020600020905b81548152906001019060200180831161093657829003601f168201915b5050505050815260200160068201805461096c906124bc565b80601f0160208091040260200160405190810160405280929190818152602001828054610998906124bc565b80156109e55780601f106109ba576101008083540402835291602001916109e5565b820191906000526020600020905b8154815290600101906020018083116109c857829003601f168201915b505050505081526020016007820154815250509080600a0154905084565b610a0b61196c565b60036000610a238460016116a490919063ffffffff16565b815260200190815260200160002060405180608001604052908160008201548152602001600182015481526020016002820160405180610100016040529081600082018054610a71906124bc565b80601f0160208091040260200160405190810160405280929190818152602001828054610a9d906124bc565b8015610aea5780601f10610abf57610100808354040283529160200191610aea565b820191906000526020600020905b815481529060010190602001808311610acd57829003601f168201915b50505050508152602001600182018054610b03906124bc565b80601f0160208091040260200160405190810160405280929190818152602001828054610b2f906124bc565b8015610b7c5780601f10610b5157610100808354040283529160200191610b7c565b820191906000526020600020905b815481529060010190602001808311610b5f57829003601f168201915b50505050508152602001600282018054610b95906124bc565b80601f0160208091040260200160405190810160405280929190818152602001828054610bc1906124bc565b8015610c0e5780601f10610be357610100808354040283529160200191610c0e565b820191906000526020600020905b815481529060010190602001808311610bf157829003601f168201915b50505050508152602001600382018054610c27906124bc565b80601f0160208091040260200160405190810160405280929190818152602001828054610c53906124bc565b8015610ca05780601f10610c7557610100808354040283529160200191610ca0565b820191906000526020600020905b815481529060010190602001808311610c8357829003601f168201915b50505050508152602001600482018054610cb9906124bc565b80601f0160208091040260200160405190810160405280929190818152602001828054610ce5906124bc565b8015610d325780601f10610d0757610100808354040283529160200191610d32565b820191906000526020600020905b815481529060010190602001808311610d1557829003601f168201915b50505050508152602001600582018054610d4b906124bc565b80601f0160208091040260200160405190810160405280929190818152602001828054610d77906124bc565b8015610dc45780601f10610d9957610100808354040283529160200191610dc4565b820191906000526020600020905b815481529060010190602001808311610da757829003601f168201915b50505050508152602001600682018054610ddd906124bc565b80601f0160208091040260200160405190810160405280929190818152602001828054610e09906124bc565b8015610e565780601f10610e2b57610100808354040283529160200191610e56565b820191906000526020600020905b815481529060010190602001808311610e3957829003601f168201915b505050505081526020016007820154815250508152602001600a820154815250509050919050565b6000610e8a60016116be565b905090565b6060610eb4610eaf60056000858152602001908152602001600020611135565b611156565b9050919050565b8160008054906101000a900473ffffffffffffffffffffffffffffffffffffffff1673ffffffffffffffffffffffffffffffffffffffff16635a5d096c82336040518363ffffffff1660e01b8152600401610f17929190612316565b602060405180830381865afa158015610f34573d6000803e3d6000fd5b505050506040513d601f19601f82011682018060405250810190610f589190612377565b610f97576040517f08c379a0000000000000000000000000000000000000000000000000000000008152600401610f8e906123f0565b60405180910390fd5b610fad60045460016116d390919063ffffffff16565b50610fd5600454600560008681526020019081526020016000206116d390919063ffffffff16565b506040518060800160405280600454815260200184815260200183610ff990612b69565b8152602001428152506003600060045481526020019081526020016000206000820151816000015560208201518160010155604082015181600201600082015181600001908051906020019061105092919061199a565b50602082015181600101908051906020019061106d92919061199a565b50604082015181600201908051906020019061108a92919061199a565b5060608201518160030190805190602001906110a792919061199a565b5060808201518160040190805190602001906110c492919061199a565b5060a08201518160050190805190602001906110e192919061199a565b5060c08201518160060190805190602001906110fe92919061199a565b5060e082015181600701555050606082015181600a01559050506004600081548092919061112b90612bab565b9190505550505050565b60606000611145836000016116ed565b905060608190508092505050919050565b606060008251905060008167ffffffffffffffff81111561117a57611179611e98565b5b6040519080825280602002602001820160405280156111b357816020015b6111a061196c565b8152602001906001900390816111985790505b50905060005b8281101561166557600360008683815181106111d8576111d7612bf4565b5b602002602001015181526020019081526020016000206040518060800160405290816000820154815260200160018201548152602001600282016040518061010001604052908160008201805461122e906124bc565b80601f016020809104026020016040519081016040528092919081815260200182805461125a906124bc565b80156112a75780601f1061127c576101008083540402835291602001916112a7565b820191906000526020600020905b81548152906001019060200180831161128a57829003601f168201915b505050505081526020016001820180546112c0906124bc565b80601f01602080910402602001604051908101604052809291908181526020018280546112ec906124bc565b80156113395780601f1061130e57610100808354040283529160200191611339565b820191906000526020600020905b81548152906001019060200180831161131c57829003601f168201915b50505050508152602001600282018054611352906124bc565b80601f016020809104026020016040519081016040528092919081815260200182805461137e906124bc565b80156113cb5780601f106113a0576101008083540402835291602001916113cb565b820191906000526020600020905b8154815290600101906020018083116113ae57829003601f168201915b505050505081526020016003820180546113e4906124bc565b80601f0160208091040260200160405190810160405280929190818152602001828054611410906124bc565b801561145d5780601f106114325761010080835404028352916020019161145d565b820191906000526020600020905b81548152906001019060200180831161144057829003601f168201915b50505050508152602001600482018054611476906124bc565b80601f01602080910402602001604051908101604052809291908181526020018280546114a2906124bc565b80156114ef5780601f106114c4576101008083540402835291602001916114ef565b820191906000526020600020905b8154815290600101906020018083116114d257829003601f168201915b50505050508152602001600582018054611508906124bc565b80601f0160208091040260200160405190810160405280929190818152602001828054611534906124bc565b80156115815780601f1061155657610100808354040283529160200191611581565b820191906000526020600020905b81548152906001019060200180831161156457829003601f168201915b5050505050815260200160068201805461159a906124bc565b80601f01602080910402602001604051908101604052809291908181526020018280546115c6906124bc565b80156116135780601f106115e857610100808354040283529160200191611613565b820191906000526020600020905b8154815290600101906020018083116115f657829003601f168201915b505050505081526020016007820154815250508152602001600a8201548152505082828151811061164757611646612bf4565b5b6020026020010181905250808061165d90612bab565b9150506111b9565b508092505050919050565b6000611682836000018360001b611749565b905092915050565b600061169c836000018360001b61176c565b905092915050565b60006116b38360000183611880565b60001c905092915050565b60006116cc826000016118ab565b9050919050565b60006116e5836000018360001b6118bc565b905092915050565b60608160000180548060200260200160405190810160405280929190818152602001828054801561173d57602002820191906000526020600020905b815481526020019060010190808311611729575b50505050509050919050565b600080836001016000848152602001908152602001600020541415905092915050565b6000808360010160008481526020019081526020016000205490506000811461187457600060018261179e9190612c23565b90506000600186600001805490506117b69190612c23565b90508181146118255760008660000182815481106117d7576117d6612bf4565b5b90600052602060002001549050808760000184815481106117fb576117fa612bf4565b5b90600052602060002001819055508387600101600083815260200190815260200160002081905550505b8560000180548061183957611838612c57565b5b60019003818190600052602060002001600090559055856001016000868152602001908152602001600020600090556001935050505061187a565b60009150505b92915050565b600082600001828154811061189857611897612bf4565b5b9060005260206000200154905092915050565b600081600001805490509050919050565b60006118c88383611749565b611921578260000182908060018154018082558091505060019003906000526020600020016000909190919091505582600001805490508360010160008481526020019081526020016000208190555060019050611926565b600090505b92915050565b508054611938906124bc565b6000825580601f1061194a5750611969565b601f0160209004906000526020600020908101906119689190611a20565b5b50565b6040518060800160405280600081526020016000815260200161198d611a3d565b8152602001600081525090565b8280546119a6906124bc565b90600052602060002090601f0160209004810192826119c85760008555611a0f565b82601f106119e157805160ff1916838001178555611a0f565b82800160010185558215611a0f579182015b82811115611a0e5782518255916020019190600101906119f3565b5b509050611a1c9190611a20565b5090565b5b80821115611a39576000816000905550600101611a21565b5090565b60405180610100016040528060608152602001606081526020016060815260200160608152602001606081526020016060815260200160608152602001600081525090565b600081519050919050565b600082825260208201905092915050565b6000819050602082019050919050565b6000819050919050565b611ac181611aae565b82525050565b600081519050919050565b600082825260208201905092915050565b60005b83811015611b01578082015181840152602081019050611ae6565b83811115611b10576000848401525b50505050565b6000601f19601f8301169050919050565b6000611b3282611ac7565b611b3c8185611ad2565b9350611b4c818560208601611ae3565b611b5581611b16565b840191505092915050565b6000610100830160008301518482036000860152611b7e8282611b27565b91505060208301518482036020860152611b988282611b27565b91505060408301518482036040860152611bb28282611b27565b91505060608301518482036060860152611bcc8282611b27565b91505060808301518482036080860152611be68282611b27565b91505060a083015184820360a0860152611c008282611b27565b91505060c083015184820360c0860152611c1a8282611b27565b91505060e0830151611c2f60e0860182611ab8565b508091505092915050565b6000608083016000830151611c526000860182611ab8565b506020830151611c656020860182611ab8565b5060408301518482036040860152611c7d8282611b60565b9150506060830151611c926060860182611ab8565b508091505092915050565b6000611ca98383611c3a565b905092915050565b6000602082019050919050565b6000611cc982611a82565b611cd38185611a8d565b935083602082028501611ce585611a9e565b8060005b85811015611d215784840389528151611d028582611c9d565b9450611d0d83611cb1565b925060208a01995050600181019050611ce9565b50829750879550505050505092915050565b60006020820190508181036000830152611d4d8184611cbe565b905092915050565b611d5e81611aae565b82525050565b6000602082019050611d796000830184611d55565b92915050565b6000604051905090565b600080fd5b600080fd5b611d9c81611aae565b8114611da757600080fd5b50565b600081359050611db981611d93565b92915050565b60008060408385031215611dd657611dd5611d89565b5b6000611de485828601611daa565b9250506020611df585828601611daa565b9150509250929050565b600080fd5b60006101008284031215611e1b57611e1a611dff565b5b81905092915050565b600080600060608486031215611e3d57611e3c611d89565b5b6000611e4b86828701611daa565b9350506020611e5c86828701611daa565b925050604084013567ffffffffffffffff811115611e7d57611e7c611d8e565b5b611e8986828701611e04565b9150509250925092565b600080fd5b7f4e487b7100000000000000000000000000000000000000000000000000000000600052604160045260246000fd5b611ed082611b16565b810181811067ffffffffffffffff82111715611eef57611eee611e98565b5b80604052505050565b6000611f02611d7f565b9050611f0e8282611ec7565b919050565b600067ffffffffffffffff821115611f2e57611f2d611e98565b5b602082029050602081019050919050565b600080fd5b6000611f57611f5284611f13565b611ef8565b90508083825260208201905060208402830185811115611f7a57611f79611f3f565b5b835b81811015611fa35780611f8f8882611daa565b845260208401935050602081019050611f7c565b5050509392505050565b600082601f830112611fc257611fc1611e93565b5b8135611fd2848260208601611f44565b91505092915050565b600060208284031215611ff157611ff0611d89565b5b600082013567ffffffffffffffff81111561200f5761200e611d8e565b5b61201b84828501611fad565b91505092915050565b60006020828403121561203a57612039611d89565b5b600061204884828501611daa565b91505092915050565b600061010083016000830151848203600086015261206f8282611b27565b915050602083015184820360208601526120898282611b27565b915050604083015184820360408601526120a38282611b27565b915050606083015184820360608601526120bd8282611b27565b915050608083015184820360808601526120d78282611b27565b91505060a083015184820360a08601526120f18282611b27565b91505060c083015184820360c086015261210b8282611b27565b91505060e083015161212060e0860182611ab8565b508091505092915050565b60006080820190506121406000830187611d55565b61214d6020830186611d55565b818103604083015261215f8185612051565b905061216e6060830184611d55565b95945050505050565b600060808301600083015161218f6000860182611ab8565b5060208301516121a26020860182611ab8565b50604083015184820360408601526121ba8282611b60565b91505060608301516121cf6060860182611ab8565b508091505092915050565b600060208201905081810360008301526121f48184612177565b905092915050565b6000806040838503121561221357612212611d89565b5b600061222185828601611daa565b925050602083013567ffffffffffffffff81111561224257612241611d8e565b5b61224e85828601611e04565b9150509250929050565b600082825260208201905092915050565b7f6368616c6c656e676520646f6573206e6f742065786973740000000000000000600082015250565b600061229f601883612258565b91506122aa82612269565b602082019050919050565b600060208201905081810360008301526122ce81612292565b9050919050565b600073ffffffffffffffffffffffffffffffffffffffff82169050919050565b6000612300826122d5565b9050919050565b612310816122f5565b82525050565b600060408201905061232b6000830185611d55565b6123386020830184612307565b9392505050565b60008115159050919050565b6123548161233f565b811461235f57600080fd5b50565b6000815190506123718161234b565b92915050565b60006020828403121561238d5761238c611d89565b5b600061239b84828501612362565b91505092915050565b7f6f6e6c7920636f6e74657374206f776e65720000000000000000000000000000600082015250565b60006123da601283612258565b91506123e5826123a4565b602082019050919050565b60006020820190508181036000830152612409816123cd565b9050919050565b600080fd5b600080fd5b600080fd5b6000808335600160200384360303811261243c5761243b612410565b5b80840192508235915067ffffffffffffffff82111561245e5761245d612415565b5b60208301925060018202360383131561247a5761247961241a565b5b509250929050565b600082905092915050565b7f4e487b7100000000000000000000000000000000000000000000000000000000600052602260045260246000fd5b600060028204905060018216806124d457607f821691505b602082108114156124e8576124e761248d565b5b50919050565b60008190508160005260206000209050919050565b60006020601f8301049050919050565b600082821b905092915050565b6000600883026125507fffffffffffffffffffffffffffffffffffffffffffffffffffffffffffffffff82612513565b61255a8683612513565b95508019841693508086168417925050509392505050565b6000819050919050565b600061259761259261258d84611aae565b612572565b611aae565b9050919050565b6000819050919050565b6125b18361257c565b6125c56125bd8261259e565b848454612520565b825550505050565b600090565b6125da6125cd565b6125e58184846125a8565b505050565b5b81811015612609576125fe6000826125d2565b6001810190506125eb565b5050565b601f82111561264e5761261f816124ee565b61262884612503565b81016020851015612637578190505b61264b61264385612503565b8301826125ea565b50505b505050565b600082821c905092915050565b600061267160001984600802612653565b1980831691505092915050565b600061268a8383612660565b9150826002028217905092915050565b6126a48383612482565b67ffffffffffffffff8111156126bd576126bc611e98565b5b6126c782546124bc565b6126d282828561260d565b6000601f83116001811461270157600084156126ef578287013590505b6126f9858261267e565b865550612761565b601f19841661270f866124ee565b60005b8281101561273757848901358255600182019150602085019450602081019050612712565b868310156127545784890135612750601f891682612660565b8355505b6001600288020188555050505b50505050505050565b61277583838361269a565b505050565b6000813561278781611d93565b80915050919050565b60008160001b9050919050565b60007fffffffffffffffffffffffffffffffffffffffffffffffffffffffffffffffff6127c984612790565b9350801983169250808416831791505092915050565b6127e88261257c565b6127fb6127f48261259e565b835461279d565b8255505050565b6000810160008301612814818561241f565b61281f81838661276a565b505050506001810160208301612835818561241f565b61284081838661276a565b505050506002810160408301612856818561241f565b61286181838661276a565b505050506003810160608301612877818561241f565b61288281838661276a565b505050506004810160808301612898818561241f565b6128a381838661276a565b505050506005810160a083016128b9818561241f565b6128c481838661276a565b505050506006810160c083016128da818561241f565b6128e581838661276a565b505050506007810160e08301806128fb8161277a565b905061290781846127df565b5050505050565b6129188282612802565b5050565b600080fd5b600080fd5b600080fd5b600067ffffffffffffffff82111561294657612945611e98565b5b61294f82611b16565b9050602081019050919050565b82818337600083830152505050565b600061297e6129798461292b565b611ef8565b90508281526020810184848401111561299a57612999612926565b5b6129a584828561295c565b509392505050565b600082601f8301126129c2576129c1611e93565b5b81356129d284826020860161296b565b91505092915050565b600061010082840312156129f2576129f161291c565b5b6129fd610100611ef8565b9050600082013567ffffffffffffffff811115612a1d57612a1c612921565b5b612a29848285016129ad565b600083015250602082013567ffffffffffffffff811115612a4d57612a4c612921565b5b612a59848285016129ad565b602083015250604082013567ffffffffffffffff811115612a7d57612a7c612921565b5b612a89848285016129ad565b604083015250606082013567ffffffffffffffff811115612aad57612aac612921565b5b612ab9848285016129ad565b606083015250608082013567ffffffffffffffff811115612add57612adc612921565b5b612ae9848285016129ad565b60808301525060a082013567ffffffffffffffff811115612b0d57612b0c612921565b5b612b19848285016129ad565b60a08301525060c082013567ffffffffffffffff811115612b3d57612b3c612921565b5b612b49848285016129ad565b60c08301525060e0612b5d84828501611daa565b60e08301525092915050565b6000612b7536836129db565b9050919050565b7f4e487b7100000000000000000000000000000000000000000000000000000000600052601160045260246000fd5b6000612bb682611aae565b91507fffffffffffffffffffffffffffffffffffffffffffffffffffffffffffffffff821415612be957612be8612b7c565b5b600182019050919050565b7f4e487b7100000000000000000000000000000000000000000000000000000000600052603260045260246000fd5b6000612c2e82611aae565b9150612c3983611aae565b925082821015612c4c57612c4b612b7c565b5b828203905092915050565b7f4e487b7100000000000000000000000000000000000000000000000000000000600052603160045260246000fdfea264697066735822122025d2469809281ca1f50613b4d0bc059e1b2f7c6053ddf7d6fcc4c3f5440eccff64736f6c634300080a0033",
  "immutableReferences": {},
  "source": "// SPDX-License-Identifier: MIT\npragma solidity ^0.8.10;\npragma experimental ABIEncoderV2;\n\n\nimport \"@openzeppelin/contracts/utils/structs/EnumerableSet.sol\";\nimport \"./IChallenges.sol\";\nimport \"./IContests.sol\";\n\ncontract Challenges is IChallenges{\n\n    using EnumerableSet for EnumerableSet.UintSet;\n\n    IContests Contests;\n\n    constructor(address _Contests) {\n        Contests = IContests(_Contests);\n    }\n\n    //ContestId  => challengeIds\n    EnumerableSet.UintSet ids;\n    //ChallengeId => Challenge\n    mapping(uint => Challenge) public challenges;\n    uint public nextId = 1;\n\n    mapping(uint => EnumerableSet.UintSet) contestChallenges;\n\n    function _gets(uint [] memory _ids) internal view returns (Challenge [] memory) {\n        uint number = _ids.length;\n        Challenge [] memory result = new Challenge [] (number);\n        for(uint i = 0; i < number; i++) {\n            result[i] = challenges[_ids[i]];\n        }\n        return result;\n    }\n\n    function add(uint contestId, IChallenge calldata challenge) external\n    onlyContestOwner(contestId) {\n        ids.add(nextId);\n        contestChallenges[contestId].add(nextId);\n        challenges[nextId] = Challenge(nextId, contestId, challenge, block.timestamp);\n        nextId++;\n    }\n\n    function update(uint contestId, uint id, IChallenge calldata challenge) external\n    onlyChallengeExist(id)\n    onlyContestOwner(contestId) {\n        challenges[id].challengeInfo = challenge;\n    }\n\n    function remove(uint contestId, uint id) external\n    onlyChallengeExist(id)\n    onlyContestOwner(contestId) {\n        ids.remove(id);\n        contestChallenges[contestId].remove(id);\n        delete challenges[id];\n    }\n\n    function getAll() external view returns (Challenge [] memory) {\n        return _gets(ids.values());\n    }\n\n    function getSome(uint [] memory _ids) external view returns (Challenge [] memory) {\n        return _gets(_ids);\n    }\n\n    function gets(uint contestId) external view returns (Challenge [] memory){\n        return _gets(contestChallenges[contestId].values());\n    }\n\n    function getCount() external view returns (uint) {\n        return ids.length();\n    }\n\n    function get(uint index) external view returns (Challenge memory) {\n        return challenges[ids.at(index)];\n    }\n\n    modifier onlyChallengeExist(uint id){\n        require(ids.contains(id), \"challenge does not exist\");\n        _;\n    }\n    modifier onlyContestOwner(uint contestId){\n        require(Contests.isOwner(contestId, msg.sender), \"only contest owner\");\n        _;\n    }\n}",
  "sourcePath": "/Users/yhy/Code/GitHub/DCTF/contracts/Challenges.sol",
  "compiler": {
    "name": "solc",
    "version": "0.8.10+commit.fc410830.Emscripten.clang"
  },
  "schemaVersion": "3.4.4",
  "updatedAt": "2022-02-14T05:54:43.516Z",
  "networkType": "ethereum",
  "devdoc": {
    "kind": "dev",
    "methods": {},
    "version": 1
  },
  "userdoc": {
    "kind": "user",
    "methods": {},
    "version": 1
  }
}