{
  "contractName": "Challenges",
  "abi": [
    {
      "inputs": [
        {
          "internalType": "address",
          "name": "_Contests",
          "type": "address"
        }
      ],
      "stateMutability": "nonpayable",
      "type": "constructor"
    },
    {
      "inputs": [
        {
          "internalType": "uint256",
          "name": "",
          "type": "uint256"
        }
      ],
      "name": "challenges",
      "outputs": [
        {
          "internalType": "uint256",
          "name": "id",
          "type": "uint256"
        },
        {
          "internalType": "uint256",
          "name": "contestId",
          "type": "uint256"
        },
        {
          "components": [
            {
              "internalType": "string",
              "name": "challengeType",
              "type": "string"
            },
            {
              "internalType": "string",
              "name": "name",
              "type": "string"
            },
            {
              "internalType": "string",
              "name": "category",
              "type": "string"
            },
            {
              "internalType": "string",
              "name": "message",
              "type": "string"
            },
            {
              "internalType": "string",
              "name": "connectionInfo",
              "type": "string"
            },
            {
              "internalType": "string",
              "name": "file",
              "type": "string"
            },
            {
              "internalType": "string",
              "name": "hint",
              "type": "string"
            },
            {
              "internalType": "uint256",
              "name": "value",
              "type": "uint256"
            }
          ],
          "internalType": "struct IChallenges.IChallenge",
          "name": "info",
          "type": "tuple"
        },
        {
          "internalType": "uint256",
          "name": "timeStamp",
          "type": "uint256"
        }
      ],
      "stateMutability": "view",
      "type": "function",
      "constant": true
    },
    {
      "inputs": [],
      "name": "nextId",
      "outputs": [
        {
          "internalType": "uint256",
          "name": "",
          "type": "uint256"
        }
      ],
      "stateMutability": "view",
      "type": "function",
      "constant": true
    },
    {
      "inputs": [
        {
          "internalType": "uint256",
          "name": "contestId",
          "type": "uint256"
        },
        {
          "components": [
            {
              "internalType": "string",
              "name": "challengeType",
              "type": "string"
            },
            {
              "internalType": "string",
              "name": "name",
              "type": "string"
            },
            {
              "internalType": "string",
              "name": "category",
              "type": "string"
            },
            {
              "internalType": "string",
              "name": "message",
              "type": "string"
            },
            {
              "internalType": "string",
              "name": "connectionInfo",
              "type": "string"
            },
            {
              "internalType": "string",
              "name": "file",
              "type": "string"
            },
            {
              "internalType": "string",
              "name": "hint",
              "type": "string"
            },
            {
              "internalType": "uint256",
              "name": "value",
              "type": "uint256"
            }
          ],
          "internalType": "struct IChallenges.IChallenge",
          "name": "challenge",
          "type": "tuple"
        }
      ],
      "name": "add",
      "outputs": [],
      "stateMutability": "nonpayable",
      "type": "function"
    },
    {
      "inputs": [
        {
          "internalType": "uint256",
          "name": "contestId",
          "type": "uint256"
        },
        {
          "internalType": "uint256",
          "name": "id",
          "type": "uint256"
        },
        {
          "components": [
            {
              "internalType": "string",
              "name": "challengeType",
              "type": "string"
            },
            {
              "internalType": "string",
              "name": "name",
              "type": "string"
            },
            {
              "internalType": "string",
              "name": "category",
              "type": "string"
            },
            {
              "internalType": "string",
              "name": "message",
              "type": "string"
            },
            {
              "internalType": "string",
              "name": "connectionInfo",
              "type": "string"
            },
            {
              "internalType": "string",
              "name": "file",
              "type": "string"
            },
            {
              "internalType": "string",
              "name": "hint",
              "type": "string"
            },
            {
              "internalType": "uint256",
              "name": "value",
              "type": "uint256"
            }
          ],
          "internalType": "struct IChallenges.IChallenge",
          "name": "challenge",
          "type": "tuple"
        }
      ],
      "name": "update",
      "outputs": [],
      "stateMutability": "nonpayable",
      "type": "function"
    },
    {
      "inputs": [
        {
          "internalType": "uint256",
          "name": "contestId",
          "type": "uint256"
        },
        {
          "internalType": "uint256[]",
          "name": "_ids",
          "type": "uint256[]"
        }
      ],
      "name": "removes",
      "outputs": [],
      "stateMutability": "nonpayable",
      "type": "function"
    },
    {
      "inputs": [],
      "name": "getAll",
      "outputs": [
        {
          "components": [
            {
              "internalType": "uint256",
              "name": "id",
              "type": "uint256"
            },
            {
              "internalType": "uint256",
              "name": "contestId",
              "type": "uint256"
            },
            {
              "components": [
                {
                  "internalType": "string",
                  "name": "challengeType",
                  "type": "string"
                },
                {
                  "internalType": "string",
                  "name": "name",
                  "type": "string"
                },
                {
                  "internalType": "string",
                  "name": "category",
                  "type": "string"
                },
                {
                  "internalType": "string",
                  "name": "message",
                  "type": "string"
                },
                {
                  "internalType": "string",
                  "name": "connectionInfo",
                  "type": "string"
                },
                {
                  "internalType": "string",
                  "name": "file",
                  "type": "string"
                },
                {
                  "internalType": "string",
                  "name": "hint",
                  "type": "string"
                },
                {
                  "internalType": "uint256",
                  "name": "value",
                  "type": "uint256"
                }
              ],
              "internalType": "struct IChallenges.IChallenge",
              "name": "info",
              "type": "tuple"
            },
            {
              "internalType": "uint256",
              "name": "timeStamp",
              "type": "uint256"
            }
          ],
          "internalType": "struct IChallenges.Challenge[]",
          "name": "",
          "type": "tuple[]"
        }
      ],
      "stateMutability": "view",
      "type": "function",
      "constant": true
    },
    {
      "inputs": [
        {
          "internalType": "uint256[]",
          "name": "_ids",
          "type": "uint256[]"
        }
      ],
      "name": "getSome",
      "outputs": [
        {
          "components": [
            {
              "internalType": "uint256",
              "name": "id",
              "type": "uint256"
            },
            {
              "internalType": "uint256",
              "name": "contestId",
              "type": "uint256"
            },
            {
              "components": [
                {
                  "internalType": "string",
                  "name": "challengeType",
                  "type": "string"
                },
                {
                  "internalType": "string",
                  "name": "name",
                  "type": "string"
                },
                {
                  "internalType": "string",
                  "name": "category",
                  "type": "string"
                },
                {
                  "internalType": "string",
                  "name": "message",
                  "type": "string"
                },
                {
                  "internalType": "string",
                  "name": "connectionInfo",
                  "type": "string"
                },
                {
                  "internalType": "string",
                  "name": "file",
                  "type": "string"
                },
                {
                  "internalType": "string",
                  "name": "hint",
                  "type": "string"
                },
                {
                  "internalType": "uint256",
                  "name": "value",
                  "type": "uint256"
                }
              ],
              "internalType": "struct IChallenges.IChallenge",
              "name": "info",
              "type": "tuple"
            },
            {
              "internalType": "uint256",
              "name": "timeStamp",
              "type": "uint256"
            }
          ],
          "internalType": "struct IChallenges.Challenge[]",
          "name": "",
          "type": "tuple[]"
        }
      ],
      "stateMutability": "view",
      "type": "function",
      "constant": true
    },
    {
      "inputs": [
        {
          "internalType": "uint256",
          "name": "contestId",
          "type": "uint256"
        }
      ],
      "name": "gets",
      "outputs": [
        {
          "components": [
            {
              "internalType": "uint256",
              "name": "id",
              "type": "uint256"
            },
            {
              "internalType": "uint256",
              "name": "contestId",
              "type": "uint256"
            },
            {
              "components": [
                {
                  "internalType": "string",
                  "name": "challengeType",
                  "type": "string"
                },
                {
                  "internalType": "string",
                  "name": "name",
                  "type": "string"
                },
                {
                  "internalType": "string",
                  "name": "category",
                  "type": "string"
                },
                {
                  "internalType": "string",
                  "name": "message",
                  "type": "string"
                },
                {
                  "internalType": "string",
                  "name": "connectionInfo",
                  "type": "string"
                },
                {
                  "internalType": "string",
                  "name": "file",
                  "type": "string"
                },
                {
                  "internalType": "string",
                  "name": "hint",
                  "type": "string"
                },
                {
                  "internalType": "uint256",
                  "name": "value",
                  "type": "uint256"
                }
              ],
              "internalType": "struct IChallenges.IChallenge",
              "name": "info",
              "type": "tuple"
            },
            {
              "internalType": "uint256",
              "name": "timeStamp",
              "type": "uint256"
            }
          ],
          "internalType": "struct IChallenges.Challenge[]",
          "name": "",
          "type": "tuple[]"
        }
      ],
      "stateMutability": "view",
      "type": "function",
      "constant": true
    },
    {
      "inputs": [
        {
          "internalType": "uint256",
          "name": "contestId",
          "type": "uint256"
        }
      ],
      "name": "getsId",
      "outputs": [
        {
          "internalType": "uint256[]",
          "name": "",
          "type": "uint256[]"
        }
      ],
      "stateMutability": "view",
      "type": "function",
      "constant": true
    },
    {
      "inputs": [],
      "name": "getCount",
      "outputs": [
        {
          "internalType": "uint256",
          "name": "",
          "type": "uint256"
        }
      ],
      "stateMutability": "view",
      "type": "function",
      "constant": true
    },
    {
      "inputs": [
        {
          "internalType": "uint256",
          "name": "index",
          "type": "uint256"
        }
      ],
      "name": "get",
      "outputs": [
        {
          "components": [
            {
              "internalType": "uint256",
              "name": "id",
              "type": "uint256"
            },
            {
              "internalType": "uint256",
              "name": "contestId",
              "type": "uint256"
            },
            {
              "components": [
                {
                  "internalType": "string",
                  "name": "challengeType",
                  "type": "string"
                },
                {
                  "internalType": "string",
                  "name": "name",
                  "type": "string"
                },
                {
                  "internalType": "string",
                  "name": "category",
                  "type": "string"
                },
                {
                  "internalType": "string",
                  "name": "message",
                  "type": "string"
                },
                {
                  "internalType": "string",
                  "name": "connectionInfo",
                  "type": "string"
                },
                {
                  "internalType": "string",
                  "name": "file",
                  "type": "string"
                },
                {
                  "internalType": "string",
                  "name": "hint",
                  "type": "string"
                },
                {
                  "internalType": "uint256",
                  "name": "value",
                  "type": "uint256"
                }
              ],
              "internalType": "struct IChallenges.IChallenge",
              "name": "info",
              "type": "tuple"
            },
            {
              "internalType": "uint256",
              "name": "timeStamp",
              "type": "uint256"
            }
          ],
          "internalType": "struct IChallenges.Challenge",
          "name": "",
          "type": "tuple"
        }
      ],
      "stateMutability": "view",
      "type": "function",
      "constant": true
    }
  ],
  "bytecode": "0x608060405260016004553480156200001657600080fd5b50604051620033313803806200333183398181016040528101906200003c9190620000ed565b806000806101000a81548173ffffffffffffffffffffffffffffffffffffffff021916908373ffffffffffffffffffffffffffffffffffffffff160217905550506200011f565b600080fd5b600073ffffffffffffffffffffffffffffffffffffffff82169050919050565b6000620000b58262000088565b9050919050565b620000c781620000a8565b8114620000d357600080fd5b50565b600081519050620000e781620000bc565b92915050565b60006020828403121562000106576200010562000083565b5b60006200011684828501620000d6565b91505092915050565b613202806200012f6000396000f3fe608060405234801561001057600080fd5b50600436106100a95760003560e01c80639507d39a116100715780639507d39a14610169578063a87d942c14610199578063bddfa122146101b7578063d30f3f48146101d3578063f34cce8814610203578063f640a0061461021f576100a9565b806353ed5143146100ae57806361b8ce8c146100cc5780637b1b175a146100ea57806383241803146101065780638f1d377614610136575b600080fd5b6100b661024f565b6040516100c39190612080565b60405180910390f35b6100d4610268565b6040516100e191906120b1565b60405180910390f35b61010460048036038101906100ff9190612131565b61026e565b005b610120600480360381019061011b91906122e8565b6104ad565b60405161012d9190612080565b60405180910390f35b610150600480360381019061014b9190612331565b6104bf565b6040516101609493929190612438565b60405180910390f35b610183600480360381019061017e9190612331565b610902565b60405161019091906124e7565b60405180910390f35b6101a1610d7d565b6040516101ae91906120b1565b60405180910390f35b6101d160048036038101906101cc9190612509565b610d8e565b005b6101ed60048036038101906101e89190612331565b610dd6565b6040516101fa9190612080565b60405180910390f35b61021d60048036038101906102189190612565565b610e02565b005b61023960048036038101906102349190612331565b61115e565b6040516102469190612670565b60405180910390f35b606061026361025e6001611182565b6111a3565b905090565b60045481565b816102838160016116bd90919063ffffffff16565b6102c2576040517f08c379a00000000000000000000000000000000000000000000000000000000081526004016102b9906126ef565b60405180910390fd5b8360008054906101000a900473ffffffffffffffffffffffffffffffffffffffff1673ffffffffffffffffffffffffffffffffffffffff16635a5d096c82336040518363ffffffff1660e01b815260040161031e929190612750565b602060405180830381865afa15801561033b573d6000803e3d6000fd5b505050506040513d601f19601f8201168201806040525081019061035f91906127b1565b61039e576040517f08c379a00000000000000000000000000000000000000000000000000000000081526004016103959061282a565b60405180910390fd5b84600260008054906101000a900473ffffffffffffffffffffffffffffffffffffffff1673ffffffffffffffffffffffffffffffffffffffff1663434e540b83836040518363ffffffff1660e01b81526004016103fc9291906128c1565b6020604051808303816000875af115801561041b573d6000803e3d6000fd5b505050506040513d601f19601f8201168201806040525081019061043f91906127b1565b61047e576040517f08c379a000000000000000000000000000000000000000000000000000000000815260040161047590612936565b60405180910390fd5b846003600088815260200190815260200160002060020181816104a19190612e54565b90505050505050505050565b60606104b8826111a3565b9050919050565b600360205280600052604060002060009150905080600001549080600101549080600201604051806101000160405290816000820180546104ff90612a02565b80601f016020809104026020016040519081016040528092919081815260200182805461052b90612a02565b80156105785780601f1061054d57610100808354040283529160200191610578565b820191906000526020600020905b81548152906001019060200180831161055b57829003601f168201915b5050505050815260200160018201805461059190612a02565b80601f01602080910402602001604051908101604052809291908181526020018280546105bd90612a02565b801561060a5780601f106105df5761010080835404028352916020019161060a565b820191906000526020600020905b8154815290600101906020018083116105ed57829003601f168201915b5050505050815260200160028201805461062390612a02565b80601f016020809104026020016040519081016040528092919081815260200182805461064f90612a02565b801561069c5780601f106106715761010080835404028352916020019161069c565b820191906000526020600020905b81548152906001019060200180831161067f57829003601f168201915b505050505081526020016003820180546106b590612a02565b80601f01602080910402602001604051908101604052809291908181526020018280546106e190612a02565b801561072e5780601f106107035761010080835404028352916020019161072e565b820191906000526020600020905b81548152906001019060200180831161071157829003601f168201915b5050505050815260200160048201805461074790612a02565b80601f016020809104026020016040519081016040528092919081815260200182805461077390612a02565b80156107c05780601f10610795576101008083540402835291602001916107c0565b820191906000526020600020905b8154815290600101906020018083116107a357829003601f168201915b505050505081526020016005820180546107d990612a02565b80601f016020809104026020016040519081016040528092919081815260200182805461080590612a02565b80156108525780601f1061082757610100808354040283529160200191610852565b820191906000526020600020905b81548152906001019060200180831161083557829003601f168201915b5050505050815260200160068201805461086b90612a02565b80601f016020809104026020016040519081016040528092919081815260200182805461089790612a02565b80156108e45780601f106108b9576101008083540402835291602001916108e4565b820191906000526020600020905b8154815290600101906020018083116108c757829003601f168201915b505050505081526020016007820154815250509080600a0154905084565b61090a611c79565b600360006109228460016116d790919063ffffffff16565b81526020019081526020016000206040518060800160405290816000820154815260200160018201548152602001600282016040518061010001604052908160008201805461097090612a02565b80601f016020809104026020016040519081016040528092919081815260200182805461099c90612a02565b80156109e95780601f106109be576101008083540402835291602001916109e9565b820191906000526020600020905b8154815290600101906020018083116109cc57829003601f168201915b50505050508152602001600182018054610a0290612a02565b80601f0160208091040260200160405190810160405280929190818152602001828054610a2e90612a02565b8015610a7b5780601f10610a5057610100808354040283529160200191610a7b565b820191906000526020600020905b815481529060010190602001808311610a5e57829003601f168201915b50505050508152602001600282018054610a9490612a02565b80601f0160208091040260200160405190810160405280929190818152602001828054610ac090612a02565b8015610b0d5780601f10610ae257610100808354040283529160200191610b0d565b820191906000526020600020905b815481529060010190602001808311610af057829003601f168201915b50505050508152602001600382018054610b2690612a02565b80601f0160208091040260200160405190810160405280929190818152602001828054610b5290612a02565b8015610b9f5780601f10610b7457610100808354040283529160200191610b9f565b820191906000526020600020905b815481529060010190602001808311610b8257829003601f168201915b50505050508152602001600482018054610bb890612a02565b80601f0160208091040260200160405190810160405280929190818152602001828054610be490612a02565b8015610c315780601f10610c0657610100808354040283529160200191610c31565b820191906000526020600020905b815481529060010190602001808311610c1457829003601f168201915b50505050508152602001600582018054610c4a90612a02565b80601f0160208091040260200160405190810160405280929190818152602001828054610c7690612a02565b8015610cc35780601f10610c9857610100808354040283529160200191610cc3565b820191906000526020600020905b815481529060010190602001808311610ca657829003601f168201915b50505050508152602001600682018054610cdc90612a02565b80601f0160208091040260200160405190810160405280929190818152602001828054610d0890612a02565b8015610d555780601f10610d2a57610100808354040283529160200191610d55565b820191906000526020600020905b815481529060010190602001808311610d3857829003601f168201915b505050505081526020016007820154815250508152602001600a820154815250509050919050565b6000610d8960016116f1565b905090565b60005b8151811015610dd157610dbe83838381518110610db157610db0612e62565b5b6020026020010151611706565b8080610dc990612ec0565b915050610d91565b505050565b6060610dfb610df660056000858152602001908152602001600020611182565b6111a3565b9050919050565b8160008054906101000a900473ffffffffffffffffffffffffffffffffffffffff1673ffffffffffffffffffffffffffffffffffffffff16635a5d096c82336040518363ffffffff1660e01b8152600401610e5e929190612750565b602060405180830381865afa158015610e7b573d6000803e3d6000fd5b505050506040513d601f19601f82011682018060405250810190610e9f91906127b1565b610ede576040517f08c379a0000000000000000000000000000000000000000000000000000000008152600401610ed59061282a565b60405180910390fd5b82600260008054906101000a900473ffffffffffffffffffffffffffffffffffffffff1673ffffffffffffffffffffffffffffffffffffffff1663434e540b83836040518363ffffffff1660e01b8152600401610f3c9291906128c1565b6020604051808303816000875af1158015610f5b573d6000803e3d6000fd5b505050506040513d601f19601f82011682018060405250810190610f7f91906127b1565b610fbe576040517f08c379a0000000000000000000000000000000000000000000000000000000008152600401610fb590612936565b60405180910390fd5b610fd46004546001611a0690919063ffffffff16565b50610ffc60045460056000888152602001908152602001600020611a0690919063ffffffff16565b50604051806080016040528060045481526020018681526020018561102090613156565b81526020014281525060036000600454815260200190815260200160002060008201518160000155602082015181600101556040820151816002016000820151816000019080519060200190611077929190611ca7565b506020820151816001019080519060200190611094929190611ca7565b5060408201518160020190805190602001906110b1929190611ca7565b5060608201518160030190805190602001906110ce929190611ca7565b5060808201518160040190805190602001906110eb929190611ca7565b5060a0820151816005019080519060200190611108929190611ca7565b5060c0820151816006019080519060200190611125929190611ca7565b5060e082015181600701555050606082015181600a01559050506004600081548092919061115290612ec0565b91905055505050505050565b606061117b60056000848152602001908152602001600020611182565b9050919050565b6060600061119283600001611a20565b905060608190508092505050919050565b606060008251905060008167ffffffffffffffff8111156111c7576111c66121a5565b5b60405190808252806020026020018201604052801561120057816020015b6111ed611c79565b8152602001906001900390816111e55790505b50905060005b828110156116b2576003600086838151811061122557611224612e62565b5b602002602001015181526020019081526020016000206040518060800160405290816000820154815260200160018201548152602001600282016040518061010001604052908160008201805461127b90612a02565b80601f01602080910402602001604051908101604052809291908181526020018280546112a790612a02565b80156112f45780601f106112c9576101008083540402835291602001916112f4565b820191906000526020600020905b8154815290600101906020018083116112d757829003601f168201915b5050505050815260200160018201805461130d90612a02565b80601f016020809104026020016040519081016040528092919081815260200182805461133990612a02565b80156113865780601f1061135b57610100808354040283529160200191611386565b820191906000526020600020905b81548152906001019060200180831161136957829003601f168201915b5050505050815260200160028201805461139f90612a02565b80601f01602080910402602001604051908101604052809291908181526020018280546113cb90612a02565b80156114185780601f106113ed57610100808354040283529160200191611418565b820191906000526020600020905b8154815290600101906020018083116113fb57829003601f168201915b5050505050815260200160038201805461143190612a02565b80601f016020809104026020016040519081016040528092919081815260200182805461145d90612a02565b80156114aa5780601f1061147f576101008083540402835291602001916114aa565b820191906000526020600020905b81548152906001019060200180831161148d57829003601f168201915b505050505081526020016004820180546114c390612a02565b80601f01602080910402602001604051908101604052809291908181526020018280546114ef90612a02565b801561153c5780601f106115115761010080835404028352916020019161153c565b820191906000526020600020905b81548152906001019060200180831161151f57829003601f168201915b5050505050815260200160058201805461155590612a02565b80601f016020809104026020016040519081016040528092919081815260200182805461158190612a02565b80156115ce5780601f106115a3576101008083540402835291602001916115ce565b820191906000526020600020905b8154815290600101906020018083116115b157829003601f168201915b505050505081526020016006820180546115e790612a02565b80601f016020809104026020016040519081016040528092919081815260200182805461161390612a02565b80156116605780601f1061163557610100808354040283529160200191611660565b820191906000526020600020905b81548152906001019060200180831161164357829003601f168201915b505050505081526020016007820154815250508152602001600a8201548152505082828151811061169457611693612e62565b5b602002602001018190525080806116aa90612ec0565b915050611206565b508092505050919050565b60006116cf836000018360001b611a7c565b905092915050565b60006116e68360000183611a9f565b60001c905092915050565b60006116ff82600001611aca565b9050919050565b8061171b8160016116bd90919063ffffffff16565b61175a576040517f08c379a0000000000000000000000000000000000000000000000000000000008152600401611751906126ef565b60405180910390fd5b8260008054906101000a900473ffffffffffffffffffffffffffffffffffffffff1673ffffffffffffffffffffffffffffffffffffffff16635a5d096c82336040518363ffffffff1660e01b81526004016117b6929190612750565b602060405180830381865afa1580156117d3573d6000803e3d6000fd5b505050506040513d601f19601f820116820180604052508101906117f791906127b1565b611836576040517f08c379a000000000000000000000000000000000000000000000000000000000815260040161182d9061282a565b60405180910390fd5b83600260008054906101000a900473ffffffffffffffffffffffffffffffffffffffff1673ffffffffffffffffffffffffffffffffffffffff1663434e540b83836040518363ffffffff1660e01b81526004016118949291906128c1565b6020604051808303816000875af11580156118b3573d6000803e3d6000fd5b505050506040513d601f19601f820116820180604052508101906118d791906127b1565b611916576040517f08c379a000000000000000000000000000000000000000000000000000000000815260040161190d90612936565b60405180910390fd5b61192a856001611adb90919063ffffffff16565b506119508560056000898152602001908152602001600020611adb90919063ffffffff16565b50600360008681526020019081526020016000206000808201600090556001820160009055600282016000808201600061198a9190611d2d565b60018201600061199a9190611d2d565b6002820160006119aa9190611d2d565b6003820160006119ba9190611d2d565b6004820160006119ca9190611d2d565b6005820160006119da9190611d2d565b6006820160006119ea9190611d2d565b60078201600090555050600a8201600090555050505050505050565b6000611a18836000018360001b611af5565b905092915050565b606081600001805480602002602001604051908101604052809291908181526020018280548015611a7057602002820191906000526020600020905b815481526020019060010190808311611a5c575b50505050509050919050565b600080836001016000848152602001908152602001600020541415905092915050565b6000826000018281548110611ab757611ab6612e62565b5b9060005260206000200154905092915050565b600081600001805490509050919050565b6000611aed836000018360001b611b65565b905092915050565b6000611b018383611a7c565b611b5a578260000182908060018154018082558091505060019003906000526020600020016000909190919091505582600001805490508360010160008481526020019081526020016000208190555060019050611b5f565b600090505b92915050565b60008083600101600084815260200190815260200160002054905060008114611c6d576000600182611b979190613169565b9050600060018660000180549050611baf9190613169565b9050818114611c1e576000866000018281548110611bd057611bcf612e62565b5b9060005260206000200154905080876000018481548110611bf457611bf3612e62565b5b90600052602060002001819055508387600101600083815260200190815260200160002081905550505b85600001805480611c3257611c3161319d565b5b600190038181906000526020600020016000905590558560010160008681526020019081526020016000206000905560019350505050611c73565b60009150505b92915050565b60405180608001604052806000815260200160008152602001611c9a611d6d565b8152602001600081525090565b828054611cb390612a02565b90600052602060002090601f016020900481019282611cd55760008555611d1c565b82601f10611cee57805160ff1916838001178555611d1c565b82800160010185558215611d1c579182015b82811115611d1b578251825591602001919060010190611d00565b5b509050611d299190611db2565b5090565b508054611d3990612a02565b6000825580601f10611d4b5750611d6a565b601f016020900490600052602060002090810190611d699190611db2565b5b50565b60405180610100016040528060608152602001606081526020016060815260200160608152602001606081526020016060815260200160608152602001600081525090565b5b80821115611dcb576000816000905550600101611db3565b5090565b600081519050919050565b600082825260208201905092915050565b6000819050602082019050919050565b6000819050919050565b611e0e81611dfb565b82525050565b600081519050919050565b600082825260208201905092915050565b60005b83811015611e4e578082015181840152602081019050611e33565b83811115611e5d576000848401525b50505050565b6000601f19601f8301169050919050565b6000611e7f82611e14565b611e898185611e1f565b9350611e99818560208601611e30565b611ea281611e63565b840191505092915050565b6000610100830160008301518482036000860152611ecb8282611e74565b91505060208301518482036020860152611ee58282611e74565b91505060408301518482036040860152611eff8282611e74565b91505060608301518482036060860152611f198282611e74565b91505060808301518482036080860152611f338282611e74565b91505060a083015184820360a0860152611f4d8282611e74565b91505060c083015184820360c0860152611f678282611e74565b91505060e0830151611f7c60e0860182611e05565b508091505092915050565b6000608083016000830151611f9f6000860182611e05565b506020830151611fb26020860182611e05565b5060408301518482036040860152611fca8282611ead565b9150506060830151611fdf6060860182611e05565b508091505092915050565b6000611ff68383611f87565b905092915050565b6000602082019050919050565b600061201682611dcf565b6120208185611dda565b93508360208202850161203285611deb565b8060005b8581101561206e578484038952815161204f8582611fea565b945061205a83611ffe565b925060208a01995050600181019050612036565b50829750879550505050505092915050565b6000602082019050818103600083015261209a818461200b565b905092915050565b6120ab81611dfb565b82525050565b60006020820190506120c660008301846120a2565b92915050565b6000604051905090565b600080fd5b600080fd5b6120e981611dfb565b81146120f457600080fd5b50565b600081359050612106816120e0565b92915050565b600080fd5b600061010082840312156121285761212761210c565b5b81905092915050565b60008060006060848603121561214a576121496120d6565b5b6000612158868287016120f7565b9350506020612169868287016120f7565b925050604084013567ffffffffffffffff81111561218a576121896120db565b5b61219686828701612111565b9150509250925092565b600080fd5b7f4e487b7100000000000000000000000000000000000000000000000000000000600052604160045260246000fd5b6121dd82611e63565b810181811067ffffffffffffffff821117156121fc576121fb6121a5565b5b80604052505050565b600061220f6120cc565b905061221b82826121d4565b919050565b600067ffffffffffffffff82111561223b5761223a6121a5565b5b602082029050602081019050919050565b600080fd5b600061226461225f84612220565b612205565b905080838252602082019050602084028301858111156122875761228661224c565b5b835b818110156122b0578061229c88826120f7565b845260208401935050602081019050612289565b5050509392505050565b600082601f8301126122cf576122ce6121a0565b5b81356122df848260208601612251565b91505092915050565b6000602082840312156122fe576122fd6120d6565b5b600082013567ffffffffffffffff81111561231c5761231b6120db565b5b612328848285016122ba565b91505092915050565b600060208284031215612347576123466120d6565b5b6000612355848285016120f7565b91505092915050565b600061010083016000830151848203600086015261237c8282611e74565b915050602083015184820360208601526123968282611e74565b915050604083015184820360408601526123b08282611e74565b915050606083015184820360608601526123ca8282611e74565b915050608083015184820360808601526123e48282611e74565b91505060a083015184820360a08601526123fe8282611e74565b91505060c083015184820360c08601526124188282611e74565b91505060e083015161242d60e0860182611e05565b508091505092915050565b600060808201905061244d60008301876120a2565b61245a60208301866120a2565b818103604083015261246c818561235e565b905061247b60608301846120a2565b95945050505050565b600060808301600083015161249c6000860182611e05565b5060208301516124af6020860182611e05565b50604083015184820360408601526124c78282611ead565b91505060608301516124dc6060860182611e05565b508091505092915050565b600060208201905081810360008301526125018184612484565b905092915050565b600080604083850312156125205761251f6120d6565b5b600061252e858286016120f7565b925050602083013567ffffffffffffffff81111561254f5761254e6120db565b5b61255b858286016122ba565b9150509250929050565b6000806040838503121561257c5761257b6120d6565b5b600061258a858286016120f7565b925050602083013567ffffffffffffffff8111156125ab576125aa6120db565b5b6125b785828601612111565b9150509250929050565b600081519050919050565b600082825260208201905092915050565b6000819050602082019050919050565b60006125f98383611e05565b60208301905092915050565b6000602082019050919050565b600061261d826125c1565b61262781856125cc565b9350612632836125dd565b8060005b8381101561266357815161264a88826125ed565b975061265583612605565b925050600181019050612636565b5085935050505092915050565b6000602082019050818103600083015261268a8184612612565b905092915050565b600082825260208201905092915050565b7f6368616c6c656e676520646f6573206e6f742065786973740000000000000000600082015250565b60006126d9601883612692565b91506126e4826126a3565b602082019050919050565b60006020820190508181036000830152612708816126cc565b9050919050565b600073ffffffffffffffffffffffffffffffffffffffff82169050919050565b600061273a8261270f565b9050919050565b61274a8161272f565b82525050565b600060408201905061276560008301856120a2565b6127726020830184612741565b9392505050565b60008115159050919050565b61278e81612779565b811461279957600080fd5b50565b6000815190506127ab81612785565b92915050565b6000602082840312156127c7576127c66120d6565b5b60006127d58482850161279c565b91505092915050565b7f6f6e6c7920636f6e74657374206f776e65720000000000000000000000000000600082015250565b6000612814601283612692565b915061281f826127de565b602082019050919050565b6000602082019050818103600083015261284381612807565b9050919050565b7f4e487b7100000000000000000000000000000000000000000000000000000000600052602160045260246000fd5b6004811061288a5761288961284a565b5b50565b600081905061289b82612879565b919050565b60006128ab8261288d565b9050919050565b6128bb816128a0565b82525050565b60006040820190506128d660008301856120a2565b6128e360208301846128b2565b9392505050565b7f77726f6e6720636f6e7465737420737461746500000000000000000000000000600082015250565b6000612920601383612692565b915061292b826128ea565b602082019050919050565b6000602082019050818103600083015261294f81612913565b9050919050565b600080fd5b600080fd5b600080fd5b6000808335600160200384360303811261298257612981612956565b5b80840192508235915067ffffffffffffffff8211156129a4576129a361295b565b5b6020830192506001820236038313156129c0576129bf612960565b5b509250929050565b600082905092915050565b7f4e487b7100000000000000000000000000000000000000000000000000000000600052602260045260246000fd5b60006002820490506001821680612a1a57607f821691505b60208210811415612a2e57612a2d6129d3565b5b50919050565b60008190508160005260206000209050919050565b60006020601f8301049050919050565b600082821b905092915050565b600060088302612a967fffffffffffffffffffffffffffffffffffffffffffffffffffffffffffffffff82612a59565b612aa08683612a59565b95508019841693508086168417925050509392505050565b6000819050919050565b6000612add612ad8612ad384611dfb565b612ab8565b611dfb565b9050919050565b6000819050919050565b612af783612ac2565b612b0b612b0382612ae4565b848454612a66565b825550505050565b600090565b612b20612b13565b612b2b818484612aee565b505050565b5b81811015612b4f57612b44600082612b18565b600181019050612b31565b5050565b601f821115612b9457612b6581612a34565b612b6e84612a49565b81016020851015612b7d578190505b612b91612b8985612a49565b830182612b30565b50505b505050565b600082821c905092915050565b6000612bb760001984600802612b99565b1980831691505092915050565b6000612bd08383612ba6565b9150826002028217905092915050565b612bea83836129c8565b67ffffffffffffffff811115612c0357612c026121a5565b5b612c0d8254612a02565b612c18828285612b53565b6000601f831160018114612c475760008415612c35578287013590505b612c3f8582612bc4565b865550612ca7565b601f198416612c5586612a34565b60005b82811015612c7d57848901358255600182019150602085019450602081019050612c58565b86831015612c9a5784890135612c96601f891682612ba6565b8355505b6001600288020188555050505b50505050505050565b612cbb838383612be0565b505050565b60008135612ccd816120e0565b80915050919050565b60008160001b9050919050565b60007fffffffffffffffffffffffffffffffffffffffffffffffffffffffffffffffff612d0f84612cd6565b9350801983169250808416831791505092915050565b612d2e82612ac2565b612d41612d3a82612ae4565b8354612ce3565b8255505050565b6000810160008301612d5a8185612965565b612d65818386612cb0565b505050506001810160208301612d7b8185612965565b612d86818386612cb0565b505050506002810160408301612d9c8185612965565b612da7818386612cb0565b505050506003810160608301612dbd8185612965565b612dc8818386612cb0565b505050506004810160808301612dde8185612965565b612de9818386612cb0565b505050506005810160a08301612dff8185612965565b612e0a818386612cb0565b505050506006810160c08301612e208185612965565b612e2b818386612cb0565b505050506007810160e0830180612e4181612cc0565b9050612e4d8184612d25565b5050505050565b612e5e8282612d48565b5050565b7f4e487b7100000000000000000000000000000000000000000000000000000000600052603260045260246000fd5b7f4e487b7100000000000000000000000000000000000000000000000000000000600052601160045260246000fd5b6000612ecb82611dfb565b91507fffffffffffffffffffffffffffffffffffffffffffffffffffffffffffffffff821415612efe57612efd612e91565b5b600182019050919050565b600080fd5b600080fd5b600080fd5b600067ffffffffffffffff821115612f3357612f326121a5565b5b612f3c82611e63565b9050602081019050919050565b82818337600083830152505050565b6000612f6b612f6684612f18565b612205565b905082815260208101848484011115612f8757612f86612f13565b5b612f92848285612f49565b509392505050565b600082601f830112612faf57612fae6121a0565b5b8135612fbf848260208601612f58565b91505092915050565b60006101008284031215612fdf57612fde612f09565b5b612fea610100612205565b9050600082013567ffffffffffffffff81111561300a57613009612f0e565b5b61301684828501612f9a565b600083015250602082013567ffffffffffffffff81111561303a57613039612f0e565b5b61304684828501612f9a565b602083015250604082013567ffffffffffffffff81111561306a57613069612f0e565b5b61307684828501612f9a565b604083015250606082013567ffffffffffffffff81111561309a57613099612f0e565b5b6130a684828501612f9a565b606083015250608082013567ffffffffffffffff8111156130ca576130c9612f0e565b5b6130d684828501612f9a565b60808301525060a082013567ffffffffffffffff8111156130fa576130f9612f0e565b5b61310684828501612f9a565b60a08301525060c082013567ffffffffffffffff81111561312a57613129612f0e565b5b61313684828501612f9a565b60c08301525060e061314a848285016120f7565b60e08301525092915050565b60006131623683612fc8565b9050919050565b600061317482611dfb565b915061317f83611dfb565b92508282101561319257613191612e91565b5b828203905092915050565b7f4e487b7100000000000000000000000000000000000000000000000000000000600052603160045260246000fdfea2646970667358221220304a3c96ca184d59c061f58166e1922729c323cbe818a8df9d619c036b1d391664736f6c634300080a0033",
  "immutableReferences": {},
  "source": "// SPDX-License-Identifier: MIT\npragma solidity ^0.8.10;\npragma experimental ABIEncoderV2;\n\n\nimport \"@openzeppelin/contracts/utils/structs/EnumerableSet.sol\";\nimport \"./IChallenges.sol\";\nimport \"./IContests.sol\";\n\ncontract Challenges is IChallenges{\n\n    using EnumerableSet for EnumerableSet.UintSet;\n\n    IContests Contests;\n\n    constructor(address _Contests) {\n        Contests = IContests(_Contests);\n    }\n\n    //ContestId  => challengeIds\n    EnumerableSet.UintSet ids;\n    //ChallengeId => Challenge\n    mapping(uint => Challenge) public challenges;\n    uint public nextId = 1;\n\n    // index\n    // contestId => challengeIds\n    mapping(uint => EnumerableSet.UintSet) contestChallenges;\n\n    function _gets(uint [] memory _ids) internal view returns (Challenge [] memory) {\n        uint number = _ids.length;\n        Challenge [] memory result = new Challenge [] (number);\n        for(uint i = 0; i < number; i++) {\n            result[i] = challenges[_ids[i]];\n        }\n        return result;\n    }\n\n    function add(uint contestId, IChallenge calldata challenge) external\n    onlyContestOwner(contestId)\n    onlyContestInState(contestId, IContests.ContestState.STARTED){\n        ids.add(nextId);\n        contestChallenges[contestId].add(nextId);\n        challenges[nextId] = Challenge(nextId, contestId, challenge, block.timestamp);\n        nextId++;\n    }\n\n    function update(uint contestId, uint id, IChallenge calldata challenge) external\n    onlyChallengeExist(id)\n    onlyContestOwner(contestId)\n    onlyContestInState(contestId, IContests.ContestState.STARTED){\n        challenges[id].info = challenge;\n    }\n\n    function _remove(uint contestId, uint id) internal\n    onlyChallengeExist(id)\n    onlyContestOwner(contestId)\n    onlyContestInState(contestId, IContests.ContestState.STARTED) {\n        ids.remove(id);\n        contestChallenges[contestId].remove(id);\n        delete challenges[id];\n    }\n\n    function removes(uint contestId, uint [] memory _ids) external {\n        for (uint i = 0; i < _ids.length; i++) {\n            _remove(contestId, _ids[i]);\n        }\n    }\n\n    function getAll() external view returns (Challenge [] memory) {\n        return _gets(ids.values());\n    }\n\n    function getSome(uint [] memory _ids) external view returns (Challenge [] memory) {\n        return _gets(_ids);\n    }\n\n    function gets(uint contestId) external view returns (Challenge [] memory){\n        return _gets(contestChallenges[contestId].values());\n    }\n    function getsId(uint contestId) external view returns (uint [] memory){\n        return contestChallenges[contestId].values();\n    }\n\n    function getCount() external view returns (uint) {\n        return ids.length();\n    }\n\n    function get(uint index) external view returns (Challenge memory) {\n        return challenges[ids.at(index)];\n    }\n\n    modifier onlyChallengeExist(uint id){\n        require(ids.contains(id), \"challenge does not exist\");\n        _;\n    }\n    modifier onlyContestOwner(uint contestId){\n        require(Contests.isOwner(contestId, msg.sender), \"only contest owner\");\n        _;\n    }\n    modifier onlyContestInState(uint contestId, IContests.ContestState state){\n        require(Contests.contestInState(contestId, state), \"wrong contest state\");\n        _;\n    }\n}",
  "sourcePath": "/Users/yhy/Code/GitHub/DCTF/contracts/Challenges.sol",
  "compiler": {
    "name": "solc",
    "version": "0.8.10+commit.fc410830.Emscripten.clang"
  },
  "schemaVersion": "3.4.4",
  "updatedAt": "2022-02-21T06:03:30.372Z",
  "networkType": "ethereum",
  "devdoc": {
    "kind": "dev",
    "methods": {},
    "version": 1
  },
  "userdoc": {
    "kind": "user",
    "methods": {},
    "version": 1
  }
}