{
  "contractName": "Contests",
  "abi": [
    {
      "inputs": [
        {
          "internalType": "address",
          "name": "_AccessControl",
          "type": "address"
        }
      ],
      "stateMutability": "nonpayable",
      "type": "constructor"
    },
    {
      "inputs": [
        {
          "internalType": "uint256",
          "name": "",
          "type": "uint256"
        }
      ],
      "name": "contests",
      "outputs": [
        {
          "internalType": "uint256",
          "name": "id",
          "type": "uint256"
        },
        {
          "components": [
            {
              "internalType": "string",
              "name": "contestType",
              "type": "string"
            },
            {
              "internalType": "string",
              "name": "name",
              "type": "string"
            },
            {
              "internalType": "uint256",
              "name": "fee",
              "type": "uint256"
            },
            {
              "internalType": "uint256",
              "name": "start",
              "type": "uint256"
            },
            {
              "internalType": "uint256",
              "name": "end",
              "type": "uint256"
            },
            {
              "internalType": "string",
              "name": "message",
              "type": "string"
            }
          ],
          "internalType": "struct IContests.IContest",
          "name": "contestInfo",
          "type": "tuple"
        },
        {
          "internalType": "address",
          "name": "owner",
          "type": "address"
        },
        {
          "internalType": "enum IContests.ContestState",
          "name": "state",
          "type": "uint8"
        },
        {
          "internalType": "uint256",
          "name": "timeStamp",
          "type": "uint256"
        }
      ],
      "stateMutability": "view",
      "type": "function",
      "constant": true
    },
    {
      "inputs": [],
      "name": "nextId",
      "outputs": [
        {
          "internalType": "uint256",
          "name": "",
          "type": "uint256"
        }
      ],
      "stateMutability": "view",
      "type": "function",
      "constant": true
    },
    {
      "inputs": [
        {
          "components": [
            {
              "internalType": "string",
              "name": "contestType",
              "type": "string"
            },
            {
              "internalType": "string",
              "name": "name",
              "type": "string"
            },
            {
              "internalType": "uint256",
              "name": "fee",
              "type": "uint256"
            },
            {
              "internalType": "uint256",
              "name": "start",
              "type": "uint256"
            },
            {
              "internalType": "uint256",
              "name": "end",
              "type": "uint256"
            },
            {
              "internalType": "string",
              "name": "message",
              "type": "string"
            }
          ],
          "internalType": "struct IContests.IContest",
          "name": "contest",
          "type": "tuple"
        }
      ],
      "name": "add",
      "outputs": [],
      "stateMutability": "nonpayable",
      "type": "function"
    },
    {
      "inputs": [
        {
          "internalType": "uint256",
          "name": "id",
          "type": "uint256"
        },
        {
          "components": [
            {
              "internalType": "string",
              "name": "contestType",
              "type": "string"
            },
            {
              "internalType": "string",
              "name": "name",
              "type": "string"
            },
            {
              "internalType": "uint256",
              "name": "fee",
              "type": "uint256"
            },
            {
              "internalType": "uint256",
              "name": "start",
              "type": "uint256"
            },
            {
              "internalType": "uint256",
              "name": "end",
              "type": "uint256"
            },
            {
              "internalType": "string",
              "name": "message",
              "type": "string"
            }
          ],
          "internalType": "struct IContests.IContest",
          "name": "contest",
          "type": "tuple"
        }
      ],
      "name": "update",
      "outputs": [],
      "stateMutability": "nonpayable",
      "type": "function"
    },
    {
      "inputs": [
        {
          "internalType": "uint256",
          "name": "id",
          "type": "uint256"
        }
      ],
      "name": "remove",
      "outputs": [],
      "stateMutability": "nonpayable",
      "type": "function"
    },
    {
      "inputs": [
        {
          "internalType": "uint256",
          "name": "contestId",
          "type": "uint256"
        },
        {
          "internalType": "address",
          "name": "account",
          "type": "address"
        }
      ],
      "name": "isOwner",
      "outputs": [
        {
          "internalType": "bool",
          "name": "",
          "type": "bool"
        }
      ],
      "stateMutability": "view",
      "type": "function",
      "constant": true
    },
    {
      "inputs": [
        {
          "internalType": "uint256",
          "name": "contestId",
          "type": "uint256"
        }
      ],
      "name": "Exist",
      "outputs": [
        {
          "internalType": "bool",
          "name": "",
          "type": "bool"
        }
      ],
      "stateMutability": "view",
      "type": "function",
      "constant": true
    },
    {
      "inputs": [
        {
          "internalType": "uint256[]",
          "name": "_ids",
          "type": "uint256[]"
        }
      ],
      "name": "getSome",
      "outputs": [
        {
          "components": [
            {
              "internalType": "uint256",
              "name": "id",
              "type": "uint256"
            },
            {
              "components": [
                {
                  "internalType": "string",
                  "name": "contestType",
                  "type": "string"
                },
                {
                  "internalType": "string",
                  "name": "name",
                  "type": "string"
                },
                {
                  "internalType": "uint256",
                  "name": "fee",
                  "type": "uint256"
                },
                {
                  "internalType": "uint256",
                  "name": "start",
                  "type": "uint256"
                },
                {
                  "internalType": "uint256",
                  "name": "end",
                  "type": "uint256"
                },
                {
                  "internalType": "string",
                  "name": "message",
                  "type": "string"
                }
              ],
              "internalType": "struct IContests.IContest",
              "name": "contestInfo",
              "type": "tuple"
            },
            {
              "internalType": "address",
              "name": "owner",
              "type": "address"
            },
            {
              "internalType": "enum IContests.ContestState",
              "name": "state",
              "type": "uint8"
            },
            {
              "internalType": "uint256",
              "name": "timeStamp",
              "type": "uint256"
            }
          ],
          "internalType": "struct IContests.Contest[]",
          "name": "",
          "type": "tuple[]"
        }
      ],
      "stateMutability": "view",
      "type": "function",
      "constant": true
    },
    {
      "inputs": [],
      "name": "getAll",
      "outputs": [
        {
          "components": [
            {
              "internalType": "uint256",
              "name": "id",
              "type": "uint256"
            },
            {
              "components": [
                {
                  "internalType": "string",
                  "name": "contestType",
                  "type": "string"
                },
                {
                  "internalType": "string",
                  "name": "name",
                  "type": "string"
                },
                {
                  "internalType": "uint256",
                  "name": "fee",
                  "type": "uint256"
                },
                {
                  "internalType": "uint256",
                  "name": "start",
                  "type": "uint256"
                },
                {
                  "internalType": "uint256",
                  "name": "end",
                  "type": "uint256"
                },
                {
                  "internalType": "string",
                  "name": "message",
                  "type": "string"
                }
              ],
              "internalType": "struct IContests.IContest",
              "name": "contestInfo",
              "type": "tuple"
            },
            {
              "internalType": "address",
              "name": "owner",
              "type": "address"
            },
            {
              "internalType": "enum IContests.ContestState",
              "name": "state",
              "type": "uint8"
            },
            {
              "internalType": "uint256",
              "name": "timeStamp",
              "type": "uint256"
            }
          ],
          "internalType": "struct IContests.Contest[]",
          "name": "",
          "type": "tuple[]"
        }
      ],
      "stateMutability": "view",
      "type": "function",
      "constant": true
    },
    {
      "inputs": [
        {
          "internalType": "address",
          "name": "account",
          "type": "address"
        }
      ],
      "name": "gets",
      "outputs": [
        {
          "components": [
            {
              "internalType": "uint256",
              "name": "id",
              "type": "uint256"
            },
            {
              "components": [
                {
                  "internalType": "string",
                  "name": "contestType",
                  "type": "string"
                },
                {
                  "internalType": "string",
                  "name": "name",
                  "type": "string"
                },
                {
                  "internalType": "uint256",
                  "name": "fee",
                  "type": "uint256"
                },
                {
                  "internalType": "uint256",
                  "name": "start",
                  "type": "uint256"
                },
                {
                  "internalType": "uint256",
                  "name": "end",
                  "type": "uint256"
                },
                {
                  "internalType": "string",
                  "name": "message",
                  "type": "string"
                }
              ],
              "internalType": "struct IContests.IContest",
              "name": "contestInfo",
              "type": "tuple"
            },
            {
              "internalType": "address",
              "name": "owner",
              "type": "address"
            },
            {
              "internalType": "enum IContests.ContestState",
              "name": "state",
              "type": "uint8"
            },
            {
              "internalType": "uint256",
              "name": "timeStamp",
              "type": "uint256"
            }
          ],
          "internalType": "struct IContests.Contest[]",
          "name": "",
          "type": "tuple[]"
        }
      ],
      "stateMutability": "view",
      "type": "function",
      "constant": true
    },
    {
      "inputs": [],
      "name": "getCount",
      "outputs": [
        {
          "internalType": "uint256",
          "name": "",
          "type": "uint256"
        }
      ],
      "stateMutability": "view",
      "type": "function",
      "constant": true
    },
    {
      "inputs": [
        {
          "internalType": "uint256",
          "name": "index",
          "type": "uint256"
        }
      ],
      "name": "get",
      "outputs": [
        {
          "components": [
            {
              "internalType": "uint256",
              "name": "id",
              "type": "uint256"
            },
            {
              "components": [
                {
                  "internalType": "string",
                  "name": "contestType",
                  "type": "string"
                },
                {
                  "internalType": "string",
                  "name": "name",
                  "type": "string"
                },
                {
                  "internalType": "uint256",
                  "name": "fee",
                  "type": "uint256"
                },
                {
                  "internalType": "uint256",
                  "name": "start",
                  "type": "uint256"
                },
                {
                  "internalType": "uint256",
                  "name": "end",
                  "type": "uint256"
                },
                {
                  "internalType": "string",
                  "name": "message",
                  "type": "string"
                }
              ],
              "internalType": "struct IContests.IContest",
              "name": "contestInfo",
              "type": "tuple"
            },
            {
              "internalType": "address",
              "name": "owner",
              "type": "address"
            },
            {
              "internalType": "enum IContests.ContestState",
              "name": "state",
              "type": "uint8"
            },
            {
              "internalType": "uint256",
              "name": "timeStamp",
              "type": "uint256"
            }
          ],
          "internalType": "struct IContests.Contest",
          "name": "",
          "type": "tuple"
        }
      ],
      "stateMutability": "view",
      "type": "function",
      "constant": true
    }
  ],
  "bytecode": "0x608060405260016004553480156200001657600080fd5b5060405162002cb138038062002cb183398181016040528101906200003c9190620000ed565b806000806101000a81548173ffffffffffffffffffffffffffffffffffffffff021916908373ffffffffffffffffffffffffffffffffffffffff160217905550506200011f565b600080fd5b600073ffffffffffffffffffffffffffffffffffffffff82169050919050565b6000620000b58262000088565b9050919050565b620000c781620000a8565b8114620000d357600080fd5b50565b600081519050620000e781620000bc565b92915050565b60006020828403121562000106576200010562000083565b5b60006200011684828501620000d6565b91505092915050565b612b82806200012f6000396000f3fe608060405234801561001057600080fd5b50600436106100b45760003560e01c80638475798c116100715780638475798c1461018d578063930ad975146101a95780639507d39a146101d95780639d7ed73814610209578063a87d942c1461023d578063e4dc14911461025b576100b4565b806348547814146100b95780634cc82215146100d557806353ed5143146100f15780635a5d096c1461010f57806361b8ce8c1461013f578063832418031461015d575b600080fd5b6100d360048036038101906100ce9190611814565b61028b565b005b6100ef60048036038101906100ea9190611893565b61061a565b005b6100f961082f565b6040516101069190611bef565b60405180910390f35b61012960048036038101906101249190611c3d565b610848565b6040516101369190611c98565b60405180910390f35b6101476108b7565b6040516101549190611cc2565b60405180910390f35b61017760048036038101906101729190611e25565b6108bd565b6040516101849190611bef565b60405180910390f35b6101a760048036038101906101a29190611e6e565b6108cf565b005b6101c360048036038101906101be9190611eca565b610a84565b6040516101d09190611bef565b60405180910390f35b6101f360048036038101906101ee9190611893565b610adc565b6040516102009190611f6d565b60405180910390f35b610223600480360381019061021e9190611893565b610da9565b604051610234959493929190612044565b60405180910390f35b610245610fea565b6040516102529190611cc2565b60405180910390f35b61027560048036038101906102709190611893565b610ffb565b6040516102829190611c98565b60405180910390f35b60008054906101000a900473ffffffffffffffffffffffffffffffffffffffff1673ffffffffffffffffffffffffffffffffffffffff166391d148547f2ac4b647885dc0812ed26210d6a36d5f1c8de284183a5e4c171119cd3b54458a336040518363ffffffff1660e01b81526004016103069291906120b7565b602060405180830381865afa158015610323573d6000803e3d6000fd5b505050506040513d601f19601f82011682018060405250810190610347919061210c565b610386576040517f08c379a000000000000000000000000000000000000000000000000000000000815260040161037d90612196565b60405180910390fd5b806060013581608001358181116103d2576040517f08c379a00000000000000000000000000000000000000000000000000000000081526004016103c990612228565b60405180910390fd5b428211610414576040517f08c379a000000000000000000000000000000000000000000000000000000000815260040161040b906122ba565b60405180910390fd5b61042a600454600161101d90919063ffffffff16565b5061047e600454600560003373ffffffffffffffffffffffffffffffffffffffff1673ffffffffffffffffffffffffffffffffffffffff16815260200190815260200160002061101d90919063ffffffff16565b506040518060a0016040528060045481526020018461049c9061248d565b81526020013373ffffffffffffffffffffffffffffffffffffffff168152602001600160038111156104d1576104d0611a6c565b5b81526020014281525060036000600454815260200190815260200160002060008201518160000155602082015181600101600082015181600001908051906020019061051e929190611666565b50602082015181600101908051906020019061053b929190611666565b5060408201518160020155606082015181600301556080820151816004015560a0820151816005019080519060200190610576929190611666565b50505060408201518160070160006101000a81548173ffffffffffffffffffffffffffffffffffffffff021916908373ffffffffffffffffffffffffffffffffffffffff16021790555060608201518160070160146101000a81548160ff021916908360038111156105eb576105ea611a6c565b5b02179055506080820151816008015590505060046000815480929190610610906124cf565b9190505550505050565b803373ffffffffffffffffffffffffffffffffffffffff166003600083815260200190815260200160002060070160009054906101000a900473ffffffffffffffffffffffffffffffffffffffff1673ffffffffffffffffffffffffffffffffffffffff16146106bf576040517f08c379a00000000000000000000000000000000000000000000000000000000081526004016106b690612564565b60405180910390fd5b816106d481600161103790919063ffffffff16565b610713576040517f08c379a000000000000000000000000000000000000000000000000000000000815260040161070a906125d0565b60405180910390fd5b61072783600161105190919063ffffffff16565b5061077983600560003373ffffffffffffffffffffffffffffffffffffffff1673ffffffffffffffffffffffffffffffffffffffff16815260200190815260200160002061105190919063ffffffff16565b506003600084815260200190815260200160002060008082016000905560018201600080820160006107ab91906116ec565b6001820160006107bb91906116ec565b6002820160009055600382016000905560048201600090556005820160006107e391906116ec565b50506007820160006101000a81549073ffffffffffffffffffffffffffffffffffffffff02191690556007820160146101000a81549060ff021916905560088201600090555050505050565b606061084361083e600161106b565b61108c565b905090565b60008173ffffffffffffffffffffffffffffffffffffffff166003600085815260200190815260200160002060070160009054906101000a900473ffffffffffffffffffffffffffffffffffffffff1673ffffffffffffffffffffffffffffffffffffffff1614905092915050565b60045481565b60606108c88261108c565b9050919050565b813373ffffffffffffffffffffffffffffffffffffffff166003600083815260200190815260200160002060070160009054906101000a900473ffffffffffffffffffffffffffffffffffffffff1673ffffffffffffffffffffffffffffffffffffffff1614610974576040517f08c379a000000000000000000000000000000000000000000000000000000000815260040161096b90612564565b60405180910390fd5b816060013582608001358181116109c0576040517f08c379a00000000000000000000000000000000000000000000000000000000081526004016109b790612228565b60405180910390fd5b428211610a02576040517f08c379a00000000000000000000000000000000000000000000000000000000081526004016109f9906122ba565b60405180910390fd5b84610a1781600161103790919063ffffffff16565b610a56576040517f08c379a0000000000000000000000000000000000000000000000000000000008152600401610a4d906125d0565b60405180910390fd5b84600360008881526020019081526020016000206001018181610a799190612aac565b905050505050505050565b6060610ad5610ad0600560008573ffffffffffffffffffffffffffffffffffffffff1673ffffffffffffffffffffffffffffffffffffffff16815260200190815260200160002061106b565b61108c565b9050919050565b610ae461172c565b60036000610afc8460016113f890919063ffffffff16565b81526020019081526020016000206040518060a001604052908160008201548152602001600182016040518060c0016040529081600082018054610b3f9061269c565b80601f0160208091040260200160405190810160405280929190818152602001828054610b6b9061269c565b8015610bb85780601f10610b8d57610100808354040283529160200191610bb8565b820191906000526020600020905b815481529060010190602001808311610b9b57829003601f168201915b50505050508152602001600182018054610bd19061269c565b80601f0160208091040260200160405190810160405280929190818152602001828054610bfd9061269c565b8015610c4a5780601f10610c1f57610100808354040283529160200191610c4a565b820191906000526020600020905b815481529060010190602001808311610c2d57829003601f168201915b50505050508152602001600282015481526020016003820154815260200160048201548152602001600582018054610c819061269c565b80601f0160208091040260200160405190810160405280929190818152602001828054610cad9061269c565b8015610cfa5780601f10610ccf57610100808354040283529160200191610cfa565b820191906000526020600020905b815481529060010190602001808311610cdd57829003601f168201915b50505050508152505081526020016007820160009054906101000a900473ffffffffffffffffffffffffffffffffffffffff1673ffffffffffffffffffffffffffffffffffffffff1673ffffffffffffffffffffffffffffffffffffffff1681526020016007820160149054906101000a900460ff166003811115610d8257610d81611a6c565b5b6003811115610d9457610d93611a6c565b5b81526020016008820154815250509050919050565b6003602052806000526040600020600091509050806000015490806001016040518060c0016040529081600082018054610de29061269c565b80601f0160208091040260200160405190810160405280929190818152602001828054610e0e9061269c565b8015610e5b5780601f10610e3057610100808354040283529160200191610e5b565b820191906000526020600020905b815481529060010190602001808311610e3e57829003601f168201915b50505050508152602001600182018054610e749061269c565b80601f0160208091040260200160405190810160405280929190818152602001828054610ea09061269c565b8015610eed5780601f10610ec257610100808354040283529160200191610eed565b820191906000526020600020905b815481529060010190602001808311610ed057829003601f168201915b50505050508152602001600282015481526020016003820154815260200160048201548152602001600582018054610f249061269c565b80601f0160208091040260200160405190810160405280929190818152602001828054610f509061269c565b8015610f9d5780601f10610f7257610100808354040283529160200191610f9d565b820191906000526020600020905b815481529060010190602001808311610f8057829003601f168201915b505050505081525050908060070160009054906101000a900473ffffffffffffffffffffffffffffffffffffffff16908060070160149054906101000a900460ff16908060080154905085565b6000610ff66001611412565b905090565b6000806003600084815260200190815260200160002060000154119050919050565b600061102f836000018360001b611427565b905092915050565b6000611049836000018360001b611497565b905092915050565b6000611063836000018360001b6114ba565b905092915050565b6060600061107b836000016115ce565b905060608190508092505050919050565b606060008251905060008167ffffffffffffffff8111156110b0576110af611ce2565b5b6040519080825280602002602001820160405280156110e957816020015b6110d661172c565b8152602001906001900390816110ce5790505b50905060005b828110156113ed576003600086838151811061110e5761110d612aba565b5b602002602001015181526020019081526020016000206040518060a001604052908160008201548152602001600182016040518060c00160405290816000820180546111599061269c565b80601f01602080910402602001604051908101604052809291908181526020018280546111859061269c565b80156111d25780601f106111a7576101008083540402835291602001916111d2565b820191906000526020600020905b8154815290600101906020018083116111b557829003601f168201915b505050505081526020016001820180546111eb9061269c565b80601f01602080910402602001604051908101604052809291908181526020018280546112179061269c565b80156112645780601f1061123957610100808354040283529160200191611264565b820191906000526020600020905b81548152906001019060200180831161124757829003601f168201915b5050505050815260200160028201548152602001600382015481526020016004820154815260200160058201805461129b9061269c565b80601f01602080910402602001604051908101604052809291908181526020018280546112c79061269c565b80156113145780601f106112e957610100808354040283529160200191611314565b820191906000526020600020905b8154815290600101906020018083116112f757829003601f168201915b50505050508152505081526020016007820160009054906101000a900473ffffffffffffffffffffffffffffffffffffffff1673ffffffffffffffffffffffffffffffffffffffff1673ffffffffffffffffffffffffffffffffffffffff1681526020016007820160149054906101000a900460ff16600381111561139c5761139b611a6c565b5b60038111156113ae576113ad611a6c565b5b81526020016008820154815250508282815181106113cf576113ce612aba565b5b602002602001018190525080806113e5906124cf565b9150506110ef565b508092505050919050565b6000611407836000018361162a565b60001c905092915050565b600061142082600001611655565b9050919050565b60006114338383611497565b61148c578260000182908060018154018082558091505060019003906000526020600020016000909190919091505582600001805490508360010160008481526020019081526020016000208190555060019050611491565b600090505b92915050565b600080836001016000848152602001908152602001600020541415905092915050565b600080836001016000848152602001908152602001600020549050600081146115c25760006001826114ec9190612ae9565b90506000600186600001805490506115049190612ae9565b905081811461157357600086600001828154811061152557611524612aba565b5b906000526020600020015490508087600001848154811061154957611548612aba565b5b90600052602060002001819055508387600101600083815260200190815260200160002081905550505b8560000180548061158757611586612b1d565b5b6001900381819060005260206000200160009055905585600101600086815260200190815260200160002060009055600193505050506115c8565b60009150505b92915050565b60608160000180548060200260200160405190810160405280929190818152602001828054801561161e57602002820191906000526020600020905b81548152602001906001019080831161160a575b50505050509050919050565b600082600001828154811061164257611641612aba565b5b9060005260206000200154905092915050565b600081600001805490509050919050565b8280546116729061269c565b90600052602060002090601f01602090048101928261169457600085556116db565b82601f106116ad57805160ff19168380011785556116db565b828001600101855582156116db579182015b828111156116da5782518255916020019190600101906116bf565b5b5090506116e89190611789565b5090565b5080546116f89061269c565b6000825580601f1061170a5750611729565b601f0160209004906000526020600020908101906117289190611789565b5b50565b6040518060a00160405280600081526020016117466117a6565b8152602001600073ffffffffffffffffffffffffffffffffffffffff1681526020016000600381111561177c5761177b611a6c565b5b8152602001600081525090565b5b808211156117a257600081600090555060010161178a565b5090565b6040518060c001604052806060815260200160608152602001600081526020016000815260200160008152602001606081525090565b6000604051905090565b600080fd5b600080fd5b600080fd5b600060c0828403121561180b5761180a6117f0565b5b81905092915050565b60006020828403121561182a576118296117e6565b5b600082013567ffffffffffffffff811115611848576118476117eb565b5b611854848285016117f5565b91505092915050565b6000819050919050565b6118708161185d565b811461187b57600080fd5b50565b60008135905061188d81611867565b92915050565b6000602082840312156118a9576118a86117e6565b5b60006118b78482850161187e565b91505092915050565b600081519050919050565b600082825260208201905092915050565b6000819050602082019050919050565b6118f58161185d565b82525050565b600081519050919050565b600082825260208201905092915050565b60005b8381101561193557808201518184015260208101905061191a565b83811115611944576000848401525b50505050565b6000601f19601f8301169050919050565b6000611966826118fb565b6119708185611906565b9350611980818560208601611917565b6119898161194a565b840191505092915050565b600060c08301600083015184820360008601526119b1828261195b565b915050602083015184820360208601526119cb828261195b565b91505060408301516119e060408601826118ec565b5060608301516119f360608601826118ec565b506080830151611a0660808601826118ec565b5060a083015184820360a0860152611a1e828261195b565b9150508091505092915050565b600073ffffffffffffffffffffffffffffffffffffffff82169050919050565b6000611a5682611a2b565b9050919050565b611a6681611a4b565b82525050565b7f4e487b7100000000000000000000000000000000000000000000000000000000600052602160045260246000fd5b60048110611aac57611aab611a6c565b5b50565b6000819050611abd82611a9b565b919050565b6000611acd82611aaf565b9050919050565b611add81611ac2565b82525050565b600060a083016000830151611afb60008601826118ec565b5060208301518482036020860152611b138282611994565b9150506040830151611b286040860182611a5d565b506060830151611b3b6060860182611ad4565b506080830151611b4e60808601826118ec565b508091505092915050565b6000611b658383611ae3565b905092915050565b6000602082019050919050565b6000611b85826118c0565b611b8f81856118cb565b935083602082028501611ba1856118dc565b8060005b85811015611bdd5784840389528151611bbe8582611b59565b9450611bc983611b6d565b925060208a01995050600181019050611ba5565b50829750879550505050505092915050565b60006020820190508181036000830152611c098184611b7a565b905092915050565b611c1a81611a4b565b8114611c2557600080fd5b50565b600081359050611c3781611c11565b92915050565b60008060408385031215611c5457611c536117e6565b5b6000611c628582860161187e565b9250506020611c7385828601611c28565b9150509250929050565b60008115159050919050565b611c9281611c7d565b82525050565b6000602082019050611cad6000830184611c89565b92915050565b611cbc8161185d565b82525050565b6000602082019050611cd76000830184611cb3565b92915050565b600080fd5b7f4e487b7100000000000000000000000000000000000000000000000000000000600052604160045260246000fd5b611d1a8261194a565b810181811067ffffffffffffffff82111715611d3957611d38611ce2565b5b80604052505050565b6000611d4c6117dc565b9050611d588282611d11565b919050565b600067ffffffffffffffff821115611d7857611d77611ce2565b5b602082029050602081019050919050565b600080fd5b6000611da1611d9c84611d5d565b611d42565b90508083825260208201905060208402830185811115611dc457611dc3611d89565b5b835b81811015611ded5780611dd9888261187e565b845260208401935050602081019050611dc6565b5050509392505050565b600082601f830112611e0c57611e0b611cdd565b5b8135611e1c848260208601611d8e565b91505092915050565b600060208284031215611e3b57611e3a6117e6565b5b600082013567ffffffffffffffff811115611e5957611e586117eb565b5b611e6584828501611df7565b91505092915050565b60008060408385031215611e8557611e846117e6565b5b6000611e938582860161187e565b925050602083013567ffffffffffffffff811115611eb457611eb36117eb565b5b611ec0858286016117f5565b9150509250929050565b600060208284031215611ee057611edf6117e6565b5b6000611eee84828501611c28565b91505092915050565b600060a083016000830151611f0f60008601826118ec565b5060208301518482036020860152611f278282611994565b9150506040830151611f3c6040860182611a5d565b506060830151611f4f6060860182611ad4565b506080830151611f6260808601826118ec565b508091505092915050565b60006020820190508181036000830152611f878184611ef7565b905092915050565b600060c0830160008301518482036000860152611fac828261195b565b91505060208301518482036020860152611fc6828261195b565b9150506040830151611fdb60408601826118ec565b506060830151611fee60608601826118ec565b50608083015161200160808601826118ec565b5060a083015184820360a0860152612019828261195b565b9150508091505092915050565b61202f81611a4b565b82525050565b61203e81611ac2565b82525050565b600060a0820190506120596000830188611cb3565b818103602083015261206b8187611f8f565b905061207a6040830186612026565b6120876060830185612035565b6120946080830184611cb3565b9695505050505050565b6000819050919050565b6120b18161209e565b82525050565b60006040820190506120cc60008301856120a8565b6120d96020830184612026565b9392505050565b6120e981611c7d565b81146120f457600080fd5b50565b600081519050612106816120e0565b92915050565b600060208284031215612122576121216117e6565b5b6000612130848285016120f7565b91505092915050565b600082825260208201905092915050565b7f6f6e6c7920636f6e746573742061646d696e0000000000000000000000000000600082015250565b6000612180601283612139565b915061218b8261214a565b602082019050919050565b600060208201905081810360008301526121af81612173565b9050919050565b7f63616e206f6e6c792061646420636f6e7465737420696620656e64206166746560008201527f7220737461727400000000000000000000000000000000000000000000000000602082015250565b6000612212602783612139565b915061221d826121b6565b604082019050919050565b6000602082019050818103600083015261224181612205565b9050919050565b7f63616e206f6e6c792061646420636f6e7465737420617420612066757475726560008201527f2064617465000000000000000000000000000000000000000000000000000000602082015250565b60006122a4602583612139565b91506122af82612248565b604082019050919050565b600060208201905081810360008301526122d381612297565b9050919050565b600080fd5b600080fd5b600080fd5b600067ffffffffffffffff82111561230457612303611ce2565b5b61230d8261194a565b9050602081019050919050565b82818337600083830152505050565b600061233c612337846122e9565b611d42565b905082815260208101848484011115612358576123576122e4565b5b61236384828561231a565b509392505050565b600082601f8301126123805761237f611cdd565b5b8135612390848260208601612329565b91505092915050565b600060c082840312156123af576123ae6122da565b5b6123b960c0611d42565b9050600082013567ffffffffffffffff8111156123d9576123d86122df565b5b6123e58482850161236b565b600083015250602082013567ffffffffffffffff811115612409576124086122df565b5b6124158482850161236b565b60208301525060406124298482850161187e565b604083015250606061243d8482850161187e565b60608301525060806124518482850161187e565b60808301525060a082013567ffffffffffffffff811115612475576124746122df565b5b6124818482850161236b565b60a08301525092915050565b60006124993683612399565b9050919050565b7f4e487b7100000000000000000000000000000000000000000000000000000000600052601160045260246000fd5b60006124da8261185d565b91507fffffffffffffffffffffffffffffffffffffffffffffffffffffffffffffffff82141561250d5761250c6124a0565b5b600182019050919050565b7f6f6e6c7920636f6e74657374206f776e65720000000000000000000000000000600082015250565b600061254e601283612139565b915061255982612518565b602082019050919050565b6000602082019050818103600083015261257d81612541565b9050919050565b7f636f6e7465737420646f6573206e6f7420657869737400000000000000000000600082015250565b60006125ba601683612139565b91506125c582612584565b602082019050919050565b600060208201905081810360008301526125e9816125ad565b9050919050565b600080fd5b600080fd5b600080fd5b6000808335600160200384360303811261261c5761261b6125f0565b5b80840192508235915067ffffffffffffffff82111561263e5761263d6125f5565b5b60208301925060018202360383131561265a576126596125fa565b5b509250929050565b600082905092915050565b7f4e487b7100000000000000000000000000000000000000000000000000000000600052602260045260246000fd5b600060028204905060018216806126b457607f821691505b602082108114156126c8576126c761266d565b5b50919050565b60008190508160005260206000209050919050565b60006020601f8301049050919050565b600082821b905092915050565b6000600883026127307fffffffffffffffffffffffffffffffffffffffffffffffffffffffffffffffff826126f3565b61273a86836126f3565b95508019841693508086168417925050509392505050565b6000819050919050565b600061277761277261276d8461185d565b612752565b61185d565b9050919050565b6000819050919050565b6127918361275c565b6127a561279d8261277e565b848454612700565b825550505050565b600090565b6127ba6127ad565b6127c5818484612788565b505050565b5b818110156127e9576127de6000826127b2565b6001810190506127cb565b5050565b601f82111561282e576127ff816126ce565b612808846126e3565b81016020851015612817578190505b61282b612823856126e3565b8301826127ca565b50505b505050565b600082821c905092915050565b600061285160001984600802612833565b1980831691505092915050565b600061286a8383612840565b9150826002028217905092915050565b6128848383612662565b67ffffffffffffffff81111561289d5761289c611ce2565b5b6128a7825461269c565b6128b28282856127ed565b6000601f8311600181146128e157600084156128cf578287013590505b6128d9858261285e565b865550612941565b601f1984166128ef866126ce565b60005b82811015612917578489013582556001820191506020850194506020810190506128f2565b868310156129345784890135612930601f891682612840565b8355505b6001600288020188555050505b50505050505050565b61295583838361287a565b505050565b6000813561296781611867565b80915050919050565b60008160001b9050919050565b60007fffffffffffffffffffffffffffffffffffffffffffffffffffffffffffffffff6129a984612970565b9350801983169250808416831791505092915050565b6129c88261275c565b6129db6129d48261277e565b835461297d565b8255505050565b60008101600083016129f481856125ff565b6129ff81838661294a565b505050506001810160208301612a1581856125ff565b612a2081838661294a565b50505050600281016040830180612a368161295a565b9050612a4281846129bf565b505050600381016060830180612a578161295a565b9050612a6381846129bf565b505050600481016080830180612a788161295a565b9050612a8481846129bf565b5050506005810160a08301612a9981856125ff565b612aa481838661294a565b505050505050565b612ab682826129e2565b5050565b7f4e487b7100000000000000000000000000000000000000000000000000000000600052603260045260246000fd5b6000612af48261185d565b9150612aff8361185d565b925082821015612b1257612b116124a0565b5b828203905092915050565b7f4e487b7100000000000000000000000000000000000000000000000000000000600052603160045260246000fdfea264697066735822122033c41440202fe7501a65d6ba7121faba6ede08cb94b4b960e2fb0ec65e28091064736f6c634300080a0033",
  "immutableReferences": {},
  "source": "// SPDX-License-Identifier: MIT\npragma solidity ^0.8.10;\npragma experimental ABIEncoderV2;\n\nimport \"@openzeppelin/contracts/access/IAccessControl.sol\";\nimport \"@openzeppelin/contracts/utils/structs/EnumerableSet.sol\";\nimport \"./IContests.sol\";\n\ncontract Contests is IContests {\n\n    using EnumerableSet for EnumerableSet.UintSet;\n\n    IAccessControl AccessControl;\n\n    constructor(address _AccessControl) {\n        AccessControl = IAccessControl(_AccessControl);\n    }\n\n    EnumerableSet.UintSet ids;\n    //ContestId => contest\n    mapping(uint => Contest) public contests;\n    uint public nextId = 1;\n    mapping(address => EnumerableSet.UintSet) ownerToIds;\n\n    function _gets(uint [] memory _ids) internal view returns (Contest [] memory) {\n        uint number = _ids.length;\n        Contest [] memory result = new Contest [] (number);\n        for(uint i = 0; i < number; i++) {\n            result[i] = contests[_ids[i]];\n        }\n        return result;\n    }\n\n    function add(IContest calldata contest) external\n    onlyContestAdmin()\n    timeQualified(contest.start, contest.end) {\n        ids.add(nextId);\n        ownerToIds[msg.sender].add(nextId);\n        contests[nextId] = Contest(nextId, contest, msg.sender, ContestState.CREATED, block.timestamp);\n        nextId++;\n    }\n\n    function update(uint id, IContest calldata contest) external\n    onlyContestOwner(id)\n    timeQualified(contest.start, contest.end) \n    onlyContestExist(id){\n        contests[id].contestInfo = contest;\n    }\n\n    function remove(uint id) external\n    onlyContestOwner(id)\n    onlyContestExist(id){\n        ids.remove(id);\n        ownerToIds[msg.sender].remove(id);\n        delete contests[id];\n    }\n\n    function isOwner(uint contestId, address account) external view returns(bool) {\n        return contests[contestId].owner == account;\n    }\n\n    function Exist(uint contestId) external view returns(bool) {\n        return contests[contestId].id > 0;\n    }\n\n    function getSome(uint [] memory _ids) external view returns (Contest [] memory) {\n        return _gets(_ids);\n    }\n\n    function getAll() external view returns (Contest [] memory) {\n        return _gets(ids.values());\n    }\n\n    function gets(address account) external view returns (Contest [] memory){\n        return _gets(ownerToIds[account].values());\n    }\n\n    function getCount() external view returns (uint) {\n        return ids.length();\n    }\n\n    function get(uint index) external view returns (Contest memory) {\n        return contests[ids.at(index)];\n    }\n\n    modifier onlyContestExist(uint id){\n        require(ids.contains(id), \"contest does not exist\");\n        _;\n    }\n\n    modifier onlyContestAdmin() {\n        require(AccessControl.hasRole(keccak256(\"CONTEST_ADMIN\"), msg.sender), \"only contest admin\");\n        _;\n    }\n\n    modifier onlyContestOwner(uint id){\n        require(contests[id].owner == msg.sender, \"only contest owner\");\n        _;\n    }\n\n    modifier timeQualified(uint start, uint end){\n        require(end > start, \"can only add contest if end after start\");\n        require(start > block.timestamp, \"can only add contest at a future date\");\n        _;\n    }\n}",
  "sourcePath": "/Users/yhy/Desktop/Graduation-Project/contracts/Contests.sol",
  "compiler": {
    "name": "solc",
    "version": "0.8.10+commit.fc410830.Emscripten.clang"
  },
  "schemaVersion": "3.4.4",
  "updatedAt": "2022-02-14T03:18:14.160Z",
  "networkType": "ethereum",
  "devdoc": {
    "kind": "dev",
    "methods": {},
    "version": 1
  },
  "userdoc": {
    "kind": "user",
    "methods": {},
    "version": 1
  }
}