{
  "contractName": "Contests",
  "abi": [
    {
      "inputs": [
        {
          "internalType": "address",
          "name": "_AccessControl",
          "type": "address"
        }
      ],
      "stateMutability": "nonpayable",
      "type": "constructor"
    },
    {
      "inputs": [
        {
          "internalType": "uint256",
          "name": "",
          "type": "uint256"
        }
      ],
      "name": "contests",
      "outputs": [
        {
          "internalType": "uint256",
          "name": "id",
          "type": "uint256"
        },
        {
          "components": [
            {
              "internalType": "string",
              "name": "contestType",
              "type": "string"
            },
            {
              "internalType": "string",
              "name": "name",
              "type": "string"
            },
            {
              "internalType": "uint256",
              "name": "fee",
              "type": "uint256"
            },
            {
              "internalType": "uint256",
              "name": "start",
              "type": "uint256"
            },
            {
              "internalType": "uint256",
              "name": "end",
              "type": "uint256"
            },
            {
              "internalType": "string",
              "name": "message",
              "type": "string"
            }
          ],
          "internalType": "struct IContests.IContest",
          "name": "info",
          "type": "tuple"
        },
        {
          "internalType": "address",
          "name": "owner",
          "type": "address"
        },
        {
          "internalType": "enum IContests.ContestState",
          "name": "state",
          "type": "uint8"
        },
        {
          "internalType": "uint256",
          "name": "timeStamp",
          "type": "uint256"
        }
      ],
      "stateMutability": "view",
      "type": "function",
      "constant": true
    },
    {
      "inputs": [],
      "name": "nextId",
      "outputs": [
        {
          "internalType": "uint256",
          "name": "",
          "type": "uint256"
        }
      ],
      "stateMutability": "view",
      "type": "function",
      "constant": true
    },
    {
      "inputs": [
        {
          "components": [
            {
              "internalType": "string",
              "name": "contestType",
              "type": "string"
            },
            {
              "internalType": "string",
              "name": "name",
              "type": "string"
            },
            {
              "internalType": "uint256",
              "name": "fee",
              "type": "uint256"
            },
            {
              "internalType": "uint256",
              "name": "start",
              "type": "uint256"
            },
            {
              "internalType": "uint256",
              "name": "end",
              "type": "uint256"
            },
            {
              "internalType": "string",
              "name": "message",
              "type": "string"
            }
          ],
          "internalType": "struct IContests.IContest",
          "name": "contest",
          "type": "tuple"
        }
      ],
      "name": "add",
      "outputs": [],
      "stateMutability": "nonpayable",
      "type": "function"
    },
    {
      "inputs": [
        {
          "internalType": "uint256",
          "name": "id",
          "type": "uint256"
        },
        {
          "components": [
            {
              "internalType": "string",
              "name": "contestType",
              "type": "string"
            },
            {
              "internalType": "string",
              "name": "name",
              "type": "string"
            },
            {
              "internalType": "uint256",
              "name": "fee",
              "type": "uint256"
            },
            {
              "internalType": "uint256",
              "name": "start",
              "type": "uint256"
            },
            {
              "internalType": "uint256",
              "name": "end",
              "type": "uint256"
            },
            {
              "internalType": "string",
              "name": "message",
              "type": "string"
            }
          ],
          "internalType": "struct IContests.IContest",
          "name": "contest",
          "type": "tuple"
        }
      ],
      "name": "update",
      "outputs": [],
      "stateMutability": "nonpayable",
      "type": "function"
    },
    {
      "inputs": [
        {
          "internalType": "uint256[]",
          "name": "_ids",
          "type": "uint256[]"
        }
      ],
      "name": "removes",
      "outputs": [],
      "stateMutability": "nonpayable",
      "type": "function"
    },
    {
      "inputs": [
        {
          "internalType": "uint256",
          "name": "id",
          "type": "uint256"
        },
        {
          "internalType": "enum IContests.ContestState",
          "name": "state",
          "type": "uint8"
        }
      ],
      "name": "contestInState",
      "outputs": [
        {
          "internalType": "bool",
          "name": "",
          "type": "bool"
        }
      ],
      "stateMutability": "nonpayable",
      "type": "function"
    },
    {
      "inputs": [
        {
          "internalType": "uint256",
          "name": "contestId",
          "type": "uint256"
        },
        {
          "internalType": "address",
          "name": "account",
          "type": "address"
        }
      ],
      "name": "isOwner",
      "outputs": [
        {
          "internalType": "bool",
          "name": "",
          "type": "bool"
        }
      ],
      "stateMutability": "view",
      "type": "function",
      "constant": true
    },
    {
      "inputs": [
        {
          "internalType": "uint256",
          "name": "contestId",
          "type": "uint256"
        }
      ],
      "name": "Exist",
      "outputs": [
        {
          "internalType": "bool",
          "name": "",
          "type": "bool"
        }
      ],
      "stateMutability": "view",
      "type": "function",
      "constant": true
    },
    {
      "inputs": [
        {
          "internalType": "uint256[]",
          "name": "_ids",
          "type": "uint256[]"
        }
      ],
      "name": "getSome",
      "outputs": [
        {
          "components": [
            {
              "internalType": "uint256",
              "name": "id",
              "type": "uint256"
            },
            {
              "components": [
                {
                  "internalType": "string",
                  "name": "contestType",
                  "type": "string"
                },
                {
                  "internalType": "string",
                  "name": "name",
                  "type": "string"
                },
                {
                  "internalType": "uint256",
                  "name": "fee",
                  "type": "uint256"
                },
                {
                  "internalType": "uint256",
                  "name": "start",
                  "type": "uint256"
                },
                {
                  "internalType": "uint256",
                  "name": "end",
                  "type": "uint256"
                },
                {
                  "internalType": "string",
                  "name": "message",
                  "type": "string"
                }
              ],
              "internalType": "struct IContests.IContest",
              "name": "info",
              "type": "tuple"
            },
            {
              "internalType": "address",
              "name": "owner",
              "type": "address"
            },
            {
              "internalType": "enum IContests.ContestState",
              "name": "state",
              "type": "uint8"
            },
            {
              "internalType": "uint256",
              "name": "timeStamp",
              "type": "uint256"
            }
          ],
          "internalType": "struct IContests.Contest[]",
          "name": "",
          "type": "tuple[]"
        }
      ],
      "stateMutability": "view",
      "type": "function",
      "constant": true
    },
    {
      "inputs": [],
      "name": "getAll",
      "outputs": [
        {
          "components": [
            {
              "internalType": "uint256",
              "name": "id",
              "type": "uint256"
            },
            {
              "components": [
                {
                  "internalType": "string",
                  "name": "contestType",
                  "type": "string"
                },
                {
                  "internalType": "string",
                  "name": "name",
                  "type": "string"
                },
                {
                  "internalType": "uint256",
                  "name": "fee",
                  "type": "uint256"
                },
                {
                  "internalType": "uint256",
                  "name": "start",
                  "type": "uint256"
                },
                {
                  "internalType": "uint256",
                  "name": "end",
                  "type": "uint256"
                },
                {
                  "internalType": "string",
                  "name": "message",
                  "type": "string"
                }
              ],
              "internalType": "struct IContests.IContest",
              "name": "info",
              "type": "tuple"
            },
            {
              "internalType": "address",
              "name": "owner",
              "type": "address"
            },
            {
              "internalType": "enum IContests.ContestState",
              "name": "state",
              "type": "uint8"
            },
            {
              "internalType": "uint256",
              "name": "timeStamp",
              "type": "uint256"
            }
          ],
          "internalType": "struct IContests.Contest[]",
          "name": "",
          "type": "tuple[]"
        }
      ],
      "stateMutability": "view",
      "type": "function",
      "constant": true
    },
    {
      "inputs": [
        {
          "internalType": "address",
          "name": "account",
          "type": "address"
        }
      ],
      "name": "gets",
      "outputs": [
        {
          "components": [
            {
              "internalType": "uint256",
              "name": "id",
              "type": "uint256"
            },
            {
              "components": [
                {
                  "internalType": "string",
                  "name": "contestType",
                  "type": "string"
                },
                {
                  "internalType": "string",
                  "name": "name",
                  "type": "string"
                },
                {
                  "internalType": "uint256",
                  "name": "fee",
                  "type": "uint256"
                },
                {
                  "internalType": "uint256",
                  "name": "start",
                  "type": "uint256"
                },
                {
                  "internalType": "uint256",
                  "name": "end",
                  "type": "uint256"
                },
                {
                  "internalType": "string",
                  "name": "message",
                  "type": "string"
                }
              ],
              "internalType": "struct IContests.IContest",
              "name": "info",
              "type": "tuple"
            },
            {
              "internalType": "address",
              "name": "owner",
              "type": "address"
            },
            {
              "internalType": "enum IContests.ContestState",
              "name": "state",
              "type": "uint8"
            },
            {
              "internalType": "uint256",
              "name": "timeStamp",
              "type": "uint256"
            }
          ],
          "internalType": "struct IContests.Contest[]",
          "name": "",
          "type": "tuple[]"
        }
      ],
      "stateMutability": "view",
      "type": "function",
      "constant": true
    },
    {
      "inputs": [],
      "name": "getCount",
      "outputs": [
        {
          "internalType": "uint256",
          "name": "",
          "type": "uint256"
        }
      ],
      "stateMutability": "view",
      "type": "function",
      "constant": true
    },
    {
      "inputs": [
        {
          "internalType": "uint256",
          "name": "index",
          "type": "uint256"
        }
      ],
      "name": "get",
      "outputs": [
        {
          "components": [
            {
              "internalType": "uint256",
              "name": "id",
              "type": "uint256"
            },
            {
              "components": [
                {
                  "internalType": "string",
                  "name": "contestType",
                  "type": "string"
                },
                {
                  "internalType": "string",
                  "name": "name",
                  "type": "string"
                },
                {
                  "internalType": "uint256",
                  "name": "fee",
                  "type": "uint256"
                },
                {
                  "internalType": "uint256",
                  "name": "start",
                  "type": "uint256"
                },
                {
                  "internalType": "uint256",
                  "name": "end",
                  "type": "uint256"
                },
                {
                  "internalType": "string",
                  "name": "message",
                  "type": "string"
                }
              ],
              "internalType": "struct IContests.IContest",
              "name": "info",
              "type": "tuple"
            },
            {
              "internalType": "address",
              "name": "owner",
              "type": "address"
            },
            {
              "internalType": "enum IContests.ContestState",
              "name": "state",
              "type": "uint8"
            },
            {
              "internalType": "uint256",
              "name": "timeStamp",
              "type": "uint256"
            }
          ],
          "internalType": "struct IContests.Contest",
          "name": "",
          "type": "tuple"
        }
      ],
      "stateMutability": "view",
      "type": "function",
      "constant": true
    }
  ],
  "bytecode": "0x608060405260016004553480156200001657600080fd5b50604051620030603803806200306083398181016040528101906200003c9190620000ed565b806000806101000a81548173ffffffffffffffffffffffffffffffffffffffff021916908373ffffffffffffffffffffffffffffffffffffffff160217905550506200011f565b600080fd5b600073ffffffffffffffffffffffffffffffffffffffff82169050919050565b6000620000b58262000088565b9050919050565b620000c781620000a8565b8114620000d357600080fd5b50565b600081519050620000e781620000bc565b92915050565b60006020828403121562000106576200010562000083565b5b60006200011684828501620000d6565b91505092915050565b612f31806200012f6000396000f3fe608060405234801561001057600080fd5b50600436106100cf5760003560e01c8063832418031161008c5780639507d39a116100665780639507d39a146102245780639d7ed73814610254578063a87d942c14610288578063e4dc1491146102a6576100cf565b806383241803146101a85780638475798c146101d8578063930ad975146101f4576100cf565b80633ba91ead146100d4578063434e540b146100f0578063485478141461012057806353ed51431461013c5780635a5d096c1461015a57806361b8ce8c1461018a575b600080fd5b6100ee60048036038101906100e99190611c5d565b6102d6565b005b61010a60048036038101906101059190611ccb565b61031c565b6040516101179190611d26565b60405180910390f35b61013a60048036038101906101359190611d65565b610379565b005b610144610708565b60405161015191906120cc565b60405180910390f35b610174600480360381019061016f919061211a565b610721565b6040516101819190611d26565b60405180910390f35b610192610790565b60405161019f9190612169565b60405180910390f35b6101c260048036038101906101bd9190611c5d565b610796565b6040516101cf91906120cc565b60405180910390f35b6101f260048036038101906101ed9190612184565b6107a8565b005b61020e600480360381019061020991906121e0565b6109f4565b60405161021b91906120cc565b60405180910390f35b61023e6004803603810190610239919061220d565b610a4c565b60405161024b91906122b0565b60405180910390f35b61026e6004803603810190610269919061220d565b610d19565b60405161027f959493929190612387565b60405180910390f35b610290610f5a565b60405161029d9190612169565b60405180910390f35b6102c060048036038101906102bb919061220d565b610f6b565b6040516102cd9190611d26565b60405180910390f35b60005b8151811015610318576103058282815181106102f8576102f76123e1565b5b6020026020010151610f8d565b80806103109061243f565b9150506102d9565b5050565b600061032783611239565b81600381111561033a57610339611f49565b5b6003600085815260200190815260200160002060070160149054906101000a900460ff1660038111156103705761036f611f49565b5b14905092915050565b60008054906101000a900473ffffffffffffffffffffffffffffffffffffffff1673ffffffffffffffffffffffffffffffffffffffff166391d148547f2ac4b647885dc0812ed26210d6a36d5f1c8de284183a5e4c171119cd3b54458a336040518363ffffffff1660e01b81526004016103f49291906124a1565b602060405180830381865afa158015610411573d6000803e3d6000fd5b505050506040513d601f19601f8201168201806040525081019061043591906124f6565b610474576040517f08c379a000000000000000000000000000000000000000000000000000000000815260040161046b90612580565b60405180910390fd5b806060013581608001358181116104c0576040517f08c379a00000000000000000000000000000000000000000000000000000000081526004016104b790612612565b60405180910390fd5b428211610502576040517f08c379a00000000000000000000000000000000000000000000000000000000081526004016104f9906126a4565b60405180910390fd5b61051860045460016112fb90919063ffffffff16565b5061056c600454600560003373ffffffffffffffffffffffffffffffffffffffff1673ffffffffffffffffffffffffffffffffffffffff1681526020019081526020016000206112fb90919063ffffffff16565b506040518060a0016040528060045481526020018461058a90612877565b81526020013373ffffffffffffffffffffffffffffffffffffffff168152602001600160038111156105bf576105be611f49565b5b81526020014281525060036000600454815260200190815260200160002060008201518160000155602082015181600101600082015181600001908051906020019061060c929190611944565b506020820151816001019080519060200190610629929190611944565b5060408201518160020155606082015181600301556080820151816004015560a0820151816005019080519060200190610664929190611944565b50505060408201518160070160006101000a81548173ffffffffffffffffffffffffffffffffffffffff021916908373ffffffffffffffffffffffffffffffffffffffff16021790555060608201518160070160146101000a81548160ff021916908360038111156106d9576106d8611f49565b5b021790555060808201518160080155905050600460008154809291906106fe9061243f565b9190505550505050565b606061071c6107176001611315565b611336565b905090565b60008173ffffffffffffffffffffffffffffffffffffffff166003600085815260200190815260200160002060070160009054906101000a900473ffffffffffffffffffffffffffffffffffffffff1673ffffffffffffffffffffffffffffffffffffffff1614905092915050565b60045481565b60606107a182611336565b9050919050565b816107bd8160016116a290919063ffffffff16565b6107fc576040517f08c379a00000000000000000000000000000000000000000000000000000000081526004016107f3906128d6565b60405180910390fd5b823373ffffffffffffffffffffffffffffffffffffffff166003600083815260200190815260200160002060070160009054906101000a900473ffffffffffffffffffffffffffffffffffffffff1673ffffffffffffffffffffffffffffffffffffffff16146108a1576040517f08c379a000000000000000000000000000000000000000000000000000000000815260040161089890612942565b60405180910390fd5b8360016108ad82611239565b8060038111156108c0576108bf611f49565b5b6003600084815260200190815260200160002060070160149054906101000a900460ff1660038111156108f6576108f5611f49565b5b14610936576040517f08c379a000000000000000000000000000000000000000000000000000000000815260040161092d906129ae565b60405180910390fd5b84606001358560800135818111610982576040517f08c379a000000000000000000000000000000000000000000000000000000000815260040161097990612612565b60405180910390fd5b4282116109c4576040517f08c379a00000000000000000000000000000000000000000000000000000000081526004016109bb906126a4565b60405180910390fd5b86600360008a815260200190815260200160002060010181816109e79190612e8a565b9050505050505050505050565b6060610a45610a40600560008573ffffffffffffffffffffffffffffffffffffffff1673ffffffffffffffffffffffffffffffffffffffff168152602001908152602001600020611315565b611336565b9050919050565b610a546119ca565b60036000610a6c8460016116bc90919063ffffffff16565b81526020019081526020016000206040518060a001604052908160008201548152602001600182016040518060c0016040529081600082018054610aaf90612a7a565b80601f0160208091040260200160405190810160405280929190818152602001828054610adb90612a7a565b8015610b285780601f10610afd57610100808354040283529160200191610b28565b820191906000526020600020905b815481529060010190602001808311610b0b57829003601f168201915b50505050508152602001600182018054610b4190612a7a565b80601f0160208091040260200160405190810160405280929190818152602001828054610b6d90612a7a565b8015610bba5780601f10610b8f57610100808354040283529160200191610bba565b820191906000526020600020905b815481529060010190602001808311610b9d57829003601f168201915b50505050508152602001600282015481526020016003820154815260200160048201548152602001600582018054610bf190612a7a565b80601f0160208091040260200160405190810160405280929190818152602001828054610c1d90612a7a565b8015610c6a5780601f10610c3f57610100808354040283529160200191610c6a565b820191906000526020600020905b815481529060010190602001808311610c4d57829003601f168201915b50505050508152505081526020016007820160009054906101000a900473ffffffffffffffffffffffffffffffffffffffff1673ffffffffffffffffffffffffffffffffffffffff1673ffffffffffffffffffffffffffffffffffffffff1681526020016007820160149054906101000a900460ff166003811115610cf257610cf1611f49565b5b6003811115610d0457610d03611f49565b5b81526020016008820154815250509050919050565b6003602052806000526040600020600091509050806000015490806001016040518060c0016040529081600082018054610d5290612a7a565b80601f0160208091040260200160405190810160405280929190818152602001828054610d7e90612a7a565b8015610dcb5780601f10610da057610100808354040283529160200191610dcb565b820191906000526020600020905b815481529060010190602001808311610dae57829003601f168201915b50505050508152602001600182018054610de490612a7a565b80601f0160208091040260200160405190810160405280929190818152602001828054610e1090612a7a565b8015610e5d5780601f10610e3257610100808354040283529160200191610e5d565b820191906000526020600020905b815481529060010190602001808311610e4057829003601f168201915b50505050508152602001600282015481526020016003820154815260200160048201548152602001600582018054610e9490612a7a565b80601f0160208091040260200160405190810160405280929190818152602001828054610ec090612a7a565b8015610f0d5780601f10610ee257610100808354040283529160200191610f0d565b820191906000526020600020905b815481529060010190602001808311610ef057829003601f168201915b505050505081525050908060070160009054906101000a900473ffffffffffffffffffffffffffffffffffffffff16908060070160149054906101000a900460ff16908060080154905085565b6000610f6660016116d6565b905090565b6000806003600084815260200190815260200160002060000154119050919050565b80610fa28160016116a290919063ffffffff16565b610fe1576040517f08c379a0000000000000000000000000000000000000000000000000000000008152600401610fd8906128d6565b60405180910390fd5b813373ffffffffffffffffffffffffffffffffffffffff166003600083815260200190815260200160002060070160009054906101000a900473ffffffffffffffffffffffffffffffffffffffff1673ffffffffffffffffffffffffffffffffffffffff1614611086576040517f08c379a000000000000000000000000000000000000000000000000000000000815260040161107d90612942565b60405180910390fd5b82600161109282611239565b8060038111156110a5576110a4611f49565b5b6003600084815260200190815260200160002060070160149054906101000a900460ff1660038111156110db576110da611f49565b5b1461111b576040517f08c379a0000000000000000000000000000000000000000000000000000000008152600401611112906129ae565b60405180910390fd5b61112f8560016116eb90919063ffffffff16565b5061118185600560003373ffffffffffffffffffffffffffffffffffffffff1673ffffffffffffffffffffffffffffffffffffffff1681526020019081526020016000206116eb90919063ffffffff16565b506003600086815260200190815260200160002060008082016000905560018201600080820160006111b39190611a27565b6001820160006111c39190611a27565b6002820160009055600382016000905560048201600090556005820160006111eb9190611a27565b50506007820160006101000a81549073ffffffffffffffffffffffffffffffffffffffff02191690556007820160146101000a81549060ff0219169055600882016000905550505050505050565b600360008281526020019081526020016000206001016003015442106112995760026003600083815260200190815260200160002060070160146101000a81548160ff0219169083600381111561129357611292611f49565b5b02179055505b600360008281526020019081526020016000206001016004015442106112f857600380600083815260200190815260200160002060070160146101000a81548160ff021916908360038111156112f2576112f1611f49565b5b02179055505b50565b600061130d836000018360001b611705565b905092915050565b6060600061132583600001611775565b905060608190508092505050919050565b606060008251905060008167ffffffffffffffff81111561135a57611359611ae4565b5b60405190808252806020026020018201604052801561139357816020015b6113806119ca565b8152602001906001900390816113785790505b50905060005b8281101561169757600360008683815181106113b8576113b76123e1565b5b602002602001015181526020019081526020016000206040518060a001604052908160008201548152602001600182016040518060c001604052908160008201805461140390612a7a565b80601f016020809104026020016040519081016040528092919081815260200182805461142f90612a7a565b801561147c5780601f106114515761010080835404028352916020019161147c565b820191906000526020600020905b81548152906001019060200180831161145f57829003601f168201915b5050505050815260200160018201805461149590612a7a565b80601f01602080910402602001604051908101604052809291908181526020018280546114c190612a7a565b801561150e5780601f106114e35761010080835404028352916020019161150e565b820191906000526020600020905b8154815290600101906020018083116114f157829003601f168201915b5050505050815260200160028201548152602001600382015481526020016004820154815260200160058201805461154590612a7a565b80601f016020809104026020016040519081016040528092919081815260200182805461157190612a7a565b80156115be5780601f10611593576101008083540402835291602001916115be565b820191906000526020600020905b8154815290600101906020018083116115a157829003601f168201915b50505050508152505081526020016007820160009054906101000a900473ffffffffffffffffffffffffffffffffffffffff1673ffffffffffffffffffffffffffffffffffffffff1673ffffffffffffffffffffffffffffffffffffffff1681526020016007820160149054906101000a900460ff16600381111561164657611645611f49565b5b600381111561165857611657611f49565b5b8152602001600882015481525050828281518110611679576116786123e1565b5b6020026020010181905250808061168f9061243f565b915050611399565b508092505050919050565b60006116b4836000018360001b6117d1565b905092915050565b60006116cb83600001836117f4565b60001c905092915050565b60006116e48260000161181f565b9050919050565b60006116fd836000018360001b611830565b905092915050565b600061171183836117d1565b61176a57826000018290806001815401808255809150506001900390600052602060002001600090919091909150558260000180549050836001016000848152602001908152602001600020819055506001905061176f565b600090505b92915050565b6060816000018054806020026020016040519081016040528092919081815260200182805480156117c557602002820191906000526020600020905b8154815260200190600101908083116117b1575b50505050509050919050565b600080836001016000848152602001908152602001600020541415905092915050565b600082600001828154811061180c5761180b6123e1565b5b9060005260206000200154905092915050565b600081600001805490509050919050565b600080836001016000848152602001908152602001600020549050600081146119385760006001826118629190612e98565b905060006001866000018054905061187a9190612e98565b90508181146118e957600086600001828154811061189b5761189a6123e1565b5b90600052602060002001549050808760000184815481106118bf576118be6123e1565b5b90600052602060002001819055508387600101600083815260200190815260200160002081905550505b856000018054806118fd576118fc612ecc565b5b60019003818190600052602060002001600090559055856001016000868152602001908152602001600020600090556001935050505061193e565b60009150505b92915050565b82805461195090612a7a565b90600052602060002090601f01602090048101928261197257600085556119b9565b82601f1061198b57805160ff19168380011785556119b9565b828001600101855582156119b9579182015b828111156119b857825182559160200191906001019061199d565b5b5090506119c69190611a67565b5090565b6040518060a00160405280600081526020016119e4611a84565b8152602001600073ffffffffffffffffffffffffffffffffffffffff16815260200160006003811115611a1a57611a19611f49565b5b8152602001600081525090565b508054611a3390612a7a565b6000825580601f10611a455750611a64565b601f016020900490600052602060002090810190611a639190611a67565b5b50565b5b80821115611a80576000816000905550600101611a68565b5090565b6040518060c001604052806060815260200160608152602001600081526020016000815260200160008152602001606081525090565b6000604051905090565b600080fd5b600080fd5b600080fd5b6000601f19601f8301169050919050565b7f4e487b7100000000000000000000000000000000000000000000000000000000600052604160045260246000fd5b611b1c82611ad3565b810181811067ffffffffffffffff82111715611b3b57611b3a611ae4565b5b80604052505050565b6000611b4e611aba565b9050611b5a8282611b13565b919050565b600067ffffffffffffffff821115611b7a57611b79611ae4565b5b602082029050602081019050919050565b600080fd5b6000819050919050565b611ba381611b90565b8114611bae57600080fd5b50565b600081359050611bc081611b9a565b92915050565b6000611bd9611bd484611b5f565b611b44565b90508083825260208201905060208402830185811115611bfc57611bfb611b8b565b5b835b81811015611c255780611c118882611bb1565b845260208401935050602081019050611bfe565b5050509392505050565b600082601f830112611c4457611c43611ace565b5b8135611c54848260208601611bc6565b91505092915050565b600060208284031215611c7357611c72611ac4565b5b600082013567ffffffffffffffff811115611c9157611c90611ac9565b5b611c9d84828501611c2f565b91505092915050565b60048110611cb357600080fd5b50565b600081359050611cc581611ca6565b92915050565b60008060408385031215611ce257611ce1611ac4565b5b6000611cf085828601611bb1565b9250506020611d0185828601611cb6565b9150509250929050565b60008115159050919050565b611d2081611d0b565b82525050565b6000602082019050611d3b6000830184611d17565b92915050565b600080fd5b600060c08284031215611d5c57611d5b611d41565b5b81905092915050565b600060208284031215611d7b57611d7a611ac4565b5b600082013567ffffffffffffffff811115611d9957611d98611ac9565b5b611da584828501611d46565b91505092915050565b600081519050919050565b600082825260208201905092915050565b6000819050602082019050919050565b611de381611b90565b82525050565b600081519050919050565b600082825260208201905092915050565b60005b83811015611e23578082015181840152602081019050611e08565b83811115611e32576000848401525b50505050565b6000611e4382611de9565b611e4d8185611df4565b9350611e5d818560208601611e05565b611e6681611ad3565b840191505092915050565b600060c0830160008301518482036000860152611e8e8282611e38565b91505060208301518482036020860152611ea88282611e38565b9150506040830151611ebd6040860182611dda565b506060830151611ed06060860182611dda565b506080830151611ee36080860182611dda565b5060a083015184820360a0860152611efb8282611e38565b9150508091505092915050565b600073ffffffffffffffffffffffffffffffffffffffff82169050919050565b6000611f3382611f08565b9050919050565b611f4381611f28565b82525050565b7f4e487b7100000000000000000000000000000000000000000000000000000000600052602160045260246000fd5b60048110611f8957611f88611f49565b5b50565b6000819050611f9a82611f78565b919050565b6000611faa82611f8c565b9050919050565b611fba81611f9f565b82525050565b600060a083016000830151611fd86000860182611dda565b5060208301518482036020860152611ff08282611e71565b91505060408301516120056040860182611f3a565b5060608301516120186060860182611fb1565b50608083015161202b6080860182611dda565b508091505092915050565b60006120428383611fc0565b905092915050565b6000602082019050919050565b600061206282611dae565b61206c8185611db9565b93508360208202850161207e85611dca565b8060005b858110156120ba578484038952815161209b8582612036565b94506120a68361204a565b925060208a01995050600181019050612082565b50829750879550505050505092915050565b600060208201905081810360008301526120e68184612057565b905092915050565b6120f781611f28565b811461210257600080fd5b50565b600081359050612114816120ee565b92915050565b6000806040838503121561213157612130611ac4565b5b600061213f85828601611bb1565b925050602061215085828601612105565b9150509250929050565b61216381611b90565b82525050565b600060208201905061217e600083018461215a565b92915050565b6000806040838503121561219b5761219a611ac4565b5b60006121a985828601611bb1565b925050602083013567ffffffffffffffff8111156121ca576121c9611ac9565b5b6121d685828601611d46565b9150509250929050565b6000602082840312156121f6576121f5611ac4565b5b600061220484828501612105565b91505092915050565b60006020828403121561222357612222611ac4565b5b600061223184828501611bb1565b91505092915050565b600060a0830160008301516122526000860182611dda565b506020830151848203602086015261226a8282611e71565b915050604083015161227f6040860182611f3a565b5060608301516122926060860182611fb1565b5060808301516122a56080860182611dda565b508091505092915050565b600060208201905081810360008301526122ca818461223a565b905092915050565b600060c08301600083015184820360008601526122ef8282611e38565b915050602083015184820360208601526123098282611e38565b915050604083015161231e6040860182611dda565b5060608301516123316060860182611dda565b5060808301516123446080860182611dda565b5060a083015184820360a086015261235c8282611e38565b9150508091505092915050565b61237281611f28565b82525050565b61238181611f9f565b82525050565b600060a08201905061239c600083018861215a565b81810360208301526123ae81876122d2565b90506123bd6040830186612369565b6123ca6060830185612378565b6123d7608083018461215a565b9695505050505050565b7f4e487b7100000000000000000000000000000000000000000000000000000000600052603260045260246000fd5b7f4e487b7100000000000000000000000000000000000000000000000000000000600052601160045260246000fd5b600061244a82611b90565b91507fffffffffffffffffffffffffffffffffffffffffffffffffffffffffffffffff82141561247d5761247c612410565b5b600182019050919050565b6000819050919050565b61249b81612488565b82525050565b60006040820190506124b66000830185612492565b6124c36020830184612369565b9392505050565b6124d381611d0b565b81146124de57600080fd5b50565b6000815190506124f0816124ca565b92915050565b60006020828403121561250c5761250b611ac4565b5b600061251a848285016124e1565b91505092915050565b600082825260208201905092915050565b7f6f6e6c7920636f6e746573742061646d696e0000000000000000000000000000600082015250565b600061256a601283612523565b915061257582612534565b602082019050919050565b600060208201905081810360008301526125998161255d565b9050919050565b7f63616e206f6e6c792061646420636f6e7465737420696620656e64206166746560008201527f7220737461727400000000000000000000000000000000000000000000000000602082015250565b60006125fc602783612523565b9150612607826125a0565b604082019050919050565b6000602082019050818103600083015261262b816125ef565b9050919050565b7f63616e206f6e6c792061646420636f6e7465737420617420612066757475726560008201527f2064617465000000000000000000000000000000000000000000000000000000602082015250565b600061268e602583612523565b915061269982612632565b604082019050919050565b600060208201905081810360008301526126bd81612681565b9050919050565b600080fd5b600080fd5b600080fd5b600067ffffffffffffffff8211156126ee576126ed611ae4565b5b6126f782611ad3565b9050602081019050919050565b82818337600083830152505050565b6000612726612721846126d3565b611b44565b905082815260208101848484011115612742576127416126ce565b5b61274d848285612704565b509392505050565b600082601f83011261276a57612769611ace565b5b813561277a848260208601612713565b91505092915050565b600060c08284031215612799576127986126c4565b5b6127a360c0611b44565b9050600082013567ffffffffffffffff8111156127c3576127c26126c9565b5b6127cf84828501612755565b600083015250602082013567ffffffffffffffff8111156127f3576127f26126c9565b5b6127ff84828501612755565b602083015250604061281384828501611bb1565b604083015250606061282784828501611bb1565b606083015250608061283b84828501611bb1565b60808301525060a082013567ffffffffffffffff81111561285f5761285e6126c9565b5b61286b84828501612755565b60a08301525092915050565b60006128833683612783565b9050919050565b7f636f6e7465737420646f6573206e6f7420657869737400000000000000000000600082015250565b60006128c0601683612523565b91506128cb8261288a565b602082019050919050565b600060208201905081810360008301526128ef816128b3565b9050919050565b7f6f6e6c7920636f6e74657374206f776e65720000000000000000000000000000600082015250565b600061292c601283612523565b9150612937826128f6565b602082019050919050565b6000602082019050818103600083015261295b8161291f565b9050919050565b7f77726f6e6720636f6e7465737420737461746500000000000000000000000000600082015250565b6000612998601383612523565b91506129a382612962565b602082019050919050565b600060208201905081810360008301526129c78161298b565b9050919050565b600080fd5b600080fd5b600080fd5b600080833560016020038436030381126129fa576129f96129ce565b5b80840192508235915067ffffffffffffffff821115612a1c57612a1b6129d3565b5b602083019250600182023603831315612a3857612a376129d8565b5b509250929050565b600082905092915050565b7f4e487b7100000000000000000000000000000000000000000000000000000000600052602260045260246000fd5b60006002820490506001821680612a9257607f821691505b60208210811415612aa657612aa5612a4b565b5b50919050565b60008190508160005260206000209050919050565b60006020601f8301049050919050565b600082821b905092915050565b600060088302612b0e7fffffffffffffffffffffffffffffffffffffffffffffffffffffffffffffffff82612ad1565b612b188683612ad1565b95508019841693508086168417925050509392505050565b6000819050919050565b6000612b55612b50612b4b84611b90565b612b30565b611b90565b9050919050565b6000819050919050565b612b6f83612b3a565b612b83612b7b82612b5c565b848454612ade565b825550505050565b600090565b612b98612b8b565b612ba3818484612b66565b505050565b5b81811015612bc757612bbc600082612b90565b600181019050612ba9565b5050565b601f821115612c0c57612bdd81612aac565b612be684612ac1565b81016020851015612bf5578190505b612c09612c0185612ac1565b830182612ba8565b50505b505050565b600082821c905092915050565b6000612c2f60001984600802612c11565b1980831691505092915050565b6000612c488383612c1e565b9150826002028217905092915050565b612c628383612a40565b67ffffffffffffffff811115612c7b57612c7a611ae4565b5b612c858254612a7a565b612c90828285612bcb565b6000601f831160018114612cbf5760008415612cad578287013590505b612cb78582612c3c565b865550612d1f565b601f198416612ccd86612aac565b60005b82811015612cf557848901358255600182019150602085019450602081019050612cd0565b86831015612d125784890135612d0e601f891682612c1e565b8355505b6001600288020188555050505b50505050505050565b612d33838383612c58565b505050565b60008135612d4581611b9a565b80915050919050565b60008160001b9050919050565b60007fffffffffffffffffffffffffffffffffffffffffffffffffffffffffffffffff612d8784612d4e565b9350801983169250808416831791505092915050565b612da682612b3a565b612db9612db282612b5c565b8354612d5b565b8255505050565b6000810160008301612dd281856129dd565b612ddd818386612d28565b505050506001810160208301612df381856129dd565b612dfe818386612d28565b50505050600281016040830180612e1481612d38565b9050612e208184612d9d565b505050600381016060830180612e3581612d38565b9050612e418184612d9d565b505050600481016080830180612e5681612d38565b9050612e628184612d9d565b5050506005810160a08301612e7781856129dd565b612e82818386612d28565b505050505050565b612e948282612dc0565b5050565b6000612ea382611b90565b9150612eae83611b90565b925082821015612ec157612ec0612410565b5b828203905092915050565b7f4e487b7100000000000000000000000000000000000000000000000000000000600052603160045260246000fdfea2646970667358221220576d517bfaa16a6a07c77d4993af07ad39332739513fcf12a8d105e7fcfb35fd64736f6c634300080a0033",
  "immutableReferences": {},
  "source": "// SPDX-License-Identifier: MIT\npragma solidity ^0.8.10;\npragma experimental ABIEncoderV2;\n\nimport \"@openzeppelin/contracts/access/IAccessControl.sol\";\nimport \"@openzeppelin/contracts/utils/structs/EnumerableSet.sol\";\nimport \"./IContests.sol\";\n\ncontract Contests is IContests {\n\n    using EnumerableSet for EnumerableSet.UintSet;\n\n    IAccessControl AccessControl;\n\n    constructor(address _AccessControl) {\n        AccessControl = IAccessControl(_AccessControl);\n    }\n\n    EnumerableSet.UintSet ids;\n    //ContestId => contest\n    mapping(uint => Contest) public contests;\n    uint public nextId = 1;\n\n    // index\n    // contests managed by someone\n    mapping(address => EnumerableSet.UintSet) addressToContests;\n\n    function _gets(uint [] memory _ids) internal view returns (Contest [] memory) {\n        uint number = _ids.length;\n        Contest [] memory result = new Contest [] (number);\n        for(uint i = 0; i < number; i++) {\n            result[i] = contests[_ids[i]];\n        }\n        return result;\n    }\n\n    function _updateState(uint id) internal {\n        if(block.timestamp >= contests[id].info.start) contests[id].state = IContests.ContestState.STARTED;\n        if(block.timestamp >= contests[id].info.end) contests[id].state = IContests.ContestState.ENDED;\n    }\n\n    function add(IContest calldata contest) external\n    onlyContestAdmin()\n    timeQualified(contest.start, contest.end) {\n        ids.add(nextId);\n        addressToContests[msg.sender].add(nextId);\n        contests[nextId] = Contest(nextId, contest, msg.sender, ContestState.CREATED, block.timestamp);\n        nextId++;\n    }\n\n    function update(uint id, IContest calldata contest) external\n    onlyContestExist(id)\n    onlyContestOwner(id)\n    onlyContestInState(id, IContests.ContestState.CREATED)\n    timeQualified(contest.start, contest.end) {\n        contests[id].info = contest;\n    }\n\n    function _remove(uint id) internal\n    onlyContestExist(id)\n    onlyContestOwner(id)\n    onlyContestInState(id, IContests.ContestState.CREATED) {\n        ids.remove(id);\n        addressToContests[msg.sender].remove(id);\n        delete contests[id];\n    }\n    function removes(uint [] memory _ids) external {\n        for(uint i = 0; i < _ids.length; i++) {\n            _remove(_ids[i]);\n        }\n    }\n\n    function contestInState(uint id, IContests.ContestState state) external returns(bool) {\n        _updateState(id);\n        return contests[id].state == state;\n    }\n\n    function isOwner(uint contestId, address account) external view returns(bool) {\n        return contests[contestId].owner == account;\n    }\n\n    function Exist(uint contestId) external view returns(bool) {\n        return contests[contestId].id > 0;\n    }\n\n    function getSome(uint [] memory _ids) external view returns (Contest [] memory) {\n        return _gets(_ids);\n    }\n\n    function getAll() external view returns (Contest [] memory) {\n        return _gets(ids.values());\n    }\n\n    function gets(address account) external view returns (Contest [] memory){\n        return _gets(addressToContests[account].values());\n    }\n\n    function getCount() external view returns (uint) {\n        return ids.length();\n    }\n\n    function get(uint index) external view returns (Contest memory) {\n        return contests[ids.at(index)];\n    }\n\n    modifier onlyContestExist(uint id){\n        require(ids.contains(id), \"contest does not exist\");\n        _;\n    }\n\n    modifier onlyContestAdmin() {\n        require(AccessControl.hasRole(keccak256(\"CONTEST_ADMIN\"), msg.sender), \"only contest admin\");\n        _;\n    }\n\n    modifier onlyContestOwner(uint id){\n        require(contests[id].owner == msg.sender, \"only contest owner\");\n        _;\n    }\n\n    modifier onlyContestInState(uint id, IContests.ContestState state){\n        _updateState(id);\n        require(contests[id].state == state, \"wrong contest state\");\n        _;\n    }\n\n    modifier timeQualified(uint start, uint end){\n        require(end > start, \"can only add contest if end after start\");\n        require(start > block.timestamp, \"can only add contest at a future date\");\n        _;\n    }\n}",
  "sourcePath": "/Users/yhy/Code/GitHub/DCTF/contracts/Contests.sol",
  "compiler": {
    "name": "solc",
    "version": "0.8.10+commit.fc410830.Emscripten.clang"
  },
  "schemaVersion": "3.4.4",
  "updatedAt": "2022-02-20T03:24:58.255Z",
  "networkType": "ethereum",
  "devdoc": {
    "kind": "dev",
    "methods": {},
    "version": 1
  },
  "userdoc": {
    "kind": "user",
    "methods": {},
    "version": 1
  }
}