{
  "contractName": "Contests",
  "abi": [
    {
      "inputs": [
        {
          "internalType": "address",
          "name": "_AccessControl",
          "type": "address"
        }
      ],
      "stateMutability": "nonpayable",
      "type": "constructor"
    },
    {
      "inputs": [],
      "name": "nextId",
      "outputs": [
        {
          "internalType": "uint256",
          "name": "",
          "type": "uint256"
        }
      ],
      "stateMutability": "view",
      "type": "function",
      "constant": true
    },
    {
      "inputs": [
        {
          "components": [
            {
              "internalType": "string",
              "name": "contestType",
              "type": "string"
            },
            {
              "internalType": "string",
              "name": "name",
              "type": "string"
            },
            {
              "internalType": "uint256",
              "name": "fee",
              "type": "uint256"
            },
            {
              "internalType": "uint256",
              "name": "start",
              "type": "uint256"
            },
            {
              "internalType": "uint256",
              "name": "end",
              "type": "uint256"
            },
            {
              "internalType": "string",
              "name": "message",
              "type": "string"
            }
          ],
          "internalType": "struct IContests.IContest",
          "name": "contest",
          "type": "tuple"
        }
      ],
      "name": "add",
      "outputs": [],
      "stateMutability": "nonpayable",
      "type": "function"
    },
    {
      "inputs": [
        {
          "internalType": "uint256",
          "name": "id",
          "type": "uint256"
        },
        {
          "components": [
            {
              "internalType": "string",
              "name": "contestType",
              "type": "string"
            },
            {
              "internalType": "string",
              "name": "name",
              "type": "string"
            },
            {
              "internalType": "uint256",
              "name": "fee",
              "type": "uint256"
            },
            {
              "internalType": "uint256",
              "name": "start",
              "type": "uint256"
            },
            {
              "internalType": "uint256",
              "name": "end",
              "type": "uint256"
            },
            {
              "internalType": "string",
              "name": "message",
              "type": "string"
            }
          ],
          "internalType": "struct IContests.IContest",
          "name": "contest",
          "type": "tuple"
        }
      ],
      "name": "update",
      "outputs": [],
      "stateMutability": "nonpayable",
      "type": "function"
    },
    {
      "inputs": [
        {
          "internalType": "uint256[]",
          "name": "_ids",
          "type": "uint256[]"
        }
      ],
      "name": "removes",
      "outputs": [],
      "stateMutability": "nonpayable",
      "type": "function"
    },
    {
      "inputs": [
        {
          "internalType": "uint256",
          "name": "id",
          "type": "uint256"
        },
        {
          "internalType": "enum IContests.ContestState",
          "name": "state",
          "type": "uint8"
        }
      ],
      "name": "contestInState",
      "outputs": [
        {
          "internalType": "bool",
          "name": "",
          "type": "bool"
        }
      ],
      "stateMutability": "nonpayable",
      "type": "function"
    },
    {
      "inputs": [
        {
          "internalType": "uint256",
          "name": "id",
          "type": "uint256"
        }
      ],
      "name": "getContest",
      "outputs": [
        {
          "components": [
            {
              "internalType": "uint256",
              "name": "id",
              "type": "uint256"
            },
            {
              "components": [
                {
                  "internalType": "string",
                  "name": "contestType",
                  "type": "string"
                },
                {
                  "internalType": "string",
                  "name": "name",
                  "type": "string"
                },
                {
                  "internalType": "uint256",
                  "name": "fee",
                  "type": "uint256"
                },
                {
                  "internalType": "uint256",
                  "name": "start",
                  "type": "uint256"
                },
                {
                  "internalType": "uint256",
                  "name": "end",
                  "type": "uint256"
                },
                {
                  "internalType": "string",
                  "name": "message",
                  "type": "string"
                }
              ],
              "internalType": "struct IContests.IContest",
              "name": "info",
              "type": "tuple"
            },
            {
              "internalType": "address",
              "name": "owner",
              "type": "address"
            },
            {
              "internalType": "enum IContests.ContestState",
              "name": "state",
              "type": "uint8"
            },
            {
              "internalType": "uint256",
              "name": "timeStamp",
              "type": "uint256"
            }
          ],
          "internalType": "struct IContests.Contest",
          "name": "",
          "type": "tuple"
        }
      ],
      "stateMutability": "view",
      "type": "function",
      "constant": true
    },
    {
      "inputs": [],
      "name": "getMyContestIds",
      "outputs": [
        {
          "internalType": "uint256[]",
          "name": "",
          "type": "uint256[]"
        }
      ],
      "stateMutability": "view",
      "type": "function",
      "constant": true
    },
    {
      "inputs": [],
      "name": "getCount",
      "outputs": [
        {
          "internalType": "uint256",
          "name": "",
          "type": "uint256"
        }
      ],
      "stateMutability": "view",
      "type": "function",
      "constant": true
    },
    {
      "inputs": [
        {
          "internalType": "uint256",
          "name": "index",
          "type": "uint256"
        }
      ],
      "name": "get",
      "outputs": [
        {
          "components": [
            {
              "internalType": "uint256",
              "name": "id",
              "type": "uint256"
            },
            {
              "components": [
                {
                  "internalType": "string",
                  "name": "contestType",
                  "type": "string"
                },
                {
                  "internalType": "string",
                  "name": "name",
                  "type": "string"
                },
                {
                  "internalType": "uint256",
                  "name": "fee",
                  "type": "uint256"
                },
                {
                  "internalType": "uint256",
                  "name": "start",
                  "type": "uint256"
                },
                {
                  "internalType": "uint256",
                  "name": "end",
                  "type": "uint256"
                },
                {
                  "internalType": "string",
                  "name": "message",
                  "type": "string"
                }
              ],
              "internalType": "struct IContests.IContest",
              "name": "info",
              "type": "tuple"
            },
            {
              "internalType": "address",
              "name": "owner",
              "type": "address"
            },
            {
              "internalType": "enum IContests.ContestState",
              "name": "state",
              "type": "uint8"
            },
            {
              "internalType": "uint256",
              "name": "timeStamp",
              "type": "uint256"
            }
          ],
          "internalType": "struct IContests.Contest",
          "name": "",
          "type": "tuple"
        }
      ],
      "stateMutability": "view",
      "type": "function",
      "constant": true
    }
  ],
  "bytecode": "0x608060405260016004553480156200001657600080fd5b50604051620029853803806200298583398181016040528101906200003c9190620000ed565b806000806101000a81548173ffffffffffffffffffffffffffffffffffffffff021916908373ffffffffffffffffffffffffffffffffffffffff160217905550506200011f565b600080fd5b600073ffffffffffffffffffffffffffffffffffffffff82169050919050565b6000620000b58262000088565b9050919050565b620000c781620000a8565b8114620000d357600080fd5b50565b600081519050620000e781620000bc565b92915050565b60006020828403121562000106576200010562000083565b5b60006200011684828501620000d6565b91505092915050565b612856806200012f6000396000f3fe608060405234801561001057600080fd5b50600436106100935760003560e01c80638475798c116100665780638475798c1461011e578063904b9f721461013a5780639507d39a1461016a578063a3cb72421461019a578063a87d942c146101b857610093565b80633ba91ead14610098578063434e540b146100b457806348547814146100e457806361b8ce8c14610100575b600080fd5b6100b260048036038101906100ad91906117a4565b6101d6565b005b6100ce60048036038101906100c99190611812565b61021c565b6040516100db919061186d565b60405180910390f35b6100fe60048036038101906100f991906118ac565b610279565b005b610108610608565b6040516101159190611904565b60405180910390f35b6101386004803603810190610133919061191f565b61060e565b005b610154600480360381019061014f919061197b565b61085a565b6040516101619190611c04565b60405180910390f35b610184600480360381019061017f919061197b565b610b14565b6040516101919190611c04565b60405180910390f35b6101a2610de1565b6040516101af9190611cd5565b60405180910390f35b6101c0610e2f565b6040516101cd9190611904565b60405180910390f35b60005b8151811015610218576102058282815181106101f8576101f7611cf7565b5b6020026020010151610e40565b808061021090611d55565b9150506101d9565b5050565b6000610227836110ec565b81600381111561023a57610239611b17565b5b6003600085815260200190815260200160002060070160149054906101000a900460ff1660038111156102705761026f611b17565b5b14905092915050565b60008054906101000a900473ffffffffffffffffffffffffffffffffffffffff1673ffffffffffffffffffffffffffffffffffffffff166391d148547f2ac4b647885dc0812ed26210d6a36d5f1c8de284183a5e4c171119cd3b54458a336040518363ffffffff1660e01b81526004016102f4929190611dc6565b602060405180830381865afa158015610311573d6000803e3d6000fd5b505050506040513d601f19601f820116820180604052508101906103359190611e1b565b610374576040517f08c379a000000000000000000000000000000000000000000000000000000000815260040161036b90611ea5565b60405180910390fd5b806060013581608001358181116103c0576040517f08c379a00000000000000000000000000000000000000000000000000000000081526004016103b790611f37565b60405180910390fd5b428211610402576040517f08c379a00000000000000000000000000000000000000000000000000000000081526004016103f990611fc9565b60405180910390fd5b61041860045460016111ae90919063ffffffff16565b5061046c600454600560003373ffffffffffffffffffffffffffffffffffffffff1673ffffffffffffffffffffffffffffffffffffffff1681526020019081526020016000206111ae90919063ffffffff16565b506040518060a0016040528060045481526020018461048a9061219c565b81526020013373ffffffffffffffffffffffffffffffffffffffff168152602001600160038111156104bf576104be611b17565b5b81526020014281525060036000600454815260200190815260200160002060008201518160000155602082015181600101600082015181600001908051906020019061050c92919061148b565b50602082015181600101908051906020019061052992919061148b565b5060408201518160020155606082015181600301556080820151816004015560a082015181600501908051906020019061056492919061148b565b50505060408201518160070160006101000a81548173ffffffffffffffffffffffffffffffffffffffff021916908373ffffffffffffffffffffffffffffffffffffffff16021790555060608201518160070160146101000a81548160ff021916908360038111156105d9576105d8611b17565b5b021790555060808201518160080155905050600460008154809291906105fe90611d55565b9190505550505050565b60045481565b816106238160016111c890919063ffffffff16565b610662576040517f08c379a0000000000000000000000000000000000000000000000000000000008152600401610659906121fb565b60405180910390fd5b823373ffffffffffffffffffffffffffffffffffffffff166003600083815260200190815260200160002060070160009054906101000a900473ffffffffffffffffffffffffffffffffffffffff1673ffffffffffffffffffffffffffffffffffffffff1614610707576040517f08c379a00000000000000000000000000000000000000000000000000000000081526004016106fe90612267565b60405180910390fd5b836001610713826110ec565b80600381111561072657610725611b17565b5b6003600084815260200190815260200160002060070160149054906101000a900460ff16600381111561075c5761075b611b17565b5b1461079c576040517f08c379a0000000000000000000000000000000000000000000000000000000008152600401610793906122d3565b60405180910390fd5b846060013585608001358181116107e8576040517f08c379a00000000000000000000000000000000000000000000000000000000081526004016107df90611f37565b60405180910390fd5b42821161082a576040517f08c379a000000000000000000000000000000000000000000000000000000000815260040161082190611fc9565b60405180910390fd5b86600360008a8152602001908152602001600020600101818161084d91906127af565b9050505050505050505050565b610862611511565b600360008381526020019081526020016000206040518060a001604052908160008201548152602001600182016040518060c00160405290816000820180546108aa9061239f565b80601f01602080910402602001604051908101604052809291908181526020018280546108d69061239f565b80156109235780601f106108f857610100808354040283529160200191610923565b820191906000526020600020905b81548152906001019060200180831161090657829003601f168201915b5050505050815260200160018201805461093c9061239f565b80601f01602080910402602001604051908101604052809291908181526020018280546109689061239f565b80156109b55780601f1061098a576101008083540402835291602001916109b5565b820191906000526020600020905b81548152906001019060200180831161099857829003601f168201915b505050505081526020016002820154815260200160038201548152602001600482015481526020016005820180546109ec9061239f565b80601f0160208091040260200160405190810160405280929190818152602001828054610a189061239f565b8015610a655780601f10610a3a57610100808354040283529160200191610a65565b820191906000526020600020905b815481529060010190602001808311610a4857829003601f168201915b50505050508152505081526020016007820160009054906101000a900473ffffffffffffffffffffffffffffffffffffffff1673ffffffffffffffffffffffffffffffffffffffff1673ffffffffffffffffffffffffffffffffffffffff1681526020016007820160149054906101000a900460ff166003811115610aed57610aec611b17565b5b6003811115610aff57610afe611b17565b5b81526020016008820154815250509050919050565b610b1c611511565b60036000610b348460016111e290919063ffffffff16565b81526020019081526020016000206040518060a001604052908160008201548152602001600182016040518060c0016040529081600082018054610b779061239f565b80601f0160208091040260200160405190810160405280929190818152602001828054610ba39061239f565b8015610bf05780601f10610bc557610100808354040283529160200191610bf0565b820191906000526020600020905b815481529060010190602001808311610bd357829003601f168201915b50505050508152602001600182018054610c099061239f565b80601f0160208091040260200160405190810160405280929190818152602001828054610c359061239f565b8015610c825780601f10610c5757610100808354040283529160200191610c82565b820191906000526020600020905b815481529060010190602001808311610c6557829003601f168201915b50505050508152602001600282015481526020016003820154815260200160048201548152602001600582018054610cb99061239f565b80601f0160208091040260200160405190810160405280929190818152602001828054610ce59061239f565b8015610d325780601f10610d0757610100808354040283529160200191610d32565b820191906000526020600020905b815481529060010190602001808311610d1557829003601f168201915b50505050508152505081526020016007820160009054906101000a900473ffffffffffffffffffffffffffffffffffffffff1673ffffffffffffffffffffffffffffffffffffffff1673ffffffffffffffffffffffffffffffffffffffff1681526020016007820160149054906101000a900460ff166003811115610dba57610db9611b17565b5b6003811115610dcc57610dcb611b17565b5b81526020016008820154815250509050919050565b6060610e2a600560003373ffffffffffffffffffffffffffffffffffffffff1673ffffffffffffffffffffffffffffffffffffffff1681526020019081526020016000206111fc565b905090565b6000610e3b600161121d565b905090565b80610e558160016111c890919063ffffffff16565b610e94576040517f08c379a0000000000000000000000000000000000000000000000000000000008152600401610e8b906121fb565b60405180910390fd5b813373ffffffffffffffffffffffffffffffffffffffff166003600083815260200190815260200160002060070160009054906101000a900473ffffffffffffffffffffffffffffffffffffffff1673ffffffffffffffffffffffffffffffffffffffff1614610f39576040517f08c379a0000000000000000000000000000000000000000000000000000000008152600401610f3090612267565b60405180910390fd5b826001610f45826110ec565b806003811115610f5857610f57611b17565b5b6003600084815260200190815260200160002060070160149054906101000a900460ff166003811115610f8e57610f8d611b17565b5b14610fce576040517f08c379a0000000000000000000000000000000000000000000000000000000008152600401610fc5906122d3565b60405180910390fd5b610fe285600161123290919063ffffffff16565b5061103485600560003373ffffffffffffffffffffffffffffffffffffffff1673ffffffffffffffffffffffffffffffffffffffff16815260200190815260200160002061123290919063ffffffff16565b50600360008681526020019081526020016000206000808201600090556001820160008082016000611066919061156e565b600182016000611076919061156e565b60028201600090556003820160009055600482016000905560058201600061109e919061156e565b50506007820160006101000a81549073ffffffffffffffffffffffffffffffffffffffff02191690556007820160146101000a81549060ff0219169055600882016000905550505050505050565b6003600082815260200190815260200160002060010160030154421061114c5760026003600083815260200190815260200160002060070160146101000a81548160ff0219169083600381111561114657611145611b17565b5b02179055505b600360008281526020019081526020016000206001016004015442106111ab57600380600083815260200190815260200160002060070160146101000a81548160ff021916908360038111156111a5576111a4611b17565b5b02179055505b50565b60006111c0836000018360001b61124c565b905092915050565b60006111da836000018360001b6112bc565b905092915050565b60006111f183600001836112df565b60001c905092915050565b6060600061120c8360000161130a565b905060608190508092505050919050565b600061122b82600001611366565b9050919050565b6000611244836000018360001b611377565b905092915050565b600061125883836112bc565b6112b15782600001829080600181540180825580915050600190039060005260206000200160009091909190915055826000018054905083600101600084815260200190815260200160002081905550600190506112b6565b600090505b92915050565b600080836001016000848152602001908152602001600020541415905092915050565b60008260000182815481106112f7576112f6611cf7565b5b9060005260206000200154905092915050565b60608160000180548060200260200160405190810160405280929190818152602001828054801561135a57602002820191906000526020600020905b815481526020019060010190808311611346575b50505050509050919050565b600081600001805490509050919050565b6000808360010160008481526020019081526020016000205490506000811461147f5760006001826113a991906127bd565b90506000600186600001805490506113c191906127bd565b90508181146114305760008660000182815481106113e2576113e1611cf7565b5b906000526020600020015490508087600001848154811061140657611405611cf7565b5b90600052602060002001819055508387600101600083815260200190815260200160002081905550505b85600001805480611444576114436127f1565b5b600190038181906000526020600020016000905590558560010160008681526020019081526020016000206000905560019350505050611485565b60009150505b92915050565b8280546114979061239f565b90600052602060002090601f0160209004810192826114b95760008555611500565b82601f106114d257805160ff1916838001178555611500565b82800160010185558215611500579182015b828111156114ff5782518255916020019190600101906114e4565b5b50905061150d91906115ae565b5090565b6040518060a001604052806000815260200161152b6115cb565b8152602001600073ffffffffffffffffffffffffffffffffffffffff1681526020016000600381111561156157611560611b17565b5b8152602001600081525090565b50805461157a9061239f565b6000825580601f1061158c57506115ab565b601f0160209004906000526020600020908101906115aa91906115ae565b5b50565b5b808211156115c75760008160009055506001016115af565b5090565b6040518060c001604052806060815260200160608152602001600081526020016000815260200160008152602001606081525090565b6000604051905090565b600080fd5b600080fd5b600080fd5b6000601f19601f8301169050919050565b7f4e487b7100000000000000000000000000000000000000000000000000000000600052604160045260246000fd5b6116638261161a565b810181811067ffffffffffffffff821117156116825761168161162b565b5b80604052505050565b6000611695611601565b90506116a1828261165a565b919050565b600067ffffffffffffffff8211156116c1576116c061162b565b5b602082029050602081019050919050565b600080fd5b6000819050919050565b6116ea816116d7565b81146116f557600080fd5b50565b600081359050611707816116e1565b92915050565b600061172061171b846116a6565b61168b565b90508083825260208201905060208402830185811115611743576117426116d2565b5b835b8181101561176c578061175888826116f8565b845260208401935050602081019050611745565b5050509392505050565b600082601f83011261178b5761178a611615565b5b813561179b84826020860161170d565b91505092915050565b6000602082840312156117ba576117b961160b565b5b600082013567ffffffffffffffff8111156117d8576117d7611610565b5b6117e484828501611776565b91505092915050565b600481106117fa57600080fd5b50565b60008135905061180c816117ed565b92915050565b600080604083850312156118295761182861160b565b5b6000611837858286016116f8565b9250506020611848858286016117fd565b9150509250929050565b60008115159050919050565b61186781611852565b82525050565b6000602082019050611882600083018461185e565b92915050565b600080fd5b600060c082840312156118a3576118a2611888565b5b81905092915050565b6000602082840312156118c2576118c161160b565b5b600082013567ffffffffffffffff8111156118e0576118df611610565b5b6118ec8482850161188d565b91505092915050565b6118fe816116d7565b82525050565b600060208201905061191960008301846118f5565b92915050565b600080604083850312156119365761193561160b565b5b6000611944858286016116f8565b925050602083013567ffffffffffffffff81111561196557611964611610565b5b6119718582860161188d565b9150509250929050565b6000602082840312156119915761199061160b565b5b600061199f848285016116f8565b91505092915050565b6119b1816116d7565b82525050565b600081519050919050565b600082825260208201905092915050565b60005b838110156119f15780820151818401526020810190506119d6565b83811115611a00576000848401525b50505050565b6000611a11826119b7565b611a1b81856119c2565b9350611a2b8185602086016119d3565b611a348161161a565b840191505092915050565b600060c0830160008301518482036000860152611a5c8282611a06565b91505060208301518482036020860152611a768282611a06565b9150506040830151611a8b60408601826119a8565b506060830151611a9e60608601826119a8565b506080830151611ab160808601826119a8565b5060a083015184820360a0860152611ac98282611a06565b9150508091505092915050565b600073ffffffffffffffffffffffffffffffffffffffff82169050919050565b6000611b0182611ad6565b9050919050565b611b1181611af6565b82525050565b7f4e487b7100000000000000000000000000000000000000000000000000000000600052602160045260246000fd5b60048110611b5757611b56611b17565b5b50565b6000819050611b6882611b46565b919050565b6000611b7882611b5a565b9050919050565b611b8881611b6d565b82525050565b600060a083016000830151611ba660008601826119a8565b5060208301518482036020860152611bbe8282611a3f565b9150506040830151611bd36040860182611b08565b506060830151611be66060860182611b7f565b506080830151611bf960808601826119a8565b508091505092915050565b60006020820190508181036000830152611c1e8184611b8e565b905092915050565b600081519050919050565b600082825260208201905092915050565b6000819050602082019050919050565b6000611c5e83836119a8565b60208301905092915050565b6000602082019050919050565b6000611c8282611c26565b611c8c8185611c31565b9350611c9783611c42565b8060005b83811015611cc8578151611caf8882611c52565b9750611cba83611c6a565b925050600181019050611c9b565b5085935050505092915050565b60006020820190508181036000830152611cef8184611c77565b905092915050565b7f4e487b7100000000000000000000000000000000000000000000000000000000600052603260045260246000fd5b7f4e487b7100000000000000000000000000000000000000000000000000000000600052601160045260246000fd5b6000611d60826116d7565b91507fffffffffffffffffffffffffffffffffffffffffffffffffffffffffffffffff821415611d9357611d92611d26565b5b600182019050919050565b6000819050919050565b611db181611d9e565b82525050565b611dc081611af6565b82525050565b6000604082019050611ddb6000830185611da8565b611de86020830184611db7565b9392505050565b611df881611852565b8114611e0357600080fd5b50565b600081519050611e1581611def565b92915050565b600060208284031215611e3157611e3061160b565b5b6000611e3f84828501611e06565b91505092915050565b600082825260208201905092915050565b7f6f6e6c7920636f6e746573742061646d696e0000000000000000000000000000600082015250565b6000611e8f601283611e48565b9150611e9a82611e59565b602082019050919050565b60006020820190508181036000830152611ebe81611e82565b9050919050565b7f63616e206f6e6c792061646420636f6e7465737420696620656e64206166746560008201527f7220737461727400000000000000000000000000000000000000000000000000602082015250565b6000611f21602783611e48565b9150611f2c82611ec5565b604082019050919050565b60006020820190508181036000830152611f5081611f14565b9050919050565b7f63616e206f6e6c792061646420636f6e7465737420617420612066757475726560008201527f2064617465000000000000000000000000000000000000000000000000000000602082015250565b6000611fb3602583611e48565b9150611fbe82611f57565b604082019050919050565b60006020820190508181036000830152611fe281611fa6565b9050919050565b600080fd5b600080fd5b600080fd5b600067ffffffffffffffff8211156120135761201261162b565b5b61201c8261161a565b9050602081019050919050565b82818337600083830152505050565b600061204b61204684611ff8565b61168b565b90508281526020810184848401111561206757612066611ff3565b5b612072848285612029565b509392505050565b600082601f83011261208f5761208e611615565b5b813561209f848260208601612038565b91505092915050565b600060c082840312156120be576120bd611fe9565b5b6120c860c061168b565b9050600082013567ffffffffffffffff8111156120e8576120e7611fee565b5b6120f48482850161207a565b600083015250602082013567ffffffffffffffff81111561211857612117611fee565b5b6121248482850161207a565b6020830152506040612138848285016116f8565b604083015250606061214c848285016116f8565b6060830152506080612160848285016116f8565b60808301525060a082013567ffffffffffffffff81111561218457612183611fee565b5b6121908482850161207a565b60a08301525092915050565b60006121a836836120a8565b9050919050565b7f636f6e7465737420646f6573206e6f7420657869737400000000000000000000600082015250565b60006121e5601683611e48565b91506121f0826121af565b602082019050919050565b60006020820190508181036000830152612214816121d8565b9050919050565b7f6f6e6c7920636f6e74657374206f776e65720000000000000000000000000000600082015250565b6000612251601283611e48565b915061225c8261221b565b602082019050919050565b6000602082019050818103600083015261228081612244565b9050919050565b7f77726f6e6720636f6e7465737420737461746500000000000000000000000000600082015250565b60006122bd601383611e48565b91506122c882612287565b602082019050919050565b600060208201905081810360008301526122ec816122b0565b9050919050565b600080fd5b600080fd5b600080fd5b6000808335600160200384360303811261231f5761231e6122f3565b5b80840192508235915067ffffffffffffffff821115612341576123406122f8565b5b60208301925060018202360383131561235d5761235c6122fd565b5b509250929050565b600082905092915050565b7f4e487b7100000000000000000000000000000000000000000000000000000000600052602260045260246000fd5b600060028204905060018216806123b757607f821691505b602082108114156123cb576123ca612370565b5b50919050565b60008190508160005260206000209050919050565b60006020601f8301049050919050565b600082821b905092915050565b6000600883026124337fffffffffffffffffffffffffffffffffffffffffffffffffffffffffffffffff826123f6565b61243d86836123f6565b95508019841693508086168417925050509392505050565b6000819050919050565b600061247a612475612470846116d7565b612455565b6116d7565b9050919050565b6000819050919050565b6124948361245f565b6124a86124a082612481565b848454612403565b825550505050565b600090565b6124bd6124b0565b6124c881848461248b565b505050565b5b818110156124ec576124e16000826124b5565b6001810190506124ce565b5050565b601f82111561253157612502816123d1565b61250b846123e6565b8101602085101561251a578190505b61252e612526856123e6565b8301826124cd565b50505b505050565b600082821c905092915050565b600061255460001984600802612536565b1980831691505092915050565b600061256d8383612543565b9150826002028217905092915050565b6125878383612365565b67ffffffffffffffff8111156125a05761259f61162b565b5b6125aa825461239f565b6125b58282856124f0565b6000601f8311600181146125e457600084156125d2578287013590505b6125dc8582612561565b865550612644565b601f1984166125f2866123d1565b60005b8281101561261a578489013582556001820191506020850194506020810190506125f5565b868310156126375784890135612633601f891682612543565b8355505b6001600288020188555050505b50505050505050565b61265883838361257d565b505050565b6000813561266a816116e1565b80915050919050565b60008160001b9050919050565b60007fffffffffffffffffffffffffffffffffffffffffffffffffffffffffffffffff6126ac84612673565b9350801983169250808416831791505092915050565b6126cb8261245f565b6126de6126d782612481565b8354612680565b8255505050565b60008101600083016126f78185612302565b61270281838661264d565b5050505060018101602083016127188185612302565b61272381838661264d565b505050506002810160408301806127398161265d565b905061274581846126c2565b50505060038101606083018061275a8161265d565b905061276681846126c2565b50505060048101608083018061277b8161265d565b905061278781846126c2565b5050506005810160a0830161279c8185612302565b6127a781838661264d565b505050505050565b6127b982826126e5565b5050565b60006127c8826116d7565b91506127d3836116d7565b9250828210156127e6576127e5611d26565b5b828203905092915050565b7f4e487b7100000000000000000000000000000000000000000000000000000000600052603160045260246000fdfea26469706673582212204edcc296bb2ffe293e9d33103046851ef3ad8cf23ca6d1073fea9134623abd0064736f6c634300080a0033",
  "immutableReferences": {},
  "source": "// SPDX-License-Identifier: MIT\npragma solidity ^0.8.10;\npragma experimental ABIEncoderV2;\n\nimport \"@openzeppelin/contracts/access/IAccessControl.sol\";\nimport \"@openzeppelin/contracts/utils/structs/EnumerableSet.sol\";\nimport \"./IContests.sol\";\n\ncontract Contests is IContests {\n\n    using EnumerableSet for EnumerableSet.UintSet;\n\n    IAccessControl AccessControl;\n\n    constructor(address _AccessControl) {\n        AccessControl = IAccessControl(_AccessControl);\n    }\n\n    EnumerableSet.UintSet ids;\n    mapping(uint => Contest) contests;\n    uint public nextId = 1;\n\n    mapping(address => EnumerableSet.UintSet) addressToContests;\n\n    function _updateState(uint id) internal {\n        if (block.timestamp >= contests[id].info.start) contests[id].state = IContests.ContestState.STARTED;\n        if (block.timestamp >= contests[id].info.end) contests[id].state = IContests.ContestState.ENDED;\n    }\n\n    function _remove(uint id) internal\n    onlyContestExist(id)\n    onlyContestOwner(id)\n    onlyContestInState(id, IContests.ContestState.CREATED) {\n        ids.remove(id);\n        addressToContests[msg.sender].remove(id);\n        delete contests[id];\n    }\n\n    function add(IContest calldata contest) external\n    onlyContestAdmin()\n    timeQualified(contest.start, contest.end) {\n        ids.add(nextId);\n        addressToContests[msg.sender].add(nextId);\n        contests[nextId] = Contest(nextId, contest, msg.sender, ContestState.CREATED, block.timestamp);\n        nextId++;\n    }\n\n    function update(uint id, IContest calldata contest) external\n    onlyContestExist(id)\n    onlyContestOwner(id)\n    onlyContestInState(id, IContests.ContestState.CREATED)\n    timeQualified(contest.start, contest.end) {\n        contests[id].info = contest;\n    }\n\n    function removes(uint [] memory _ids) external {\n        for (uint i = 0; i < _ids.length; i++) {\n            _remove(_ids[i]);\n        }\n    }\n\n    function contestInState(uint id, IContests.ContestState state) external returns (bool) {\n        _updateState(id);\n        return contests[id].state == state;\n    }\n\n    function getContest(uint id) external view returns (Contest memory) {\n        return contests[id];\n    }\n\n    function getMyContestIds() external view returns (uint [] memory){\n        return addressToContests[msg.sender].values();\n    }\n\n    function getCount() external view returns (uint) {\n        return ids.length();\n    }\n\n    function get(uint index) external view returns (Contest memory) {\n        return contests[ids.at(index)];\n    }\n\n    modifier onlyContestExist(uint id){\n        require(ids.contains(id), \"contest does not exist\");\n        _;\n    }\n\n    modifier onlyContestAdmin() {\n        require(AccessControl.hasRole(keccak256(\"CONTEST_ADMIN\"), msg.sender), \"only contest admin\");\n        _;\n    }\n\n    modifier onlyContestOwner(uint id){\n        require(contests[id].owner == msg.sender, \"only contest owner\");\n        _;\n    }\n\n    modifier onlyContestInState(uint id, IContests.ContestState state){\n        _updateState(id);\n        require(contests[id].state == state, \"wrong contest state\");\n        _;\n    }\n\n    modifier timeQualified(uint start, uint end){\n        require(end > start, \"can only add contest if end after start\");\n        require(start > block.timestamp, \"can only add contest at a future date\");\n        _;\n    }\n}",
  "sourcePath": "/Users/yhy/Code/GitHub/DCTF/contracts/Contests.sol",
  "compiler": {
    "name": "solc",
    "version": "0.8.10+commit.fc410830.Emscripten.clang"
  },
  "schemaVersion": "3.4.4",
  "updatedAt": "2022-02-22T09:03:38.583Z",
  "networkType": "ethereum",
  "devdoc": {
    "kind": "dev",
    "methods": {},
    "version": 1
  },
  "userdoc": {
    "kind": "user",
    "methods": {},
    "version": 1
  }
}