{
  "contractName": "Contests",
  "abi": [
    {
      "inputs": [
        {
          "internalType": "address",
          "name": "_AccessControl",
          "type": "address"
        }
      ],
      "stateMutability": "nonpayable",
      "type": "constructor"
    },
    {
      "inputs": [
        {
          "internalType": "uint256",
          "name": "",
          "type": "uint256"
        }
      ],
      "name": "contests",
      "outputs": [
        {
          "internalType": "uint256",
          "name": "id",
          "type": "uint256"
        },
        {
          "components": [
            {
              "internalType": "string",
              "name": "contestType",
              "type": "string"
            },
            {
              "internalType": "string",
              "name": "name",
              "type": "string"
            },
            {
              "internalType": "uint256",
              "name": "fee",
              "type": "uint256"
            },
            {
              "internalType": "uint256",
              "name": "start",
              "type": "uint256"
            },
            {
              "internalType": "uint256",
              "name": "end",
              "type": "uint256"
            },
            {
              "internalType": "string",
              "name": "message",
              "type": "string"
            }
          ],
          "internalType": "struct IContests.IContest",
          "name": "contestInfo",
          "type": "tuple"
        },
        {
          "internalType": "address",
          "name": "owner",
          "type": "address"
        },
        {
          "internalType": "enum IContests.ContestState",
          "name": "state",
          "type": "uint8"
        },
        {
          "internalType": "uint256",
          "name": "timeStamp",
          "type": "uint256"
        }
      ],
      "stateMutability": "view",
      "type": "function",
      "constant": true
    },
    {
      "inputs": [],
      "name": "nextId",
      "outputs": [
        {
          "internalType": "uint256",
          "name": "",
          "type": "uint256"
        }
      ],
      "stateMutability": "view",
      "type": "function",
      "constant": true
    },
    {
      "inputs": [
        {
          "components": [
            {
              "internalType": "string",
              "name": "contestType",
              "type": "string"
            },
            {
              "internalType": "string",
              "name": "name",
              "type": "string"
            },
            {
              "internalType": "uint256",
              "name": "fee",
              "type": "uint256"
            },
            {
              "internalType": "uint256",
              "name": "start",
              "type": "uint256"
            },
            {
              "internalType": "uint256",
              "name": "end",
              "type": "uint256"
            },
            {
              "internalType": "string",
              "name": "message",
              "type": "string"
            }
          ],
          "internalType": "struct IContests.IContest",
          "name": "contest",
          "type": "tuple"
        }
      ],
      "name": "add",
      "outputs": [],
      "stateMutability": "nonpayable",
      "type": "function"
    },
    {
      "inputs": [
        {
          "internalType": "uint256",
          "name": "id",
          "type": "uint256"
        },
        {
          "components": [
            {
              "internalType": "string",
              "name": "contestType",
              "type": "string"
            },
            {
              "internalType": "string",
              "name": "name",
              "type": "string"
            },
            {
              "internalType": "uint256",
              "name": "fee",
              "type": "uint256"
            },
            {
              "internalType": "uint256",
              "name": "start",
              "type": "uint256"
            },
            {
              "internalType": "uint256",
              "name": "end",
              "type": "uint256"
            },
            {
              "internalType": "string",
              "name": "message",
              "type": "string"
            }
          ],
          "internalType": "struct IContests.IContest",
          "name": "contest",
          "type": "tuple"
        }
      ],
      "name": "update",
      "outputs": [],
      "stateMutability": "nonpayable",
      "type": "function"
    },
    {
      "inputs": [
        {
          "internalType": "uint256",
          "name": "id",
          "type": "uint256"
        }
      ],
      "name": "remove",
      "outputs": [],
      "stateMutability": "nonpayable",
      "type": "function"
    },
    {
      "inputs": [
        {
          "internalType": "uint256",
          "name": "id",
          "type": "uint256"
        },
        {
          "internalType": "enum IContests.ContestState",
          "name": "state",
          "type": "uint8"
        }
      ],
      "name": "contestInState",
      "outputs": [
        {
          "internalType": "bool",
          "name": "",
          "type": "bool"
        }
      ],
      "stateMutability": "nonpayable",
      "type": "function"
    },
    {
      "inputs": [
        {
          "internalType": "uint256",
          "name": "contestId",
          "type": "uint256"
        },
        {
          "internalType": "address",
          "name": "account",
          "type": "address"
        }
      ],
      "name": "isOwner",
      "outputs": [
        {
          "internalType": "bool",
          "name": "",
          "type": "bool"
        }
      ],
      "stateMutability": "view",
      "type": "function",
      "constant": true
    },
    {
      "inputs": [
        {
          "internalType": "uint256",
          "name": "contestId",
          "type": "uint256"
        }
      ],
      "name": "Exist",
      "outputs": [
        {
          "internalType": "bool",
          "name": "",
          "type": "bool"
        }
      ],
      "stateMutability": "view",
      "type": "function",
      "constant": true
    },
    {
      "inputs": [
        {
          "internalType": "uint256[]",
          "name": "_ids",
          "type": "uint256[]"
        }
      ],
      "name": "getSome",
      "outputs": [
        {
          "components": [
            {
              "internalType": "uint256",
              "name": "id",
              "type": "uint256"
            },
            {
              "components": [
                {
                  "internalType": "string",
                  "name": "contestType",
                  "type": "string"
                },
                {
                  "internalType": "string",
                  "name": "name",
                  "type": "string"
                },
                {
                  "internalType": "uint256",
                  "name": "fee",
                  "type": "uint256"
                },
                {
                  "internalType": "uint256",
                  "name": "start",
                  "type": "uint256"
                },
                {
                  "internalType": "uint256",
                  "name": "end",
                  "type": "uint256"
                },
                {
                  "internalType": "string",
                  "name": "message",
                  "type": "string"
                }
              ],
              "internalType": "struct IContests.IContest",
              "name": "contestInfo",
              "type": "tuple"
            },
            {
              "internalType": "address",
              "name": "owner",
              "type": "address"
            },
            {
              "internalType": "enum IContests.ContestState",
              "name": "state",
              "type": "uint8"
            },
            {
              "internalType": "uint256",
              "name": "timeStamp",
              "type": "uint256"
            }
          ],
          "internalType": "struct IContests.Contest[]",
          "name": "",
          "type": "tuple[]"
        }
      ],
      "stateMutability": "view",
      "type": "function",
      "constant": true
    },
    {
      "inputs": [],
      "name": "getAll",
      "outputs": [
        {
          "components": [
            {
              "internalType": "uint256",
              "name": "id",
              "type": "uint256"
            },
            {
              "components": [
                {
                  "internalType": "string",
                  "name": "contestType",
                  "type": "string"
                },
                {
                  "internalType": "string",
                  "name": "name",
                  "type": "string"
                },
                {
                  "internalType": "uint256",
                  "name": "fee",
                  "type": "uint256"
                },
                {
                  "internalType": "uint256",
                  "name": "start",
                  "type": "uint256"
                },
                {
                  "internalType": "uint256",
                  "name": "end",
                  "type": "uint256"
                },
                {
                  "internalType": "string",
                  "name": "message",
                  "type": "string"
                }
              ],
              "internalType": "struct IContests.IContest",
              "name": "contestInfo",
              "type": "tuple"
            },
            {
              "internalType": "address",
              "name": "owner",
              "type": "address"
            },
            {
              "internalType": "enum IContests.ContestState",
              "name": "state",
              "type": "uint8"
            },
            {
              "internalType": "uint256",
              "name": "timeStamp",
              "type": "uint256"
            }
          ],
          "internalType": "struct IContests.Contest[]",
          "name": "",
          "type": "tuple[]"
        }
      ],
      "stateMutability": "view",
      "type": "function",
      "constant": true
    },
    {
      "inputs": [
        {
          "internalType": "address",
          "name": "account",
          "type": "address"
        }
      ],
      "name": "gets",
      "outputs": [
        {
          "components": [
            {
              "internalType": "uint256",
              "name": "id",
              "type": "uint256"
            },
            {
              "components": [
                {
                  "internalType": "string",
                  "name": "contestType",
                  "type": "string"
                },
                {
                  "internalType": "string",
                  "name": "name",
                  "type": "string"
                },
                {
                  "internalType": "uint256",
                  "name": "fee",
                  "type": "uint256"
                },
                {
                  "internalType": "uint256",
                  "name": "start",
                  "type": "uint256"
                },
                {
                  "internalType": "uint256",
                  "name": "end",
                  "type": "uint256"
                },
                {
                  "internalType": "string",
                  "name": "message",
                  "type": "string"
                }
              ],
              "internalType": "struct IContests.IContest",
              "name": "contestInfo",
              "type": "tuple"
            },
            {
              "internalType": "address",
              "name": "owner",
              "type": "address"
            },
            {
              "internalType": "enum IContests.ContestState",
              "name": "state",
              "type": "uint8"
            },
            {
              "internalType": "uint256",
              "name": "timeStamp",
              "type": "uint256"
            }
          ],
          "internalType": "struct IContests.Contest[]",
          "name": "",
          "type": "tuple[]"
        }
      ],
      "stateMutability": "view",
      "type": "function",
      "constant": true
    },
    {
      "inputs": [],
      "name": "getCount",
      "outputs": [
        {
          "internalType": "uint256",
          "name": "",
          "type": "uint256"
        }
      ],
      "stateMutability": "view",
      "type": "function",
      "constant": true
    },
    {
      "inputs": [
        {
          "internalType": "uint256",
          "name": "index",
          "type": "uint256"
        }
      ],
      "name": "get",
      "outputs": [
        {
          "components": [
            {
              "internalType": "uint256",
              "name": "id",
              "type": "uint256"
            },
            {
              "components": [
                {
                  "internalType": "string",
                  "name": "contestType",
                  "type": "string"
                },
                {
                  "internalType": "string",
                  "name": "name",
                  "type": "string"
                },
                {
                  "internalType": "uint256",
                  "name": "fee",
                  "type": "uint256"
                },
                {
                  "internalType": "uint256",
                  "name": "start",
                  "type": "uint256"
                },
                {
                  "internalType": "uint256",
                  "name": "end",
                  "type": "uint256"
                },
                {
                  "internalType": "string",
                  "name": "message",
                  "type": "string"
                }
              ],
              "internalType": "struct IContests.IContest",
              "name": "contestInfo",
              "type": "tuple"
            },
            {
              "internalType": "address",
              "name": "owner",
              "type": "address"
            },
            {
              "internalType": "enum IContests.ContestState",
              "name": "state",
              "type": "uint8"
            },
            {
              "internalType": "uint256",
              "name": "timeStamp",
              "type": "uint256"
            }
          ],
          "internalType": "struct IContests.Contest",
          "name": "",
          "type": "tuple"
        }
      ],
      "stateMutability": "view",
      "type": "function",
      "constant": true
    }
  ],
  "bytecode": "0x608060405260016004553480156200001657600080fd5b506040516200301a3803806200301a83398181016040528101906200003c9190620000ed565b806000806101000a81548173ffffffffffffffffffffffffffffffffffffffff021916908373ffffffffffffffffffffffffffffffffffffffff160217905550506200011f565b600080fd5b600073ffffffffffffffffffffffffffffffffffffffff82169050919050565b6000620000b58262000088565b9050919050565b620000c781620000a8565b8114620000d357600080fd5b50565b600081519050620000e781620000bc565b92915050565b60006020828403121562000106576200010562000083565b5b60006200011684828501620000d6565b91505092915050565b612eeb806200012f6000396000f3fe608060405234801561001057600080fd5b50600436106100cf5760003560e01c8063832418031161008c5780639507d39a116100665780639507d39a146102245780639d7ed73814610254578063a87d942c14610288578063e4dc1491146102a6576100cf565b806383241803146101a85780638475798c146101d8578063930ad975146101f4576100cf565b8063434e540b146100d457806348547814146101045780634cc822151461012057806353ed51431461013c5780635a5d096c1461015a57806361b8ce8c1461018a575b600080fd5b6100ee60048036038101906100e99190611ae3565b6102d6565b6040516100fb9190611b3e565b60405180910390f35b61011e60048036038101906101199190611b7d565b610333565b005b61013a60048036038101906101359190611bc6565b6106c2565b005b61014461096e565b6040516101519190611f22565b60405180910390f35b610174600480360381019061016f9190611f70565b610987565b6040516101819190611b3e565b60405180910390f35b6101926109f6565b60405161019f9190611fbf565b60405180910390f35b6101c260048036038101906101bd9190612122565b6109fc565b6040516101cf9190611f22565b60405180910390f35b6101f260048036038101906101ed919061216b565b610a0e565b005b61020e600480360381019061020991906121c7565b610c5a565b60405161021b9190611f22565b60405180910390f35b61023e60048036038101906102399190611bc6565b610cb2565b60405161024b919061226a565b60405180910390f35b61026e60048036038101906102699190611bc6565b610f7f565b60405161027f959493929190612341565b60405180910390f35b6102906111c0565b60405161029d9190611fbf565b60405180910390f35b6102c060048036038101906102bb9190611bc6565b6111d1565b6040516102cd9190611b3e565b60405180910390f35b60006102e1836111f3565b8160038111156102f4576102f3611d9f565b5b6003600085815260200190815260200160002060070160149054906101000a900460ff16600381111561032a57610329611d9f565b5b14905092915050565b60008054906101000a900473ffffffffffffffffffffffffffffffffffffffff1673ffffffffffffffffffffffffffffffffffffffff166391d148547f2ac4b647885dc0812ed26210d6a36d5f1c8de284183a5e4c171119cd3b54458a336040518363ffffffff1660e01b81526004016103ae9291906123b4565b602060405180830381865afa1580156103cb573d6000803e3d6000fd5b505050506040513d601f19601f820116820180604052508101906103ef9190612409565b61042e576040517f08c379a000000000000000000000000000000000000000000000000000000000815260040161042590612493565b60405180910390fd5b8060600135816080013581811161047a576040517f08c379a000000000000000000000000000000000000000000000000000000000815260040161047190612525565b60405180910390fd5b4282116104bc576040517f08c379a00000000000000000000000000000000000000000000000000000000081526004016104b3906125b7565b60405180910390fd5b6104d260045460016112b590919063ffffffff16565b50610526600454600560003373ffffffffffffffffffffffffffffffffffffffff1673ffffffffffffffffffffffffffffffffffffffff1681526020019081526020016000206112b590919063ffffffff16565b506040518060a001604052806004548152602001846105449061278a565b81526020013373ffffffffffffffffffffffffffffffffffffffff1681526020016001600381111561057957610578611d9f565b5b8152602001428152506003600060045481526020019081526020016000206000820151816000015560208201518160010160008201518160000190805190602001906105c69291906118fe565b5060208201518160010190805190602001906105e39291906118fe565b5060408201518160020155606082015181600301556080820151816004015560a082015181600501908051906020019061061e9291906118fe565b50505060408201518160070160006101000a81548173ffffffffffffffffffffffffffffffffffffffff021916908373ffffffffffffffffffffffffffffffffffffffff16021790555060608201518160070160146101000a81548160ff0219169083600381111561069357610692611d9f565b5b021790555060808201518160080155905050600460008154809291906106b8906127cc565b9190505550505050565b806106d78160016112cf90919063ffffffff16565b610716576040517f08c379a000000000000000000000000000000000000000000000000000000000815260040161070d90612861565b60405180910390fd5b813373ffffffffffffffffffffffffffffffffffffffff166003600083815260200190815260200160002060070160009054906101000a900473ffffffffffffffffffffffffffffffffffffffff1673ffffffffffffffffffffffffffffffffffffffff16146107bb576040517f08c379a00000000000000000000000000000000000000000000000000000000081526004016107b2906128cd565b60405180910390fd5b8260016107c7826111f3565b8060038111156107da576107d9611d9f565b5b6003600084815260200190815260200160002060070160149054906101000a900460ff1660038111156108105761080f611d9f565b5b14610850576040517f08c379a000000000000000000000000000000000000000000000000000000000815260040161084790612939565b60405180910390fd5b6108648560016112e990919063ffffffff16565b506108b685600560003373ffffffffffffffffffffffffffffffffffffffff1673ffffffffffffffffffffffffffffffffffffffff1681526020019081526020016000206112e990919063ffffffff16565b506003600086815260200190815260200160002060008082016000905560018201600080820160006108e89190611984565b6001820160006108f89190611984565b6002820160009055600382016000905560048201600090556005820160006109209190611984565b50506007820160006101000a81549073ffffffffffffffffffffffffffffffffffffffff02191690556007820160146101000a81549060ff0219169055600882016000905550505050505050565b606061098261097d6001611303565b611324565b905090565b60008173ffffffffffffffffffffffffffffffffffffffff166003600085815260200190815260200160002060070160009054906101000a900473ffffffffffffffffffffffffffffffffffffffff1673ffffffffffffffffffffffffffffffffffffffff1614905092915050565b60045481565b6060610a0782611324565b9050919050565b81610a238160016112cf90919063ffffffff16565b610a62576040517f08c379a0000000000000000000000000000000000000000000000000000000008152600401610a5990612861565b60405180910390fd5b823373ffffffffffffffffffffffffffffffffffffffff166003600083815260200190815260200160002060070160009054906101000a900473ffffffffffffffffffffffffffffffffffffffff1673ffffffffffffffffffffffffffffffffffffffff1614610b07576040517f08c379a0000000000000000000000000000000000000000000000000000000008152600401610afe906128cd565b60405180910390fd5b836001610b13826111f3565b806003811115610b2657610b25611d9f565b5b6003600084815260200190815260200160002060070160149054906101000a900460ff166003811115610b5c57610b5b611d9f565b5b14610b9c576040517f08c379a0000000000000000000000000000000000000000000000000000000008152600401610b9390612939565b60405180910390fd5b84606001358560800135818111610be8576040517f08c379a0000000000000000000000000000000000000000000000000000000008152600401610bdf90612525565b60405180910390fd5b428211610c2a576040517f08c379a0000000000000000000000000000000000000000000000000000000008152600401610c21906125b7565b60405180910390fd5b86600360008a81526020019081526020016000206001018181610c4d9190612e15565b9050505050505050505050565b6060610cab610ca6600560008573ffffffffffffffffffffffffffffffffffffffff1673ffffffffffffffffffffffffffffffffffffffff168152602001908152602001600020611303565b611324565b9050919050565b610cba6119c4565b60036000610cd284600161169090919063ffffffff16565b81526020019081526020016000206040518060a001604052908160008201548152602001600182016040518060c0016040529081600082018054610d1590612a05565b80601f0160208091040260200160405190810160405280929190818152602001828054610d4190612a05565b8015610d8e5780601f10610d6357610100808354040283529160200191610d8e565b820191906000526020600020905b815481529060010190602001808311610d7157829003601f168201915b50505050508152602001600182018054610da790612a05565b80601f0160208091040260200160405190810160405280929190818152602001828054610dd390612a05565b8015610e205780601f10610df557610100808354040283529160200191610e20565b820191906000526020600020905b815481529060010190602001808311610e0357829003601f168201915b50505050508152602001600282015481526020016003820154815260200160048201548152602001600582018054610e5790612a05565b80601f0160208091040260200160405190810160405280929190818152602001828054610e8390612a05565b8015610ed05780601f10610ea557610100808354040283529160200191610ed0565b820191906000526020600020905b815481529060010190602001808311610eb357829003601f168201915b50505050508152505081526020016007820160009054906101000a900473ffffffffffffffffffffffffffffffffffffffff1673ffffffffffffffffffffffffffffffffffffffff1673ffffffffffffffffffffffffffffffffffffffff1681526020016007820160149054906101000a900460ff166003811115610f5857610f57611d9f565b5b6003811115610f6a57610f69611d9f565b5b81526020016008820154815250509050919050565b6003602052806000526040600020600091509050806000015490806001016040518060c0016040529081600082018054610fb890612a05565b80601f0160208091040260200160405190810160405280929190818152602001828054610fe490612a05565b80156110315780601f1061100657610100808354040283529160200191611031565b820191906000526020600020905b81548152906001019060200180831161101457829003601f168201915b5050505050815260200160018201805461104a90612a05565b80601f016020809104026020016040519081016040528092919081815260200182805461107690612a05565b80156110c35780601f10611098576101008083540402835291602001916110c3565b820191906000526020600020905b8154815290600101906020018083116110a657829003601f168201915b505050505081526020016002820154815260200160038201548152602001600482015481526020016005820180546110fa90612a05565b80601f016020809104026020016040519081016040528092919081815260200182805461112690612a05565b80156111735780601f1061114857610100808354040283529160200191611173565b820191906000526020600020905b81548152906001019060200180831161115657829003601f168201915b505050505081525050908060070160009054906101000a900473ffffffffffffffffffffffffffffffffffffffff16908060070160149054906101000a900460ff16908060080154905085565b60006111cc60016116aa565b905090565b6000806003600084815260200190815260200160002060000154119050919050565b600360008281526020019081526020016000206001016003015442106112535760026003600083815260200190815260200160002060070160146101000a81548160ff0219169083600381111561124d5761124c611d9f565b5b02179055505b600360008281526020019081526020016000206001016004015442106112b257600380600083815260200190815260200160002060070160146101000a81548160ff021916908360038111156112ac576112ab611d9f565b5b02179055505b50565b60006112c7836000018360001b6116bf565b905092915050565b60006112e1836000018360001b61172f565b905092915050565b60006112fb836000018360001b611752565b905092915050565b6060600061131383600001611866565b905060608190508092505050919050565b606060008251905060008167ffffffffffffffff81111561134857611347611fdf565b5b60405190808252806020026020018201604052801561138157816020015b61136e6119c4565b8152602001906001900390816113665790505b50905060005b8281101561168557600360008683815181106113a6576113a5612e23565b5b602002602001015181526020019081526020016000206040518060a001604052908160008201548152602001600182016040518060c00160405290816000820180546113f190612a05565b80601f016020809104026020016040519081016040528092919081815260200182805461141d90612a05565b801561146a5780601f1061143f5761010080835404028352916020019161146a565b820191906000526020600020905b81548152906001019060200180831161144d57829003601f168201915b5050505050815260200160018201805461148390612a05565b80601f01602080910402602001604051908101604052809291908181526020018280546114af90612a05565b80156114fc5780601f106114d1576101008083540402835291602001916114fc565b820191906000526020600020905b8154815290600101906020018083116114df57829003601f168201915b5050505050815260200160028201548152602001600382015481526020016004820154815260200160058201805461153390612a05565b80601f016020809104026020016040519081016040528092919081815260200182805461155f90612a05565b80156115ac5780601f10611581576101008083540402835291602001916115ac565b820191906000526020600020905b81548152906001019060200180831161158f57829003601f168201915b50505050508152505081526020016007820160009054906101000a900473ffffffffffffffffffffffffffffffffffffffff1673ffffffffffffffffffffffffffffffffffffffff1673ffffffffffffffffffffffffffffffffffffffff1681526020016007820160149054906101000a900460ff16600381111561163457611633611d9f565b5b600381111561164657611645611d9f565b5b815260200160088201548152505082828151811061166757611666612e23565b5b6020026020010181905250808061167d906127cc565b915050611387565b508092505050919050565b600061169f83600001836118c2565b60001c905092915050565b60006116b8826000016118ed565b9050919050565b60006116cb838361172f565b611724578260000182908060018154018082558091505060019003906000526020600020016000909190919091505582600001805490508360010160008481526020019081526020016000208190555060019050611729565b600090505b92915050565b600080836001016000848152602001908152602001600020541415905092915050565b6000808360010160008481526020019081526020016000205490506000811461185a5760006001826117849190612e52565b905060006001866000018054905061179c9190612e52565b905081811461180b5760008660000182815481106117bd576117bc612e23565b5b90600052602060002001549050808760000184815481106117e1576117e0612e23565b5b90600052602060002001819055508387600101600083815260200190815260200160002081905550505b8560000180548061181f5761181e612e86565b5b600190038181906000526020600020016000905590558560010160008681526020019081526020016000206000905560019350505050611860565b60009150505b92915050565b6060816000018054806020026020016040519081016040528092919081815260200182805480156118b657602002820191906000526020600020905b8154815260200190600101908083116118a2575b50505050509050919050565b60008260000182815481106118da576118d9612e23565b5b9060005260206000200154905092915050565b600081600001805490509050919050565b82805461190a90612a05565b90600052602060002090601f01602090048101928261192c5760008555611973565b82601f1061194557805160ff1916838001178555611973565b82800160010185558215611973579182015b82811115611972578251825591602001919060010190611957565b5b5090506119809190611a21565b5090565b50805461199090612a05565b6000825580601f106119a257506119c1565b601f0160209004906000526020600020908101906119c09190611a21565b5b50565b6040518060a00160405280600081526020016119de611a3e565b8152602001600073ffffffffffffffffffffffffffffffffffffffff16815260200160006003811115611a1457611a13611d9f565b5b8152602001600081525090565b5b80821115611a3a576000816000905550600101611a22565b5090565b6040518060c001604052806060815260200160608152602001600081526020016000815260200160008152602001606081525090565b6000604051905090565b600080fd5b600080fd5b6000819050919050565b611a9b81611a88565b8114611aa657600080fd5b50565b600081359050611ab881611a92565b92915050565b60048110611acb57600080fd5b50565b600081359050611add81611abe565b92915050565b60008060408385031215611afa57611af9611a7e565b5b6000611b0885828601611aa9565b9250506020611b1985828601611ace565b9150509250929050565b60008115159050919050565b611b3881611b23565b82525050565b6000602082019050611b536000830184611b2f565b92915050565b600080fd5b600060c08284031215611b7457611b73611b59565b5b81905092915050565b600060208284031215611b9357611b92611a7e565b5b600082013567ffffffffffffffff811115611bb157611bb0611a83565b5b611bbd84828501611b5e565b91505092915050565b600060208284031215611bdc57611bdb611a7e565b5b6000611bea84828501611aa9565b91505092915050565b600081519050919050565b600082825260208201905092915050565b6000819050602082019050919050565b611c2881611a88565b82525050565b600081519050919050565b600082825260208201905092915050565b60005b83811015611c68578082015181840152602081019050611c4d565b83811115611c77576000848401525b50505050565b6000601f19601f8301169050919050565b6000611c9982611c2e565b611ca38185611c39565b9350611cb3818560208601611c4a565b611cbc81611c7d565b840191505092915050565b600060c0830160008301518482036000860152611ce48282611c8e565b91505060208301518482036020860152611cfe8282611c8e565b9150506040830151611d136040860182611c1f565b506060830151611d266060860182611c1f565b506080830151611d396080860182611c1f565b5060a083015184820360a0860152611d518282611c8e565b9150508091505092915050565b600073ffffffffffffffffffffffffffffffffffffffff82169050919050565b6000611d8982611d5e565b9050919050565b611d9981611d7e565b82525050565b7f4e487b7100000000000000000000000000000000000000000000000000000000600052602160045260246000fd5b60048110611ddf57611dde611d9f565b5b50565b6000819050611df082611dce565b919050565b6000611e0082611de2565b9050919050565b611e1081611df5565b82525050565b600060a083016000830151611e2e6000860182611c1f565b5060208301518482036020860152611e468282611cc7565b9150506040830151611e5b6040860182611d90565b506060830151611e6e6060860182611e07565b506080830151611e816080860182611c1f565b508091505092915050565b6000611e988383611e16565b905092915050565b6000602082019050919050565b6000611eb882611bf3565b611ec28185611bfe565b935083602082028501611ed485611c0f565b8060005b85811015611f105784840389528151611ef18582611e8c565b9450611efc83611ea0565b925060208a01995050600181019050611ed8565b50829750879550505050505092915050565b60006020820190508181036000830152611f3c8184611ead565b905092915050565b611f4d81611d7e565b8114611f5857600080fd5b50565b600081359050611f6a81611f44565b92915050565b60008060408385031215611f8757611f86611a7e565b5b6000611f9585828601611aa9565b9250506020611fa685828601611f5b565b9150509250929050565b611fb981611a88565b82525050565b6000602082019050611fd46000830184611fb0565b92915050565b600080fd5b7f4e487b7100000000000000000000000000000000000000000000000000000000600052604160045260246000fd5b61201782611c7d565b810181811067ffffffffffffffff8211171561203657612035611fdf565b5b80604052505050565b6000612049611a74565b9050612055828261200e565b919050565b600067ffffffffffffffff82111561207557612074611fdf565b5b602082029050602081019050919050565b600080fd5b600061209e6120998461205a565b61203f565b905080838252602082019050602084028301858111156120c1576120c0612086565b5b835b818110156120ea57806120d68882611aa9565b8452602084019350506020810190506120c3565b5050509392505050565b600082601f83011261210957612108611fda565b5b813561211984826020860161208b565b91505092915050565b60006020828403121561213857612137611a7e565b5b600082013567ffffffffffffffff81111561215657612155611a83565b5b612162848285016120f4565b91505092915050565b6000806040838503121561218257612181611a7e565b5b600061219085828601611aa9565b925050602083013567ffffffffffffffff8111156121b1576121b0611a83565b5b6121bd85828601611b5e565b9150509250929050565b6000602082840312156121dd576121dc611a7e565b5b60006121eb84828501611f5b565b91505092915050565b600060a08301600083015161220c6000860182611c1f565b50602083015184820360208601526122248282611cc7565b91505060408301516122396040860182611d90565b50606083015161224c6060860182611e07565b50608083015161225f6080860182611c1f565b508091505092915050565b6000602082019050818103600083015261228481846121f4565b905092915050565b600060c08301600083015184820360008601526122a98282611c8e565b915050602083015184820360208601526122c38282611c8e565b91505060408301516122d86040860182611c1f565b5060608301516122eb6060860182611c1f565b5060808301516122fe6080860182611c1f565b5060a083015184820360a08601526123168282611c8e565b9150508091505092915050565b61232c81611d7e565b82525050565b61233b81611df5565b82525050565b600060a0820190506123566000830188611fb0565b8181036020830152612368818761228c565b90506123776040830186612323565b6123846060830185612332565b6123916080830184611fb0565b9695505050505050565b6000819050919050565b6123ae8161239b565b82525050565b60006040820190506123c960008301856123a5565b6123d66020830184612323565b9392505050565b6123e681611b23565b81146123f157600080fd5b50565b600081519050612403816123dd565b92915050565b60006020828403121561241f5761241e611a7e565b5b600061242d848285016123f4565b91505092915050565b600082825260208201905092915050565b7f6f6e6c7920636f6e746573742061646d696e0000000000000000000000000000600082015250565b600061247d601283612436565b915061248882612447565b602082019050919050565b600060208201905081810360008301526124ac81612470565b9050919050565b7f63616e206f6e6c792061646420636f6e7465737420696620656e64206166746560008201527f7220737461727400000000000000000000000000000000000000000000000000602082015250565b600061250f602783612436565b915061251a826124b3565b604082019050919050565b6000602082019050818103600083015261253e81612502565b9050919050565b7f63616e206f6e6c792061646420636f6e7465737420617420612066757475726560008201527f2064617465000000000000000000000000000000000000000000000000000000602082015250565b60006125a1602583612436565b91506125ac82612545565b604082019050919050565b600060208201905081810360008301526125d081612594565b9050919050565b600080fd5b600080fd5b600080fd5b600067ffffffffffffffff82111561260157612600611fdf565b5b61260a82611c7d565b9050602081019050919050565b82818337600083830152505050565b6000612639612634846125e6565b61203f565b905082815260208101848484011115612655576126546125e1565b5b612660848285612617565b509392505050565b600082601f83011261267d5761267c611fda565b5b813561268d848260208601612626565b91505092915050565b600060c082840312156126ac576126ab6125d7565b5b6126b660c061203f565b9050600082013567ffffffffffffffff8111156126d6576126d56125dc565b5b6126e284828501612668565b600083015250602082013567ffffffffffffffff811115612706576127056125dc565b5b61271284828501612668565b602083015250604061272684828501611aa9565b604083015250606061273a84828501611aa9565b606083015250608061274e84828501611aa9565b60808301525060a082013567ffffffffffffffff811115612772576127716125dc565b5b61277e84828501612668565b60a08301525092915050565b60006127963683612696565b9050919050565b7f4e487b7100000000000000000000000000000000000000000000000000000000600052601160045260246000fd5b60006127d782611a88565b91507fffffffffffffffffffffffffffffffffffffffffffffffffffffffffffffffff82141561280a5761280961279d565b5b600182019050919050565b7f636f6e7465737420646f6573206e6f7420657869737400000000000000000000600082015250565b600061284b601683612436565b915061285682612815565b602082019050919050565b6000602082019050818103600083015261287a8161283e565b9050919050565b7f6f6e6c7920636f6e74657374206f776e65720000000000000000000000000000600082015250565b60006128b7601283612436565b91506128c282612881565b602082019050919050565b600060208201905081810360008301526128e6816128aa565b9050919050565b7f77726f6e6720636f6e7465737420737461746500000000000000000000000000600082015250565b6000612923601383612436565b915061292e826128ed565b602082019050919050565b6000602082019050818103600083015261295281612916565b9050919050565b600080fd5b600080fd5b600080fd5b6000808335600160200384360303811261298557612984612959565b5b80840192508235915067ffffffffffffffff8211156129a7576129a661295e565b5b6020830192506001820236038313156129c3576129c2612963565b5b509250929050565b600082905092915050565b7f4e487b7100000000000000000000000000000000000000000000000000000000600052602260045260246000fd5b60006002820490506001821680612a1d57607f821691505b60208210811415612a3157612a306129d6565b5b50919050565b60008190508160005260206000209050919050565b60006020601f8301049050919050565b600082821b905092915050565b600060088302612a997fffffffffffffffffffffffffffffffffffffffffffffffffffffffffffffffff82612a5c565b612aa38683612a5c565b95508019841693508086168417925050509392505050565b6000819050919050565b6000612ae0612adb612ad684611a88565b612abb565b611a88565b9050919050565b6000819050919050565b612afa83612ac5565b612b0e612b0682612ae7565b848454612a69565b825550505050565b600090565b612b23612b16565b612b2e818484612af1565b505050565b5b81811015612b5257612b47600082612b1b565b600181019050612b34565b5050565b601f821115612b9757612b6881612a37565b612b7184612a4c565b81016020851015612b80578190505b612b94612b8c85612a4c565b830182612b33565b50505b505050565b600082821c905092915050565b6000612bba60001984600802612b9c565b1980831691505092915050565b6000612bd38383612ba9565b9150826002028217905092915050565b612bed83836129cb565b67ffffffffffffffff811115612c0657612c05611fdf565b5b612c108254612a05565b612c1b828285612b56565b6000601f831160018114612c4a5760008415612c38578287013590505b612c428582612bc7565b865550612caa565b601f198416612c5886612a37565b60005b82811015612c8057848901358255600182019150602085019450602081019050612c5b565b86831015612c9d5784890135612c99601f891682612ba9565b8355505b6001600288020188555050505b50505050505050565b612cbe838383612be3565b505050565b60008135612cd081611a92565b80915050919050565b60008160001b9050919050565b60007fffffffffffffffffffffffffffffffffffffffffffffffffffffffffffffffff612d1284612cd9565b9350801983169250808416831791505092915050565b612d3182612ac5565b612d44612d3d82612ae7565b8354612ce6565b8255505050565b6000810160008301612d5d8185612968565b612d68818386612cb3565b505050506001810160208301612d7e8185612968565b612d89818386612cb3565b50505050600281016040830180612d9f81612cc3565b9050612dab8184612d28565b505050600381016060830180612dc081612cc3565b9050612dcc8184612d28565b505050600481016080830180612de181612cc3565b9050612ded8184612d28565b5050506005810160a08301612e028185612968565b612e0d818386612cb3565b505050505050565b612e1f8282612d4b565b5050565b7f4e487b7100000000000000000000000000000000000000000000000000000000600052603260045260246000fd5b6000612e5d82611a88565b9150612e6883611a88565b925082821015612e7b57612e7a61279d565b5b828203905092915050565b7f4e487b7100000000000000000000000000000000000000000000000000000000600052603160045260246000fdfea264697066735822122091778001645428f86ed6e6f6a6e0fb24e35c2cd5ed0fb0a669cf151d00a9eb2f64736f6c634300080a0033",
  "immutableReferences": {},
  "source": "// SPDX-License-Identifier: MIT\npragma solidity ^0.8.10;\npragma experimental ABIEncoderV2;\n\nimport \"@openzeppelin/contracts/access/IAccessControl.sol\";\nimport \"@openzeppelin/contracts/utils/structs/EnumerableSet.sol\";\nimport \"./IContests.sol\";\n\ncontract Contests is IContests {\n\n    using EnumerableSet for EnumerableSet.UintSet;\n\n    IAccessControl AccessControl;\n\n    constructor(address _AccessControl) {\n        AccessControl = IAccessControl(_AccessControl);\n    }\n\n    EnumerableSet.UintSet ids;\n    //ContestId => contest\n    mapping(uint => Contest) public contests;\n    uint public nextId = 1;\n\n    // index\n    // contests managed by someone\n    mapping(address => EnumerableSet.UintSet) addressToContests;\n\n    function _gets(uint [] memory _ids) internal view returns (Contest [] memory) {\n        uint number = _ids.length;\n        Contest [] memory result = new Contest [] (number);\n        for(uint i = 0; i < number; i++) {\n            result[i] = contests[_ids[i]];\n        }\n        return result;\n    }\n\n    function _updateState(uint id) internal {\n        if(block.timestamp >= contests[id].contestInfo.start) contests[id].state = IContests.ContestState.STARTED;\n        if(block.timestamp >= contests[id].contestInfo.end) contests[id].state = IContests.ContestState.ENDED;\n    }\n\n    function add(IContest calldata contest) external\n    onlyContestAdmin()\n    timeQualified(contest.start, contest.end) {\n        ids.add(nextId);\n        addressToContests[msg.sender].add(nextId);\n        contests[nextId] = Contest(nextId, contest, msg.sender, ContestState.CREATED, block.timestamp);\n        nextId++;\n    }\n\n    function update(uint id, IContest calldata contest) external\n    onlyContestExist(id)\n    onlyContestOwner(id)\n    onlyContestInState(id, IContests.ContestState.CREATED)\n    timeQualified(contest.start, contest.end) {\n        contests[id].contestInfo = contest;\n    }\n\n    function remove(uint id) external\n    onlyContestExist(id)\n    onlyContestOwner(id)\n    onlyContestInState(id, IContests.ContestState.CREATED) {\n        ids.remove(id);\n        addressToContests[msg.sender].remove(id);\n        delete contests[id];\n    }\n\n    function contestInState(uint id, IContests.ContestState state) external returns(bool) {\n        _updateState(id);\n        return contests[id].state == state;\n    }\n\n    function isOwner(uint contestId, address account) external view returns(bool) {\n        return contests[contestId].owner == account;\n    }\n\n    function Exist(uint contestId) external view returns(bool) {\n        return contests[contestId].id > 0;\n    }\n\n    function getSome(uint [] memory _ids) external view returns (Contest [] memory) {\n        return _gets(_ids);\n    }\n\n    function getAll() external view returns (Contest [] memory) {\n        return _gets(ids.values());\n    }\n\n    function gets(address account) external view returns (Contest [] memory){\n        return _gets(addressToContests[account].values());\n    }\n\n    function getCount() external view returns (uint) {\n        return ids.length();\n    }\n\n    function get(uint index) external view returns (Contest memory) {\n        return contests[ids.at(index)];\n    }\n\n    modifier onlyContestExist(uint id){\n        require(ids.contains(id), \"contest does not exist\");\n        _;\n    }\n\n    modifier onlyContestAdmin() {\n        require(AccessControl.hasRole(keccak256(\"CONTEST_ADMIN\"), msg.sender), \"only contest admin\");\n        _;\n    }\n\n    modifier onlyContestOwner(uint id){\n        require(contests[id].owner == msg.sender, \"only contest owner\");\n        _;\n    }\n\n    modifier onlyContestInState(uint id, IContests.ContestState state){\n        _updateState(id);\n        require(contests[id].state == state, \"wrong contest state\");\n        _;\n    }\n\n    modifier timeQualified(uint start, uint end){\n        require(end > start, \"can only add contest if end after start\");\n        require(start > block.timestamp, \"can only add contest at a future date\");\n        _;\n    }\n}",
  "sourcePath": "/Users/yhy/Code/GitHub/DCTF/contracts/Contests.sol",
  "compiler": {
    "name": "solc",
    "version": "0.8.10+commit.fc410830.Emscripten.clang"
  },
  "schemaVersion": "3.4.4",
  "updatedAt": "2022-02-19T03:11:05.772Z",
  "networkType": "ethereum",
  "devdoc": {
    "kind": "dev",
    "methods": {},
    "version": 1
  },
  "userdoc": {
    "kind": "user",
    "methods": {},
    "version": 1
  }
}