{
  "contractName": "Contests",
  "abi": [
    {
      "inputs": [
        {
          "internalType": "address",
          "name": "_AccessControl",
          "type": "address"
        }
      ],
      "stateMutability": "nonpayable",
      "type": "constructor"
    },
    {
      "inputs": [],
      "name": "nextId",
      "outputs": [
        {
          "internalType": "uint256",
          "name": "",
          "type": "uint256"
        }
      ],
      "stateMutability": "view",
      "type": "function",
      "constant": true
    },
    {
      "inputs": [
        {
          "components": [
            {
              "internalType": "string",
              "name": "contestType",
              "type": "string"
            },
            {
              "internalType": "string",
              "name": "name",
              "type": "string"
            },
            {
              "internalType": "uint256",
              "name": "fee",
              "type": "uint256"
            },
            {
              "internalType": "uint256",
              "name": "start",
              "type": "uint256"
            },
            {
              "internalType": "uint256",
              "name": "commitEnd",
              "type": "uint256"
            },
            {
              "internalType": "uint256",
              "name": "revealEnd",
              "type": "uint256"
            },
            {
              "internalType": "string",
              "name": "message",
              "type": "string"
            }
          ],
          "internalType": "struct IContests.IContest",
          "name": "contest",
          "type": "tuple"
        }
      ],
      "name": "add",
      "outputs": [],
      "stateMutability": "nonpayable",
      "type": "function"
    },
    {
      "inputs": [
        {
          "internalType": "uint256",
          "name": "id",
          "type": "uint256"
        },
        {
          "components": [
            {
              "internalType": "string",
              "name": "contestType",
              "type": "string"
            },
            {
              "internalType": "string",
              "name": "name",
              "type": "string"
            },
            {
              "internalType": "uint256",
              "name": "fee",
              "type": "uint256"
            },
            {
              "internalType": "uint256",
              "name": "start",
              "type": "uint256"
            },
            {
              "internalType": "uint256",
              "name": "commitEnd",
              "type": "uint256"
            },
            {
              "internalType": "uint256",
              "name": "revealEnd",
              "type": "uint256"
            },
            {
              "internalType": "string",
              "name": "message",
              "type": "string"
            }
          ],
          "internalType": "struct IContests.IContest",
          "name": "contest",
          "type": "tuple"
        }
      ],
      "name": "update",
      "outputs": [],
      "stateMutability": "nonpayable",
      "type": "function"
    },
    {
      "inputs": [
        {
          "internalType": "uint256[]",
          "name": "_ids",
          "type": "uint256[]"
        }
      ],
      "name": "removes",
      "outputs": [],
      "stateMutability": "nonpayable",
      "type": "function"
    },
    {
      "inputs": [
        {
          "internalType": "uint256",
          "name": "id",
          "type": "uint256"
        },
        {
          "internalType": "enum IContests.ContestState",
          "name": "state",
          "type": "uint8"
        }
      ],
      "name": "contestInState",
      "outputs": [
        {
          "internalType": "bool",
          "name": "",
          "type": "bool"
        }
      ],
      "stateMutability": "nonpayable",
      "type": "function"
    },
    {
      "inputs": [
        {
          "internalType": "uint256",
          "name": "id",
          "type": "uint256"
        }
      ],
      "name": "getContest",
      "outputs": [
        {
          "components": [
            {
              "internalType": "uint256",
              "name": "id",
              "type": "uint256"
            },
            {
              "components": [
                {
                  "internalType": "string",
                  "name": "contestType",
                  "type": "string"
                },
                {
                  "internalType": "string",
                  "name": "name",
                  "type": "string"
                },
                {
                  "internalType": "uint256",
                  "name": "fee",
                  "type": "uint256"
                },
                {
                  "internalType": "uint256",
                  "name": "start",
                  "type": "uint256"
                },
                {
                  "internalType": "uint256",
                  "name": "commitEnd",
                  "type": "uint256"
                },
                {
                  "internalType": "uint256",
                  "name": "revealEnd",
                  "type": "uint256"
                },
                {
                  "internalType": "string",
                  "name": "message",
                  "type": "string"
                }
              ],
              "internalType": "struct IContests.IContest",
              "name": "info",
              "type": "tuple"
            },
            {
              "internalType": "address",
              "name": "owner",
              "type": "address"
            },
            {
              "internalType": "enum IContests.ContestState",
              "name": "state",
              "type": "uint8"
            },
            {
              "internalType": "uint256",
              "name": "timeStamp",
              "type": "uint256"
            }
          ],
          "internalType": "struct IContests.Contest",
          "name": "",
          "type": "tuple"
        }
      ],
      "stateMutability": "view",
      "type": "function",
      "constant": true
    },
    {
      "inputs": [],
      "name": "getMyContestIds",
      "outputs": [
        {
          "internalType": "uint256[]",
          "name": "",
          "type": "uint256[]"
        }
      ],
      "stateMutability": "view",
      "type": "function",
      "constant": true
    },
    {
      "inputs": [],
      "name": "getCount",
      "outputs": [
        {
          "internalType": "uint256",
          "name": "",
          "type": "uint256"
        }
      ],
      "stateMutability": "view",
      "type": "function",
      "constant": true
    },
    {
      "inputs": [
        {
          "internalType": "uint256",
          "name": "index",
          "type": "uint256"
        }
      ],
      "name": "get",
      "outputs": [
        {
          "components": [
            {
              "internalType": "uint256",
              "name": "id",
              "type": "uint256"
            },
            {
              "components": [
                {
                  "internalType": "string",
                  "name": "contestType",
                  "type": "string"
                },
                {
                  "internalType": "string",
                  "name": "name",
                  "type": "string"
                },
                {
                  "internalType": "uint256",
                  "name": "fee",
                  "type": "uint256"
                },
                {
                  "internalType": "uint256",
                  "name": "start",
                  "type": "uint256"
                },
                {
                  "internalType": "uint256",
                  "name": "commitEnd",
                  "type": "uint256"
                },
                {
                  "internalType": "uint256",
                  "name": "revealEnd",
                  "type": "uint256"
                },
                {
                  "internalType": "string",
                  "name": "message",
                  "type": "string"
                }
              ],
              "internalType": "struct IContests.IContest",
              "name": "info",
              "type": "tuple"
            },
            {
              "internalType": "address",
              "name": "owner",
              "type": "address"
            },
            {
              "internalType": "enum IContests.ContestState",
              "name": "state",
              "type": "uint8"
            },
            {
              "internalType": "uint256",
              "name": "timeStamp",
              "type": "uint256"
            }
          ],
          "internalType": "struct IContests.Contest",
          "name": "",
          "type": "tuple"
        }
      ],
      "stateMutability": "view",
      "type": "function",
      "constant": true
    }
  ],
  "bytecode": "0x608060405260016004553480156200001657600080fd5b5060405162002b8438038062002b8483398181016040528101906200003c9190620000ed565b806000806101000a81548173ffffffffffffffffffffffffffffffffffffffff021916908373ffffffffffffffffffffffffffffffffffffffff160217905550506200011f565b600080fd5b600073ffffffffffffffffffffffffffffffffffffffff82169050919050565b6000620000b58262000088565b9050919050565b620000c781620000a8565b8114620000d357600080fd5b50565b600081519050620000e781620000bc565b92915050565b60006020828403121562000106576200010562000083565b5b60006200011684828501620000d6565b91505092915050565b612a55806200012f6000396000f3fe608060405234801561001057600080fd5b50600436106100935760003560e01c80639507d39a116100665780639507d39a14610132578063a3cb724214610162578063a87d942c14610180578063d51038421461019e578063e7db090a146101ba57610093565b80633ba91ead14610098578063434e540b146100b457806361b8ce8c146100e4578063904b9f7214610102575b600080fd5b6100b260048036038101906100ad91906118c9565b6101d6565b005b6100ce60048036038101906100c99190611937565b61021c565b6040516100db9190611992565b60405180910390f35b6100ec610279565b6040516100f991906119bc565b60405180910390f35b61011c600480360381019061011791906119d7565b61027f565b6040516101299190611c73565b60405180910390f35b61014c600480360381019061014791906119d7565b610543565b6040516101599190611c73565b60405180910390f35b61016a61081a565b6040516101779190611d44565b60405180910390f35b610188610868565b60405161019591906119bc565b60405180910390f35b6101b860048036038101906101b39190611d8a565b610879565b005b6101d460048036038101906101cf9190611de6565b610b11565b005b60005b8151811015610218576102058282815181106101f8576101f7611e2f565b5b6020026020010151610ef6565b808061021090611e8d565b9150506101d9565b5050565b6000610227836111aa565b81600481111561023a57610239611b86565b5b6003600085815260200190815260200160002060080160149054906101000a900460ff1660048111156102705761026f611b86565b5b14905092915050565b60045481565b6102876115a9565b600360008381526020019081526020016000206040518060a001604052908160008201548152602001600182016040518060e00160405290816000820180546102cf90611f05565b80601f01602080910402602001604051908101604052809291908181526020018280546102fb90611f05565b80156103485780601f1061031d57610100808354040283529160200191610348565b820191906000526020600020905b81548152906001019060200180831161032b57829003601f168201915b5050505050815260200160018201805461036190611f05565b80601f016020809104026020016040519081016040528092919081815260200182805461038d90611f05565b80156103da5780601f106103af576101008083540402835291602001916103da565b820191906000526020600020905b8154815290600101906020018083116103bd57829003601f168201915b505050505081526020016002820154815260200160038201548152602001600482015481526020016005820154815260200160068201805461041b90611f05565b80601f016020809104026020016040519081016040528092919081815260200182805461044790611f05565b80156104945780601f1061046957610100808354040283529160200191610494565b820191906000526020600020905b81548152906001019060200180831161047757829003601f168201915b50505050508152505081526020016008820160009054906101000a900473ffffffffffffffffffffffffffffffffffffffff1673ffffffffffffffffffffffffffffffffffffffff1673ffffffffffffffffffffffffffffffffffffffff1681526020016008820160149054906101000a900460ff16600481111561051c5761051b611b86565b5b600481111561052e5761052d611b86565b5b81526020016009820154815250509050919050565b61054b6115a9565b600360006105638460016112cc90919063ffffffff16565b81526020019081526020016000206040518060a001604052908160008201548152602001600182016040518060e00160405290816000820180546105a690611f05565b80601f01602080910402602001604051908101604052809291908181526020018280546105d290611f05565b801561061f5780601f106105f45761010080835404028352916020019161061f565b820191906000526020600020905b81548152906001019060200180831161060257829003601f168201915b5050505050815260200160018201805461063890611f05565b80601f016020809104026020016040519081016040528092919081815260200182805461066490611f05565b80156106b15780601f10610686576101008083540402835291602001916106b1565b820191906000526020600020905b81548152906001019060200180831161069457829003601f168201915b50505050508152602001600282015481526020016003820154815260200160048201548152602001600582015481526020016006820180546106f290611f05565b80601f016020809104026020016040519081016040528092919081815260200182805461071e90611f05565b801561076b5780601f106107405761010080835404028352916020019161076b565b820191906000526020600020905b81548152906001019060200180831161074e57829003601f168201915b50505050508152505081526020016008820160009054906101000a900473ffffffffffffffffffffffffffffffffffffffff1673ffffffffffffffffffffffffffffffffffffffff1673ffffffffffffffffffffffffffffffffffffffff1681526020016008820160149054906101000a900460ff1660048111156107f3576107f2611b86565b5b600481111561080557610804611b86565b5b81526020016009820154815250509050919050565b6060610863600560003373ffffffffffffffffffffffffffffffffffffffff1673ffffffffffffffffffffffffffffffffffffffff1681526020019081526020016000206112e6565b905090565b60006108746001611307565b905090565b8161088e81600161131c90919063ffffffff16565b6108cd576040517f08c379a00000000000000000000000000000000000000000000000000000000081526004016108c490611f94565b60405180910390fd5b823373ffffffffffffffffffffffffffffffffffffffff166003600083815260200190815260200160002060080160009054906101000a900473ffffffffffffffffffffffffffffffffffffffff1673ffffffffffffffffffffffffffffffffffffffff1614610972576040517f08c379a000000000000000000000000000000000000000000000000000000000815260040161096990612000565b60405180910390fd5b83600161097e826111aa565b80600481111561099157610990611b86565b5b6003600084815260200190815260200160002060080160149054906101000a900460ff1660048111156109c7576109c6611b86565b5b14610a07576040517f08c379a00000000000000000000000000000000000000000000000000000000081526004016109fe9061206c565b60405180910390fd5b8442816060013511610a4e576040517f08c379a0000000000000000000000000000000000000000000000000000000008152600401610a45906120fe565b60405180910390fd5b8060600135816080013511610a98576040517f08c379a0000000000000000000000000000000000000000000000000000000008152600401610a8f90612190565b60405180910390fd5b80608001358160a0013511610ae2576040517f08c379a0000000000000000000000000000000000000000000000000000000008152600401610ad990612222565b60405180910390fd5b85600360008981526020019081526020016000206001018181610b0591906126be565b90505050505050505050565b60008054906101000a900473ffffffffffffffffffffffffffffffffffffffff1673ffffffffffffffffffffffffffffffffffffffff166391d148547f2ac4b647885dc0812ed26210d6a36d5f1c8de284183a5e4c171119cd3b54458a336040518363ffffffff1660e01b8152600401610b8c9291906126f4565b602060405180830381865afa158015610ba9573d6000803e3d6000fd5b505050506040513d601f19601f82011682018060405250810190610bcd9190612749565b610c0c576040517f08c379a0000000000000000000000000000000000000000000000000000000008152600401610c03906127c2565b60405180910390fd5b8042816060013511610c53576040517f08c379a0000000000000000000000000000000000000000000000000000000008152600401610c4a906120fe565b60405180910390fd5b8060600135816080013511610c9d576040517f08c379a0000000000000000000000000000000000000000000000000000000008152600401610c9490612190565b60405180910390fd5b80608001358160a0013511610ce7576040517f08c379a0000000000000000000000000000000000000000000000000000000008152600401610cde90612222565b60405180910390fd5b610cfd600454600161133690919063ffffffff16565b50610d51600454600560003373ffffffffffffffffffffffffffffffffffffffff1673ffffffffffffffffffffffffffffffffffffffff16815260200190815260200160002061133690919063ffffffff16565b506040518060a00160405280600454815260200183610d6f906129a9565b81526020013373ffffffffffffffffffffffffffffffffffffffff16815260200160016004811115610da457610da3611b86565b5b815260200142815250600360006004548152602001908152602001600020600082015181600001556020820151816001016000820151816000019080519060200190610df1929190611606565b506020820151816001019080519060200190610e0e929190611606565b5060408201518160020155606082015181600301556080820151816004015560a0820151816005015560c0820151816006019080519060200190610e53929190611606565b50505060408201518160080160006101000a81548173ffffffffffffffffffffffffffffffffffffffff021916908373ffffffffffffffffffffffffffffffffffffffff16021790555060608201518160080160146101000a81548160ff02191690836004811115610ec857610ec7611b86565b5b02179055506080820151816009015590505060046000815480929190610eed90611e8d565b91905055505050565b80610f0b81600161131c90919063ffffffff16565b610f4a576040517f08c379a0000000000000000000000000000000000000000000000000000000008152600401610f4190611f94565b60405180910390fd5b813373ffffffffffffffffffffffffffffffffffffffff166003600083815260200190815260200160002060080160009054906101000a900473ffffffffffffffffffffffffffffffffffffffff1673ffffffffffffffffffffffffffffffffffffffff1614610fef576040517f08c379a0000000000000000000000000000000000000000000000000000000008152600401610fe690612000565b60405180910390fd5b826001610ffb826111aa565b80600481111561100e5761100d611b86565b5b6003600084815260200190815260200160002060080160149054906101000a900460ff16600481111561104457611043611b86565b5b14611084576040517f08c379a000000000000000000000000000000000000000000000000000000000815260040161107b9061206c565b60405180910390fd5b61109885600161135090919063ffffffff16565b506110ea85600560003373ffffffffffffffffffffffffffffffffffffffff1673ffffffffffffffffffffffffffffffffffffffff16815260200190815260200160002061135090919063ffffffff16565b5060036000868152602001908152602001600020600080820160009055600182016000808201600061111c919061168c565b60018201600061112c919061168c565b600282016000905560038201600090556004820160009055600582016000905560068201600061115c919061168c565b50506008820160006101000a81549073ffffffffffffffffffffffffffffffffffffffff02191690556008820160146101000a81549060ff0219169055600982016000905550505050505050565b6003600082815260200190815260200160002060010160030154421061120a5760026003600083815260200190815260200160002060080160146101000a81548160ff0219169083600481111561120457611203611b86565b5b02179055505b6003600082815260200190815260200160002060010160040154421061126957600380600083815260200190815260200160002060080160146101000a81548160ff0219169083600481111561126357611262611b86565b5b02179055505b600360008281526020019081526020016000206001016005015442106112c95760046003600083815260200190815260200160002060080160146101000a81548160ff021916908360048111156112c3576112c2611b86565b5b02179055505b50565b60006112db836000018361136a565b60001c905092915050565b606060006112f683600001611395565b905060608190508092505050919050565b6000611315826000016113f1565b9050919050565b600061132e836000018360001b611402565b905092915050565b6000611348836000018360001b611425565b905092915050565b6000611362836000018360001b611495565b905092915050565b600082600001828154811061138257611381611e2f565b5b9060005260206000200154905092915050565b6060816000018054806020026020016040519081016040528092919081815260200182805480156113e557602002820191906000526020600020905b8154815260200190600101908083116113d1575b50505050509050919050565b600081600001805490509050919050565b600080836001016000848152602001908152602001600020541415905092915050565b60006114318383611402565b61148a57826000018290806001815401808255809150506001900390600052602060002001600090919091909150558260000180549050836001016000848152602001908152602001600020819055506001905061148f565b600090505b92915050565b6000808360010160008481526020019081526020016000205490506000811461159d5760006001826114c791906129bc565b90506000600186600001805490506114df91906129bc565b905081811461154e576000866000018281548110611500576114ff611e2f565b5b906000526020600020015490508087600001848154811061152457611523611e2f565b5b90600052602060002001819055508387600101600083815260200190815260200160002081905550505b85600001805480611562576115616129f0565b5b6001900381819060005260206000200160009055905585600101600086815260200190815260200160002060009055600193505050506115a3565b60009150505b92915050565b6040518060a00160405280600081526020016115c36116cc565b8152602001600073ffffffffffffffffffffffffffffffffffffffff168152602001600060048111156115f9576115f8611b86565b5b8152602001600081525090565b82805461161290611f05565b90600052602060002090601f016020900481019282611634576000855561167b565b82601f1061164d57805160ff191683800117855561167b565b8280016001018555821561167b579182015b8281111561167a57825182559160200191906001019061165f565b5b5090506116889190611709565b5090565b50805461169890611f05565b6000825580601f106116aa57506116c9565b601f0160209004906000526020600020908101906116c89190611709565b5b50565b6040518060e00160405280606081526020016060815260200160008152602001600081526020016000815260200160008152602001606081525090565b5b8082111561172257600081600090555060010161170a565b5090565b6000604051905090565b600080fd5b600080fd5b600080fd5b6000601f19601f8301169050919050565b7f4e487b7100000000000000000000000000000000000000000000000000000000600052604160045260246000fd5b6117888261173f565b810181811067ffffffffffffffff821117156117a7576117a6611750565b5b80604052505050565b60006117ba611726565b90506117c6828261177f565b919050565b600067ffffffffffffffff8211156117e6576117e5611750565b5b602082029050602081019050919050565b600080fd5b6000819050919050565b61180f816117fc565b811461181a57600080fd5b50565b60008135905061182c81611806565b92915050565b6000611845611840846117cb565b6117b0565b90508083825260208201905060208402830185811115611868576118676117f7565b5b835b81811015611891578061187d888261181d565b84526020840193505060208101905061186a565b5050509392505050565b600082601f8301126118b0576118af61173a565b5b81356118c0848260208601611832565b91505092915050565b6000602082840312156118df576118de611730565b5b600082013567ffffffffffffffff8111156118fd576118fc611735565b5b6119098482850161189b565b91505092915050565b6005811061191f57600080fd5b50565b60008135905061193181611912565b92915050565b6000806040838503121561194e5761194d611730565b5b600061195c8582860161181d565b925050602061196d85828601611922565b9150509250929050565b60008115159050919050565b61198c81611977565b82525050565b60006020820190506119a76000830184611983565b92915050565b6119b6816117fc565b82525050565b60006020820190506119d160008301846119ad565b92915050565b6000602082840312156119ed576119ec611730565b5b60006119fb8482850161181d565b91505092915050565b611a0d816117fc565b82525050565b600081519050919050565b600082825260208201905092915050565b60005b83811015611a4d578082015181840152602081019050611a32565b83811115611a5c576000848401525b50505050565b6000611a6d82611a13565b611a778185611a1e565b9350611a87818560208601611a2f565b611a908161173f565b840191505092915050565b600060e0830160008301518482036000860152611ab88282611a62565b91505060208301518482036020860152611ad28282611a62565b9150506040830151611ae76040860182611a04565b506060830151611afa6060860182611a04565b506080830151611b0d6080860182611a04565b5060a0830151611b2060a0860182611a04565b5060c083015184820360c0860152611b388282611a62565b9150508091505092915050565b600073ffffffffffffffffffffffffffffffffffffffff82169050919050565b6000611b7082611b45565b9050919050565b611b8081611b65565b82525050565b7f4e487b7100000000000000000000000000000000000000000000000000000000600052602160045260246000fd5b60058110611bc657611bc5611b86565b5b50565b6000819050611bd782611bb5565b919050565b6000611be782611bc9565b9050919050565b611bf781611bdc565b82525050565b600060a083016000830151611c156000860182611a04565b5060208301518482036020860152611c2d8282611a9b565b9150506040830151611c426040860182611b77565b506060830151611c556060860182611bee565b506080830151611c686080860182611a04565b508091505092915050565b60006020820190508181036000830152611c8d8184611bfd565b905092915050565b600081519050919050565b600082825260208201905092915050565b6000819050602082019050919050565b6000611ccd8383611a04565b60208301905092915050565b6000602082019050919050565b6000611cf182611c95565b611cfb8185611ca0565b9350611d0683611cb1565b8060005b83811015611d37578151611d1e8882611cc1565b9750611d2983611cd9565b925050600181019050611d0a565b5085935050505092915050565b60006020820190508181036000830152611d5e8184611ce6565b905092915050565b600080fd5b600060e08284031215611d8157611d80611d66565b5b81905092915050565b60008060408385031215611da157611da0611730565b5b6000611daf8582860161181d565b925050602083013567ffffffffffffffff811115611dd057611dcf611735565b5b611ddc85828601611d6b565b9150509250929050565b600060208284031215611dfc57611dfb611730565b5b600082013567ffffffffffffffff811115611e1a57611e19611735565b5b611e2684828501611d6b565b91505092915050565b7f4e487b7100000000000000000000000000000000000000000000000000000000600052603260045260246000fd5b7f4e487b7100000000000000000000000000000000000000000000000000000000600052601160045260246000fd5b6000611e98826117fc565b91507fffffffffffffffffffffffffffffffffffffffffffffffffffffffffffffffff821415611ecb57611eca611e5e565b5b600182019050919050565b7f4e487b7100000000000000000000000000000000000000000000000000000000600052602260045260246000fd5b60006002820490506001821680611f1d57607f821691505b60208210811415611f3157611f30611ed6565b5b50919050565b600082825260208201905092915050565b7f636f6e7465737420646f6573206e6f7420657869737400000000000000000000600082015250565b6000611f7e601683611f37565b9150611f8982611f48565b602082019050919050565b60006020820190508181036000830152611fad81611f71565b9050919050565b7f6f6e6c7920636f6e74657374206f776e65720000000000000000000000000000600082015250565b6000611fea601283611f37565b9150611ff582611fb4565b602082019050919050565b6000602082019050818103600083015261201981611fdd565b9050919050565b7f77726f6e6720636f6e7465737420737461746500000000000000000000000000600082015250565b6000612056601383611f37565b915061206182612020565b602082019050919050565b6000602082019050818103600083015261208581612049565b9050919050565b7f63616e206f6e6c792061646420636f6e7465737420617420612066757475726560008201527f2064617465000000000000000000000000000000000000000000000000000000602082015250565b60006120e8602583611f37565b91506120f38261208c565b604082019050919050565b60006020820190508181036000830152612117816120db565b9050919050565b7f63616e206f6e6c792061646420636f6e7465737420696620636f6d6d6974206560008201527f6e64206166746572207374617274000000000000000000000000000000000000602082015250565b600061217a602e83611f37565b91506121858261211e565b604082019050919050565b600060208201905081810360008301526121a98161216d565b9050919050565b7f63616e206f6e6c792061646420636f6e746573742069662072657665616c206560008201527f6e6420616674657220636f6d6d697420656e6400000000000000000000000000602082015250565b600061220c603383611f37565b9150612217826121b0565b604082019050919050565b6000602082019050818103600083015261223b816121ff565b9050919050565b600080fd5b600080fd5b600080fd5b6000808335600160200384360303811261226e5761226d612242565b5b80840192508235915067ffffffffffffffff8211156122905761228f612247565b5b6020830192506001820236038313156122ac576122ab61224c565b5b509250929050565b600082905092915050565b60008190508160005260206000209050919050565b60006020601f8301049050919050565b600082821b905092915050565b6000600883026123217fffffffffffffffffffffffffffffffffffffffffffffffffffffffffffffffff826122e4565b61232b86836122e4565b95508019841693508086168417925050509392505050565b6000819050919050565b600061236861236361235e846117fc565b612343565b6117fc565b9050919050565b6000819050919050565b6123828361234d565b61239661238e8261236f565b8484546122f1565b825550505050565b600090565b6123ab61239e565b6123b6818484612379565b505050565b5b818110156123da576123cf6000826123a3565b6001810190506123bc565b5050565b601f82111561241f576123f0816122bf565b6123f9846122d4565b81016020851015612408578190505b61241c612414856122d4565b8301826123bb565b50505b505050565b600082821c905092915050565b600061244260001984600802612424565b1980831691505092915050565b600061245b8383612431565b9150826002028217905092915050565b61247583836122b4565b67ffffffffffffffff81111561248e5761248d611750565b5b6124988254611f05565b6124a38282856123de565b6000601f8311600181146124d257600084156124c0578287013590505b6124ca858261244f565b865550612532565b601f1984166124e0866122bf565b60005b82811015612508578489013582556001820191506020850194506020810190506124e3565b868310156125255784890135612521601f891682612431565b8355505b6001600288020188555050505b50505050505050565b61254683838361246b565b505050565b6000813561255881611806565b80915050919050565b60008160001b9050919050565b60007fffffffffffffffffffffffffffffffffffffffffffffffffffffffffffffffff61259a84612561565b9350801983169250808416831791505092915050565b6125b98261234d565b6125cc6125c58261236f565b835461256e565b8255505050565b60008101600083016125e58185612251565b6125f081838661253b565b5050505060018101602083016126068185612251565b61261181838661253b565b505050506002810160408301806126278161254b565b905061263381846125b0565b5050506003810160608301806126488161254b565b905061265481846125b0565b5050506004810160808301806126698161254b565b905061267581846125b0565b5050506005810160a083018061268a8161254b565b905061269681846125b0565b5050506006810160c083016126ab8185612251565b6126b681838661253b565b505050505050565b6126c882826125d3565b5050565b6000819050919050565b6126df816126cc565b82525050565b6126ee81611b65565b82525050565b600060408201905061270960008301856126d6565b61271660208301846126e5565b9392505050565b61272681611977565b811461273157600080fd5b50565b6000815190506127438161271d565b92915050565b60006020828403121561275f5761275e611730565b5b600061276d84828501612734565b91505092915050565b7f6f6e6c7920636f6e746573742061646d696e0000000000000000000000000000600082015250565b60006127ac601283611f37565b91506127b782612776565b602082019050919050565b600060208201905081810360008301526127db8161279f565b9050919050565b600080fd5b600080fd5b600080fd5b600067ffffffffffffffff82111561280c5761280b611750565b5b6128158261173f565b9050602081019050919050565b82818337600083830152505050565b600061284461283f846127f1565b6117b0565b9050828152602081018484840111156128605761285f6127ec565b5b61286b848285612822565b509392505050565b600082601f8301126128885761288761173a565b5b8135612898848260208601612831565b91505092915050565b600060e082840312156128b7576128b66127e2565b5b6128c160e06117b0565b9050600082013567ffffffffffffffff8111156128e1576128e06127e7565b5b6128ed84828501612873565b600083015250602082013567ffffffffffffffff811115612911576129106127e7565b5b61291d84828501612873565b60208301525060406129318482850161181d565b60408301525060606129458482850161181d565b60608301525060806129598482850161181d565b60808301525060a061296d8482850161181d565b60a08301525060c082013567ffffffffffffffff811115612991576129906127e7565b5b61299d84828501612873565b60c08301525092915050565b60006129b536836128a1565b9050919050565b60006129c7826117fc565b91506129d2836117fc565b9250828210156129e5576129e4611e5e565b5b828203905092915050565b7f4e487b7100000000000000000000000000000000000000000000000000000000600052603160045260246000fdfea2646970667358221220408a716e7e8b899beecf45eae5d549919a216e78a1ad0cf5742b62d8b93e69fc64736f6c634300080a0033",
  "immutableReferences": {},
  "source": "// SPDX-License-Identifier: MIT\npragma solidity ^0.8.10;\npragma experimental ABIEncoderV2;\n\nimport \"@openzeppelin/contracts/access/IAccessControl.sol\";\nimport \"@openzeppelin/contracts/utils/structs/EnumerableSet.sol\";\nimport \"./IContests.sol\";\n\ncontract Contests is IContests {\n\n    using EnumerableSet for EnumerableSet.UintSet;\n\n    IAccessControl AccessControl;\n\n    constructor(address _AccessControl) {\n        AccessControl = IAccessControl(_AccessControl);\n    }\n\n    EnumerableSet.UintSet ids;\n    mapping(uint => Contest) contests;\n    uint public nextId = 1;\n\n    mapping(address => EnumerableSet.UintSet) addressToContests;\n\n    function _updateState(uint id) internal {\n        if (block.timestamp >= contests[id].info.start) contests[id].state = IContests.ContestState.STARTED;\n        if (block.timestamp >= contests[id].info.commitEnd) contests[id].state = IContests.ContestState.COMMITENDED;\n        if (block.timestamp >= contests[id].info.revealEnd) contests[id].state = IContests.ContestState.REVEALENDED;\n    }\n\n    function _remove(uint id) internal\n    onlyContestExist(id)\n    onlyContestOwner(id)\n    onlyContestInState(id, IContests.ContestState.CREATED) {\n        ids.remove(id);\n        addressToContests[msg.sender].remove(id);\n        delete contests[id];\n    }\n\n    function add(IContest calldata contest) external\n    onlyContestAdmin()\n    timeQualified(contest) {\n        ids.add(nextId);\n        addressToContests[msg.sender].add(nextId);\n        contests[nextId] = Contest(nextId, contest, msg.sender, ContestState.CREATED, block.timestamp);\n        nextId++;\n    }\n\n    function update(uint id, IContest calldata contest) external\n    onlyContestExist(id)\n    onlyContestOwner(id)\n    onlyContestInState(id, IContests.ContestState.CREATED)\n    timeQualified(contest) {\n        contests[id].info = contest;\n    }\n\n    function removes(uint [] memory _ids) external {\n        for (uint i = 0; i < _ids.length; i++) {\n            _remove(_ids[i]);\n        }\n    }\n\n    function contestInState(uint id, IContests.ContestState state) external returns (bool) {\n        _updateState(id);\n        return contests[id].state == state;\n    }\n\n    function getContest(uint id) external view returns (Contest memory) {\n        return contests[id];\n    }\n\n    function getMyContestIds() external view returns (uint [] memory){\n        return addressToContests[msg.sender].values();\n    }\n\n    function getCount() external view returns (uint) {\n        return ids.length();\n    }\n\n    function get(uint index) external view returns (Contest memory) {\n        return contests[ids.at(index)];\n    }\n\n    modifier onlyContestExist(uint id){\n        require(ids.contains(id), \"contest does not exist\");\n        _;\n    }\n\n    modifier onlyContestAdmin() {\n        require(AccessControl.hasRole(keccak256(\"CONTEST_ADMIN\"), msg.sender), \"only contest admin\");\n        _;\n    }\n\n    modifier onlyContestOwner(uint id){\n        require(contests[id].owner == msg.sender, \"only contest owner\");\n        _;\n    }\n\n    modifier onlyContestInState(uint id, IContests.ContestState state){\n        _updateState(id);\n        require(contests[id].state == state, \"wrong contest state\");\n        _;\n    }\n\n    modifier timeQualified(IContest calldata contest){\n        require(contest.start > block.timestamp, \"can only add contest at a future date\");\n        require(contest.commitEnd > contest.start, \"can only add contest if commit end after start\");\n        require(contest.revealEnd > contest.commitEnd, \"can only add contest if reveal end after commit end\");\n        _;\n    }\n}",
  "sourcePath": "/Users/yhy/Code/GitHub/DCTF/contracts/Contests.sol",
  "compiler": {
    "name": "solc",
    "version": "0.8.10+commit.fc410830.Emscripten.clang"
  },
  "schemaVersion": "3.4.4",
  "updatedAt": "2022-02-28T05:09:36.739Z",
  "networkType": "ethereum",
  "devdoc": {
    "kind": "dev",
    "methods": {},
    "version": 1
  },
  "userdoc": {
    "kind": "user",
    "methods": {},
    "version": 1
  }
}