{
  "contractName": "ENVs",
  "abi": [
    {
      "inputs": [
        {
          "internalType": "address",
          "name": "_Contests",
          "type": "address"
        }
      ],
      "stateMutability": "nonpayable",
      "type": "constructor"
    },
    {
      "inputs": [],
      "name": "nextId",
      "outputs": [
        {
          "internalType": "uint256",
          "name": "",
          "type": "uint256"
        }
      ],
      "stateMutability": "view",
      "type": "function",
      "constant": true
    },
    {
      "inputs": [
        {
          "internalType": "uint256",
          "name": "contestId",
          "type": "uint256"
        },
        {
          "internalType": "uint256",
          "name": "challengeId",
          "type": "uint256"
        },
        {
          "internalType": "uint256",
          "name": "teamId",
          "type": "uint256"
        },
        {
          "components": [
            {
              "internalType": "string",
              "name": "IP",
              "type": "string"
            },
            {
              "internalType": "uint256",
              "name": "Port",
              "type": "uint256"
            },
            {
              "internalType": "uint256",
              "name": "Flag_SSH_Port",
              "type": "uint256"
            },
            {
              "internalType": "string",
              "name": "Flag_SSH_User_Name",
              "type": "string"
            },
            {
              "internalType": "string",
              "name": "Flag_SSH_Password",
              "type": "string"
            }
          ],
          "internalType": "struct IENVs.IENV",
          "name": "env",
          "type": "tuple"
        }
      ],
      "name": "add",
      "outputs": [],
      "stateMutability": "nonpayable",
      "type": "function"
    },
    {
      "inputs": [
        {
          "internalType": "uint256",
          "name": "contestId",
          "type": "uint256"
        },
        {
          "internalType": "uint256",
          "name": "id",
          "type": "uint256"
        },
        {
          "components": [
            {
              "internalType": "string",
              "name": "IP",
              "type": "string"
            },
            {
              "internalType": "uint256",
              "name": "Port",
              "type": "uint256"
            },
            {
              "internalType": "uint256",
              "name": "Flag_SSH_Port",
              "type": "uint256"
            },
            {
              "internalType": "string",
              "name": "Flag_SSH_User_Name",
              "type": "string"
            },
            {
              "internalType": "string",
              "name": "Flag_SSH_Password",
              "type": "string"
            }
          ],
          "internalType": "struct IENVs.IENV",
          "name": "env",
          "type": "tuple"
        }
      ],
      "name": "update",
      "outputs": [],
      "stateMutability": "nonpayable",
      "type": "function"
    },
    {
      "inputs": [
        {
          "internalType": "uint256",
          "name": "contestId",
          "type": "uint256"
        },
        {
          "internalType": "uint256[]",
          "name": "_ids",
          "type": "uint256[]"
        }
      ],
      "name": "removes",
      "outputs": [],
      "stateMutability": "nonpayable",
      "type": "function"
    },
    {
      "inputs": [
        {
          "internalType": "uint256",
          "name": "contestId",
          "type": "uint256"
        }
      ],
      "name": "getContestENVIds",
      "outputs": [
        {
          "internalType": "uint256[]",
          "name": "",
          "type": "uint256[]"
        }
      ],
      "stateMutability": "view",
      "type": "function",
      "constant": true
    },
    {
      "inputs": [
        {
          "internalType": "uint256",
          "name": "challengeId",
          "type": "uint256"
        },
        {
          "internalType": "uint256",
          "name": "teamId",
          "type": "uint256"
        }
      ],
      "name": "getChallengeTeamENVId",
      "outputs": [
        {
          "internalType": "uint256",
          "name": "",
          "type": "uint256"
        }
      ],
      "stateMutability": "view",
      "type": "function",
      "constant": true
    },
    {
      "inputs": [
        {
          "internalType": "uint256",
          "name": "id",
          "type": "uint256"
        }
      ],
      "name": "getENV",
      "outputs": [
        {
          "components": [
            {
              "internalType": "uint256",
              "name": "id",
              "type": "uint256"
            },
            {
              "internalType": "uint256",
              "name": "contestId",
              "type": "uint256"
            },
            {
              "internalType": "uint256",
              "name": "challengeId",
              "type": "uint256"
            },
            {
              "internalType": "uint256",
              "name": "teamId",
              "type": "uint256"
            },
            {
              "components": [
                {
                  "internalType": "string",
                  "name": "IP",
                  "type": "string"
                },
                {
                  "internalType": "uint256",
                  "name": "Port",
                  "type": "uint256"
                },
                {
                  "internalType": "uint256",
                  "name": "Flag_SSH_Port",
                  "type": "uint256"
                },
                {
                  "internalType": "string",
                  "name": "Flag_SSH_User_Name",
                  "type": "string"
                },
                {
                  "internalType": "string",
                  "name": "Flag_SSH_Password",
                  "type": "string"
                }
              ],
              "internalType": "struct IENVs.IENV",
              "name": "info",
              "type": "tuple"
            },
            {
              "internalType": "uint256",
              "name": "timeStamp",
              "type": "uint256"
            }
          ],
          "internalType": "struct IENVs.ENV",
          "name": "",
          "type": "tuple"
        }
      ],
      "stateMutability": "view",
      "type": "function",
      "constant": true
    },
    {
      "inputs": [],
      "name": "getCount",
      "outputs": [
        {
          "internalType": "uint256",
          "name": "",
          "type": "uint256"
        }
      ],
      "stateMutability": "view",
      "type": "function",
      "constant": true
    },
    {
      "inputs": [
        {
          "internalType": "uint256",
          "name": "index",
          "type": "uint256"
        }
      ],
      "name": "get",
      "outputs": [
        {
          "components": [
            {
              "internalType": "uint256",
              "name": "id",
              "type": "uint256"
            },
            {
              "internalType": "uint256",
              "name": "contestId",
              "type": "uint256"
            },
            {
              "internalType": "uint256",
              "name": "challengeId",
              "type": "uint256"
            },
            {
              "internalType": "uint256",
              "name": "teamId",
              "type": "uint256"
            },
            {
              "components": [
                {
                  "internalType": "string",
                  "name": "IP",
                  "type": "string"
                },
                {
                  "internalType": "uint256",
                  "name": "Port",
                  "type": "uint256"
                },
                {
                  "internalType": "uint256",
                  "name": "Flag_SSH_Port",
                  "type": "uint256"
                },
                {
                  "internalType": "string",
                  "name": "Flag_SSH_User_Name",
                  "type": "string"
                },
                {
                  "internalType": "string",
                  "name": "Flag_SSH_Password",
                  "type": "string"
                }
              ],
              "internalType": "struct IENVs.IENV",
              "name": "info",
              "type": "tuple"
            },
            {
              "internalType": "uint256",
              "name": "timeStamp",
              "type": "uint256"
            }
          ],
          "internalType": "struct IENVs.ENV",
          "name": "",
          "type": "tuple"
        }
      ],
      "stateMutability": "view",
      "type": "function",
      "constant": true
    }
  ],
  "bytecode": "0x608060405260016004553480156200001657600080fd5b50604051620027e8380380620027e883398181016040528101906200003c9190620000ed565b806000806101000a81548173ffffffffffffffffffffffffffffffffffffffff021916908373ffffffffffffffffffffffffffffffffffffffff160217905550506200011f565b600080fd5b600073ffffffffffffffffffffffffffffffffffffffff82169050919050565b6000620000b58262000088565b9050919050565b620000c781620000a8565b8114620000d357600080fd5b50565b600081519050620000e781620000bc565b92915050565b60006020828403121562000106576200010562000083565b5b60006200011684828501620000d6565b91505092915050565b6126b9806200012f6000396000f3fe608060405234801561001057600080fd5b50600436106100935760003560e01c8063a87d942c11610066578063a87d942c14610132578063bddfa12214610150578063c2b5b5811461016c578063f2236c291461019c578063fc1c56d1146101b857610093565b80630ba5a474146100985780631dff8428146100c857806361b8ce8c146100e45780639507d39a14610102575b600080fd5b6100b260048036038101906100ad9190611436565b6101e8565b6040516100bf9190611485565b60405180910390f35b6100e260048036038101906100dd91906114c4565b610217565b005b6100ec610592565b6040516100f99190611485565b60405180910390f35b61011c60048036038101906101179190611547565b610598565b6040516101299190611729565b60405180910390f35b61013a6107e8565b6040516101479190611485565b60405180910390f35b61016a60048036038101906101659190611893565b6107f9565b005b61018660048036038101906101819190611547565b610a3c565b604051610193919061199e565b60405180910390f35b6101b660048036038101906101b191906119c0565b610a60565b005b6101d260048036038101906101cd9190611547565b610c86565b6040516101df9190611729565b60405180910390f35b600060056000848152602001908152602001600020600083815260200190815260200160002054905092915050565b8360008060009054906101000a900473ffffffffffffffffffffffffffffffffffffffff1673ffffffffffffffffffffffffffffffffffffffff1663904b9f72836040518263ffffffff1660e01b81526004016102749190611485565b600060405180830381865afa158015610291573d6000803e3d6000fd5b505050506040513d6000823e3d601f19601f820116820180604052508101906102ba9190611d27565b90503373ffffffffffffffffffffffffffffffffffffffff16816040015173ffffffffffffffffffffffffffffffffffffffff161461032e576040517f08c379a000000000000000000000000000000000000000000000000000000000815260040161032590611dcd565b60405180910390fd5b85600260008054906101000a900473ffffffffffffffffffffffffffffffffffffffff1673ffffffffffffffffffffffffffffffffffffffff1663434e540b83836040518363ffffffff1660e01b815260040161038c929190611e64565b6020604051808303816000875af11580156103ab573d6000803e3d6000fd5b505050506040513d601f19601f820116820180604052508101906103cf9190611ec5565b61040e576040517f08c379a000000000000000000000000000000000000000000000000000000000815260040161040590611f3e565b60405180910390fd5b6104246004546001610ec390919063ffffffff16565b5061044c600454600660008b8152602001908152602001600020610ec390919063ffffffff16565b50600454600560008981526020019081526020016000206000888152602001908152602001600020819055506040518060c001604052806004548152602001898152602001888152602001878152602001866104a7906120bd565b81526020014281525060036000600454815260200190815260200160002060008201518160000155602082015181600101556040820151816002015560608201518160030155608082015181600401600082015181600001908051906020019061051292919061129e565b506020820151816001015560408201518160020155606082015181600301908051906020019061054392919061129e565b50608082015181600401908051906020019061056092919061129e565b50505060a0820151816009015590505060046000815480929190610583906120ff565b91905055505050505050505050565b60045481565b6105a0611324565b600360006105b8846001610edd90919063ffffffff16565b81526020019081526020016000206040518060c001604052908160008201548152602001600182015481526020016002820154815260200160038201548152602001600482016040518060a001604052908160008201805461061990612177565b80601f016020809104026020016040519081016040528092919081815260200182805461064590612177565b80156106925780601f1061066757610100808354040283529160200191610692565b820191906000526020600020905b81548152906001019060200180831161067557829003601f168201915b5050505050815260200160018201548152602001600282015481526020016003820180546106bf90612177565b80601f01602080910402602001604051908101604052809291908181526020018280546106eb90612177565b80156107385780601f1061070d57610100808354040283529160200191610738565b820191906000526020600020905b81548152906001019060200180831161071b57829003601f168201915b5050505050815260200160048201805461075190612177565b80601f016020809104026020016040519081016040528092919081815260200182805461077d90612177565b80156107ca5780601f1061079f576101008083540402835291602001916107ca565b820191906000526020600020905b8154815290600101906020018083116107ad57829003601f168201915b50505050508152505081526020016009820154815250509050919050565b60006107f46001610ef7565b905090565b8160008060009054906101000a900473ffffffffffffffffffffffffffffffffffffffff1673ffffffffffffffffffffffffffffffffffffffff1663904b9f72836040518263ffffffff1660e01b81526004016108569190611485565b600060405180830381865afa158015610873573d6000803e3d6000fd5b505050506040513d6000823e3d601f19601f8201168201806040525081019061089c9190611d27565b90503373ffffffffffffffffffffffffffffffffffffffff16816040015173ffffffffffffffffffffffffffffffffffffffff1614610910576040517f08c379a000000000000000000000000000000000000000000000000000000000815260040161090790611dcd565b60405180910390fd5b83600260008054906101000a900473ffffffffffffffffffffffffffffffffffffffff1673ffffffffffffffffffffffffffffffffffffffff1663434e540b83836040518363ffffffff1660e01b815260040161096e929190611e64565b6020604051808303816000875af115801561098d573d6000803e3d6000fd5b505050506040513d601f19601f820116820180604052508101906109b19190611ec5565b6109f0576040517f08c379a00000000000000000000000000000000000000000000000000000000081526004016109e790611f3e565b60405180910390fd5b60005b8551811015610a3357610a2087878381518110610a1357610a126121a9565b5b6020026020010151610f0c565b8080610a2b906120ff565b9150506109f3565b50505050505050565b6060610a5960066000848152602001908152602001600020611024565b9050919050565b8260008060009054906101000a900473ffffffffffffffffffffffffffffffffffffffff1673ffffffffffffffffffffffffffffffffffffffff1663904b9f72836040518263ffffffff1660e01b8152600401610abd9190611485565b600060405180830381865afa158015610ada573d6000803e3d6000fd5b505050506040513d6000823e3d601f19601f82011682018060405250810190610b039190611d27565b90503373ffffffffffffffffffffffffffffffffffffffff16816040015173ffffffffffffffffffffffffffffffffffffffff1614610b77576040517f08c379a0000000000000000000000000000000000000000000000000000000008152600401610b6e90611dcd565b60405180910390fd5b84600260008054906101000a900473ffffffffffffffffffffffffffffffffffffffff1673ffffffffffffffffffffffffffffffffffffffff1663434e540b83836040518363ffffffff1660e01b8152600401610bd5929190611e64565b6020604051808303816000875af1158015610bf4573d6000803e3d6000fd5b505050506040513d601f19601f82011682018060405250810190610c189190611ec5565b610c57576040517f08c379a0000000000000000000000000000000000000000000000000000000008152600401610c4e90611f3e565b60405180910390fd5b84600360008881526020019081526020016000206004018181610c7a9190612612565b90505050505050505050565b610c8e611324565b600360008381526020019081526020016000206040518060c001604052908160008201548152602001600182015481526020016002820154815260200160038201548152602001600482016040518060a0016040529081600082018054610cf490612177565b80601f0160208091040260200160405190810160405280929190818152602001828054610d2090612177565b8015610d6d5780601f10610d4257610100808354040283529160200191610d6d565b820191906000526020600020905b815481529060010190602001808311610d5057829003601f168201915b505050505081526020016001820154815260200160028201548152602001600382018054610d9a90612177565b80601f0160208091040260200160405190810160405280929190818152602001828054610dc690612177565b8015610e135780601f10610de857610100808354040283529160200191610e13565b820191906000526020600020905b815481529060010190602001808311610df657829003601f168201915b50505050508152602001600482018054610e2c90612177565b80601f0160208091040260200160405190810160405280929190818152602001828054610e5890612177565b8015610ea55780601f10610e7a57610100808354040283529160200191610ea5565b820191906000526020600020905b815481529060010190602001808311610e8857829003601f168201915b50505050508152505081526020016009820154815250509050919050565b6000610ed5836000018360001b611045565b905092915050565b6000610eec83600001836110b5565b60001c905092915050565b6000610f05826000016110e0565b9050919050565b610f208160016110f190919063ffffffff16565b50610f4681600660008581526020019081526020016000206110f190919063ffffffff16565b50600560006003600084815260200190815260200160002060020154815260200190815260200160002060006003600084815260200190815260200160002060030154815260200190815260200160002060009055600360008281526020019081526020016000206000808201600090556001820160009055600282016000905560038201600090556004820160008082016000610fe49190611360565b600182016000905560028201600090556003820160006110049190611360565b6004820160006110149190611360565b5050600982016000905550505050565b606060006110348360000161110b565b905060608190508092505050919050565b60006110518383611167565b6110aa5782600001829080600181540180825580915050600190039060005260206000200160009091909190915055826000018054905083600101600084815260200190815260200160002081905550600190506110af565b600090505b92915050565b60008260000182815481106110cd576110cc6121a9565b5b9060005260206000200154905092915050565b600081600001805490509050919050565b6000611103836000018360001b61118a565b905092915050565b60608160000180548060200260200160405190810160405280929190818152602001828054801561115b57602002820191906000526020600020905b815481526020019060010190808311611147575b50505050509050919050565b600080836001016000848152602001908152602001600020541415905092915050565b600080836001016000848152602001908152602001600020549050600081146112925760006001826111bc9190612620565b90506000600186600001805490506111d49190612620565b90508181146112435760008660000182815481106111f5576111f46121a9565b5b9060005260206000200154905080876000018481548110611219576112186121a9565b5b90600052602060002001819055508387600101600083815260200190815260200160002081905550505b8560000180548061125757611256612654565b5b600190038181906000526020600020016000905590558560010160008681526020019081526020016000206000905560019350505050611298565b60009150505b92915050565b8280546112aa90612177565b90600052602060002090601f0160209004810192826112cc5760008555611313565b82601f106112e557805160ff1916838001178555611313565b82800160010185558215611313579182015b828111156113125782518255916020019190600101906112f7565b5b50905061132091906113a0565b5090565b6040518060c00160405280600081526020016000815260200160008152602001600081526020016113536113bd565b8152602001600081525090565b50805461136c90612177565b6000825580601f1061137e575061139d565b601f01602090049060005260206000209081019061139c91906113a0565b5b50565b5b808211156113b95760008160009055506001016113a1565b5090565b6040518060a0016040528060608152602001600081526020016000815260200160608152602001606081525090565b6000604051905090565b600080fd5b600080fd5b6000819050919050565b61141381611400565b811461141e57600080fd5b50565b6000813590506114308161140a565b92915050565b6000806040838503121561144d5761144c6113f6565b5b600061145b85828601611421565b925050602061146c85828601611421565b9150509250929050565b61147f81611400565b82525050565b600060208201905061149a6000830184611476565b92915050565b600080fd5b600060a082840312156114bb576114ba6114a0565b5b81905092915050565b600080600080608085870312156114de576114dd6113f6565b5b60006114ec87828801611421565b94505060206114fd87828801611421565b935050604061150e87828801611421565b925050606085013567ffffffffffffffff81111561152f5761152e6113fb565b5b61153b878288016114a5565b91505092959194509250565b60006020828403121561155d5761155c6113f6565b5b600061156b84828501611421565b91505092915050565b61157d81611400565b82525050565b600081519050919050565b600082825260208201905092915050565b60005b838110156115bd5780820151818401526020810190506115a2565b838111156115cc576000848401525b50505050565b6000601f19601f8301169050919050565b60006115ee82611583565b6115f8818561158e565b935061160881856020860161159f565b611611816115d2565b840191505092915050565b600060a083016000830151848203600086015261163982826115e3565b915050602083015161164e6020860182611574565b5060408301516116616040860182611574565b506060830151848203606086015261167982826115e3565b9150506080830151848203608086015261169382826115e3565b9150508091505092915050565b600060c0830160008301516116b86000860182611574565b5060208301516116cb6020860182611574565b5060408301516116de6040860182611574565b5060608301516116f16060860182611574565b5060808301518482036080860152611709828261161c565b91505060a083015161171e60a0860182611574565b508091505092915050565b6000602082019050818103600083015261174381846116a0565b905092915050565b600080fd5b7f4e487b7100000000000000000000000000000000000000000000000000000000600052604160045260246000fd5b611788826115d2565b810181811067ffffffffffffffff821117156117a7576117a6611750565b5b80604052505050565b60006117ba6113ec565b90506117c6828261177f565b919050565b600067ffffffffffffffff8211156117e6576117e5611750565b5b602082029050602081019050919050565b600080fd5b600061180f61180a846117cb565b6117b0565b90508083825260208201905060208402830185811115611832576118316117f7565b5b835b8181101561185b57806118478882611421565b845260208401935050602081019050611834565b5050509392505050565b600082601f83011261187a5761187961174b565b5b813561188a8482602086016117fc565b91505092915050565b600080604083850312156118aa576118a96113f6565b5b60006118b885828601611421565b925050602083013567ffffffffffffffff8111156118d9576118d86113fb565b5b6118e585828601611865565b9150509250929050565b600081519050919050565b600082825260208201905092915050565b6000819050602082019050919050565b60006119278383611574565b60208301905092915050565b6000602082019050919050565b600061194b826118ef565b61195581856118fa565b93506119608361190b565b8060005b83811015611991578151611978888261191b565b975061198383611933565b925050600181019050611964565b5085935050505092915050565b600060208201905081810360008301526119b88184611940565b905092915050565b6000806000606084860312156119d9576119d86113f6565b5b60006119e786828701611421565b93505060206119f886828701611421565b925050604084013567ffffffffffffffff811115611a1957611a186113fb565b5b611a25868287016114a5565b9150509250925092565b600080fd5b600080fd5b600081519050611a488161140a565b92915050565b600080fd5b600067ffffffffffffffff821115611a6e57611a6d611750565b5b611a77826115d2565b9050602081019050919050565b6000611a97611a9284611a53565b6117b0565b905082815260208101848484011115611ab357611ab2611a4e565b5b611abe84828561159f565b509392505050565b600082601f830112611adb57611ada61174b565b5b8151611aeb848260208601611a84565b91505092915050565b600060e08284031215611b0a57611b09611a2f565b5b611b1460e06117b0565b9050600082015167ffffffffffffffff811115611b3457611b33611a34565b5b611b4084828501611ac6565b600083015250602082015167ffffffffffffffff811115611b6457611b63611a34565b5b611b7084828501611ac6565b6020830152506040611b8484828501611a39565b6040830152506060611b9884828501611a39565b6060830152506080611bac84828501611a39565b60808301525060a0611bc084828501611a39565b60a08301525060c082015167ffffffffffffffff811115611be457611be3611a34565b5b611bf084828501611ac6565b60c08301525092915050565b600073ffffffffffffffffffffffffffffffffffffffff82169050919050565b6000611c2782611bfc565b9050919050565b611c3781611c1c565b8114611c4257600080fd5b50565b600081519050611c5481611c2e565b92915050565b60058110611c6757600080fd5b50565b600081519050611c7981611c5a565b92915050565b600060a08284031215611c9557611c94611a2f565b5b611c9f60a06117b0565b90506000611caf84828501611a39565b600083015250602082015167ffffffffffffffff811115611cd357611cd2611a34565b5b611cdf84828501611af4565b6020830152506040611cf384828501611c45565b6040830152506060611d0784828501611c6a565b6060830152506080611d1b84828501611a39565b60808301525092915050565b600060208284031215611d3d57611d3c6113f6565b5b600082015167ffffffffffffffff811115611d5b57611d5a6113fb565b5b611d6784828501611c7f565b91505092915050565b600082825260208201905092915050565b7f6f6e6c7920636f6e74657374206f776e65720000000000000000000000000000600082015250565b6000611db7601283611d70565b9150611dc282611d81565b602082019050919050565b60006020820190508181036000830152611de681611daa565b9050919050565b7f4e487b7100000000000000000000000000000000000000000000000000000000600052602160045260246000fd5b60058110611e2d57611e2c611ded565b5b50565b6000819050611e3e82611e1c565b919050565b6000611e4e82611e30565b9050919050565b611e5e81611e43565b82525050565b6000604082019050611e796000830185611476565b611e866020830184611e55565b9392505050565b60008115159050919050565b611ea281611e8d565b8114611ead57600080fd5b50565b600081519050611ebf81611e99565b92915050565b600060208284031215611edb57611eda6113f6565b5b6000611ee984828501611eb0565b91505092915050565b7f77726f6e6720636f6e7465737420737461746500000000000000000000000000600082015250565b6000611f28601383611d70565b9150611f3382611ef2565b602082019050919050565b60006020820190508181036000830152611f5781611f1b565b9050919050565b82818337600083830152505050565b6000611f80611f7b84611a53565b6117b0565b905082815260208101848484011115611f9c57611f9b611a4e565b5b611fa7848285611f5e565b509392505050565b600082601f830112611fc457611fc361174b565b5b8135611fd4848260208601611f6d565b91505092915050565b600060a08284031215611ff357611ff2611a2f565b5b611ffd60a06117b0565b9050600082013567ffffffffffffffff81111561201d5761201c611a34565b5b61202984828501611faf565b600083015250602061203d84828501611421565b602083015250604061205184828501611421565b604083015250606082013567ffffffffffffffff81111561207557612074611a34565b5b61208184828501611faf565b606083015250608082013567ffffffffffffffff8111156120a5576120a4611a34565b5b6120b184828501611faf565b60808301525092915050565b60006120c93683611fdd565b9050919050565b7f4e487b7100000000000000000000000000000000000000000000000000000000600052601160045260246000fd5b600061210a82611400565b91507fffffffffffffffffffffffffffffffffffffffffffffffffffffffffffffffff82141561213d5761213c6120d0565b5b600182019050919050565b7f4e487b7100000000000000000000000000000000000000000000000000000000600052602260045260246000fd5b6000600282049050600182168061218f57607f821691505b602082108114156121a3576121a2612148565b5b50919050565b7f4e487b7100000000000000000000000000000000000000000000000000000000600052603260045260246000fd5b600080fd5b600080fd5b600080fd5b60008083356001602003843603038112612204576122036121d8565b5b80840192508235915067ffffffffffffffff821115612226576122256121dd565b5b602083019250600182023603831315612242576122416121e2565b5b509250929050565b600082905092915050565b60008190508160005260206000209050919050565b60006020601f8301049050919050565b600082821b905092915050565b6000600883026122b77fffffffffffffffffffffffffffffffffffffffffffffffffffffffffffffffff8261227a565b6122c1868361227a565b95508019841693508086168417925050509392505050565b6000819050919050565b60006122fe6122f96122f484611400565b6122d9565b611400565b9050919050565b6000819050919050565b612318836122e3565b61232c61232482612305565b848454612287565b825550505050565b600090565b612341612334565b61234c81848461230f565b505050565b5b8181101561237057612365600082612339565b600181019050612352565b5050565b601f8211156123b55761238681612255565b61238f8461226a565b8101602085101561239e578190505b6123b26123aa8561226a565b830182612351565b50505b505050565b600082821c905092915050565b60006123d8600019846008026123ba565b1980831691505092915050565b60006123f183836123c7565b9150826002028217905092915050565b61240b838361224a565b67ffffffffffffffff81111561242457612423611750565b5b61242e8254612177565b612439828285612374565b6000601f8311600181146124685760008415612456578287013590505b61246085826123e5565b8655506124c8565b601f19841661247686612255565b60005b8281101561249e57848901358255600182019150602085019450602081019050612479565b868310156124bb57848901356124b7601f8916826123c7565b8355505b6001600288020188555050505b50505050505050565b6124dc838383612401565b505050565b600081356124ee8161140a565b80915050919050565b60008160001b9050919050565b60007fffffffffffffffffffffffffffffffffffffffffffffffffffffffffffffffff612530846124f7565b9350801983169250808416831791505092915050565b61254f826122e3565b61256261255b82612305565b8354612504565b8255505050565b600081016000830161257b81856121e7565b6125868183866124d1565b5050505060018101602083018061259c816124e1565b90506125a88184612546565b5050506002810160408301806125bd816124e1565b90506125c98184612546565b50505060038101606083016125de81856121e7565b6125e98183866124d1565b5050505060048101608083016125ff81856121e7565b61260a8183866124d1565b505050505050565b61261c8282612569565b5050565b600061262b82611400565b915061263683611400565b925082821015612649576126486120d0565b5b828203905092915050565b7f4e487b7100000000000000000000000000000000000000000000000000000000600052603160045260246000fdfea264697066735822122096a784082d216eb4c66e7dda882ade89d56c6aa541b874903d8fcf857ccfc5f364736f6c634300080a0033",
  "immutableReferences": {},
  "source": "// SPDX-License-Identifier: MIT\npragma solidity ^0.8.10;\npragma experimental ABIEncoderV2;\n\nimport \"@openzeppelin/contracts/utils/structs/EnumerableSet.sol\";\nimport \"./IContests.sol\";\nimport \"./IENVs.sol\";\n\ncontract ENVs is IENVs {\n\n    using EnumerableSet for EnumerableSet.UintSet;\n\n    IContests Contests;\n\n    constructor(address _Contests) {\n        Contests = IContests(_Contests);\n    }\n\n    EnumerableSet.UintSet ids;\n    mapping(uint => ENV) envs;\n    uint public nextId = 1;\n\n    // challengeId + teamId => ENVId\n    mapping(uint => mapping(uint => uint)) teamEnv;\n    mapping(uint => EnumerableSet.UintSet) contestEnvs;\n\n    function _remove(uint contestId, uint id) internal {\n        ids.remove(id);\n        contestEnvs[contestId].remove(id);\n        delete teamEnv[envs[id].challengeId][envs[id].teamId];\n        delete envs[id];\n    }\n\n    function add(uint contestId, uint challengeId, uint teamId, IENV calldata env) external\n    onlyContestOwner(contestId)\n    onlyContestInState(contestId, IContests.ContestState.STARTED){\n        ids.add(nextId);\n        contestEnvs[contestId].add(nextId);\n        teamEnv[challengeId][teamId] = nextId;\n        envs[nextId] = ENV(nextId, contestId, challengeId, teamId, env, block.timestamp);\n        nextId++;\n    }\n\n    function update(uint contestId, uint id, IENV calldata env) external\n    onlyContestOwner(contestId)\n    onlyContestInState(contestId, IContests.ContestState.STARTED){\n        envs[id].info = env;\n    }\n\n    function removes(uint contestId, uint [] memory _ids) external\n    onlyContestOwner(contestId)\n    onlyContestInState(contestId, IContests.ContestState.STARTED){\n        for (uint i = 0; i < _ids.length; i++) {\n            _remove(contestId,_ids[i]);\n        }\n    }\n\n    function getContestENVIds(uint contestId) external view returns(uint [] memory) {\n        return contestEnvs[contestId].values();\n    }\n\n    function getChallengeTeamENVId(uint challengeId, uint teamId) external view returns (uint){\n        return teamEnv[challengeId][teamId];\n    }\n\n    function getENV(uint id) external view returns (ENV memory){\n        return envs[id];\n    }\n\n    function getCount() external view returns (uint){\n        return ids.length();\n    }\n\n    function get(uint index) external view returns (ENV memory){\n        return envs[ids.at(index)];\n    }\n\n    modifier onlyContestOwner(uint contestId){\n        IContests.Contest memory contest = Contests.getContest(contestId);\n        require(contest.owner == msg.sender, \"only contest owner\");\n        _;\n    }\n    modifier onlyContestInState(uint contestId, IContests.ContestState state){\n        require(Contests.contestInState(contestId, state), \"wrong contest state\");\n        _;\n    }\n\n}",
  "sourcePath": "/Users/yhy/Code/GitHub/DCTF/contracts/ENVs.sol",
  "compiler": {
    "name": "solc",
    "version": "0.8.10+commit.fc410830.Emscripten.clang"
  },
  "schemaVersion": "3.4.4",
  "updatedAt": "2022-03-02T11:00:11.133Z",
  "networkType": "ethereum",
  "devdoc": {
    "kind": "dev",
    "methods": {},
    "version": 1
  },
  "userdoc": {
    "kind": "user",
    "methods": {},
    "version": 1
  }
}