{
  "contractName": "GameBoxes",
  "abi": [
    {
      "inputs": [
        {
          "internalType": "address",
          "name": "_Contests",
          "type": "address"
        },
        {
          "internalType": "address",
          "name": "_Challenges",
          "type": "address"
        },
        {
          "internalType": "address",
          "name": "_Teams",
          "type": "address"
        }
      ],
      "stateMutability": "nonpayable",
      "type": "constructor"
    },
    {
      "inputs": [],
      "name": "nextId",
      "outputs": [
        {
          "internalType": "uint256",
          "name": "",
          "type": "uint256"
        }
      ],
      "stateMutability": "view",
      "type": "function",
      "constant": true
    },
    {
      "inputs": [
        {
          "internalType": "uint256",
          "name": "contestId",
          "type": "uint256"
        },
        {
          "internalType": "uint256",
          "name": "challengeId",
          "type": "uint256"
        },
        {
          "internalType": "uint256",
          "name": "teamId",
          "type": "uint256"
        },
        {
          "components": [
            {
              "internalType": "string",
              "name": "ip",
              "type": "string"
            },
            {
              "internalType": "uint256",
              "name": "port",
              "type": "uint256"
            },
            {
              "internalType": "uint256",
              "name": "Flag_SSH_Port",
              "type": "uint256"
            },
            {
              "internalType": "string",
              "name": "Flag_SSH_User_Name",
              "type": "string"
            },
            {
              "internalType": "string",
              "name": "Flag_SSH_Password",
              "type": "string"
            }
          ],
          "internalType": "struct IGameBoxes.IGameBox",
          "name": "gameBox",
          "type": "tuple"
        }
      ],
      "name": "add",
      "outputs": [],
      "stateMutability": "nonpayable",
      "type": "function"
    },
    {
      "inputs": [
        {
          "internalType": "uint256",
          "name": "contestId",
          "type": "uint256"
        },
        {
          "internalType": "uint256",
          "name": "id",
          "type": "uint256"
        },
        {
          "components": [
            {
              "internalType": "string",
              "name": "ip",
              "type": "string"
            },
            {
              "internalType": "uint256",
              "name": "port",
              "type": "uint256"
            },
            {
              "internalType": "uint256",
              "name": "Flag_SSH_Port",
              "type": "uint256"
            },
            {
              "internalType": "string",
              "name": "Flag_SSH_User_Name",
              "type": "string"
            },
            {
              "internalType": "string",
              "name": "Flag_SSH_Password",
              "type": "string"
            }
          ],
          "internalType": "struct IGameBoxes.IGameBox",
          "name": "gameBox",
          "type": "tuple"
        }
      ],
      "name": "update",
      "outputs": [],
      "stateMutability": "nonpayable",
      "type": "function"
    },
    {
      "inputs": [
        {
          "internalType": "uint256",
          "name": "contestId",
          "type": "uint256"
        },
        {
          "internalType": "uint256[]",
          "name": "_ids",
          "type": "uint256[]"
        }
      ],
      "name": "removes",
      "outputs": [],
      "stateMutability": "nonpayable",
      "type": "function"
    },
    {
      "inputs": [
        {
          "internalType": "uint256",
          "name": "contestId",
          "type": "uint256"
        }
      ],
      "name": "getContestGameBoxIds",
      "outputs": [
        {
          "internalType": "uint256[]",
          "name": "",
          "type": "uint256[]"
        }
      ],
      "stateMutability": "view",
      "type": "function",
      "constant": true
    },
    {
      "inputs": [
        {
          "internalType": "uint256",
          "name": "challengeId",
          "type": "uint256"
        },
        {
          "internalType": "uint256",
          "name": "teamId",
          "type": "uint256"
        }
      ],
      "name": "getChallengeTeamGameBoxId",
      "outputs": [
        {
          "internalType": "uint256",
          "name": "",
          "type": "uint256"
        }
      ],
      "stateMutability": "view",
      "type": "function",
      "constant": true
    },
    {
      "inputs": [
        {
          "internalType": "uint256",
          "name": "id",
          "type": "uint256"
        }
      ],
      "name": "getGameBox",
      "outputs": [
        {
          "components": [
            {
              "internalType": "uint256",
              "name": "id",
              "type": "uint256"
            },
            {
              "internalType": "uint256",
              "name": "contestId",
              "type": "uint256"
            },
            {
              "internalType": "uint256",
              "name": "challengeId",
              "type": "uint256"
            },
            {
              "internalType": "uint256",
              "name": "teamId",
              "type": "uint256"
            },
            {
              "components": [
                {
                  "internalType": "string",
                  "name": "ip",
                  "type": "string"
                },
                {
                  "internalType": "uint256",
                  "name": "port",
                  "type": "uint256"
                },
                {
                  "internalType": "uint256",
                  "name": "Flag_SSH_Port",
                  "type": "uint256"
                },
                {
                  "internalType": "string",
                  "name": "Flag_SSH_User_Name",
                  "type": "string"
                },
                {
                  "internalType": "string",
                  "name": "Flag_SSH_Password",
                  "type": "string"
                }
              ],
              "internalType": "struct IGameBoxes.IGameBox",
              "name": "info",
              "type": "tuple"
            },
            {
              "internalType": "uint256",
              "name": "timeStamp",
              "type": "uint256"
            }
          ],
          "internalType": "struct IGameBoxes.GameBox",
          "name": "",
          "type": "tuple"
        }
      ],
      "stateMutability": "view",
      "type": "function",
      "constant": true
    },
    {
      "inputs": [],
      "name": "getCount",
      "outputs": [
        {
          "internalType": "uint256",
          "name": "",
          "type": "uint256"
        }
      ],
      "stateMutability": "view",
      "type": "function",
      "constant": true
    },
    {
      "inputs": [
        {
          "internalType": "uint256",
          "name": "index",
          "type": "uint256"
        }
      ],
      "name": "get",
      "outputs": [
        {
          "components": [
            {
              "internalType": "uint256",
              "name": "id",
              "type": "uint256"
            },
            {
              "internalType": "uint256",
              "name": "contestId",
              "type": "uint256"
            },
            {
              "internalType": "uint256",
              "name": "challengeId",
              "type": "uint256"
            },
            {
              "internalType": "uint256",
              "name": "teamId",
              "type": "uint256"
            },
            {
              "components": [
                {
                  "internalType": "string",
                  "name": "ip",
                  "type": "string"
                },
                {
                  "internalType": "uint256",
                  "name": "port",
                  "type": "uint256"
                },
                {
                  "internalType": "uint256",
                  "name": "Flag_SSH_Port",
                  "type": "uint256"
                },
                {
                  "internalType": "string",
                  "name": "Flag_SSH_User_Name",
                  "type": "string"
                },
                {
                  "internalType": "string",
                  "name": "Flag_SSH_Password",
                  "type": "string"
                }
              ],
              "internalType": "struct IGameBoxes.IGameBox",
              "name": "info",
              "type": "tuple"
            },
            {
              "internalType": "uint256",
              "name": "timeStamp",
              "type": "uint256"
            }
          ],
          "internalType": "struct IGameBoxes.GameBox",
          "name": "",
          "type": "tuple"
        }
      ],
      "stateMutability": "view",
      "type": "function",
      "constant": true
    }
  ],
  "bytecode": "0x608060405260016006553480156200001657600080fd5b50604051620032743803806200327483398181016040528101906200003c919062000171565b826000806101000a81548173ffffffffffffffffffffffffffffffffffffffff021916908373ffffffffffffffffffffffffffffffffffffffff16021790555080600260006101000a81548173ffffffffffffffffffffffffffffffffffffffff021916908373ffffffffffffffffffffffffffffffffffffffff16021790555081600160006101000a81548173ffffffffffffffffffffffffffffffffffffffff021916908373ffffffffffffffffffffffffffffffffffffffff160217905550505050620001cd565b600080fd5b600073ffffffffffffffffffffffffffffffffffffffff82169050919050565b600062000139826200010c565b9050919050565b6200014b816200012c565b81146200015757600080fd5b50565b6000815190506200016b8162000140565b92915050565b6000806000606084860312156200018d576200018c62000107565b5b60006200019d868287016200015a565b9350506020620001b0868287016200015a565b9250506040620001c3868287016200015a565b9150509250925092565b61309780620001dd6000396000f3fe608060405234801561001057600080fd5b50600436106100935760003560e01c80639507d39a116100665780639507d39a14610132578063a87d942c14610162578063bddfa12214610180578063f2236c291461019c578063f60be59c146101b857610093565b806316caded7146100985780631dff8428146100c857806336675839146100e457806361b8ce8c14610114575b600080fd5b6100b260048036038101906100ad9190611746565b6101e8565b6040516100bf9190611831565b60405180910390f35b6100e260048036038101906100dd9190611877565b61020c565b005b6100fe60048036038101906100f991906118fa565b6107e1565b60405161010b9190611949565b60405180910390f35b61011c610810565b6040516101299190611949565b60405180910390f35b61014c60048036038101906101479190611746565b610816565b6040516101599190611b0a565b60405180910390f35b61016a610a66565b6040516101779190611949565b60405180910390f35b61019a60048036038101906101959190611c74565b610a77565b005b6101b660048036038101906101b19190611cd0565b610cba565b005b6101d260048036038101906101cd9190611746565b610f3b565b6040516101df9190611b0a565b60405180910390f35b606061020560086000848152602001908152602001600020611178565b9050919050565b8360008060009054906101000a900473ffffffffffffffffffffffffffffffffffffffff1673ffffffffffffffffffffffffffffffffffffffff1663904b9f72836040518263ffffffff1660e01b81526004016102699190611949565b600060405180830381865afa158015610286573d6000803e3d6000fd5b505050506040513d6000823e3d601f19601f820116820180604052508101906102af9190612037565b90503373ffffffffffffffffffffffffffffffffffffffff16816040015173ffffffffffffffffffffffffffffffffffffffff1614610323576040517f08c379a000000000000000000000000000000000000000000000000000000000815260040161031a906120dd565b60405180910390fd5b85600260008054906101000a900473ffffffffffffffffffffffffffffffffffffffff1673ffffffffffffffffffffffffffffffffffffffff1663434e540b83836040518363ffffffff1660e01b8152600401610381929190612174565b6020604051808303816000875af11580156103a0573d6000803e3d6000fd5b505050506040513d601f19601f820116820180604052508101906103c491906121d5565b610403576040517f08c379a00000000000000000000000000000000000000000000000000000000081526004016103fa9061224e565b60405180910390fd5b866000600160009054906101000a900473ffffffffffffffffffffffffffffffffffffffff1673ffffffffffffffffffffffffffffffffffffffff16631bdd4b74836040518263ffffffff1660e01b81526004016104619190611949565b600060405180830381865afa15801561047e573d6000803e3d6000fd5b505050506040513d6000823e3d601f19601f820116820180604052508101906104a79190612490565b905060008160000151116104f0576040517f08c379a00000000000000000000000000000000000000000000000000000000081526004016104e790612525565b60405180910390fd5b876000600260009054906101000a900473ffffffffffffffffffffffffffffffffffffffff1673ffffffffffffffffffffffffffffffffffffffff16628e0f1b836040518263ffffffff1660e01b815260040161054d9190611949565b600060405180830381865afa15801561056a573d6000803e3d6000fd5b505050506040513d6000823e3d601f19601f8201168201806040525081019061059391906127af565b905060008160000151116105dc576040517f08c379a00000000000000000000000000000000000000000000000000000000081526004016105d390612844565b60405180910390fd5b600060056000600760008f815260200190815260200160002060008e81526020019081526020016000205481526020019081526020016000206000015414610659576040517f08c379a0000000000000000000000000000000000000000000000000000000008152600401610650906128b0565b60405180910390fd5b61066f600654600361119990919063ffffffff16565b50610697600654600860008f815260200190815260200160002061119990919063ffffffff16565b50600654600760008d815260200190815260200160002060008c8152602001908152602001600020819055506040518060c0016040528060065481526020018d81526020018c81526020018b81526020018a6106f290612a2f565b81526020014281525060056000600654815260200190815260200160002060008201518160000155602082015181600101556040820151816002015560608201518160030155608082015181600401600082015181600001908051906020019061075d9291906115ae565b506020820151816001015560408201518160020155606082015181600301908051906020019061078e9291906115ae565b5060808201518160040190805190602001906107ab9291906115ae565b50505060a08201518160090155905050600660008154809291906107ce90612a71565b9190505550505050505050505050505050565b600060076000848152602001908152602001600020600083815260200190815260200160002054905092915050565b60065481565b61081e611634565b600560006108368460036111b390919063ffffffff16565b81526020019081526020016000206040518060c001604052908160008201548152602001600182015481526020016002820154815260200160038201548152602001600482016040518060a001604052908160008201805461089790612ae9565b80601f01602080910402602001604051908101604052809291908181526020018280546108c390612ae9565b80156109105780601f106108e557610100808354040283529160200191610910565b820191906000526020600020905b8154815290600101906020018083116108f357829003601f168201915b50505050508152602001600182015481526020016002820154815260200160038201805461093d90612ae9565b80601f016020809104026020016040519081016040528092919081815260200182805461096990612ae9565b80156109b65780601f1061098b576101008083540402835291602001916109b6565b820191906000526020600020905b81548152906001019060200180831161099957829003601f168201915b505050505081526020016004820180546109cf90612ae9565b80601f01602080910402602001604051908101604052809291908181526020018280546109fb90612ae9565b8015610a485780601f10610a1d57610100808354040283529160200191610a48565b820191906000526020600020905b815481529060010190602001808311610a2b57829003601f168201915b50505050508152505081526020016009820154815250509050919050565b6000610a7260036111cd565b905090565b8160008060009054906101000a900473ffffffffffffffffffffffffffffffffffffffff1673ffffffffffffffffffffffffffffffffffffffff1663904b9f72836040518263ffffffff1660e01b8152600401610ad49190611949565b600060405180830381865afa158015610af1573d6000803e3d6000fd5b505050506040513d6000823e3d601f19601f82011682018060405250810190610b1a9190612037565b90503373ffffffffffffffffffffffffffffffffffffffff16816040015173ffffffffffffffffffffffffffffffffffffffff1614610b8e576040517f08c379a0000000000000000000000000000000000000000000000000000000008152600401610b85906120dd565b60405180910390fd5b83600260008054906101000a900473ffffffffffffffffffffffffffffffffffffffff1673ffffffffffffffffffffffffffffffffffffffff1663434e540b83836040518363ffffffff1660e01b8152600401610bec929190612174565b6020604051808303816000875af1158015610c0b573d6000803e3d6000fd5b505050506040513d601f19601f82011682018060405250810190610c2f91906121d5565b610c6e576040517f08c379a0000000000000000000000000000000000000000000000000000000008152600401610c659061224e565b60405180910390fd5b60005b8551811015610cb157610c9e87878381518110610c9157610c90612b1b565b5b60200260200101516111e2565b8080610ca990612a71565b915050610c71565b50505050505050565b8260008060009054906101000a900473ffffffffffffffffffffffffffffffffffffffff1673ffffffffffffffffffffffffffffffffffffffff1663904b9f72836040518263ffffffff1660e01b8152600401610d179190611949565b600060405180830381865afa158015610d34573d6000803e3d6000fd5b505050506040513d6000823e3d601f19601f82011682018060405250810190610d5d9190612037565b90503373ffffffffffffffffffffffffffffffffffffffff16816040015173ffffffffffffffffffffffffffffffffffffffff1614610dd1576040517f08c379a0000000000000000000000000000000000000000000000000000000008152600401610dc8906120dd565b60405180910390fd5b84600260008054906101000a900473ffffffffffffffffffffffffffffffffffffffff1673ffffffffffffffffffffffffffffffffffffffff1663434e540b83836040518363ffffffff1660e01b8152600401610e2f929190612174565b6020604051808303816000875af1158015610e4e573d6000803e3d6000fd5b505050506040513d601f19601f82011682018060405250810190610e7291906121d5565b610eb1576040517f08c379a0000000000000000000000000000000000000000000000000000000008152600401610ea89061224e565b60405180910390fd5b856000600560008381526020019081526020016000206000015411610f0b576040517f08c379a0000000000000000000000000000000000000000000000000000000008152600401610f0290612b96565b60405180910390fd5b85600560008981526020019081526020016000206004018181610f2e9190612ff0565b9050505050505050505050565b610f43611634565b600560008381526020019081526020016000206040518060c001604052908160008201548152602001600182015481526020016002820154815260200160038201548152602001600482016040518060a0016040529081600082018054610fa990612ae9565b80601f0160208091040260200160405190810160405280929190818152602001828054610fd590612ae9565b80156110225780601f10610ff757610100808354040283529160200191611022565b820191906000526020600020905b81548152906001019060200180831161100557829003601f168201915b50505050508152602001600182015481526020016002820154815260200160038201805461104f90612ae9565b80601f016020809104026020016040519081016040528092919081815260200182805461107b90612ae9565b80156110c85780601f1061109d576101008083540402835291602001916110c8565b820191906000526020600020905b8154815290600101906020018083116110ab57829003601f168201915b505050505081526020016004820180546110e190612ae9565b80601f016020809104026020016040519081016040528092919081815260200182805461110d90612ae9565b801561115a5780601f1061112f5761010080835404028352916020019161115a565b820191906000526020600020905b81548152906001019060200180831161113d57829003601f168201915b50505050508152505081526020016009820154815250509050919050565b6060600061118883600001611355565b905060608190508092505050919050565b60006111ab836000018360001b6113b1565b905092915050565b60006111c28360000183611421565b60001c905092915050565b60006111db8260000161144c565b9050919050565b80600060056000838152602001908152602001600020600001541161123c576040517f08c379a000000000000000000000000000000000000000000000000000000000815260040161123390612b96565b60405180910390fd5b61125082600361145d90919063ffffffff16565b50611276826008600086815260200190815260200160002061145d90919063ffffffff16565b506007600060056000858152602001908152602001600020600201548152602001908152602001600020600060056000858152602001908152602001600020600301548152602001908152602001600020600090556005600083815260200190815260200160002060008082016000905560018201600090556002820160009055600382016000905560048201600080820160006113149190611670565b600182016000905560028201600090556003820160006113349190611670565b6004820160006113449190611670565b505060098201600090555050505050565b6060816000018054806020026020016040519081016040528092919081815260200182805480156113a557602002820191906000526020600020905b815481526020019060010190808311611391575b50505050509050919050565b60006113bd8383611477565b61141657826000018290806001815401808255809150506001900390600052602060002001600090919091909150558260000180549050836001016000848152602001908152602001600020819055506001905061141b565b600090505b92915050565b600082600001828154811061143957611438612b1b565b5b9060005260206000200154905092915050565b600081600001805490509050919050565b600061146f836000018360001b61149a565b905092915050565b600080836001016000848152602001908152602001600020541415905092915050565b600080836001016000848152602001908152602001600020549050600081146115a25760006001826114cc9190612ffe565b90506000600186600001805490506114e49190612ffe565b905081811461155357600086600001828154811061150557611504612b1b565b5b906000526020600020015490508087600001848154811061152957611528612b1b565b5b90600052602060002001819055508387600101600083815260200190815260200160002081905550505b8560000180548061156757611566613032565b5b6001900381819060005260206000200160009055905585600101600086815260200190815260200160002060009055600193505050506115a8565b60009150505b92915050565b8280546115ba90612ae9565b90600052602060002090601f0160209004810192826115dc5760008555611623565b82601f106115f557805160ff1916838001178555611623565b82800160010185558215611623579182015b82811115611622578251825591602001919060010190611607565b5b50905061163091906116b0565b5090565b6040518060c00160405280600081526020016000815260200160008152602001600081526020016116636116cd565b8152602001600081525090565b50805461167c90612ae9565b6000825580601f1061168e57506116ad565b601f0160209004906000526020600020908101906116ac91906116b0565b5b50565b5b808211156116c95760008160009055506001016116b1565b5090565b6040518060a0016040528060608152602001600081526020016000815260200160608152602001606081525090565b6000604051905090565b600080fd5b600080fd5b6000819050919050565b61172381611710565b811461172e57600080fd5b50565b6000813590506117408161171a565b92915050565b60006020828403121561175c5761175b611706565b5b600061176a84828501611731565b91505092915050565b600081519050919050565b600082825260208201905092915050565b6000819050602082019050919050565b6117a881611710565b82525050565b60006117ba838361179f565b60208301905092915050565b6000602082019050919050565b60006117de82611773565b6117e8818561177e565b93506117f38361178f565b8060005b8381101561182457815161180b88826117ae565b9750611816836117c6565b9250506001810190506117f7565b5085935050505092915050565b6000602082019050818103600083015261184b81846117d3565b905092915050565b600080fd5b600060a0828403121561186e5761186d611853565b5b81905092915050565b6000806000806080858703121561189157611890611706565b5b600061189f87828801611731565b94505060206118b087828801611731565b93505060406118c187828801611731565b925050606085013567ffffffffffffffff8111156118e2576118e161170b565b5b6118ee87828801611858565b91505092959194509250565b6000806040838503121561191157611910611706565b5b600061191f85828601611731565b925050602061193085828601611731565b9150509250929050565b61194381611710565b82525050565b600060208201905061195e600083018461193a565b92915050565b600081519050919050565b600082825260208201905092915050565b60005b8381101561199e578082015181840152602081019050611983565b838111156119ad576000848401525b50505050565b6000601f19601f8301169050919050565b60006119cf82611964565b6119d9818561196f565b93506119e9818560208601611980565b6119f2816119b3565b840191505092915050565b600060a0830160008301518482036000860152611a1a82826119c4565b9150506020830151611a2f602086018261179f565b506040830151611a42604086018261179f565b5060608301518482036060860152611a5a82826119c4565b91505060808301518482036080860152611a7482826119c4565b9150508091505092915050565b600060c083016000830151611a99600086018261179f565b506020830151611aac602086018261179f565b506040830151611abf604086018261179f565b506060830151611ad2606086018261179f565b5060808301518482036080860152611aea82826119fd565b91505060a0830151611aff60a086018261179f565b508091505092915050565b60006020820190508181036000830152611b248184611a81565b905092915050565b600080fd5b7f4e487b7100000000000000000000000000000000000000000000000000000000600052604160045260246000fd5b611b69826119b3565b810181811067ffffffffffffffff82111715611b8857611b87611b31565b5b80604052505050565b6000611b9b6116fc565b9050611ba78282611b60565b919050565b600067ffffffffffffffff821115611bc757611bc6611b31565b5b602082029050602081019050919050565b600080fd5b6000611bf0611beb84611bac565b611b91565b90508083825260208201905060208402830185811115611c1357611c12611bd8565b5b835b81811015611c3c5780611c288882611731565b845260208401935050602081019050611c15565b5050509392505050565b600082601f830112611c5b57611c5a611b2c565b5b8135611c6b848260208601611bdd565b91505092915050565b60008060408385031215611c8b57611c8a611706565b5b6000611c9985828601611731565b925050602083013567ffffffffffffffff811115611cba57611cb961170b565b5b611cc685828601611c46565b9150509250929050565b600080600060608486031215611ce957611ce8611706565b5b6000611cf786828701611731565b9350506020611d0886828701611731565b925050604084013567ffffffffffffffff811115611d2957611d2861170b565b5b611d3586828701611858565b9150509250925092565b600080fd5b600080fd5b600081519050611d588161171a565b92915050565b600080fd5b600067ffffffffffffffff821115611d7e57611d7d611b31565b5b611d87826119b3565b9050602081019050919050565b6000611da7611da284611d63565b611b91565b905082815260208101848484011115611dc357611dc2611d5e565b5b611dce848285611980565b509392505050565b600082601f830112611deb57611dea611b2c565b5b8151611dfb848260208601611d94565b91505092915050565b600060e08284031215611e1a57611e19611d3f565b5b611e2460e0611b91565b9050600082015167ffffffffffffffff811115611e4457611e43611d44565b5b611e5084828501611dd6565b600083015250602082015167ffffffffffffffff811115611e7457611e73611d44565b5b611e8084828501611dd6565b6020830152506040611e9484828501611d49565b6040830152506060611ea884828501611d49565b6060830152506080611ebc84828501611d49565b60808301525060a0611ed084828501611d49565b60a08301525060c082015167ffffffffffffffff811115611ef457611ef3611d44565b5b611f0084828501611dd6565b60c08301525092915050565b600073ffffffffffffffffffffffffffffffffffffffff82169050919050565b6000611f3782611f0c565b9050919050565b611f4781611f2c565b8114611f5257600080fd5b50565b600081519050611f6481611f3e565b92915050565b60058110611f7757600080fd5b50565b600081519050611f8981611f6a565b92915050565b600060a08284031215611fa557611fa4611d3f565b5b611faf60a0611b91565b90506000611fbf84828501611d49565b600083015250602082015167ffffffffffffffff811115611fe357611fe2611d44565b5b611fef84828501611e04565b602083015250604061200384828501611f55565b604083015250606061201784828501611f7a565b606083015250608061202b84828501611d49565b60808301525092915050565b60006020828403121561204d5761204c611706565b5b600082015167ffffffffffffffff81111561206b5761206a61170b565b5b61207784828501611f8f565b91505092915050565b600082825260208201905092915050565b7f6f6e6c7920636f6e74657374206f776e65720000000000000000000000000000600082015250565b60006120c7601283612080565b91506120d282612091565b602082019050919050565b600060208201905081810360008301526120f6816120ba565b9050919050565b7f4e487b7100000000000000000000000000000000000000000000000000000000600052602160045260246000fd5b6005811061213d5761213c6120fd565b5b50565b600081905061214e8261212c565b919050565b600061215e82612140565b9050919050565b61216e81612153565b82525050565b6000604082019050612189600083018561193a565b6121966020830184612165565b9392505050565b60008115159050919050565b6121b28161219d565b81146121bd57600080fd5b50565b6000815190506121cf816121a9565b92915050565b6000602082840312156121eb576121ea611706565b5b60006121f9848285016121c0565b91505092915050565b7f77726f6e6720636f6e7465737420737461746500000000000000000000000000600082015250565b6000612238601383612080565b915061224382612202565b602082019050919050565b600060208201905081810360008301526122678161222b565b9050919050565b6000610100828403121561228557612284611d3f565b5b612290610100611b91565b9050600082015167ffffffffffffffff8111156122b0576122af611d44565b5b6122bc84828501611dd6565b600083015250602082015167ffffffffffffffff8111156122e0576122df611d44565b5b6122ec84828501611dd6565b602083015250604082015167ffffffffffffffff8111156123105761230f611d44565b5b61231c84828501611dd6565b604083015250606082015167ffffffffffffffff8111156123405761233f611d44565b5b61234c84828501611dd6565b606083015250608082015167ffffffffffffffff8111156123705761236f611d44565b5b61237c84828501611dd6565b60808301525060a082015167ffffffffffffffff8111156123a05761239f611d44565b5b6123ac84828501611dd6565b60a08301525060c082015167ffffffffffffffff8111156123d0576123cf611d44565b5b6123dc84828501611dd6565b60c08301525060e06123f084828501611d49565b60e08301525092915050565b60006080828403121561241257612411611d3f565b5b61241c6080611b91565b9050600061242c84828501611d49565b600083015250602061244084828501611d49565b602083015250604082015167ffffffffffffffff81111561246457612463611d44565b5b6124708482850161226e565b604083015250606061248484828501611d49565b60608301525092915050565b6000602082840312156124a6576124a5611706565b5b600082015167ffffffffffffffff8111156124c4576124c361170b565b5b6124d0848285016123fc565b91505092915050565b7f6f6e6c79206368616c6c656e6765206578697374000000000000000000000000600082015250565b600061250f601483612080565b915061251a826124d9565b602082019050919050565b6000602082019050818103600083015261253e81612502565b9050919050565b600061255082611f0c565b9050919050565b61256081612545565b811461256b57600080fd5b50565b60008151905061257d81612557565b92915050565b600067ffffffffffffffff82111561259e5761259d611b31565b5b602082029050602081019050919050565b60006125c26125bd84612583565b611b91565b905080838252602082019050602084028301858111156125e5576125e4611bd8565b5b835b8181101561260e57806125fa8882611f55565b8452602084019350506020810190506125e7565b5050509392505050565b600082601f83011261262d5761262c611b2c565b5b815161263d8482602086016125af565b91505092915050565b60006060828403121561265c5761265b611d3f565b5b6126666060611b91565b9050600082015167ffffffffffffffff81111561268657612685611d44565b5b61269284828501611dd6565b60008301525060206126a68482850161256e565b602083015250604082015167ffffffffffffffff8111156126ca576126c9611d44565b5b6126d684828501612618565b60408301525092915050565b600481106126ef57600080fd5b50565b600081519050612701816126e2565b92915050565b600060a0828403121561271d5761271c611d3f565b5b61272760a0611b91565b9050600061273784828501611d49565b600083015250602061274b84828501611d49565b602083015250604082015167ffffffffffffffff81111561276f5761276e611d44565b5b61277b84828501612646565b604083015250606061278f848285016126f2565b60608301525060806127a384828501611d49565b60808301525092915050565b6000602082840312156127c5576127c4611706565b5b600082015167ffffffffffffffff8111156127e3576127e261170b565b5b6127ef84828501612707565b91505092915050565b7f6f6e6c79207465616d2065786973740000000000000000000000000000000000600082015250565b600061282e600f83612080565b9150612839826127f8565b602082019050919050565b6000602082019050818103600083015261285d81612821565b9050919050565b7f6f6e6c792067616d6520626f78206e6f74206578697374000000000000000000600082015250565b600061289a601783612080565b91506128a582612864565b602082019050919050565b600060208201905081810360008301526128c98161288d565b9050919050565b82818337600083830152505050565b60006128f26128ed84611d63565b611b91565b90508281526020810184848401111561290e5761290d611d5e565b5b6129198482856128d0565b509392505050565b600082601f83011261293657612935611b2c565b5b81356129468482602086016128df565b91505092915050565b600060a0828403121561296557612964611d3f565b5b61296f60a0611b91565b9050600082013567ffffffffffffffff81111561298f5761298e611d44565b5b61299b84828501612921565b60008301525060206129af84828501611731565b60208301525060406129c384828501611731565b604083015250606082013567ffffffffffffffff8111156129e7576129e6611d44565b5b6129f384828501612921565b606083015250608082013567ffffffffffffffff811115612a1757612a16611d44565b5b612a2384828501612921565b60808301525092915050565b6000612a3b368361294f565b9050919050565b7f4e487b7100000000000000000000000000000000000000000000000000000000600052601160045260246000fd5b6000612a7c82611710565b91507fffffffffffffffffffffffffffffffffffffffffffffffffffffffffffffffff821415612aaf57612aae612a42565b5b600182019050919050565b7f4e487b7100000000000000000000000000000000000000000000000000000000600052602260045260246000fd5b60006002820490506001821680612b0157607f821691505b60208210811415612b1557612b14612aba565b5b50919050565b7f4e487b7100000000000000000000000000000000000000000000000000000000600052603260045260246000fd5b7f6f6e6c792067616d6520626f7820657869737400000000000000000000000000600082015250565b6000612b80601383612080565b9150612b8b82612b4a565b602082019050919050565b60006020820190508181036000830152612baf81612b73565b9050919050565b600080fd5b600080fd5b600080fd5b60008083356001602003843603038112612be257612be1612bb6565b5b80840192508235915067ffffffffffffffff821115612c0457612c03612bbb565b5b602083019250600182023603831315612c2057612c1f612bc0565b5b509250929050565b600082905092915050565b60008190508160005260206000209050919050565b60006020601f8301049050919050565b600082821b905092915050565b600060088302612c957fffffffffffffffffffffffffffffffffffffffffffffffffffffffffffffffff82612c58565b612c9f8683612c58565b95508019841693508086168417925050509392505050565b6000819050919050565b6000612cdc612cd7612cd284611710565b612cb7565b611710565b9050919050565b6000819050919050565b612cf683612cc1565b612d0a612d0282612ce3565b848454612c65565b825550505050565b600090565b612d1f612d12565b612d2a818484612ced565b505050565b5b81811015612d4e57612d43600082612d17565b600181019050612d30565b5050565b601f821115612d9357612d6481612c33565b612d6d84612c48565b81016020851015612d7c578190505b612d90612d8885612c48565b830182612d2f565b50505b505050565b600082821c905092915050565b6000612db660001984600802612d98565b1980831691505092915050565b6000612dcf8383612da5565b9150826002028217905092915050565b612de98383612c28565b67ffffffffffffffff811115612e0257612e01611b31565b5b612e0c8254612ae9565b612e17828285612d52565b6000601f831160018114612e465760008415612e34578287013590505b612e3e8582612dc3565b865550612ea6565b601f198416612e5486612c33565b60005b82811015612e7c57848901358255600182019150602085019450602081019050612e57565b86831015612e995784890135612e95601f891682612da5565b8355505b6001600288020188555050505b50505050505050565b612eba838383612ddf565b505050565b60008135612ecc8161171a565b80915050919050565b60008160001b9050919050565b60007fffffffffffffffffffffffffffffffffffffffffffffffffffffffffffffffff612f0e84612ed5565b9350801983169250808416831791505092915050565b612f2d82612cc1565b612f40612f3982612ce3565b8354612ee2565b8255505050565b6000810160008301612f598185612bc5565b612f64818386612eaf565b50505050600181016020830180612f7a81612ebf565b9050612f868184612f24565b505050600281016040830180612f9b81612ebf565b9050612fa78184612f24565b5050506003810160608301612fbc8185612bc5565b612fc7818386612eaf565b505050506004810160808301612fdd8185612bc5565b612fe8818386612eaf565b505050505050565b612ffa8282612f47565b5050565b600061300982611710565b915061301483611710565b92508282101561302757613026612a42565b5b828203905092915050565b7f4e487b7100000000000000000000000000000000000000000000000000000000600052603160045260246000fdfea26469706673582212201d9765277093fe1d182423cb559f1d57c38b2d1e27b0562b21dac42edc89b49764736f6c634300080a0033",
  "immutableReferences": {},
  "source": "// SPDX-License-Identifier: MIT\npragma solidity ^0.8.10;\npragma experimental ABIEncoderV2;\n\nimport \"@openzeppelin/contracts/utils/structs/EnumerableSet.sol\";\nimport \"./IContests.sol\";\nimport \"./IGameBoxes.sol\";\nimport \"./ITeams.sol\";\nimport \"./IChallenges.sol\";\n\ncontract GameBoxes is IGameBoxes {\n\n    using EnumerableSet for EnumerableSet.UintSet;\n\n    IContests Contests;\n    IChallenges Challenges;\n    ITeams Teams;\n\n    constructor(address _Contests, address _Challenges, address _Teams) {\n        Contests = IContests(_Contests);\n        Teams = ITeams(_Teams);\n        Challenges = IChallenges(_Challenges);\n    }\n\n    EnumerableSet.UintSet ids;\n    mapping(uint => GameBox) gameBoxes;\n    uint public nextId = 1;\n\n    // challengeId + teamId => GameBoxId\n    mapping(uint => mapping(uint => uint)) teamGameBox;\n    mapping(uint => EnumerableSet.UintSet) contestGameBoxes;\n\n    function _remove(uint contestId, uint id) internal\n    onlyGameBoxExist(id) {\n        ids.remove(id);\n        contestGameBoxes[contestId].remove(id);\n        delete teamGameBox[gameBoxes[id].challengeId][gameBoxes[id].teamId];\n        delete gameBoxes[id];\n    }\n\n    function add(uint contestId, uint challengeId, uint teamId, IGameBox calldata gameBox) external\n    onlyContestOwner(contestId)\n    onlyContestInState(contestId, IContests.ContestState.STARTED)\n    onlyChallengeExist(challengeId)\n    onlyTeamExist(teamId) {\n        require(gameBoxes[teamGameBox[challengeId][teamId]].id == 0, \"only game box not exist\");\n        ids.add(nextId);\n        contestGameBoxes[contestId].add(nextId);\n        teamGameBox[challengeId][teamId] = nextId;\n        gameBoxes[nextId] = GameBox(nextId, contestId, challengeId, teamId, gameBox, block.timestamp);\n        nextId++;\n    }\n\n    function update(uint contestId, uint id, IGameBox calldata gameBox) external\n    onlyContestOwner(contestId)\n    onlyContestInState(contestId, IContests.ContestState.STARTED)\n    onlyGameBoxExist(id) {\n        gameBoxes[id].info = gameBox;\n    }\n\n    function removes(uint contestId, uint [] memory _ids) external\n    onlyContestOwner(contestId)\n    onlyContestInState(contestId, IContests.ContestState.STARTED) {\n        for (uint i = 0; i < _ids.length; i++) {\n            _remove(contestId, _ids[i]);\n        }\n    }\n\n    function getContestGameBoxIds(uint contestId) external view returns (uint [] memory) {\n        return contestGameBoxes[contestId].values();\n    }\n\n    function getChallengeTeamGameBoxId(uint challengeId, uint teamId) external view returns (uint){\n        return teamGameBox[challengeId][teamId];\n    }\n\n    function getGameBox(uint id) external view returns (GameBox memory){\n        return gameBoxes[id];\n    }\n\n    function getCount() external view returns (uint){\n        return ids.length();\n    }\n\n    function get(uint index) external view returns (GameBox memory){\n        return gameBoxes[ids.at(index)];\n    }\n\n    modifier onlyGameBoxExist(uint gameBoxId){\n        require(gameBoxes[gameBoxId].id > 0, \"only game box exist\");\n        _;\n    }\n\n    modifier onlyChallengeExist(uint challengeId){\n        IChallenges.Challenge memory challenge = Challenges.getChallenge(challengeId);\n        require(challenge.id > 0, \"only challenge exist\");\n        _;\n    }\n    modifier onlyTeamExist(uint teamId){\n        ITeams.Team memory team = Teams.getTeam(teamId);\n        require(team.id > 0, \"only team exist\");\n        _;\n    }\n    modifier onlyContestOwner(uint contestId){\n        IContests.Contest memory contest = Contests.getContest(contestId);\n        require(contest.owner == msg.sender, \"only contest owner\");\n        _;\n    }\n    modifier onlyContestInState(uint contestId, IContests.ContestState state){\n        require(Contests.contestInState(contestId, state), \"wrong contest state\");\n        _;\n    }\n\n}",
  "sourcePath": "/Users/yhy/Code/GitHub/DCTF/contracts/GameBoxes.sol",
  "compiler": {
    "name": "solc",
    "version": "0.8.10+commit.fc410830.Emscripten.clang"
  },
  "schemaVersion": "3.4.4",
  "updatedAt": "2022-03-03T12:57:46.355Z",
  "networkType": "ethereum",
  "devdoc": {
    "kind": "dev",
    "methods": {},
    "version": 1
  },
  "userdoc": {
    "kind": "user",
    "methods": {},
    "version": 1
  }
}