{
  "contractName": "Jeopardy",
  "abi": [
    {
      "inputs": [
        {
          "internalType": "address",
          "name": "_Contests",
          "type": "address"
        },
        {
          "internalType": "address",
          "name": "_Challenges",
          "type": "address"
        },
        {
          "internalType": "address",
          "name": "_Teams",
          "type": "address"
        },
        {
          "internalType": "address",
          "name": "_Moves",
          "type": "address"
        }
      ],
      "stateMutability": "nonpayable",
      "type": "constructor"
    },
    {
      "inputs": [
        {
          "internalType": "uint256",
          "name": "contestId",
          "type": "uint256"
        },
        {
          "internalType": "uint256",
          "name": "challengeId",
          "type": "uint256"
        },
        {
          "internalType": "bytes32",
          "name": "hash",
          "type": "bytes32"
        }
      ],
      "name": "commitFlag",
      "outputs": [],
      "stateMutability": "nonpayable",
      "type": "function"
    },
    {
      "inputs": [
        {
          "internalType": "uint256",
          "name": "contestId",
          "type": "uint256"
        },
        {
          "internalType": "uint256",
          "name": "challengeId",
          "type": "uint256"
        },
        {
          "internalType": "uint256",
          "name": "teamId",
          "type": "uint256"
        },
        {
          "internalType": "bytes32",
          "name": "hash",
          "type": "bytes32"
        }
      ],
      "name": "commitSubmit",
      "outputs": [],
      "stateMutability": "nonpayable",
      "type": "function"
    },
    {
      "inputs": [
        {
          "internalType": "uint256",
          "name": "contestId",
          "type": "uint256"
        },
        {
          "internalType": "uint256[]",
          "name": "challengeIds",
          "type": "uint256[]"
        },
        {
          "internalType": "string[]",
          "name": "flags",
          "type": "string[]"
        },
        {
          "internalType": "bytes32[]",
          "name": "salts",
          "type": "bytes32[]"
        }
      ],
      "name": "revealFlags",
      "outputs": [],
      "stateMutability": "nonpayable",
      "type": "function"
    },
    {
      "inputs": [
        {
          "internalType": "uint256",
          "name": "contestId",
          "type": "uint256"
        },
        {
          "internalType": "uint256",
          "name": "teamId",
          "type": "uint256"
        },
        {
          "internalType": "uint256[]",
          "name": "challengeIds",
          "type": "uint256[]"
        },
        {
          "internalType": "string[]",
          "name": "flags",
          "type": "string[]"
        },
        {
          "internalType": "bytes32[]",
          "name": "salts",
          "type": "bytes32[]"
        }
      ],
      "name": "revealSubmits",
      "outputs": [],
      "stateMutability": "nonpayable",
      "type": "function"
    },
    {
      "inputs": [
        {
          "internalType": "uint256",
          "name": "contestId",
          "type": "uint256"
        }
      ],
      "name": "updateScore",
      "outputs": [],
      "stateMutability": "nonpayable",
      "type": "function"
    },
    {
      "inputs": [
        {
          "internalType": "uint256",
          "name": "challengeId",
          "type": "uint256"
        }
      ],
      "name": "getChallengeFlagMoveId",
      "outputs": [
        {
          "internalType": "uint256",
          "name": "",
          "type": "uint256"
        }
      ],
      "stateMutability": "view",
      "type": "function",
      "constant": true
    },
    {
      "inputs": [
        {
          "internalType": "uint256",
          "name": "challengeId",
          "type": "uint256"
        },
        {
          "internalType": "uint256",
          "name": "teamId",
          "type": "uint256"
        }
      ],
      "name": "getChallengeTeamSubmitMoveId",
      "outputs": [
        {
          "internalType": "uint256",
          "name": "",
          "type": "uint256"
        }
      ],
      "stateMutability": "view",
      "type": "function",
      "constant": true
    },
    {
      "inputs": [
        {
          "internalType": "uint256",
          "name": "contestId",
          "type": "uint256"
        }
      ],
      "name": "getContestSubmitIds",
      "outputs": [
        {
          "internalType": "uint256[]",
          "name": "",
          "type": "uint256[]"
        }
      ],
      "stateMutability": "view",
      "type": "function",
      "constant": true
    },
    {
      "inputs": [
        {
          "internalType": "uint256",
          "name": "contestId",
          "type": "uint256"
        }
      ],
      "name": "getContestFlagIds",
      "outputs": [
        {
          "internalType": "uint256[]",
          "name": "",
          "type": "uint256[]"
        }
      ],
      "stateMutability": "view",
      "type": "function",
      "constant": true
    },
    {
      "inputs": [
        {
          "internalType": "uint256",
          "name": "teamId",
          "type": "uint256"
        }
      ],
      "name": "getScore",
      "outputs": [
        {
          "internalType": "uint256",
          "name": "",
          "type": "uint256"
        }
      ],
      "stateMutability": "view",
      "type": "function",
      "constant": true
    }
  ],
  "bytecode": "0x60806040523480156200001157600080fd5b50604051620035d9380380620035d98339818101604052810190620000379190620001ae565b836000806101000a81548173ffffffffffffffffffffffffffffffffffffffff021916908373ffffffffffffffffffffffffffffffffffffffff16021790555081600260006101000a81548173ffffffffffffffffffffffffffffffffffffffff021916908373ffffffffffffffffffffffffffffffffffffffff16021790555082600160006101000a81548173ffffffffffffffffffffffffffffffffffffffff021916908373ffffffffffffffffffffffffffffffffffffffff16021790555080600360006101000a81548173ffffffffffffffffffffffffffffffffffffffff021916908373ffffffffffffffffffffffffffffffffffffffff1602179055505050505062000220565b600080fd5b600073ffffffffffffffffffffffffffffffffffffffff82169050919050565b6000620001768262000149565b9050919050565b620001888162000169565b81146200019457600080fd5b50565b600081519050620001a8816200017d565b92915050565b60008060008060808587031215620001cb57620001ca62000144565b5b6000620001db8782880162000197565b9450506020620001ee8782880162000197565b9350506040620002018782880162000197565b9250506060620002148782880162000197565b91505092959194509250565b6133a980620002306000396000f3fe608060405234801561001057600080fd5b506004361061009e5760003560e01c8063a8f0a38211610066578063a8f0a3821461016b578063b32968441461019b578063c38552b1146101cb578063ced4c8cf146101e7578063f853e34d146102035761009e565b80630e1af57b146100a357806326c52fa2146100d357806330d6345a146101035780636af0f2f9146101335780639d08ccb31461014f575b600080fd5b6100bd60048036038101906100b89190611b69565b61021f565b6040516100ca9190611ba5565b60405180910390f35b6100ed60048036038101906100e89190611b69565b61023c565b6040516100fa9190611c7e565b60405180910390f35b61011d60048036038101906101189190611b69565b610260565b60405161012a9190611c7e565b60405180910390f35b61014d60048036038101906101489190611cd6565b610284565b005b61016960048036038101906101649190611d3d565b610665565b005b61018560048036038101906101809190611d90565b61098e565b6040516101929190611ba5565b60405180910390f35b6101b560048036038101906101b09190611b69565b6109bd565b6040516101c29190611ba5565b60405180910390f35b6101e560048036038101906101e09190612182565b6109da565b005b61020160048036038101906101fc919061223d565b610ae2565b005b61021d60048036038101906102189190611b69565b610bec565b005b600060046000838152602001908152602001600020549050919050565b6060610259600760008481526020019081526020016000206111f9565b9050919050565b606061027d600860008481526020019081526020016000206111f9565b9050919050565b816000600260009054906101000a900473ffffffffffffffffffffffffffffffffffffffff1673ffffffffffffffffffffffffffffffffffffffff16628e0f1b836040518263ffffffff1660e01b81526004016102e19190611ba5565b600060405180830381865afa1580156102fe573d6000803e3d6000fd5b505050506040513d6000823e3d601f19601f820116820180604052508101906103279190612696565b905060003373ffffffffffffffffffffffffffffffffffffffff1682604001516020015173ffffffffffffffffffffffffffffffffffffffff16141561036c57600190505b60005b826040015160400151518110156103ee573373ffffffffffffffffffffffffffffffffffffffff1683604001516040015182815181106103b2576103b16126df565b5b602002602001015173ffffffffffffffffffffffffffffffffffffffff1614156103db57600191505b80806103e69061273d565b91505061036f565b508061042f576040517f08c379a0000000000000000000000000000000000000000000000000000000008152600401610426906127e3565b60405180910390fd5b86600260008054906101000a900473ffffffffffffffffffffffffffffffffffffffff1673ffffffffffffffffffffffffffffffffffffffff1663434e540b83836040518363ffffffff1660e01b815260040161048d92919061287a565b6020604051808303816000875af11580156104ac573d6000803e3d6000fd5b505050506040513d601f19601f820116820180604052508101906104d091906128db565b61050f576040517f08c379a000000000000000000000000000000000000000000000000000000000815260040161050690612954565b60405180910390fd5b6000600660008a8152602001908152602001600020600089815260200190815260200160002054905061055d81600860008d815260200190815260200160002061121a90919063ffffffff16565b506000600360009054906101000a900473ffffffffffffffffffffffffffffffffffffffff1673ffffffffffffffffffffffffffffffffffffffff1663ef027f4d8c8c8c60008d6040518663ffffffff1660e01b81526004016105c49594939291906129c8565b6020604051808303816000875af11580156105e3573d6000803e3d6000fd5b505050506040513d601f19601f820116820180604052508101906106079190612a1b565b905080600660008c815260200190815260200160002060008b81526020019081526020016000208190555061065781600860008e815260200190815260200160002061123490919063ffffffff16565b505050505050505050505050565b8260008060009054906101000a900473ffffffffffffffffffffffffffffffffffffffff1673ffffffffffffffffffffffffffffffffffffffff1663904b9f72836040518263ffffffff1660e01b81526004016106c29190611ba5565b600060405180830381865afa1580156106df573d6000803e3d6000fd5b505050506040513d6000823e3d601f19601f820116820180604052508101906107089190612c1d565b90503373ffffffffffffffffffffffffffffffffffffffff16816040015173ffffffffffffffffffffffffffffffffffffffff161461077c576040517f08c379a000000000000000000000000000000000000000000000000000000000815260040161077390612cb2565b60405180910390fd5b84600260008054906101000a900473ffffffffffffffffffffffffffffffffffffffff1673ffffffffffffffffffffffffffffffffffffffff1663434e540b83836040518363ffffffff1660e01b81526004016107da92919061287a565b6020604051808303816000875af11580156107f9573d6000803e3d6000fd5b505050506040513d601f19601f8201168201806040525081019061081d91906128db565b61085c576040517f08c379a000000000000000000000000000000000000000000000000000000000815260040161085390612954565b60405180910390fd5b60006005600088815260200190815260200160002054905061089981600760008b815260200190815260200160002061121a90919063ffffffff16565b506000600360009054906101000a900473ffffffffffffffffffffffffffffffffffffffff1673ffffffffffffffffffffffffffffffffffffffff1663ef027f4d8a8a6000808c6040518663ffffffff1660e01b8152600401610900959493929190612cd2565b6020604051808303816000875af115801561091f573d6000803e3d6000fd5b505050506040513d601f19601f820116820180604052508101906109439190612a1b565b905080600560008a81526020019081526020016000208190555061098281600760008c815260200190815260200160002061123490919063ffffffff16565b50505050505050505050565b600060066000848152602001908152602001600020600083815260200190815260200160002054905092915050565b600060056000838152602001908152602001600020549050919050565b8151835114610a1e576040517f08c379a0000000000000000000000000000000000000000000000000000000008152600401610a1590612d71565b60405180910390fd5b8151815114610a62576040517f08c379a0000000000000000000000000000000000000000000000000000000008152600401610a5990612d71565b60405180910390fd5b60005b8351811015610adb57610ac885858381518110610a8557610a846126df565b5b6020026020010151858481518110610aa057610a9f6126df565b5b6020026020010151858581518110610abb57610aba6126df565b5b602002602001015161124e565b8080610ad39061273d565b915050610a65565b5050505050565b8151835114610b26576040517f08c379a0000000000000000000000000000000000000000000000000000000008152600401610b1d90612d71565b60405180910390fd5b8151815114610b6a576040517f08c379a0000000000000000000000000000000000000000000000000000000008152600401610b6190612d71565b60405180910390fd5b60005b8351811015610be457610bd18686868481518110610b8e57610b8d6126df565b5b6020026020010151868581518110610ba957610ba86126df565b5b6020026020010151868681518110610bc457610bc36126df565b5b60200260200101516114f3565b8080610bdc9061273d565b915050610b6d565b505050505050565b80600460008054906101000a900473ffffffffffffffffffffffffffffffffffffffff1673ffffffffffffffffffffffffffffffffffffffff1663434e540b83836040518363ffffffff1660e01b8152600401610c4a92919061287a565b6020604051808303816000875af1158015610c69573d6000803e3d6000fd5b505050506040513d601f19601f82011682018060405250810190610c8d91906128db565b610ccc576040517f08c379a0000000000000000000000000000000000000000000000000000000008152600401610cc390612954565b60405180910390fd5b6000610ce9600860008681526020019081526020016000206111f9565b90506000610d08600760008781526020019081526020016000206111f9565b905060005b8251811015610e0057600060046000600360009054906101000a900473ffffffffffffffffffffffffffffffffffffffff1673ffffffffffffffffffffffffffffffffffffffff166371dbd330878681518110610d6d57610d6c6126df565b5b60200260200101516040518263ffffffff1660e01b8152600401610d919190611ba5565b600060405180830381865afa158015610dae573d6000803e3d6000fd5b505050506040513d6000823e3d601f19601f82011682018060405250810190610dd79190612f31565b606001518152602001908152602001600020819055508080610df89061273d565b915050610d0d565b5060005b82518110156111f1576000600360009054906101000a900473ffffffffffffffffffffffffffffffffffffffff1673ffffffffffffffffffffffffffffffffffffffff166371dbd330858481518110610e6057610e5f6126df565b5b60200260200101516040518263ffffffff1660e01b8152600401610e849190611ba5565b600060405180830381865afa158015610ea1573d6000803e3d6000fd5b505050506040513d6000823e3d601f19601f82011682018060405250810190610eca9190612f31565b9050610ed4611a9b565b60005b845181101561107b57600360009054906101000a900473ffffffffffffffffffffffffffffffffffffffff1673ffffffffffffffffffffffffffffffffffffffff166371dbd330868381518110610f3157610f306126df565b5b60200260200101516040518263ffffffff1660e01b8152600401610f559190611ba5565b600060405180830381865afa158015610f72573d6000803e3d6000fd5b505050506040513d6000823e3d601f19601f82011682018060405250810190610f9b9190612f31565b604001518360400151141561106857600360009054906101000a900473ffffffffffffffffffffffffffffffffffffffff1673ffffffffffffffffffffffffffffffffffffffff166371dbd330868381518110610ffb57610ffa6126df565b5b60200260200101516040518263ffffffff1660e01b815260040161101f9190611ba5565b600060405180830381865afa15801561103c573d6000803e3d6000fd5b505050506040513d6000823e3d601f19601f820116820180604052508101906110659190612f31565b91505b80806110739061273d565b915050610ed7565b5060028081111561108f5761108e612803565b5b8260c0015160028111156110a6576110a5612803565b5b1480156110da57506002808111156110c1576110c0612803565b5b8160c0015160028111156110d8576110d7612803565b5b145b80156110fc57506110fb8260a00151602001518260a001516020015161183f565b5b156111dc57600160009054906101000a900473ffffffffffffffffffffffffffffffffffffffff1673ffffffffffffffffffffffffffffffffffffffff16631bdd4b7483604001516040518263ffffffff1660e01b81526004016111609190611ba5565b600060405180830381865afa15801561117d573d6000803e3d6000fd5b505050506040513d6000823e3d601f19601f820116820180604052508101906111a6919061319c565b6040015160e00151600460008460600151815260200190815260200160002060008282546111d491906131e5565b925050819055505b505080806111e99061273d565b915050610e04565b505050505050565b6060600061120983600001611898565b905060608190508092505050919050565b600061122c836000018360001b6118f4565b905092915050565b6000611246836000018360001b611a08565b905092915050565b8360008060009054906101000a900473ffffffffffffffffffffffffffffffffffffffff1673ffffffffffffffffffffffffffffffffffffffff1663904b9f72836040518263ffffffff1660e01b81526004016112ab9190611ba5565b600060405180830381865afa1580156112c8573d6000803e3d6000fd5b505050506040513d6000823e3d601f19601f820116820180604052508101906112f19190612c1d565b90503373ffffffffffffffffffffffffffffffffffffffff16816040015173ffffffffffffffffffffffffffffffffffffffff1614611365576040517f08c379a000000000000000000000000000000000000000000000000000000000815260040161135c90612cb2565b60405180910390fd5b85600360008054906101000a900473ffffffffffffffffffffffffffffffffffffffff1673ffffffffffffffffffffffffffffffffffffffff1663434e540b83836040518363ffffffff1660e01b81526004016113c392919061287a565b6020604051808303816000875af11580156113e2573d6000803e3d6000fd5b505050506040513d601f19601f8201168201806040525081019061140691906128db565b611445576040517f08c379a000000000000000000000000000000000000000000000000000000000815260040161143c90612954565b60405180910390fd5b600360009054906101000a900473ffffffffffffffffffffffffffffffffffffffff1673ffffffffffffffffffffffffffffffffffffffff1663ae416c4b600560008a81526020019081526020016000205488886040518463ffffffff1660e01b81526004016114b79392919061327f565b600060405180830381600087803b1580156114d157600080fd5b505af11580156114e5573d6000803e3d6000fd5b505050505050505050505050565b836000600260009054906101000a900473ffffffffffffffffffffffffffffffffffffffff1673ffffffffffffffffffffffffffffffffffffffff16628e0f1b836040518263ffffffff1660e01b81526004016115509190611ba5565b600060405180830381865afa15801561156d573d6000803e3d6000fd5b505050506040513d6000823e3d601f19601f820116820180604052508101906115969190612696565b905060003373ffffffffffffffffffffffffffffffffffffffff1682604001516020015173ffffffffffffffffffffffffffffffffffffffff1614156115db57600190505b60005b8260400151604001515181101561165d573373ffffffffffffffffffffffffffffffffffffffff168360400151604001518281518110611621576116206126df565b5b602002602001015173ffffffffffffffffffffffffffffffffffffffff16141561164a57600191505b80806116559061273d565b9150506115de565b508061169e576040517f08c379a0000000000000000000000000000000000000000000000000000000008152600401611695906127e3565b60405180910390fd5b87600360008054906101000a900473ffffffffffffffffffffffffffffffffffffffff1673ffffffffffffffffffffffffffffffffffffffff1663434e540b83836040518363ffffffff1660e01b81526004016116fc92919061287a565b6020604051808303816000875af115801561171b573d6000803e3d6000fd5b505050506040513d601f19601f8201168201806040525081019061173f91906128db565b61177e576040517f08c379a000000000000000000000000000000000000000000000000000000000815260040161177590612954565b60405180910390fd5b600360009054906101000a900473ffffffffffffffffffffffffffffffffffffffff1673ffffffffffffffffffffffffffffffffffffffff1663ae416c4b600660008b815260200190815260200160002060008c81526020019081526020016000205489896040518463ffffffff1660e01b81526004016118019392919061327f565b600060405180830381600087803b15801561181b57600080fd5b505af115801561182f573d6000803e3d6000fd5b5050505050505050505050505050565b60008160405160200161185291906132f9565b604051602081830303815290604052805190602001208360405160200161187991906132f9565b6040516020818303038152906040528051906020012014905092915050565b6060816000018054806020026020016040519081016040528092919081815260200182805480156118e857602002820191906000526020600020905b8154815260200190600101908083116118d4575b50505050509050919050565b600080836001016000848152602001908152602001600020549050600081146119fc5760006001826119269190613310565b905060006001866000018054905061193e9190613310565b90508181146119ad57600086600001828154811061195f5761195e6126df565b5b9060005260206000200154905080876000018481548110611983576119826126df565b5b90600052602060002001819055508387600101600083815260200190815260200160002081905550505b856000018054806119c1576119c0613344565b5b600190038181906000526020600020016000905590558560010160008681526020019081526020016000206000905560019350505050611a02565b60009150505b92915050565b6000611a148383611a78565b611a6d578260000182908060018154018082558091505060019003906000526020600020016000909190919091505582600001805490508360010160008481526020019081526020016000208190555060019050611a72565b600090505b92915050565b600080836001016000848152602001908152602001600020541415905092915050565b6040518061010001604052806000815260200160008152602001600081526020016000815260200160008152602001611ad2611af8565b815260200160006002811115611aeb57611aea612803565b5b8152602001600081525090565b60405180606001604052806000801916815260200160608152602001600080191681525090565b6000604051905090565b600080fd5b600080fd5b6000819050919050565b611b4681611b33565b8114611b5157600080fd5b50565b600081359050611b6381611b3d565b92915050565b600060208284031215611b7f57611b7e611b29565b5b6000611b8d84828501611b54565b91505092915050565b611b9f81611b33565b82525050565b6000602082019050611bba6000830184611b96565b92915050565b600081519050919050565b600082825260208201905092915050565b6000819050602082019050919050565b611bf581611b33565b82525050565b6000611c078383611bec565b60208301905092915050565b6000602082019050919050565b6000611c2b82611bc0565b611c358185611bcb565b9350611c4083611bdc565b8060005b83811015611c71578151611c588882611bfb565b9750611c6383611c13565b925050600181019050611c44565b5085935050505092915050565b60006020820190508181036000830152611c988184611c20565b905092915050565b6000819050919050565b611cb381611ca0565b8114611cbe57600080fd5b50565b600081359050611cd081611caa565b92915050565b60008060008060808587031215611cf057611cef611b29565b5b6000611cfe87828801611b54565b9450506020611d0f87828801611b54565b9350506040611d2087828801611b54565b9250506060611d3187828801611cc1565b91505092959194509250565b600080600060608486031215611d5657611d55611b29565b5b6000611d6486828701611b54565b9350506020611d7586828701611b54565b9250506040611d8686828701611cc1565b9150509250925092565b60008060408385031215611da757611da6611b29565b5b6000611db585828601611b54565b9250506020611dc685828601611b54565b9150509250929050565b600080fd5b6000601f19601f8301169050919050565b7f4e487b7100000000000000000000000000000000000000000000000000000000600052604160045260246000fd5b611e1e82611dd5565b810181811067ffffffffffffffff82111715611e3d57611e3c611de6565b5b80604052505050565b6000611e50611b1f565b9050611e5c8282611e15565b919050565b600067ffffffffffffffff821115611e7c57611e7b611de6565b5b602082029050602081019050919050565b600080fd5b6000611ea5611ea084611e61565b611e46565b90508083825260208201905060208402830185811115611ec857611ec7611e8d565b5b835b81811015611ef15780611edd8882611b54565b845260208401935050602081019050611eca565b5050509392505050565b600082601f830112611f1057611f0f611dd0565b5b8135611f20848260208601611e92565b91505092915050565b600067ffffffffffffffff821115611f4457611f43611de6565b5b602082029050602081019050919050565b600080fd5b600067ffffffffffffffff821115611f7557611f74611de6565b5b611f7e82611dd5565b9050602081019050919050565b82818337600083830152505050565b6000611fad611fa884611f5a565b611e46565b905082815260208101848484011115611fc957611fc8611f55565b5b611fd4848285611f8b565b509392505050565b600082601f830112611ff157611ff0611dd0565b5b8135612001848260208601611f9a565b91505092915050565b600061201d61201884611f29565b611e46565b905080838252602082019050602084028301858111156120405761203f611e8d565b5b835b8181101561208757803567ffffffffffffffff81111561206557612064611dd0565b5b8086016120728982611fdc565b85526020850194505050602081019050612042565b5050509392505050565b600082601f8301126120a6576120a5611dd0565b5b81356120b684826020860161200a565b91505092915050565b600067ffffffffffffffff8211156120da576120d9611de6565b5b602082029050602081019050919050565b60006120fe6120f9846120bf565b611e46565b9050808382526020820190506020840283018581111561212157612120611e8d565b5b835b8181101561214a57806121368882611cc1565b845260208401935050602081019050612123565b5050509392505050565b600082601f83011261216957612168611dd0565b5b81356121798482602086016120eb565b91505092915050565b6000806000806080858703121561219c5761219b611b29565b5b60006121aa87828801611b54565b945050602085013567ffffffffffffffff8111156121cb576121ca611b2e565b5b6121d787828801611efb565b935050604085013567ffffffffffffffff8111156121f8576121f7611b2e565b5b61220487828801612091565b925050606085013567ffffffffffffffff81111561222557612224611b2e565b5b61223187828801612154565b91505092959194509250565b600080600080600060a0868803121561225957612258611b29565b5b600061226788828901611b54565b955050602061227888828901611b54565b945050604086013567ffffffffffffffff81111561229957612298611b2e565b5b6122a588828901611efb565b935050606086013567ffffffffffffffff8111156122c6576122c5611b2e565b5b6122d288828901612091565b925050608086013567ffffffffffffffff8111156122f3576122f2611b2e565b5b6122ff88828901612154565b9150509295509295909350565b600080fd5b600080fd5b60008151905061232581611b3d565b92915050565b60005b8381101561234957808201518184015260208101905061232e565b83811115612358576000848401525b50505050565b600061237161236c84611f5a565b611e46565b90508281526020810184848401111561238d5761238c611f55565b5b61239884828561232b565b509392505050565b600082601f8301126123b5576123b4611dd0565b5b81516123c584826020860161235e565b91505092915050565b600073ffffffffffffffffffffffffffffffffffffffff82169050919050565b60006123f9826123ce565b9050919050565b612409816123ee565b811461241457600080fd5b50565b60008151905061242681612400565b92915050565b600067ffffffffffffffff82111561244757612446611de6565b5b602082029050602081019050919050565b6000612463826123ce565b9050919050565b61247381612458565b811461247e57600080fd5b50565b6000815190506124908161246a565b92915050565b60006124a96124a48461242c565b611e46565b905080838252602082019050602084028301858111156124cc576124cb611e8d565b5b835b818110156124f557806124e18882612481565b8452602084019350506020810190506124ce565b5050509392505050565b600082601f83011261251457612513611dd0565b5b8151612524848260208601612496565b91505092915050565b6000606082840312156125435761254261230c565b5b61254d6060611e46565b9050600082015167ffffffffffffffff81111561256d5761256c612311565b5b612579848285016123a0565b600083015250602061258d84828501612417565b602083015250604082015167ffffffffffffffff8111156125b1576125b0612311565b5b6125bd848285016124ff565b60408301525092915050565b600481106125d657600080fd5b50565b6000815190506125e8816125c9565b92915050565b600060a082840312156126045761260361230c565b5b61260e60a0611e46565b9050600061261e84828501612316565b600083015250602061263284828501612316565b602083015250604082015167ffffffffffffffff81111561265657612655612311565b5b6126628482850161252d565b6040830152506060612676848285016125d9565b606083015250608061268a84828501612316565b60808301525092915050565b6000602082840312156126ac576126ab611b29565b5b600082015167ffffffffffffffff8111156126ca576126c9611b2e565b5b6126d6848285016125ee565b91505092915050565b7f4e487b7100000000000000000000000000000000000000000000000000000000600052603260045260246000fd5b7f4e487b7100000000000000000000000000000000000000000000000000000000600052601160045260246000fd5b600061274882611b33565b91507fffffffffffffffffffffffffffffffffffffffffffffffffffffffffffffffff82141561277b5761277a61270e565b5b600182019050919050565b600082825260208201905092915050565b7f6f6e6c79207465616d206361707461696e206f72206d656d6265720000000000600082015250565b60006127cd601b83612786565b91506127d882612797565b602082019050919050565b600060208201905081810360008301526127fc816127c0565b9050919050565b7f4e487b7100000000000000000000000000000000000000000000000000000000600052602160045260246000fd5b6005811061284357612842612803565b5b50565b600081905061285482612832565b919050565b600061286482612846565b9050919050565b61287481612859565b82525050565b600060408201905061288f6000830185611b96565b61289c602083018461286b565b9392505050565b60008115159050919050565b6128b8816128a3565b81146128c357600080fd5b50565b6000815190506128d5816128af565b92915050565b6000602082840312156128f1576128f0611b29565b5b60006128ff848285016128c6565b91505092915050565b7f77726f6e6720636f6e7465737420737461746500000000000000000000000000600082015250565b600061293e601383612786565b915061294982612908565b602082019050919050565b6000602082019050818103600083015261296d81612931565b9050919050565b6000819050919050565b6000819050919050565b60006129a361299e61299984612974565b61297e565b611b33565b9050919050565b6129b381612988565b82525050565b6129c281611ca0565b82525050565b600060a0820190506129dd6000830188611b96565b6129ea6020830187611b96565b6129f76040830186611b96565b612a0460608301856129aa565b612a1160808301846129b9565b9695505050505050565b600060208284031215612a3157612a30611b29565b5b6000612a3f84828501612316565b91505092915050565b600060e08284031215612a5e57612a5d61230c565b5b612a6860e0611e46565b9050600082015167ffffffffffffffff811115612a8857612a87612311565b5b612a94848285016123a0565b600083015250602082015167ffffffffffffffff811115612ab857612ab7612311565b5b612ac4848285016123a0565b6020830152506040612ad884828501612316565b6040830152506060612aec84828501612316565b6060830152506080612b0084828501612316565b60808301525060a0612b1484828501612316565b60a08301525060c082015167ffffffffffffffff811115612b3857612b37612311565b5b612b44848285016123a0565b60c08301525092915050565b60058110612b5d57600080fd5b50565b600081519050612b6f81612b50565b92915050565b600060a08284031215612b8b57612b8a61230c565b5b612b9560a0611e46565b90506000612ba584828501612316565b600083015250602082015167ffffffffffffffff811115612bc957612bc8612311565b5b612bd584828501612a48565b6020830152506040612be984828501612481565b6040830152506060612bfd84828501612b60565b6060830152506080612c1184828501612316565b60808301525092915050565b600060208284031215612c3357612c32611b29565b5b600082015167ffffffffffffffff811115612c5157612c50611b2e565b5b612c5d84828501612b75565b91505092915050565b7f6f6e6c7920636f6e74657374206f776e65720000000000000000000000000000600082015250565b6000612c9c601283612786565b9150612ca782612c66565b602082019050919050565b60006020820190508181036000830152612ccb81612c8f565b9050919050565b600060a082019050612ce76000830188611b96565b612cf46020830187611b96565b612d0160408301866129aa565b612d0e60608301856129aa565b612d1b60808301846129b9565b9695505050505050565b7f6c656e6774682073686f756c6420626520657175616c00000000000000000000600082015250565b6000612d5b601683612786565b9150612d6682612d25565b602082019050919050565b60006020820190508181036000830152612d8a81612d4e565b9050919050565b600081519050612da081611caa565b92915050565b600060608284031215612dbc57612dbb61230c565b5b612dc66060611e46565b90506000612dd684828501612d91565b600083015250602082015167ffffffffffffffff811115612dfa57612df9612311565b5b612e06848285016123a0565b6020830152506040612e1a84828501612d91565b60408301525092915050565b60038110612e3357600080fd5b50565b600081519050612e4581612e26565b92915050565b60006101008284031215612e6257612e6161230c565b5b612e6d610100611e46565b90506000612e7d84828501612316565b6000830152506020612e9184828501612316565b6020830152506040612ea584828501612316565b6040830152506060612eb984828501612316565b6060830152506080612ecd84828501612316565b60808301525060a082015167ffffffffffffffff811115612ef157612ef0612311565b5b612efd84828501612da6565b60a08301525060c0612f1184828501612e36565b60c08301525060e0612f2584828501612316565b60e08301525092915050565b600060208284031215612f4757612f46611b29565b5b600082015167ffffffffffffffff811115612f6557612f64611b2e565b5b612f7184828501612e4b565b91505092915050565b60006101008284031215612f9157612f9061230c565b5b612f9c610100611e46565b9050600082015167ffffffffffffffff811115612fbc57612fbb612311565b5b612fc8848285016123a0565b600083015250602082015167ffffffffffffffff811115612fec57612feb612311565b5b612ff8848285016123a0565b602083015250604082015167ffffffffffffffff81111561301c5761301b612311565b5b613028848285016123a0565b604083015250606082015167ffffffffffffffff81111561304c5761304b612311565b5b613058848285016123a0565b606083015250608082015167ffffffffffffffff81111561307c5761307b612311565b5b613088848285016123a0565b60808301525060a082015167ffffffffffffffff8111156130ac576130ab612311565b5b6130b8848285016123a0565b60a08301525060c082015167ffffffffffffffff8111156130dc576130db612311565b5b6130e8848285016123a0565b60c08301525060e06130fc84828501612316565b60e08301525092915050565b60006080828403121561311e5761311d61230c565b5b6131286080611e46565b9050600061313884828501612316565b600083015250602061314c84828501612316565b602083015250604082015167ffffffffffffffff8111156131705761316f612311565b5b61317c84828501612f7a565b604083015250606061319084828501612316565b60608301525092915050565b6000602082840312156131b2576131b1611b29565b5b600082015167ffffffffffffffff8111156131d0576131cf611b2e565b5b6131dc84828501613108565b91505092915050565b60006131f082611b33565b91506131fb83611b33565b9250827fffffffffffffffffffffffffffffffffffffffffffffffffffffffffffffffff038211156132305761322f61270e565b5b828201905092915050565b600081519050919050565b60006132518261323b565b61325b8185612786565b935061326b81856020860161232b565b61327481611dd5565b840191505092915050565b60006060820190506132946000830186611b96565b81810360208301526132a68185613246565b90506132b560408301846129b9565b949350505050565b600081905092915050565b60006132d38261323b565b6132dd81856132bd565b93506132ed81856020860161232b565b80840191505092915050565b600061330582846132c8565b915081905092915050565b600061331b82611b33565b915061332683611b33565b9250828210156133395761333861270e565b5b828203905092915050565b7f4e487b7100000000000000000000000000000000000000000000000000000000600052603160045260246000fdfea26469706673582212202ae865012a71bbab9943d9bde9c9893e6f0ab392e71a2dc6970366d3ff8d0ae864736f6c634300080a0033",
  "immutableReferences": {},
  "source": "// SPDX-License-Identifier: MIT\npragma solidity ^0.8.10;\npragma experimental ABIEncoderV2;\n\nimport \"@openzeppelin/contracts/utils/structs/EnumerableSet.sol\";\nimport \"./IMoves.sol\";\nimport \"./IContests.sol\";\nimport \"./ITeams.sol\";\nimport \"./IChallenges.sol\";\nimport \"./IJeopardy.sol\";\n\ncontract Jeopardy is IJeopardy {\n    using EnumerableSet for EnumerableSet.UintSet;\n\n    IContests Contests;\n    IChallenges Challenges;\n    ITeams Teams;\n    IMoves Moves;\n\n    constructor(address _Contests, address _Challenges, address _Teams, address _Moves) {\n        Contests = IContests(_Contests);\n        Teams = ITeams(_Teams);\n        Challenges = IChallenges(_Challenges);\n        Moves = IMoves(_Moves);\n    }\n\n    // teamID => score\n    mapping(uint => uint) scores;\n\n    mapping(uint => uint) challengeIdToFlagMoveId;\n    // challengeId => (teamId => moveId)\n    mapping(uint => mapping(uint => uint)) challengeIdAndTeamIdToSubmitMoveId;\n    mapping(uint => EnumerableSet.UintSet) contestFlags;\n    mapping(uint => EnumerableSet.UintSet) contestSubmits;\n\n    function _compareStrings(string memory a, string memory b) internal pure returns (bool) {\n        return (keccak256(abi.encodePacked((a))) == keccak256(abi.encodePacked((b))));\n    }\n\n    function _revealFlag(uint contestId, uint challengeId, string memory flag, bytes32 salt) internal\n    onlyContestOwner(contestId)\n    onlyContestInState(contestId, IContests.ContestState.COMMITENDED) {\n        Moves.reveal(challengeIdToFlagMoveId[challengeId], flag, salt);\n    }\n\n    function _revealSubmit(uint contestId, uint teamId, uint challengeId, string memory flag, bytes32 salt) internal\n    onlyTeamMember(teamId)\n    onlyContestInState(contestId, IContests.ContestState.COMMITENDED) {\n        Moves.reveal(challengeIdAndTeamIdToSubmitMoveId[challengeId][teamId], flag, salt);\n    }\n\n    function commitFlag(uint contestId, uint challengeId, bytes32 hash) external\n    onlyContestOwner(contestId)\n    onlyContestInState(contestId, IContests.ContestState.STARTED) {\n        uint oldId = challengeIdToFlagMoveId[challengeId];\n        contestFlags[contestId].remove(oldId);\n        uint id = Moves.commit(contestId, challengeId, 0, 0, hash);\n        challengeIdToFlagMoveId[challengeId] = id;\n        contestFlags[contestId].add(id);\n    }\n\n    function commitSubmit(uint contestId, uint challengeId, uint teamId, bytes32 hash) external\n    onlyTeamMember(teamId)\n    onlyContestInState(contestId, IContests.ContestState.STARTED) {\n        uint oldId = challengeIdAndTeamIdToSubmitMoveId[challengeId][teamId];\n        contestSubmits[contestId].remove(oldId);\n        uint id = Moves.commit(contestId, challengeId, teamId, 0, hash);\n        challengeIdAndTeamIdToSubmitMoveId[challengeId][teamId] = id;\n        contestSubmits[contestId].add(id);\n    }\n\n    function revealFlags(uint contestId, uint [] memory challengeIds, string [] memory flags, bytes32 [] memory salts) external {\n        require(challengeIds.length == flags.length, \"length should be equal\");\n        require(salts.length == flags.length, \"length should be equal\");\n        for (uint i = 0; i < challengeIds.length; i++) {\n            _revealFlag(contestId, challengeIds[i], flags[i], salts[i]);\n        }\n    }\n\n    function revealSubmits(uint contestId, uint teamId, uint [] memory challengeIds, string [] memory flags, bytes32 [] memory salts) external {\n        require(challengeIds.length == flags.length, \"length should be equal\");\n        require(salts.length == flags.length, \"length should be equal\");\n        for (uint i = 0; i < challengeIds.length; i++) {\n            _revealSubmit(contestId, teamId, challengeIds[i], flags[i], salts[i]);\n        }\n    }\n\n    function updateScore(uint contestId) external\n    onlyContestInState(contestId, IContests.ContestState.REVEALENDED) {\n        uint [] memory submits = contestSubmits[contestId].values();\n        uint [] memory flags = contestFlags[contestId].values();\n\n        for (uint i = 0; i < submits.length; i++) scores[Moves.getMove(submits[i]).teamId] = 0;\n\n        for (uint i = 0; i < submits.length; i++) {\n            IMoves.Move memory submitMove = Moves.getMove(submits[i]);\n            IMoves.Move memory answerMove;\n            for (uint j = 0; j < flags.length; j++)\n                if (submitMove.challengeId == Moves.getMove(flags[j]).challengeId)\n                    answerMove = Moves.getMove(flags[j]);\n            if (submitMove.state == IMoves.MoveState.REVEALED && answerMove.state == IMoves.MoveState.REVEALED && _compareStrings(submitMove.info.flag, answerMove.info.flag))\n                scores[submitMove.teamId] += Challenges.getChallenge(submitMove.challengeId).info.value;\n        }\n    }\n\n    function getChallengeFlagMoveId(uint challengeId) external view returns (uint) {\n        return challengeIdToFlagMoveId[challengeId];\n    }\n\n    function getChallengeTeamSubmitMoveId(uint challengeId, uint teamId) external view returns (uint) {\n        return challengeIdAndTeamIdToSubmitMoveId[challengeId][teamId];\n    }\n\n    function getContestSubmitIds(uint contestId) external view returns (uint [] memory) {\n        return contestSubmits[contestId].values();\n    }\n\n    function getContestFlagIds(uint contestId) external view returns (uint [] memory) {\n        return contestFlags[contestId].values();\n    }\n\n    function getScore(uint teamId) external view returns (uint){\n        return scores[teamId];\n    }\n\n    modifier onlyTeamMember(uint teamId) {\n        ITeams.Team memory team = Teams.getTeam(teamId);\n        bool result = false;\n        if (team.info.captain == msg.sender) result = true;\n        for (uint i = 0; i < team.info.members.length; i++)\n            if (team.info.members[i] == msg.sender) result = true;\n        require(result, \"only team captain or member\");\n        _;\n    }\n\n    modifier onlyContestOwner(uint contestId){\n        IContests.Contest memory contest = Contests.getContest(contestId);\n        require(contest.owner == msg.sender, \"only contest owner\");\n        _;\n    }\n    modifier onlyContestInState(uint contestId, IContests.ContestState state){\n        require(Contests.contestInState(contestId, state), \"wrong contest state\");\n        _;\n    }\n\n}",
  "sourcePath": "/Users/yhy/Code/GitHub/DCTF/contracts/Jeopardy.sol",
  "compiler": {
    "name": "solc",
    "version": "0.8.10+commit.fc410830.Emscripten.clang"
  },
  "schemaVersion": "3.4.4",
  "updatedAt": "2022-03-04T12:31:25.818Z",
  "networkType": "ethereum",
  "devdoc": {
    "kind": "dev",
    "methods": {},
    "version": 1
  },
  "userdoc": {
    "kind": "user",
    "methods": {},
    "version": 1
  }
}