{
  "contractName": "Moves",
  "abi": [
    {
      "inputs": [
        {
          "internalType": "address",
          "name": "_Contests",
          "type": "address"
        },
        {
          "internalType": "address",
          "name": "_Teams",
          "type": "address"
        }
      ],
      "stateMutability": "nonpayable",
      "type": "constructor"
    },
    {
      "inputs": [
        {
          "internalType": "uint256",
          "name": "",
          "type": "uint256"
        }
      ],
      "name": "moves",
      "outputs": [
        {
          "internalType": "uint256",
          "name": "id",
          "type": "uint256"
        },
        {
          "components": [
            {
              "internalType": "bytes32",
              "name": "hash",
              "type": "bytes32"
            },
            {
              "internalType": "string",
              "name": "flag",
              "type": "string"
            },
            {
              "internalType": "bytes32",
              "name": "salt",
              "type": "bytes32"
            }
          ],
          "internalType": "struct IMoves.IMove",
          "name": "moveInfo",
          "type": "tuple"
        },
        {
          "internalType": "enum IMoves.MoveState",
          "name": "state",
          "type": "uint8"
        },
        {
          "internalType": "uint256",
          "name": "timeStamp",
          "type": "uint256"
        }
      ],
      "stateMutability": "view",
      "type": "function",
      "constant": true
    },
    {
      "inputs": [],
      "name": "nextId",
      "outputs": [
        {
          "internalType": "uint256",
          "name": "",
          "type": "uint256"
        }
      ],
      "stateMutability": "view",
      "type": "function",
      "constant": true
    },
    {
      "inputs": [
        {
          "internalType": "uint256",
          "name": "contestId",
          "type": "uint256"
        },
        {
          "internalType": "uint256",
          "name": "challengeId",
          "type": "uint256"
        },
        {
          "internalType": "bytes32",
          "name": "hash",
          "type": "bytes32"
        }
      ],
      "name": "commitForAdmin",
      "outputs": [],
      "stateMutability": "nonpayable",
      "type": "function"
    },
    {
      "inputs": [
        {
          "internalType": "uint256",
          "name": "teamId",
          "type": "uint256"
        },
        {
          "internalType": "uint256",
          "name": "challengeId",
          "type": "uint256"
        },
        {
          "internalType": "bytes32",
          "name": "hash",
          "type": "bytes32"
        }
      ],
      "name": "commitForMember",
      "outputs": [],
      "stateMutability": "nonpayable",
      "type": "function"
    },
    {
      "inputs": [
        {
          "internalType": "uint256",
          "name": "contestId",
          "type": "uint256"
        },
        {
          "internalType": "uint256",
          "name": "challengeId",
          "type": "uint256"
        },
        {
          "internalType": "string",
          "name": "flag",
          "type": "string"
        },
        {
          "internalType": "bytes32",
          "name": "salt",
          "type": "bytes32"
        }
      ],
      "name": "revealForAdmin",
      "outputs": [],
      "stateMutability": "nonpayable",
      "type": "function"
    },
    {
      "inputs": [
        {
          "internalType": "uint256",
          "name": "teamId",
          "type": "uint256"
        },
        {
          "internalType": "uint256",
          "name": "challengeId",
          "type": "uint256"
        },
        {
          "internalType": "string",
          "name": "flag",
          "type": "string"
        },
        {
          "internalType": "bytes32",
          "name": "salt",
          "type": "bytes32"
        }
      ],
      "name": "revealForMember",
      "outputs": [],
      "stateMutability": "nonpayable",
      "type": "function"
    }
  ],
  "bytecode": "0x608060405260016005553480156200001657600080fd5b50604051620014b0380380620014b083398181016040528101906200003c91906200012f565b816000806101000a81548173ffffffffffffffffffffffffffffffffffffffff021916908373ffffffffffffffffffffffffffffffffffffffff16021790555080600160006101000a81548173ffffffffffffffffffffffffffffffffffffffff021916908373ffffffffffffffffffffffffffffffffffffffff160217905550505062000176565b600080fd5b600073ffffffffffffffffffffffffffffffffffffffff82169050919050565b6000620000f782620000ca565b9050919050565b6200010981620000ea565b81146200011557600080fd5b50565b6000815190506200012981620000fe565b92915050565b60008060408385031215620001495762000148620000c5565b5b6000620001598582860162000118565b92505060206200016c8582860162000118565b9150509250929050565b61132a80620001866000396000f3fe608060405234801561001057600080fd5b50600436106100625760003560e01c806352be077f146100675780635aeba8351461008357806361b8ce8c1461009f57806367c1742f146100bd5780637698baec146100d9578063c7fec5dd1461010c575b600080fd5b610081600480360381019061007c9190610ae9565b610128565b005b61009d60048036038101906100989190610ae9565b61023d565b005b6100a761033f565b6040516100b49190610b4b565b60405180910390f35b6100d760048036038101906100d29190610cac565b610345565b005b6100f360048036038101906100ee9190610d2f565b610459565b6040516101039493929190610eba565b60405180910390f35b61012660048036038101906101219190610cac565b610546565b005b82600160009054906101000a900473ffffffffffffffffffffffffffffffffffffffff1673ffffffffffffffffffffffffffffffffffffffff16630173828182336040518363ffffffff1660e01b8152600401610186929190610f47565b602060405180830381865afa1580156101a3573d6000803e3d6000fd5b505050506040513d601f19601f820116820180604052508101906101c79190610fa8565b610206576040517f08c379a00000000000000000000000000000000000000000000000000000000081526004016101fd90611032565b60405180910390fd5b61020f82610647565b6007600085815260200190815260200160002060008681526020019081526020016000208190555050505050565b8260008054906101000a900473ffffffffffffffffffffffffffffffffffffffff1673ffffffffffffffffffffffffffffffffffffffff16635a5d096c82336040518363ffffffff1660e01b8152600401610299929190610f47565b602060405180830381865afa1580156102b6573d6000803e3d6000fd5b505050506040513d601f19601f820116820180604052508101906102da9190610fa8565b610319576040517f08c379a00000000000000000000000000000000000000000000000000000000081526004016103109061109e565b60405180910390fd5b61032282610647565b600660008581526020019081526020016000208190555050505050565b60055481565b83600160009054906101000a900473ffffffffffffffffffffffffffffffffffffffff1673ffffffffffffffffffffffffffffffffffffffff16630173828182336040518363ffffffff1660e01b81526004016103a3929190610f47565b602060405180830381865afa1580156103c0573d6000803e3d6000fd5b505050506040513d601f19601f820116820180604052508101906103e49190610fa8565b610423576040517f08c379a000000000000000000000000000000000000000000000000000000000815260040161041a90611032565b60405180910390fd5b61045260076000868152602001908152602001600020600087815260200190815260200160002054848461077c565b5050505050565b6004602052806000526040600020600091509050806000015490806001016040518060600160405290816000820154815260200160018201805461049c906110ed565b80601f01602080910402602001604051908101604052809291908181526020018280546104c8906110ed565b80156105155780601f106104ea57610100808354040283529160200191610515565b820191906000526020600020905b8154815290600101906020018083116104f857829003601f168201915b50505050508152602001600282015481525050908060040160009054906101000a900460ff16908060050154905084565b8360008054906101000a900473ffffffffffffffffffffffffffffffffffffffff1673ffffffffffffffffffffffffffffffffffffffff16635a5d096c82336040518363ffffffff1660e01b81526004016105a2929190610f47565b602060405180830381865afa1580156105bf573d6000803e3d6000fd5b505050506040513d601f19601f820116820180604052508101906105e39190610fa8565b610622576040517f08c379a00000000000000000000000000000000000000000000000000000000081526004016106199061109e565b60405180910390fd5b6106406006600086815260200190815260200160002054848461077c565b5050505050565b600080600554905061066381600261091990919063ffffffff16565b506040518060800160405280828152602001604051806060016040528086815260200160405180602001604052806000815250815260200160008019168152508152602001600160028111156106bc576106bb610e43565b5b81526020014281525060046000838152602001908152602001600020600082015181600001556020820151816001016000820151816000015560208201518160010190805190602001906107119291906109c6565b5060408201518160020155505060408201518160040160006101000a81548160ff0219169083600281111561074957610748610e43565b5b0217905550606082015181600501559050506005600081548092919061076e9061114e565b919050555080915050919050565b600160028111156107905761078f610e43565b5b6004600085815260200190815260200160002060040160009054906101000a900460ff1660028111156107c6576107c5610e43565b5b14610806576040517f08c379a00000000000000000000000000000000000000000000000000000000081526004016107fd906111e3565b60405180910390fd5b8181604051602001610819929190611260565b60405160208183030381529060405280519060200120600460008581526020019081526020016000206001016000015414610889576040517f08c379a0000000000000000000000000000000000000000000000000000000008152600401610880906112d4565b60405180910390fd5b816004600085815260200190815260200160002060010160010190805190602001906108b69291906109c6565b5080600460008581526020019081526020016000206001016002018190555060026004600085815260200190815260200160002060040160006101000a81548160ff0219169083600281111561090f5761090e610e43565b5b0217905550505050565b600061092b836000018360001b610933565b905092915050565b600061093f83836109a3565b61099857826000018290806001815401808255809150506001900390600052602060002001600090919091909150558260000180549050836001016000848152602001908152602001600020819055506001905061099d565b600090505b92915050565b600080836001016000848152602001908152602001600020541415905092915050565b8280546109d2906110ed565b90600052602060002090601f0160209004810192826109f45760008555610a3b565b82601f10610a0d57805160ff1916838001178555610a3b565b82800160010185558215610a3b579182015b82811115610a3a578251825591602001919060010190610a1f565b5b509050610a489190610a4c565b5090565b5b80821115610a65576000816000905550600101610a4d565b5090565b6000604051905090565b600080fd5b600080fd5b6000819050919050565b610a9081610a7d565b8114610a9b57600080fd5b50565b600081359050610aad81610a87565b92915050565b6000819050919050565b610ac681610ab3565b8114610ad157600080fd5b50565b600081359050610ae381610abd565b92915050565b600080600060608486031215610b0257610b01610a73565b5b6000610b1086828701610a9e565b9350506020610b2186828701610a9e565b9250506040610b3286828701610ad4565b9150509250925092565b610b4581610a7d565b82525050565b6000602082019050610b606000830184610b3c565b92915050565b600080fd5b600080fd5b6000601f19601f8301169050919050565b7f4e487b7100000000000000000000000000000000000000000000000000000000600052604160045260246000fd5b610bb982610b70565b810181811067ffffffffffffffff82111715610bd857610bd7610b81565b5b80604052505050565b6000610beb610a69565b9050610bf78282610bb0565b919050565b600067ffffffffffffffff821115610c1757610c16610b81565b5b610c2082610b70565b9050602081019050919050565b82818337600083830152505050565b6000610c4f610c4a84610bfc565b610be1565b905082815260208101848484011115610c6b57610c6a610b6b565b5b610c76848285610c2d565b509392505050565b600082601f830112610c9357610c92610b66565b5b8135610ca3848260208601610c3c565b91505092915050565b60008060008060808587031215610cc657610cc5610a73565b5b6000610cd487828801610a9e565b9450506020610ce587828801610a9e565b935050604085013567ffffffffffffffff811115610d0657610d05610a78565b5b610d1287828801610c7e565b9250506060610d2387828801610ad4565b91505092959194509250565b600060208284031215610d4557610d44610a73565b5b6000610d5384828501610a9e565b91505092915050565b610d6581610ab3565b82525050565b600081519050919050565b600082825260208201905092915050565b60005b83811015610da5578082015181840152602081019050610d8a565b83811115610db4576000848401525b50505050565b6000610dc582610d6b565b610dcf8185610d76565b9350610ddf818560208601610d87565b610de881610b70565b840191505092915050565b6000606083016000830151610e0b6000860182610d5c565b5060208301518482036020860152610e238282610dba565b9150506040830151610e386040860182610d5c565b508091505092915050565b7f4e487b7100000000000000000000000000000000000000000000000000000000600052602160045260246000fd5b60038110610e8357610e82610e43565b5b50565b6000819050610e9482610e72565b919050565b6000610ea482610e86565b9050919050565b610eb481610e99565b82525050565b6000608082019050610ecf6000830187610b3c565b8181036020830152610ee18186610df3565b9050610ef06040830185610eab565b610efd6060830184610b3c565b95945050505050565b600073ffffffffffffffffffffffffffffffffffffffff82169050919050565b6000610f3182610f06565b9050919050565b610f4181610f26565b82525050565b6000604082019050610f5c6000830185610b3c565b610f696020830184610f38565b9392505050565b60008115159050919050565b610f8581610f70565b8114610f9057600080fd5b50565b600081519050610fa281610f7c565b92915050565b600060208284031215610fbe57610fbd610a73565b5b6000610fcc84828501610f93565b91505092915050565b600082825260208201905092915050565b7f6f6e6c79207465616d206d656d62657200000000000000000000000000000000600082015250565b600061101c601083610fd5565b915061102782610fe6565b602082019050919050565b6000602082019050818103600083015261104b8161100f565b9050919050565b7f6f6e6c7920636f6e74657374206f776e65720000000000000000000000000000600082015250565b6000611088601283610fd5565b915061109382611052565b602082019050919050565b600060208201905081810360008301526110b78161107b565b9050919050565b7f4e487b7100000000000000000000000000000000000000000000000000000000600052602260045260246000fd5b6000600282049050600182168061110557607f821691505b60208210811415611119576111186110be565b5b50919050565b7f4e487b7100000000000000000000000000000000000000000000000000000000600052601160045260246000fd5b600061115982610a7d565b91507fffffffffffffffffffffffffffffffffffffffffffffffffffffffffffffffff82141561118c5761118b61111f565b5b600182019050919050565b7f616c72656164792072657665616c656400000000000000000000000000000000600082015250565b60006111cd601083610fd5565b91506111d882611197565b602082019050919050565b600060208201905081810360008301526111fc816111c0565b9050919050565b600081905092915050565b600061121982610d6b565b6112238185611203565b9350611233818560208601610d87565b80840191505092915050565b6000819050919050565b61125a61125582610ab3565b61123f565b82525050565b600061126c828561120e565b91506112788284611249565b6020820191508190509392505050565b7f646f6573206e6f74206d6174636820636f6d6d69746d656e7400000000000000600082015250565b60006112be601983610fd5565b91506112c982611288565b602082019050919050565b600060208201905081810360008301526112ed816112b1565b905091905056fea26469706673582212201b4665211fc988273f5f592c9c6ae9c6a067cae0e3bc5450a68f6dc2a0c0f10d64736f6c634300080a0033",
  "immutableReferences": {},
  "source": "// SPDX-License-Identifier: MIT\npragma solidity ^0.8.10;\npragma experimental ABIEncoderV2;\n\nimport \"@openzeppelin/contracts/utils/structs/EnumerableSet.sol\";\nimport \"./IMoves.sol\";\nimport \"./ITeams.sol\";\nimport \"./IContests.sol\";\n\ncontract Moves is IMoves {\n    using EnumerableSet for EnumerableSet.UintSet;\n\n    IContests Contests;\n    ITeams Teams;\n\n    constructor(address _Contests, address _Teams) {\n        Contests = IContests(_Contests);\n        Teams = ITeams(_Teams);\n    }\n\n    EnumerableSet.UintSet ids;\n    mapping(uint => Move) public moves;\n    uint public nextId = 1;\n    //challengeId => moveId\n    mapping(uint => uint) challengeFlag;\n    //challengeId => (teamId => moveId)\n    mapping(uint => mapping(uint => uint)) submitFlag;\n\n    function _commit(bytes32 hash) internal returns (uint) {\n        uint id = nextId;\n        ids.add(id);\n        moves[id] = Move(id, IMove(hash, \"\", \"\"), MoveState.COMMITTED, block.timestamp);\n        nextId++;\n        return id;\n    }\n\n    function _reveal(uint id, string memory flag, bytes32 salt) internal {\n        require(moves[id].state == IMoves.MoveState.COMMITTED, \"already revealed\");\n        require(moves[id].moveInfo.hash == keccak256(abi.encodePacked(flag, salt)), \"does not match commitment\");\n        moves[id].moveInfo.flag = flag;\n        moves[id].moveInfo.salt = salt;\n        moves[id].state = MoveState.REVEALED;\n    }\n\n        function commitForAdmin(uint contestId, uint challengeId, bytes32 hash) external\n        onlyContestOwner(contestId){\n            challengeFlag[challengeId] = _commit(hash);\n        }\n        function commitForMember(uint teamId, uint challengeId, bytes32 hash) external\n        onlyTeamMember(teamId){\n            submitFlag[challengeId][teamId] = _commit(hash);\n        }\n        function revealForAdmin(uint contestId, uint challengeId, string memory flag, bytes32 salt) external\n        onlyContestOwner(contestId){\n            _reveal(challengeFlag[challengeId],flag,salt);\n        }\n        function revealForMember(uint teamId, uint challengeId, string memory flag, bytes32 salt) external\n        onlyTeamMember(teamId){\n            _reveal(submitFlag[challengeId][teamId],flag,salt);\n        }\n\n    modifier onlyTeamMember(uint teamId) {\n        require(Teams.isTeamMember(teamId, msg.sender), \"only team member\");\n        _;\n    }\n\n    modifier onlyContestOwner(uint contestId){\n        require(Contests.isOwner(contestId, msg.sender), \"only contest owner\");\n        _;\n    }\n\n}",
  "sourcePath": "/Users/yhy/Desktop/Graduation-Project/contracts/Moves.sol",
  "compiler": {
    "name": "solc",
    "version": "0.8.10+commit.fc410830.Emscripten.clang"
  },
  "schemaVersion": "3.4.4",
  "updatedAt": "2022-02-14T03:18:14.207Z",
  "networkType": "ethereum",
  "devdoc": {
    "kind": "dev",
    "methods": {},
    "version": 1
  },
  "userdoc": {
    "kind": "user",
    "methods": {},
    "version": 1
  }
}