{
  "contractName": "Moves",
  "abi": [
    {
      "inputs": [
        {
          "internalType": "address",
          "name": "_Contests",
          "type": "address"
        },
        {
          "internalType": "address",
          "name": "_Challenges",
          "type": "address"
        },
        {
          "internalType": "address",
          "name": "_Teams",
          "type": "address"
        }
      ],
      "stateMutability": "nonpayable",
      "type": "constructor"
    },
    {
      "inputs": [
        {
          "internalType": "uint256",
          "name": "",
          "type": "uint256"
        }
      ],
      "name": "moves",
      "outputs": [
        {
          "internalType": "uint256",
          "name": "id",
          "type": "uint256"
        },
        {
          "internalType": "uint256",
          "name": "contestId",
          "type": "uint256"
        },
        {
          "internalType": "uint256",
          "name": "challengeId",
          "type": "uint256"
        },
        {
          "internalType": "uint256",
          "name": "teamId",
          "type": "uint256"
        },
        {
          "components": [
            {
              "internalType": "bytes32",
              "name": "hash",
              "type": "bytes32"
            },
            {
              "internalType": "string",
              "name": "flag",
              "type": "string"
            },
            {
              "internalType": "bytes32",
              "name": "salt",
              "type": "bytes32"
            }
          ],
          "internalType": "struct IMoves.IMove",
          "name": "info",
          "type": "tuple"
        },
        {
          "internalType": "enum IMoves.MoveState",
          "name": "state",
          "type": "uint8"
        },
        {
          "internalType": "uint256",
          "name": "timeStamp",
          "type": "uint256"
        }
      ],
      "stateMutability": "view",
      "type": "function",
      "constant": true
    },
    {
      "inputs": [],
      "name": "nextId",
      "outputs": [
        {
          "internalType": "uint256",
          "name": "",
          "type": "uint256"
        }
      ],
      "stateMutability": "view",
      "type": "function",
      "constant": true
    },
    {
      "inputs": [
        {
          "internalType": "uint256",
          "name": "contestId",
          "type": "uint256"
        },
        {
          "internalType": "uint256",
          "name": "challengeId",
          "type": "uint256"
        },
        {
          "internalType": "bytes32",
          "name": "hash",
          "type": "bytes32"
        }
      ],
      "name": "commitForAdmin",
      "outputs": [],
      "stateMutability": "nonpayable",
      "type": "function"
    },
    {
      "inputs": [
        {
          "internalType": "uint256",
          "name": "contestId",
          "type": "uint256"
        },
        {
          "internalType": "uint256",
          "name": "teamId",
          "type": "uint256"
        },
        {
          "internalType": "uint256",
          "name": "challengeId",
          "type": "uint256"
        },
        {
          "internalType": "bytes32",
          "name": "hash",
          "type": "bytes32"
        }
      ],
      "name": "commitForMember",
      "outputs": [],
      "stateMutability": "nonpayable",
      "type": "function"
    },
    {
      "inputs": [
        {
          "internalType": "uint256",
          "name": "contestId",
          "type": "uint256"
        },
        {
          "internalType": "uint256",
          "name": "challengeId",
          "type": "uint256"
        },
        {
          "internalType": "string",
          "name": "flag",
          "type": "string"
        },
        {
          "internalType": "bytes32",
          "name": "salt",
          "type": "bytes32"
        }
      ],
      "name": "revealForAdmin",
      "outputs": [],
      "stateMutability": "nonpayable",
      "type": "function"
    },
    {
      "inputs": [
        {
          "internalType": "uint256",
          "name": "contestId",
          "type": "uint256"
        },
        {
          "internalType": "uint256",
          "name": "teamId",
          "type": "uint256"
        },
        {
          "internalType": "uint256",
          "name": "challengeId",
          "type": "uint256"
        },
        {
          "internalType": "string",
          "name": "flag",
          "type": "string"
        },
        {
          "internalType": "bytes32",
          "name": "salt",
          "type": "bytes32"
        }
      ],
      "name": "revealForMember",
      "outputs": [],
      "stateMutability": "nonpayable",
      "type": "function"
    },
    {
      "inputs": [
        {
          "internalType": "uint256",
          "name": "contestId",
          "type": "uint256"
        }
      ],
      "name": "gets",
      "outputs": [
        {
          "components": [
            {
              "internalType": "uint256",
              "name": "id",
              "type": "uint256"
            },
            {
              "internalType": "uint256",
              "name": "contestId",
              "type": "uint256"
            },
            {
              "internalType": "uint256",
              "name": "challengeId",
              "type": "uint256"
            },
            {
              "internalType": "uint256",
              "name": "teamId",
              "type": "uint256"
            },
            {
              "components": [
                {
                  "internalType": "bytes32",
                  "name": "hash",
                  "type": "bytes32"
                },
                {
                  "internalType": "string",
                  "name": "flag",
                  "type": "string"
                },
                {
                  "internalType": "bytes32",
                  "name": "salt",
                  "type": "bytes32"
                }
              ],
              "internalType": "struct IMoves.IMove",
              "name": "info",
              "type": "tuple"
            },
            {
              "internalType": "enum IMoves.MoveState",
              "name": "state",
              "type": "uint8"
            },
            {
              "internalType": "uint256",
              "name": "timeStamp",
              "type": "uint256"
            }
          ],
          "internalType": "struct IMoves.Move[]",
          "name": "",
          "type": "tuple[]"
        }
      ],
      "stateMutability": "view",
      "type": "function",
      "constant": true
    },
    {
      "inputs": [],
      "name": "getCount",
      "outputs": [
        {
          "internalType": "uint256",
          "name": "",
          "type": "uint256"
        }
      ],
      "stateMutability": "view",
      "type": "function",
      "constant": true
    },
    {
      "inputs": [
        {
          "internalType": "uint256",
          "name": "index",
          "type": "uint256"
        }
      ],
      "name": "get",
      "outputs": [
        {
          "components": [
            {
              "internalType": "uint256",
              "name": "id",
              "type": "uint256"
            },
            {
              "internalType": "uint256",
              "name": "contestId",
              "type": "uint256"
            },
            {
              "internalType": "uint256",
              "name": "challengeId",
              "type": "uint256"
            },
            {
              "internalType": "uint256",
              "name": "teamId",
              "type": "uint256"
            },
            {
              "components": [
                {
                  "internalType": "bytes32",
                  "name": "hash",
                  "type": "bytes32"
                },
                {
                  "internalType": "string",
                  "name": "flag",
                  "type": "string"
                },
                {
                  "internalType": "bytes32",
                  "name": "salt",
                  "type": "bytes32"
                }
              ],
              "internalType": "struct IMoves.IMove",
              "name": "info",
              "type": "tuple"
            },
            {
              "internalType": "enum IMoves.MoveState",
              "name": "state",
              "type": "uint8"
            },
            {
              "internalType": "uint256",
              "name": "timeStamp",
              "type": "uint256"
            }
          ],
          "internalType": "struct IMoves.Move",
          "name": "",
          "type": "tuple"
        }
      ],
      "stateMutability": "view",
      "type": "function",
      "constant": true
    }
  ],
  "bytecode": "0x608060405260016006553480156200001657600080fd5b50604051620027273803806200272783398181016040528101906200003c919062000171565b826000806101000a81548173ffffffffffffffffffffffffffffffffffffffff021916908373ffffffffffffffffffffffffffffffffffffffff16021790555080600260006101000a81548173ffffffffffffffffffffffffffffffffffffffff021916908373ffffffffffffffffffffffffffffffffffffffff16021790555081600160006101000a81548173ffffffffffffffffffffffffffffffffffffffff021916908373ffffffffffffffffffffffffffffffffffffffff160217905550505050620001cd565b600080fd5b600073ffffffffffffffffffffffffffffffffffffffff82169050919050565b600062000139826200010c565b9050919050565b6200014b816200012c565b81146200015757600080fd5b50565b6000815190506200016b8162000140565b92915050565b6000806000606084860312156200018d576200018c62000107565b5b60006200019d868287016200015a565b9350506020620001b0868287016200015a565b9250506040620001c3868287016200015a565b9150509250925092565b61254a80620001dd6000396000f3fe608060405234801561001057600080fd5b50600436106100935760003560e01c80637698baec116100665780637698baec1461010a5780639507d39a14610140578063a87d942c14610170578063c7fec5dd1461018e578063d30f3f48146101aa57610093565b8063129bb25d146100985780633c1fc8c8146100b45780635aeba835146100d057806361b8ce8c146100ec575b600080fd5b6100b260048036038101906100ad919061190c565b6101da565b005b6100ce60048036038101906100c991906119a3565b6103d1565b005b6100ea60048036038101906100e59190611a0a565b6106c1565b005b6100f461098d565b6040516101019190611a6c565b60405180910390f35b610124600480360381019061011f9190611a87565b610993565b6040516101379796959493929190611c12565b60405180910390f35b61015a60048036038101906101559190611a87565b610a92565b6040516101679190611d92565b60405180910390f35b610178610bf9565b6040516101859190611a6c565b60405180910390f35b6101a860048036038101906101a39190611db4565b610c0a565b005b6101c460048036038101906101bf9190611a87565b610ded565b6040516101d19190611f95565b60405180910390f35b83600260009054906101000a900473ffffffffffffffffffffffffffffffffffffffff1673ffffffffffffffffffffffffffffffffffffffff16630173828182336040518363ffffffff1660e01b8152600401610238929190611ff8565b602060405180830381865afa158015610255573d6000803e3d6000fd5b505050506040513d601f19601f820116820180604052508101906102799190612059565b6102b8576040517f08c379a00000000000000000000000000000000000000000000000000000000081526004016102af906120e3565b60405180910390fd5b85600360008054906101000a900473ffffffffffffffffffffffffffffffffffffffff1673ffffffffffffffffffffffffffffffffffffffff1663434e540b83836040518363ffffffff1660e01b815260040161031692919061214b565b6020604051808303816000875af1158015610335573d6000803e3d6000fd5b505050506040513d601f19601f820116820180604052508101906103599190612059565b610398576040517f08c379a000000000000000000000000000000000000000000000000000000000815260040161038f906121c0565b60405180910390fd5b6103c7600860008881526020019081526020016000206000898152602001908152602001600020548686610e19565b5050505050505050565b82600260009054906101000a900473ffffffffffffffffffffffffffffffffffffffff1673ffffffffffffffffffffffffffffffffffffffff16630173828182336040518363ffffffff1660e01b815260040161042f929190611ff8565b602060405180830381865afa15801561044c573d6000803e3d6000fd5b505050506040513d601f19601f820116820180604052508101906104709190612059565b6104af576040517f08c379a00000000000000000000000000000000000000000000000000000000081526004016104a6906120e3565b60405180910390fd5b84600260008054906101000a900473ffffffffffffffffffffffffffffffffffffffff1673ffffffffffffffffffffffffffffffffffffffff1663434e540b83836040518363ffffffff1660e01b815260040161050d92919061214b565b6020604051808303816000875af115801561052c573d6000803e3d6000fd5b505050506040513d601f19601f820116820180604052508101906105509190612059565b61058f576040517f08c379a0000000000000000000000000000000000000000000000000000000008152600401610586906121c0565b60405180910390fd5b60006008600087815260200190815260200160002060008881526020019081526020016000205490506105dd81600a60008b8152602001908152602001600020610fb690919063ffffffff16565b50600560008281526020019081526020016000206000808201600090556001820160009055600282016000905560038201600090556004820160008082016000905560018201600061062f91906115e7565b600282016000905550506007820160006101000a81549060ff021916905560088201600090555050600061066589888a89610fd0565b9050806008600089815260200190815260200160002060008a8152602001908152602001600020819055506106b581600a60008c815260200190815260200160002061113890919063ffffffff16565b50505050505050505050565b8260008054906101000a900473ffffffffffffffffffffffffffffffffffffffff1673ffffffffffffffffffffffffffffffffffffffff16635a5d096c82336040518363ffffffff1660e01b815260040161071d929190611ff8565b602060405180830381865afa15801561073a573d6000803e3d6000fd5b505050506040513d601f19601f8201168201806040525081019061075e9190612059565b61079d576040517f08c379a00000000000000000000000000000000000000000000000000000000081526004016107949061222c565b60405180910390fd5b83600260008054906101000a900473ffffffffffffffffffffffffffffffffffffffff1673ffffffffffffffffffffffffffffffffffffffff1663434e540b83836040518363ffffffff1660e01b81526004016107fb92919061214b565b6020604051808303816000875af115801561081a573d6000803e3d6000fd5b505050506040513d601f19601f8201168201806040525081019061083e9190612059565b61087d576040517f08c379a0000000000000000000000000000000000000000000000000000000008152600401610874906121c0565b60405180910390fd5b6000600760008781526020019081526020016000205490506108ba81600960008a8152602001908152602001600020610fb690919063ffffffff16565b50600560008281526020019081526020016000206000808201600090556001820160009055600282016000905560038201600090556004820160008082016000905560018201600061090c91906115e7565b600282016000905550506007820160006101000a81549060ff02191690556008820160009055505060006109438888600089610fd0565b905080600760008981526020019081526020016000208190555061098281600960008b815260200190815260200160002061113890919063ffffffff16565b505050505050505050565b60065481565b600560205280600052604060002060009150905080600001549080600101549080600201549080600301549080600401604051806060016040529081600082015481526020016001820180546109e89061227b565b80601f0160208091040260200160405190810160405280929190818152602001828054610a149061227b565b8015610a615780601f10610a3657610100808354040283529160200191610a61565b820191906000526020600020905b815481529060010190602001808311610a4457829003601f168201915b50505050508152602001600282015481525050908060070160009054906101000a900460ff16908060080154905087565b610a9a611627565b60056000610ab284600361115290919063ffffffff16565b81526020019081526020016000206040518060e0016040529081600082015481526020016001820154815260200160028201548152602001600382015481526020016004820160405180606001604052908160008201548152602001600182018054610b1d9061227b565b80601f0160208091040260200160405190810160405280929190818152602001828054610b499061227b565b8015610b965780601f10610b6b57610100808354040283529160200191610b96565b820191906000526020600020905b815481529060010190602001808311610b7957829003601f168201915b5050505050815260200160028201548152505081526020016007820160009054906101000a900460ff166002811115610bd257610bd1611b9b565b5b6002811115610be457610be3611b9b565b5b81526020016008820154815250509050919050565b6000610c05600361116c565b905090565b8360008054906101000a900473ffffffffffffffffffffffffffffffffffffffff1673ffffffffffffffffffffffffffffffffffffffff16635a5d096c82336040518363ffffffff1660e01b8152600401610c66929190611ff8565b602060405180830381865afa158015610c83573d6000803e3d6000fd5b505050506040513d601f19601f82011682018060405250810190610ca79190612059565b610ce6576040517f08c379a0000000000000000000000000000000000000000000000000000000008152600401610cdd9061222c565b60405180910390fd5b84600360008054906101000a900473ffffffffffffffffffffffffffffffffffffffff1673ffffffffffffffffffffffffffffffffffffffff1663434e540b83836040518363ffffffff1660e01b8152600401610d4492919061214b565b6020604051808303816000875af1158015610d63573d6000803e3d6000fd5b505050506040513d601f19601f82011682018060405250810190610d879190612059565b610dc6576040517f08c379a0000000000000000000000000000000000000000000000000000000008152600401610dbd906121c0565b60405180910390fd5b610de460076000888152602001908152602001600020548686610e19565b50505050505050565b6060610e12610e0d600a6000858152602001908152602001600020611181565b6111a2565b9050919050565b60016002811115610e2d57610e2c611b9b565b5b6005600085815260200190815260200160002060070160009054906101000a900460ff166002811115610e6357610e62611b9b565b5b14610ea3576040517f08c379a0000000000000000000000000000000000000000000000000000000008152600401610e9a906122f9565b60405180910390fd5b8181604051602001610eb6929190612376565b60405160208183030381529060405280519060200120600560008581526020019081526020016000206004016000015414610f26576040517f08c379a0000000000000000000000000000000000000000000000000000000008152600401610f1d906123ea565b60405180910390fd5b81600560008581526020019081526020016000206004016001019080519060200190610f5392919061167c565b5080600560008581526020019081526020016000206004016002018190555060026005600085815260200190815260200160002060070160006101000a81548160ff02191690836002811115610fac57610fab611b9b565b5b0217905550505050565b6000610fc8836000018360001b6113a8565b905092915050565b6000806006549050610fec81600361113890919063ffffffff16565b506040518060e001604052808281526020018781526020018681526020018581526020016040518060600160405280868152602001604051806020016040528060008152508152602001600080191681525081526020016001600281111561105757611056611b9b565b5b81526020014281525060056000838152602001908152602001600020600082015181600001556020820151816001015560408201518160020155606082015181600301556080820151816004016000820151816000015560208201518160010190805190602001906110ca92919061167c565b5060408201518160020155505060a08201518160070160006101000a81548160ff0219169083600281111561110257611101611b9b565b5b021790555060c082015181600801559050506006600081548092919061112790612439565b919050555080915050949350505050565b600061114a836000018360001b6114bc565b905092915050565b6000611161836000018361152c565b60001c905092915050565b600061117a82600001611557565b9050919050565b6060600061119183600001611568565b905060608190508092505050919050565b606060008251905060008167ffffffffffffffff8111156111c6576111c56117ab565b5b6040519080825280602002602001820160405280156111ff57816020015b6111ec611627565b8152602001906001900390816111e45790505b50905060005b8281101561139d576005600086838151811061122457611223612482565b5b602002602001015181526020019081526020016000206040518060e00160405290816000820154815260200160018201548152602001600282015481526020016003820154815260200160048201604051806060016040529081600082015481526020016001820180546112979061227b565b80601f01602080910402602001604051908101604052809291908181526020018280546112c39061227b565b80156113105780601f106112e557610100808354040283529160200191611310565b820191906000526020600020905b8154815290600101906020018083116112f357829003601f168201915b5050505050815260200160028201548152505081526020016007820160009054906101000a900460ff16600281111561134c5761134b611b9b565b5b600281111561135e5761135d611b9b565b5b815260200160088201548152505082828151811061137f5761137e612482565b5b6020026020010181905250808061139590612439565b915050611205565b508092505050919050565b600080836001016000848152602001908152602001600020549050600081146114b05760006001826113da91906124b1565b90506000600186600001805490506113f291906124b1565b905081811461146157600086600001828154811061141357611412612482565b5b906000526020600020015490508087600001848154811061143757611436612482565b5b90600052602060002001819055508387600101600083815260200190815260200160002081905550505b85600001805480611475576114746124e5565b5b6001900381819060005260206000200160009055905585600101600086815260200190815260200160002060009055600193505050506114b6565b60009150505b92915050565b60006114c883836115c4565b611521578260000182908060018154018082558091505060019003906000526020600020016000909190919091505582600001805490508360010160008481526020019081526020016000208190555060019050611526565b600090505b92915050565b600082600001828154811061154457611543612482565b5b9060005260206000200154905092915050565b600081600001805490509050919050565b6060816000018054806020026020016040519081016040528092919081815260200182805480156115b857602002820191906000526020600020905b8154815260200190600101908083116115a4575b50505050509050919050565b600080836001016000848152602001908152602001600020541415905092915050565b5080546115f39061227b565b6000825580601f106116055750611624565b601f0160209004906000526020600020908101906116239190611702565b5b50565b6040518060e001604052806000815260200160008152602001600081526020016000815260200161165661171f565b81526020016000600281111561166f5761166e611b9b565b5b8152602001600081525090565b8280546116889061227b565b90600052602060002090601f0160209004810192826116aa57600085556116f1565b82601f106116c357805160ff19168380011785556116f1565b828001600101855582156116f1579182015b828111156116f05782518255916020019190600101906116d5565b5b5090506116fe9190611702565b5090565b5b8082111561171b576000816000905550600101611703565b5090565b60405180606001604052806000801916815260200160608152602001600080191681525090565b6000604051905090565b600080fd5b600080fd5b6000819050919050565b61176d8161175a565b811461177857600080fd5b50565b60008135905061178a81611764565b92915050565b600080fd5b600080fd5b6000601f19601f8301169050919050565b7f4e487b7100000000000000000000000000000000000000000000000000000000600052604160045260246000fd5b6117e38261179a565b810181811067ffffffffffffffff82111715611802576118016117ab565b5b80604052505050565b6000611815611746565b905061182182826117da565b919050565b600067ffffffffffffffff821115611841576118406117ab565b5b61184a8261179a565b9050602081019050919050565b82818337600083830152505050565b600061187961187484611826565b61180b565b90508281526020810184848401111561189557611894611795565b5b6118a0848285611857565b509392505050565b600082601f8301126118bd576118bc611790565b5b81356118cd848260208601611866565b91505092915050565b6000819050919050565b6118e9816118d6565b81146118f457600080fd5b50565b600081359050611906816118e0565b92915050565b600080600080600060a0868803121561192857611927611750565b5b60006119368882890161177b565b95505060206119478882890161177b565b94505060406119588882890161177b565b935050606086013567ffffffffffffffff81111561197957611978611755565b5b611985888289016118a8565b9250506080611996888289016118f7565b9150509295509295909350565b600080600080608085870312156119bd576119bc611750565b5b60006119cb8782880161177b565b94505060206119dc8782880161177b565b93505060406119ed8782880161177b565b92505060606119fe878288016118f7565b91505092959194509250565b600080600060608486031215611a2357611a22611750565b5b6000611a318682870161177b565b9350506020611a428682870161177b565b9250506040611a53868287016118f7565b9150509250925092565b611a668161175a565b82525050565b6000602082019050611a816000830184611a5d565b92915050565b600060208284031215611a9d57611a9c611750565b5b6000611aab8482850161177b565b91505092915050565b611abd816118d6565b82525050565b600081519050919050565b600082825260208201905092915050565b60005b83811015611afd578082015181840152602081019050611ae2565b83811115611b0c576000848401525b50505050565b6000611b1d82611ac3565b611b278185611ace565b9350611b37818560208601611adf565b611b408161179a565b840191505092915050565b6000606083016000830151611b636000860182611ab4565b5060208301518482036020860152611b7b8282611b12565b9150506040830151611b906040860182611ab4565b508091505092915050565b7f4e487b7100000000000000000000000000000000000000000000000000000000600052602160045260246000fd5b60038110611bdb57611bda611b9b565b5b50565b6000819050611bec82611bca565b919050565b6000611bfc82611bde565b9050919050565b611c0c81611bf1565b82525050565b600060e082019050611c27600083018a611a5d565b611c346020830189611a5d565b611c416040830188611a5d565b611c4e6060830187611a5d565b8181036080830152611c608186611b4b565b9050611c6f60a0830185611c03565b611c7c60c0830184611a5d565b98975050505050505050565b611c918161175a565b82525050565b6000606083016000830151611caf6000860182611ab4565b5060208301518482036020860152611cc78282611b12565b9150506040830151611cdc6040860182611ab4565b508091505092915050565b611cf081611bf1565b82525050565b600060e083016000830151611d0e6000860182611c88565b506020830151611d216020860182611c88565b506040830151611d346040860182611c88565b506060830151611d476060860182611c88565b5060808301518482036080860152611d5f8282611c97565b91505060a0830151611d7460a0860182611ce7565b5060c0830151611d8760c0860182611c88565b508091505092915050565b60006020820190508181036000830152611dac8184611cf6565b905092915050565b60008060008060808587031215611dce57611dcd611750565b5b6000611ddc8782880161177b565b9450506020611ded8782880161177b565b935050604085013567ffffffffffffffff811115611e0e57611e0d611755565b5b611e1a878288016118a8565b9250506060611e2b878288016118f7565b91505092959194509250565b600081519050919050565b600082825260208201905092915050565b6000819050602082019050919050565b600060e083016000830151611e7b6000860182611c88565b506020830151611e8e6020860182611c88565b506040830151611ea16040860182611c88565b506060830151611eb46060860182611c88565b5060808301518482036080860152611ecc8282611c97565b91505060a0830151611ee160a0860182611ce7565b5060c0830151611ef460c0860182611c88565b508091505092915050565b6000611f0b8383611e63565b905092915050565b6000602082019050919050565b6000611f2b82611e37565b611f358185611e42565b935083602082028501611f4785611e53565b8060005b85811015611f835784840389528151611f648582611eff565b9450611f6f83611f13565b925060208a01995050600181019050611f4b565b50829750879550505050505092915050565b60006020820190508181036000830152611faf8184611f20565b905092915050565b600073ffffffffffffffffffffffffffffffffffffffff82169050919050565b6000611fe282611fb7565b9050919050565b611ff281611fd7565b82525050565b600060408201905061200d6000830185611a5d565b61201a6020830184611fe9565b9392505050565b60008115159050919050565b61203681612021565b811461204157600080fd5b50565b6000815190506120538161202d565b92915050565b60006020828403121561206f5761206e611750565b5b600061207d84828501612044565b91505092915050565b600082825260208201905092915050565b7f6f6e6c79207465616d206d656d62657200000000000000000000000000000000600082015250565b60006120cd601083612086565b91506120d882612097565b602082019050919050565b600060208201905081810360008301526120fc816120c0565b9050919050565b6004811061211457612113611b9b565b5b50565b600081905061212582612103565b919050565b600061213582612117565b9050919050565b6121458161212a565b82525050565b60006040820190506121606000830185611a5d565b61216d602083018461213c565b9392505050565b7f77726f6e6720636f6e7465737420737461746500000000000000000000000000600082015250565b60006121aa601383612086565b91506121b582612174565b602082019050919050565b600060208201905081810360008301526121d98161219d565b9050919050565b7f6f6e6c7920636f6e74657374206f776e65720000000000000000000000000000600082015250565b6000612216601283612086565b9150612221826121e0565b602082019050919050565b6000602082019050818103600083015261224581612209565b9050919050565b7f4e487b7100000000000000000000000000000000000000000000000000000000600052602260045260246000fd5b6000600282049050600182168061229357607f821691505b602082108114156122a7576122a661224c565b5b50919050565b7f616c72656164792072657665616c656400000000000000000000000000000000600082015250565b60006122e3601083612086565b91506122ee826122ad565b602082019050919050565b60006020820190508181036000830152612312816122d6565b9050919050565b600081905092915050565b600061232f82611ac3565b6123398185612319565b9350612349818560208601611adf565b80840191505092915050565b6000819050919050565b61237061236b826118d6565b612355565b82525050565b60006123828285612324565b915061238e828461235f565b6020820191508190509392505050565b7f646f6573206e6f74206d6174636820636f6d6d69746d656e7400000000000000600082015250565b60006123d4601983612086565b91506123df8261239e565b602082019050919050565b60006020820190508181036000830152612403816123c7565b9050919050565b7f4e487b7100000000000000000000000000000000000000000000000000000000600052601160045260246000fd5b60006124448261175a565b91507fffffffffffffffffffffffffffffffffffffffffffffffffffffffffffffffff8214156124775761247661240a565b5b600182019050919050565b7f4e487b7100000000000000000000000000000000000000000000000000000000600052603260045260246000fd5b60006124bc8261175a565b91506124c78361175a565b9250828210156124da576124d961240a565b5b828203905092915050565b7f4e487b7100000000000000000000000000000000000000000000000000000000600052603160045260246000fdfea264697066735822122004a88c7add2ee4cb2e4ced79aa9e5e7c16b770a48010b5c6be0b2de714f7309864736f6c634300080a0033",
  "immutableReferences": {},
  "source": "// SPDX-License-Identifier: MIT\npragma solidity ^0.8.10;\npragma experimental ABIEncoderV2;\n\nimport \"@openzeppelin/contracts/utils/structs/EnumerableSet.sol\";\nimport \"./IMoves.sol\";\nimport \"./IContests.sol\";\nimport \"./ITeams.sol\";\nimport \"./IChallenges.sol\";\n\ncontract Moves is IMoves {\n    using EnumerableSet for EnumerableSet.UintSet;\n\n    IContests Contests;\n    IChallenges Challenges;\n    ITeams Teams;\n\n    constructor(address _Contests, address _Challenges, address _Teams) {\n        Contests = IContests(_Contests);\n        Teams = ITeams(_Teams);\n        Challenges = IChallenges(_Challenges);\n    }\n\n    EnumerableSet.UintSet ids;\n    mapping(uint => Move) public moves;\n    uint public nextId = 1;\n\n    // index\n    //challengeId => moveId\n    mapping(uint => uint) challengeFlag;\n    //challengeId => (teamId => moveId)\n    mapping(uint => mapping(uint => uint)) submitFlag;\n    // contest flags\n    mapping(uint => EnumerableSet.UintSet) contestFlags;\n    // contest submit\n    mapping(uint => EnumerableSet.UintSet) contestSubmits;\n\n    function _commit(uint contestId, uint challengeId, uint teamId, bytes32 hash) internal returns (uint) {\n        uint id = nextId;\n        ids.add(id);\n        moves[id] = Move(id, contestId, challengeId, teamId, IMove(hash, \"\", \"\"), MoveState.COMMITTED, block.timestamp);\n        nextId++;\n        return id;\n    }\n\n    function _reveal(uint id, string memory flag, bytes32 salt) internal {\n        require(moves[id].state == IMoves.MoveState.COMMITTED, \"already revealed\");\n        require(moves[id].info.hash == keccak256(abi.encodePacked(flag, salt)), \"does not match commitment\");\n        moves[id].info.flag = flag;\n        moves[id].info.salt = salt;\n        moves[id].state = MoveState.REVEALED;\n    }\n\n    function commitForAdmin(uint contestId, uint challengeId, bytes32 hash) external\n    onlyContestOwner(contestId)\n    onlyContestInState(contestId, IContests.ContestState.STARTED) {\n        uint oldId = challengeFlag[challengeId];\n        contestFlags[contestId].remove(oldId);\n        delete moves[oldId];\n        uint id = _commit(contestId, challengeId, 0, hash);\n        challengeFlag[challengeId] = id;\n        contestFlags[contestId].add(id);\n    }\n\n    function commitForMember(uint contestId, uint teamId, uint challengeId, bytes32 hash) external\n    onlyTeamMember(teamId)\n    onlyContestInState(contestId, IContests.ContestState.STARTED) {\n        uint oldId = submitFlag[challengeId][teamId];\n        contestSubmits[contestId].remove(oldId);\n        delete moves[oldId];\n        uint id = _commit(contestId, challengeId, teamId, hash);\n        submitFlag[challengeId][teamId] = id;\n        contestSubmits[contestId].add(id);\n    }\n\n    function revealForAdmin(uint contestId, uint challengeId, string memory flag, bytes32 salt) external\n    onlyContestOwner(contestId)\n    onlyContestInState(contestId, IContests.ContestState.ENDED) {\n        _reveal(challengeFlag[challengeId], flag, salt);\n    }\n\n    function revealForMember(uint contestId, uint teamId, uint challengeId, string memory flag, bytes32 salt) external\n    onlyTeamMember(teamId)\n    onlyContestInState(contestId, IContests.ContestState.ENDED) {\n        _reveal(submitFlag[challengeId][teamId], flag, salt);\n    }\n\n    function _gets(uint [] memory _ids) internal view returns (Move [] memory) {\n        uint number = _ids.length;\n        Move [] memory result = new Move [](number);\n        for (uint i = 0; i < number; i++) {\n            result[i] = moves[_ids[i]];\n        }\n        return result;\n    }\n\n    function gets(uint contestId) external view returns (Move [] memory) {\n        return _gets(contestSubmits[contestId].values());\n    }\n\n    function getCount() external view returns (uint) {\n        return ids.length();\n    }\n\n    function get(uint index) external view returns (Move memory) {\n        return  moves[ids.at(index)];\n    }\n\n    modifier onlyTeamMember(uint teamId) {\n        require(Teams.isTeamMember(teamId, msg.sender), \"only team member\");\n        _;\n    }\n\n    modifier onlyContestOwner(uint contestId){\n        require(Contests.isOwner(contestId, msg.sender), \"only contest owner\");\n        _;\n    }\n\n    modifier onlyContestInState(uint contestId, IContests.ContestState state){\n        require(Contests.contestInState(contestId, state), \"wrong contest state\");\n        _;\n    }\n\n}",
  "sourcePath": "/Users/yhy/Code/GitHub/DCTF/contracts/Moves.sol",
  "compiler": {
    "name": "solc",
    "version": "0.8.10+commit.fc410830.Emscripten.clang"
  },
  "schemaVersion": "3.4.4",
  "updatedAt": "2022-02-19T13:26:47.766Z",
  "networkType": "ethereum",
  "devdoc": {
    "kind": "dev",
    "methods": {},
    "version": 1
  },
  "userdoc": {
    "kind": "user",
    "methods": {},
    "version": 1
  }
}