{
  "contractName": "Moves",
  "abi": [
    {
      "inputs": [
        {
          "internalType": "address",
          "name": "_Contests",
          "type": "address"
        },
        {
          "internalType": "address",
          "name": "_Challenges",
          "type": "address"
        },
        {
          "internalType": "address",
          "name": "_Teams",
          "type": "address"
        }
      ],
      "stateMutability": "nonpayable",
      "type": "constructor"
    },
    {
      "inputs": [
        {
          "internalType": "uint256",
          "name": "",
          "type": "uint256"
        }
      ],
      "name": "moves",
      "outputs": [
        {
          "internalType": "uint256",
          "name": "id",
          "type": "uint256"
        },
        {
          "internalType": "uint256",
          "name": "contestId",
          "type": "uint256"
        },
        {
          "internalType": "uint256",
          "name": "challengeId",
          "type": "uint256"
        },
        {
          "internalType": "uint256",
          "name": "teamId",
          "type": "uint256"
        },
        {
          "components": [
            {
              "internalType": "bytes32",
              "name": "hash",
              "type": "bytes32"
            },
            {
              "internalType": "string",
              "name": "flag",
              "type": "string"
            },
            {
              "internalType": "bytes32",
              "name": "salt",
              "type": "bytes32"
            }
          ],
          "internalType": "struct IMoves.IMove",
          "name": "moveInfo",
          "type": "tuple"
        },
        {
          "internalType": "enum IMoves.MoveState",
          "name": "state",
          "type": "uint8"
        },
        {
          "internalType": "uint256",
          "name": "timeStamp",
          "type": "uint256"
        }
      ],
      "stateMutability": "view",
      "type": "function",
      "constant": true
    },
    {
      "inputs": [],
      "name": "nextId",
      "outputs": [
        {
          "internalType": "uint256",
          "name": "",
          "type": "uint256"
        }
      ],
      "stateMutability": "view",
      "type": "function",
      "constant": true
    },
    {
      "inputs": [
        {
          "internalType": "uint256",
          "name": "contestId",
          "type": "uint256"
        },
        {
          "internalType": "uint256",
          "name": "challengeId",
          "type": "uint256"
        },
        {
          "internalType": "bytes32",
          "name": "hash",
          "type": "bytes32"
        }
      ],
      "name": "commitForAdmin",
      "outputs": [],
      "stateMutability": "nonpayable",
      "type": "function"
    },
    {
      "inputs": [
        {
          "internalType": "uint256",
          "name": "contestId",
          "type": "uint256"
        },
        {
          "internalType": "uint256",
          "name": "teamId",
          "type": "uint256"
        },
        {
          "internalType": "uint256",
          "name": "challengeId",
          "type": "uint256"
        },
        {
          "internalType": "bytes32",
          "name": "hash",
          "type": "bytes32"
        }
      ],
      "name": "commitForMember",
      "outputs": [],
      "stateMutability": "nonpayable",
      "type": "function"
    },
    {
      "inputs": [
        {
          "internalType": "uint256",
          "name": "contestId",
          "type": "uint256"
        },
        {
          "internalType": "uint256",
          "name": "challengeId",
          "type": "uint256"
        },
        {
          "internalType": "string",
          "name": "flag",
          "type": "string"
        },
        {
          "internalType": "bytes32",
          "name": "salt",
          "type": "bytes32"
        }
      ],
      "name": "revealForAdmin",
      "outputs": [],
      "stateMutability": "nonpayable",
      "type": "function"
    },
    {
      "inputs": [
        {
          "internalType": "uint256",
          "name": "contestId",
          "type": "uint256"
        },
        {
          "internalType": "uint256",
          "name": "teamId",
          "type": "uint256"
        },
        {
          "internalType": "uint256",
          "name": "challengeId",
          "type": "uint256"
        },
        {
          "internalType": "string",
          "name": "flag",
          "type": "string"
        },
        {
          "internalType": "bytes32",
          "name": "salt",
          "type": "bytes32"
        }
      ],
      "name": "revealForMember",
      "outputs": [],
      "stateMutability": "nonpayable",
      "type": "function"
    },
    {
      "inputs": [
        {
          "internalType": "uint256",
          "name": "contestId",
          "type": "uint256"
        }
      ],
      "name": "gets",
      "outputs": [
        {
          "components": [
            {
              "internalType": "uint256",
              "name": "id",
              "type": "uint256"
            },
            {
              "internalType": "uint256",
              "name": "contestId",
              "type": "uint256"
            },
            {
              "internalType": "uint256",
              "name": "challengeId",
              "type": "uint256"
            },
            {
              "internalType": "uint256",
              "name": "teamId",
              "type": "uint256"
            },
            {
              "components": [
                {
                  "internalType": "bytes32",
                  "name": "hash",
                  "type": "bytes32"
                },
                {
                  "internalType": "string",
                  "name": "flag",
                  "type": "string"
                },
                {
                  "internalType": "bytes32",
                  "name": "salt",
                  "type": "bytes32"
                }
              ],
              "internalType": "struct IMoves.IMove",
              "name": "moveInfo",
              "type": "tuple"
            },
            {
              "internalType": "enum IMoves.MoveState",
              "name": "state",
              "type": "uint8"
            },
            {
              "internalType": "uint256",
              "name": "timeStamp",
              "type": "uint256"
            }
          ],
          "internalType": "struct IMoves.Move[]",
          "name": "",
          "type": "tuple[]"
        }
      ],
      "stateMutability": "view",
      "type": "function",
      "constant": true
    },
    {
      "inputs": [],
      "name": "getCount",
      "outputs": [
        {
          "internalType": "uint256",
          "name": "",
          "type": "uint256"
        }
      ],
      "stateMutability": "view",
      "type": "function",
      "constant": true
    },
    {
      "inputs": [
        {
          "internalType": "uint256",
          "name": "index",
          "type": "uint256"
        }
      ],
      "name": "get",
      "outputs": [
        {
          "components": [
            {
              "internalType": "uint256",
              "name": "id",
              "type": "uint256"
            },
            {
              "internalType": "uint256",
              "name": "contestId",
              "type": "uint256"
            },
            {
              "internalType": "uint256",
              "name": "challengeId",
              "type": "uint256"
            },
            {
              "internalType": "uint256",
              "name": "teamId",
              "type": "uint256"
            },
            {
              "components": [
                {
                  "internalType": "bytes32",
                  "name": "hash",
                  "type": "bytes32"
                },
                {
                  "internalType": "string",
                  "name": "flag",
                  "type": "string"
                },
                {
                  "internalType": "bytes32",
                  "name": "salt",
                  "type": "bytes32"
                }
              ],
              "internalType": "struct IMoves.IMove",
              "name": "moveInfo",
              "type": "tuple"
            },
            {
              "internalType": "enum IMoves.MoveState",
              "name": "state",
              "type": "uint8"
            },
            {
              "internalType": "uint256",
              "name": "timeStamp",
              "type": "uint256"
            }
          ],
          "internalType": "struct IMoves.Move",
          "name": "",
          "type": "tuple"
        }
      ],
      "stateMutability": "view",
      "type": "function",
      "constant": true
    }
  ],
  "bytecode": "0x608060405260016006553480156200001657600080fd5b50604051620022c2380380620022c283398181016040528101906200003c919062000171565b826000806101000a81548173ffffffffffffffffffffffffffffffffffffffff021916908373ffffffffffffffffffffffffffffffffffffffff16021790555080600260006101000a81548173ffffffffffffffffffffffffffffffffffffffff021916908373ffffffffffffffffffffffffffffffffffffffff16021790555081600160006101000a81548173ffffffffffffffffffffffffffffffffffffffff021916908373ffffffffffffffffffffffffffffffffffffffff160217905550505050620001cd565b600080fd5b600073ffffffffffffffffffffffffffffffffffffffff82169050919050565b600062000139826200010c565b9050919050565b6200014b816200012c565b81146200015757600080fd5b50565b6000815190506200016b8162000140565b92915050565b6000806000606084860312156200018d576200018c62000107565b5b60006200019d868287016200015a565b9350506020620001b0868287016200015a565b9250506040620001c3868287016200015a565b9150509250925092565b6120e580620001dd6000396000f3fe608060405234801561001057600080fd5b50600436106100935760003560e01c80637698baec116100665780637698baec1461010a5780639507d39a14610140578063a87d942c14610170578063c7fec5dd1461018e578063d30f3f48146101aa57610093565b8063129bb25d146100985780633c1fc8c8146100b45780635aeba835146100d057806361b8ce8c146100ec575b600080fd5b6100b260048036038101906100ad9190611584565b6101da565b005b6100ce60048036038101906100c9919061161b565b6102ef565b005b6100ea60048036038101906100e59190611682565b6104fd565b005b6100f46106e7565b60405161010191906116e4565b60405180910390f35b610124600480360381019061011f91906116ff565b6106ed565b604051610137979695949392919061188a565b60405180910390f35b61015a600480360381019061015591906116ff565b6107ec565b6040516101679190611a0a565b60405180910390f35b610178610953565b60405161018591906116e4565b60405180910390f35b6101a860048036038101906101a39190611a2c565b610964565b005b6101c460048036038101906101bf91906116ff565b610a65565b6040516101d19190611c0d565b60405180910390f35b83600260009054906101000a900473ffffffffffffffffffffffffffffffffffffffff1673ffffffffffffffffffffffffffffffffffffffff16630173828182336040518363ffffffff1660e01b8152600401610238929190611c70565b602060405180830381865afa158015610255573d6000803e3d6000fd5b505050506040513d601f19601f820116820180604052508101906102799190611cd1565b6102b8576040517f08c379a00000000000000000000000000000000000000000000000000000000081526004016102af90611d5b565b60405180910390fd5b6102e7600860008681526020019081526020016000206000878152602001908152602001600020548484610a91565b505050505050565b82600260009054906101000a900473ffffffffffffffffffffffffffffffffffffffff1673ffffffffffffffffffffffffffffffffffffffff16630173828182336040518363ffffffff1660e01b815260040161034d929190611c70565b602060405180830381865afa15801561036a573d6000803e3d6000fd5b505050506040513d601f19601f8201168201806040525081019061038e9190611cd1565b6103cd576040517f08c379a00000000000000000000000000000000000000000000000000000000081526004016103c490611d5b565b60405180910390fd5b600060086000858152602001908152602001600020600086815260200190815260200160002054905061041b81600a6000898152602001908152602001600020610c2e90919063ffffffff16565b50600560008281526020019081526020016000206000808201600090556001820160009055600282016000905560038201600090556004820160008082016000905560018201600061046d919061125f565b600282016000905550506007820160006101000a81549060ff02191690556008820160009055505060006104a387868887610c48565b905080600860008781526020019081526020016000206000888152602001908152602001600020819055506104f381600a60008a8152602001908152602001600020610db090919063ffffffff16565b5050505050505050565b8260008054906101000a900473ffffffffffffffffffffffffffffffffffffffff1673ffffffffffffffffffffffffffffffffffffffff16635a5d096c82336040518363ffffffff1660e01b8152600401610559929190611c70565b602060405180830381865afa158015610576573d6000803e3d6000fd5b505050506040513d601f19601f8201168201806040525081019061059a9190611cd1565b6105d9576040517f08c379a00000000000000000000000000000000000000000000000000000000081526004016105d090611dc7565b60405180910390fd5b6000600760008581526020019081526020016000205490506106168160096000888152602001908152602001600020610c2e90919063ffffffff16565b506005600082815260200190815260200160002060008082016000905560018201600090556002820160009055600382016000905560048201600080820160009055600182016000610668919061125f565b600282016000905550506007820160006101000a81549060ff021916905560088201600090555050600061069f8686600087610c48565b90508060076000878152602001908152602001600020819055506106de8160096000898152602001908152602001600020610db090919063ffffffff16565b50505050505050565b60065481565b6005602052806000526040600020600091509050806000015490806001015490806002015490806003015490806004016040518060600160405290816000820154815260200160018201805461074290611e16565b80601f016020809104026020016040519081016040528092919081815260200182805461076e90611e16565b80156107bb5780601f10610790576101008083540402835291602001916107bb565b820191906000526020600020905b81548152906001019060200180831161079e57829003601f168201915b50505050508152602001600282015481525050908060070160009054906101000a900460ff16908060080154905087565b6107f461129f565b6005600061080c846003610dca90919063ffffffff16565b81526020019081526020016000206040518060e001604052908160008201548152602001600182015481526020016002820154815260200160038201548152602001600482016040518060600160405290816000820154815260200160018201805461087790611e16565b80601f01602080910402602001604051908101604052809291908181526020018280546108a390611e16565b80156108f05780601f106108c5576101008083540402835291602001916108f0565b820191906000526020600020905b8154815290600101906020018083116108d357829003601f168201915b5050505050815260200160028201548152505081526020016007820160009054906101000a900460ff16600281111561092c5761092b611813565b5b600281111561093e5761093d611813565b5b81526020016008820154815250509050919050565b600061095f6003610de4565b905090565b8360008054906101000a900473ffffffffffffffffffffffffffffffffffffffff1673ffffffffffffffffffffffffffffffffffffffff16635a5d096c82336040518363ffffffff1660e01b81526004016109c0929190611c70565b602060405180830381865afa1580156109dd573d6000803e3d6000fd5b505050506040513d601f19601f82011682018060405250810190610a019190611cd1565b610a40576040517f08c379a0000000000000000000000000000000000000000000000000000000008152600401610a3790611dc7565b60405180910390fd5b610a5e60076000868152602001908152602001600020548484610a91565b5050505050565b6060610a8a610a85600a6000858152602001908152602001600020610df9565b610e1a565b9050919050565b60016002811115610aa557610aa4611813565b5b6005600085815260200190815260200160002060070160009054906101000a900460ff166002811115610adb57610ada611813565b5b14610b1b576040517f08c379a0000000000000000000000000000000000000000000000000000000008152600401610b1290611e94565b60405180910390fd5b8181604051602001610b2e929190611f11565b60405160208183030381529060405280519060200120600560008581526020019081526020016000206004016000015414610b9e576040517f08c379a0000000000000000000000000000000000000000000000000000000008152600401610b9590611f85565b60405180910390fd5b81600560008581526020019081526020016000206004016001019080519060200190610bcb9291906112f4565b5080600560008581526020019081526020016000206004016002018190555060026005600085815260200190815260200160002060070160006101000a81548160ff02191690836002811115610c2457610c23611813565b5b0217905550505050565b6000610c40836000018360001b611020565b905092915050565b6000806006549050610c64816003610db090919063ffffffff16565b506040518060e0016040528082815260200187815260200186815260200185815260200160405180606001604052808681526020016040518060200160405280600081525081526020016000801916815250815260200160016002811115610ccf57610cce611813565b5b8152602001428152506005600083815260200190815260200160002060008201518160000155602082015181600101556040820151816002015560608201518160030155608082015181600401600082015181600001556020820151816001019080519060200190610d429291906112f4565b5060408201518160020155505060a08201518160070160006101000a81548160ff02191690836002811115610d7a57610d79611813565b5b021790555060c0820151816008015590505060066000815480929190610d9f90611fd4565b919050555080915050949350505050565b6000610dc2836000018360001b611134565b905092915050565b6000610dd983600001836111a4565b60001c905092915050565b6000610df2826000016111cf565b9050919050565b60606000610e09836000016111e0565b905060608190508092505050919050565b606060008251905060008167ffffffffffffffff811115610e3e57610e3d611423565b5b604051908082528060200260200182016040528015610e7757816020015b610e6461129f565b815260200190600190039081610e5c5790505b50905060005b828110156110155760056000868381518110610e9c57610e9b61201d565b5b602002602001015181526020019081526020016000206040518060e0016040529081600082015481526020016001820154815260200160028201548152602001600382015481526020016004820160405180606001604052908160008201548152602001600182018054610f0f90611e16565b80601f0160208091040260200160405190810160405280929190818152602001828054610f3b90611e16565b8015610f885780601f10610f5d57610100808354040283529160200191610f88565b820191906000526020600020905b815481529060010190602001808311610f6b57829003601f168201915b5050505050815260200160028201548152505081526020016007820160009054906101000a900460ff166002811115610fc457610fc3611813565b5b6002811115610fd657610fd5611813565b5b8152602001600882015481525050828281518110610ff757610ff661201d565b5b6020026020010181905250808061100d90611fd4565b915050610e7d565b508092505050919050565b60008083600101600084815260200190815260200160002054905060008114611128576000600182611052919061204c565b905060006001866000018054905061106a919061204c565b90508181146110d957600086600001828154811061108b5761108a61201d565b5b90600052602060002001549050808760000184815481106110af576110ae61201d565b5b90600052602060002001819055508387600101600083815260200190815260200160002081905550505b856000018054806110ed576110ec612080565b5b60019003818190600052602060002001600090559055856001016000868152602001908152602001600020600090556001935050505061112e565b60009150505b92915050565b6000611140838361123c565b61119957826000018290806001815401808255809150506001900390600052602060002001600090919091909150558260000180549050836001016000848152602001908152602001600020819055506001905061119e565b600090505b92915050565b60008260000182815481106111bc576111bb61201d565b5b9060005260206000200154905092915050565b600081600001805490509050919050565b60608160000180548060200260200160405190810160405280929190818152602001828054801561123057602002820191906000526020600020905b81548152602001906001019080831161121c575b50505050509050919050565b600080836001016000848152602001908152602001600020541415905092915050565b50805461126b90611e16565b6000825580601f1061127d575061129c565b601f01602090049060005260206000209081019061129b919061137a565b5b50565b6040518060e00160405280600081526020016000815260200160008152602001600081526020016112ce611397565b8152602001600060028111156112e7576112e6611813565b5b8152602001600081525090565b82805461130090611e16565b90600052602060002090601f0160209004810192826113225760008555611369565b82601f1061133b57805160ff1916838001178555611369565b82800160010185558215611369579182015b8281111561136857825182559160200191906001019061134d565b5b509050611376919061137a565b5090565b5b8082111561139357600081600090555060010161137b565b5090565b60405180606001604052806000801916815260200160608152602001600080191681525090565b6000604051905090565b600080fd5b600080fd5b6000819050919050565b6113e5816113d2565b81146113f057600080fd5b50565b600081359050611402816113dc565b92915050565b600080fd5b600080fd5b6000601f19601f8301169050919050565b7f4e487b7100000000000000000000000000000000000000000000000000000000600052604160045260246000fd5b61145b82611412565b810181811067ffffffffffffffff8211171561147a57611479611423565b5b80604052505050565b600061148d6113be565b90506114998282611452565b919050565b600067ffffffffffffffff8211156114b9576114b8611423565b5b6114c282611412565b9050602081019050919050565b82818337600083830152505050565b60006114f16114ec8461149e565b611483565b90508281526020810184848401111561150d5761150c61140d565b5b6115188482856114cf565b509392505050565b600082601f83011261153557611534611408565b5b81356115458482602086016114de565b91505092915050565b6000819050919050565b6115618161154e565b811461156c57600080fd5b50565b60008135905061157e81611558565b92915050565b600080600080600060a086880312156115a05761159f6113c8565b5b60006115ae888289016113f3565b95505060206115bf888289016113f3565b94505060406115d0888289016113f3565b935050606086013567ffffffffffffffff8111156115f1576115f06113cd565b5b6115fd88828901611520565b925050608061160e8882890161156f565b9150509295509295909350565b60008060008060808587031215611635576116346113c8565b5b6000611643878288016113f3565b9450506020611654878288016113f3565b9350506040611665878288016113f3565b92505060606116768782880161156f565b91505092959194509250565b60008060006060848603121561169b5761169a6113c8565b5b60006116a9868287016113f3565b93505060206116ba868287016113f3565b92505060406116cb8682870161156f565b9150509250925092565b6116de816113d2565b82525050565b60006020820190506116f960008301846116d5565b92915050565b600060208284031215611715576117146113c8565b5b6000611723848285016113f3565b91505092915050565b6117358161154e565b82525050565b600081519050919050565b600082825260208201905092915050565b60005b8381101561177557808201518184015260208101905061175a565b83811115611784576000848401525b50505050565b60006117958261173b565b61179f8185611746565b93506117af818560208601611757565b6117b881611412565b840191505092915050565b60006060830160008301516117db600086018261172c565b50602083015184820360208601526117f3828261178a565b9150506040830151611808604086018261172c565b508091505092915050565b7f4e487b7100000000000000000000000000000000000000000000000000000000600052602160045260246000fd5b6003811061185357611852611813565b5b50565b600081905061186482611842565b919050565b600061187482611856565b9050919050565b61188481611869565b82525050565b600060e08201905061189f600083018a6116d5565b6118ac60208301896116d5565b6118b960408301886116d5565b6118c660608301876116d5565b81810360808301526118d881866117c3565b90506118e760a083018561187b565b6118f460c08301846116d5565b98975050505050505050565b611909816113d2565b82525050565b6000606083016000830151611927600086018261172c565b506020830151848203602086015261193f828261178a565b9150506040830151611954604086018261172c565b508091505092915050565b61196881611869565b82525050565b600060e0830160008301516119866000860182611900565b5060208301516119996020860182611900565b5060408301516119ac6040860182611900565b5060608301516119bf6060860182611900565b50608083015184820360808601526119d7828261190f565b91505060a08301516119ec60a086018261195f565b5060c08301516119ff60c0860182611900565b508091505092915050565b60006020820190508181036000830152611a24818461196e565b905092915050565b60008060008060808587031215611a4657611a456113c8565b5b6000611a54878288016113f3565b9450506020611a65878288016113f3565b935050604085013567ffffffffffffffff811115611a8657611a856113cd565b5b611a9287828801611520565b9250506060611aa38782880161156f565b91505092959194509250565b600081519050919050565b600082825260208201905092915050565b6000819050602082019050919050565b600060e083016000830151611af36000860182611900565b506020830151611b066020860182611900565b506040830151611b196040860182611900565b506060830151611b2c6060860182611900565b5060808301518482036080860152611b44828261190f565b91505060a0830151611b5960a086018261195f565b5060c0830151611b6c60c0860182611900565b508091505092915050565b6000611b838383611adb565b905092915050565b6000602082019050919050565b6000611ba382611aaf565b611bad8185611aba565b935083602082028501611bbf85611acb565b8060005b85811015611bfb5784840389528151611bdc8582611b77565b9450611be783611b8b565b925060208a01995050600181019050611bc3565b50829750879550505050505092915050565b60006020820190508181036000830152611c278184611b98565b905092915050565b600073ffffffffffffffffffffffffffffffffffffffff82169050919050565b6000611c5a82611c2f565b9050919050565b611c6a81611c4f565b82525050565b6000604082019050611c8560008301856116d5565b611c926020830184611c61565b9392505050565b60008115159050919050565b611cae81611c99565b8114611cb957600080fd5b50565b600081519050611ccb81611ca5565b92915050565b600060208284031215611ce757611ce66113c8565b5b6000611cf584828501611cbc565b91505092915050565b600082825260208201905092915050565b7f6f6e6c79207465616d206d656d62657200000000000000000000000000000000600082015250565b6000611d45601083611cfe565b9150611d5082611d0f565b602082019050919050565b60006020820190508181036000830152611d7481611d38565b9050919050565b7f6f6e6c7920636f6e74657374206f776e65720000000000000000000000000000600082015250565b6000611db1601283611cfe565b9150611dbc82611d7b565b602082019050919050565b60006020820190508181036000830152611de081611da4565b9050919050565b7f4e487b7100000000000000000000000000000000000000000000000000000000600052602260045260246000fd5b60006002820490506001821680611e2e57607f821691505b60208210811415611e4257611e41611de7565b5b50919050565b7f616c72656164792072657665616c656400000000000000000000000000000000600082015250565b6000611e7e601083611cfe565b9150611e8982611e48565b602082019050919050565b60006020820190508181036000830152611ead81611e71565b9050919050565b600081905092915050565b6000611eca8261173b565b611ed48185611eb4565b9350611ee4818560208601611757565b80840191505092915050565b6000819050919050565b611f0b611f068261154e565b611ef0565b82525050565b6000611f1d8285611ebf565b9150611f298284611efa565b6020820191508190509392505050565b7f646f6573206e6f74206d6174636820636f6d6d69746d656e7400000000000000600082015250565b6000611f6f601983611cfe565b9150611f7a82611f39565b602082019050919050565b60006020820190508181036000830152611f9e81611f62565b9050919050565b7f4e487b7100000000000000000000000000000000000000000000000000000000600052601160045260246000fd5b6000611fdf826113d2565b91507fffffffffffffffffffffffffffffffffffffffffffffffffffffffffffffffff82141561201257612011611fa5565b5b600182019050919050565b7f4e487b7100000000000000000000000000000000000000000000000000000000600052603260045260246000fd5b6000612057826113d2565b9150612062836113d2565b92508282101561207557612074611fa5565b5b828203905092915050565b7f4e487b7100000000000000000000000000000000000000000000000000000000600052603160045260246000fdfea2646970667358221220d65f8ec77c8e3cc4b97fda2180a5acb7cae800dfd018a19adf07a4659849146364736f6c634300080a0033",
  "immutableReferences": {},
  "source": "// SPDX-License-Identifier: MIT\npragma solidity ^0.8.10;\npragma experimental ABIEncoderV2;\n\nimport \"@openzeppelin/contracts/utils/structs/EnumerableSet.sol\";\nimport \"./IMoves.sol\";\nimport \"./IContests.sol\";\nimport \"./ITeams.sol\";\nimport \"./IChallenges.sol\";\n\ncontract Moves is IMoves {\n    using EnumerableSet for EnumerableSet.UintSet;\n\n    IContests Contests;\n    IChallenges Challenges;\n    ITeams Teams;\n\n    constructor(address _Contests, address _Challenges, address _Teams) {\n        Contests = IContests(_Contests);\n        Teams = ITeams(_Teams);\n        Challenges = IChallenges(_Challenges);\n    }\n\n    EnumerableSet.UintSet ids;\n    mapping(uint => Move) public moves;\n    uint public nextId = 1;\n\n    // index\n    //challengeId => moveId\n    mapping(uint => uint) challengeFlag;\n    //challengeId => (teamId => moveId)\n    mapping(uint => mapping(uint => uint)) submitFlag;\n    // contest flags\n    mapping(uint => EnumerableSet.UintSet) contestFlags;\n    // contest submit\n    mapping(uint => EnumerableSet.UintSet) contestSubmits;\n\n    function _commit(uint contestId, uint challengeId, uint teamId, bytes32 hash) internal returns (uint) {\n        uint id = nextId;\n        ids.add(id);\n        moves[id] = Move(id, contestId, challengeId, teamId, IMove(hash, \"\", \"\"), MoveState.COMMITTED, block.timestamp);\n        nextId++;\n        return id;\n    }\n\n    function _reveal(uint id, string memory flag, bytes32 salt) internal {\n        require(moves[id].state == IMoves.MoveState.COMMITTED, \"already revealed\");\n        require(moves[id].moveInfo.hash == keccak256(abi.encodePacked(flag, salt)), \"does not match commitment\");\n        moves[id].moveInfo.flag = flag;\n        moves[id].moveInfo.salt = salt;\n        moves[id].state = MoveState.REVEALED;\n    }\n\n    function commitForAdmin(uint contestId, uint challengeId, bytes32 hash) external\n    onlyContestOwner(contestId) {\n        uint oldId = challengeFlag[challengeId];\n        contestFlags[contestId].remove(oldId);\n        delete moves[oldId];\n        uint id =_commit(contestId, challengeId, 0, hash);\n        challengeFlag[challengeId] = id;\n        contestFlags[contestId].add(id);\n    }\n\n    function commitForMember(uint contestId, uint teamId, uint challengeId, bytes32 hash) external\n    onlyTeamMember(teamId) {\n        uint oldId = submitFlag[challengeId][teamId];\n        contestSubmits[contestId].remove(oldId);\n        delete moves[oldId];\n        uint id = _commit(contestId, challengeId, teamId, hash);\n        submitFlag[challengeId][teamId] = id;\n        contestSubmits[contestId].add(id);\n    }\n\n    function revealForAdmin(uint contestId, uint challengeId, string memory flag, bytes32 salt) external\n    onlyContestOwner(contestId) {\n        _reveal(challengeFlag[challengeId], flag, salt);\n    }\n\n    function revealForMember(uint contestId, uint teamId, uint challengeId, string memory flag, bytes32 salt) external\n    onlyTeamMember(teamId) {\n        _reveal(submitFlag[challengeId][teamId], flag, salt);\n    }\n\n    function _gets(uint [] memory _ids) internal view returns (Move [] memory) {\n        uint number = _ids.length;\n        Move [] memory result = new Move [](number);\n        for (uint i = 0; i < number; i++) {\n            result[i] = moves[_ids[i]];\n        }\n        return result;\n    }\n\n    function gets(uint contestId) external view returns (Move [] memory) {\n        return _gets(contestSubmits[contestId].values());\n    }\n\n    function getCount() external view returns (uint) {\n        return ids.length();\n    }\n\n    function get(uint index) external view returns (Move memory) {\n        return  moves[ids.at(index)];\n    }\n\n    modifier onlyTeamMember(uint teamId) {\n        require(Teams.isTeamMember(teamId, msg.sender), \"only team member\");\n        _;\n    }\n\n    modifier onlyContestOwner(uint contestId){\n        require(Contests.isOwner(contestId, msg.sender), \"only contest owner\");\n        _;\n    }\n\n}",
  "sourcePath": "/Users/yhy/Code/GitHub/DCTF/contracts/Moves.sol",
  "compiler": {
    "name": "solc",
    "version": "0.8.10+commit.fc410830.Emscripten.clang"
  },
  "schemaVersion": "3.4.4",
  "updatedAt": "2022-02-16T09:02:01.637Z",
  "networkType": "ethereum",
  "devdoc": {
    "kind": "dev",
    "methods": {},
    "version": 1
  },
  "userdoc": {
    "kind": "user",
    "methods": {},
    "version": 1
  }
}