{
  "contractName": "Moves",
  "abi": [
    {
      "inputs": [
        {
          "internalType": "address",
          "name": "_Contests",
          "type": "address"
        },
        {
          "internalType": "address",
          "name": "_Challenges",
          "type": "address"
        },
        {
          "internalType": "address",
          "name": "_Teams",
          "type": "address"
        }
      ],
      "stateMutability": "nonpayable",
      "type": "constructor"
    },
    {
      "inputs": [
        {
          "internalType": "uint256",
          "name": "",
          "type": "uint256"
        }
      ],
      "name": "moves",
      "outputs": [
        {
          "internalType": "uint256",
          "name": "id",
          "type": "uint256"
        },
        {
          "internalType": "uint256",
          "name": "contestId",
          "type": "uint256"
        },
        {
          "internalType": "uint256",
          "name": "challengeId",
          "type": "uint256"
        },
        {
          "internalType": "uint256",
          "name": "teamId",
          "type": "uint256"
        },
        {
          "components": [
            {
              "internalType": "bytes32",
              "name": "hash",
              "type": "bytes32"
            },
            {
              "internalType": "string",
              "name": "flag",
              "type": "string"
            },
            {
              "internalType": "bytes32",
              "name": "salt",
              "type": "bytes32"
            }
          ],
          "internalType": "struct IMoves.IMove",
          "name": "info",
          "type": "tuple"
        },
        {
          "internalType": "enum IMoves.MoveState",
          "name": "state",
          "type": "uint8"
        },
        {
          "internalType": "uint256",
          "name": "timeStamp",
          "type": "uint256"
        }
      ],
      "stateMutability": "view",
      "type": "function",
      "constant": true
    },
    {
      "inputs": [],
      "name": "nextId",
      "outputs": [
        {
          "internalType": "uint256",
          "name": "",
          "type": "uint256"
        }
      ],
      "stateMutability": "view",
      "type": "function",
      "constant": true
    },
    {
      "inputs": [
        {
          "internalType": "uint256",
          "name": "contestId",
          "type": "uint256"
        },
        {
          "internalType": "uint256",
          "name": "challengeId",
          "type": "uint256"
        },
        {
          "internalType": "bytes32",
          "name": "hash",
          "type": "bytes32"
        }
      ],
      "name": "commitForAdmin",
      "outputs": [],
      "stateMutability": "nonpayable",
      "type": "function"
    },
    {
      "inputs": [
        {
          "internalType": "uint256",
          "name": "contestId",
          "type": "uint256"
        },
        {
          "internalType": "uint256",
          "name": "teamId",
          "type": "uint256"
        },
        {
          "internalType": "uint256",
          "name": "challengeId",
          "type": "uint256"
        },
        {
          "internalType": "bytes32",
          "name": "hash",
          "type": "bytes32"
        }
      ],
      "name": "commitForMember",
      "outputs": [],
      "stateMutability": "nonpayable",
      "type": "function"
    },
    {
      "inputs": [
        {
          "internalType": "uint256",
          "name": "contestId",
          "type": "uint256"
        },
        {
          "internalType": "uint256[]",
          "name": "challengeIds",
          "type": "uint256[]"
        },
        {
          "internalType": "string[]",
          "name": "flags",
          "type": "string[]"
        },
        {
          "internalType": "bytes32[]",
          "name": "salts",
          "type": "bytes32[]"
        }
      ],
      "name": "revealForAdmins",
      "outputs": [],
      "stateMutability": "nonpayable",
      "type": "function"
    },
    {
      "inputs": [
        {
          "internalType": "uint256",
          "name": "contestId",
          "type": "uint256"
        },
        {
          "internalType": "uint256",
          "name": "teamId",
          "type": "uint256"
        },
        {
          "internalType": "uint256[]",
          "name": "challengeIds",
          "type": "uint256[]"
        },
        {
          "internalType": "string[]",
          "name": "flags",
          "type": "string[]"
        },
        {
          "internalType": "bytes32[]",
          "name": "salts",
          "type": "bytes32[]"
        }
      ],
      "name": "revealForMembers",
      "outputs": [],
      "stateMutability": "nonpayable",
      "type": "function"
    },
    {
      "inputs": [
        {
          "internalType": "uint256",
          "name": "contestId",
          "type": "uint256"
        }
      ],
      "name": "gets",
      "outputs": [
        {
          "components": [
            {
              "internalType": "uint256",
              "name": "id",
              "type": "uint256"
            },
            {
              "internalType": "uint256",
              "name": "contestId",
              "type": "uint256"
            },
            {
              "internalType": "uint256",
              "name": "challengeId",
              "type": "uint256"
            },
            {
              "internalType": "uint256",
              "name": "teamId",
              "type": "uint256"
            },
            {
              "components": [
                {
                  "internalType": "bytes32",
                  "name": "hash",
                  "type": "bytes32"
                },
                {
                  "internalType": "string",
                  "name": "flag",
                  "type": "string"
                },
                {
                  "internalType": "bytes32",
                  "name": "salt",
                  "type": "bytes32"
                }
              ],
              "internalType": "struct IMoves.IMove",
              "name": "info",
              "type": "tuple"
            },
            {
              "internalType": "enum IMoves.MoveState",
              "name": "state",
              "type": "uint8"
            },
            {
              "internalType": "uint256",
              "name": "timeStamp",
              "type": "uint256"
            }
          ],
          "internalType": "struct IMoves.Move[]",
          "name": "",
          "type": "tuple[]"
        }
      ],
      "stateMutability": "view",
      "type": "function",
      "constant": true
    },
    {
      "inputs": [],
      "name": "getCount",
      "outputs": [
        {
          "internalType": "uint256",
          "name": "",
          "type": "uint256"
        }
      ],
      "stateMutability": "view",
      "type": "function",
      "constant": true
    },
    {
      "inputs": [
        {
          "internalType": "uint256",
          "name": "index",
          "type": "uint256"
        }
      ],
      "name": "get",
      "outputs": [
        {
          "components": [
            {
              "internalType": "uint256",
              "name": "id",
              "type": "uint256"
            },
            {
              "internalType": "uint256",
              "name": "contestId",
              "type": "uint256"
            },
            {
              "internalType": "uint256",
              "name": "challengeId",
              "type": "uint256"
            },
            {
              "internalType": "uint256",
              "name": "teamId",
              "type": "uint256"
            },
            {
              "components": [
                {
                  "internalType": "bytes32",
                  "name": "hash",
                  "type": "bytes32"
                },
                {
                  "internalType": "string",
                  "name": "flag",
                  "type": "string"
                },
                {
                  "internalType": "bytes32",
                  "name": "salt",
                  "type": "bytes32"
                }
              ],
              "internalType": "struct IMoves.IMove",
              "name": "info",
              "type": "tuple"
            },
            {
              "internalType": "enum IMoves.MoveState",
              "name": "state",
              "type": "uint8"
            },
            {
              "internalType": "uint256",
              "name": "timeStamp",
              "type": "uint256"
            }
          ],
          "internalType": "struct IMoves.Move",
          "name": "",
          "type": "tuple"
        }
      ],
      "stateMutability": "view",
      "type": "function",
      "constant": true
    }
  ],
  "bytecode": "0x608060405260016006553480156200001657600080fd5b5060405162002c8138038062002c8183398181016040528101906200003c919062000171565b826000806101000a81548173ffffffffffffffffffffffffffffffffffffffff021916908373ffffffffffffffffffffffffffffffffffffffff16021790555080600260006101000a81548173ffffffffffffffffffffffffffffffffffffffff021916908373ffffffffffffffffffffffffffffffffffffffff16021790555081600160006101000a81548173ffffffffffffffffffffffffffffffffffffffff021916908373ffffffffffffffffffffffffffffffffffffffff160217905550505050620001cd565b600080fd5b600073ffffffffffffffffffffffffffffffffffffffff82169050919050565b600062000139826200010c565b9050919050565b6200014b816200012c565b81146200015757600080fd5b50565b6000815190506200016b8162000140565b92915050565b6000806000606084860312156200018d576200018c62000107565b5b60006200019d868287016200015a565b9350506020620001b0868287016200015a565b9250506040620001c3868287016200015a565b9150509250925092565b612aa480620001dd6000396000f3fe608060405234801561001057600080fd5b50600436106100935760003560e01c806361b8ce8c1161006657806361b8ce8c146101085780637698baec146101265780639507d39a1461015c578063a87d942c1461018c578063d30f3f48146101aa57610093565b80633861d430146100985780633c1fc8c8146100b457806344d5d1c3146100d05780635aeba835146100ec575b600080fd5b6100b260048036038101906100ad9190611d8a565b6101da565b005b6100ce60048036038101906100c99190611e59565b6102e4565b005b6100ea60048036038101906100e59190611ec0565b6105d4565b005b61010660048036038101906101019190611f7b565b6106dc565b005b6101106109a8565b60405161011d9190611fdd565b60405180910390f35b610140600480360381019061013b9190611ff8565b6109ae565b6040516101539796959493929190612183565b60405180910390f35b61017660048036038101906101719190611ff8565b610aad565b6040516101839190612303565b60405180910390f35b610194610c14565b6040516101a19190611fdd565b60405180910390f35b6101c460048036038101906101bf9190611ff8565b610c25565b6040516101d19190612483565b60405180910390f35b815183511461021e576040517f08c379a000000000000000000000000000000000000000000000000000000000815260040161021590612502565b60405180910390fd5b8151815114610262576040517f08c379a000000000000000000000000000000000000000000000000000000000815260040161025990612502565b60405180910390fd5b60005b83518110156102dc576102c9868686848151811061028657610285612522565b5b60200260200101518685815181106102a1576102a0612522565b5b60200260200101518686815181106102bc576102bb612522565b5b6020026020010151610c51565b80806102d490612580565b915050610265565b505050505050565b82600260009054906101000a900473ffffffffffffffffffffffffffffffffffffffff1673ffffffffffffffffffffffffffffffffffffffff16630173828182336040518363ffffffff1660e01b815260040161034292919061260a565b602060405180830381865afa15801561035f573d6000803e3d6000fd5b505050506040513d601f19601f82011682018060405250810190610383919061266b565b6103c2576040517f08c379a00000000000000000000000000000000000000000000000000000000081526004016103b9906126e4565b60405180910390fd5b84600260008054906101000a900473ffffffffffffffffffffffffffffffffffffffff1673ffffffffffffffffffffffffffffffffffffffff1663434e540b83836040518363ffffffff1660e01b815260040161042092919061274c565b6020604051808303816000875af115801561043f573d6000803e3d6000fd5b505050506040513d601f19601f82011682018060405250810190610463919061266b565b6104a2576040517f08c379a0000000000000000000000000000000000000000000000000000000008152600401610499906127c1565b60405180910390fd5b60006008600087815260200190815260200160002060008881526020019081526020016000205490506104f081600a60008b8152602001908152602001600020610e4890919063ffffffff16565b50600560008281526020019081526020016000206000808201600090556001820160009055600282016000905560038201600090556004820160008082016000905560018201600061054291906117f9565b600282016000905550506007820160006101000a81549060ff021916905560088201600090555050600061057889888a89610e62565b9050806008600089815260200190815260200160002060008a8152602001908152602001600020819055506105c881600a60008c8152602001908152602001600020610fca90919063ffffffff16565b50505050505050505050565b8151835114610618576040517f08c379a000000000000000000000000000000000000000000000000000000000815260040161060f90612502565b60405180910390fd5b815181511461065c576040517f08c379a000000000000000000000000000000000000000000000000000000000815260040161065390612502565b60405180910390fd5b60005b83518110156106d5576106c28585838151811061067f5761067e612522565b5b602002602001015185848151811061069a57610699612522565b5b60200260200101518585815181106106b5576106b4612522565b5b6020026020010151610fe4565b80806106cd90612580565b91505061065f565b5050505050565b8260008054906101000a900473ffffffffffffffffffffffffffffffffffffffff1673ffffffffffffffffffffffffffffffffffffffff16635a5d096c82336040518363ffffffff1660e01b815260040161073892919061260a565b602060405180830381865afa158015610755573d6000803e3d6000fd5b505050506040513d601f19601f82011682018060405250810190610779919061266b565b6107b8576040517f08c379a00000000000000000000000000000000000000000000000000000000081526004016107af9061282d565b60405180910390fd5b83600260008054906101000a900473ffffffffffffffffffffffffffffffffffffffff1673ffffffffffffffffffffffffffffffffffffffff1663434e540b83836040518363ffffffff1660e01b815260040161081692919061274c565b6020604051808303816000875af1158015610835573d6000803e3d6000fd5b505050506040513d601f19601f82011682018060405250810190610859919061266b565b610898576040517f08c379a000000000000000000000000000000000000000000000000000000000815260040161088f906127c1565b60405180910390fd5b6000600760008781526020019081526020016000205490506108d581600960008a8152602001908152602001600020610e4890919063ffffffff16565b50600560008281526020019081526020016000206000808201600090556001820160009055600282016000905560038201600090556004820160008082016000905560018201600061092791906117f9565b600282016000905550506007820160006101000a81549060ff021916905560088201600090555050600061095e8888600089610e62565b905080600760008981526020019081526020016000208190555061099d81600960008b8152602001908152602001600020610fca90919063ffffffff16565b505050505050505050565b60065481565b60056020528060005260406000206000915090508060000154908060010154908060020154908060030154908060040160405180606001604052908160008201548152602001600182018054610a039061287c565b80601f0160208091040260200160405190810160405280929190818152602001828054610a2f9061287c565b8015610a7c5780601f10610a5157610100808354040283529160200191610a7c565b820191906000526020600020905b815481529060010190602001808311610a5f57829003601f168201915b50505050508152602001600282015481525050908060070160009054906101000a900460ff16908060080154905087565b610ab5611839565b60056000610acd8460036111c790919063ffffffff16565b81526020019081526020016000206040518060e0016040529081600082015481526020016001820154815260200160028201548152602001600382015481526020016004820160405180606001604052908160008201548152602001600182018054610b389061287c565b80601f0160208091040260200160405190810160405280929190818152602001828054610b649061287c565b8015610bb15780601f10610b8657610100808354040283529160200191610bb1565b820191906000526020600020905b815481529060010190602001808311610b9457829003601f168201915b5050505050815260200160028201548152505081526020016007820160009054906101000a900460ff166002811115610bed57610bec61210c565b5b6002811115610bff57610bfe61210c565b5b81526020016008820154815250509050919050565b6000610c2060036111e1565b905090565b6060610c4a610c45600a60008581526020019081526020016000206111f6565b611217565b9050919050565b83600260009054906101000a900473ffffffffffffffffffffffffffffffffffffffff1673ffffffffffffffffffffffffffffffffffffffff16630173828182336040518363ffffffff1660e01b8152600401610caf92919061260a565b602060405180830381865afa158015610ccc573d6000803e3d6000fd5b505050506040513d601f19601f82011682018060405250810190610cf0919061266b565b610d2f576040517f08c379a0000000000000000000000000000000000000000000000000000000008152600401610d26906126e4565b60405180910390fd5b85600360008054906101000a900473ffffffffffffffffffffffffffffffffffffffff1673ffffffffffffffffffffffffffffffffffffffff1663434e540b83836040518363ffffffff1660e01b8152600401610d8d92919061274c565b6020604051808303816000875af1158015610dac573d6000803e3d6000fd5b505050506040513d601f19601f82011682018060405250810190610dd0919061266b565b610e0f576040517f08c379a0000000000000000000000000000000000000000000000000000000008152600401610e06906127c1565b60405180910390fd5b610e3e60086000888152602001908152602001600020600089815260200190815260200160002054868661141d565b5050505050505050565b6000610e5a836000018360001b6115ba565b905092915050565b6000806006549050610e7e816003610fca90919063ffffffff16565b506040518060e0016040528082815260200187815260200186815260200185815260200160405180606001604052808681526020016040518060200160405280600081525081526020016000801916815250815260200160016002811115610ee957610ee861210c565b5b8152602001428152506005600083815260200190815260200160002060008201518160000155602082015181600101556040820151816002015560608201518160030155608082015181600401600082015181600001556020820151816001019080519060200190610f5c92919061188e565b5060408201518160020155505060a08201518160070160006101000a81548160ff02191690836002811115610f9457610f9361210c565b5b021790555060c0820151816008015590505060066000815480929190610fb990612580565b919050555080915050949350505050565b6000610fdc836000018360001b6116ce565b905092915050565b8360008054906101000a900473ffffffffffffffffffffffffffffffffffffffff1673ffffffffffffffffffffffffffffffffffffffff16635a5d096c82336040518363ffffffff1660e01b815260040161104092919061260a565b602060405180830381865afa15801561105d573d6000803e3d6000fd5b505050506040513d601f19601f82011682018060405250810190611081919061266b565b6110c0576040517f08c379a00000000000000000000000000000000000000000000000000000000081526004016110b79061282d565b60405180910390fd5b84600360008054906101000a900473ffffffffffffffffffffffffffffffffffffffff1673ffffffffffffffffffffffffffffffffffffffff1663434e540b83836040518363ffffffff1660e01b815260040161111e92919061274c565b6020604051808303816000875af115801561113d573d6000803e3d6000fd5b505050506040513d601f19601f82011682018060405250810190611161919061266b565b6111a0576040517f08c379a0000000000000000000000000000000000000000000000000000000008152600401611197906127c1565b60405180910390fd5b6111be6007600088815260200190815260200160002054868661141d565b50505050505050565b60006111d6836000018361173e565b60001c905092915050565b60006111ef82600001611769565b9050919050565b606060006112068360000161177a565b905060608190508092505050919050565b606060008251905060008167ffffffffffffffff81111561123b5761123a6119b8565b5b60405190808252806020026020018201604052801561127457816020015b611261611839565b8152602001906001900390816112595790505b50905060005b82811015611412576005600086838151811061129957611298612522565b5b602002602001015181526020019081526020016000206040518060e001604052908160008201548152602001600182015481526020016002820154815260200160038201548152602001600482016040518060600160405290816000820154815260200160018201805461130c9061287c565b80601f01602080910402602001604051908101604052809291908181526020018280546113389061287c565b80156113855780601f1061135a57610100808354040283529160200191611385565b820191906000526020600020905b81548152906001019060200180831161136857829003601f168201915b5050505050815260200160028201548152505081526020016007820160009054906101000a900460ff1660028111156113c1576113c061210c565b5b60028111156113d3576113d261210c565b5b81526020016008820154815250508282815181106113f4576113f3612522565b5b6020026020010181905250808061140a90612580565b91505061127a565b508092505050919050565b600160028111156114315761143061210c565b5b6005600085815260200190815260200160002060070160009054906101000a900460ff1660028111156114675761146661210c565b5b146114a7576040517f08c379a000000000000000000000000000000000000000000000000000000000815260040161149e906128fa565b60405180910390fd5b81816040516020016114ba929190612977565b6040516020818303038152906040528051906020012060056000858152602001908152602001600020600401600001541461152a576040517f08c379a0000000000000000000000000000000000000000000000000000000008152600401611521906129eb565b60405180910390fd5b8160056000858152602001908152602001600020600401600101908051906020019061155792919061188e565b5080600560008581526020019081526020016000206004016002018190555060026005600085815260200190815260200160002060070160006101000a81548160ff021916908360028111156115b0576115af61210c565b5b0217905550505050565b600080836001016000848152602001908152602001600020549050600081146116c25760006001826115ec9190612a0b565b90506000600186600001805490506116049190612a0b565b905081811461167357600086600001828154811061162557611624612522565b5b906000526020600020015490508087600001848154811061164957611648612522565b5b90600052602060002001819055508387600101600083815260200190815260200160002081905550505b8560000180548061168757611686612a3f565b5b6001900381819060005260206000200160009055905585600101600086815260200190815260200160002060009055600193505050506116c8565b60009150505b92915050565b60006116da83836117d6565b611733578260000182908060018154018082558091505060019003906000526020600020016000909190919091505582600001805490508360010160008481526020019081526020016000208190555060019050611738565b600090505b92915050565b600082600001828154811061175657611755612522565b5b9060005260206000200154905092915050565b600081600001805490509050919050565b6060816000018054806020026020016040519081016040528092919081815260200182805480156117ca57602002820191906000526020600020905b8154815260200190600101908083116117b6575b50505050509050919050565b600080836001016000848152602001908152602001600020541415905092915050565b5080546118059061287c565b6000825580601f106118175750611836565b601f0160209004906000526020600020908101906118359190611914565b5b50565b6040518060e0016040528060008152602001600081526020016000815260200160008152602001611868611931565b8152602001600060028111156118815761188061210c565b5b8152602001600081525090565b82805461189a9061287c565b90600052602060002090601f0160209004810192826118bc5760008555611903565b82601f106118d557805160ff1916838001178555611903565b82800160010185558215611903579182015b828111156119025782518255916020019190600101906118e7565b5b5090506119109190611914565b5090565b5b8082111561192d576000816000905550600101611915565b5090565b60405180606001604052806000801916815260200160608152602001600080191681525090565b6000604051905090565b600080fd5b600080fd5b6000819050919050565b61197f8161196c565b811461198a57600080fd5b50565b60008135905061199c81611976565b92915050565b600080fd5b6000601f19601f8301169050919050565b7f4e487b7100000000000000000000000000000000000000000000000000000000600052604160045260246000fd5b6119f0826119a7565b810181811067ffffffffffffffff82111715611a0f57611a0e6119b8565b5b80604052505050565b6000611a22611958565b9050611a2e82826119e7565b919050565b600067ffffffffffffffff821115611a4e57611a4d6119b8565b5b602082029050602081019050919050565b600080fd5b6000611a77611a7284611a33565b611a18565b90508083825260208201905060208402830185811115611a9a57611a99611a5f565b5b835b81811015611ac35780611aaf888261198d565b845260208401935050602081019050611a9c565b5050509392505050565b600082601f830112611ae257611ae16119a2565b5b8135611af2848260208601611a64565b91505092915050565b600067ffffffffffffffff821115611b1657611b156119b8565b5b602082029050602081019050919050565b600080fd5b600067ffffffffffffffff821115611b4757611b466119b8565b5b611b50826119a7565b9050602081019050919050565b82818337600083830152505050565b6000611b7f611b7a84611b2c565b611a18565b905082815260208101848484011115611b9b57611b9a611b27565b5b611ba6848285611b5d565b509392505050565b600082601f830112611bc357611bc26119a2565b5b8135611bd3848260208601611b6c565b91505092915050565b6000611bef611bea84611afb565b611a18565b90508083825260208201905060208402830185811115611c1257611c11611a5f565b5b835b81811015611c5957803567ffffffffffffffff811115611c3757611c366119a2565b5b808601611c448982611bae565b85526020850194505050602081019050611c14565b5050509392505050565b600082601f830112611c7857611c776119a2565b5b8135611c88848260208601611bdc565b91505092915050565b600067ffffffffffffffff821115611cac57611cab6119b8565b5b602082029050602081019050919050565b6000819050919050565b611cd081611cbd565b8114611cdb57600080fd5b50565b600081359050611ced81611cc7565b92915050565b6000611d06611d0184611c91565b611a18565b90508083825260208201905060208402830185811115611d2957611d28611a5f565b5b835b81811015611d525780611d3e8882611cde565b845260208401935050602081019050611d2b565b5050509392505050565b600082601f830112611d7157611d706119a2565b5b8135611d81848260208601611cf3565b91505092915050565b600080600080600060a08688031215611da657611da5611962565b5b6000611db48882890161198d565b9550506020611dc58882890161198d565b945050604086013567ffffffffffffffff811115611de657611de5611967565b5b611df288828901611acd565b935050606086013567ffffffffffffffff811115611e1357611e12611967565b5b611e1f88828901611c63565b925050608086013567ffffffffffffffff811115611e4057611e3f611967565b5b611e4c88828901611d5c565b9150509295509295909350565b60008060008060808587031215611e7357611e72611962565b5b6000611e818782880161198d565b9450506020611e928782880161198d565b9350506040611ea38782880161198d565b9250506060611eb487828801611cde565b91505092959194509250565b60008060008060808587031215611eda57611ed9611962565b5b6000611ee88782880161198d565b945050602085013567ffffffffffffffff811115611f0957611f08611967565b5b611f1587828801611acd565b935050604085013567ffffffffffffffff811115611f3657611f35611967565b5b611f4287828801611c63565b925050606085013567ffffffffffffffff811115611f6357611f62611967565b5b611f6f87828801611d5c565b91505092959194509250565b600080600060608486031215611f9457611f93611962565b5b6000611fa28682870161198d565b9350506020611fb38682870161198d565b9250506040611fc486828701611cde565b9150509250925092565b611fd78161196c565b82525050565b6000602082019050611ff26000830184611fce565b92915050565b60006020828403121561200e5761200d611962565b5b600061201c8482850161198d565b91505092915050565b61202e81611cbd565b82525050565b600081519050919050565b600082825260208201905092915050565b60005b8381101561206e578082015181840152602081019050612053565b8381111561207d576000848401525b50505050565b600061208e82612034565b612098818561203f565b93506120a8818560208601612050565b6120b1816119a7565b840191505092915050565b60006060830160008301516120d46000860182612025565b50602083015184820360208601526120ec8282612083565b91505060408301516121016040860182612025565b508091505092915050565b7f4e487b7100000000000000000000000000000000000000000000000000000000600052602160045260246000fd5b6003811061214c5761214b61210c565b5b50565b600081905061215d8261213b565b919050565b600061216d8261214f565b9050919050565b61217d81612162565b82525050565b600060e082019050612198600083018a611fce565b6121a56020830189611fce565b6121b26040830188611fce565b6121bf6060830187611fce565b81810360808301526121d181866120bc565b90506121e060a0830185612174565b6121ed60c0830184611fce565b98975050505050505050565b6122028161196c565b82525050565b60006060830160008301516122206000860182612025565b50602083015184820360208601526122388282612083565b915050604083015161224d6040860182612025565b508091505092915050565b61226181612162565b82525050565b600060e08301600083015161227f60008601826121f9565b50602083015161229260208601826121f9565b5060408301516122a560408601826121f9565b5060608301516122b860608601826121f9565b50608083015184820360808601526122d08282612208565b91505060a08301516122e560a0860182612258565b5060c08301516122f860c08601826121f9565b508091505092915050565b6000602082019050818103600083015261231d8184612267565b905092915050565b600081519050919050565b600082825260208201905092915050565b6000819050602082019050919050565b600060e08301600083015161236960008601826121f9565b50602083015161237c60208601826121f9565b50604083015161238f60408601826121f9565b5060608301516123a260608601826121f9565b50608083015184820360808601526123ba8282612208565b91505060a08301516123cf60a0860182612258565b5060c08301516123e260c08601826121f9565b508091505092915050565b60006123f98383612351565b905092915050565b6000602082019050919050565b600061241982612325565b6124238185612330565b93508360208202850161243585612341565b8060005b85811015612471578484038952815161245285826123ed565b945061245d83612401565b925060208a01995050600181019050612439565b50829750879550505050505092915050565b6000602082019050818103600083015261249d818461240e565b905092915050565b600082825260208201905092915050565b7f6c656e6774682073686f756c6420626520657175616c00000000000000000000600082015250565b60006124ec6016836124a5565b91506124f7826124b6565b602082019050919050565b6000602082019050818103600083015261251b816124df565b9050919050565b7f4e487b7100000000000000000000000000000000000000000000000000000000600052603260045260246000fd5b7f4e487b7100000000000000000000000000000000000000000000000000000000600052601160045260246000fd5b600061258b8261196c565b91507fffffffffffffffffffffffffffffffffffffffffffffffffffffffffffffffff8214156125be576125bd612551565b5b600182019050919050565b600073ffffffffffffffffffffffffffffffffffffffff82169050919050565b60006125f4826125c9565b9050919050565b612604816125e9565b82525050565b600060408201905061261f6000830185611fce565b61262c60208301846125fb565b9392505050565b60008115159050919050565b61264881612633565b811461265357600080fd5b50565b6000815190506126658161263f565b92915050565b60006020828403121561268157612680611962565b5b600061268f84828501612656565b91505092915050565b7f6f6e6c79207465616d206d656d62657200000000000000000000000000000000600082015250565b60006126ce6010836124a5565b91506126d982612698565b602082019050919050565b600060208201905081810360008301526126fd816126c1565b9050919050565b600481106127155761271461210c565b5b50565b600081905061272682612704565b919050565b600061273682612718565b9050919050565b6127468161272b565b82525050565b60006040820190506127616000830185611fce565b61276e602083018461273d565b9392505050565b7f77726f6e6720636f6e7465737420737461746500000000000000000000000000600082015250565b60006127ab6013836124a5565b91506127b682612775565b602082019050919050565b600060208201905081810360008301526127da8161279e565b9050919050565b7f6f6e6c7920636f6e74657374206f776e65720000000000000000000000000000600082015250565b60006128176012836124a5565b9150612822826127e1565b602082019050919050565b600060208201905081810360008301526128468161280a565b9050919050565b7f4e487b7100000000000000000000000000000000000000000000000000000000600052602260045260246000fd5b6000600282049050600182168061289457607f821691505b602082108114156128a8576128a761284d565b5b50919050565b7f616c72656164792072657665616c656400000000000000000000000000000000600082015250565b60006128e46010836124a5565b91506128ef826128ae565b602082019050919050565b60006020820190508181036000830152612913816128d7565b9050919050565b600081905092915050565b600061293082612034565b61293a818561291a565b935061294a818560208601612050565b80840191505092915050565b6000819050919050565b61297161296c82611cbd565b612956565b82525050565b60006129838285612925565b915061298f8284612960565b6020820191508190509392505050565b7f646f6573206e6f74206d6174636820636f6d6d69746d656e7400000000000000600082015250565b60006129d56019836124a5565b91506129e08261299f565b602082019050919050565b60006020820190508181036000830152612a04816129c8565b9050919050565b6000612a168261196c565b9150612a218361196c565b925082821015612a3457612a33612551565b5b828203905092915050565b7f4e487b7100000000000000000000000000000000000000000000000000000000600052603160045260246000fdfea2646970667358221220bdfef383982520b4ccd5a694bd317fa0422b134d5b6f2a0c7dadcc96413fbf8164736f6c634300080a0033",
  "immutableReferences": {},
  "source": "// SPDX-License-Identifier: MIT\npragma solidity ^0.8.10;\npragma experimental ABIEncoderV2;\n\nimport \"@openzeppelin/contracts/utils/structs/EnumerableSet.sol\";\nimport \"./IMoves.sol\";\nimport \"./IContests.sol\";\nimport \"./ITeams.sol\";\nimport \"./IChallenges.sol\";\n\ncontract Moves is IMoves {\n    using EnumerableSet for EnumerableSet.UintSet;\n\n    IContests Contests;\n    IChallenges Challenges;\n    ITeams Teams;\n\n    constructor(address _Contests, address _Challenges, address _Teams) {\n        Contests = IContests(_Contests);\n        Teams = ITeams(_Teams);\n        Challenges = IChallenges(_Challenges);\n    }\n\n    EnumerableSet.UintSet ids;\n    mapping(uint => Move) public moves;\n    uint public nextId = 1;\n\n    // index\n    //challengeId => moveId\n    mapping(uint => uint) challengeFlag;\n    //challengeId => (teamId => moveId)\n    mapping(uint => mapping(uint => uint)) submitFlag;\n    // contest flags\n    mapping(uint => EnumerableSet.UintSet) contestFlags;\n    // contest submit\n    mapping(uint => EnumerableSet.UintSet) contestSubmits;\n\n    function _commit(uint contestId, uint challengeId, uint teamId, bytes32 hash) internal returns (uint) {\n        uint id = nextId;\n        ids.add(id);\n        moves[id] = Move(id, contestId, challengeId, teamId, IMove(hash, \"\", \"\"), MoveState.COMMITTED, block.timestamp);\n        nextId++;\n        return id;\n    }\n\n    function _reveal(uint id, string memory flag, bytes32 salt) internal {\n        require(moves[id].state == IMoves.MoveState.COMMITTED, \"already revealed\");\n        require(moves[id].info.hash == keccak256(abi.encodePacked(flag, salt)), \"does not match commitment\");\n        moves[id].info.flag = flag;\n        moves[id].info.salt = salt;\n        moves[id].state = MoveState.REVEALED;\n    }\n\n    function commitForAdmin(uint contestId, uint challengeId, bytes32 hash) external\n    onlyContestOwner(contestId)\n    onlyContestInState(contestId, IContests.ContestState.STARTED) {\n        uint oldId = challengeFlag[challengeId];\n        contestFlags[contestId].remove(oldId);\n        delete moves[oldId];\n        uint id = _commit(contestId, challengeId, 0, hash);\n        challengeFlag[challengeId] = id;\n        contestFlags[contestId].add(id);\n    }\n\n    function commitForMember(uint contestId, uint teamId, uint challengeId, bytes32 hash) external\n    onlyTeamMember(teamId)\n    onlyContestInState(contestId, IContests.ContestState.STARTED) {\n        uint oldId = submitFlag[challengeId][teamId];\n        contestSubmits[contestId].remove(oldId);\n        delete moves[oldId];\n        uint id = _commit(contestId, challengeId, teamId, hash);\n        submitFlag[challengeId][teamId] = id;\n        contestSubmits[contestId].add(id);\n    }\n\n    function _revealForAdmin(uint contestId, uint challengeId, string memory flag, bytes32 salt) internal\n    onlyContestOwner(contestId)\n    onlyContestInState(contestId, IContests.ContestState.ENDED) {\n        _reveal(challengeFlag[challengeId], flag, salt);\n    }\n\n    function revealForAdmins(uint contestId, uint [] memory challengeIds, string [] memory flags, bytes32 [] memory salts) external {\n        require(challengeIds.length == flags.length, \"length should be equal\");\n        require(salts.length == flags.length, \"length should be equal\");\n        for (uint i = 0; i < challengeIds.length; i++) {\n            _revealForAdmin(contestId, challengeIds[i], flags[i], salts[i]);\n        }\n    }\n\n    function _revealForMember(uint contestId, uint teamId, uint challengeId, string memory flag, bytes32 salt) internal\n    onlyTeamMember(teamId)\n    onlyContestInState(contestId, IContests.ContestState.ENDED) {\n        _reveal(submitFlag[challengeId][teamId], flag, salt);\n    }\n\n    function revealForMembers(uint contestId, uint teamId, uint [] memory challengeIds, string [] memory flags, bytes32 [] memory salts) external {\n        require(challengeIds.length == flags.length, \"length should be equal\");\n        require(salts.length == flags.length, \"length should be equal\");\n        for (uint i = 0; i < challengeIds.length; i++) {\n            _revealForMember(contestId, teamId, challengeIds[i], flags[i], salts[i]);\n        }\n    }\n\n    function _gets(uint [] memory _ids) internal view returns (Move [] memory) {\n        uint number = _ids.length;\n        Move [] memory result = new Move [](number);\n        for (uint i = 0; i < number; i++) {\n            result[i] = moves[_ids[i]];\n        }\n        return result;\n    }\n\n    function gets(uint contestId) external view returns (Move [] memory) {\n        return _gets(contestSubmits[contestId].values());\n    }\n\n    function getCount() external view returns (uint) {\n        return ids.length();\n    }\n\n    function get(uint index) external view returns (Move memory) {\n        return  moves[ids.at(index)];\n    }\n\n    modifier onlyTeamMember(uint teamId) {\n        require(Teams.isTeamMember(teamId, msg.sender), \"only team member\");\n        _;\n    }\n\n    modifier onlyContestOwner(uint contestId){\n        require(Contests.isOwner(contestId, msg.sender), \"only contest owner\");\n        _;\n    }\n\n    modifier onlyContestInState(uint contestId, IContests.ContestState state){\n        require(Contests.contestInState(contestId, state), \"wrong contest state\");\n        _;\n    }\n\n}",
  "sourcePath": "/Users/yhy/Code/GitHub/DCTF/contracts/Moves.sol",
  "compiler": {
    "name": "solc",
    "version": "0.8.10+commit.fc410830.Emscripten.clang"
  },
  "schemaVersion": "3.4.4",
  "updatedAt": "2022-02-20T06:02:16.307Z",
  "networkType": "ethereum",
  "devdoc": {
    "kind": "dev",
    "methods": {},
    "version": 1
  },
  "userdoc": {
    "kind": "user",
    "methods": {},
    "version": 1
  }
}