{
  "contractName": "Moves",
  "abi": [
    {
      "inputs": [
        {
          "internalType": "address",
          "name": "_Contests",
          "type": "address"
        },
        {
          "internalType": "address",
          "name": "_Challenges",
          "type": "address"
        },
        {
          "internalType": "address",
          "name": "_Teams",
          "type": "address"
        }
      ],
      "stateMutability": "nonpayable",
      "type": "constructor"
    },
    {
      "inputs": [],
      "name": "nextId",
      "outputs": [
        {
          "internalType": "uint256",
          "name": "",
          "type": "uint256"
        }
      ],
      "stateMutability": "view",
      "type": "function",
      "constant": true
    },
    {
      "inputs": [
        {
          "internalType": "uint256",
          "name": "contestId",
          "type": "uint256"
        },
        {
          "internalType": "uint256",
          "name": "challengeId",
          "type": "uint256"
        },
        {
          "internalType": "uint256",
          "name": "teamId",
          "type": "uint256"
        },
        {
          "internalType": "uint256",
          "name": "targetTeamId",
          "type": "uint256"
        },
        {
          "internalType": "bytes32",
          "name": "hash",
          "type": "bytes32"
        }
      ],
      "name": "commit",
      "outputs": [
        {
          "internalType": "uint256",
          "name": "",
          "type": "uint256"
        }
      ],
      "stateMutability": "nonpayable",
      "type": "function"
    },
    {
      "inputs": [
        {
          "internalType": "uint256",
          "name": "id",
          "type": "uint256"
        },
        {
          "internalType": "string",
          "name": "flag",
          "type": "string"
        },
        {
          "internalType": "bytes32",
          "name": "salt",
          "type": "bytes32"
        }
      ],
      "name": "reveal",
      "outputs": [],
      "stateMutability": "nonpayable",
      "type": "function"
    },
    {
      "inputs": [],
      "name": "getCount",
      "outputs": [
        {
          "internalType": "uint256",
          "name": "",
          "type": "uint256"
        }
      ],
      "stateMutability": "view",
      "type": "function",
      "constant": true
    },
    {
      "inputs": [
        {
          "internalType": "uint256",
          "name": "index",
          "type": "uint256"
        }
      ],
      "name": "get",
      "outputs": [
        {
          "components": [
            {
              "internalType": "uint256",
              "name": "id",
              "type": "uint256"
            },
            {
              "internalType": "uint256",
              "name": "contestId",
              "type": "uint256"
            },
            {
              "internalType": "uint256",
              "name": "challengeId",
              "type": "uint256"
            },
            {
              "internalType": "uint256",
              "name": "teamId",
              "type": "uint256"
            },
            {
              "internalType": "uint256",
              "name": "targetTeamId",
              "type": "uint256"
            },
            {
              "components": [
                {
                  "internalType": "bytes32",
                  "name": "hash",
                  "type": "bytes32"
                },
                {
                  "internalType": "string",
                  "name": "flag",
                  "type": "string"
                },
                {
                  "internalType": "bytes32",
                  "name": "salt",
                  "type": "bytes32"
                }
              ],
              "internalType": "struct IMoves.IMove",
              "name": "info",
              "type": "tuple"
            },
            {
              "internalType": "enum IMoves.MoveState",
              "name": "state",
              "type": "uint8"
            },
            {
              "internalType": "uint256",
              "name": "timeStamp",
              "type": "uint256"
            }
          ],
          "internalType": "struct IMoves.Move",
          "name": "",
          "type": "tuple"
        }
      ],
      "stateMutability": "view",
      "type": "function",
      "constant": true
    },
    {
      "inputs": [
        {
          "internalType": "uint256",
          "name": "id",
          "type": "uint256"
        }
      ],
      "name": "getMove",
      "outputs": [
        {
          "components": [
            {
              "internalType": "uint256",
              "name": "id",
              "type": "uint256"
            },
            {
              "internalType": "uint256",
              "name": "contestId",
              "type": "uint256"
            },
            {
              "internalType": "uint256",
              "name": "challengeId",
              "type": "uint256"
            },
            {
              "internalType": "uint256",
              "name": "teamId",
              "type": "uint256"
            },
            {
              "internalType": "uint256",
              "name": "targetTeamId",
              "type": "uint256"
            },
            {
              "components": [
                {
                  "internalType": "bytes32",
                  "name": "hash",
                  "type": "bytes32"
                },
                {
                  "internalType": "string",
                  "name": "flag",
                  "type": "string"
                },
                {
                  "internalType": "bytes32",
                  "name": "salt",
                  "type": "bytes32"
                }
              ],
              "internalType": "struct IMoves.IMove",
              "name": "info",
              "type": "tuple"
            },
            {
              "internalType": "enum IMoves.MoveState",
              "name": "state",
              "type": "uint8"
            },
            {
              "internalType": "uint256",
              "name": "timeStamp",
              "type": "uint256"
            }
          ],
          "internalType": "struct IMoves.Move",
          "name": "",
          "type": "tuple"
        }
      ],
      "stateMutability": "view",
      "type": "function",
      "constant": true
    }
  ],
  "bytecode": "0x608060405260016006553480156200001657600080fd5b506040516200135c3803806200135c83398181016040528101906200003c919062000171565b826000806101000a81548173ffffffffffffffffffffffffffffffffffffffff021916908373ffffffffffffffffffffffffffffffffffffffff16021790555080600260006101000a81548173ffffffffffffffffffffffffffffffffffffffff021916908373ffffffffffffffffffffffffffffffffffffffff16021790555081600160006101000a81548173ffffffffffffffffffffffffffffffffffffffff021916908373ffffffffffffffffffffffffffffffffffffffff160217905550505050620001cd565b600080fd5b600073ffffffffffffffffffffffffffffffffffffffff82169050919050565b600062000139826200010c565b9050919050565b6200014b816200012c565b81146200015757600080fd5b50565b6000815190506200016b8162000140565b92915050565b6000806000606084860312156200018d576200018c62000107565b5b60006200019d868287016200015a565b9350506020620001b0868287016200015a565b9250506040620001c3868287016200015a565b9150509250925092565b61117f80620001dd6000396000f3fe608060405234801561001057600080fd5b50600436106100625760003560e01c806361b8ce8c1461006757806371dbd330146100855780639507d39a146100b5578063a87d942c146100e5578063ae416c4b14610103578063ef027f4d1461011f575b600080fd5b61006f61014f565b60405161007c91906109a6565b60405180910390f35b61009f600480360381019061009a9190610a01565b610155565b6040516100ac9190610c66565b60405180910390f35b6100cf60048036038101906100ca9190610a01565b6102b4565b6040516100dc9190610c66565b60405180910390f35b6100ed610426565b6040516100fa91906109a6565b60405180910390f35b61011d60048036038101906101189190610de9565b610437565b005b61013960048036038101906101349190610e58565b6105d4565b60405161014691906109a6565b60405180910390f35b60065481565b61015d610866565b6005600083815260200190815260200160002060405180610100016040529081600082015481526020016001820154815260200160028201548152602001600382015481526020016004820154815260200160058201604051806060016040529081600082015481526020016001820180546101d890610f02565b80601f016020809104026020016040519081016040528092919081815260200182805461020490610f02565b80156102515780601f1061022657610100808354040283529160200191610251565b820191906000526020600020905b81548152906001019060200180831161023457829003601f168201915b5050505050815260200160028201548152505081526020016008820160009054906101000a900460ff16600281111561028d5761028c610b3f565b5b600281111561029f5761029e610b3f565b5b81526020016009820154815250509050919050565b6102bc610866565b600560006102d484600361074e90919063ffffffff16565b8152602001908152602001600020604051806101000160405290816000820154815260200160018201548152602001600282015481526020016003820154815260200160048201548152602001600582016040518060600160405290816000820154815260200160018201805461034a90610f02565b80601f016020809104026020016040519081016040528092919081815260200182805461037690610f02565b80156103c35780601f10610398576101008083540402835291602001916103c3565b820191906000526020600020905b8154815290600101906020018083116103a657829003601f168201915b5050505050815260200160028201548152505081526020016008820160009054906101000a900460ff1660028111156103ff576103fe610b3f565b5b600281111561041157610410610b3f565b5b81526020016009820154815250509050919050565b60006104326003610768565b905090565b6001600281111561044b5761044a610b3f565b5b6005600085815260200190815260200160002060080160009054906101000a900460ff16600281111561048157610480610b3f565b5b146104c1576040517f08c379a00000000000000000000000000000000000000000000000000000000081526004016104b890610f91565b60405180910390fd5b81816040516020016104d492919061100e565b60405160208183030381529060405280519060200120600560008581526020019081526020016000206005016000015414610544576040517f08c379a000000000000000000000000000000000000000000000000000000000815260040161053b90611082565b60405180910390fd5b816005600085815260200190815260200160002060050160010190805190602001906105719291906108c3565b5080600560008581526020019081526020016000206005016002018190555060026005600085815260200190815260200160002060080160006101000a81548160ff021916908360028111156105ca576105c9610b3f565b5b0217905550505050565b60008060065490506105f081600361077d90919063ffffffff16565b506040518061010001604052808281526020018881526020018781526020018681526020018581526020016040518060600160405280868152602001604051806020016040528060008152508152602001600080191681525081526020016001600281111561066257610661610b3f565b5b81526020014281525060056000838152602001908152602001600020600082015181600001556020820151816001015560408201518160020155606082015181600301556080820151816004015560a0820151816005016000820151816000015560208201518160010190805190602001906106df9291906108c3565b5060408201518160020155505060c08201518160080160006101000a81548160ff0219169083600281111561071757610716610b3f565b5b021790555060e082015181600901559050506006600081548092919061073c906110d1565b91905055508091505095945050505050565b600061075d8360000183610797565b60001c905092915050565b6000610776826000016107c2565b9050919050565b600061078f836000018360001b6107d3565b905092915050565b60008260000182815481106107af576107ae61111a565b5b9060005260206000200154905092915050565b600081600001805490509050919050565b60006107df8383610843565b61083857826000018290806001815401808255809150506001900390600052602060002001600090919091909150558260000180549050836001016000848152602001908152602001600020819055506001905061083d565b600090505b92915050565b600080836001016000848152602001908152602001600020541415905092915050565b604051806101000160405280600081526020016000815260200160008152602001600081526020016000815260200161089d610949565b8152602001600060028111156108b6576108b5610b3f565b5b8152602001600081525090565b8280546108cf90610f02565b90600052602060002090601f0160209004810192826108f15760008555610938565b82601f1061090a57805160ff1916838001178555610938565b82800160010185558215610938579182015b8281111561093757825182559160200191906001019061091c565b5b5090506109459190610970565b5090565b60405180606001604052806000801916815260200160608152602001600080191681525090565b5b80821115610989576000816000905550600101610971565b5090565b6000819050919050565b6109a08161098d565b82525050565b60006020820190506109bb6000830184610997565b92915050565b6000604051905090565b600080fd5b600080fd5b6109de8161098d565b81146109e957600080fd5b50565b6000813590506109fb816109d5565b92915050565b600060208284031215610a1757610a166109cb565b5b6000610a25848285016109ec565b91505092915050565b610a378161098d565b82525050565b6000819050919050565b610a5081610a3d565b82525050565b600081519050919050565b600082825260208201905092915050565b60005b83811015610a90578082015181840152602081019050610a75565b83811115610a9f576000848401525b50505050565b6000601f19601f8301169050919050565b6000610ac182610a56565b610acb8185610a61565b9350610adb818560208601610a72565b610ae481610aa5565b840191505092915050565b6000606083016000830151610b076000860182610a47565b5060208301518482036020860152610b1f8282610ab6565b9150506040830151610b346040860182610a47565b508091505092915050565b7f4e487b7100000000000000000000000000000000000000000000000000000000600052602160045260246000fd5b60038110610b7f57610b7e610b3f565b5b50565b6000819050610b9082610b6e565b919050565b6000610ba082610b82565b9050919050565b610bb081610b95565b82525050565b600061010083016000830151610bcf6000860182610a2e565b506020830151610be26020860182610a2e565b506040830151610bf56040860182610a2e565b506060830151610c086060860182610a2e565b506080830151610c1b6080860182610a2e565b5060a083015184820360a0860152610c338282610aef565b91505060c0830151610c4860c0860182610ba7565b5060e0830151610c5b60e0860182610a2e565b508091505092915050565b60006020820190508181036000830152610c808184610bb6565b905092915050565b600080fd5b600080fd5b7f4e487b7100000000000000000000000000000000000000000000000000000000600052604160045260246000fd5b610cca82610aa5565b810181811067ffffffffffffffff82111715610ce957610ce8610c92565b5b80604052505050565b6000610cfc6109c1565b9050610d088282610cc1565b919050565b600067ffffffffffffffff821115610d2857610d27610c92565b5b610d3182610aa5565b9050602081019050919050565b82818337600083830152505050565b6000610d60610d5b84610d0d565b610cf2565b905082815260208101848484011115610d7c57610d7b610c8d565b5b610d87848285610d3e565b509392505050565b600082601f830112610da457610da3610c88565b5b8135610db4848260208601610d4d565b91505092915050565b610dc681610a3d565b8114610dd157600080fd5b50565b600081359050610de381610dbd565b92915050565b600080600060608486031215610e0257610e016109cb565b5b6000610e10868287016109ec565b935050602084013567ffffffffffffffff811115610e3157610e306109d0565b5b610e3d86828701610d8f565b9250506040610e4e86828701610dd4565b9150509250925092565b600080600080600060a08688031215610e7457610e736109cb565b5b6000610e82888289016109ec565b9550506020610e93888289016109ec565b9450506040610ea4888289016109ec565b9350506060610eb5888289016109ec565b9250506080610ec688828901610dd4565b9150509295509295909350565b7f4e487b7100000000000000000000000000000000000000000000000000000000600052602260045260246000fd5b60006002820490506001821680610f1a57607f821691505b60208210811415610f2e57610f2d610ed3565b5b50919050565b600082825260208201905092915050565b7f616c72656164792072657665616c656400000000000000000000000000000000600082015250565b6000610f7b601083610f34565b9150610f8682610f45565b602082019050919050565b60006020820190508181036000830152610faa81610f6e565b9050919050565b600081905092915050565b6000610fc782610a56565b610fd18185610fb1565b9350610fe1818560208601610a72565b80840191505092915050565b6000819050919050565b61100861100382610a3d565b610fed565b82525050565b600061101a8285610fbc565b91506110268284610ff7565b6020820191508190509392505050565b7f646f6573206e6f74206d6174636820636f6d6d69746d656e7400000000000000600082015250565b600061106c601983610f34565b915061107782611036565b602082019050919050565b6000602082019050818103600083015261109b8161105f565b9050919050565b7f4e487b7100000000000000000000000000000000000000000000000000000000600052601160045260246000fd5b60006110dc8261098d565b91507fffffffffffffffffffffffffffffffffffffffffffffffffffffffffffffffff82141561110f5761110e6110a2565b5b600182019050919050565b7f4e487b7100000000000000000000000000000000000000000000000000000000600052603260045260246000fdfea26469706673582212207c3e74ac2f63cf9a7b1dd474582f19fab996c8962f9599fc30be0e6b5424bf5964736f6c634300080a0033",
  "immutableReferences": {},
  "source": "// SPDX-License-Identifier: MIT\npragma solidity ^0.8.10;\npragma experimental ABIEncoderV2;\n\nimport \"@openzeppelin/contracts/utils/structs/EnumerableSet.sol\";\nimport \"./IMoves.sol\";\nimport \"./IContests.sol\";\nimport \"./ITeams.sol\";\nimport \"./IChallenges.sol\";\n\ncontract Moves is IMoves {\n    using EnumerableSet for EnumerableSet.UintSet;\n\n    IContests Contests;\n    IChallenges Challenges;\n    ITeams Teams;\n\n    constructor(address _Contests, address _Challenges, address _Teams) {\n        Contests = IContests(_Contests);\n        Teams = ITeams(_Teams);\n        Challenges = IChallenges(_Challenges);\n    }\n\n    EnumerableSet.UintSet ids;\n    mapping(uint => Move) moves;\n    uint public nextId = 1;\n\n    function commit(uint contestId, uint challengeId, uint teamId, uint targetTeamId, bytes32 hash) external returns (uint) {\n        uint id = nextId;\n        ids.add(id);\n        moves[id] = Move(id, contestId, challengeId, teamId, targetTeamId, IMove(hash, \"\", \"\"), MoveState.COMMITTED, block.timestamp);\n        nextId++;\n        return id;\n    }\n\n    function reveal(uint id, string memory flag, bytes32 salt) external {\n        require(moves[id].state == IMoves.MoveState.COMMITTED, \"already revealed\");\n        require(moves[id].info.hash == keccak256(abi.encodePacked(flag, salt)), \"does not match commitment\");\n        moves[id].info.flag = flag;\n        moves[id].info.salt = salt;\n        moves[id].state = MoveState.REVEALED;\n    }\n\n    function getCount() external view returns (uint) {\n        return ids.length();\n    }\n\n    function get(uint index) external view returns (Move memory) {\n        return moves[ids.at(index)];\n    }\n\n    function getMove(uint id) external view returns (Move memory) {\n        return moves[id];\n    }\n\n}",
  "sourcePath": "/Users/yhy/Code/GitHub/DCTF/contracts/Moves.sol",
  "compiler": {
    "name": "solc",
    "version": "0.8.10+commit.fc410830.Emscripten.clang"
  },
  "schemaVersion": "3.4.4",
  "updatedAt": "2022-03-03T12:57:46.314Z",
  "networkType": "ethereum",
  "devdoc": {
    "kind": "dev",
    "methods": {},
    "version": 1
  },
  "userdoc": {
    "kind": "user",
    "methods": {},
    "version": 1
  }
}