{
  "contractName": "Moves",
  "abi": [
    {
      "inputs": [
        {
          "internalType": "address",
          "name": "_Contests",
          "type": "address"
        },
        {
          "internalType": "address",
          "name": "_Challenges",
          "type": "address"
        },
        {
          "internalType": "address",
          "name": "_Teams",
          "type": "address"
        }
      ],
      "stateMutability": "nonpayable",
      "type": "constructor"
    },
    {
      "inputs": [],
      "name": "nextId",
      "outputs": [
        {
          "internalType": "uint256",
          "name": "",
          "type": "uint256"
        }
      ],
      "stateMutability": "view",
      "type": "function",
      "constant": true
    },
    {
      "inputs": [
        {
          "internalType": "uint256",
          "name": "contestId",
          "type": "uint256"
        },
        {
          "internalType": "uint256",
          "name": "challengeId",
          "type": "uint256"
        },
        {
          "internalType": "bytes32",
          "name": "hash",
          "type": "bytes32"
        }
      ],
      "name": "commitForAdmin",
      "outputs": [],
      "stateMutability": "nonpayable",
      "type": "function"
    },
    {
      "inputs": [
        {
          "internalType": "uint256",
          "name": "contestId",
          "type": "uint256"
        },
        {
          "internalType": "uint256",
          "name": "teamId",
          "type": "uint256"
        },
        {
          "internalType": "uint256",
          "name": "challengeId",
          "type": "uint256"
        },
        {
          "internalType": "bytes32",
          "name": "hash",
          "type": "bytes32"
        }
      ],
      "name": "commitForMember",
      "outputs": [],
      "stateMutability": "nonpayable",
      "type": "function"
    },
    {
      "inputs": [
        {
          "internalType": "uint256",
          "name": "contestId",
          "type": "uint256"
        },
        {
          "internalType": "uint256[]",
          "name": "challengeIds",
          "type": "uint256[]"
        },
        {
          "internalType": "string[]",
          "name": "flags",
          "type": "string[]"
        },
        {
          "internalType": "bytes32[]",
          "name": "salts",
          "type": "bytes32[]"
        }
      ],
      "name": "revealForAdmins",
      "outputs": [],
      "stateMutability": "nonpayable",
      "type": "function"
    },
    {
      "inputs": [
        {
          "internalType": "uint256",
          "name": "contestId",
          "type": "uint256"
        },
        {
          "internalType": "uint256",
          "name": "teamId",
          "type": "uint256"
        },
        {
          "internalType": "uint256[]",
          "name": "challengeIds",
          "type": "uint256[]"
        },
        {
          "internalType": "string[]",
          "name": "flags",
          "type": "string[]"
        },
        {
          "internalType": "bytes32[]",
          "name": "salts",
          "type": "bytes32[]"
        }
      ],
      "name": "revealForMembers",
      "outputs": [],
      "stateMutability": "nonpayable",
      "type": "function"
    },
    {
      "inputs": [
        {
          "internalType": "uint256",
          "name": "contestId",
          "type": "uint256"
        }
      ],
      "name": "updateScore",
      "outputs": [],
      "stateMutability": "nonpayable",
      "type": "function"
    },
    {
      "inputs": [
        {
          "internalType": "uint256",
          "name": "challengeId",
          "type": "uint256"
        }
      ],
      "name": "getChallengeAnswerMoveId",
      "outputs": [
        {
          "internalType": "uint256",
          "name": "",
          "type": "uint256"
        }
      ],
      "stateMutability": "view",
      "type": "function",
      "constant": true
    },
    {
      "inputs": [
        {
          "internalType": "uint256",
          "name": "challengeId",
          "type": "uint256"
        },
        {
          "internalType": "uint256",
          "name": "teamId",
          "type": "uint256"
        }
      ],
      "name": "getChallengeTeamSubmitMoveId",
      "outputs": [
        {
          "internalType": "uint256",
          "name": "",
          "type": "uint256"
        }
      ],
      "stateMutability": "view",
      "type": "function",
      "constant": true
    },
    {
      "inputs": [
        {
          "internalType": "uint256",
          "name": "contestId",
          "type": "uint256"
        }
      ],
      "name": "getContestSubmitIds",
      "outputs": [
        {
          "internalType": "uint256[]",
          "name": "",
          "type": "uint256[]"
        }
      ],
      "stateMutability": "view",
      "type": "function",
      "constant": true
    },
    {
      "inputs": [
        {
          "internalType": "uint256",
          "name": "contestId",
          "type": "uint256"
        }
      ],
      "name": "getContestAnswerIds",
      "outputs": [
        {
          "internalType": "uint256[]",
          "name": "",
          "type": "uint256[]"
        }
      ],
      "stateMutability": "view",
      "type": "function",
      "constant": true
    },
    {
      "inputs": [],
      "name": "getCount",
      "outputs": [
        {
          "internalType": "uint256",
          "name": "",
          "type": "uint256"
        }
      ],
      "stateMutability": "view",
      "type": "function",
      "constant": true
    },
    {
      "inputs": [
        {
          "internalType": "uint256",
          "name": "index",
          "type": "uint256"
        }
      ],
      "name": "get",
      "outputs": [
        {
          "components": [
            {
              "internalType": "uint256",
              "name": "id",
              "type": "uint256"
            },
            {
              "internalType": "uint256",
              "name": "contestId",
              "type": "uint256"
            },
            {
              "internalType": "uint256",
              "name": "challengeId",
              "type": "uint256"
            },
            {
              "internalType": "uint256",
              "name": "teamId",
              "type": "uint256"
            },
            {
              "components": [
                {
                  "internalType": "bytes32",
                  "name": "hash",
                  "type": "bytes32"
                },
                {
                  "internalType": "string",
                  "name": "flag",
                  "type": "string"
                },
                {
                  "internalType": "bytes32",
                  "name": "salt",
                  "type": "bytes32"
                }
              ],
              "internalType": "struct IMoves.IMove",
              "name": "info",
              "type": "tuple"
            },
            {
              "internalType": "enum IMoves.MoveState",
              "name": "state",
              "type": "uint8"
            },
            {
              "internalType": "uint256",
              "name": "timeStamp",
              "type": "uint256"
            }
          ],
          "internalType": "struct IMoves.Move",
          "name": "",
          "type": "tuple"
        }
      ],
      "stateMutability": "view",
      "type": "function",
      "constant": true
    },
    {
      "inputs": [
        {
          "internalType": "uint256",
          "name": "id",
          "type": "uint256"
        }
      ],
      "name": "getMove",
      "outputs": [
        {
          "components": [
            {
              "internalType": "uint256",
              "name": "id",
              "type": "uint256"
            },
            {
              "internalType": "uint256",
              "name": "contestId",
              "type": "uint256"
            },
            {
              "internalType": "uint256",
              "name": "challengeId",
              "type": "uint256"
            },
            {
              "internalType": "uint256",
              "name": "teamId",
              "type": "uint256"
            },
            {
              "components": [
                {
                  "internalType": "bytes32",
                  "name": "hash",
                  "type": "bytes32"
                },
                {
                  "internalType": "string",
                  "name": "flag",
                  "type": "string"
                },
                {
                  "internalType": "bytes32",
                  "name": "salt",
                  "type": "bytes32"
                }
              ],
              "internalType": "struct IMoves.IMove",
              "name": "info",
              "type": "tuple"
            },
            {
              "internalType": "enum IMoves.MoveState",
              "name": "state",
              "type": "uint8"
            },
            {
              "internalType": "uint256",
              "name": "timeStamp",
              "type": "uint256"
            }
          ],
          "internalType": "struct IMoves.Move",
          "name": "",
          "type": "tuple"
        }
      ],
      "stateMutability": "view",
      "type": "function",
      "constant": true
    },
    {
      "inputs": [
        {
          "internalType": "uint256",
          "name": "teamId",
          "type": "uint256"
        }
      ],
      "name": "getScore",
      "outputs": [
        {
          "internalType": "uint256",
          "name": "",
          "type": "uint256"
        }
      ],
      "stateMutability": "view",
      "type": "function",
      "constant": true
    }
  ],
  "bytecode": "0x608060405260016006553480156200001657600080fd5b5060405162003c1238038062003c1283398181016040528101906200003c919062000171565b826000806101000a81548173ffffffffffffffffffffffffffffffffffffffff021916908373ffffffffffffffffffffffffffffffffffffffff16021790555080600260006101000a81548173ffffffffffffffffffffffffffffffffffffffff021916908373ffffffffffffffffffffffffffffffffffffffff16021790555081600160006101000a81548173ffffffffffffffffffffffffffffffffffffffff021916908373ffffffffffffffffffffffffffffffffffffffff160217905550505050620001cd565b600080fd5b600073ffffffffffffffffffffffffffffffffffffffff82169050919050565b600062000139826200010c565b9050919050565b6200014b816200012c565b81146200015757600080fd5b50565b6000815190506200016b8162000140565b92915050565b6000806000606084860312156200018d576200018c62000107565b5b60006200019d868287016200015a565b9350506020620001b0868287016200015a565b9250506040620001c3868287016200015a565b9150509250925092565b613a3580620001dd6000396000f3fe608060405234801561001057600080fd5b50600436106100ea5760003560e01c80635aeba8351161008c5780639507d39a116100665780639507d39a1461026d578063a87d942c1461029d578063a8f0a382146102bb578063f853e34d146102eb576100ea565b80635aeba8351461020357806361b8ce8c1461021f57806371dbd3301461023d576100ea565b806330d6345a116100c857806330d6345a1461017f5780633861d430146101af5780633c1fc8c8146101cb57806344d5d1c3146101e7576100ea565b80630abcad0f146100ef5780630e1af57b1461011f57806319488c091461014f575b600080fd5b6101096004803603810190610104919061224b565b610307565b6040516101169190612287565b60405180910390f35b6101396004803603810190610134919061224b565b610324565b6040516101469190612287565b60405180910390f35b6101696004803603810190610164919061224b565b610341565b6040516101769190612360565b60405180910390f35b6101996004803603810190610194919061224b565b610365565b6040516101a69190612360565b60405180910390f35b6101c960048036038101906101c4919061276a565b610389565b005b6101e560048036038101906101e09190612839565b610493565b005b61020160048036038101906101fc91906128a0565b610852565b005b61021d6004803603810190610218919061295b565b61095a565b005b610227610c62565b6040516102349190612287565b60405180910390f35b6102576004803603810190610252919061224b565b610c68565b6040516102649190612ba8565b60405180910390f35b6102876004803603810190610282919061224b565b610dbc565b6040516102949190612ba8565b60405180910390f35b6102a5610f23565b6040516102b29190612287565b60405180910390f35b6102d560048036038101906102d09190612bca565b610f34565b6040516102e29190612287565b60405180910390f35b6103056004803603810190610300919061224b565b610f63565b005b600060086000838152602001908152602001600020549050919050565b600060076000838152602001908152602001600020549050919050565b606061035e600a600084815260200190815260200160002061159c565b9050919050565b6060610382600b600084815260200190815260200160002061159c565b9050919050565b81518351146103cd576040517f08c379a00000000000000000000000000000000000000000000000000000000081526004016103c490612c67565b60405180910390fd5b8151815114610411576040517f08c379a000000000000000000000000000000000000000000000000000000000815260040161040890612c67565b60405180910390fd5b60005b835181101561048b57610478868686848151811061043557610434612c87565b5b60200260200101518685815181106104505761044f612c87565b5b602002602001015186868151811061046b5761046a612c87565b5b60200260200101516115bd565b808061048390612ce5565b915050610414565b505050505050565b826000600260009054906101000a900473ffffffffffffffffffffffffffffffffffffffff1673ffffffffffffffffffffffffffffffffffffffff16628e0f1b836040518263ffffffff1660e01b81526004016104f09190612287565b600060405180830381865afa15801561050d573d6000803e3d6000fd5b505050506040513d6000823e3d601f19601f820116820180604052508101906105369190613085565b905060003373ffffffffffffffffffffffffffffffffffffffff1682604001516020015173ffffffffffffffffffffffffffffffffffffffff16141561057b57600190505b60005b826040015160400151518110156105fd573373ffffffffffffffffffffffffffffffffffffffff1683604001516040015182815181106105c1576105c0612c87565b5b602002602001015173ffffffffffffffffffffffffffffffffffffffff1614156105ea57600191505b80806105f590612ce5565b91505061057e565b508061063e576040517f08c379a00000000000000000000000000000000000000000000000000000000081526004016106359061311a565b60405180910390fd5b86600260008054906101000a900473ffffffffffffffffffffffffffffffffffffffff1673ffffffffffffffffffffffffffffffffffffffff1663434e540b83836040518363ffffffff1660e01b815260040161069c929190613182565b6020604051808303816000875af11580156106bb573d6000803e3d6000fd5b505050506040513d601f19601f820116820180604052508101906106df91906131e3565b61071e576040517f08c379a00000000000000000000000000000000000000000000000000000000081526004016107159061325c565b60405180910390fd5b60006009600089815260200190815260200160002060008a815260200190815260200160002054905061076c81600b60008d815260200190815260200160002061188390919063ffffffff16565b5060056000828152602001908152602001600020600080820160009055600182016000905560028201600090556003820160009055600482016000808201600090556001820160006107be91906120a2565b600282016000905550506007820160006101000a81549060ff02191690556008820160009055505060006107f48b8a8c8b61189d565b905080600960008b815260200190815260200160002060008c81526020019081526020016000208190555061084481600b60008e8152602001908152602001600020611a0590919063ffffffff16565b505050505050505050505050565b8151835114610896576040517f08c379a000000000000000000000000000000000000000000000000000000000815260040161088d90612c67565b60405180910390fd5b81518151146108da576040517f08c379a00000000000000000000000000000000000000000000000000000000081526004016108d190612c67565b60405180910390fd5b60005b835181101561095357610940858583815181106108fd576108fc612c87565b5b602002602001015185848151811061091857610917612c87565b5b602002602001015185858151811061093357610932612c87565b5b6020026020010151611a1f565b808061094b90612ce5565b9150506108dd565b5050505050565b8260008060009054906101000a900473ffffffffffffffffffffffffffffffffffffffff1673ffffffffffffffffffffffffffffffffffffffff1663904b9f72836040518263ffffffff1660e01b81526004016109b79190612287565b600060405180830381865afa1580156109d4573d6000803e3d6000fd5b505050506040513d6000823e3d601f19601f820116820180604052508101906109fd9190613451565b90503373ffffffffffffffffffffffffffffffffffffffff16816040015173ffffffffffffffffffffffffffffffffffffffff1614610a71576040517f08c379a0000000000000000000000000000000000000000000000000000000008152600401610a68906134e6565b60405180910390fd5b84600260008054906101000a900473ffffffffffffffffffffffffffffffffffffffff1673ffffffffffffffffffffffffffffffffffffffff1663434e540b83836040518363ffffffff1660e01b8152600401610acf929190613182565b6020604051808303816000875af1158015610aee573d6000803e3d6000fd5b505050506040513d601f19601f82011682018060405250810190610b1291906131e3565b610b51576040517f08c379a0000000000000000000000000000000000000000000000000000000008152600401610b489061325c565b60405180910390fd5b600060086000888152602001908152602001600020549050610b8e81600a60008b815260200190815260200160002061188390919063ffffffff16565b506005600082815260200190815260200160002060008082016000905560018201600090556002820160009055600382016000905560048201600080820160009055600182016000610be091906120a2565b600282016000905550506007820160006101000a81549060ff0219169055600882016000905550506000610c17898960008a61189d565b905080600860008a815260200190815260200160002081905550610c5681600a60008c8152602001908152602001600020611a0590919063ffffffff16565b50505050505050505050565b60065481565b610c706120e2565b600560008381526020019081526020016000206040518060e0016040529081600082015481526020016001820154815260200160028201548152602001600382015481526020016004820160405180606001604052908160008201548152602001600182018054610ce090613535565b80601f0160208091040260200160405190810160405280929190818152602001828054610d0c90613535565b8015610d595780601f10610d2e57610100808354040283529160200191610d59565b820191906000526020600020905b815481529060010190602001808311610d3c57829003601f168201915b5050505050815260200160028201548152505081526020016007820160009054906101000a900460ff166002811115610d9557610d94612a95565b5b6002811115610da757610da6612a95565b5b81526020016008820154815250509050919050565b610dc46120e2565b60056000610ddc846003611c3e90919063ffffffff16565b81526020019081526020016000206040518060e0016040529081600082015481526020016001820154815260200160028201548152602001600382015481526020016004820160405180606001604052908160008201548152602001600182018054610e4790613535565b80601f0160208091040260200160405190810160405280929190818152602001828054610e7390613535565b8015610ec05780601f10610e9557610100808354040283529160200191610ec0565b820191906000526020600020905b815481529060010190602001808311610ea357829003601f168201915b5050505050815260200160028201548152505081526020016007820160009054906101000a900460ff166002811115610efc57610efb612a95565b5b6002811115610f0e57610f0d612a95565b5b81526020016008820154815250509050919050565b6000610f2f6003611c58565b905090565b600060096000848152602001908152602001600020600083815260200190815260200160002054905092915050565b80600460008054906101000a900473ffffffffffffffffffffffffffffffffffffffff1673ffffffffffffffffffffffffffffffffffffffff1663434e540b83836040518363ffffffff1660e01b8152600401610fc1929190613182565b6020604051808303816000875af1158015610fe0573d6000803e3d6000fd5b505050506040513d601f19601f8201168201806040525081019061100491906131e3565b611043576040517f08c379a000000000000000000000000000000000000000000000000000000000815260040161103a9061325c565b60405180910390fd5b6000611060600b600086815260200190815260200160002061159c565b9050600061107f600a600087815260200190815260200160002061159c565b905060005b82518110156110e957600060076000600560008786815181106110aa576110a9612c87565b5b602002602001015181526020019081526020016000206003015481526020019081526020016000208190555080806110e190612ce5565b915050611084565b5060005b82518110156115945760006005600085848151811061110f5761110e612c87565b5b602002602001015181526020019081526020016000206040518060e001604052908160008201548152602001600182015481526020016002820154815260200160038201548152602001600482016040518060600160405290816000820154815260200160018201805461118290613535565b80601f01602080910402602001604051908101604052809291908181526020018280546111ae90613535565b80156111fb5780601f106111d0576101008083540402835291602001916111fb565b820191906000526020600020905b8154815290600101906020018083116111de57829003601f168201915b5050505050815260200160028201548152505081526020016007820160009054906101000a900460ff16600281111561123757611236612a95565b5b600281111561124957611248612a95565b5b815260200160088201548152505090506112616120e2565b60005b845181101561141e576005600086838151811061128457611283612c87565b5b60200260200101518152602001908152602001600020600201548360400151141561140b57600560008683815181106112c0576112bf612c87565b5b602002602001015181526020019081526020016000206040518060e001604052908160008201548152602001600182015481526020016002820154815260200160038201548152602001600482016040518060600160405290816000820154815260200160018201805461133390613535565b80601f016020809104026020016040519081016040528092919081815260200182805461135f90613535565b80156113ac5780601f10611381576101008083540402835291602001916113ac565b820191906000526020600020905b81548152906001019060200180831161138f57829003601f168201915b5050505050815260200160028201548152505081526020016007820160009054906101000a900460ff1660028111156113e8576113e7612a95565b5b60028111156113fa576113f9612a95565b5b815260200160088201548152505091505b808061141690612ce5565b915050611264565b5060028081111561143257611431612a95565b5b8260a00151600281111561144957611448612a95565b5b14801561147d575060028081111561146457611463612a95565b5b8160a00151600281111561147b5761147a612a95565b5b145b801561149f575061149e826080015160200151826080015160200151611c6d565b5b1561157f57600160009054906101000a900473ffffffffffffffffffffffffffffffffffffffff1673ffffffffffffffffffffffffffffffffffffffff16631bdd4b7483604001516040518263ffffffff1660e01b81526004016115039190612287565b600060405180830381865afa158015611520573d6000803e3d6000fd5b505050506040513d6000823e3d601f19601f820116820180604052508101906115499190613789565b6040015160e001516007600084606001518152602001908152602001600020600082825461157791906137d2565b925050819055505b5050808061158c90612ce5565b9150506110ed565b505050505050565b606060006115ac83600001611cc6565b905060608190508092505050919050565b836000600260009054906101000a900473ffffffffffffffffffffffffffffffffffffffff1673ffffffffffffffffffffffffffffffffffffffff16628e0f1b836040518263ffffffff1660e01b815260040161161a9190612287565b600060405180830381865afa158015611637573d6000803e3d6000fd5b505050506040513d6000823e3d601f19601f820116820180604052508101906116609190613085565b905060003373ffffffffffffffffffffffffffffffffffffffff1682604001516020015173ffffffffffffffffffffffffffffffffffffffff1614156116a557600190505b60005b82604001516040015151811015611727573373ffffffffffffffffffffffffffffffffffffffff1683604001516040015182815181106116eb576116ea612c87565b5b602002602001015173ffffffffffffffffffffffffffffffffffffffff16141561171457600191505b808061171f90612ce5565b9150506116a8565b5080611768576040517f08c379a000000000000000000000000000000000000000000000000000000000815260040161175f9061311a565b60405180910390fd5b87600360008054906101000a900473ffffffffffffffffffffffffffffffffffffffff1673ffffffffffffffffffffffffffffffffffffffff1663434e540b83836040518363ffffffff1660e01b81526004016117c6929190613182565b6020604051808303816000875af11580156117e5573d6000803e3d6000fd5b505050506040513d601f19601f8201168201806040525081019061180991906131e3565b611848576040517f08c379a000000000000000000000000000000000000000000000000000000000815260040161183f9061325c565b60405180910390fd5b611877600960008a815260200190815260200160002060008b8152602001908152602001600020548888611d22565b50505050505050505050565b6000611895836000018360001b611ebf565b905092915050565b60008060065490506118b9816003611a0590919063ffffffff16565b506040518060e001604052808281526020018781526020018681526020018581526020016040518060600160405280868152602001604051806020016040528060008152508152602001600080191681525081526020016001600281111561192457611923612a95565b5b8152602001428152506005600083815260200190815260200160002060008201518160000155602082015181600101556040820151816002015560608201518160030155608082015181600401600082015181600001556020820151816001019080519060200190611997929190612137565b5060408201518160020155505060a08201518160070160006101000a81548160ff021916908360028111156119cf576119ce612a95565b5b021790555060c08201518160080155905050600660008154809291906119f490612ce5565b919050555080915050949350505050565b6000611a17836000018360001b611fd3565b905092915050565b8360008060009054906101000a900473ffffffffffffffffffffffffffffffffffffffff1673ffffffffffffffffffffffffffffffffffffffff1663904b9f72836040518263ffffffff1660e01b8152600401611a7c9190612287565b600060405180830381865afa158015611a99573d6000803e3d6000fd5b505050506040513d6000823e3d601f19601f82011682018060405250810190611ac29190613451565b90503373ffffffffffffffffffffffffffffffffffffffff16816040015173ffffffffffffffffffffffffffffffffffffffff1614611b36576040517f08c379a0000000000000000000000000000000000000000000000000000000008152600401611b2d906134e6565b60405180910390fd5b85600360008054906101000a900473ffffffffffffffffffffffffffffffffffffffff1673ffffffffffffffffffffffffffffffffffffffff1663434e540b83836040518363ffffffff1660e01b8152600401611b94929190613182565b6020604051808303816000875af1158015611bb3573d6000803e3d6000fd5b505050506040513d601f19601f82011682018060405250810190611bd791906131e3565b611c16576040517f08c379a0000000000000000000000000000000000000000000000000000000008152600401611c0d9061325c565b60405180910390fd5b611c3460086000898152602001908152602001600020548787611d22565b5050505050505050565b6000611c4d8360000183612043565b60001c905092915050565b6000611c668260000161206e565b9050919050565b600081604051602001611c809190613864565b6040516020818303038152906040528051906020012083604051602001611ca79190613864565b6040516020818303038152906040528051906020012014905092915050565b606081600001805480602002602001604051908101604052809291908181526020018280548015611d1657602002820191906000526020600020905b815481526020019060010190808311611d02575b50505050509050919050565b60016002811115611d3657611d35612a95565b5b6005600085815260200190815260200160002060070160009054906101000a900460ff166002811115611d6c57611d6b612a95565b5b14611dac576040517f08c379a0000000000000000000000000000000000000000000000000000000008152600401611da3906138c7565b60405180910390fd5b8181604051602001611dbf929190613908565b60405160208183030381529060405280519060200120600560008581526020019081526020016000206004016000015414611e2f576040517f08c379a0000000000000000000000000000000000000000000000000000000008152600401611e269061397c565b60405180910390fd5b81600560008581526020019081526020016000206004016001019080519060200190611e5c929190612137565b5080600560008581526020019081526020016000206004016002018190555060026005600085815260200190815260200160002060070160006101000a81548160ff02191690836002811115611eb557611eb4612a95565b5b0217905550505050565b60008083600101600084815260200190815260200160002054905060008114611fc7576000600182611ef1919061399c565b9050600060018660000180549050611f09919061399c565b9050818114611f78576000866000018281548110611f2a57611f29612c87565b5b9060005260206000200154905080876000018481548110611f4e57611f4d612c87565b5b90600052602060002001819055508387600101600083815260200190815260200160002081905550505b85600001805480611f8c57611f8b6139d0565b5b600190038181906000526020600020016000905590558560010160008681526020019081526020016000206000905560019350505050611fcd565b60009150505b92915050565b6000611fdf838361207f565b61203857826000018290806001815401808255809150506001900390600052602060002001600090919091909150558260000180549050836001016000848152602001908152602001600020819055506001905061203d565b600090505b92915050565b600082600001828154811061205b5761205a612c87565b5b9060005260206000200154905092915050565b600081600001805490509050919050565b600080836001016000848152602001908152602001600020541415905092915050565b5080546120ae90613535565b6000825580601f106120c057506120df565b601f0160209004906000526020600020908101906120de91906121bd565b5b50565b6040518060e00160405280600081526020016000815260200160008152602001600081526020016121116121da565b81526020016000600281111561212a57612129612a95565b5b8152602001600081525090565b82805461214390613535565b90600052602060002090601f01602090048101928261216557600085556121ac565b82601f1061217e57805160ff19168380011785556121ac565b828001600101855582156121ac579182015b828111156121ab578251825591602001919060010190612190565b5b5090506121b991906121bd565b5090565b5b808211156121d65760008160009055506001016121be565b5090565b60405180606001604052806000801916815260200160608152602001600080191681525090565b6000604051905090565b600080fd5b600080fd5b6000819050919050565b61222881612215565b811461223357600080fd5b50565b6000813590506122458161221f565b92915050565b6000602082840312156122615761226061220b565b5b600061226f84828501612236565b91505092915050565b61228181612215565b82525050565b600060208201905061229c6000830184612278565b92915050565b600081519050919050565b600082825260208201905092915050565b6000819050602082019050919050565b6122d781612215565b82525050565b60006122e983836122ce565b60208301905092915050565b6000602082019050919050565b600061230d826122a2565b61231781856122ad565b9350612322836122be565b8060005b8381101561235357815161233a88826122dd565b9750612345836122f5565b925050600181019050612326565b5085935050505092915050565b6000602082019050818103600083015261237a8184612302565b905092915050565b600080fd5b6000601f19601f8301169050919050565b7f4e487b7100000000000000000000000000000000000000000000000000000000600052604160045260246000fd5b6123d082612387565b810181811067ffffffffffffffff821117156123ef576123ee612398565b5b80604052505050565b6000612402612201565b905061240e82826123c7565b919050565b600067ffffffffffffffff82111561242e5761242d612398565b5b602082029050602081019050919050565b600080fd5b600061245761245284612413565b6123f8565b9050808382526020820190506020840283018581111561247a5761247961243f565b5b835b818110156124a3578061248f8882612236565b84526020840193505060208101905061247c565b5050509392505050565b600082601f8301126124c2576124c1612382565b5b81356124d2848260208601612444565b91505092915050565b600067ffffffffffffffff8211156124f6576124f5612398565b5b602082029050602081019050919050565b600080fd5b600067ffffffffffffffff82111561252757612526612398565b5b61253082612387565b9050602081019050919050565b82818337600083830152505050565b600061255f61255a8461250c565b6123f8565b90508281526020810184848401111561257b5761257a612507565b5b61258684828561253d565b509392505050565b600082601f8301126125a3576125a2612382565b5b81356125b384826020860161254c565b91505092915050565b60006125cf6125ca846124db565b6123f8565b905080838252602082019050602084028301858111156125f2576125f161243f565b5b835b8181101561263957803567ffffffffffffffff81111561261757612616612382565b5b808601612624898261258e565b855260208501945050506020810190506125f4565b5050509392505050565b600082601f83011261265857612657612382565b5b81356126688482602086016125bc565b91505092915050565b600067ffffffffffffffff82111561268c5761268b612398565b5b602082029050602081019050919050565b6000819050919050565b6126b08161269d565b81146126bb57600080fd5b50565b6000813590506126cd816126a7565b92915050565b60006126e66126e184612671565b6123f8565b905080838252602082019050602084028301858111156127095761270861243f565b5b835b81811015612732578061271e88826126be565b84526020840193505060208101905061270b565b5050509392505050565b600082601f83011261275157612750612382565b5b81356127618482602086016126d3565b91505092915050565b600080600080600060a086880312156127865761278561220b565b5b600061279488828901612236565b95505060206127a588828901612236565b945050604086013567ffffffffffffffff8111156127c6576127c5612210565b5b6127d2888289016124ad565b935050606086013567ffffffffffffffff8111156127f3576127f2612210565b5b6127ff88828901612643565b925050608086013567ffffffffffffffff8111156128205761281f612210565b5b61282c8882890161273c565b9150509295509295909350565b600080600080608085870312156128535761285261220b565b5b600061286187828801612236565b945050602061287287828801612236565b935050604061288387828801612236565b9250506060612894878288016126be565b91505092959194509250565b600080600080608085870312156128ba576128b961220b565b5b60006128c887828801612236565b945050602085013567ffffffffffffffff8111156128e9576128e8612210565b5b6128f5878288016124ad565b935050604085013567ffffffffffffffff81111561291657612915612210565b5b61292287828801612643565b925050606085013567ffffffffffffffff81111561294357612942612210565b5b61294f8782880161273c565b91505092959194509250565b6000806000606084860312156129745761297361220b565b5b600061298286828701612236565b935050602061299386828701612236565b92505060406129a4868287016126be565b9150509250925092565b6129b78161269d565b82525050565b600081519050919050565b600082825260208201905092915050565b60005b838110156129f75780820151818401526020810190506129dc565b83811115612a06576000848401525b50505050565b6000612a17826129bd565b612a2181856129c8565b9350612a318185602086016129d9565b612a3a81612387565b840191505092915050565b6000606083016000830151612a5d60008601826129ae565b5060208301518482036020860152612a758282612a0c565b9150506040830151612a8a60408601826129ae565b508091505092915050565b7f4e487b7100000000000000000000000000000000000000000000000000000000600052602160045260246000fd5b60038110612ad557612ad4612a95565b5b50565b6000819050612ae682612ac4565b919050565b6000612af682612ad8565b9050919050565b612b0681612aeb565b82525050565b600060e083016000830151612b2460008601826122ce565b506020830151612b3760208601826122ce565b506040830151612b4a60408601826122ce565b506060830151612b5d60608601826122ce565b5060808301518482036080860152612b758282612a45565b91505060a0830151612b8a60a0860182612afd565b5060c0830151612b9d60c08601826122ce565b508091505092915050565b60006020820190508181036000830152612bc28184612b0c565b905092915050565b60008060408385031215612be157612be061220b565b5b6000612bef85828601612236565b9250506020612c0085828601612236565b9150509250929050565b600082825260208201905092915050565b7f6c656e6774682073686f756c6420626520657175616c00000000000000000000600082015250565b6000612c51601683612c0a565b9150612c5c82612c1b565b602082019050919050565b60006020820190508181036000830152612c8081612c44565b9050919050565b7f4e487b7100000000000000000000000000000000000000000000000000000000600052603260045260246000fd5b7f4e487b7100000000000000000000000000000000000000000000000000000000600052601160045260246000fd5b6000612cf082612215565b91507fffffffffffffffffffffffffffffffffffffffffffffffffffffffffffffffff821415612d2357612d22612cb6565b5b600182019050919050565b600080fd5b600080fd5b600081519050612d478161221f565b92915050565b6000612d60612d5b8461250c565b6123f8565b905082815260208101848484011115612d7c57612d7b612507565b5b612d878482856129d9565b509392505050565b600082601f830112612da457612da3612382565b5b8151612db4848260208601612d4d565b91505092915050565b600073ffffffffffffffffffffffffffffffffffffffff82169050919050565b6000612de882612dbd565b9050919050565b612df881612ddd565b8114612e0357600080fd5b50565b600081519050612e1581612def565b92915050565b600067ffffffffffffffff821115612e3657612e35612398565b5b602082029050602081019050919050565b6000612e5282612dbd565b9050919050565b612e6281612e47565b8114612e6d57600080fd5b50565b600081519050612e7f81612e59565b92915050565b6000612e98612e9384612e1b565b6123f8565b90508083825260208201905060208402830185811115612ebb57612eba61243f565b5b835b81811015612ee45780612ed08882612e70565b845260208401935050602081019050612ebd565b5050509392505050565b600082601f830112612f0357612f02612382565b5b8151612f13848260208601612e85565b91505092915050565b600060608284031215612f3257612f31612d2e565b5b612f3c60606123f8565b9050600082015167ffffffffffffffff811115612f5c57612f5b612d33565b5b612f6884828501612d8f565b6000830152506020612f7c84828501612e06565b602083015250604082015167ffffffffffffffff811115612fa057612f9f612d33565b5b612fac84828501612eee565b60408301525092915050565b60048110612fc557600080fd5b50565b600081519050612fd781612fb8565b92915050565b600060a08284031215612ff357612ff2612d2e565b5b612ffd60a06123f8565b9050600061300d84828501612d38565b600083015250602061302184828501612d38565b602083015250604082015167ffffffffffffffff81111561304557613044612d33565b5b61305184828501612f1c565b604083015250606061306584828501612fc8565b606083015250608061307984828501612d38565b60808301525092915050565b60006020828403121561309b5761309a61220b565b5b600082015167ffffffffffffffff8111156130b9576130b8612210565b5b6130c584828501612fdd565b91505092915050565b7f6f6e6c79207465616d206361707461696e206f72206d656d6265720000000000600082015250565b6000613104601b83612c0a565b915061310f826130ce565b602082019050919050565b60006020820190508181036000830152613133816130f7565b9050919050565b6005811061314b5761314a612a95565b5b50565b600081905061315c8261313a565b919050565b600061316c8261314e565b9050919050565b61317c81613161565b82525050565b60006040820190506131976000830185612278565b6131a46020830184613173565b9392505050565b60008115159050919050565b6131c0816131ab565b81146131cb57600080fd5b50565b6000815190506131dd816131b7565b92915050565b6000602082840312156131f9576131f861220b565b5b6000613207848285016131ce565b91505092915050565b7f77726f6e6720636f6e7465737420737461746500000000000000000000000000600082015250565b6000613246601383612c0a565b915061325182613210565b602082019050919050565b6000602082019050818103600083015261327581613239565b9050919050565b600060e0828403121561329257613291612d2e565b5b61329c60e06123f8565b9050600082015167ffffffffffffffff8111156132bc576132bb612d33565b5b6132c884828501612d8f565b600083015250602082015167ffffffffffffffff8111156132ec576132eb612d33565b5b6132f884828501612d8f565b602083015250604061330c84828501612d38565b604083015250606061332084828501612d38565b606083015250608061333484828501612d38565b60808301525060a061334884828501612d38565b60a08301525060c082015167ffffffffffffffff81111561336c5761336b612d33565b5b61337884828501612d8f565b60c08301525092915050565b6005811061339157600080fd5b50565b6000815190506133a381613384565b92915050565b600060a082840312156133bf576133be612d2e565b5b6133c960a06123f8565b905060006133d984828501612d38565b600083015250602082015167ffffffffffffffff8111156133fd576133fc612d33565b5b6134098482850161327c565b602083015250604061341d84828501612e70565b604083015250606061343184828501613394565b606083015250608061344584828501612d38565b60808301525092915050565b6000602082840312156134675761346661220b565b5b600082015167ffffffffffffffff81111561348557613484612210565b5b613491848285016133a9565b91505092915050565b7f6f6e6c7920636f6e74657374206f776e65720000000000000000000000000000600082015250565b60006134d0601283612c0a565b91506134db8261349a565b602082019050919050565b600060208201905081810360008301526134ff816134c3565b9050919050565b7f4e487b7100000000000000000000000000000000000000000000000000000000600052602260045260246000fd5b6000600282049050600182168061354d57607f821691505b6020821081141561356157613560613506565b5b50919050565b6000610100828403121561357e5761357d612d2e565b5b6135896101006123f8565b9050600082015167ffffffffffffffff8111156135a9576135a8612d33565b5b6135b584828501612d8f565b600083015250602082015167ffffffffffffffff8111156135d9576135d8612d33565b5b6135e584828501612d8f565b602083015250604082015167ffffffffffffffff81111561360957613608612d33565b5b61361584828501612d8f565b604083015250606082015167ffffffffffffffff81111561363957613638612d33565b5b61364584828501612d8f565b606083015250608082015167ffffffffffffffff81111561366957613668612d33565b5b61367584828501612d8f565b60808301525060a082015167ffffffffffffffff81111561369957613698612d33565b5b6136a584828501612d8f565b60a08301525060c082015167ffffffffffffffff8111156136c9576136c8612d33565b5b6136d584828501612d8f565b60c08301525060e06136e984828501612d38565b60e08301525092915050565b60006080828403121561370b5761370a612d2e565b5b61371560806123f8565b9050600061372584828501612d38565b600083015250602061373984828501612d38565b602083015250604082015167ffffffffffffffff81111561375d5761375c612d33565b5b61376984828501613567565b604083015250606061377d84828501612d38565b60608301525092915050565b60006020828403121561379f5761379e61220b565b5b600082015167ffffffffffffffff8111156137bd576137bc612210565b5b6137c9848285016136f5565b91505092915050565b60006137dd82612215565b91506137e883612215565b9250827fffffffffffffffffffffffffffffffffffffffffffffffffffffffffffffffff0382111561381d5761381c612cb6565b5b828201905092915050565b600081905092915050565b600061383e826129bd565b6138488185613828565b93506138588185602086016129d9565b80840191505092915050565b60006138708284613833565b915081905092915050565b7f616c72656164792072657665616c656400000000000000000000000000000000600082015250565b60006138b1601083612c0a565b91506138bc8261387b565b602082019050919050565b600060208201905081810360008301526138e0816138a4565b9050919050565b6000819050919050565b6139026138fd8261269d565b6138e7565b82525050565b60006139148285613833565b915061392082846138f1565b6020820191508190509392505050565b7f646f6573206e6f74206d6174636820636f6d6d69746d656e7400000000000000600082015250565b6000613966601983612c0a565b915061397182613930565b602082019050919050565b6000602082019050818103600083015261399581613959565b9050919050565b60006139a782612215565b91506139b283612215565b9250828210156139c5576139c4612cb6565b5b828203905092915050565b7f4e487b7100000000000000000000000000000000000000000000000000000000600052603160045260246000fdfea26469706673582212205ee191bbc98986baa0bb6c278318e17a40639120ff22301f8a3230bfc3dab34e64736f6c634300080a0033",
  "immutableReferences": {},
  "source": "// SPDX-License-Identifier: MIT\npragma solidity ^0.8.10;\npragma experimental ABIEncoderV2;\n\nimport \"@openzeppelin/contracts/utils/structs/EnumerableSet.sol\";\nimport \"./IMoves.sol\";\nimport \"./IContests.sol\";\nimport \"./ITeams.sol\";\nimport \"./IChallenges.sol\";\n\ncontract Moves is IMoves {\n    using EnumerableSet for EnumerableSet.UintSet;\n\n    IContests Contests;\n    IChallenges Challenges;\n    ITeams Teams;\n\n    constructor(address _Contests, address _Challenges, address _Teams) {\n        Contests = IContests(_Contests);\n        Teams = ITeams(_Teams);\n        Challenges = IChallenges(_Challenges);\n    }\n\n    EnumerableSet.UintSet ids;\n    mapping(uint => Move) moves;\n    uint public nextId = 1;\n\n    // teamID => score\n    mapping(uint => uint) scores;\n\n    mapping(uint => uint) challengeIdToAnswerMoveId;\n    // challengeId => (teamId => moveId)\n    mapping(uint => mapping(uint => uint)) challengeIdAndTeamIdToSubmitMoveId;\n    mapping(uint => EnumerableSet.UintSet) contestAnswers;\n    mapping(uint => EnumerableSet.UintSet) contestSubmits;\n\n    function _compareStrings(string memory a, string memory b) internal pure returns (bool) {\n        return (keccak256(abi.encodePacked((a))) == keccak256(abi.encodePacked((b))));\n    }\n\n    function _commit(uint contestId, uint challengeId, uint teamId, bytes32 hash) internal returns (uint) {\n        uint id = nextId;\n        ids.add(id);\n        moves[id] = Move(id, contestId, challengeId, teamId, IMove(hash, \"\", \"\"), MoveState.COMMITTED, block.timestamp);\n        nextId++;\n        return id;\n    }\n\n    function _reveal(uint id, string memory flag, bytes32 salt) internal {\n        require(moves[id].state == IMoves.MoveState.COMMITTED, \"already revealed\");\n        require(moves[id].info.hash == keccak256(abi.encodePacked(flag, salt)), \"does not match commitment\");\n        moves[id].info.flag = flag;\n        moves[id].info.salt = salt;\n        moves[id].state = MoveState.REVEALED;\n    }\n\n    function _revealForAdmin(uint contestId, uint challengeId, string memory flag, bytes32 salt) internal\n    onlyContestOwner(contestId)\n    onlyContestInState(contestId, IContests.ContestState.COMMITENDED) {\n        _reveal(challengeIdToAnswerMoveId[challengeId], flag, salt);\n    }\n\n    function _revealForMember(uint contestId, uint teamId, uint challengeId, string memory flag, bytes32 salt) internal\n    onlyTeamMember(teamId)\n    onlyContestInState(contestId, IContests.ContestState.COMMITENDED) {\n        _reveal(challengeIdAndTeamIdToSubmitMoveId[challengeId][teamId], flag, salt);\n    }\n\n    function commitForAdmin(uint contestId, uint challengeId, bytes32 hash) external\n    onlyContestOwner(contestId)\n    onlyContestInState(contestId, IContests.ContestState.STARTED) {\n        uint oldId = challengeIdToAnswerMoveId[challengeId];\n        contestAnswers[contestId].remove(oldId);\n        delete moves[oldId];\n        uint id = _commit(contestId, challengeId, 0, hash);\n        challengeIdToAnswerMoveId[challengeId] = id;\n        contestAnswers[contestId].add(id);\n    }\n\n    function commitForMember(uint contestId, uint teamId, uint challengeId, bytes32 hash) external\n    onlyTeamMember(teamId)\n    onlyContestInState(contestId, IContests.ContestState.STARTED) {\n        uint oldId = challengeIdAndTeamIdToSubmitMoveId[challengeId][teamId];\n        contestSubmits[contestId].remove(oldId);\n        delete moves[oldId];\n        uint id = _commit(contestId, challengeId, teamId, hash);\n        challengeIdAndTeamIdToSubmitMoveId[challengeId][teamId] = id;\n        contestSubmits[contestId].add(id);\n    }\n\n    function revealForAdmins(uint contestId, uint [] memory challengeIds, string [] memory flags, bytes32 [] memory salts) external {\n        require(challengeIds.length == flags.length, \"length should be equal\");\n        require(salts.length == flags.length, \"length should be equal\");\n        for (uint i = 0; i < challengeIds.length; i++) {\n            _revealForAdmin(contestId, challengeIds[i], flags[i], salts[i]);\n        }\n    }\n\n    function revealForMembers(uint contestId, uint teamId, uint [] memory challengeIds, string [] memory flags, bytes32 [] memory salts) external {\n        require(challengeIds.length == flags.length, \"length should be equal\");\n        require(salts.length == flags.length, \"length should be equal\");\n        for (uint i = 0; i < challengeIds.length; i++) {\n            _revealForMember(contestId, teamId, challengeIds[i], flags[i], salts[i]);\n        }\n    }\n\n    function updateScore(uint contestId) external\n    onlyContestInState(contestId, IContests.ContestState.REVEALENDED) {\n        uint [] memory submits = contestSubmits[contestId].values();\n        uint [] memory answers = contestAnswers[contestId].values();\n\n        for (uint i = 0; i < submits.length; i++) scores[moves[submits[i]].teamId] = 0;\n\n        for (uint i = 0; i < submits.length; i++) {\n            Move memory submitMove = moves[submits[i]];\n            Move memory answerMove;\n            for (uint j = 0; j < answers.length; j++)\n                if (submitMove.challengeId == moves[answers[j]].challengeId)\n                    answerMove = moves[answers[j]];\n            if (submitMove.state == IMoves.MoveState.REVEALED && answerMove.state == IMoves.MoveState.REVEALED && _compareStrings(submitMove.info.flag, answerMove.info.flag))\n                scores[submitMove.teamId] += Challenges.getChallenge(submitMove.challengeId).info.value;\n        }\n    }\n\n    function getChallengeAnswerMoveId(uint challengeId) external view returns (uint) {\n        return challengeIdToAnswerMoveId[challengeId];\n    }\n\n    function getChallengeTeamSubmitMoveId(uint challengeId, uint teamId) external view returns (uint) {\n        return challengeIdAndTeamIdToSubmitMoveId[challengeId][teamId];\n    }\n\n    function getContestSubmitIds(uint contestId) external view returns (uint [] memory) {\n        return contestSubmits[contestId].values();\n    }\n\n    function getContestAnswerIds(uint contestId) external view returns (uint [] memory) {\n        return contestAnswers[contestId].values();\n    }\n\n    function getCount() external view returns (uint) {\n        return ids.length();\n    }\n\n    function get(uint index) external view returns (Move memory) {\n        return moves[ids.at(index)];\n    }\n\n    function getMove(uint id) external view returns (Move memory) {\n        return moves[id];\n    }\n\n    function getScore(uint teamId) external view returns(uint){\n        return scores[teamId];\n    }\n\n    modifier onlyTeamMember(uint teamId) {\n        ITeams.Team memory team = Teams.getTeam(teamId);\n        bool result = false;\n        if (team.info.captain == msg.sender) result = true;\n        for (uint i = 0; i < team.info.members.length; i++)\n            if (team.info.members[i] == msg.sender) result = true;\n        require(result, \"only team captain or member\");\n        _;\n    }\n\n    modifier onlyContestOwner(uint contestId){\n        IContests.Contest memory contest = Contests.getContest(contestId);\n        require(contest.owner == msg.sender, \"only contest owner\");\n        _;\n    }\n    modifier onlyContestInState(uint contestId, IContests.ContestState state){\n        require(Contests.contestInState(contestId, state), \"wrong contest state\");\n        _;\n    }\n\n}",
  "sourcePath": "/Users/yhy/Code/GitHub/DCTF/contracts/Moves.sol",
  "compiler": {
    "name": "solc",
    "version": "0.8.10+commit.fc410830.Emscripten.clang"
  },
  "schemaVersion": "3.4.4",
  "updatedAt": "2022-02-28T05:09:36.794Z",
  "networkType": "ethereum",
  "devdoc": {
    "kind": "dev",
    "methods": {},
    "version": 1
  },
  "userdoc": {
    "kind": "user",
    "methods": {},
    "version": 1
  }
}