{
  "contractName": "Moves",
  "abi": [
    {
      "inputs": [
        {
          "internalType": "address",
          "name": "_Contests",
          "type": "address"
        },
        {
          "internalType": "address",
          "name": "_Challenges",
          "type": "address"
        },
        {
          "internalType": "address",
          "name": "_Teams",
          "type": "address"
        }
      ],
      "stateMutability": "nonpayable",
      "type": "constructor"
    },
    {
      "inputs": [
        {
          "internalType": "uint256",
          "name": "",
          "type": "uint256"
        }
      ],
      "name": "moves",
      "outputs": [
        {
          "internalType": "uint256",
          "name": "id",
          "type": "uint256"
        },
        {
          "internalType": "uint256",
          "name": "contestId",
          "type": "uint256"
        },
        {
          "internalType": "uint256",
          "name": "challengeId",
          "type": "uint256"
        },
        {
          "internalType": "uint256",
          "name": "teamId",
          "type": "uint256"
        },
        {
          "components": [
            {
              "internalType": "bytes32",
              "name": "hash",
              "type": "bytes32"
            },
            {
              "internalType": "string",
              "name": "flag",
              "type": "string"
            },
            {
              "internalType": "bytes32",
              "name": "salt",
              "type": "bytes32"
            }
          ],
          "internalType": "struct IMoves.IMove",
          "name": "info",
          "type": "tuple"
        },
        {
          "internalType": "enum IMoves.MoveState",
          "name": "state",
          "type": "uint8"
        },
        {
          "internalType": "uint256",
          "name": "timeStamp",
          "type": "uint256"
        }
      ],
      "stateMutability": "view",
      "type": "function",
      "constant": true
    },
    {
      "inputs": [],
      "name": "nextId",
      "outputs": [
        {
          "internalType": "uint256",
          "name": "",
          "type": "uint256"
        }
      ],
      "stateMutability": "view",
      "type": "function",
      "constant": true
    },
    {
      "inputs": [
        {
          "internalType": "uint256",
          "name": "contestId",
          "type": "uint256"
        },
        {
          "internalType": "uint256",
          "name": "challengeId",
          "type": "uint256"
        },
        {
          "internalType": "bytes32",
          "name": "hash",
          "type": "bytes32"
        }
      ],
      "name": "commitForAdmin",
      "outputs": [],
      "stateMutability": "nonpayable",
      "type": "function"
    },
    {
      "inputs": [
        {
          "internalType": "uint256",
          "name": "contestId",
          "type": "uint256"
        },
        {
          "internalType": "uint256",
          "name": "teamId",
          "type": "uint256"
        },
        {
          "internalType": "uint256",
          "name": "challengeId",
          "type": "uint256"
        },
        {
          "internalType": "bytes32",
          "name": "hash",
          "type": "bytes32"
        }
      ],
      "name": "commitForMember",
      "outputs": [],
      "stateMutability": "nonpayable",
      "type": "function"
    },
    {
      "inputs": [
        {
          "internalType": "uint256",
          "name": "contestId",
          "type": "uint256"
        },
        {
          "internalType": "uint256[]",
          "name": "challengeIds",
          "type": "uint256[]"
        },
        {
          "internalType": "string[]",
          "name": "flags",
          "type": "string[]"
        },
        {
          "internalType": "bytes32[]",
          "name": "salts",
          "type": "bytes32[]"
        }
      ],
      "name": "revealForAdmins",
      "outputs": [],
      "stateMutability": "nonpayable",
      "type": "function"
    },
    {
      "inputs": [
        {
          "internalType": "uint256",
          "name": "contestId",
          "type": "uint256"
        },
        {
          "internalType": "uint256",
          "name": "teamId",
          "type": "uint256"
        },
        {
          "internalType": "uint256[]",
          "name": "challengeIds",
          "type": "uint256[]"
        },
        {
          "internalType": "string[]",
          "name": "flags",
          "type": "string[]"
        },
        {
          "internalType": "bytes32[]",
          "name": "salts",
          "type": "bytes32[]"
        }
      ],
      "name": "revealForMembers",
      "outputs": [],
      "stateMutability": "nonpayable",
      "type": "function"
    },
    {
      "inputs": [
        {
          "internalType": "uint256",
          "name": "contestId",
          "type": "uint256"
        }
      ],
      "name": "getsSubmit",
      "outputs": [
        {
          "components": [
            {
              "internalType": "uint256",
              "name": "id",
              "type": "uint256"
            },
            {
              "internalType": "uint256",
              "name": "contestId",
              "type": "uint256"
            },
            {
              "internalType": "uint256",
              "name": "challengeId",
              "type": "uint256"
            },
            {
              "internalType": "uint256",
              "name": "teamId",
              "type": "uint256"
            },
            {
              "components": [
                {
                  "internalType": "bytes32",
                  "name": "hash",
                  "type": "bytes32"
                },
                {
                  "internalType": "string",
                  "name": "flag",
                  "type": "string"
                },
                {
                  "internalType": "bytes32",
                  "name": "salt",
                  "type": "bytes32"
                }
              ],
              "internalType": "struct IMoves.IMove",
              "name": "info",
              "type": "tuple"
            },
            {
              "internalType": "enum IMoves.MoveState",
              "name": "state",
              "type": "uint8"
            },
            {
              "internalType": "uint256",
              "name": "timeStamp",
              "type": "uint256"
            }
          ],
          "internalType": "struct IMoves.Move[]",
          "name": "",
          "type": "tuple[]"
        }
      ],
      "stateMutability": "view",
      "type": "function",
      "constant": true
    },
    {
      "inputs": [
        {
          "internalType": "uint256",
          "name": "contestId",
          "type": "uint256"
        }
      ],
      "name": "getsAnswer",
      "outputs": [
        {
          "components": [
            {
              "internalType": "uint256",
              "name": "id",
              "type": "uint256"
            },
            {
              "internalType": "uint256",
              "name": "contestId",
              "type": "uint256"
            },
            {
              "internalType": "uint256",
              "name": "challengeId",
              "type": "uint256"
            },
            {
              "internalType": "uint256",
              "name": "teamId",
              "type": "uint256"
            },
            {
              "components": [
                {
                  "internalType": "bytes32",
                  "name": "hash",
                  "type": "bytes32"
                },
                {
                  "internalType": "string",
                  "name": "flag",
                  "type": "string"
                },
                {
                  "internalType": "bytes32",
                  "name": "salt",
                  "type": "bytes32"
                }
              ],
              "internalType": "struct IMoves.IMove",
              "name": "info",
              "type": "tuple"
            },
            {
              "internalType": "enum IMoves.MoveState",
              "name": "state",
              "type": "uint8"
            },
            {
              "internalType": "uint256",
              "name": "timeStamp",
              "type": "uint256"
            }
          ],
          "internalType": "struct IMoves.Move[]",
          "name": "",
          "type": "tuple[]"
        }
      ],
      "stateMutability": "view",
      "type": "function",
      "constant": true
    },
    {
      "inputs": [],
      "name": "getCount",
      "outputs": [
        {
          "internalType": "uint256",
          "name": "",
          "type": "uint256"
        }
      ],
      "stateMutability": "view",
      "type": "function",
      "constant": true
    },
    {
      "inputs": [
        {
          "internalType": "uint256",
          "name": "index",
          "type": "uint256"
        }
      ],
      "name": "get",
      "outputs": [
        {
          "components": [
            {
              "internalType": "uint256",
              "name": "id",
              "type": "uint256"
            },
            {
              "internalType": "uint256",
              "name": "contestId",
              "type": "uint256"
            },
            {
              "internalType": "uint256",
              "name": "challengeId",
              "type": "uint256"
            },
            {
              "internalType": "uint256",
              "name": "teamId",
              "type": "uint256"
            },
            {
              "components": [
                {
                  "internalType": "bytes32",
                  "name": "hash",
                  "type": "bytes32"
                },
                {
                  "internalType": "string",
                  "name": "flag",
                  "type": "string"
                },
                {
                  "internalType": "bytes32",
                  "name": "salt",
                  "type": "bytes32"
                }
              ],
              "internalType": "struct IMoves.IMove",
              "name": "info",
              "type": "tuple"
            },
            {
              "internalType": "enum IMoves.MoveState",
              "name": "state",
              "type": "uint8"
            },
            {
              "internalType": "uint256",
              "name": "timeStamp",
              "type": "uint256"
            }
          ],
          "internalType": "struct IMoves.Move",
          "name": "",
          "type": "tuple"
        }
      ],
      "stateMutability": "view",
      "type": "function",
      "constant": true
    }
  ],
  "bytecode": "0x608060405260016006553480156200001657600080fd5b5060405162002ce838038062002ce883398181016040528101906200003c919062000171565b826000806101000a81548173ffffffffffffffffffffffffffffffffffffffff021916908373ffffffffffffffffffffffffffffffffffffffff16021790555080600260006101000a81548173ffffffffffffffffffffffffffffffffffffffff021916908373ffffffffffffffffffffffffffffffffffffffff16021790555081600160006101000a81548173ffffffffffffffffffffffffffffffffffffffff021916908373ffffffffffffffffffffffffffffffffffffffff160217905550505050620001cd565b600080fd5b600073ffffffffffffffffffffffffffffffffffffffff82169050919050565b600062000139826200010c565b9050919050565b6200014b816200012c565b81146200015757600080fd5b50565b6000815190506200016b8162000140565b92915050565b6000806000606084860312156200018d576200018c62000107565b5b60006200019d868287016200015a565b9350506020620001b0868287016200015a565b9250506040620001c3868287016200015a565b9150509250925092565b612b0b80620001dd6000396000f3fe608060405234801561001057600080fd5b506004361061009e5760003560e01c80637698baec116100665780637698baec146101315780639507d39a14610167578063a87d942c14610197578063b84b453e146101b5578063bedb0db9146101e55761009e565b80633861d430146100a35780633c1fc8c8146100bf57806344d5d1c3146100db5780635aeba835146100f757806361b8ce8c14610113575b600080fd5b6100bd60048036038101906100b89190611df1565b610215565b005b6100d960048036038101906100d49190611ec0565b61031f565b005b6100f560048036038101906100f09190611f27565b61060f565b005b610111600480360381019061010c9190611fe2565b610717565b005b61011b6109e3565b6040516101289190612044565b60405180910390f35b61014b6004803603810190610146919061205f565b6109e9565b60405161015e97969594939291906121ea565b60405180910390f35b610181600480360381019061017c919061205f565b610ae8565b60405161018e919061236a565b60405180910390f35b61019f610c4f565b6040516101ac9190612044565b60405180910390f35b6101cf60048036038101906101ca919061205f565b610c60565b6040516101dc91906124ea565b60405180910390f35b6101ff60048036038101906101fa919061205f565b610c8c565b60405161020c91906124ea565b60405180910390f35b8151835114610259576040517f08c379a000000000000000000000000000000000000000000000000000000000815260040161025090612569565b60405180910390fd5b815181511461029d576040517f08c379a000000000000000000000000000000000000000000000000000000000815260040161029490612569565b60405180910390fd5b60005b83518110156103175761030486868684815181106102c1576102c0612589565b5b60200260200101518685815181106102dc576102db612589565b5b60200260200101518686815181106102f7576102f6612589565b5b6020026020010151610cb8565b808061030f906125e7565b9150506102a0565b505050505050565b82600260009054906101000a900473ffffffffffffffffffffffffffffffffffffffff1673ffffffffffffffffffffffffffffffffffffffff16630173828182336040518363ffffffff1660e01b815260040161037d929190612671565b602060405180830381865afa15801561039a573d6000803e3d6000fd5b505050506040513d601f19601f820116820180604052508101906103be91906126d2565b6103fd576040517f08c379a00000000000000000000000000000000000000000000000000000000081526004016103f49061274b565b60405180910390fd5b84600260008054906101000a900473ffffffffffffffffffffffffffffffffffffffff1673ffffffffffffffffffffffffffffffffffffffff1663434e540b83836040518363ffffffff1660e01b815260040161045b9291906127b3565b6020604051808303816000875af115801561047a573d6000803e3d6000fd5b505050506040513d601f19601f8201168201806040525081019061049e91906126d2565b6104dd576040517f08c379a00000000000000000000000000000000000000000000000000000000081526004016104d490612828565b60405180910390fd5b600060086000878152602001908152602001600020600088815260200190815260200160002054905061052b81600a60008b8152602001908152602001600020610eaf90919063ffffffff16565b50600560008281526020019081526020016000206000808201600090556001820160009055600282016000905560038201600090556004820160008082016000905560018201600061057d9190611860565b600282016000905550506007820160006101000a81549060ff02191690556008820160009055505060006105b389888a89610ec9565b9050806008600089815260200190815260200160002060008a81526020019081526020016000208190555061060381600a60008c815260200190815260200160002061103190919063ffffffff16565b50505050505050505050565b8151835114610653576040517f08c379a000000000000000000000000000000000000000000000000000000000815260040161064a90612569565b60405180910390fd5b8151815114610697576040517f08c379a000000000000000000000000000000000000000000000000000000000815260040161068e90612569565b60405180910390fd5b60005b8351811015610710576106fd858583815181106106ba576106b9612589565b5b60200260200101518584815181106106d5576106d4612589565b5b60200260200101518585815181106106f0576106ef612589565b5b602002602001015161104b565b8080610708906125e7565b91505061069a565b5050505050565b8260008054906101000a900473ffffffffffffffffffffffffffffffffffffffff1673ffffffffffffffffffffffffffffffffffffffff16635a5d096c82336040518363ffffffff1660e01b8152600401610773929190612671565b602060405180830381865afa158015610790573d6000803e3d6000fd5b505050506040513d601f19601f820116820180604052508101906107b491906126d2565b6107f3576040517f08c379a00000000000000000000000000000000000000000000000000000000081526004016107ea90612894565b60405180910390fd5b83600260008054906101000a900473ffffffffffffffffffffffffffffffffffffffff1673ffffffffffffffffffffffffffffffffffffffff1663434e540b83836040518363ffffffff1660e01b81526004016108519291906127b3565b6020604051808303816000875af1158015610870573d6000803e3d6000fd5b505050506040513d601f19601f8201168201806040525081019061089491906126d2565b6108d3576040517f08c379a00000000000000000000000000000000000000000000000000000000081526004016108ca90612828565b60405180910390fd5b60006007600087815260200190815260200160002054905061091081600960008a8152602001908152602001600020610eaf90919063ffffffff16565b5060056000828152602001908152602001600020600080820160009055600182016000905560028201600090556003820160009055600482016000808201600090556001820160006109629190611860565b600282016000905550506007820160006101000a81549060ff02191690556008820160009055505060006109998888600089610ec9565b90508060076000898152602001908152602001600020819055506109d881600960008b815260200190815260200160002061103190919063ffffffff16565b505050505050505050565b60065481565b60056020528060005260406000206000915090508060000154908060010154908060020154908060030154908060040160405180606001604052908160008201548152602001600182018054610a3e906128e3565b80601f0160208091040260200160405190810160405280929190818152602001828054610a6a906128e3565b8015610ab75780601f10610a8c57610100808354040283529160200191610ab7565b820191906000526020600020905b815481529060010190602001808311610a9a57829003601f168201915b50505050508152602001600282015481525050908060070160009054906101000a900460ff16908060080154905087565b610af06118a0565b60056000610b0884600361122e90919063ffffffff16565b81526020019081526020016000206040518060e0016040529081600082015481526020016001820154815260200160028201548152602001600382015481526020016004820160405180606001604052908160008201548152602001600182018054610b73906128e3565b80601f0160208091040260200160405190810160405280929190818152602001828054610b9f906128e3565b8015610bec5780601f10610bc157610100808354040283529160200191610bec565b820191906000526020600020905b815481529060010190602001808311610bcf57829003601f168201915b5050505050815260200160028201548152505081526020016007820160009054906101000a900460ff166002811115610c2857610c27612173565b5b6002811115610c3a57610c39612173565b5b81526020016008820154815250509050919050565b6000610c5b6003611248565b905090565b6060610c85610c80600a600085815260200190815260200160002061125d565b61127e565b9050919050565b6060610cb1610cac6009600085815260200190815260200160002061125d565b61127e565b9050919050565b83600260009054906101000a900473ffffffffffffffffffffffffffffffffffffffff1673ffffffffffffffffffffffffffffffffffffffff16630173828182336040518363ffffffff1660e01b8152600401610d16929190612671565b602060405180830381865afa158015610d33573d6000803e3d6000fd5b505050506040513d601f19601f82011682018060405250810190610d5791906126d2565b610d96576040517f08c379a0000000000000000000000000000000000000000000000000000000008152600401610d8d9061274b565b60405180910390fd5b85600360008054906101000a900473ffffffffffffffffffffffffffffffffffffffff1673ffffffffffffffffffffffffffffffffffffffff1663434e540b83836040518363ffffffff1660e01b8152600401610df49291906127b3565b6020604051808303816000875af1158015610e13573d6000803e3d6000fd5b505050506040513d601f19601f82011682018060405250810190610e3791906126d2565b610e76576040517f08c379a0000000000000000000000000000000000000000000000000000000008152600401610e6d90612828565b60405180910390fd5b610ea5600860008881526020019081526020016000206000898152602001908152602001600020548686611484565b5050505050505050565b6000610ec1836000018360001b611621565b905092915050565b6000806006549050610ee581600361103190919063ffffffff16565b506040518060e0016040528082815260200187815260200186815260200185815260200160405180606001604052808681526020016040518060200160405280600081525081526020016000801916815250815260200160016002811115610f5057610f4f612173565b5b8152602001428152506005600083815260200190815260200160002060008201518160000155602082015181600101556040820151816002015560608201518160030155608082015181600401600082015181600001556020820151816001019080519060200190610fc39291906118f5565b5060408201518160020155505060a08201518160070160006101000a81548160ff02191690836002811115610ffb57610ffa612173565b5b021790555060c0820151816008015590505060066000815480929190611020906125e7565b919050555080915050949350505050565b6000611043836000018360001b611735565b905092915050565b8360008054906101000a900473ffffffffffffffffffffffffffffffffffffffff1673ffffffffffffffffffffffffffffffffffffffff16635a5d096c82336040518363ffffffff1660e01b81526004016110a7929190612671565b602060405180830381865afa1580156110c4573d6000803e3d6000fd5b505050506040513d601f19601f820116820180604052508101906110e891906126d2565b611127576040517f08c379a000000000000000000000000000000000000000000000000000000000815260040161111e90612894565b60405180910390fd5b84600360008054906101000a900473ffffffffffffffffffffffffffffffffffffffff1673ffffffffffffffffffffffffffffffffffffffff1663434e540b83836040518363ffffffff1660e01b81526004016111859291906127b3565b6020604051808303816000875af11580156111a4573d6000803e3d6000fd5b505050506040513d601f19601f820116820180604052508101906111c891906126d2565b611207576040517f08c379a00000000000000000000000000000000000000000000000000000000081526004016111fe90612828565b60405180910390fd5b61122560076000888152602001908152602001600020548686611484565b50505050505050565b600061123d83600001836117a5565b60001c905092915050565b6000611256826000016117d0565b9050919050565b6060600061126d836000016117e1565b905060608190508092505050919050565b606060008251905060008167ffffffffffffffff8111156112a2576112a1611a1f565b5b6040519080825280602002602001820160405280156112db57816020015b6112c86118a0565b8152602001906001900390816112c05790505b50905060005b828110156114795760056000868381518110611300576112ff612589565b5b602002602001015181526020019081526020016000206040518060e0016040529081600082015481526020016001820154815260200160028201548152602001600382015481526020016004820160405180606001604052908160008201548152602001600182018054611373906128e3565b80601f016020809104026020016040519081016040528092919081815260200182805461139f906128e3565b80156113ec5780601f106113c1576101008083540402835291602001916113ec565b820191906000526020600020905b8154815290600101906020018083116113cf57829003601f168201915b5050505050815260200160028201548152505081526020016007820160009054906101000a900460ff16600281111561142857611427612173565b5b600281111561143a57611439612173565b5b815260200160088201548152505082828151811061145b5761145a612589565b5b60200260200101819052508080611471906125e7565b9150506112e1565b508092505050919050565b6001600281111561149857611497612173565b5b6005600085815260200190815260200160002060070160009054906101000a900460ff1660028111156114ce576114cd612173565b5b1461150e576040517f08c379a000000000000000000000000000000000000000000000000000000000815260040161150590612961565b60405180910390fd5b81816040516020016115219291906129de565b60405160208183030381529060405280519060200120600560008581526020019081526020016000206004016000015414611591576040517f08c379a000000000000000000000000000000000000000000000000000000000815260040161158890612a52565b60405180910390fd5b816005600085815260200190815260200160002060040160010190805190602001906115be9291906118f5565b5080600560008581526020019081526020016000206004016002018190555060026005600085815260200190815260200160002060070160006101000a81548160ff0219169083600281111561161757611616612173565b5b0217905550505050565b600080836001016000848152602001908152602001600020549050600081146117295760006001826116539190612a72565b905060006001866000018054905061166b9190612a72565b90508181146116da57600086600001828154811061168c5761168b612589565b5b90600052602060002001549050808760000184815481106116b0576116af612589565b5b90600052602060002001819055508387600101600083815260200190815260200160002081905550505b856000018054806116ee576116ed612aa6565b5b60019003818190600052602060002001600090559055856001016000868152602001908152602001600020600090556001935050505061172f565b60009150505b92915050565b6000611741838361183d565b61179a57826000018290806001815401808255809150506001900390600052602060002001600090919091909150558260000180549050836001016000848152602001908152602001600020819055506001905061179f565b600090505b92915050565b60008260000182815481106117bd576117bc612589565b5b9060005260206000200154905092915050565b600081600001805490509050919050565b60608160000180548060200260200160405190810160405280929190818152602001828054801561183157602002820191906000526020600020905b81548152602001906001019080831161181d575b50505050509050919050565b600080836001016000848152602001908152602001600020541415905092915050565b50805461186c906128e3565b6000825580601f1061187e575061189d565b601f01602090049060005260206000209081019061189c919061197b565b5b50565b6040518060e00160405280600081526020016000815260200160008152602001600081526020016118cf611998565b8152602001600060028111156118e8576118e7612173565b5b8152602001600081525090565b828054611901906128e3565b90600052602060002090601f016020900481019282611923576000855561196a565b82601f1061193c57805160ff191683800117855561196a565b8280016001018555821561196a579182015b8281111561196957825182559160200191906001019061194e565b5b509050611977919061197b565b5090565b5b8082111561199457600081600090555060010161197c565b5090565b60405180606001604052806000801916815260200160608152602001600080191681525090565b6000604051905090565b600080fd5b600080fd5b6000819050919050565b6119e6816119d3565b81146119f157600080fd5b50565b600081359050611a03816119dd565b92915050565b600080fd5b6000601f19601f8301169050919050565b7f4e487b7100000000000000000000000000000000000000000000000000000000600052604160045260246000fd5b611a5782611a0e565b810181811067ffffffffffffffff82111715611a7657611a75611a1f565b5b80604052505050565b6000611a896119bf565b9050611a958282611a4e565b919050565b600067ffffffffffffffff821115611ab557611ab4611a1f565b5b602082029050602081019050919050565b600080fd5b6000611ade611ad984611a9a565b611a7f565b90508083825260208201905060208402830185811115611b0157611b00611ac6565b5b835b81811015611b2a5780611b1688826119f4565b845260208401935050602081019050611b03565b5050509392505050565b600082601f830112611b4957611b48611a09565b5b8135611b59848260208601611acb565b91505092915050565b600067ffffffffffffffff821115611b7d57611b7c611a1f565b5b602082029050602081019050919050565b600080fd5b600067ffffffffffffffff821115611bae57611bad611a1f565b5b611bb782611a0e565b9050602081019050919050565b82818337600083830152505050565b6000611be6611be184611b93565b611a7f565b905082815260208101848484011115611c0257611c01611b8e565b5b611c0d848285611bc4565b509392505050565b600082601f830112611c2a57611c29611a09565b5b8135611c3a848260208601611bd3565b91505092915050565b6000611c56611c5184611b62565b611a7f565b90508083825260208201905060208402830185811115611c7957611c78611ac6565b5b835b81811015611cc057803567ffffffffffffffff811115611c9e57611c9d611a09565b5b808601611cab8982611c15565b85526020850194505050602081019050611c7b565b5050509392505050565b600082601f830112611cdf57611cde611a09565b5b8135611cef848260208601611c43565b91505092915050565b600067ffffffffffffffff821115611d1357611d12611a1f565b5b602082029050602081019050919050565b6000819050919050565b611d3781611d24565b8114611d4257600080fd5b50565b600081359050611d5481611d2e565b92915050565b6000611d6d611d6884611cf8565b611a7f565b90508083825260208201905060208402830185811115611d9057611d8f611ac6565b5b835b81811015611db95780611da58882611d45565b845260208401935050602081019050611d92565b5050509392505050565b600082601f830112611dd857611dd7611a09565b5b8135611de8848260208601611d5a565b91505092915050565b600080600080600060a08688031215611e0d57611e0c6119c9565b5b6000611e1b888289016119f4565b9550506020611e2c888289016119f4565b945050604086013567ffffffffffffffff811115611e4d57611e4c6119ce565b5b611e5988828901611b34565b935050606086013567ffffffffffffffff811115611e7a57611e796119ce565b5b611e8688828901611cca565b925050608086013567ffffffffffffffff811115611ea757611ea66119ce565b5b611eb388828901611dc3565b9150509295509295909350565b60008060008060808587031215611eda57611ed96119c9565b5b6000611ee8878288016119f4565b9450506020611ef9878288016119f4565b9350506040611f0a878288016119f4565b9250506060611f1b87828801611d45565b91505092959194509250565b60008060008060808587031215611f4157611f406119c9565b5b6000611f4f878288016119f4565b945050602085013567ffffffffffffffff811115611f7057611f6f6119ce565b5b611f7c87828801611b34565b935050604085013567ffffffffffffffff811115611f9d57611f9c6119ce565b5b611fa987828801611cca565b925050606085013567ffffffffffffffff811115611fca57611fc96119ce565b5b611fd687828801611dc3565b91505092959194509250565b600080600060608486031215611ffb57611ffa6119c9565b5b6000612009868287016119f4565b935050602061201a868287016119f4565b925050604061202b86828701611d45565b9150509250925092565b61203e816119d3565b82525050565b60006020820190506120596000830184612035565b92915050565b600060208284031215612075576120746119c9565b5b6000612083848285016119f4565b91505092915050565b61209581611d24565b82525050565b600081519050919050565b600082825260208201905092915050565b60005b838110156120d55780820151818401526020810190506120ba565b838111156120e4576000848401525b50505050565b60006120f58261209b565b6120ff81856120a6565b935061210f8185602086016120b7565b61211881611a0e565b840191505092915050565b600060608301600083015161213b600086018261208c565b506020830151848203602086015261215382826120ea565b9150506040830151612168604086018261208c565b508091505092915050565b7f4e487b7100000000000000000000000000000000000000000000000000000000600052602160045260246000fd5b600381106121b3576121b2612173565b5b50565b60008190506121c4826121a2565b919050565b60006121d4826121b6565b9050919050565b6121e4816121c9565b82525050565b600060e0820190506121ff600083018a612035565b61220c6020830189612035565b6122196040830188612035565b6122266060830187612035565b81810360808301526122388186612123565b905061224760a08301856121db565b61225460c0830184612035565b98975050505050505050565b612269816119d3565b82525050565b6000606083016000830151612287600086018261208c565b506020830151848203602086015261229f82826120ea565b91505060408301516122b4604086018261208c565b508091505092915050565b6122c8816121c9565b82525050565b600060e0830160008301516122e66000860182612260565b5060208301516122f96020860182612260565b50604083015161230c6040860182612260565b50606083015161231f6060860182612260565b5060808301518482036080860152612337828261226f565b91505060a083015161234c60a08601826122bf565b5060c083015161235f60c0860182612260565b508091505092915050565b6000602082019050818103600083015261238481846122ce565b905092915050565b600081519050919050565b600082825260208201905092915050565b6000819050602082019050919050565b600060e0830160008301516123d06000860182612260565b5060208301516123e36020860182612260565b5060408301516123f66040860182612260565b5060608301516124096060860182612260565b5060808301518482036080860152612421828261226f565b91505060a083015161243660a08601826122bf565b5060c083015161244960c0860182612260565b508091505092915050565b600061246083836123b8565b905092915050565b6000602082019050919050565b60006124808261238c565b61248a8185612397565b93508360208202850161249c856123a8565b8060005b858110156124d857848403895281516124b98582612454565b94506124c483612468565b925060208a019950506001810190506124a0565b50829750879550505050505092915050565b600060208201905081810360008301526125048184612475565b905092915050565b600082825260208201905092915050565b7f6c656e6774682073686f756c6420626520657175616c00000000000000000000600082015250565b600061255360168361250c565b915061255e8261251d565b602082019050919050565b6000602082019050818103600083015261258281612546565b9050919050565b7f4e487b7100000000000000000000000000000000000000000000000000000000600052603260045260246000fd5b7f4e487b7100000000000000000000000000000000000000000000000000000000600052601160045260246000fd5b60006125f2826119d3565b91507fffffffffffffffffffffffffffffffffffffffffffffffffffffffffffffffff821415612625576126246125b8565b5b600182019050919050565b600073ffffffffffffffffffffffffffffffffffffffff82169050919050565b600061265b82612630565b9050919050565b61266b81612650565b82525050565b60006040820190506126866000830185612035565b6126936020830184612662565b9392505050565b60008115159050919050565b6126af8161269a565b81146126ba57600080fd5b50565b6000815190506126cc816126a6565b92915050565b6000602082840312156126e8576126e76119c9565b5b60006126f6848285016126bd565b91505092915050565b7f6f6e6c79207465616d206d656d62657200000000000000000000000000000000600082015250565b600061273560108361250c565b9150612740826126ff565b602082019050919050565b6000602082019050818103600083015261276481612728565b9050919050565b6004811061277c5761277b612173565b5b50565b600081905061278d8261276b565b919050565b600061279d8261277f565b9050919050565b6127ad81612792565b82525050565b60006040820190506127c86000830185612035565b6127d560208301846127a4565b9392505050565b7f77726f6e6720636f6e7465737420737461746500000000000000000000000000600082015250565b600061281260138361250c565b915061281d826127dc565b602082019050919050565b6000602082019050818103600083015261284181612805565b9050919050565b7f6f6e6c7920636f6e74657374206f776e65720000000000000000000000000000600082015250565b600061287e60128361250c565b915061288982612848565b602082019050919050565b600060208201905081810360008301526128ad81612871565b9050919050565b7f4e487b7100000000000000000000000000000000000000000000000000000000600052602260045260246000fd5b600060028204905060018216806128fb57607f821691505b6020821081141561290f5761290e6128b4565b5b50919050565b7f616c72656164792072657665616c656400000000000000000000000000000000600082015250565b600061294b60108361250c565b915061295682612915565b602082019050919050565b6000602082019050818103600083015261297a8161293e565b9050919050565b600081905092915050565b60006129978261209b565b6129a18185612981565b93506129b18185602086016120b7565b80840191505092915050565b6000819050919050565b6129d86129d382611d24565b6129bd565b82525050565b60006129ea828561298c565b91506129f682846129c7565b6020820191508190509392505050565b7f646f6573206e6f74206d6174636820636f6d6d69746d656e7400000000000000600082015250565b6000612a3c60198361250c565b9150612a4782612a06565b602082019050919050565b60006020820190508181036000830152612a6b81612a2f565b9050919050565b6000612a7d826119d3565b9150612a88836119d3565b925082821015612a9b57612a9a6125b8565b5b828203905092915050565b7f4e487b7100000000000000000000000000000000000000000000000000000000600052603160045260246000fdfea2646970667358221220067485be870c67da125401ef6e87dbb4c275a643a9685e3a33aa2982ccc31ffd64736f6c634300080a0033",
  "immutableReferences": {},
  "source": "// SPDX-License-Identifier: MIT\npragma solidity ^0.8.10;\npragma experimental ABIEncoderV2;\n\nimport \"@openzeppelin/contracts/utils/structs/EnumerableSet.sol\";\nimport \"./IMoves.sol\";\nimport \"./IContests.sol\";\nimport \"./ITeams.sol\";\nimport \"./IChallenges.sol\";\n\ncontract Moves is IMoves {\n    using EnumerableSet for EnumerableSet.UintSet;\n\n    IContests Contests;\n    IChallenges Challenges;\n    ITeams Teams;\n\n    constructor(address _Contests, address _Challenges, address _Teams) {\n        Contests = IContests(_Contests);\n        Teams = ITeams(_Teams);\n        Challenges = IChallenges(_Challenges);\n    }\n\n    EnumerableSet.UintSet ids;\n    mapping(uint => Move) public moves;\n    uint public nextId = 1;\n\n    // index\n    //challengeId => moveId\n    mapping(uint => uint) challengeFlag;\n    //challengeId => (teamId => moveId)\n    mapping(uint => mapping(uint => uint)) submitFlag;\n    // contest flags\n    mapping(uint => EnumerableSet.UintSet) contestAnswers;\n    // contest submit\n    mapping(uint => EnumerableSet.UintSet) contestSubmits;\n\n    function _commit(uint contestId, uint challengeId, uint teamId, bytes32 hash) internal returns (uint) {\n        uint id = nextId;\n        ids.add(id);\n        moves[id] = Move(id, contestId, challengeId, teamId, IMove(hash, \"\", \"\"), MoveState.COMMITTED, block.timestamp);\n        nextId++;\n        return id;\n    }\n\n    function _reveal(uint id, string memory flag, bytes32 salt) internal {\n        require(moves[id].state == IMoves.MoveState.COMMITTED, \"already revealed\");\n        require(moves[id].info.hash == keccak256(abi.encodePacked(flag, salt)), \"does not match commitment\");\n        moves[id].info.flag = flag;\n        moves[id].info.salt = salt;\n        moves[id].state = MoveState.REVEALED;\n    }\n\n    function commitForAdmin(uint contestId, uint challengeId, bytes32 hash) external\n    onlyContestOwner(contestId)\n    onlyContestInState(contestId, IContests.ContestState.STARTED) {\n        uint oldId = challengeFlag[challengeId];\n        contestAnswers[contestId].remove(oldId);\n        delete moves[oldId];\n        uint id = _commit(contestId, challengeId, 0, hash);\n        challengeFlag[challengeId] = id;\n        contestAnswers[contestId].add(id);\n    }\n\n    function commitForMember(uint contestId, uint teamId, uint challengeId, bytes32 hash) external\n    onlyTeamMember(teamId)\n    onlyContestInState(contestId, IContests.ContestState.STARTED) {\n        uint oldId = submitFlag[challengeId][teamId];\n        contestSubmits[contestId].remove(oldId);\n        delete moves[oldId];\n        uint id = _commit(contestId, challengeId, teamId, hash);\n        submitFlag[challengeId][teamId] = id;\n        contestSubmits[contestId].add(id);\n    }\n\n    function _revealForAdmin(uint contestId, uint challengeId, string memory flag, bytes32 salt) internal\n    onlyContestOwner(contestId)\n    onlyContestInState(contestId, IContests.ContestState.ENDED) {\n        _reveal(challengeFlag[challengeId], flag, salt);\n    }\n\n    function revealForAdmins(uint contestId, uint [] memory challengeIds, string [] memory flags, bytes32 [] memory salts) external {\n        require(challengeIds.length == flags.length, \"length should be equal\");\n        require(salts.length == flags.length, \"length should be equal\");\n        for (uint i = 0; i < challengeIds.length; i++) {\n            _revealForAdmin(contestId, challengeIds[i], flags[i], salts[i]);\n        }\n    }\n\n    function _revealForMember(uint contestId, uint teamId, uint challengeId, string memory flag, bytes32 salt) internal\n    onlyTeamMember(teamId)\n    onlyContestInState(contestId, IContests.ContestState.ENDED) {\n        _reveal(submitFlag[challengeId][teamId], flag, salt);\n    }\n\n    function revealForMembers(uint contestId, uint teamId, uint [] memory challengeIds, string [] memory flags, bytes32 [] memory salts) external {\n        require(challengeIds.length == flags.length, \"length should be equal\");\n        require(salts.length == flags.length, \"length should be equal\");\n        for (uint i = 0; i < challengeIds.length; i++) {\n            _revealForMember(contestId, teamId, challengeIds[i], flags[i], salts[i]);\n        }\n    }\n\n    function _gets(uint [] memory _ids) internal view returns (Move [] memory) {\n        uint number = _ids.length;\n        Move [] memory result = new Move [](number);\n        for (uint i = 0; i < number; i++) {\n            result[i] = moves[_ids[i]];\n        }\n        return result;\n    }\n\n    function getsSubmit(uint contestId) external view returns (Move [] memory) {\n        return _gets(contestSubmits[contestId].values());\n    }\n    function getsAnswer(uint contestId) external view returns (Move [] memory) {\n        return _gets(contestAnswers[contestId].values());\n    }\n\n    function getCount() external view returns (uint) {\n        return ids.length();\n    }\n\n    function get(uint index) external view returns (Move memory) {\n        return  moves[ids.at(index)];\n    }\n\n    modifier onlyTeamMember(uint teamId) {\n        require(Teams.isTeamMember(teamId, msg.sender), \"only team member\");\n        _;\n    }\n\n    modifier onlyContestOwner(uint contestId){\n        require(Contests.isOwner(contestId, msg.sender), \"only contest owner\");\n        _;\n    }\n\n    modifier onlyContestInState(uint contestId, IContests.ContestState state){\n        require(Contests.contestInState(contestId, state), \"wrong contest state\");\n        _;\n    }\n\n}",
  "sourcePath": "/Users/yhy/Code/GitHub/DCTF/contracts/Moves.sol",
  "compiler": {
    "name": "solc",
    "version": "0.8.10+commit.fc410830.Emscripten.clang"
  },
  "schemaVersion": "3.4.4",
  "updatedAt": "2022-02-21T06:03:30.407Z",
  "networkType": "ethereum",
  "devdoc": {
    "kind": "dev",
    "methods": {},
    "version": 1
  },
  "userdoc": {
    "kind": "user",
    "methods": {},
    "version": 1
  }
}