{
  "contractName": "Moves",
  "abi": [
    {
      "inputs": [
        {
          "internalType": "address",
          "name": "_Contests",
          "type": "address"
        },
        {
          "internalType": "address",
          "name": "_Challenges",
          "type": "address"
        },
        {
          "internalType": "address",
          "name": "_Teams",
          "type": "address"
        }
      ],
      "stateMutability": "nonpayable",
      "type": "constructor"
    },
    {
      "inputs": [],
      "name": "nextId",
      "outputs": [
        {
          "internalType": "uint256",
          "name": "",
          "type": "uint256"
        }
      ],
      "stateMutability": "view",
      "type": "function",
      "constant": true
    },
    {
      "inputs": [
        {
          "internalType": "uint256",
          "name": "contestId",
          "type": "uint256"
        },
        {
          "internalType": "uint256",
          "name": "challengeId",
          "type": "uint256"
        },
        {
          "internalType": "bytes32",
          "name": "hash",
          "type": "bytes32"
        }
      ],
      "name": "commitForAdmin",
      "outputs": [],
      "stateMutability": "nonpayable",
      "type": "function"
    },
    {
      "inputs": [
        {
          "internalType": "uint256",
          "name": "contestId",
          "type": "uint256"
        },
        {
          "internalType": "uint256",
          "name": "teamId",
          "type": "uint256"
        },
        {
          "internalType": "uint256",
          "name": "challengeId",
          "type": "uint256"
        },
        {
          "internalType": "bytes32",
          "name": "hash",
          "type": "bytes32"
        }
      ],
      "name": "commitForMember",
      "outputs": [],
      "stateMutability": "nonpayable",
      "type": "function"
    },
    {
      "inputs": [
        {
          "internalType": "uint256",
          "name": "contestId",
          "type": "uint256"
        },
        {
          "internalType": "uint256[]",
          "name": "challengeIds",
          "type": "uint256[]"
        },
        {
          "internalType": "string[]",
          "name": "flags",
          "type": "string[]"
        },
        {
          "internalType": "bytes32[]",
          "name": "salts",
          "type": "bytes32[]"
        }
      ],
      "name": "revealForAdmins",
      "outputs": [],
      "stateMutability": "nonpayable",
      "type": "function"
    },
    {
      "inputs": [
        {
          "internalType": "uint256",
          "name": "contestId",
          "type": "uint256"
        },
        {
          "internalType": "uint256",
          "name": "teamId",
          "type": "uint256"
        },
        {
          "internalType": "uint256[]",
          "name": "challengeIds",
          "type": "uint256[]"
        },
        {
          "internalType": "string[]",
          "name": "flags",
          "type": "string[]"
        },
        {
          "internalType": "bytes32[]",
          "name": "salts",
          "type": "bytes32[]"
        }
      ],
      "name": "revealForMembers",
      "outputs": [],
      "stateMutability": "nonpayable",
      "type": "function"
    },
    {
      "inputs": [
        {
          "internalType": "uint256",
          "name": "challengeId",
          "type": "uint256"
        }
      ],
      "name": "getChallengeAnswerMoveId",
      "outputs": [
        {
          "internalType": "uint256",
          "name": "",
          "type": "uint256"
        }
      ],
      "stateMutability": "view",
      "type": "function",
      "constant": true
    },
    {
      "inputs": [
        {
          "internalType": "uint256",
          "name": "challengeId",
          "type": "uint256"
        },
        {
          "internalType": "uint256",
          "name": "teamId",
          "type": "uint256"
        }
      ],
      "name": "getChallengeTeamSubmitMoveId",
      "outputs": [
        {
          "internalType": "uint256",
          "name": "",
          "type": "uint256"
        }
      ],
      "stateMutability": "view",
      "type": "function",
      "constant": true
    },
    {
      "inputs": [
        {
          "internalType": "uint256",
          "name": "contestId",
          "type": "uint256"
        }
      ],
      "name": "getContestSubmitIds",
      "outputs": [
        {
          "internalType": "uint256[]",
          "name": "",
          "type": "uint256[]"
        }
      ],
      "stateMutability": "view",
      "type": "function",
      "constant": true
    },
    {
      "inputs": [
        {
          "internalType": "uint256",
          "name": "contestId",
          "type": "uint256"
        }
      ],
      "name": "getContestAnswerIds",
      "outputs": [
        {
          "internalType": "uint256[]",
          "name": "",
          "type": "uint256[]"
        }
      ],
      "stateMutability": "view",
      "type": "function",
      "constant": true
    },
    {
      "inputs": [],
      "name": "getCount",
      "outputs": [
        {
          "internalType": "uint256",
          "name": "",
          "type": "uint256"
        }
      ],
      "stateMutability": "view",
      "type": "function",
      "constant": true
    },
    {
      "inputs": [
        {
          "internalType": "uint256",
          "name": "index",
          "type": "uint256"
        }
      ],
      "name": "get",
      "outputs": [
        {
          "components": [
            {
              "internalType": "uint256",
              "name": "id",
              "type": "uint256"
            },
            {
              "internalType": "uint256",
              "name": "contestId",
              "type": "uint256"
            },
            {
              "internalType": "uint256",
              "name": "challengeId",
              "type": "uint256"
            },
            {
              "internalType": "uint256",
              "name": "teamId",
              "type": "uint256"
            },
            {
              "components": [
                {
                  "internalType": "bytes32",
                  "name": "hash",
                  "type": "bytes32"
                },
                {
                  "internalType": "string",
                  "name": "flag",
                  "type": "string"
                },
                {
                  "internalType": "bytes32",
                  "name": "salt",
                  "type": "bytes32"
                }
              ],
              "internalType": "struct IMoves.IMove",
              "name": "info",
              "type": "tuple"
            },
            {
              "internalType": "enum IMoves.MoveState",
              "name": "state",
              "type": "uint8"
            },
            {
              "internalType": "uint256",
              "name": "timeStamp",
              "type": "uint256"
            }
          ],
          "internalType": "struct IMoves.Move",
          "name": "",
          "type": "tuple"
        }
      ],
      "stateMutability": "view",
      "type": "function",
      "constant": true
    },
    {
      "inputs": [
        {
          "internalType": "uint256",
          "name": "id",
          "type": "uint256"
        }
      ],
      "name": "getMove",
      "outputs": [
        {
          "components": [
            {
              "internalType": "uint256",
              "name": "id",
              "type": "uint256"
            },
            {
              "internalType": "uint256",
              "name": "contestId",
              "type": "uint256"
            },
            {
              "internalType": "uint256",
              "name": "challengeId",
              "type": "uint256"
            },
            {
              "internalType": "uint256",
              "name": "teamId",
              "type": "uint256"
            },
            {
              "components": [
                {
                  "internalType": "bytes32",
                  "name": "hash",
                  "type": "bytes32"
                },
                {
                  "internalType": "string",
                  "name": "flag",
                  "type": "string"
                },
                {
                  "internalType": "bytes32",
                  "name": "salt",
                  "type": "bytes32"
                }
              ],
              "internalType": "struct IMoves.IMove",
              "name": "info",
              "type": "tuple"
            },
            {
              "internalType": "enum IMoves.MoveState",
              "name": "state",
              "type": "uint8"
            },
            {
              "internalType": "uint256",
              "name": "timeStamp",
              "type": "uint256"
            }
          ],
          "internalType": "struct IMoves.Move",
          "name": "",
          "type": "tuple"
        }
      ],
      "stateMutability": "view",
      "type": "function",
      "constant": true
    }
  ],
  "bytecode": "0x608060405260016006553480156200001657600080fd5b50604051620032093803806200320983398181016040528101906200003c919062000171565b826000806101000a81548173ffffffffffffffffffffffffffffffffffffffff021916908373ffffffffffffffffffffffffffffffffffffffff16021790555080600260006101000a81548173ffffffffffffffffffffffffffffffffffffffff021916908373ffffffffffffffffffffffffffffffffffffffff16021790555081600160006101000a81548173ffffffffffffffffffffffffffffffffffffffff021916908373ffffffffffffffffffffffffffffffffffffffff160217905550505050620001cd565b600080fd5b600073ffffffffffffffffffffffffffffffffffffffff82169050919050565b600062000139826200010c565b9050919050565b6200014b816200012c565b81146200015757600080fd5b50565b6000815190506200016b8162000140565b92915050565b6000806000606084860312156200018d576200018c62000107565b5b60006200019d868287016200015a565b9350506020620001b0868287016200015a565b9250506040620001c3868287016200015a565b9150509250925092565b61302c80620001dd6000396000f3fe608060405234801561001057600080fd5b50600436106100b45760003560e01c80635aeba835116100715780635aeba8351461019d57806361b8ce8c146101b957806371dbd330146101d75780639507d39a14610207578063a87d942c14610237578063a8f0a38214610255576100b4565b80630abcad0f146100b957806319488c09146100e957806330d6345a146101195780633861d430146101495780633c1fc8c81461016557806344d5d1c314610181575b600080fd5b6100d360048036038101906100ce9190611b1a565b610285565b6040516100e09190611b56565b60405180910390f35b61010360048036038101906100fe9190611b1a565b6102a2565b6040516101109190611c2f565b60405180910390f35b610133600480360381019061012e9190611b1a565b6102c6565b6040516101409190611c2f565b60405180910390f35b610163600480360381019061015e9190612039565b6102ea565b005b61017f600480360381019061017a9190612108565b6103f4565b005b61019b6004803603810190610196919061216f565b6107b3565b005b6101b760048036038101906101b2919061222a565b6108bb565b005b6101c1610bc3565b6040516101ce9190611b56565b60405180910390f35b6101f160048036038101906101ec9190611b1a565b610bc9565b6040516101fe9190612477565b60405180910390f35b610221600480360381019061021c9190611b1a565b610d1d565b60405161022e9190612477565b60405180910390f35b61023f610e84565b60405161024c9190611b56565b60405180910390f35b61026f600480360381019061026a9190612499565b610e95565b60405161027c9190611b56565b60405180910390f35b600060076000838152602001908152602001600020549050919050565b60606102bf60096000848152602001908152602001600020610ec4565b9050919050565b60606102e3600a6000848152602001908152602001600020610ec4565b9050919050565b815183511461032e576040517f08c379a000000000000000000000000000000000000000000000000000000000815260040161032590612536565b60405180910390fd5b8151815114610372576040517f08c379a000000000000000000000000000000000000000000000000000000000815260040161036990612536565b60405180910390fd5b60005b83518110156103ec576103d9868686848151811061039657610395612556565b5b60200260200101518685815181106103b1576103b0612556565b5b60200260200101518686815181106103cc576103cb612556565b5b6020026020010151610ee5565b80806103e4906125b4565b915050610375565b505050505050565b826000600260009054906101000a900473ffffffffffffffffffffffffffffffffffffffff1673ffffffffffffffffffffffffffffffffffffffff16628e0f1b836040518263ffffffff1660e01b81526004016104519190611b56565b600060405180830381865afa15801561046e573d6000803e3d6000fd5b505050506040513d6000823e3d601f19601f820116820180604052508101906104979190612968565b905060003373ffffffffffffffffffffffffffffffffffffffff1682604001516020015173ffffffffffffffffffffffffffffffffffffffff1614156104dc57600190505b60005b8260400151604001515181101561055e573373ffffffffffffffffffffffffffffffffffffffff16836040015160400151828151811061052257610521612556565b5b602002602001015173ffffffffffffffffffffffffffffffffffffffff16141561054b57600191505b8080610556906125b4565b9150506104df565b508061059f576040517f08c379a0000000000000000000000000000000000000000000000000000000008152600401610596906129fd565b60405180910390fd5b86600260008054906101000a900473ffffffffffffffffffffffffffffffffffffffff1673ffffffffffffffffffffffffffffffffffffffff1663434e540b83836040518363ffffffff1660e01b81526004016105fd929190612a65565b6020604051808303816000875af115801561061c573d6000803e3d6000fd5b505050506040513d601f19601f820116820180604052508101906106409190612ac6565b61067f576040517f08c379a000000000000000000000000000000000000000000000000000000000815260040161067690612b3f565b60405180910390fd5b60006008600089815260200190815260200160002060008a81526020019081526020016000205490506106cd81600a60008d81526020019081526020016000206111ab90919063ffffffff16565b50600560008281526020019081526020016000206000808201600090556001820160009055600282016000905560038201600090556004820160008082016000905560018201600061071f9190611971565b600282016000905550506007820160006101000a81549060ff02191690556008820160009055505060006107558b8a8c8b6111c5565b905080600860008b815260200190815260200160002060008c8152602001908152602001600020819055506107a581600a60008e815260200190815260200160002061132d90919063ffffffff16565b505050505050505050505050565b81518351146107f7576040517f08c379a00000000000000000000000000000000000000000000000000000000081526004016107ee90612536565b60405180910390fd5b815181511461083b576040517f08c379a000000000000000000000000000000000000000000000000000000000815260040161083290612536565b60405180910390fd5b60005b83518110156108b4576108a18585838151811061085e5761085d612556565b5b602002602001015185848151811061087957610878612556565b5b602002602001015185858151811061089457610893612556565b5b6020026020010151611347565b80806108ac906125b4565b91505061083e565b5050505050565b8260008060009054906101000a900473ffffffffffffffffffffffffffffffffffffffff1673ffffffffffffffffffffffffffffffffffffffff1663904b9f72836040518263ffffffff1660e01b81526004016109189190611b56565b600060405180830381865afa158015610935573d6000803e3d6000fd5b505050506040513d6000823e3d601f19601f8201168201806040525081019061095e9190612d20565b90503373ffffffffffffffffffffffffffffffffffffffff16816040015173ffffffffffffffffffffffffffffffffffffffff16146109d2576040517f08c379a00000000000000000000000000000000000000000000000000000000081526004016109c990612db5565b60405180910390fd5b84600260008054906101000a900473ffffffffffffffffffffffffffffffffffffffff1673ffffffffffffffffffffffffffffffffffffffff1663434e540b83836040518363ffffffff1660e01b8152600401610a30929190612a65565b6020604051808303816000875af1158015610a4f573d6000803e3d6000fd5b505050506040513d601f19601f82011682018060405250810190610a739190612ac6565b610ab2576040517f08c379a0000000000000000000000000000000000000000000000000000000008152600401610aa990612b3f565b60405180910390fd5b600060076000888152602001908152602001600020549050610aef81600960008b81526020019081526020016000206111ab90919063ffffffff16565b506005600082815260200190815260200160002060008082016000905560018201600090556002820160009055600382016000905560048201600080820160009055600182016000610b419190611971565b600282016000905550506007820160006101000a81549060ff0219169055600882016000905550506000610b78898960008a6111c5565b905080600760008a815260200190815260200160002081905550610bb781600960008c815260200190815260200160002061132d90919063ffffffff16565b50505050505050505050565b60065481565b610bd16119b1565b600560008381526020019081526020016000206040518060e0016040529081600082015481526020016001820154815260200160028201548152602001600382015481526020016004820160405180606001604052908160008201548152602001600182018054610c4190612e04565b80601f0160208091040260200160405190810160405280929190818152602001828054610c6d90612e04565b8015610cba5780601f10610c8f57610100808354040283529160200191610cba565b820191906000526020600020905b815481529060010190602001808311610c9d57829003601f168201915b5050505050815260200160028201548152505081526020016007820160009054906101000a900460ff166002811115610cf657610cf5612364565b5b6002811115610d0857610d07612364565b5b81526020016008820154815250509050919050565b610d256119b1565b60056000610d3d84600361156690919063ffffffff16565b81526020019081526020016000206040518060e0016040529081600082015481526020016001820154815260200160028201548152602001600382015481526020016004820160405180606001604052908160008201548152602001600182018054610da890612e04565b80601f0160208091040260200160405190810160405280929190818152602001828054610dd490612e04565b8015610e215780601f10610df657610100808354040283529160200191610e21565b820191906000526020600020905b815481529060010190602001808311610e0457829003601f168201915b5050505050815260200160028201548152505081526020016007820160009054906101000a900460ff166002811115610e5d57610e5c612364565b5b6002811115610e6f57610e6e612364565b5b81526020016008820154815250509050919050565b6000610e906003611580565b905090565b600060086000848152602001908152602001600020600083815260200190815260200160002054905092915050565b60606000610ed483600001611595565b905060608190508092505050919050565b836000600260009054906101000a900473ffffffffffffffffffffffffffffffffffffffff1673ffffffffffffffffffffffffffffffffffffffff16628e0f1b836040518263ffffffff1660e01b8152600401610f429190611b56565b600060405180830381865afa158015610f5f573d6000803e3d6000fd5b505050506040513d6000823e3d601f19601f82011682018060405250810190610f889190612968565b905060003373ffffffffffffffffffffffffffffffffffffffff1682604001516020015173ffffffffffffffffffffffffffffffffffffffff161415610fcd57600190505b60005b8260400151604001515181101561104f573373ffffffffffffffffffffffffffffffffffffffff16836040015160400151828151811061101357611012612556565b5b602002602001015173ffffffffffffffffffffffffffffffffffffffff16141561103c57600191505b8080611047906125b4565b915050610fd0565b5080611090576040517f08c379a0000000000000000000000000000000000000000000000000000000008152600401611087906129fd565b60405180910390fd5b87600360008054906101000a900473ffffffffffffffffffffffffffffffffffffffff1673ffffffffffffffffffffffffffffffffffffffff1663434e540b83836040518363ffffffff1660e01b81526004016110ee929190612a65565b6020604051808303816000875af115801561110d573d6000803e3d6000fd5b505050506040513d601f19601f820116820180604052508101906111319190612ac6565b611170576040517f08c379a000000000000000000000000000000000000000000000000000000000815260040161116790612b3f565b60405180910390fd5b61119f600860008a815260200190815260200160002060008b81526020019081526020016000205488886115f1565b50505050505050505050565b60006111bd836000018360001b61178e565b905092915050565b60008060065490506111e181600361132d90919063ffffffff16565b506040518060e001604052808281526020018781526020018681526020018581526020016040518060600160405280868152602001604051806020016040528060008152508152602001600080191681525081526020016001600281111561124c5761124b612364565b5b81526020014281525060056000838152602001908152602001600020600082015181600001556020820151816001015560408201518160020155606082015181600301556080820151816004016000820151816000015560208201518160010190805190602001906112bf929190611a06565b5060408201518160020155505060a08201518160070160006101000a81548160ff021916908360028111156112f7576112f6612364565b5b021790555060c082015181600801559050506006600081548092919061131c906125b4565b919050555080915050949350505050565b600061133f836000018360001b6118a2565b905092915050565b8360008060009054906101000a900473ffffffffffffffffffffffffffffffffffffffff1673ffffffffffffffffffffffffffffffffffffffff1663904b9f72836040518263ffffffff1660e01b81526004016113a49190611b56565b600060405180830381865afa1580156113c1573d6000803e3d6000fd5b505050506040513d6000823e3d601f19601f820116820180604052508101906113ea9190612d20565b90503373ffffffffffffffffffffffffffffffffffffffff16816040015173ffffffffffffffffffffffffffffffffffffffff161461145e576040517f08c379a000000000000000000000000000000000000000000000000000000000815260040161145590612db5565b60405180910390fd5b85600360008054906101000a900473ffffffffffffffffffffffffffffffffffffffff1673ffffffffffffffffffffffffffffffffffffffff1663434e540b83836040518363ffffffff1660e01b81526004016114bc929190612a65565b6020604051808303816000875af11580156114db573d6000803e3d6000fd5b505050506040513d601f19601f820116820180604052508101906114ff9190612ac6565b61153e576040517f08c379a000000000000000000000000000000000000000000000000000000000815260040161153590612b3f565b60405180910390fd5b61155c600760008981526020019081526020016000205487876115f1565b5050505050505050565b60006115758360000183611912565b60001c905092915050565b600061158e8260000161193d565b9050919050565b6060816000018054806020026020016040519081016040528092919081815260200182805480156115e557602002820191906000526020600020905b8154815260200190600101908083116115d1575b50505050509050919050565b6001600281111561160557611604612364565b5b6005600085815260200190815260200160002060070160009054906101000a900460ff16600281111561163b5761163a612364565b5b1461167b576040517f08c379a000000000000000000000000000000000000000000000000000000000815260040161167290612e82565b60405180910390fd5b818160405160200161168e929190612eff565b604051602081830303815290604052805190602001206005600085815260200190815260200160002060040160000154146116fe576040517f08c379a00000000000000000000000000000000000000000000000000000000081526004016116f590612f73565b60405180910390fd5b8160056000858152602001908152602001600020600401600101908051906020019061172b929190611a06565b5080600560008581526020019081526020016000206004016002018190555060026005600085815260200190815260200160002060070160006101000a81548160ff0219169083600281111561178457611783612364565b5b0217905550505050565b600080836001016000848152602001908152602001600020549050600081146118965760006001826117c09190612f93565b90506000600186600001805490506117d89190612f93565b90508181146118475760008660000182815481106117f9576117f8612556565b5b906000526020600020015490508087600001848154811061181d5761181c612556565b5b90600052602060002001819055508387600101600083815260200190815260200160002081905550505b8560000180548061185b5761185a612fc7565b5b60019003818190600052602060002001600090559055856001016000868152602001908152602001600020600090556001935050505061189c565b60009150505b92915050565b60006118ae838361194e565b61190757826000018290806001815401808255809150506001900390600052602060002001600090919091909150558260000180549050836001016000848152602001908152602001600020819055506001905061190c565b600090505b92915050565b600082600001828154811061192a57611929612556565b5b9060005260206000200154905092915050565b600081600001805490509050919050565b600080836001016000848152602001908152602001600020541415905092915050565b50805461197d90612e04565b6000825580601f1061198f57506119ae565b601f0160209004906000526020600020908101906119ad9190611a8c565b5b50565b6040518060e00160405280600081526020016000815260200160008152602001600081526020016119e0611aa9565b8152602001600060028111156119f9576119f8612364565b5b8152602001600081525090565b828054611a1290612e04565b90600052602060002090601f016020900481019282611a345760008555611a7b565b82601f10611a4d57805160ff1916838001178555611a7b565b82800160010185558215611a7b579182015b82811115611a7a578251825591602001919060010190611a5f565b5b509050611a889190611a8c565b5090565b5b80821115611aa5576000816000905550600101611a8d565b5090565b60405180606001604052806000801916815260200160608152602001600080191681525090565b6000604051905090565b600080fd5b600080fd5b6000819050919050565b611af781611ae4565b8114611b0257600080fd5b50565b600081359050611b1481611aee565b92915050565b600060208284031215611b3057611b2f611ada565b5b6000611b3e84828501611b05565b91505092915050565b611b5081611ae4565b82525050565b6000602082019050611b6b6000830184611b47565b92915050565b600081519050919050565b600082825260208201905092915050565b6000819050602082019050919050565b611ba681611ae4565b82525050565b6000611bb88383611b9d565b60208301905092915050565b6000602082019050919050565b6000611bdc82611b71565b611be68185611b7c565b9350611bf183611b8d565b8060005b83811015611c22578151611c098882611bac565b9750611c1483611bc4565b925050600181019050611bf5565b5085935050505092915050565b60006020820190508181036000830152611c498184611bd1565b905092915050565b600080fd5b6000601f19601f8301169050919050565b7f4e487b7100000000000000000000000000000000000000000000000000000000600052604160045260246000fd5b611c9f82611c56565b810181811067ffffffffffffffff82111715611cbe57611cbd611c67565b5b80604052505050565b6000611cd1611ad0565b9050611cdd8282611c96565b919050565b600067ffffffffffffffff821115611cfd57611cfc611c67565b5b602082029050602081019050919050565b600080fd5b6000611d26611d2184611ce2565b611cc7565b90508083825260208201905060208402830185811115611d4957611d48611d0e565b5b835b81811015611d725780611d5e8882611b05565b845260208401935050602081019050611d4b565b5050509392505050565b600082601f830112611d9157611d90611c51565b5b8135611da1848260208601611d13565b91505092915050565b600067ffffffffffffffff821115611dc557611dc4611c67565b5b602082029050602081019050919050565b600080fd5b600067ffffffffffffffff821115611df657611df5611c67565b5b611dff82611c56565b9050602081019050919050565b82818337600083830152505050565b6000611e2e611e2984611ddb565b611cc7565b905082815260208101848484011115611e4a57611e49611dd6565b5b611e55848285611e0c565b509392505050565b600082601f830112611e7257611e71611c51565b5b8135611e82848260208601611e1b565b91505092915050565b6000611e9e611e9984611daa565b611cc7565b90508083825260208201905060208402830185811115611ec157611ec0611d0e565b5b835b81811015611f0857803567ffffffffffffffff811115611ee657611ee5611c51565b5b808601611ef38982611e5d565b85526020850194505050602081019050611ec3565b5050509392505050565b600082601f830112611f2757611f26611c51565b5b8135611f37848260208601611e8b565b91505092915050565b600067ffffffffffffffff821115611f5b57611f5a611c67565b5b602082029050602081019050919050565b6000819050919050565b611f7f81611f6c565b8114611f8a57600080fd5b50565b600081359050611f9c81611f76565b92915050565b6000611fb5611fb084611f40565b611cc7565b90508083825260208201905060208402830185811115611fd857611fd7611d0e565b5b835b818110156120015780611fed8882611f8d565b845260208401935050602081019050611fda565b5050509392505050565b600082601f8301126120205761201f611c51565b5b8135612030848260208601611fa2565b91505092915050565b600080600080600060a0868803121561205557612054611ada565b5b600061206388828901611b05565b955050602061207488828901611b05565b945050604086013567ffffffffffffffff81111561209557612094611adf565b5b6120a188828901611d7c565b935050606086013567ffffffffffffffff8111156120c2576120c1611adf565b5b6120ce88828901611f12565b925050608086013567ffffffffffffffff8111156120ef576120ee611adf565b5b6120fb8882890161200b565b9150509295509295909350565b6000806000806080858703121561212257612121611ada565b5b600061213087828801611b05565b945050602061214187828801611b05565b935050604061215287828801611b05565b925050606061216387828801611f8d565b91505092959194509250565b6000806000806080858703121561218957612188611ada565b5b600061219787828801611b05565b945050602085013567ffffffffffffffff8111156121b8576121b7611adf565b5b6121c487828801611d7c565b935050604085013567ffffffffffffffff8111156121e5576121e4611adf565b5b6121f187828801611f12565b925050606085013567ffffffffffffffff81111561221257612211611adf565b5b61221e8782880161200b565b91505092959194509250565b60008060006060848603121561224357612242611ada565b5b600061225186828701611b05565b935050602061226286828701611b05565b925050604061227386828701611f8d565b9150509250925092565b61228681611f6c565b82525050565b600081519050919050565b600082825260208201905092915050565b60005b838110156122c65780820151818401526020810190506122ab565b838111156122d5576000848401525b50505050565b60006122e68261228c565b6122f08185612297565b93506123008185602086016122a8565b61230981611c56565b840191505092915050565b600060608301600083015161232c600086018261227d565b506020830151848203602086015261234482826122db565b9150506040830151612359604086018261227d565b508091505092915050565b7f4e487b7100000000000000000000000000000000000000000000000000000000600052602160045260246000fd5b600381106123a4576123a3612364565b5b50565b60008190506123b582612393565b919050565b60006123c5826123a7565b9050919050565b6123d5816123ba565b82525050565b600060e0830160008301516123f36000860182611b9d565b5060208301516124066020860182611b9d565b5060408301516124196040860182611b9d565b50606083015161242c6060860182611b9d565b50608083015184820360808601526124448282612314565b91505060a083015161245960a08601826123cc565b5060c083015161246c60c0860182611b9d565b508091505092915050565b6000602082019050818103600083015261249181846123db565b905092915050565b600080604083850312156124b0576124af611ada565b5b60006124be85828601611b05565b92505060206124cf85828601611b05565b9150509250929050565b600082825260208201905092915050565b7f6c656e6774682073686f756c6420626520657175616c00000000000000000000600082015250565b60006125206016836124d9565b915061252b826124ea565b602082019050919050565b6000602082019050818103600083015261254f81612513565b9050919050565b7f4e487b7100000000000000000000000000000000000000000000000000000000600052603260045260246000fd5b7f4e487b7100000000000000000000000000000000000000000000000000000000600052601160045260246000fd5b60006125bf82611ae4565b91507fffffffffffffffffffffffffffffffffffffffffffffffffffffffffffffffff8214156125f2576125f1612585565b5b600182019050919050565b600080fd5b600080fd5b60008151905061261681611aee565b92915050565b600061262f61262a84611ddb565b611cc7565b90508281526020810184848401111561264b5761264a611dd6565b5b6126568482856122a8565b509392505050565b600082601f83011261267357612672611c51565b5b815161268384826020860161261c565b91505092915050565b600073ffffffffffffffffffffffffffffffffffffffff82169050919050565b60006126b78261268c565b9050919050565b6126c7816126ac565b81146126d257600080fd5b50565b6000815190506126e4816126be565b92915050565b600067ffffffffffffffff82111561270557612704611c67565b5b602082029050602081019050919050565b60006127218261268c565b9050919050565b61273181612716565b811461273c57600080fd5b50565b60008151905061274e81612728565b92915050565b6000612767612762846126ea565b611cc7565b9050808382526020820190506020840283018581111561278a57612789611d0e565b5b835b818110156127b3578061279f888261273f565b84526020840193505060208101905061278c565b5050509392505050565b600082601f8301126127d2576127d1611c51565b5b81516127e2848260208601612754565b91505092915050565b600060608284031215612801576128006125fd565b5b61280b6060611cc7565b9050600082015167ffffffffffffffff81111561282b5761282a612602565b5b6128378482850161265e565b600083015250602061284b848285016126d5565b602083015250604082015167ffffffffffffffff81111561286f5761286e612602565b5b61287b848285016127bd565b60408301525092915050565b6004811061289457600080fd5b50565b6000815190506128a681612887565b92915050565b600060c082840312156128c2576128c16125fd565b5b6128cc60c0611cc7565b905060006128dc84828501612607565b60008301525060206128f084828501612607565b602083015250604082015167ffffffffffffffff81111561291457612913612602565b5b612920848285016127eb565b604083015250606061293484828501612897565b606083015250608061294884828501612607565b60808301525060a061295c84828501612607565b60a08301525092915050565b60006020828403121561297e5761297d611ada565b5b600082015167ffffffffffffffff81111561299c5761299b611adf565b5b6129a8848285016128ac565b91505092915050565b7f6f6e6c79207465616d206361707461696e206f72206d656d6265720000000000600082015250565b60006129e7601b836124d9565b91506129f2826129b1565b602082019050919050565b60006020820190508181036000830152612a16816129da565b9050919050565b60048110612a2e57612a2d612364565b5b50565b6000819050612a3f82612a1d565b919050565b6000612a4f82612a31565b9050919050565b612a5f81612a44565b82525050565b6000604082019050612a7a6000830185611b47565b612a876020830184612a56565b9392505050565b60008115159050919050565b612aa381612a8e565b8114612aae57600080fd5b50565b600081519050612ac081612a9a565b92915050565b600060208284031215612adc57612adb611ada565b5b6000612aea84828501612ab1565b91505092915050565b7f77726f6e6720636f6e7465737420737461746500000000000000000000000000600082015250565b6000612b296013836124d9565b9150612b3482612af3565b602082019050919050565b60006020820190508181036000830152612b5881612b1c565b9050919050565b600060c08284031215612b7557612b746125fd565b5b612b7f60c0611cc7565b9050600082015167ffffffffffffffff811115612b9f57612b9e612602565b5b612bab8482850161265e565b600083015250602082015167ffffffffffffffff811115612bcf57612bce612602565b5b612bdb8482850161265e565b6020830152506040612bef84828501612607565b6040830152506060612c0384828501612607565b6060830152506080612c1784828501612607565b60808301525060a082015167ffffffffffffffff811115612c3b57612c3a612602565b5b612c478482850161265e565b60a08301525092915050565b60048110612c6057600080fd5b50565b600081519050612c7281612c53565b92915050565b600060a08284031215612c8e57612c8d6125fd565b5b612c9860a0611cc7565b90506000612ca884828501612607565b600083015250602082015167ffffffffffffffff811115612ccc57612ccb612602565b5b612cd884828501612b5f565b6020830152506040612cec8482850161273f565b6040830152506060612d0084828501612c63565b6060830152506080612d1484828501612607565b60808301525092915050565b600060208284031215612d3657612d35611ada565b5b600082015167ffffffffffffffff811115612d5457612d53611adf565b5b612d6084828501612c78565b91505092915050565b7f6f6e6c7920636f6e74657374206f776e65720000000000000000000000000000600082015250565b6000612d9f6012836124d9565b9150612daa82612d69565b602082019050919050565b60006020820190508181036000830152612dce81612d92565b9050919050565b7f4e487b7100000000000000000000000000000000000000000000000000000000600052602260045260246000fd5b60006002820490506001821680612e1c57607f821691505b60208210811415612e3057612e2f612dd5565b5b50919050565b7f616c72656164792072657665616c656400000000000000000000000000000000600082015250565b6000612e6c6010836124d9565b9150612e7782612e36565b602082019050919050565b60006020820190508181036000830152612e9b81612e5f565b9050919050565b600081905092915050565b6000612eb88261228c565b612ec28185612ea2565b9350612ed28185602086016122a8565b80840191505092915050565b6000819050919050565b612ef9612ef482611f6c565b612ede565b82525050565b6000612f0b8285612ead565b9150612f178284612ee8565b6020820191508190509392505050565b7f646f6573206e6f74206d6174636820636f6d6d69746d656e7400000000000000600082015250565b6000612f5d6019836124d9565b9150612f6882612f27565b602082019050919050565b60006020820190508181036000830152612f8c81612f50565b9050919050565b6000612f9e82611ae4565b9150612fa983611ae4565b925082821015612fbc57612fbb612585565b5b828203905092915050565b7f4e487b7100000000000000000000000000000000000000000000000000000000600052603160045260246000fdfea26469706673582212206b5ed794d20611b346c56e502d5f01e711da8fe231295710d0df41bd3b94134764736f6c634300080a0033",
  "immutableReferences": {},
  "source": "// SPDX-License-Identifier: MIT\npragma solidity ^0.8.10;\npragma experimental ABIEncoderV2;\n\nimport \"@openzeppelin/contracts/utils/structs/EnumerableSet.sol\";\nimport \"./IMoves.sol\";\nimport \"./IContests.sol\";\nimport \"./ITeams.sol\";\nimport \"./IChallenges.sol\";\n\ncontract Moves is IMoves {\n    using EnumerableSet for EnumerableSet.UintSet;\n\n    IContests Contests;\n    IChallenges Challenges;\n    ITeams Teams;\n\n    constructor(address _Contests, address _Challenges, address _Teams) {\n        Contests = IContests(_Contests);\n        Teams = ITeams(_Teams);\n        Challenges = IChallenges(_Challenges);\n    }\n\n    EnumerableSet.UintSet ids;\n    mapping(uint => Move) moves;\n    uint public nextId = 1;\n\n    mapping(uint => uint) challengeIdToAnswerMoveId;\n    // challengeId => (teamId => moveId)\n    mapping(uint => mapping(uint => uint)) challengeIdAndTeamIdToSubmitMoveId;\n    mapping(uint => EnumerableSet.UintSet) contestAnswers;\n    mapping(uint => EnumerableSet.UintSet) contestSubmits;\n\n    function _commit(uint contestId, uint challengeId, uint teamId, bytes32 hash) internal returns (uint) {\n        uint id = nextId;\n        ids.add(id);\n        moves[id] = Move(id, contestId, challengeId, teamId, IMove(hash, \"\", \"\"), MoveState.COMMITTED, block.timestamp);\n        nextId++;\n        return id;\n    }\n\n    function _reveal(uint id, string memory flag, bytes32 salt) internal {\n        require(moves[id].state == IMoves.MoveState.COMMITTED, \"already revealed\");\n        require(moves[id].info.hash == keccak256(abi.encodePacked(flag, salt)), \"does not match commitment\");\n        moves[id].info.flag = flag;\n        moves[id].info.salt = salt;\n        moves[id].state = MoveState.REVEALED;\n    }\n\n    function _revealForAdmin(uint contestId, uint challengeId, string memory flag, bytes32 salt) internal\n    onlyContestOwner(contestId)\n    onlyContestInState(contestId, IContests.ContestState.ENDED) {\n        _reveal(challengeIdToAnswerMoveId[challengeId], flag, salt);\n    }\n\n    function _revealForMember(uint contestId, uint teamId, uint challengeId, string memory flag, bytes32 salt) internal\n    onlyTeamMember(teamId)\n    onlyContestInState(contestId, IContests.ContestState.ENDED) {\n        _reveal(challengeIdAndTeamIdToSubmitMoveId[challengeId][teamId], flag, salt);\n    }\n\n    function commitForAdmin(uint contestId, uint challengeId, bytes32 hash) external\n    onlyContestOwner(contestId)\n    onlyContestInState(contestId, IContests.ContestState.STARTED) {\n        uint oldId = challengeIdToAnswerMoveId[challengeId];\n        contestAnswers[contestId].remove(oldId);\n        delete moves[oldId];\n        uint id = _commit(contestId, challengeId, 0, hash);\n        challengeIdToAnswerMoveId[challengeId] = id;\n        contestAnswers[contestId].add(id);\n    }\n\n    function commitForMember(uint contestId, uint teamId, uint challengeId, bytes32 hash) external\n    onlyTeamMember(teamId)\n    onlyContestInState(contestId, IContests.ContestState.STARTED) {\n        uint oldId = challengeIdAndTeamIdToSubmitMoveId[challengeId][teamId];\n        contestSubmits[contestId].remove(oldId);\n        delete moves[oldId];\n        uint id = _commit(contestId, challengeId, teamId, hash);\n        challengeIdAndTeamIdToSubmitMoveId[challengeId][teamId] = id;\n        contestSubmits[contestId].add(id);\n    }\n\n    function revealForAdmins(uint contestId, uint [] memory challengeIds, string [] memory flags, bytes32 [] memory salts) external {\n        require(challengeIds.length == flags.length, \"length should be equal\");\n        require(salts.length == flags.length, \"length should be equal\");\n        for (uint i = 0; i < challengeIds.length; i++) {\n            _revealForAdmin(contestId, challengeIds[i], flags[i], salts[i]);\n        }\n    }\n\n    function revealForMembers(uint contestId, uint teamId, uint [] memory challengeIds, string [] memory flags, bytes32 [] memory salts) external {\n        require(challengeIds.length == flags.length, \"length should be equal\");\n        require(salts.length == flags.length, \"length should be equal\");\n        for (uint i = 0; i < challengeIds.length; i++) {\n            _revealForMember(contestId, teamId, challengeIds[i], flags[i], salts[i]);\n        }\n    }\n\n    function getChallengeAnswerMoveId(uint challengeId) external view returns (uint) {\n        return challengeIdToAnswerMoveId[challengeId];\n    }\n\n    function getChallengeTeamSubmitMoveId(uint challengeId, uint teamId) external view returns (uint) {\n        return challengeIdAndTeamIdToSubmitMoveId[challengeId][teamId];\n    }\n\n    function getContestSubmitIds(uint contestId) external view returns (uint [] memory) {\n        return contestSubmits[contestId].values();\n    }\n\n    function getContestAnswerIds(uint contestId) external view returns (uint [] memory) {\n        return contestAnswers[contestId].values();\n    }\n\n    function getCount() external view returns (uint) {\n        return ids.length();\n    }\n\n    function get(uint index) external view returns (Move memory) {\n        return moves[ids.at(index)];\n    }\n\n    function getMove(uint id) external view returns (Move memory) {\n        return moves[id];\n    }\n\n    modifier onlyTeamMember(uint teamId) {\n        ITeams.Team memory team = Teams.getTeam(teamId);\n        bool result = false;\n        if (team.info.captain == msg.sender) result = true;\n        for (uint i = 0; i < team.info.members.length; i++)\n            if (team.info.members[i] == msg.sender) result = true;\n        require(result, \"only team captain or member\");\n        _;\n    }\n\n    modifier onlyContestOwner(uint contestId){\n        IContests.Contest memory contest = Contests.getContest(contestId);\n        require(contest.owner == msg.sender, \"only contest owner\");\n        _;\n    }\n    modifier onlyContestInState(uint contestId, IContests.ContestState state){\n        require(Contests.contestInState(contestId, state), \"wrong contest state\");\n        _;\n    }\n\n}",
  "sourcePath": "/Users/yhy/Code/GitHub/DCTF/contracts/Moves.sol",
  "compiler": {
    "name": "solc",
    "version": "0.8.10+commit.fc410830.Emscripten.clang"
  },
  "schemaVersion": "3.4.4",
  "updatedAt": "2022-02-22T09:03:38.633Z",
  "networkType": "ethereum",
  "devdoc": {
    "kind": "dev",
    "methods": {},
    "version": 1
  },
  "userdoc": {
    "kind": "user",
    "methods": {},
    "version": 1
  }
}