{
  "contractName": "Teams",
  "abi": [
    {
      "inputs": [
        {
          "internalType": "address",
          "name": "_Contests",
          "type": "address"
        }
      ],
      "stateMutability": "nonpayable",
      "type": "constructor"
    },
    {
      "inputs": [],
      "name": "nextId",
      "outputs": [
        {
          "internalType": "uint256",
          "name": "",
          "type": "uint256"
        }
      ],
      "stateMutability": "view",
      "type": "function",
      "constant": true
    },
    {
      "inputs": [
        {
          "internalType": "uint256",
          "name": "",
          "type": "uint256"
        }
      ],
      "name": "teams",
      "outputs": [
        {
          "internalType": "uint256",
          "name": "id",
          "type": "uint256"
        },
        {
          "internalType": "uint256",
          "name": "contestId",
          "type": "uint256"
        },
        {
          "components": [
            {
              "internalType": "string",
              "name": "name",
              "type": "string"
            },
            {
              "internalType": "address payable",
              "name": "captain",
              "type": "address"
            },
            {
              "internalType": "address[]",
              "name": "members",
              "type": "address[]"
            }
          ],
          "internalType": "struct ITeams.ITeam",
          "name": "teamInfo",
          "type": "tuple"
        },
        {
          "internalType": "enum ITeams.TeamState",
          "name": "state",
          "type": "uint8"
        },
        {
          "internalType": "uint256",
          "name": "timeStamp",
          "type": "uint256"
        }
      ],
      "stateMutability": "view",
      "type": "function",
      "constant": true
    },
    {
      "inputs": [
        {
          "internalType": "uint256",
          "name": "contestId",
          "type": "uint256"
        },
        {
          "components": [
            {
              "internalType": "string",
              "name": "name",
              "type": "string"
            },
            {
              "internalType": "address payable",
              "name": "captain",
              "type": "address"
            },
            {
              "internalType": "address[]",
              "name": "members",
              "type": "address[]"
            }
          ],
          "internalType": "struct ITeams.ITeam",
          "name": "team",
          "type": "tuple"
        }
      ],
      "name": "applyContest",
      "outputs": [],
      "stateMutability": "payable",
      "type": "function",
      "payable": true
    },
    {
      "inputs": [
        {
          "internalType": "uint256",
          "name": "contestId",
          "type": "uint256"
        },
        {
          "internalType": "uint256",
          "name": "teamId",
          "type": "uint256"
        },
        {
          "internalType": "bool",
          "name": "result",
          "type": "bool"
        }
      ],
      "name": "auditTeam",
      "outputs": [],
      "stateMutability": "nonpayable",
      "type": "function"
    },
    {
      "inputs": [
        {
          "internalType": "uint256",
          "name": "teamId",
          "type": "uint256"
        },
        {
          "internalType": "address",
          "name": "account",
          "type": "address"
        }
      ],
      "name": "isTeamMember",
      "outputs": [
        {
          "internalType": "bool",
          "name": "",
          "type": "bool"
        }
      ],
      "stateMutability": "view",
      "type": "function",
      "constant": true
    },
    {
      "inputs": [],
      "name": "getAll",
      "outputs": [
        {
          "components": [
            {
              "internalType": "uint256",
              "name": "id",
              "type": "uint256"
            },
            {
              "internalType": "uint256",
              "name": "contestId",
              "type": "uint256"
            },
            {
              "components": [
                {
                  "internalType": "string",
                  "name": "name",
                  "type": "string"
                },
                {
                  "internalType": "address payable",
                  "name": "captain",
                  "type": "address"
                },
                {
                  "internalType": "address[]",
                  "name": "members",
                  "type": "address[]"
                }
              ],
              "internalType": "struct ITeams.ITeam",
              "name": "teamInfo",
              "type": "tuple"
            },
            {
              "internalType": "enum ITeams.TeamState",
              "name": "state",
              "type": "uint8"
            },
            {
              "internalType": "uint256",
              "name": "timeStamp",
              "type": "uint256"
            }
          ],
          "internalType": "struct ITeams.Team[]",
          "name": "",
          "type": "tuple[]"
        }
      ],
      "stateMutability": "view",
      "type": "function",
      "constant": true
    },
    {
      "inputs": [
        {
          "internalType": "uint256[]",
          "name": "_ids",
          "type": "uint256[]"
        }
      ],
      "name": "getSome",
      "outputs": [
        {
          "components": [
            {
              "internalType": "uint256",
              "name": "id",
              "type": "uint256"
            },
            {
              "internalType": "uint256",
              "name": "contestId",
              "type": "uint256"
            },
            {
              "components": [
                {
                  "internalType": "string",
                  "name": "name",
                  "type": "string"
                },
                {
                  "internalType": "address payable",
                  "name": "captain",
                  "type": "address"
                },
                {
                  "internalType": "address[]",
                  "name": "members",
                  "type": "address[]"
                }
              ],
              "internalType": "struct ITeams.ITeam",
              "name": "teamInfo",
              "type": "tuple"
            },
            {
              "internalType": "enum ITeams.TeamState",
              "name": "state",
              "type": "uint8"
            },
            {
              "internalType": "uint256",
              "name": "timeStamp",
              "type": "uint256"
            }
          ],
          "internalType": "struct ITeams.Team[]",
          "name": "",
          "type": "tuple[]"
        }
      ],
      "stateMutability": "view",
      "type": "function",
      "constant": true
    },
    {
      "inputs": [
        {
          "internalType": "uint256",
          "name": "contestId",
          "type": "uint256"
        }
      ],
      "name": "gets",
      "outputs": [
        {
          "components": [
            {
              "internalType": "uint256",
              "name": "id",
              "type": "uint256"
            },
            {
              "internalType": "uint256",
              "name": "contestId",
              "type": "uint256"
            },
            {
              "components": [
                {
                  "internalType": "string",
                  "name": "name",
                  "type": "string"
                },
                {
                  "internalType": "address payable",
                  "name": "captain",
                  "type": "address"
                },
                {
                  "internalType": "address[]",
                  "name": "members",
                  "type": "address[]"
                }
              ],
              "internalType": "struct ITeams.ITeam",
              "name": "teamInfo",
              "type": "tuple"
            },
            {
              "internalType": "enum ITeams.TeamState",
              "name": "state",
              "type": "uint8"
            },
            {
              "internalType": "uint256",
              "name": "timeStamp",
              "type": "uint256"
            }
          ],
          "internalType": "struct ITeams.Team[]",
          "name": "",
          "type": "tuple[]"
        }
      ],
      "stateMutability": "view",
      "type": "function",
      "constant": true
    },
    {
      "inputs": [
        {
          "internalType": "uint256",
          "name": "contestId",
          "type": "uint256"
        },
        {
          "internalType": "address",
          "name": "account",
          "type": "address"
        }
      ],
      "name": "getOne",
      "outputs": [
        {
          "components": [
            {
              "internalType": "uint256",
              "name": "id",
              "type": "uint256"
            },
            {
              "internalType": "uint256",
              "name": "contestId",
              "type": "uint256"
            },
            {
              "components": [
                {
                  "internalType": "string",
                  "name": "name",
                  "type": "string"
                },
                {
                  "internalType": "address payable",
                  "name": "captain",
                  "type": "address"
                },
                {
                  "internalType": "address[]",
                  "name": "members",
                  "type": "address[]"
                }
              ],
              "internalType": "struct ITeams.ITeam",
              "name": "teamInfo",
              "type": "tuple"
            },
            {
              "internalType": "enum ITeams.TeamState",
              "name": "state",
              "type": "uint8"
            },
            {
              "internalType": "uint256",
              "name": "timeStamp",
              "type": "uint256"
            }
          ],
          "internalType": "struct ITeams.Team",
          "name": "",
          "type": "tuple"
        }
      ],
      "stateMutability": "view",
      "type": "function",
      "constant": true
    },
    {
      "inputs": [],
      "name": "getCount",
      "outputs": [
        {
          "internalType": "uint256",
          "name": "",
          "type": "uint256"
        }
      ],
      "stateMutability": "view",
      "type": "function",
      "constant": true
    },
    {
      "inputs": [
        {
          "internalType": "uint256",
          "name": "index",
          "type": "uint256"
        }
      ],
      "name": "get",
      "outputs": [
        {
          "components": [
            {
              "internalType": "uint256",
              "name": "id",
              "type": "uint256"
            },
            {
              "internalType": "uint256",
              "name": "contestId",
              "type": "uint256"
            },
            {
              "components": [
                {
                  "internalType": "string",
                  "name": "name",
                  "type": "string"
                },
                {
                  "internalType": "address payable",
                  "name": "captain",
                  "type": "address"
                },
                {
                  "internalType": "address[]",
                  "name": "members",
                  "type": "address[]"
                }
              ],
              "internalType": "struct ITeams.ITeam",
              "name": "teamInfo",
              "type": "tuple"
            },
            {
              "internalType": "enum ITeams.TeamState",
              "name": "state",
              "type": "uint8"
            },
            {
              "internalType": "uint256",
              "name": "timeStamp",
              "type": "uint256"
            }
          ],
          "internalType": "struct ITeams.Team",
          "name": "",
          "type": "tuple"
        }
      ],
      "stateMutability": "view",
      "type": "function",
      "constant": true
    }
  ],
  "bytecode": "0x608060405260016004553480156200001657600080fd5b5060405162002ee738038062002ee783398181016040528101906200003c9190620000ed565b806000806101000a81548173ffffffffffffffffffffffffffffffffffffffff021916908373ffffffffffffffffffffffffffffffffffffffff160217905550506200011f565b600080fd5b600073ffffffffffffffffffffffffffffffffffffffff82169050919050565b6000620000b58262000088565b9050919050565b620000c781620000a8565b8114620000d357600080fd5b50565b600081519050620000e781620000bc565b92915050565b60006020828403121562000106576200010562000083565b5b60006200011684828501620000d6565b91505092915050565b612db8806200012f6000396000f3fe60806040526004361061009c5760003560e01c8063879c04ce11610064578063879c04ce146101b25780639507d39a146101db57806397b270fd14610218578063a87d942c14610255578063b1d6046d14610280578063d30f3f481461029c5761009c565b806301738281146100a15780633ed2b77a146100de57806353ed51431461011f57806361b8ce8c1461014a5780638324180314610175575b600080fd5b3480156100ad57600080fd5b506100c860048036038101906100c39190611a5c565b6102d9565b6040516100d59190611ab7565b60405180910390f35b3480156100ea57600080fd5b5061010560048036038101906101009190611ad2565b61042a565b604051610116959493929190611d54565b60405180910390f35b34801561012b57600080fd5b506101346105ed565b6040516101419190611f5b565b60405180910390f35b34801561015657600080fd5b5061015f610606565b60405161016c9190611f7d565b60405180910390f35b34801561018157600080fd5b5061019c600480360381019061019791906120e0565b61060c565b6040516101a99190611f5b565b60405180910390f35b3480156101be57600080fd5b506101d960048036038101906101d49190612155565b61061e565b005b3480156101e757600080fd5b5061020260048036038101906101fd9190611ad2565b6109d2565b60405161020f919061221e565b60405180910390f35b34801561022457600080fd5b5061023f600480360381019061023a9190611a5c565b610bf5565b60405161024c919061221e565b60405180910390f35b34801561026157600080fd5b5061026a610e56565b6040516102779190611f7d565b60405180910390f35b61029a60048036038101906102959190612264565b610e67565b005b3480156102a857600080fd5b506102c360048036038101906102be9190611ad2565b611214565b6040516102d09190611f5b565b60405180910390f35b60008173ffffffffffffffffffffffffffffffffffffffff166003600085815260200190815260200160002060020160010160009054906101000a900473ffffffffffffffffffffffffffffffffffffffff1673ffffffffffffffffffffffffffffffffffffffff1614156103515760019050610424565b60005b600360008581526020019081526020016000206002016002018054905081101561041e578273ffffffffffffffffffffffffffffffffffffffff166003600086815260200190815260200160002060020160020182815481106103ba576103b96122c0565b5b9060005260206000200160009054906101000a900473ffffffffffffffffffffffffffffffffffffffff1673ffffffffffffffffffffffffffffffffffffffff16141561040b576001915050610424565b80806104169061231e565b915050610354565b50600090505b92915050565b60036020528060005260406000206000915090508060000154908060010154908060020160405180606001604052908160008201805461046990612396565b80601f016020809104026020016040519081016040528092919081815260200182805461049590612396565b80156104e25780601f106104b7576101008083540402835291602001916104e2565b820191906000526020600020905b8154815290600101906020018083116104c557829003601f168201915b505050505081526020016001820160009054906101000a900473ffffffffffffffffffffffffffffffffffffffff1673ffffffffffffffffffffffffffffffffffffffff1673ffffffffffffffffffffffffffffffffffffffff168152602001600282018054806020026020016040519081016040528092919081815260200182805480156105c657602002820191906000526020600020905b8160009054906101000a900473ffffffffffffffffffffffffffffffffffffffff1673ffffffffffffffffffffffffffffffffffffffff168152602001906001019080831161057c575b505050505081525050908060050160009054906101000a900460ff16908060060154905085565b60606106016105fc6001611240565b611261565b905090565b60045481565b606061061782611261565b9050919050565b8260008054906101000a900473ffffffffffffffffffffffffffffffffffffffff1673ffffffffffffffffffffffffffffffffffffffff16635a5d096c82336040518363ffffffff1660e01b815260040161067a9291906123d7565b602060405180830381865afa158015610697573d6000803e3d6000fd5b505050506040513d601f19601f820116820180604052508101906106bb9190612415565b6106fa576040517f08c379a00000000000000000000000000000000000000000000000000000000081526004016106f19061249f565b60405180910390fd5b6001600381111561070e5761070d611cdd565b5b6003600085815260200190815260200160002060050160009054906101000a900460ff16600381111561074457610743611cdd565b5b14610784576040517f08c379a000000000000000000000000000000000000000000000000000000000815260040161077b9061250b565b60405180910390fd5b6001151582151514156107d55760026003600085815260200190815260200160002060050160006101000a81548160ff021916908360038111156107cb576107ca611cdd565b5b02179055506109cc565b6000600167ffffffffffffffff8111156107f2576107f1611f9d565b5b6040519080825280602002602001820160405280156108205781602001602082028036833780820191505090505b5090508481600081518110610838576108376122c0565b5b60200260200101818152505060008060009054906101000a900473ffffffffffffffffffffffffffffffffffffffff1673ffffffffffffffffffffffffffffffffffffffff166383241803836040518263ffffffff1660e01b81526004016108a091906125da565b600060405180830381865afa1580156108bd573d6000803e3d6000fd5b505050506040513d6000823e3d601f19601f820116820180604052508101906108e69190612978565b6000815181106108f9576108f86122c0565b5b60200260200101519050600380600087815260200190815260200160002060050160006101000a81548160ff0219169083600381111561093c5761093b611cdd565b5b02179055506003600086815260200190815260200160002060020160010160009054906101000a900473ffffffffffffffffffffffffffffffffffffffff1673ffffffffffffffffffffffffffffffffffffffff166108fc8260200151604001519081150290604051600060405180830381858888f193505050501580156109c8573d6000803e3d6000fd5b5050505b50505050565b6109da611809565b600360006109f284600161152390919063ffffffff16565b81526020019081526020016000206040518060a0016040529081600082015481526020016001820154815260200160028201604051806060016040529081600082018054610a3f90612396565b80601f0160208091040260200160405190810160405280929190818152602001828054610a6b90612396565b8015610ab85780601f10610a8d57610100808354040283529160200191610ab8565b820191906000526020600020905b815481529060010190602001808311610a9b57829003601f168201915b505050505081526020016001820160009054906101000a900473ffffffffffffffffffffffffffffffffffffffff1673ffffffffffffffffffffffffffffffffffffffff1673ffffffffffffffffffffffffffffffffffffffff16815260200160028201805480602002602001604051908101604052809291908181526020018280548015610b9c57602002820191906000526020600020905b8160009054906101000a900473ffffffffffffffffffffffffffffffffffffffff1673ffffffffffffffffffffffffffffffffffffffff1681526020019060010190808311610b52575b50505050508152505081526020016005820160009054906101000a900460ff166003811115610bce57610bcd611cdd565b5b6003811115610be057610bdf611cdd565b5b81526020016006820154815250509050919050565b610bfd611809565b600360006005600086815260200190815260200160002060008573ffffffffffffffffffffffffffffffffffffffff1673ffffffffffffffffffffffffffffffffffffffff1681526020019081526020016000205481526020019081526020016000206040518060a0016040529081600082015481526020016001820154815260200160028201604051806060016040529081600082018054610c9f90612396565b80601f0160208091040260200160405190810160405280929190818152602001828054610ccb90612396565b8015610d185780601f10610ced57610100808354040283529160200191610d18565b820191906000526020600020905b815481529060010190602001808311610cfb57829003601f168201915b505050505081526020016001820160009054906101000a900473ffffffffffffffffffffffffffffffffffffffff1673ffffffffffffffffffffffffffffffffffffffff1673ffffffffffffffffffffffffffffffffffffffff16815260200160028201805480602002602001604051908101604052809291908181526020018280548015610dfc57602002820191906000526020600020905b8160009054906101000a900473ffffffffffffffffffffffffffffffffffffffff1673ffffffffffffffffffffffffffffffffffffffff1681526020019060010190808311610db2575b50505050508152505081526020016005820160009054906101000a900460ff166003811115610e2e57610e2d611cdd565b5b6003811115610e4057610e3f611cdd565b5b8152602001600682015481525050905092915050565b6000610e62600161153d565b905090565b8160008054906101000a900473ffffffffffffffffffffffffffffffffffffffff1673ffffffffffffffffffffffffffffffffffffffff1663e4dc1491826040518263ffffffff1660e01b8152600401610ec19190611f7d565b602060405180830381865afa158015610ede573d6000803e3d6000fd5b505050506040513d601f19601f82011682018060405250810190610f029190612415565b610f41576040517f08c379a0000000000000000000000000000000000000000000000000000000008152600401610f3890612a0d565b60405180910390fd5b6000600167ffffffffffffffff811115610f5e57610f5d611f9d565b5b604051908082528060200260200182016040528015610f8c5781602001602082028036833780820191505090505b5090508381600081518110610fa457610fa36122c0565b5b60200260200101818152505060008060009054906101000a900473ffffffffffffffffffffffffffffffffffffffff1673ffffffffffffffffffffffffffffffffffffffff166383241803836040518263ffffffff1660e01b815260040161100c91906125da565b600060405180830381865afa158015611029573d6000803e3d6000fd5b505050506040513d6000823e3d601f19601f820116820180604052508101906110529190612978565b600081518110611065576110646122c0565b5b6020026020010151905080602001516040015134146110b9576040517f08c379a00000000000000000000000000000000000000000000000000000000081526004016110b090612a79565b60405180910390fd5b6004546005600087815260200190815260200160002060008660200160208101906110e49190612ac5565b73ffffffffffffffffffffffffffffffffffffffff1673ffffffffffffffffffffffffffffffffffffffff1681526020019081526020016000208190555060005b8480604001906111359190612b01565b90508110156111dd576004546005600088815260200190815260200160002060008780604001906111669190612b01565b85818110611177576111766122c0565b5b905060200201602081019061118c9190612b64565b73ffffffffffffffffffffffffffffffffffffffff1673ffffffffffffffffffffffffffffffffffffffff1681526020019081526020016000208190555080806111d59061231e565b915050611125565b5061120c6111eb8686611552565b600660008881526020019081526020016000206116c490919063ffffffff16565b505050505050565b606061123961123460066000858152602001908152602001600020611240565b611261565b9050919050565b60606000611250836000016116de565b905060608190508092505050919050565b606060008251905060008167ffffffffffffffff81111561128557611284611f9d565b5b6040519080825280602002602001820160405280156112be57816020015b6112ab611809565b8152602001906001900390816112a35790505b50905060005b8281101561151857600360008683815181106112e3576112e26122c0565b5b602002602001015181526020019081526020016000206040518060a001604052908160008201548152602001600182015481526020016002820160405180606001604052908160008201805461133890612396565b80601f016020809104026020016040519081016040528092919081815260200182805461136490612396565b80156113b15780601f10611386576101008083540402835291602001916113b1565b820191906000526020600020905b81548152906001019060200180831161139457829003601f168201915b505050505081526020016001820160009054906101000a900473ffffffffffffffffffffffffffffffffffffffff1673ffffffffffffffffffffffffffffffffffffffff1673ffffffffffffffffffffffffffffffffffffffff1681526020016002820180548060200260200160405190810160405280929190818152602001828054801561149557602002820191906000526020600020905b8160009054906101000a900473ffffffffffffffffffffffffffffffffffffffff1673ffffffffffffffffffffffffffffffffffffffff168152602001906001019080831161144b575b50505050508152505081526020016005820160009054906101000a900460ff1660038111156114c7576114c6611cdd565b5b60038111156114d9576114d8611cdd565b5b81526020016006820154815250508282815181106114fa576114f96122c0565b5b602002602001018190525080806115109061231e565b9150506112c4565b508092505050919050565b6000611532836000018361173a565b60001c905092915050565b600061154b82600001611765565b9050919050565b600080600454905061156e8160016116c490919063ffffffff16565b506040518060a001604052808281526020018581526020018461159090612d6f565b8152602001600160038111156115a9576115a8611cdd565b5b81526020014281525060036000838152602001908152602001600020600082015181600001556020820151816001015560408201518160020160008201518160000190805190602001906115fe929190611850565b5060208201518160010160006101000a81548173ffffffffffffffffffffffffffffffffffffffff021916908373ffffffffffffffffffffffffffffffffffffffff16021790555060408201518160020190805190602001906116629291906118d6565b50505060608201518160050160006101000a81548160ff021916908360038111156116905761168f611cdd565b5b021790555060808201518160060155905050600460008154809291906116b59061231e565b91905055508091505092915050565b60006116d6836000018360001b611776565b905092915050565b60608160000180548060200260200160405190810160405280929190818152602001828054801561172e57602002820191906000526020600020905b81548152602001906001019080831161171a575b50505050509050919050565b6000826000018281548110611752576117516122c0565b5b9060005260206000200154905092915050565b600081600001805490509050919050565b600061178283836117e6565b6117db5782600001829080600181540180825580915050600190039060005260206000200160009091909190915055826000018054905083600101600084815260200190815260200160002081905550600190506117e0565b600090505b92915050565b600080836001016000848152602001908152602001600020541415905092915050565b6040518060a00160405280600081526020016000815260200161182a611960565b81526020016000600381111561184357611842611cdd565b5b8152602001600081525090565b82805461185c90612396565b90600052602060002090601f01602090048101928261187e57600085556118c5565b82601f1061189757805160ff19168380011785556118c5565b828001600101855582156118c5579182015b828111156118c45782518255916020019190600101906118a9565b5b5090506118d29190611997565b5090565b82805482825590600052602060002090810192821561194f579160200282015b8281111561194e5782518260006101000a81548173ffffffffffffffffffffffffffffffffffffffff021916908373ffffffffffffffffffffffffffffffffffffffff160217905550916020019190600101906118f6565b5b50905061195c9190611997565b5090565b604051806060016040528060608152602001600073ffffffffffffffffffffffffffffffffffffffff168152602001606081525090565b5b808211156119b0576000816000905550600101611998565b5090565b6000604051905090565b600080fd5b600080fd5b6000819050919050565b6119db816119c8565b81146119e657600080fd5b50565b6000813590506119f8816119d2565b92915050565b600073ffffffffffffffffffffffffffffffffffffffff82169050919050565b6000611a29826119fe565b9050919050565b611a3981611a1e565b8114611a4457600080fd5b50565b600081359050611a5681611a30565b92915050565b60008060408385031215611a7357611a726119be565b5b6000611a81858286016119e9565b9250506020611a9285828601611a47565b9150509250929050565b60008115159050919050565b611ab181611a9c565b82525050565b6000602082019050611acc6000830184611aa8565b92915050565b600060208284031215611ae857611ae76119be565b5b6000611af6848285016119e9565b91505092915050565b611b08816119c8565b82525050565b600081519050919050565b600082825260208201905092915050565b60005b83811015611b48578082015181840152602081019050611b2d565b83811115611b57576000848401525b50505050565b6000601f19601f8301169050919050565b6000611b7982611b0e565b611b838185611b19565b9350611b93818560208601611b2a565b611b9c81611b5d565b840191505092915050565b6000611bb2826119fe565b9050919050565b611bc281611ba7565b82525050565b600081519050919050565b600082825260208201905092915050565b6000819050602082019050919050565b611bfd81611a1e565b82525050565b6000611c0f8383611bf4565b60208301905092915050565b6000602082019050919050565b6000611c3382611bc8565b611c3d8185611bd3565b9350611c4883611be4565b8060005b83811015611c79578151611c608882611c03565b9750611c6b83611c1b565b925050600181019050611c4c565b5085935050505092915050565b60006060830160008301518482036000860152611ca38282611b6e565b9150506020830151611cb86020860182611bb9565b5060408301518482036040860152611cd08282611c28565b9150508091505092915050565b7f4e487b7100000000000000000000000000000000000000000000000000000000600052602160045260246000fd5b60048110611d1d57611d1c611cdd565b5b50565b6000819050611d2e82611d0c565b919050565b6000611d3e82611d20565b9050919050565b611d4e81611d33565b82525050565b600060a082019050611d696000830188611aff565b611d766020830187611aff565b8181036040830152611d888186611c86565b9050611d976060830185611d45565b611da46080830184611aff565b9695505050505050565b600081519050919050565b600082825260208201905092915050565b6000819050602082019050919050565b611de3816119c8565b82525050565b60006060830160008301518482036000860152611e068282611b6e565b9150506020830151611e1b6020860182611bb9565b5060408301518482036040860152611e338282611c28565b9150508091505092915050565b611e4981611d33565b82525050565b600060a083016000830151611e676000860182611dda565b506020830151611e7a6020860182611dda565b5060408301518482036040860152611e928282611de9565b9150506060830151611ea76060860182611e40565b506080830151611eba6080860182611dda565b508091505092915050565b6000611ed18383611e4f565b905092915050565b6000602082019050919050565b6000611ef182611dae565b611efb8185611db9565b935083602082028501611f0d85611dca565b8060005b85811015611f495784840389528151611f2a8582611ec5565b9450611f3583611ed9565b925060208a01995050600181019050611f11565b50829750879550505050505092915050565b60006020820190508181036000830152611f758184611ee6565b905092915050565b6000602082019050611f926000830184611aff565b92915050565b600080fd5b7f4e487b7100000000000000000000000000000000000000000000000000000000600052604160045260246000fd5b611fd582611b5d565b810181811067ffffffffffffffff82111715611ff457611ff3611f9d565b5b80604052505050565b60006120076119b4565b90506120138282611fcc565b919050565b600067ffffffffffffffff82111561203357612032611f9d565b5b602082029050602081019050919050565b600080fd5b600061205c61205784612018565b611ffd565b9050808382526020820190506020840283018581111561207f5761207e612044565b5b835b818110156120a8578061209488826119e9565b845260208401935050602081019050612081565b5050509392505050565b600082601f8301126120c7576120c6611f98565b5b81356120d7848260208601612049565b91505092915050565b6000602082840312156120f6576120f56119be565b5b600082013567ffffffffffffffff811115612114576121136119c3565b5b612120848285016120b2565b91505092915050565b61213281611a9c565b811461213d57600080fd5b50565b60008135905061214f81612129565b92915050565b60008060006060848603121561216e5761216d6119be565b5b600061217c868287016119e9565b935050602061218d868287016119e9565b925050604061219e86828701612140565b9150509250925092565b600060a0830160008301516121c06000860182611dda565b5060208301516121d36020860182611dda565b50604083015184820360408601526121eb8282611de9565b91505060608301516122006060860182611e40565b5060808301516122136080860182611dda565b508091505092915050565b6000602082019050818103600083015261223881846121a8565b905092915050565b600080fd5b60006060828403121561225b5761225a612240565b5b81905092915050565b6000806040838503121561227b5761227a6119be565b5b6000612289858286016119e9565b925050602083013567ffffffffffffffff8111156122aa576122a96119c3565b5b6122b685828601612245565b9150509250929050565b7f4e487b7100000000000000000000000000000000000000000000000000000000600052603260045260246000fd5b7f4e487b7100000000000000000000000000000000000000000000000000000000600052601160045260246000fd5b6000612329826119c8565b91507fffffffffffffffffffffffffffffffffffffffffffffffffffffffffffffffff82141561235c5761235b6122ef565b5b600182019050919050565b7f4e487b7100000000000000000000000000000000000000000000000000000000600052602260045260246000fd5b600060028204905060018216806123ae57607f821691505b602082108114156123c2576123c1612367565b5b50919050565b6123d181611a1e565b82525050565b60006040820190506123ec6000830185611aff565b6123f960208301846123c8565b9392505050565b60008151905061240f81612129565b92915050565b60006020828403121561242b5761242a6119be565b5b600061243984828501612400565b91505092915050565b600082825260208201905092915050565b7f6f6e6c7920636f6e74657374206f776e65720000000000000000000000000000600082015250565b6000612489601283612442565b915061249482612453565b602082019050919050565b600060208201905081810360008301526124b88161247c565b9050919050565b7f77726f6e67207465616d20737461746500000000000000000000000000000000600082015250565b60006124f5601083612442565b9150612500826124bf565b602082019050919050565b60006020820190508181036000830152612524816124e8565b9050919050565b600081519050919050565b600082825260208201905092915050565b6000819050602082019050919050565b60006125638383611dda565b60208301905092915050565b6000602082019050919050565b60006125878261252b565b6125918185612536565b935061259c83612547565b8060005b838110156125cd5781516125b48882612557565b97506125bf8361256f565b9250506001810190506125a0565b5085935050505092915050565b600060208201905081810360008301526125f4818461257c565b905092915050565b600067ffffffffffffffff82111561261757612616611f9d565b5b602082029050602081019050919050565b600080fd5b600080fd5b600081519050612641816119d2565b92915050565b600080fd5b600067ffffffffffffffff82111561266757612666611f9d565b5b61267082611b5d565b9050602081019050919050565b600061269061268b8461264c565b611ffd565b9050828152602081018484840111156126ac576126ab612647565b5b6126b7848285611b2a565b509392505050565b600082601f8301126126d4576126d3611f98565b5b81516126e484826020860161267d565b91505092915050565b600060c0828403121561270357612702612628565b5b61270d60c0611ffd565b9050600082015167ffffffffffffffff81111561272d5761272c61262d565b5b612739848285016126bf565b600083015250602082015167ffffffffffffffff81111561275d5761275c61262d565b5b612769848285016126bf565b602083015250604061277d84828501612632565b604083015250606061279184828501612632565b60608301525060806127a584828501612632565b60808301525060a082015167ffffffffffffffff8111156127c9576127c861262d565b5b6127d5848285016126bf565b60a08301525092915050565b6000815190506127f081611a30565b92915050565b6004811061280357600080fd5b50565b600081519050612815816127f6565b92915050565b600060a0828403121561283157612830612628565b5b61283b60a0611ffd565b9050600061284b84828501612632565b600083015250602082015167ffffffffffffffff81111561286f5761286e61262d565b5b61287b848285016126ed565b602083015250604061288f848285016127e1565b60408301525060606128a384828501612806565b60608301525060806128b784828501612632565b60808301525092915050565b60006128d66128d1846125fc565b611ffd565b905080838252602082019050602084028301858111156128f9576128f8612044565b5b835b8181101561294057805167ffffffffffffffff81111561291e5761291d611f98565b5b80860161292b898261281b565b855260208501945050506020810190506128fb565b5050509392505050565b600082601f83011261295f5761295e611f98565b5b815161296f8482602086016128c3565b91505092915050565b60006020828403121561298e5761298d6119be565b5b600082015167ffffffffffffffff8111156129ac576129ab6119c3565b5b6129b88482850161294a565b91505092915050565b7f6f6e6c7920636f6e746573742065786973740000000000000000000000000000600082015250565b60006129f7601283612442565b9150612a02826129c1565b602082019050919050565b60006020820190508181036000830152612a26816129ea565b9050919050565b7f6e6f74207175616c696669656420636f6e746573742066656500000000000000600082015250565b6000612a63601983612442565b9150612a6e82612a2d565b602082019050919050565b60006020820190508181036000830152612a9281612a56565b9050919050565b612aa281611ba7565b8114612aad57600080fd5b50565b600081359050612abf81612a99565b92915050565b600060208284031215612adb57612ada6119be565b5b6000612ae984828501612ab0565b91505092915050565b600080fd5b600080fd5b600080fd5b60008083356001602003843603038112612b1e57612b1d612af2565b5b80840192508235915067ffffffffffffffff821115612b4057612b3f612af7565b5b602083019250602082023603831315612b5c57612b5b612afc565b5b509250929050565b600060208284031215612b7a57612b796119be565b5b6000612b8884828501611a47565b91505092915050565b82818337600083830152505050565b6000612bb3612bae8461264c565b611ffd565b905082815260208101848484011115612bcf57612bce612647565b5b612bda848285612b91565b509392505050565b600082601f830112612bf757612bf6611f98565b5b8135612c07848260208601612ba0565b91505092915050565b600067ffffffffffffffff821115612c2b57612c2a611f9d565b5b602082029050602081019050919050565b6000612c4f612c4a84612c10565b611ffd565b90508083825260208201905060208402830185811115612c7257612c71612044565b5b835b81811015612c9b5780612c878882611a47565b845260208401935050602081019050612c74565b5050509392505050565b600082601f830112612cba57612cb9611f98565b5b8135612cca848260208601612c3c565b91505092915050565b600060608284031215612ce957612ce8612628565b5b612cf36060611ffd565b9050600082013567ffffffffffffffff811115612d1357612d1261262d565b5b612d1f84828501612be2565b6000830152506020612d3384828501612ab0565b602083015250604082013567ffffffffffffffff811115612d5757612d5661262d565b5b612d6384828501612ca5565b60408301525092915050565b6000612d7b3683612cd3565b905091905056fea26469706673582212208c9d494c5201fe4ebb06e3d3c725ae7bcc4ba21737de3f96b7567948019d111b64736f6c634300080a0033",
  "immutableReferences": {},
  "source": "// SPDX-License-Identifier: MIT\npragma solidity ^0.8.10;\npragma experimental ABIEncoderV2;\n\nimport \"@openzeppelin/contracts/access/IAccessControl.sol\";\nimport \"@openzeppelin/contracts/utils/structs/EnumerableSet.sol\";\nimport \"./ITeams.sol\";\nimport \"./IContests.sol\";\n\ncontract Teams is ITeams {\n    using EnumerableSet for EnumerableSet.UintSet;\n\n    IContests Contests;\n\n    constructor(address _Contests) {\n        Contests = IContests(_Contests);\n    }\n\n    //ContestId => TeamIds\n    EnumerableSet.UintSet ids;\n    //TeamId => Team\n    mapping(uint => Team) public teams;\n    uint public nextId = 1;\n    mapping(uint => mapping(address => uint)) addressToTeamId;\n    mapping(uint => EnumerableSet.UintSet) contestTeams;\n\n    function _gets(uint [] memory _ids) internal view returns (Team [] memory) {\n        uint number = _ids.length;\n        Team [] memory result = new Team [](number);\n        for (uint i = 0; i < number; i++) {\n            result[i] = teams[_ids[i]];\n        }\n        return result;\n    }\n\n    function _add(uint contestId, ITeam calldata team) internal returns (uint) {\n        uint id = nextId;\n        ids.add(id);\n        teams[id] = Team(id, contestId, team, TeamState.APPLIED, block.timestamp);\n        nextId++;\n        return id;\n    }\n\n    function applyContest(uint contestId, ITeam calldata team) external payable\n    onlyContestExist(contestId) {\n        uint [] memory _ids = new uint [] (1);\n        _ids[0] = contestId;\n        IContests.Contest memory contest = Contests.getSome(_ids)[0];\n        require(msg.value == contest.contestInfo.fee, \"not qualified contest fee\");\n        addressToTeamId[contestId][team.captain] = nextId;\n        for (uint i = 0; i < team.members.length; i++) {\n            addressToTeamId[contestId][team.members[i]] = nextId;\n        }\n        contestTeams[contestId].add(_add(contestId, team));\n    }\n\n    function auditTeam(uint contestId, uint teamId, bool result) external\n    onlyContestOwner(contestId) {\n        require(teams[teamId].state == ITeams.TeamState.APPLIED, \"wrong team state\");\n        if (result == true) {\n            teams[teamId].state = ITeams.TeamState.APPROVED;\n            return;\n        }\n        uint [] memory _ids = new uint [] (1);\n        _ids[0] = contestId;\n        IContests.Contest memory contest = Contests.getSome(_ids)[0];\n        teams[teamId].state = ITeams.TeamState.REJECTED;\n        teams[teamId].teamInfo.captain.transfer(contest.contestInfo.fee);\n    }\n\n    function isTeamMember(uint teamId, address account) external view returns(bool) {\n        if(teams[teamId].teamInfo.captain == account) return true;\n        for (uint i = 0; i < teams[teamId].teamInfo.members.length; i++) {\n            if(teams[teamId].teamInfo.members[i] == account) return true;\n        }\n        return false;\n    }\n\n    function getAll() external view returns (Team [] memory) {\n        return _gets(ids.values());\n    }\n\n    function getSome(uint [] memory _ids) external view returns (Team [] memory) {\n        return _gets(_ids);\n    }\n\n    function gets(uint contestId) external view returns (Team [] memory) {\n        return _gets(contestTeams[contestId].values());\n    }\n\n    function getOne(uint contestId, address account) external view returns (Team memory) {\n        return teams[addressToTeamId[contestId][account]];\n    }\n\n    function getCount() external view returns (uint) {\n        return ids.length();\n    }\n\n    function get(uint index) external view returns (Team memory) {\n        return teams[ids.at(index)];\n    }\n\n    modifier onlyTeamExist(uint id){\n        require(ids.contains(id), \"team does not exist\");\n        _;\n    }\n\n    modifier onlyContestOwner(uint contestId){\n        require(Contests.isOwner(contestId, msg.sender), \"only contest owner\");\n        _;\n    }\n\n    modifier onlyContestExist(uint contestId){\n        require(Contests.Exist(contestId), \"only contest exist\");\n        _;\n    }\n}",
  "sourcePath": "/Users/yhy/Code/GitHub/DCTF/contracts/Teams.sol",
  "compiler": {
    "name": "solc",
    "version": "0.8.10+commit.fc410830.Emscripten.clang"
  },
  "schemaVersion": "3.4.4",
  "updatedAt": "2022-02-14T05:54:43.544Z",
  "networkType": "ethereum",
  "devdoc": {
    "kind": "dev",
    "methods": {},
    "version": 1
  },
  "userdoc": {
    "kind": "user",
    "methods": {},
    "version": 1
  }
}