{
  "contractName": "Teams",
  "abi": [
    {
      "inputs": [
        {
          "internalType": "address",
          "name": "_Contests",
          "type": "address"
        }
      ],
      "stateMutability": "nonpayable",
      "type": "constructor"
    },
    {
      "inputs": [
        {
          "internalType": "uint256",
          "name": "",
          "type": "uint256"
        },
        {
          "internalType": "address",
          "name": "",
          "type": "address"
        }
      ],
      "name": "addressToTeamId",
      "outputs": [
        {
          "internalType": "uint256",
          "name": "",
          "type": "uint256"
        }
      ],
      "stateMutability": "view",
      "type": "function",
      "constant": true
    },
    {
      "inputs": [],
      "name": "nextId",
      "outputs": [
        {
          "internalType": "uint256",
          "name": "",
          "type": "uint256"
        }
      ],
      "stateMutability": "view",
      "type": "function",
      "constant": true
    },
    {
      "inputs": [
        {
          "internalType": "uint256",
          "name": "",
          "type": "uint256"
        }
      ],
      "name": "teams",
      "outputs": [
        {
          "internalType": "uint256",
          "name": "id",
          "type": "uint256"
        },
        {
          "internalType": "uint256",
          "name": "contestId",
          "type": "uint256"
        },
        {
          "components": [
            {
              "internalType": "string",
              "name": "name",
              "type": "string"
            },
            {
              "internalType": "address payable",
              "name": "captain",
              "type": "address"
            },
            {
              "internalType": "address[]",
              "name": "members",
              "type": "address[]"
            }
          ],
          "internalType": "struct ITeams.ITeam",
          "name": "info",
          "type": "tuple"
        },
        {
          "internalType": "enum ITeams.TeamState",
          "name": "state",
          "type": "uint8"
        },
        {
          "internalType": "uint256",
          "name": "score",
          "type": "uint256"
        },
        {
          "internalType": "uint256",
          "name": "timeStamp",
          "type": "uint256"
        }
      ],
      "stateMutability": "view",
      "type": "function",
      "constant": true
    },
    {
      "inputs": [
        {
          "internalType": "uint256",
          "name": "contestId",
          "type": "uint256"
        },
        {
          "components": [
            {
              "internalType": "string",
              "name": "name",
              "type": "string"
            },
            {
              "internalType": "address payable",
              "name": "captain",
              "type": "address"
            },
            {
              "internalType": "address[]",
              "name": "members",
              "type": "address[]"
            }
          ],
          "internalType": "struct ITeams.ITeam",
          "name": "team",
          "type": "tuple"
        }
      ],
      "name": "applyContest",
      "outputs": [],
      "stateMutability": "payable",
      "type": "function",
      "payable": true
    },
    {
      "inputs": [
        {
          "internalType": "uint256",
          "name": "contestId",
          "type": "uint256"
        },
        {
          "internalType": "uint256",
          "name": "teamId",
          "type": "uint256"
        },
        {
          "internalType": "bool",
          "name": "result",
          "type": "bool"
        }
      ],
      "name": "auditTeam",
      "outputs": [],
      "stateMutability": "nonpayable",
      "type": "function"
    },
    {
      "inputs": [
        {
          "internalType": "uint256",
          "name": "contestId",
          "type": "uint256"
        },
        {
          "internalType": "uint256[]",
          "name": "teamIds",
          "type": "uint256[]"
        },
        {
          "internalType": "uint256[]",
          "name": "scores",
          "type": "uint256[]"
        }
      ],
      "name": "updateScore",
      "outputs": [],
      "stateMutability": "nonpayable",
      "type": "function"
    },
    {
      "inputs": [
        {
          "internalType": "uint256",
          "name": "teamId",
          "type": "uint256"
        },
        {
          "internalType": "address",
          "name": "account",
          "type": "address"
        }
      ],
      "name": "isTeamMember",
      "outputs": [
        {
          "internalType": "bool",
          "name": "",
          "type": "bool"
        }
      ],
      "stateMutability": "view",
      "type": "function",
      "constant": true
    },
    {
      "inputs": [],
      "name": "getApply",
      "outputs": [
        {
          "internalType": "uint256[]",
          "name": "",
          "type": "uint256[]"
        }
      ],
      "stateMutability": "view",
      "type": "function",
      "constant": true
    },
    {
      "inputs": [],
      "name": "getAll",
      "outputs": [
        {
          "components": [
            {
              "internalType": "uint256",
              "name": "id",
              "type": "uint256"
            },
            {
              "internalType": "uint256",
              "name": "contestId",
              "type": "uint256"
            },
            {
              "components": [
                {
                  "internalType": "string",
                  "name": "name",
                  "type": "string"
                },
                {
                  "internalType": "address payable",
                  "name": "captain",
                  "type": "address"
                },
                {
                  "internalType": "address[]",
                  "name": "members",
                  "type": "address[]"
                }
              ],
              "internalType": "struct ITeams.ITeam",
              "name": "info",
              "type": "tuple"
            },
            {
              "internalType": "enum ITeams.TeamState",
              "name": "state",
              "type": "uint8"
            },
            {
              "internalType": "uint256",
              "name": "score",
              "type": "uint256"
            },
            {
              "internalType": "uint256",
              "name": "timeStamp",
              "type": "uint256"
            }
          ],
          "internalType": "struct ITeams.Team[]",
          "name": "",
          "type": "tuple[]"
        }
      ],
      "stateMutability": "view",
      "type": "function",
      "constant": true
    },
    {
      "inputs": [
        {
          "internalType": "uint256[]",
          "name": "_ids",
          "type": "uint256[]"
        }
      ],
      "name": "getSome",
      "outputs": [
        {
          "components": [
            {
              "internalType": "uint256",
              "name": "id",
              "type": "uint256"
            },
            {
              "internalType": "uint256",
              "name": "contestId",
              "type": "uint256"
            },
            {
              "components": [
                {
                  "internalType": "string",
                  "name": "name",
                  "type": "string"
                },
                {
                  "internalType": "address payable",
                  "name": "captain",
                  "type": "address"
                },
                {
                  "internalType": "address[]",
                  "name": "members",
                  "type": "address[]"
                }
              ],
              "internalType": "struct ITeams.ITeam",
              "name": "info",
              "type": "tuple"
            },
            {
              "internalType": "enum ITeams.TeamState",
              "name": "state",
              "type": "uint8"
            },
            {
              "internalType": "uint256",
              "name": "score",
              "type": "uint256"
            },
            {
              "internalType": "uint256",
              "name": "timeStamp",
              "type": "uint256"
            }
          ],
          "internalType": "struct ITeams.Team[]",
          "name": "",
          "type": "tuple[]"
        }
      ],
      "stateMutability": "view",
      "type": "function",
      "constant": true
    },
    {
      "inputs": [
        {
          "internalType": "uint256",
          "name": "contestId",
          "type": "uint256"
        }
      ],
      "name": "gets",
      "outputs": [
        {
          "components": [
            {
              "internalType": "uint256",
              "name": "id",
              "type": "uint256"
            },
            {
              "internalType": "uint256",
              "name": "contestId",
              "type": "uint256"
            },
            {
              "components": [
                {
                  "internalType": "string",
                  "name": "name",
                  "type": "string"
                },
                {
                  "internalType": "address payable",
                  "name": "captain",
                  "type": "address"
                },
                {
                  "internalType": "address[]",
                  "name": "members",
                  "type": "address[]"
                }
              ],
              "internalType": "struct ITeams.ITeam",
              "name": "info",
              "type": "tuple"
            },
            {
              "internalType": "enum ITeams.TeamState",
              "name": "state",
              "type": "uint8"
            },
            {
              "internalType": "uint256",
              "name": "score",
              "type": "uint256"
            },
            {
              "internalType": "uint256",
              "name": "timeStamp",
              "type": "uint256"
            }
          ],
          "internalType": "struct ITeams.Team[]",
          "name": "",
          "type": "tuple[]"
        }
      ],
      "stateMutability": "view",
      "type": "function",
      "constant": true
    },
    {
      "inputs": [
        {
          "internalType": "uint256",
          "name": "contestId",
          "type": "uint256"
        }
      ],
      "name": "getsId",
      "outputs": [
        {
          "internalType": "uint256[]",
          "name": "",
          "type": "uint256[]"
        }
      ],
      "stateMutability": "view",
      "type": "function",
      "constant": true
    },
    {
      "inputs": [
        {
          "internalType": "uint256",
          "name": "contestId",
          "type": "uint256"
        },
        {
          "internalType": "address",
          "name": "account",
          "type": "address"
        }
      ],
      "name": "getOne",
      "outputs": [
        {
          "components": [
            {
              "internalType": "uint256",
              "name": "id",
              "type": "uint256"
            },
            {
              "internalType": "uint256",
              "name": "contestId",
              "type": "uint256"
            },
            {
              "components": [
                {
                  "internalType": "string",
                  "name": "name",
                  "type": "string"
                },
                {
                  "internalType": "address payable",
                  "name": "captain",
                  "type": "address"
                },
                {
                  "internalType": "address[]",
                  "name": "members",
                  "type": "address[]"
                }
              ],
              "internalType": "struct ITeams.ITeam",
              "name": "info",
              "type": "tuple"
            },
            {
              "internalType": "enum ITeams.TeamState",
              "name": "state",
              "type": "uint8"
            },
            {
              "internalType": "uint256",
              "name": "score",
              "type": "uint256"
            },
            {
              "internalType": "uint256",
              "name": "timeStamp",
              "type": "uint256"
            }
          ],
          "internalType": "struct ITeams.Team",
          "name": "",
          "type": "tuple"
        }
      ],
      "stateMutability": "view",
      "type": "function",
      "constant": true
    },
    {
      "inputs": [],
      "name": "getCount",
      "outputs": [
        {
          "internalType": "uint256",
          "name": "",
          "type": "uint256"
        }
      ],
      "stateMutability": "view",
      "type": "function",
      "constant": true
    },
    {
      "inputs": [
        {
          "internalType": "uint256",
          "name": "index",
          "type": "uint256"
        }
      ],
      "name": "get",
      "outputs": [
        {
          "components": [
            {
              "internalType": "uint256",
              "name": "id",
              "type": "uint256"
            },
            {
              "internalType": "uint256",
              "name": "contestId",
              "type": "uint256"
            },
            {
              "components": [
                {
                  "internalType": "string",
                  "name": "name",
                  "type": "string"
                },
                {
                  "internalType": "address payable",
                  "name": "captain",
                  "type": "address"
                },
                {
                  "internalType": "address[]",
                  "name": "members",
                  "type": "address[]"
                }
              ],
              "internalType": "struct ITeams.ITeam",
              "name": "info",
              "type": "tuple"
            },
            {
              "internalType": "enum ITeams.TeamState",
              "name": "state",
              "type": "uint8"
            },
            {
              "internalType": "uint256",
              "name": "score",
              "type": "uint256"
            },
            {
              "internalType": "uint256",
              "name": "timeStamp",
              "type": "uint256"
            }
          ],
          "internalType": "struct ITeams.Team",
          "name": "",
          "type": "tuple"
        }
      ],
      "stateMutability": "view",
      "type": "function",
      "constant": true
    }
  ],
  "bytecode": "0x608060405260016004553480156200001657600080fd5b506040516200386c3803806200386c83398181016040528101906200003c9190620000ed565b806000806101000a81548173ffffffffffffffffffffffffffffffffffffffff021916908373ffffffffffffffffffffffffffffffffffffffff160217905550506200011f565b600080fd5b600073ffffffffffffffffffffffffffffffffffffffff82169050919050565b6000620000b58262000088565b9050919050565b620000c781620000a8565b8114620000d357600080fd5b50565b600081519050620000e781620000bc565b92915050565b60006020828403121562000106576200010562000083565b5b60006200011684828501620000d6565b91505092915050565b61373d806200012f6000396000f3fe6080604052600436106100e85760003560e01c8063879c04ce1161008a578063b1d6046d11610059578063b1d6046d14610321578063d30f3f481461033d578063ef0a96271461037a578063f640a006146103b7576100e8565b8063879c04ce146102535780639507d39a1461027c57806397b270fd146102b9578063a87d942c146102f6576100e8565b806353ed5143116100c657806353ed51431461019557806361b8ce8c146101c05780637bca13d5146101eb5780638324180314610216576100e8565b806301738281146100ed57806307a760b91461012a5780633ed2b77a14610153575b600080fd5b3480156100f957600080fd5b50610114600480360381019061010f9190612121565b6103f4565b604051610121919061217c565b60405180910390f35b34801561013657600080fd5b50610151600480360381019061014c91906122f0565b610545565b005b34801561015f57600080fd5b5061017a6004803603810190610175919061237b565b610753565b60405161018c969594939291906125ec565b60405180910390f35b3480156101a157600080fd5b506101aa61091c565b6040516101b79190612814565b60405180910390f35b3480156101cc57600080fd5b506101d5610935565b6040516101e29190612836565b60405180910390f35b3480156101f757600080fd5b5061020061093b565b60405161020d9190612900565b60405180910390f35b34801561022257600080fd5b5061023d60048036038101906102389190612922565b610989565b60405161024a9190612814565b60405180910390f35b34801561025f57600080fd5b5061027a60048036038101906102759190612997565b61099b565b005b34801561028857600080fd5b506102a3600480360381019061029e919061237b565b610e31565b6040516102b09190612a73565b60405180910390f35b3480156102c557600080fd5b506102e060048036038101906102db9190612121565b61105e565b6040516102ed9190612a73565b60405180910390f35b34801561030257600080fd5b5061030b6112c9565b6040516103189190612836565b60405180910390f35b61033b60048036038101906103369190612ab9565b6112da565b005b34801561034957600080fd5b50610364600480360381019061035f919061237b565b611854565b6040516103719190612814565b60405180910390f35b34801561038657600080fd5b506103a1600480360381019061039c9190612121565b611880565b6040516103ae9190612836565b60405180910390f35b3480156103c357600080fd5b506103de60048036038101906103d9919061237b565b6118a5565b6040516103eb9190612900565b60405180910390f35b60008173ffffffffffffffffffffffffffffffffffffffff166003600085815260200190815260200160002060020160010160009054906101000a900473ffffffffffffffffffffffffffffffffffffffff1673ffffffffffffffffffffffffffffffffffffffff16141561046c576001905061053f565b60005b6003600085815260200190815260200160002060020160020180549050811015610539578273ffffffffffffffffffffffffffffffffffffffff166003600086815260200190815260200160002060020160020182815481106104d5576104d4612b15565b5b9060005260206000200160009054906101000a900473ffffffffffffffffffffffffffffffffffffffff1673ffffffffffffffffffffffffffffffffffffffff16141561052657600191505061053f565b808061053190612b73565b91505061046f565b50600090505b92915050565b8260008054906101000a900473ffffffffffffffffffffffffffffffffffffffff1673ffffffffffffffffffffffffffffffffffffffff16635a5d096c82336040518363ffffffff1660e01b81526004016105a1929190612bcb565b602060405180830381865afa1580156105be573d6000803e3d6000fd5b505050506040513d601f19601f820116820180604052508101906105e29190612c09565b610621576040517f08c379a000000000000000000000000000000000000000000000000000000000815260040161061890612c93565b60405180910390fd5b8151835114610665576040517f08c379a000000000000000000000000000000000000000000000000000000000815260040161065c90612d25565b60405180910390fd5b60005b835181101561074c576106b084828151811061068757610686612b15565b5b6020026020010151600660008881526020019081526020016000206118c990919063ffffffff16565b6106ef576040517f08c379a00000000000000000000000000000000000000000000000000000000081526004016106e690612db7565b60405180910390fd5b82818151811061070257610701612b15565b5b60200260200101516003600086848151811061072157610720612b15565b5b602002602001015181526020019081526020016000205050808061074490612b73565b915050610668565b5050505050565b60036020528060005260406000206000915090508060000154908060010154908060020160405180606001604052908160008201805461079290612e06565b80601f01602080910402602001604051908101604052809291908181526020018280546107be90612e06565b801561080b5780601f106107e05761010080835404028352916020019161080b565b820191906000526020600020905b8154815290600101906020018083116107ee57829003601f168201915b505050505081526020016001820160009054906101000a900473ffffffffffffffffffffffffffffffffffffffff1673ffffffffffffffffffffffffffffffffffffffff1673ffffffffffffffffffffffffffffffffffffffff168152602001600282018054806020026020016040519081016040528092919081815260200182805480156108ef57602002820191906000526020600020905b8160009054906101000a900473ffffffffffffffffffffffffffffffffffffffff1673ffffffffffffffffffffffffffffffffffffffff16815260200190600101908083116108a5575b505050505081525050908060050160009054906101000a900460ff16908060060154908060070154905086565b606061093061092b60016118e3565b611904565b905090565b60045481565b6060610984600760003373ffffffffffffffffffffffffffffffffffffffff1673ffffffffffffffffffffffffffffffffffffffff1681526020019081526020016000206118e3565b905090565b606061099482611904565b9050919050565b8260008054906101000a900473ffffffffffffffffffffffffffffffffffffffff1673ffffffffffffffffffffffffffffffffffffffff16635a5d096c82336040518363ffffffff1660e01b81526004016109f7929190612bcb565b602060405180830381865afa158015610a14573d6000803e3d6000fd5b505050506040513d601f19601f82011682018060405250810190610a389190612c09565b610a77576040517f08c379a0000000000000000000000000000000000000000000000000000000008152600401610a6e90612c93565b60405180910390fd5b83600160008054906101000a900473ffffffffffffffffffffffffffffffffffffffff1673ffffffffffffffffffffffffffffffffffffffff1663434e540b83836040518363ffffffff1660e01b8152600401610ad5929190612e80565b6020604051808303816000875af1158015610af4573d6000803e3d6000fd5b505050506040513d601f19601f82011682018060405250810190610b189190612c09565b610b57576040517f08c379a0000000000000000000000000000000000000000000000000000000008152600401610b4e90612ef5565b60405180910390fd5b60016003811115610b6b57610b6a612575565b5b6003600087815260200190815260200160002060050160009054906101000a900460ff166003811115610ba157610ba0612575565b5b14610be1576040517f08c379a0000000000000000000000000000000000000000000000000000000008152600401610bd890612f61565b60405180910390fd5b600115158415151415610c325760026003600087815260200190815260200160002060050160006101000a81548160ff02191690836003811115610c2857610c27612575565b5b0217905550610e29565b6000600167ffffffffffffffff811115610c4f57610c4e6121ad565b5b604051908082528060200260200182016040528015610c7d5781602001602082028036833780820191505090505b5090508681600081518110610c9557610c94612b15565b5b60200260200101818152505060008060009054906101000a900473ffffffffffffffffffffffffffffffffffffffff1673ffffffffffffffffffffffffffffffffffffffff166383241803836040518263ffffffff1660e01b8152600401610cfd9190612900565b600060405180830381865afa158015610d1a573d6000803e3d6000fd5b505050506040513d6000823e3d601f19601f82011682018060405250810190610d4391906132fd565b600081518110610d5657610d55612b15565b5b60200260200101519050600380600089815260200190815260200160002060050160006101000a81548160ff02191690836003811115610d9957610d98612575565b5b02179055506003600088815260200190815260200160002060020160010160009054906101000a900473ffffffffffffffffffffffffffffffffffffffff1673ffffffffffffffffffffffffffffffffffffffff166108fc8260200151604001519081150290604051600060405180830381858888f19350505050158015610e25573d6000803e3d6000fd5b5050505b505050505050565b610e39611ec7565b60036000610e51846001611bd090919063ffffffff16565b81526020019081526020016000206040518060c0016040529081600082015481526020016001820154815260200160028201604051806060016040529081600082018054610e9e90612e06565b80601f0160208091040260200160405190810160405280929190818152602001828054610eca90612e06565b8015610f175780601f10610eec57610100808354040283529160200191610f17565b820191906000526020600020905b815481529060010190602001808311610efa57829003601f168201915b505050505081526020016001820160009054906101000a900473ffffffffffffffffffffffffffffffffffffffff1673ffffffffffffffffffffffffffffffffffffffff1673ffffffffffffffffffffffffffffffffffffffff16815260200160028201805480602002602001604051908101604052809291908181526020018280548015610ffb57602002820191906000526020600020905b8160009054906101000a900473ffffffffffffffffffffffffffffffffffffffff1673ffffffffffffffffffffffffffffffffffffffff1681526020019060010190808311610fb1575b50505050508152505081526020016005820160009054906101000a900460ff16600381111561102d5761102c612575565b5b600381111561103f5761103e612575565b5b8152602001600682015481526020016007820154815250509050919050565b611066611ec7565b600360006005600086815260200190815260200160002060008573ffffffffffffffffffffffffffffffffffffffff1673ffffffffffffffffffffffffffffffffffffffff1681526020019081526020016000205481526020019081526020016000206040518060c001604052908160008201548152602001600182015481526020016002820160405180606001604052908160008201805461110890612e06565b80601f016020809104026020016040519081016040528092919081815260200182805461113490612e06565b80156111815780601f1061115657610100808354040283529160200191611181565b820191906000526020600020905b81548152906001019060200180831161116457829003601f168201915b505050505081526020016001820160009054906101000a900473ffffffffffffffffffffffffffffffffffffffff1673ffffffffffffffffffffffffffffffffffffffff1673ffffffffffffffffffffffffffffffffffffffff1681526020016002820180548060200260200160405190810160405280929190818152602001828054801561126557602002820191906000526020600020905b8160009054906101000a900473ffffffffffffffffffffffffffffffffffffffff1673ffffffffffffffffffffffffffffffffffffffff168152602001906001019080831161121b575b50505050508152505081526020016005820160009054906101000a900460ff16600381111561129757611296612575565b5b60038111156112a9576112a8612575565b5b815260200160068201548152602001600782015481525050905092915050565b60006112d56001611bea565b905090565b8160008054906101000a900473ffffffffffffffffffffffffffffffffffffffff1673ffffffffffffffffffffffffffffffffffffffff1663e4dc1491826040518263ffffffff1660e01b81526004016113349190612836565b602060405180830381865afa158015611351573d6000803e3d6000fd5b505050506040513d601f19601f820116820180604052508101906113759190612c09565b6113b4576040517f08c379a00000000000000000000000000000000000000000000000000000000081526004016113ab90613392565b60405180910390fd5b82600160008054906101000a900473ffffffffffffffffffffffffffffffffffffffff1673ffffffffffffffffffffffffffffffffffffffff1663434e540b83836040518363ffffffff1660e01b8152600401611412929190612e80565b6020604051808303816000875af1158015611431573d6000803e3d6000fd5b505050506040513d601f19601f820116820180604052508101906114559190612c09565b611494576040517f08c379a000000000000000000000000000000000000000000000000000000000815260040161148b90612ef5565b60405180910390fd5b6000600167ffffffffffffffff8111156114b1576114b06121ad565b5b6040519080825280602002602001820160405280156114df5781602001602082028036833780820191505090505b50905085816000815181106114f7576114f6612b15565b5b60200260200101818152505060008060009054906101000a900473ffffffffffffffffffffffffffffffffffffffff1673ffffffffffffffffffffffffffffffffffffffff166383241803836040518263ffffffff1660e01b815260040161155f9190612900565b600060405180830381865afa15801561157c573d6000803e3d6000fd5b505050506040513d6000823e3d601f19601f820116820180604052508101906115a591906132fd565b6000815181106115b8576115b7612b15565b5b60200260200101519050806020015160400151341461160c576040517f08c379a0000000000000000000000000000000000000000000000000000000008152600401611603906133fe565b60405180910390fd5b600454600560008981526020019081526020016000206000886020016020810190611637919061344a565b73ffffffffffffffffffffffffffffffffffffffff1673ffffffffffffffffffffffffffffffffffffffff168152602001908152602001600020819055506116d88760076000896020016020810190611690919061344a565b73ffffffffffffffffffffffffffffffffffffffff1673ffffffffffffffffffffffffffffffffffffffff168152602001908152602001600020611bff90919063ffffffff16565b5060005b8680604001906116ec9190613486565b905081101561181b57600454600560008a8152602001908152602001600020600089806040019061171d9190613486565b8581811061172e5761172d612b15565b5b905060200201602081019061174391906134e9565b73ffffffffffffffffffffffffffffffffffffffff1673ffffffffffffffffffffffffffffffffffffffff1681526020019081526020016000208190555061180788600760008a80604001906117999190613486565b868181106117aa576117a9612b15565b5b90506020020160208101906117bf91906134e9565b73ffffffffffffffffffffffffffffffffffffffff1673ffffffffffffffffffffffffffffffffffffffff168152602001908152602001600020611bff90919063ffffffff16565b50808061181390612b73565b9150506116dc565b5061184a6118298888611c19565b600660008a8152602001908152602001600020611bff90919063ffffffff16565b5050505050505050565b6060611879611874600660008581526020019081526020016000206118e3565b611904565b9050919050565b6005602052816000526040600020602052806000526040600020600091509150505481565b60606118c2600660008481526020019081526020016000206118e3565b9050919050565b60006118db836000018360001b611d9c565b905092915050565b606060006118f383600001611dbf565b905060608190508092505050919050565b606060008251905060008167ffffffffffffffff811115611928576119276121ad565b5b60405190808252806020026020018201604052801561196157816020015b61194e611ec7565b8152602001906001900390816119465790505b50905060005b82811015611bc5576003600086838151811061198657611985612b15565b5b602002602001015181526020019081526020016000206040518060c00160405290816000820154815260200160018201548152602001600282016040518060600160405290816000820180546119db90612e06565b80601f0160208091040260200160405190810160405280929190818152602001828054611a0790612e06565b8015611a545780601f10611a2957610100808354040283529160200191611a54565b820191906000526020600020905b815481529060010190602001808311611a3757829003601f168201915b505050505081526020016001820160009054906101000a900473ffffffffffffffffffffffffffffffffffffffff1673ffffffffffffffffffffffffffffffffffffffff1673ffffffffffffffffffffffffffffffffffffffff16815260200160028201805480602002602001604051908101604052809291908181526020018280548015611b3857602002820191906000526020600020905b8160009054906101000a900473ffffffffffffffffffffffffffffffffffffffff1673ffffffffffffffffffffffffffffffffffffffff1681526020019060010190808311611aee575b50505050508152505081526020016005820160009054906101000a900460ff166003811115611b6a57611b69612575565b5b6003811115611b7c57611b7b612575565b5b815260200160068201548152602001600782015481525050828281518110611ba757611ba6612b15565b5b60200260200101819052508080611bbd90612b73565b915050611967565b508092505050919050565b6000611bdf8360000183611e1b565b60001c905092915050565b6000611bf882600001611e46565b9050919050565b6000611c11836000018360001b611e57565b905092915050565b6000806004549050611c35816001611bff90919063ffffffff16565b506040518060c0016040528082815260200185815260200184611c57906136f4565b815260200160016003811115611c7057611c6f612575565b5b815260200160008152602001428152506003600083815260200190815260200160002060008201518160000155602082015181600101556040820151816002016000820151816000019080519060200190611ccc929190611f15565b5060208201518160010160006101000a81548173ffffffffffffffffffffffffffffffffffffffff021916908373ffffffffffffffffffffffffffffffffffffffff1602179055506040820151816002019080519060200190611d30929190611f9b565b50505060608201518160050160006101000a81548160ff02191690836003811115611d5e57611d5d612575565b5b02179055506080820151816006015560a0820151816007015590505060046000815480929190611d8d90612b73565b91905055508091505092915050565b600080836001016000848152602001908152602001600020541415905092915050565b606081600001805480602002602001604051908101604052809291908181526020018280548015611e0f57602002820191906000526020600020905b815481526020019060010190808311611dfb575b50505050509050919050565b6000826000018281548110611e3357611e32612b15565b5b9060005260206000200154905092915050565b600081600001805490509050919050565b6000611e638383611d9c565b611ebc578260000182908060018154018082558091505060019003906000526020600020016000909190919091505582600001805490508360010160008481526020019081526020016000208190555060019050611ec1565b600090505b92915050565b6040518060c001604052806000815260200160008152602001611ee8612025565b815260200160006003811115611f0157611f00612575565b5b815260200160008152602001600081525090565b828054611f2190612e06565b90600052602060002090601f016020900481019282611f435760008555611f8a565b82601f10611f5c57805160ff1916838001178555611f8a565b82800160010185558215611f8a579182015b82811115611f89578251825591602001919060010190611f6e565b5b509050611f97919061205c565b5090565b828054828255906000526020600020908101928215612014579160200282015b828111156120135782518260006101000a81548173ffffffffffffffffffffffffffffffffffffffff021916908373ffffffffffffffffffffffffffffffffffffffff16021790555091602001919060010190611fbb565b5b509050612021919061205c565b5090565b604051806060016040528060608152602001600073ffffffffffffffffffffffffffffffffffffffff168152602001606081525090565b5b8082111561207557600081600090555060010161205d565b5090565b6000604051905090565b600080fd5b600080fd5b6000819050919050565b6120a08161208d565b81146120ab57600080fd5b50565b6000813590506120bd81612097565b92915050565b600073ffffffffffffffffffffffffffffffffffffffff82169050919050565b60006120ee826120c3565b9050919050565b6120fe816120e3565b811461210957600080fd5b50565b60008135905061211b816120f5565b92915050565b6000806040838503121561213857612137612083565b5b6000612146858286016120ae565b92505060206121578582860161210c565b9150509250929050565b60008115159050919050565b61217681612161565b82525050565b6000602082019050612191600083018461216d565b92915050565b600080fd5b6000601f19601f8301169050919050565b7f4e487b7100000000000000000000000000000000000000000000000000000000600052604160045260246000fd5b6121e58261219c565b810181811067ffffffffffffffff82111715612204576122036121ad565b5b80604052505050565b6000612217612079565b905061222382826121dc565b919050565b600067ffffffffffffffff821115612243576122426121ad565b5b602082029050602081019050919050565b600080fd5b600061226c61226784612228565b61220d565b9050808382526020820190506020840283018581111561228f5761228e612254565b5b835b818110156122b857806122a488826120ae565b845260208401935050602081019050612291565b5050509392505050565b600082601f8301126122d7576122d6612197565b5b81356122e7848260208601612259565b91505092915050565b60008060006060848603121561230957612308612083565b5b6000612317868287016120ae565b935050602084013567ffffffffffffffff81111561233857612337612088565b5b612344868287016122c2565b925050604084013567ffffffffffffffff81111561236557612364612088565b5b612371868287016122c2565b9150509250925092565b60006020828403121561239157612390612083565b5b600061239f848285016120ae565b91505092915050565b6123b18161208d565b82525050565b600081519050919050565b600082825260208201905092915050565b60005b838110156123f15780820151818401526020810190506123d6565b83811115612400576000848401525b50505050565b6000612411826123b7565b61241b81856123c2565b935061242b8185602086016123d3565b6124348161219c565b840191505092915050565b600061244a826120c3565b9050919050565b61245a8161243f565b82525050565b600081519050919050565b600082825260208201905092915050565b6000819050602082019050919050565b612495816120e3565b82525050565b60006124a7838361248c565b60208301905092915050565b6000602082019050919050565b60006124cb82612460565b6124d5818561246b565b93506124e08361247c565b8060005b838110156125115781516124f8888261249b565b9750612503836124b3565b9250506001810190506124e4565b5085935050505092915050565b6000606083016000830151848203600086015261253b8282612406565b91505060208301516125506020860182612451565b506040830151848203604086015261256882826124c0565b9150508091505092915050565b7f4e487b7100000000000000000000000000000000000000000000000000000000600052602160045260246000fd5b600481106125b5576125b4612575565b5b50565b60008190506125c6826125a4565b919050565b60006125d6826125b8565b9050919050565b6125e6816125cb565b82525050565b600060c08201905061260160008301896123a8565b61260e60208301886123a8565b8181036040830152612620818761251e565b905061262f60608301866125dd565b61263c60808301856123a8565b61264960a08301846123a8565b979650505050505050565b600081519050919050565b600082825260208201905092915050565b6000819050602082019050919050565b6126898161208d565b82525050565b600060608301600083015184820360008601526126ac8282612406565b91505060208301516126c16020860182612451565b50604083015184820360408601526126d982826124c0565b9150508091505092915050565b6126ef816125cb565b82525050565b600060c08301600083015161270d6000860182612680565b5060208301516127206020860182612680565b5060408301518482036040860152612738828261268f565b915050606083015161274d60608601826126e6565b5060808301516127606080860182612680565b5060a083015161277360a0860182612680565b508091505092915050565b600061278a83836126f5565b905092915050565b6000602082019050919050565b60006127aa82612654565b6127b4818561265f565b9350836020820285016127c685612670565b8060005b8581101561280257848403895281516127e3858261277e565b94506127ee83612792565b925060208a019950506001810190506127ca565b50829750879550505050505092915050565b6000602082019050818103600083015261282e818461279f565b905092915050565b600060208201905061284b60008301846123a8565b92915050565b600081519050919050565b600082825260208201905092915050565b6000819050602082019050919050565b60006128898383612680565b60208301905092915050565b6000602082019050919050565b60006128ad82612851565b6128b7818561285c565b93506128c28361286d565b8060005b838110156128f35781516128da888261287d565b97506128e583612895565b9250506001810190506128c6565b5085935050505092915050565b6000602082019050818103600083015261291a81846128a2565b905092915050565b60006020828403121561293857612937612083565b5b600082013567ffffffffffffffff81111561295657612955612088565b5b612962848285016122c2565b91505092915050565b61297481612161565b811461297f57600080fd5b50565b6000813590506129918161296b565b92915050565b6000806000606084860312156129b0576129af612083565b5b60006129be868287016120ae565b93505060206129cf868287016120ae565b92505060406129e086828701612982565b9150509250925092565b600060c083016000830151612a026000860182612680565b506020830151612a156020860182612680565b5060408301518482036040860152612a2d828261268f565b9150506060830151612a4260608601826126e6565b506080830151612a556080860182612680565b5060a0830151612a6860a0860182612680565b508091505092915050565b60006020820190508181036000830152612a8d81846129ea565b905092915050565b600080fd5b600060608284031215612ab057612aaf612a95565b5b81905092915050565b60008060408385031215612ad057612acf612083565b5b6000612ade858286016120ae565b925050602083013567ffffffffffffffff811115612aff57612afe612088565b5b612b0b85828601612a9a565b9150509250929050565b7f4e487b7100000000000000000000000000000000000000000000000000000000600052603260045260246000fd5b7f4e487b7100000000000000000000000000000000000000000000000000000000600052601160045260246000fd5b6000612b7e8261208d565b91507fffffffffffffffffffffffffffffffffffffffffffffffffffffffffffffffff821415612bb157612bb0612b44565b5b600182019050919050565b612bc5816120e3565b82525050565b6000604082019050612be060008301856123a8565b612bed6020830184612bbc565b9392505050565b600081519050612c038161296b565b92915050565b600060208284031215612c1f57612c1e612083565b5b6000612c2d84828501612bf4565b91505092915050565b600082825260208201905092915050565b7f6f6e6c7920636f6e74657374206f776e65720000000000000000000000000000600082015250565b6000612c7d601283612c36565b9150612c8882612c47565b602082019050919050565b60006020820190508181036000830152612cac81612c70565b9050919050565b7f7465616d496473206c656e6774682073686f756c6420626520657175616c207460008201527f6f2073636f726573206c656e6774680000000000000000000000000000000000602082015250565b6000612d0f602f83612c36565b9150612d1a82612cb3565b604082019050919050565b60006020820190508181036000830152612d3e81612d02565b9050919050565b7f636f6e7465737420646f6573206e6f7420636f6e7461696e207375636820746560008201527f616d496400000000000000000000000000000000000000000000000000000000602082015250565b6000612da1602483612c36565b9150612dac82612d45565b604082019050919050565b60006020820190508181036000830152612dd081612d94565b9050919050565b7f4e487b7100000000000000000000000000000000000000000000000000000000600052602260045260246000fd5b60006002820490506001821680612e1e57607f821691505b60208210811415612e3257612e31612dd7565b5b50919050565b60048110612e4957612e48612575565b5b50565b6000819050612e5a82612e38565b919050565b6000612e6a82612e4c565b9050919050565b612e7a81612e5f565b82525050565b6000604082019050612e9560008301856123a8565b612ea26020830184612e71565b9392505050565b7f77726f6e6720636f6e7465737420737461746500000000000000000000000000600082015250565b6000612edf601383612c36565b9150612eea82612ea9565b602082019050919050565b60006020820190508181036000830152612f0e81612ed2565b9050919050565b7f77726f6e67207465616d20737461746500000000000000000000000000000000600082015250565b6000612f4b601083612c36565b9150612f5682612f15565b602082019050919050565b60006020820190508181036000830152612f7a81612f3e565b9050919050565b600067ffffffffffffffff821115612f9c57612f9b6121ad565b5b602082029050602081019050919050565b600080fd5b600080fd5b600081519050612fc681612097565b92915050565b600080fd5b600067ffffffffffffffff821115612fec57612feb6121ad565b5b612ff58261219c565b9050602081019050919050565b600061301561301084612fd1565b61220d565b90508281526020810184848401111561303157613030612fcc565b5b61303c8482856123d3565b509392505050565b600082601f83011261305957613058612197565b5b8151613069848260208601613002565b91505092915050565b600060c0828403121561308857613087612fad565b5b61309260c061220d565b9050600082015167ffffffffffffffff8111156130b2576130b1612fb2565b5b6130be84828501613044565b600083015250602082015167ffffffffffffffff8111156130e2576130e1612fb2565b5b6130ee84828501613044565b602083015250604061310284828501612fb7565b604083015250606061311684828501612fb7565b606083015250608061312a84828501612fb7565b60808301525060a082015167ffffffffffffffff81111561314e5761314d612fb2565b5b61315a84828501613044565b60a08301525092915050565b600081519050613175816120f5565b92915050565b6004811061318857600080fd5b50565b60008151905061319a8161317b565b92915050565b600060a082840312156131b6576131b5612fad565b5b6131c060a061220d565b905060006131d084828501612fb7565b600083015250602082015167ffffffffffffffff8111156131f4576131f3612fb2565b5b61320084828501613072565b602083015250604061321484828501613166565b60408301525060606132288482850161318b565b606083015250608061323c84828501612fb7565b60808301525092915050565b600061325b61325684612f81565b61220d565b9050808382526020820190506020840283018581111561327e5761327d612254565b5b835b818110156132c557805167ffffffffffffffff8111156132a3576132a2612197565b5b8086016132b089826131a0565b85526020850194505050602081019050613280565b5050509392505050565b600082601f8301126132e4576132e3612197565b5b81516132f4848260208601613248565b91505092915050565b60006020828403121561331357613312612083565b5b600082015167ffffffffffffffff81111561333157613330612088565b5b61333d848285016132cf565b91505092915050565b7f6f6e6c7920636f6e746573742065786973740000000000000000000000000000600082015250565b600061337c601283612c36565b915061338782613346565b602082019050919050565b600060208201905081810360008301526133ab8161336f565b9050919050565b7f6e6f74207175616c696669656420636f6e746573742066656500000000000000600082015250565b60006133e8601983612c36565b91506133f3826133b2565b602082019050919050565b60006020820190508181036000830152613417816133db565b9050919050565b6134278161243f565b811461343257600080fd5b50565b6000813590506134448161341e565b92915050565b6000602082840312156134605761345f612083565b5b600061346e84828501613435565b91505092915050565b600080fd5b600080fd5b600080fd5b600080833560016020038436030381126134a3576134a2613477565b5b80840192508235915067ffffffffffffffff8211156134c5576134c461347c565b5b6020830192506020820236038313156134e1576134e0613481565b5b509250929050565b6000602082840312156134ff576134fe612083565b5b600061350d8482850161210c565b91505092915050565b82818337600083830152505050565b600061353861353384612fd1565b61220d565b90508281526020810184848401111561355457613553612fcc565b5b61355f848285613516565b509392505050565b600082601f83011261357c5761357b612197565b5b813561358c848260208601613525565b91505092915050565b600067ffffffffffffffff8211156135b0576135af6121ad565b5b602082029050602081019050919050565b60006135d46135cf84613595565b61220d565b905080838252602082019050602084028301858111156135f7576135f6612254565b5b835b81811015613620578061360c888261210c565b8452602084019350506020810190506135f9565b5050509392505050565b600082601f83011261363f5761363e612197565b5b813561364f8482602086016135c1565b91505092915050565b60006060828403121561366e5761366d612fad565b5b613678606061220d565b9050600082013567ffffffffffffffff81111561369857613697612fb2565b5b6136a484828501613567565b60008301525060206136b884828501613435565b602083015250604082013567ffffffffffffffff8111156136dc576136db612fb2565b5b6136e88482850161362a565b60408301525092915050565b60006137003683613658565b905091905056fea2646970667358221220f51d5b4c32b2f1a32bc2f86f1b81c4b382fa79b1cc087fb080dd5bc4e07c81cf64736f6c634300080a0033",
  "immutableReferences": {},
  "source": "// SPDX-License-Identifier: MIT\npragma solidity ^0.8.10;\npragma experimental ABIEncoderV2;\n\nimport \"@openzeppelin/contracts/utils/structs/EnumerableSet.sol\";\nimport \"./ITeams.sol\";\nimport \"./IContests.sol\";\n\ncontract Teams is ITeams {\n    using EnumerableSet for EnumerableSet.UintSet;\n\n    IContests Contests;\n\n    constructor(address _Contests) {\n        Contests = IContests(_Contests);\n    }\n\n    //ContestId => TeamIds\n    EnumerableSet.UintSet ids;\n    //TeamId => Team\n    mapping(uint => Team) public teams;\n    uint public nextId = 1;\n\n    // index\n    //contestId + address => teamId\n    mapping(uint => mapping(address => uint)) public addressToTeamId;\n    mapping(uint => EnumerableSet.UintSet) contestTeams;\n    mapping(address => EnumerableSet.UintSet) addressToContests;\n\n    function _gets(uint [] memory _ids) internal view returns (Team [] memory) {\n        uint number = _ids.length;\n        Team [] memory result = new Team [](number);\n        for (uint i = 0; i < number; i++) {\n            result[i] = teams[_ids[i]];\n        }\n        return result;\n    }\n\n    function _add(uint contestId, ITeam calldata team) internal returns (uint) {\n        uint id = nextId;\n        ids.add(id);\n        teams[id] = Team(id, contestId, team, TeamState.APPLIED, 0, block.timestamp);\n        nextId++;\n        return id;\n    }\n\n    function applyContest(uint contestId, ITeam calldata team) external payable\n    onlyContestExist(contestId)\n    onlyContestInState(contestId, IContests.ContestState.CREATED){\n\n        // get contest\n        uint [] memory _ids = new uint [] (1);\n        _ids[0] = contestId;\n        IContests.Contest memory contest = Contests.getSome(_ids)[0];\n\n        require(msg.value == contest.info.fee, \"not qualified contest fee\");\n\n        // add index\n        addressToTeamId[contestId][team.captain] = nextId;\n        addressToContests[team.captain].add(contestId);\n        for (uint i = 0; i < team.members.length; i++) {\n            addressToTeamId[contestId][team.members[i]] = nextId;\n            addressToContests[team.members[i]].add(contestId);\n        }\n        contestTeams[contestId].add(_add(contestId, team));\n    }\n\n    function auditTeam(uint contestId, uint teamId, bool result) external\n    onlyContestOwner(contestId)\n    onlyContestInState(contestId, IContests.ContestState.CREATED) {\n        require(teams[teamId].state == ITeams.TeamState.APPLIED, \"wrong team state\");\n        if (result == true) {\n            teams[teamId].state = ITeams.TeamState.APPROVED;\n            return;\n        }\n        uint [] memory _ids = new uint [] (1);\n        _ids[0] = contestId;\n        IContests.Contest memory contest = Contests.getSome(_ids)[0];\n        teams[teamId].state = ITeams.TeamState.REJECTED;\n        teams[teamId].info.captain.transfer(contest.info.fee);\n    }\n\n    function updateScore(uint contestId, uint [] memory teamIds, uint [] memory scores) external\n    onlyContestOwner(contestId) {\n        require(teamIds.length == scores.length, \"teamIds length should be equal to scores length\");\n        for(uint i = 0; i < teamIds.length; i++) {\n            require(contestTeams[contestId].contains(teamIds[i]), \"contest does not contain such teamId\");\n            teams[teamIds[i]].score == scores[i];\n        }\n    }\n\n    function isTeamMember(uint teamId, address account) external view returns(bool) {\n        if(teams[teamId].info.captain == account) return true;\n        for (uint i = 0; i < teams[teamId].info.members.length; i++) {\n            if(teams[teamId].info.members[i] == account) return true;\n        }\n        return false;\n    }\n\n    function getApply() external view returns (uint [] memory) {\n        return addressToContests[msg.sender].values();\n    }\n\n    function getAll() external view returns (Team [] memory) {\n        return _gets(ids.values());\n    }\n\n    function getSome(uint [] memory _ids) external view returns (Team [] memory) {\n        return _gets(_ids);\n    }\n\n    function gets(uint contestId) external view returns (Team [] memory) {\n        return _gets(contestTeams[contestId].values());\n    }\n    function getsId(uint contestId) external view returns (uint [] memory) {\n        return contestTeams[contestId].values();\n    }\n\n    function getOne(uint contestId, address account) external view returns (Team memory) {\n        return teams[addressToTeamId[contestId][account]];\n    }\n\n    function getCount() external view returns (uint) {\n        return ids.length();\n    }\n\n    function get(uint index) external view returns (Team memory) {\n        return teams[ids.at(index)];\n    }\n\n    modifier onlyTeamExist(uint id){\n        require(ids.contains(id), \"team does not exist\");\n        _;\n    }\n\n    modifier onlyContestOwner(uint contestId){\n        require(Contests.isOwner(contestId, msg.sender), \"only contest owner\");\n        _;\n    }\n\n    modifier onlyContestExist(uint contestId){\n        require(Contests.Exist(contestId), \"only contest exist\");\n        _;\n    }\n\n    modifier onlyContestInState(uint contestId, IContests.ContestState state){\n        require(Contests.contestInState(contestId, state), \"wrong contest state\");\n        _;\n    }\n}",
  "sourcePath": "/Users/yhy/Code/GitHub/DCTF/contracts/Teams.sol",
  "compiler": {
    "name": "solc",
    "version": "0.8.10+commit.fc410830.Emscripten.clang"
  },
  "schemaVersion": "3.4.4",
  "updatedAt": "2022-02-19T13:26:47.748Z",
  "networkType": "ethereum",
  "devdoc": {
    "kind": "dev",
    "methods": {},
    "version": 1
  },
  "userdoc": {
    "kind": "user",
    "methods": {},
    "version": 1
  }
}