{
  "contractName": "Teams",
  "abi": [
    {
      "inputs": [
        {
          "internalType": "address",
          "name": "_Contests",
          "type": "address"
        }
      ],
      "stateMutability": "nonpayable",
      "type": "constructor"
    },
    {
      "inputs": [
        {
          "internalType": "uint256",
          "name": "",
          "type": "uint256"
        },
        {
          "internalType": "address",
          "name": "",
          "type": "address"
        }
      ],
      "name": "addressToTeamId",
      "outputs": [
        {
          "internalType": "uint256",
          "name": "",
          "type": "uint256"
        }
      ],
      "stateMutability": "view",
      "type": "function",
      "constant": true
    },
    {
      "inputs": [],
      "name": "nextId",
      "outputs": [
        {
          "internalType": "uint256",
          "name": "",
          "type": "uint256"
        }
      ],
      "stateMutability": "view",
      "type": "function",
      "constant": true
    },
    {
      "inputs": [
        {
          "internalType": "uint256",
          "name": "",
          "type": "uint256"
        }
      ],
      "name": "teams",
      "outputs": [
        {
          "internalType": "uint256",
          "name": "id",
          "type": "uint256"
        },
        {
          "internalType": "uint256",
          "name": "contestId",
          "type": "uint256"
        },
        {
          "components": [
            {
              "internalType": "string",
              "name": "name",
              "type": "string"
            },
            {
              "internalType": "address payable",
              "name": "captain",
              "type": "address"
            },
            {
              "internalType": "address[]",
              "name": "members",
              "type": "address[]"
            }
          ],
          "internalType": "struct ITeams.ITeam",
          "name": "info",
          "type": "tuple"
        },
        {
          "internalType": "enum ITeams.TeamState",
          "name": "state",
          "type": "uint8"
        },
        {
          "internalType": "uint256",
          "name": "score",
          "type": "uint256"
        },
        {
          "internalType": "uint256",
          "name": "timeStamp",
          "type": "uint256"
        }
      ],
      "stateMutability": "view",
      "type": "function",
      "constant": true
    },
    {
      "inputs": [
        {
          "internalType": "uint256",
          "name": "contestId",
          "type": "uint256"
        },
        {
          "components": [
            {
              "internalType": "string",
              "name": "name",
              "type": "string"
            },
            {
              "internalType": "address payable",
              "name": "captain",
              "type": "address"
            },
            {
              "internalType": "address[]",
              "name": "members",
              "type": "address[]"
            }
          ],
          "internalType": "struct ITeams.ITeam",
          "name": "team",
          "type": "tuple"
        }
      ],
      "name": "applyContest",
      "outputs": [],
      "stateMutability": "payable",
      "type": "function",
      "payable": true
    },
    {
      "inputs": [
        {
          "internalType": "uint256",
          "name": "contestId",
          "type": "uint256"
        },
        {
          "internalType": "uint256[]",
          "name": "_ids",
          "type": "uint256[]"
        },
        {
          "internalType": "bool[]",
          "name": "results",
          "type": "bool[]"
        }
      ],
      "name": "auditTeams",
      "outputs": [],
      "stateMutability": "nonpayable",
      "type": "function"
    },
    {
      "inputs": [
        {
          "internalType": "uint256",
          "name": "contestId",
          "type": "uint256"
        },
        {
          "internalType": "uint256[]",
          "name": "teamIds",
          "type": "uint256[]"
        },
        {
          "internalType": "uint256[]",
          "name": "scores",
          "type": "uint256[]"
        }
      ],
      "name": "updateScore",
      "outputs": [],
      "stateMutability": "nonpayable",
      "type": "function"
    },
    {
      "inputs": [
        {
          "internalType": "uint256",
          "name": "teamId",
          "type": "uint256"
        },
        {
          "internalType": "address",
          "name": "account",
          "type": "address"
        }
      ],
      "name": "isTeamMember",
      "outputs": [
        {
          "internalType": "bool",
          "name": "",
          "type": "bool"
        }
      ],
      "stateMutability": "view",
      "type": "function",
      "constant": true
    },
    {
      "inputs": [],
      "name": "getApply",
      "outputs": [
        {
          "internalType": "uint256[]",
          "name": "",
          "type": "uint256[]"
        }
      ],
      "stateMutability": "view",
      "type": "function",
      "constant": true
    },
    {
      "inputs": [],
      "name": "getAll",
      "outputs": [
        {
          "components": [
            {
              "internalType": "uint256",
              "name": "id",
              "type": "uint256"
            },
            {
              "internalType": "uint256",
              "name": "contestId",
              "type": "uint256"
            },
            {
              "components": [
                {
                  "internalType": "string",
                  "name": "name",
                  "type": "string"
                },
                {
                  "internalType": "address payable",
                  "name": "captain",
                  "type": "address"
                },
                {
                  "internalType": "address[]",
                  "name": "members",
                  "type": "address[]"
                }
              ],
              "internalType": "struct ITeams.ITeam",
              "name": "info",
              "type": "tuple"
            },
            {
              "internalType": "enum ITeams.TeamState",
              "name": "state",
              "type": "uint8"
            },
            {
              "internalType": "uint256",
              "name": "score",
              "type": "uint256"
            },
            {
              "internalType": "uint256",
              "name": "timeStamp",
              "type": "uint256"
            }
          ],
          "internalType": "struct ITeams.Team[]",
          "name": "",
          "type": "tuple[]"
        }
      ],
      "stateMutability": "view",
      "type": "function",
      "constant": true
    },
    {
      "inputs": [
        {
          "internalType": "uint256[]",
          "name": "_ids",
          "type": "uint256[]"
        }
      ],
      "name": "getSome",
      "outputs": [
        {
          "components": [
            {
              "internalType": "uint256",
              "name": "id",
              "type": "uint256"
            },
            {
              "internalType": "uint256",
              "name": "contestId",
              "type": "uint256"
            },
            {
              "components": [
                {
                  "internalType": "string",
                  "name": "name",
                  "type": "string"
                },
                {
                  "internalType": "address payable",
                  "name": "captain",
                  "type": "address"
                },
                {
                  "internalType": "address[]",
                  "name": "members",
                  "type": "address[]"
                }
              ],
              "internalType": "struct ITeams.ITeam",
              "name": "info",
              "type": "tuple"
            },
            {
              "internalType": "enum ITeams.TeamState",
              "name": "state",
              "type": "uint8"
            },
            {
              "internalType": "uint256",
              "name": "score",
              "type": "uint256"
            },
            {
              "internalType": "uint256",
              "name": "timeStamp",
              "type": "uint256"
            }
          ],
          "internalType": "struct ITeams.Team[]",
          "name": "",
          "type": "tuple[]"
        }
      ],
      "stateMutability": "view",
      "type": "function",
      "constant": true
    },
    {
      "inputs": [
        {
          "internalType": "uint256",
          "name": "contestId",
          "type": "uint256"
        }
      ],
      "name": "gets",
      "outputs": [
        {
          "components": [
            {
              "internalType": "uint256",
              "name": "id",
              "type": "uint256"
            },
            {
              "internalType": "uint256",
              "name": "contestId",
              "type": "uint256"
            },
            {
              "components": [
                {
                  "internalType": "string",
                  "name": "name",
                  "type": "string"
                },
                {
                  "internalType": "address payable",
                  "name": "captain",
                  "type": "address"
                },
                {
                  "internalType": "address[]",
                  "name": "members",
                  "type": "address[]"
                }
              ],
              "internalType": "struct ITeams.ITeam",
              "name": "info",
              "type": "tuple"
            },
            {
              "internalType": "enum ITeams.TeamState",
              "name": "state",
              "type": "uint8"
            },
            {
              "internalType": "uint256",
              "name": "score",
              "type": "uint256"
            },
            {
              "internalType": "uint256",
              "name": "timeStamp",
              "type": "uint256"
            }
          ],
          "internalType": "struct ITeams.Team[]",
          "name": "",
          "type": "tuple[]"
        }
      ],
      "stateMutability": "view",
      "type": "function",
      "constant": true
    },
    {
      "inputs": [
        {
          "internalType": "uint256",
          "name": "contestId",
          "type": "uint256"
        }
      ],
      "name": "getsId",
      "outputs": [
        {
          "internalType": "uint256[]",
          "name": "",
          "type": "uint256[]"
        }
      ],
      "stateMutability": "view",
      "type": "function",
      "constant": true
    },
    {
      "inputs": [
        {
          "internalType": "uint256",
          "name": "contestId",
          "type": "uint256"
        },
        {
          "internalType": "address",
          "name": "account",
          "type": "address"
        }
      ],
      "name": "getOne",
      "outputs": [
        {
          "components": [
            {
              "internalType": "uint256",
              "name": "id",
              "type": "uint256"
            },
            {
              "internalType": "uint256",
              "name": "contestId",
              "type": "uint256"
            },
            {
              "components": [
                {
                  "internalType": "string",
                  "name": "name",
                  "type": "string"
                },
                {
                  "internalType": "address payable",
                  "name": "captain",
                  "type": "address"
                },
                {
                  "internalType": "address[]",
                  "name": "members",
                  "type": "address[]"
                }
              ],
              "internalType": "struct ITeams.ITeam",
              "name": "info",
              "type": "tuple"
            },
            {
              "internalType": "enum ITeams.TeamState",
              "name": "state",
              "type": "uint8"
            },
            {
              "internalType": "uint256",
              "name": "score",
              "type": "uint256"
            },
            {
              "internalType": "uint256",
              "name": "timeStamp",
              "type": "uint256"
            }
          ],
          "internalType": "struct ITeams.Team",
          "name": "",
          "type": "tuple"
        }
      ],
      "stateMutability": "view",
      "type": "function",
      "constant": true
    },
    {
      "inputs": [],
      "name": "getCount",
      "outputs": [
        {
          "internalType": "uint256",
          "name": "",
          "type": "uint256"
        }
      ],
      "stateMutability": "view",
      "type": "function",
      "constant": true
    },
    {
      "inputs": [
        {
          "internalType": "uint256",
          "name": "index",
          "type": "uint256"
        }
      ],
      "name": "get",
      "outputs": [
        {
          "components": [
            {
              "internalType": "uint256",
              "name": "id",
              "type": "uint256"
            },
            {
              "internalType": "uint256",
              "name": "contestId",
              "type": "uint256"
            },
            {
              "components": [
                {
                  "internalType": "string",
                  "name": "name",
                  "type": "string"
                },
                {
                  "internalType": "address payable",
                  "name": "captain",
                  "type": "address"
                },
                {
                  "internalType": "address[]",
                  "name": "members",
                  "type": "address[]"
                }
              ],
              "internalType": "struct ITeams.ITeam",
              "name": "info",
              "type": "tuple"
            },
            {
              "internalType": "enum ITeams.TeamState",
              "name": "state",
              "type": "uint8"
            },
            {
              "internalType": "uint256",
              "name": "score",
              "type": "uint256"
            },
            {
              "internalType": "uint256",
              "name": "timeStamp",
              "type": "uint256"
            }
          ],
          "internalType": "struct ITeams.Team",
          "name": "",
          "type": "tuple"
        }
      ],
      "stateMutability": "view",
      "type": "function",
      "constant": true
    }
  ],
  "bytecode": "0x608060405260016004553480156200001657600080fd5b5060405162003aa138038062003aa183398181016040528101906200003c9190620000ed565b806000806101000a81548173ffffffffffffffffffffffffffffffffffffffff021916908373ffffffffffffffffffffffffffffffffffffffff160217905550506200011f565b600080fd5b600073ffffffffffffffffffffffffffffffffffffffff82169050919050565b6000620000b58262000088565b9050919050565b620000c781620000a8565b8114620000d357600080fd5b50565b600081519050620000e781620000bc565b92915050565b60006020828403121562000106576200010562000083565b5b60006200011684828501620000d6565b91505092915050565b613972806200012f6000396000f3fe6080604052600436106100e85760003560e01c8063832418031161008a578063b1d6046d11610059578063b1d6046d14610321578063d30f3f481461033d578063ef0a96271461037a578063f640a006146103b7576100e8565b8063832418031461023f5780639507d39a1461027c57806397b270fd146102b9578063a87d942c146102f6576100e8565b806353ed5143116100c657806353ed51431461019557806361b8ce8c146101c05780636dc49443146101eb5780637bca13d514610214576100e8565b806301738281146100ed57806307a760b91461012a5780633ed2b77a14610153575b600080fd5b3480156100f957600080fd5b50610114600480360381019061010f91906121c9565b6103f4565b6040516101219190612224565b60405180910390f35b34801561013657600080fd5b50610151600480360381019061014c9190612398565b610545565b005b34801561015f57600080fd5b5061017a60048036038101906101759190612423565b610753565b60405161018c96959493929190612694565b60405180910390f35b3480156101a157600080fd5b506101aa61091c565b6040516101b791906128bc565b60405180910390f35b3480156101cc57600080fd5b506101d5610935565b6040516101e291906128de565b60405180910390f35b3480156101f757600080fd5b50610212600480360381019061020d91906129e8565b61093b565b005b34801561022057600080fd5b506102296109e3565b6040516102369190612b22565b60405180910390f35b34801561024b57600080fd5b5061026660048036038101906102619190612b44565b610a31565b60405161027391906128bc565b60405180910390f35b34801561028857600080fd5b506102a3600480360381019061029e9190612423565b610a43565b6040516102b09190612c16565b60405180910390f35b3480156102c557600080fd5b506102e060048036038101906102db91906121c9565b610c70565b6040516102ed9190612c16565b60405180910390f35b34801561030257600080fd5b5061030b610edb565b60405161031891906128de565b60405180910390f35b61033b60048036038101906103369190612c5c565b610eec565b005b34801561034957600080fd5b50610364600480360381019061035f9190612423565b611466565b60405161037191906128bc565b60405180910390f35b34801561038657600080fd5b506103a1600480360381019061039c91906121c9565b611492565b6040516103ae91906128de565b60405180910390f35b3480156103c357600080fd5b506103de60048036038101906103d99190612423565b6114b7565b6040516103eb9190612b22565b60405180910390f35b60008173ffffffffffffffffffffffffffffffffffffffff166003600085815260200190815260200160002060020160010160009054906101000a900473ffffffffffffffffffffffffffffffffffffffff1673ffffffffffffffffffffffffffffffffffffffff16141561046c576001905061053f565b60005b6003600085815260200190815260200160002060020160020180549050811015610539578273ffffffffffffffffffffffffffffffffffffffff166003600086815260200190815260200160002060020160020182815481106104d5576104d4612cb8565b5b9060005260206000200160009054906101000a900473ffffffffffffffffffffffffffffffffffffffff1673ffffffffffffffffffffffffffffffffffffffff16141561052657600191505061053f565b808061053190612d16565b91505061046f565b50600090505b92915050565b8260008054906101000a900473ffffffffffffffffffffffffffffffffffffffff1673ffffffffffffffffffffffffffffffffffffffff16635a5d096c82336040518363ffffffff1660e01b81526004016105a1929190612d6e565b602060405180830381865afa1580156105be573d6000803e3d6000fd5b505050506040513d601f19601f820116820180604052508101906105e29190612dac565b610621576040517f08c379a000000000000000000000000000000000000000000000000000000000815260040161061890612e36565b60405180910390fd5b8151835114610665576040517f08c379a000000000000000000000000000000000000000000000000000000000815260040161065c90612ec8565b60405180910390fd5b60005b835181101561074c576106b084828151811061068757610686612cb8565b5b6020026020010151600660008881526020019081526020016000206114db90919063ffffffff16565b6106ef576040517f08c379a00000000000000000000000000000000000000000000000000000000081526004016106e690612f5a565b60405180910390fd5b82818151811061070257610701612cb8565b5b60200260200101516003600086848151811061072157610720612cb8565b5b602002602001015181526020019081526020016000205050808061074490612d16565b915050610668565b5050505050565b60036020528060005260406000206000915090508060000154908060010154908060020160405180606001604052908160008201805461079290612fa9565b80601f01602080910402602001604051908101604052809291908181526020018280546107be90612fa9565b801561080b5780601f106107e05761010080835404028352916020019161080b565b820191906000526020600020905b8154815290600101906020018083116107ee57829003601f168201915b505050505081526020016001820160009054906101000a900473ffffffffffffffffffffffffffffffffffffffff1673ffffffffffffffffffffffffffffffffffffffff1673ffffffffffffffffffffffffffffffffffffffff168152602001600282018054806020026020016040519081016040528092919081815260200182805480156108ef57602002820191906000526020600020905b8160009054906101000a900473ffffffffffffffffffffffffffffffffffffffff1673ffffffffffffffffffffffffffffffffffffffff16815260200190600101908083116108a5575b505050505081525050908060050160009054906101000a900460ff16908060060154908060070154905086565b606061093061092b60016114f5565b611516565b905090565b60045481565b805182511461097f576040517f08c379a00000000000000000000000000000000000000000000000000000000081526004016109769061304d565b60405180910390fd5b60005b82518110156109dd576109ca848483815181106109a2576109a1612cb8565b5b60200260200101518484815181106109bd576109bc612cb8565b5b60200260200101516117e2565b80806109d590612d16565b915050610982565b50505050565b6060610a2c600760003373ffffffffffffffffffffffffffffffffffffffff1673ffffffffffffffffffffffffffffffffffffffff1681526020019081526020016000206114f5565b905090565b6060610a3c82611516565b9050919050565b610a4b611f6f565b60036000610a63846001611c7890919063ffffffff16565b81526020019081526020016000206040518060c0016040529081600082015481526020016001820154815260200160028201604051806060016040529081600082018054610ab090612fa9565b80601f0160208091040260200160405190810160405280929190818152602001828054610adc90612fa9565b8015610b295780601f10610afe57610100808354040283529160200191610b29565b820191906000526020600020905b815481529060010190602001808311610b0c57829003601f168201915b505050505081526020016001820160009054906101000a900473ffffffffffffffffffffffffffffffffffffffff1673ffffffffffffffffffffffffffffffffffffffff1673ffffffffffffffffffffffffffffffffffffffff16815260200160028201805480602002602001604051908101604052809291908181526020018280548015610c0d57602002820191906000526020600020905b8160009054906101000a900473ffffffffffffffffffffffffffffffffffffffff1673ffffffffffffffffffffffffffffffffffffffff1681526020019060010190808311610bc3575b50505050508152505081526020016005820160009054906101000a900460ff166003811115610c3f57610c3e61261d565b5b6003811115610c5157610c5061261d565b5b8152602001600682015481526020016007820154815250509050919050565b610c78611f6f565b600360006005600086815260200190815260200160002060008573ffffffffffffffffffffffffffffffffffffffff1673ffffffffffffffffffffffffffffffffffffffff1681526020019081526020016000205481526020019081526020016000206040518060c0016040529081600082015481526020016001820154815260200160028201604051806060016040529081600082018054610d1a90612fa9565b80601f0160208091040260200160405190810160405280929190818152602001828054610d4690612fa9565b8015610d935780601f10610d6857610100808354040283529160200191610d93565b820191906000526020600020905b815481529060010190602001808311610d7657829003601f168201915b505050505081526020016001820160009054906101000a900473ffffffffffffffffffffffffffffffffffffffff1673ffffffffffffffffffffffffffffffffffffffff1673ffffffffffffffffffffffffffffffffffffffff16815260200160028201805480602002602001604051908101604052809291908181526020018280548015610e7757602002820191906000526020600020905b8160009054906101000a900473ffffffffffffffffffffffffffffffffffffffff1673ffffffffffffffffffffffffffffffffffffffff1681526020019060010190808311610e2d575b50505050508152505081526020016005820160009054906101000a900460ff166003811115610ea957610ea861261d565b5b6003811115610ebb57610eba61261d565b5b815260200160068201548152602001600782015481525050905092915050565b6000610ee76001611c92565b905090565b8160008054906101000a900473ffffffffffffffffffffffffffffffffffffffff1673ffffffffffffffffffffffffffffffffffffffff1663e4dc1491826040518263ffffffff1660e01b8152600401610f4691906128de565b602060405180830381865afa158015610f63573d6000803e3d6000fd5b505050506040513d601f19601f82011682018060405250810190610f879190612dac565b610fc6576040517f08c379a0000000000000000000000000000000000000000000000000000000008152600401610fbd906130b9565b60405180910390fd5b82600160008054906101000a900473ffffffffffffffffffffffffffffffffffffffff1673ffffffffffffffffffffffffffffffffffffffff1663434e540b83836040518363ffffffff1660e01b8152600401611024929190613121565b6020604051808303816000875af1158015611043573d6000803e3d6000fd5b505050506040513d601f19601f820116820180604052508101906110679190612dac565b6110a6576040517f08c379a000000000000000000000000000000000000000000000000000000000815260040161109d90613196565b60405180910390fd5b6000600167ffffffffffffffff8111156110c3576110c2612255565b5b6040519080825280602002602001820160405280156110f15781602001602082028036833780820191505090505b509050858160008151811061110957611108612cb8565b5b60200260200101818152505060008060009054906101000a900473ffffffffffffffffffffffffffffffffffffffff1673ffffffffffffffffffffffffffffffffffffffff166383241803836040518263ffffffff1660e01b81526004016111719190612b22565b600060405180830381865afa15801561118e573d6000803e3d6000fd5b505050506040513d6000823e3d601f19601f820116820180604052508101906111b79190613532565b6000815181106111ca576111c9612cb8565b5b60200260200101519050806020015160400151341461121e576040517f08c379a0000000000000000000000000000000000000000000000000000000008152600401611215906135c7565b60405180910390fd5b6004546005600089815260200190815260200160002060008860200160208101906112499190613613565b73ffffffffffffffffffffffffffffffffffffffff1673ffffffffffffffffffffffffffffffffffffffff168152602001908152602001600020819055506112ea87600760008960200160208101906112a29190613613565b73ffffffffffffffffffffffffffffffffffffffff1673ffffffffffffffffffffffffffffffffffffffff168152602001908152602001600020611ca790919063ffffffff16565b5060005b8680604001906112fe919061364f565b905081101561142d57600454600560008a8152602001908152602001600020600089806040019061132f919061364f565b858181106113405761133f612cb8565b5b905060200201602081019061135591906136b2565b73ffffffffffffffffffffffffffffffffffffffff1673ffffffffffffffffffffffffffffffffffffffff1681526020019081526020016000208190555061141988600760008a80604001906113ab919061364f565b868181106113bc576113bb612cb8565b5b90506020020160208101906113d191906136b2565b73ffffffffffffffffffffffffffffffffffffffff1673ffffffffffffffffffffffffffffffffffffffff168152602001908152602001600020611ca790919063ffffffff16565b50808061142590612d16565b9150506112ee565b5061145c61143b8888611cc1565b600660008a8152602001908152602001600020611ca790919063ffffffff16565b5050505050505050565b606061148b611486600660008581526020019081526020016000206114f5565b611516565b9050919050565b6005602052816000526040600020602052806000526040600020600091509150505481565b60606114d4600660008481526020019081526020016000206114f5565b9050919050565b60006114ed836000018360001b611e44565b905092915050565b6060600061150583600001611e67565b905060608190508092505050919050565b606060008251905060008167ffffffffffffffff81111561153a57611539612255565b5b60405190808252806020026020018201604052801561157357816020015b611560611f6f565b8152602001906001900390816115585790505b50905060005b828110156117d7576003600086838151811061159857611597612cb8565b5b602002602001015181526020019081526020016000206040518060c00160405290816000820154815260200160018201548152602001600282016040518060600160405290816000820180546115ed90612fa9565b80601f016020809104026020016040519081016040528092919081815260200182805461161990612fa9565b80156116665780601f1061163b57610100808354040283529160200191611666565b820191906000526020600020905b81548152906001019060200180831161164957829003601f168201915b505050505081526020016001820160009054906101000a900473ffffffffffffffffffffffffffffffffffffffff1673ffffffffffffffffffffffffffffffffffffffff1673ffffffffffffffffffffffffffffffffffffffff1681526020016002820180548060200260200160405190810160405280929190818152602001828054801561174a57602002820191906000526020600020905b8160009054906101000a900473ffffffffffffffffffffffffffffffffffffffff1673ffffffffffffffffffffffffffffffffffffffff1681526020019060010190808311611700575b50505050508152505081526020016005820160009054906101000a900460ff16600381111561177c5761177b61261d565b5b600381111561178e5761178d61261d565b5b8152602001600682015481526020016007820154815250508282815181106117b9576117b8612cb8565b5b602002602001018190525080806117cf90612d16565b915050611579565b508092505050919050565b8260008054906101000a900473ffffffffffffffffffffffffffffffffffffffff1673ffffffffffffffffffffffffffffffffffffffff16635a5d096c82336040518363ffffffff1660e01b815260040161183e929190612d6e565b602060405180830381865afa15801561185b573d6000803e3d6000fd5b505050506040513d601f19601f8201168201806040525081019061187f9190612dac565b6118be576040517f08c379a00000000000000000000000000000000000000000000000000000000081526004016118b590612e36565b60405180910390fd5b83600160008054906101000a900473ffffffffffffffffffffffffffffffffffffffff1673ffffffffffffffffffffffffffffffffffffffff1663434e540b83836040518363ffffffff1660e01b815260040161191c929190613121565b6020604051808303816000875af115801561193b573d6000803e3d6000fd5b505050506040513d601f19601f8201168201806040525081019061195f9190612dac565b61199e576040517f08c379a000000000000000000000000000000000000000000000000000000000815260040161199590613196565b60405180910390fd5b600160038111156119b2576119b161261d565b5b6003600087815260200190815260200160002060050160009054906101000a900460ff1660038111156119e8576119e761261d565b5b14611a28576040517f08c379a0000000000000000000000000000000000000000000000000000000008152600401611a1f9061372b565b60405180910390fd5b600115158415151415611a795760026003600087815260200190815260200160002060050160006101000a81548160ff02191690836003811115611a6f57611a6e61261d565b5b0217905550611c70565b6000600167ffffffffffffffff811115611a9657611a95612255565b5b604051908082528060200260200182016040528015611ac45781602001602082028036833780820191505090505b5090508681600081518110611adc57611adb612cb8565b5b60200260200101818152505060008060009054906101000a900473ffffffffffffffffffffffffffffffffffffffff1673ffffffffffffffffffffffffffffffffffffffff166383241803836040518263ffffffff1660e01b8152600401611b449190612b22565b600060405180830381865afa158015611b61573d6000803e3d6000fd5b505050506040513d6000823e3d601f19601f82011682018060405250810190611b8a9190613532565b600081518110611b9d57611b9c612cb8565b5b60200260200101519050600380600089815260200190815260200160002060050160006101000a81548160ff02191690836003811115611be057611bdf61261d565b5b02179055506003600088815260200190815260200160002060020160010160009054906101000a900473ffffffffffffffffffffffffffffffffffffffff1673ffffffffffffffffffffffffffffffffffffffff166108fc8260200151604001519081150290604051600060405180830381858888f19350505050158015611c6c573d6000803e3d6000fd5b5050505b505050505050565b6000611c878360000183611ec3565b60001c905092915050565b6000611ca082600001611eee565b9050919050565b6000611cb9836000018360001b611eff565b905092915050565b6000806004549050611cdd816001611ca790919063ffffffff16565b506040518060c0016040528082815260200185815260200184611cff90613929565b815260200160016003811115611d1857611d1761261d565b5b815260200160008152602001428152506003600083815260200190815260200160002060008201518160000155602082015181600101556040820151816002016000820151816000019080519060200190611d74929190611fbd565b5060208201518160010160006101000a81548173ffffffffffffffffffffffffffffffffffffffff021916908373ffffffffffffffffffffffffffffffffffffffff1602179055506040820151816002019080519060200190611dd8929190612043565b50505060608201518160050160006101000a81548160ff02191690836003811115611e0657611e0561261d565b5b02179055506080820151816006015560a0820151816007015590505060046000815480929190611e3590612d16565b91905055508091505092915050565b600080836001016000848152602001908152602001600020541415905092915050565b606081600001805480602002602001604051908101604052809291908181526020018280548015611eb757602002820191906000526020600020905b815481526020019060010190808311611ea3575b50505050509050919050565b6000826000018281548110611edb57611eda612cb8565b5b9060005260206000200154905092915050565b600081600001805490509050919050565b6000611f0b8383611e44565b611f64578260000182908060018154018082558091505060019003906000526020600020016000909190919091505582600001805490508360010160008481526020019081526020016000208190555060019050611f69565b600090505b92915050565b6040518060c001604052806000815260200160008152602001611f906120cd565b815260200160006003811115611fa957611fa861261d565b5b815260200160008152602001600081525090565b828054611fc990612fa9565b90600052602060002090601f016020900481019282611feb5760008555612032565b82601f1061200457805160ff1916838001178555612032565b82800160010185558215612032579182015b82811115612031578251825591602001919060010190612016565b5b50905061203f9190612104565b5090565b8280548282559060005260206000209081019282156120bc579160200282015b828111156120bb5782518260006101000a81548173ffffffffffffffffffffffffffffffffffffffff021916908373ffffffffffffffffffffffffffffffffffffffff16021790555091602001919060010190612063565b5b5090506120c99190612104565b5090565b604051806060016040528060608152602001600073ffffffffffffffffffffffffffffffffffffffff168152602001606081525090565b5b8082111561211d576000816000905550600101612105565b5090565b6000604051905090565b600080fd5b600080fd5b6000819050919050565b61214881612135565b811461215357600080fd5b50565b6000813590506121658161213f565b92915050565b600073ffffffffffffffffffffffffffffffffffffffff82169050919050565b60006121968261216b565b9050919050565b6121a68161218b565b81146121b157600080fd5b50565b6000813590506121c38161219d565b92915050565b600080604083850312156121e0576121df61212b565b5b60006121ee85828601612156565b92505060206121ff858286016121b4565b9150509250929050565b60008115159050919050565b61221e81612209565b82525050565b60006020820190506122396000830184612215565b92915050565b600080fd5b6000601f19601f8301169050919050565b7f4e487b7100000000000000000000000000000000000000000000000000000000600052604160045260246000fd5b61228d82612244565b810181811067ffffffffffffffff821117156122ac576122ab612255565b5b80604052505050565b60006122bf612121565b90506122cb8282612284565b919050565b600067ffffffffffffffff8211156122eb576122ea612255565b5b602082029050602081019050919050565b600080fd5b600061231461230f846122d0565b6122b5565b90508083825260208201905060208402830185811115612337576123366122fc565b5b835b81811015612360578061234c8882612156565b845260208401935050602081019050612339565b5050509392505050565b600082601f83011261237f5761237e61223f565b5b813561238f848260208601612301565b91505092915050565b6000806000606084860312156123b1576123b061212b565b5b60006123bf86828701612156565b935050602084013567ffffffffffffffff8111156123e0576123df612130565b5b6123ec8682870161236a565b925050604084013567ffffffffffffffff81111561240d5761240c612130565b5b6124198682870161236a565b9150509250925092565b6000602082840312156124395761243861212b565b5b600061244784828501612156565b91505092915050565b61245981612135565b82525050565b600081519050919050565b600082825260208201905092915050565b60005b8381101561249957808201518184015260208101905061247e565b838111156124a8576000848401525b50505050565b60006124b98261245f565b6124c3818561246a565b93506124d381856020860161247b565b6124dc81612244565b840191505092915050565b60006124f28261216b565b9050919050565b612502816124e7565b82525050565b600081519050919050565b600082825260208201905092915050565b6000819050602082019050919050565b61253d8161218b565b82525050565b600061254f8383612534565b60208301905092915050565b6000602082019050919050565b600061257382612508565b61257d8185612513565b935061258883612524565b8060005b838110156125b95781516125a08882612543565b97506125ab8361255b565b92505060018101905061258c565b5085935050505092915050565b600060608301600083015184820360008601526125e382826124ae565b91505060208301516125f860208601826124f9565b50604083015184820360408601526126108282612568565b9150508091505092915050565b7f4e487b7100000000000000000000000000000000000000000000000000000000600052602160045260246000fd5b6004811061265d5761265c61261d565b5b50565b600081905061266e8261264c565b919050565b600061267e82612660565b9050919050565b61268e81612673565b82525050565b600060c0820190506126a96000830189612450565b6126b66020830188612450565b81810360408301526126c881876125c6565b90506126d76060830186612685565b6126e46080830185612450565b6126f160a0830184612450565b979650505050505050565b600081519050919050565b600082825260208201905092915050565b6000819050602082019050919050565b61273181612135565b82525050565b6000606083016000830151848203600086015261275482826124ae565b915050602083015161276960208601826124f9565b50604083015184820360408601526127818282612568565b9150508091505092915050565b61279781612673565b82525050565b600060c0830160008301516127b56000860182612728565b5060208301516127c86020860182612728565b50604083015184820360408601526127e08282612737565b91505060608301516127f5606086018261278e565b5060808301516128086080860182612728565b5060a083015161281b60a0860182612728565b508091505092915050565b6000612832838361279d565b905092915050565b6000602082019050919050565b6000612852826126fc565b61285c8185612707565b93508360208202850161286e85612718565b8060005b858110156128aa578484038952815161288b8582612826565b94506128968361283a565b925060208a01995050600181019050612872565b50829750879550505050505092915050565b600060208201905081810360008301526128d68184612847565b905092915050565b60006020820190506128f36000830184612450565b92915050565b600067ffffffffffffffff82111561291457612913612255565b5b602082029050602081019050919050565b61292e81612209565b811461293957600080fd5b50565b60008135905061294b81612925565b92915050565b600061296461295f846128f9565b6122b5565b90508083825260208201905060208402830185811115612987576129866122fc565b5b835b818110156129b0578061299c888261293c565b845260208401935050602081019050612989565b5050509392505050565b600082601f8301126129cf576129ce61223f565b5b81356129df848260208601612951565b91505092915050565b600080600060608486031215612a0157612a0061212b565b5b6000612a0f86828701612156565b935050602084013567ffffffffffffffff811115612a3057612a2f612130565b5b612a3c8682870161236a565b925050604084013567ffffffffffffffff811115612a5d57612a5c612130565b5b612a69868287016129ba565b9150509250925092565b600081519050919050565b600082825260208201905092915050565b6000819050602082019050919050565b6000612aab8383612728565b60208301905092915050565b6000602082019050919050565b6000612acf82612a73565b612ad98185612a7e565b9350612ae483612a8f565b8060005b83811015612b15578151612afc8882612a9f565b9750612b0783612ab7565b925050600181019050612ae8565b5085935050505092915050565b60006020820190508181036000830152612b3c8184612ac4565b905092915050565b600060208284031215612b5a57612b5961212b565b5b600082013567ffffffffffffffff811115612b7857612b77612130565b5b612b848482850161236a565b91505092915050565b600060c083016000830151612ba56000860182612728565b506020830151612bb86020860182612728565b5060408301518482036040860152612bd08282612737565b9150506060830151612be5606086018261278e565b506080830151612bf86080860182612728565b5060a0830151612c0b60a0860182612728565b508091505092915050565b60006020820190508181036000830152612c308184612b8d565b905092915050565b600080fd5b600060608284031215612c5357612c52612c38565b5b81905092915050565b60008060408385031215612c7357612c7261212b565b5b6000612c8185828601612156565b925050602083013567ffffffffffffffff811115612ca257612ca1612130565b5b612cae85828601612c3d565b9150509250929050565b7f4e487b7100000000000000000000000000000000000000000000000000000000600052603260045260246000fd5b7f4e487b7100000000000000000000000000000000000000000000000000000000600052601160045260246000fd5b6000612d2182612135565b91507fffffffffffffffffffffffffffffffffffffffffffffffffffffffffffffffff821415612d5457612d53612ce7565b5b600182019050919050565b612d688161218b565b82525050565b6000604082019050612d836000830185612450565b612d906020830184612d5f565b9392505050565b600081519050612da681612925565b92915050565b600060208284031215612dc257612dc161212b565b5b6000612dd084828501612d97565b91505092915050565b600082825260208201905092915050565b7f6f6e6c7920636f6e74657374206f776e65720000000000000000000000000000600082015250565b6000612e20601283612dd9565b9150612e2b82612dea565b602082019050919050565b60006020820190508181036000830152612e4f81612e13565b9050919050565b7f7465616d496473206c656e6774682073686f756c6420626520657175616c207460008201527f6f2073636f726573206c656e6774680000000000000000000000000000000000602082015250565b6000612eb2602f83612dd9565b9150612ebd82612e56565b604082019050919050565b60006020820190508181036000830152612ee181612ea5565b9050919050565b7f636f6e7465737420646f6573206e6f7420636f6e7461696e207375636820746560008201527f616d496400000000000000000000000000000000000000000000000000000000602082015250565b6000612f44602483612dd9565b9150612f4f82612ee8565b604082019050919050565b60006020820190508181036000830152612f7381612f37565b9050919050565b7f4e487b7100000000000000000000000000000000000000000000000000000000600052602260045260246000fd5b60006002820490506001821680612fc157607f821691505b60208210811415612fd557612fd4612f7a565b5b50919050565b7f696473206c656e6774682073686f756c6420626520657175616c20776974682060008201527f726573756c7473206c656e677468000000000000000000000000000000000000602082015250565b6000613037602e83612dd9565b915061304282612fdb565b604082019050919050565b600060208201905081810360008301526130668161302a565b9050919050565b7f6f6e6c7920636f6e746573742065786973740000000000000000000000000000600082015250565b60006130a3601283612dd9565b91506130ae8261306d565b602082019050919050565b600060208201905081810360008301526130d281613096565b9050919050565b600481106130ea576130e961261d565b5b50565b60008190506130fb826130d9565b919050565b600061310b826130ed565b9050919050565b61311b81613100565b82525050565b60006040820190506131366000830185612450565b6131436020830184613112565b9392505050565b7f77726f6e6720636f6e7465737420737461746500000000000000000000000000600082015250565b6000613180601383612dd9565b915061318b8261314a565b602082019050919050565b600060208201905081810360008301526131af81613173565b9050919050565b600067ffffffffffffffff8211156131d1576131d0612255565b5b602082029050602081019050919050565b600080fd5b600080fd5b6000815190506131fb8161213f565b92915050565b600080fd5b600067ffffffffffffffff82111561322157613220612255565b5b61322a82612244565b9050602081019050919050565b600061324a61324584613206565b6122b5565b90508281526020810184848401111561326657613265613201565b5b61327184828561247b565b509392505050565b600082601f83011261328e5761328d61223f565b5b815161329e848260208601613237565b91505092915050565b600060c082840312156132bd576132bc6131e2565b5b6132c760c06122b5565b9050600082015167ffffffffffffffff8111156132e7576132e66131e7565b5b6132f384828501613279565b600083015250602082015167ffffffffffffffff811115613317576133166131e7565b5b61332384828501613279565b6020830152506040613337848285016131ec565b604083015250606061334b848285016131ec565b606083015250608061335f848285016131ec565b60808301525060a082015167ffffffffffffffff811115613383576133826131e7565b5b61338f84828501613279565b60a08301525092915050565b6000815190506133aa8161219d565b92915050565b600481106133bd57600080fd5b50565b6000815190506133cf816133b0565b92915050565b600060a082840312156133eb576133ea6131e2565b5b6133f560a06122b5565b90506000613405848285016131ec565b600083015250602082015167ffffffffffffffff811115613429576134286131e7565b5b613435848285016132a7565b60208301525060406134498482850161339b565b604083015250606061345d848285016133c0565b6060830152506080613471848285016131ec565b60808301525092915050565b600061349061348b846131b6565b6122b5565b905080838252602082019050602084028301858111156134b3576134b26122fc565b5b835b818110156134fa57805167ffffffffffffffff8111156134d8576134d761223f565b5b8086016134e589826133d5565b855260208501945050506020810190506134b5565b5050509392505050565b600082601f8301126135195761351861223f565b5b815161352984826020860161347d565b91505092915050565b6000602082840312156135485761354761212b565b5b600082015167ffffffffffffffff81111561356657613565612130565b5b61357284828501613504565b91505092915050565b7f6e6f74207175616c696669656420636f6e746573742066656500000000000000600082015250565b60006135b1601983612dd9565b91506135bc8261357b565b602082019050919050565b600060208201905081810360008301526135e0816135a4565b9050919050565b6135f0816124e7565b81146135fb57600080fd5b50565b60008135905061360d816135e7565b92915050565b6000602082840312156136295761362861212b565b5b6000613637848285016135fe565b91505092915050565b600080fd5b600080fd5b600080fd5b6000808335600160200384360303811261366c5761366b613640565b5b80840192508235915067ffffffffffffffff82111561368e5761368d613645565b5b6020830192506020820236038313156136aa576136a961364a565b5b509250929050565b6000602082840312156136c8576136c761212b565b5b60006136d6848285016121b4565b91505092915050565b7f77726f6e67207465616d20737461746500000000000000000000000000000000600082015250565b6000613715601083612dd9565b9150613720826136df565b602082019050919050565b6000602082019050818103600083015261374481613708565b9050919050565b82818337600083830152505050565b600061376d61376884613206565b6122b5565b90508281526020810184848401111561378957613788613201565b5b61379484828561374b565b509392505050565b600082601f8301126137b1576137b061223f565b5b81356137c184826020860161375a565b91505092915050565b600067ffffffffffffffff8211156137e5576137e4612255565b5b602082029050602081019050919050565b6000613809613804846137ca565b6122b5565b9050808382526020820190506020840283018581111561382c5761382b6122fc565b5b835b81811015613855578061384188826121b4565b84526020840193505060208101905061382e565b5050509392505050565b600082601f8301126138745761387361223f565b5b81356138848482602086016137f6565b91505092915050565b6000606082840312156138a3576138a26131e2565b5b6138ad60606122b5565b9050600082013567ffffffffffffffff8111156138cd576138cc6131e7565b5b6138d98482850161379c565b60008301525060206138ed848285016135fe565b602083015250604082013567ffffffffffffffff811115613911576139106131e7565b5b61391d8482850161385f565b60408301525092915050565b6000613935368361388d565b905091905056fea264697066735822122023350bae6a56ad964338c29ed7d171a8a957cc89956180a8fa724816522ca0e064736f6c634300080a0033",
  "immutableReferences": {},
  "source": "// SPDX-License-Identifier: MIT\npragma solidity ^0.8.10;\npragma experimental ABIEncoderV2;\n\nimport \"@openzeppelin/contracts/utils/structs/EnumerableSet.sol\";\nimport \"./ITeams.sol\";\nimport \"./IContests.sol\";\n\ncontract Teams is ITeams {\n    using EnumerableSet for EnumerableSet.UintSet;\n\n    IContests Contests;\n\n    constructor(address _Contests) {\n        Contests = IContests(_Contests);\n    }\n\n    //ContestId => TeamIds\n    EnumerableSet.UintSet ids;\n    //TeamId => Team\n    mapping(uint => Team) public teams;\n    uint public nextId = 1;\n\n    // index\n    //contestId + address => teamId\n    mapping(uint => mapping(address => uint)) public addressToTeamId;\n    mapping(uint => EnumerableSet.UintSet) contestTeams;\n    mapping(address => EnumerableSet.UintSet) addressToContests;\n\n    function _gets(uint [] memory _ids) internal view returns (Team [] memory) {\n        uint number = _ids.length;\n        Team [] memory result = new Team [](number);\n        for (uint i = 0; i < number; i++) {\n            result[i] = teams[_ids[i]];\n        }\n        return result;\n    }\n\n    function _add(uint contestId, ITeam calldata team) internal returns (uint) {\n        uint id = nextId;\n        ids.add(id);\n        teams[id] = Team(id, contestId, team, TeamState.APPLIED, 0, block.timestamp);\n        nextId++;\n        return id;\n    }\n\n    function applyContest(uint contestId, ITeam calldata team) external payable\n    onlyContestExist(contestId)\n    onlyContestInState(contestId, IContests.ContestState.CREATED){\n\n        // get contest\n        uint [] memory _ids = new uint [] (1);\n        _ids[0] = contestId;\n        IContests.Contest memory contest = Contests.getSome(_ids)[0];\n\n        require(msg.value == contest.info.fee, \"not qualified contest fee\");\n\n        // add index\n        addressToTeamId[contestId][team.captain] = nextId;\n        addressToContests[team.captain].add(contestId);\n        for (uint i = 0; i < team.members.length; i++) {\n            addressToTeamId[contestId][team.members[i]] = nextId;\n            addressToContests[team.members[i]].add(contestId);\n        }\n        contestTeams[contestId].add(_add(contestId, team));\n    }\n\n    function _auditTeam(uint contestId, uint teamId, bool result) internal\n    onlyContestOwner(contestId)\n    onlyContestInState(contestId, IContests.ContestState.CREATED) {\n        require(teams[teamId].state == ITeams.TeamState.APPLIED, \"wrong team state\");\n        if (result == true) {\n            teams[teamId].state = ITeams.TeamState.APPROVED;\n            return;\n        }\n        uint [] memory _ids = new uint [] (1);\n        _ids[0] = contestId;\n        IContests.Contest memory contest = Contests.getSome(_ids)[0];\n        teams[teamId].state = ITeams.TeamState.REJECTED;\n        teams[teamId].info.captain.transfer(contest.info.fee);\n    }\n    function auditTeams(uint contestId, uint [] memory _ids, bool [] memory results) external {\n        require(_ids.length == results.length,'ids length should be equal with results length');\n        for(uint i = 0; i < _ids.length; i++) {\n            _auditTeam(contestId, _ids[i], results[i]);\n        }\n    }\n\n    function updateScore(uint contestId, uint [] memory teamIds, uint [] memory scores) external\n    onlyContestOwner(contestId) {\n        require(teamIds.length == scores.length, \"teamIds length should be equal to scores length\");\n        for(uint i = 0; i < teamIds.length; i++) {\n            require(contestTeams[contestId].contains(teamIds[i]), \"contest does not contain such teamId\");\n            teams[teamIds[i]].score == scores[i];\n        }\n    }\n\n    function isTeamMember(uint teamId, address account) external view returns(bool) {\n        if(teams[teamId].info.captain == account) return true;\n        for (uint i = 0; i < teams[teamId].info.members.length; i++) {\n            if(teams[teamId].info.members[i] == account) return true;\n        }\n        return false;\n    }\n\n    function getApply() external view returns (uint [] memory) {\n        return addressToContests[msg.sender].values();\n    }\n\n    function getAll() external view returns (Team [] memory) {\n        return _gets(ids.values());\n    }\n\n    function getSome(uint [] memory _ids) external view returns (Team [] memory) {\n        return _gets(_ids);\n    }\n\n    function gets(uint contestId) external view returns (Team [] memory) {\n        return _gets(contestTeams[contestId].values());\n    }\n    function getsId(uint contestId) external view returns (uint [] memory) {\n        return contestTeams[contestId].values();\n    }\n\n    function getOne(uint contestId, address account) external view returns (Team memory) {\n        return teams[addressToTeamId[contestId][account]];\n    }\n\n    function getCount() external view returns (uint) {\n        return ids.length();\n    }\n\n    function get(uint index) external view returns (Team memory) {\n        return teams[ids.at(index)];\n    }\n\n    modifier onlyTeamExist(uint id){\n        require(ids.contains(id), \"team does not exist\");\n        _;\n    }\n\n    modifier onlyContestOwner(uint contestId){\n        require(Contests.isOwner(contestId, msg.sender), \"only contest owner\");\n        _;\n    }\n\n    modifier onlyContestExist(uint contestId){\n        require(Contests.Exist(contestId), \"only contest exist\");\n        _;\n    }\n\n    modifier onlyContestInState(uint contestId, IContests.ContestState state){\n        require(Contests.contestInState(contestId, state), \"wrong contest state\");\n        _;\n    }\n}",
  "sourcePath": "/Users/yhy/Code/GitHub/DCTF/contracts/Teams.sol",
  "compiler": {
    "name": "solc",
    "version": "0.8.10+commit.fc410830.Emscripten.clang"
  },
  "schemaVersion": "3.4.4",
  "updatedAt": "2022-02-20T05:43:51.969Z",
  "networkType": "ethereum",
  "devdoc": {
    "kind": "dev",
    "methods": {},
    "version": 1
  },
  "userdoc": {
    "kind": "user",
    "methods": {},
    "version": 1
  }
}