{
  "contractName": "Teams",
  "abi": [
    {
      "inputs": [
        {
          "internalType": "address",
          "name": "_Contests",
          "type": "address"
        }
      ],
      "stateMutability": "nonpayable",
      "type": "constructor"
    },
    {
      "inputs": [],
      "name": "nextId",
      "outputs": [
        {
          "internalType": "uint256",
          "name": "",
          "type": "uint256"
        }
      ],
      "stateMutability": "view",
      "type": "function",
      "constant": true
    },
    {
      "inputs": [
        {
          "internalType": "uint256",
          "name": "",
          "type": "uint256"
        }
      ],
      "name": "teams",
      "outputs": [
        {
          "internalType": "uint256",
          "name": "id",
          "type": "uint256"
        },
        {
          "internalType": "uint256",
          "name": "contestId",
          "type": "uint256"
        },
        {
          "components": [
            {
              "internalType": "string",
              "name": "name",
              "type": "string"
            },
            {
              "internalType": "address payable",
              "name": "captain",
              "type": "address"
            },
            {
              "internalType": "address[]",
              "name": "members",
              "type": "address[]"
            }
          ],
          "internalType": "struct ITeams.ITeam",
          "name": "teamInfo",
          "type": "tuple"
        },
        {
          "internalType": "enum ITeams.TeamState",
          "name": "state",
          "type": "uint8"
        },
        {
          "internalType": "uint256",
          "name": "timeStamp",
          "type": "uint256"
        }
      ],
      "stateMutability": "view",
      "type": "function",
      "constant": true
    },
    {
      "inputs": [
        {
          "internalType": "uint256",
          "name": "contestId",
          "type": "uint256"
        },
        {
          "components": [
            {
              "internalType": "string",
              "name": "name",
              "type": "string"
            },
            {
              "internalType": "address payable",
              "name": "captain",
              "type": "address"
            },
            {
              "internalType": "address[]",
              "name": "members",
              "type": "address[]"
            }
          ],
          "internalType": "struct ITeams.ITeam",
          "name": "team",
          "type": "tuple"
        }
      ],
      "name": "applyContest",
      "outputs": [],
      "stateMutability": "payable",
      "type": "function",
      "payable": true
    },
    {
      "inputs": [
        {
          "internalType": "uint256",
          "name": "contestId",
          "type": "uint256"
        },
        {
          "internalType": "uint256",
          "name": "teamId",
          "type": "uint256"
        },
        {
          "internalType": "bool",
          "name": "result",
          "type": "bool"
        }
      ],
      "name": "auditTeam",
      "outputs": [],
      "stateMutability": "nonpayable",
      "type": "function"
    },
    {
      "inputs": [
        {
          "internalType": "uint256",
          "name": "teamId",
          "type": "uint256"
        },
        {
          "internalType": "address",
          "name": "account",
          "type": "address"
        }
      ],
      "name": "isTeamMember",
      "outputs": [
        {
          "internalType": "bool",
          "name": "",
          "type": "bool"
        }
      ],
      "stateMutability": "view",
      "type": "function",
      "constant": true
    },
    {
      "inputs": [],
      "name": "getAll",
      "outputs": [
        {
          "components": [
            {
              "internalType": "uint256",
              "name": "id",
              "type": "uint256"
            },
            {
              "internalType": "uint256",
              "name": "contestId",
              "type": "uint256"
            },
            {
              "components": [
                {
                  "internalType": "string",
                  "name": "name",
                  "type": "string"
                },
                {
                  "internalType": "address payable",
                  "name": "captain",
                  "type": "address"
                },
                {
                  "internalType": "address[]",
                  "name": "members",
                  "type": "address[]"
                }
              ],
              "internalType": "struct ITeams.ITeam",
              "name": "teamInfo",
              "type": "tuple"
            },
            {
              "internalType": "enum ITeams.TeamState",
              "name": "state",
              "type": "uint8"
            },
            {
              "internalType": "uint256",
              "name": "timeStamp",
              "type": "uint256"
            }
          ],
          "internalType": "struct ITeams.Team[]",
          "name": "",
          "type": "tuple[]"
        }
      ],
      "stateMutability": "view",
      "type": "function",
      "constant": true
    },
    {
      "inputs": [
        {
          "internalType": "uint256[]",
          "name": "_ids",
          "type": "uint256[]"
        }
      ],
      "name": "getSome",
      "outputs": [
        {
          "components": [
            {
              "internalType": "uint256",
              "name": "id",
              "type": "uint256"
            },
            {
              "internalType": "uint256",
              "name": "contestId",
              "type": "uint256"
            },
            {
              "components": [
                {
                  "internalType": "string",
                  "name": "name",
                  "type": "string"
                },
                {
                  "internalType": "address payable",
                  "name": "captain",
                  "type": "address"
                },
                {
                  "internalType": "address[]",
                  "name": "members",
                  "type": "address[]"
                }
              ],
              "internalType": "struct ITeams.ITeam",
              "name": "teamInfo",
              "type": "tuple"
            },
            {
              "internalType": "enum ITeams.TeamState",
              "name": "state",
              "type": "uint8"
            },
            {
              "internalType": "uint256",
              "name": "timeStamp",
              "type": "uint256"
            }
          ],
          "internalType": "struct ITeams.Team[]",
          "name": "",
          "type": "tuple[]"
        }
      ],
      "stateMutability": "view",
      "type": "function",
      "constant": true
    },
    {
      "inputs": [
        {
          "internalType": "uint256",
          "name": "contestId",
          "type": "uint256"
        }
      ],
      "name": "gets",
      "outputs": [
        {
          "components": [
            {
              "internalType": "uint256",
              "name": "id",
              "type": "uint256"
            },
            {
              "internalType": "uint256",
              "name": "contestId",
              "type": "uint256"
            },
            {
              "components": [
                {
                  "internalType": "string",
                  "name": "name",
                  "type": "string"
                },
                {
                  "internalType": "address payable",
                  "name": "captain",
                  "type": "address"
                },
                {
                  "internalType": "address[]",
                  "name": "members",
                  "type": "address[]"
                }
              ],
              "internalType": "struct ITeams.ITeam",
              "name": "teamInfo",
              "type": "tuple"
            },
            {
              "internalType": "enum ITeams.TeamState",
              "name": "state",
              "type": "uint8"
            },
            {
              "internalType": "uint256",
              "name": "timeStamp",
              "type": "uint256"
            }
          ],
          "internalType": "struct ITeams.Team[]",
          "name": "",
          "type": "tuple[]"
        }
      ],
      "stateMutability": "view",
      "type": "function",
      "constant": true
    },
    {
      "inputs": [
        {
          "internalType": "uint256",
          "name": "contestId",
          "type": "uint256"
        }
      ],
      "name": "getsId",
      "outputs": [
        {
          "internalType": "uint256[]",
          "name": "",
          "type": "uint256[]"
        }
      ],
      "stateMutability": "view",
      "type": "function",
      "constant": true
    },
    {
      "inputs": [
        {
          "internalType": "uint256",
          "name": "contestId",
          "type": "uint256"
        },
        {
          "internalType": "address",
          "name": "account",
          "type": "address"
        }
      ],
      "name": "getOne",
      "outputs": [
        {
          "components": [
            {
              "internalType": "uint256",
              "name": "id",
              "type": "uint256"
            },
            {
              "internalType": "uint256",
              "name": "contestId",
              "type": "uint256"
            },
            {
              "components": [
                {
                  "internalType": "string",
                  "name": "name",
                  "type": "string"
                },
                {
                  "internalType": "address payable",
                  "name": "captain",
                  "type": "address"
                },
                {
                  "internalType": "address[]",
                  "name": "members",
                  "type": "address[]"
                }
              ],
              "internalType": "struct ITeams.ITeam",
              "name": "teamInfo",
              "type": "tuple"
            },
            {
              "internalType": "enum ITeams.TeamState",
              "name": "state",
              "type": "uint8"
            },
            {
              "internalType": "uint256",
              "name": "timeStamp",
              "type": "uint256"
            }
          ],
          "internalType": "struct ITeams.Team",
          "name": "",
          "type": "tuple"
        }
      ],
      "stateMutability": "view",
      "type": "function",
      "constant": true
    },
    {
      "inputs": [],
      "name": "getCount",
      "outputs": [
        {
          "internalType": "uint256",
          "name": "",
          "type": "uint256"
        }
      ],
      "stateMutability": "view",
      "type": "function",
      "constant": true
    },
    {
      "inputs": [
        {
          "internalType": "uint256",
          "name": "index",
          "type": "uint256"
        }
      ],
      "name": "get",
      "outputs": [
        {
          "components": [
            {
              "internalType": "uint256",
              "name": "id",
              "type": "uint256"
            },
            {
              "internalType": "uint256",
              "name": "contestId",
              "type": "uint256"
            },
            {
              "components": [
                {
                  "internalType": "string",
                  "name": "name",
                  "type": "string"
                },
                {
                  "internalType": "address payable",
                  "name": "captain",
                  "type": "address"
                },
                {
                  "internalType": "address[]",
                  "name": "members",
                  "type": "address[]"
                }
              ],
              "internalType": "struct ITeams.ITeam",
              "name": "teamInfo",
              "type": "tuple"
            },
            {
              "internalType": "enum ITeams.TeamState",
              "name": "state",
              "type": "uint8"
            },
            {
              "internalType": "uint256",
              "name": "timeStamp",
              "type": "uint256"
            }
          ],
          "internalType": "struct ITeams.Team",
          "name": "",
          "type": "tuple"
        }
      ],
      "stateMutability": "view",
      "type": "function",
      "constant": true
    }
  ],
  "bytecode": "0x608060405260016004553480156200001657600080fd5b5060405162002f5338038062002f5383398181016040528101906200003c9190620000ed565b806000806101000a81548173ffffffffffffffffffffffffffffffffffffffff021916908373ffffffffffffffffffffffffffffffffffffffff160217905550506200011f565b600080fd5b600073ffffffffffffffffffffffffffffffffffffffff82169050919050565b6000620000b58262000088565b9050919050565b620000c781620000a8565b8114620000d357600080fd5b50565b600081519050620000e781620000bc565b92915050565b60006020828403121562000106576200010562000083565b5b60006200011684828501620000d6565b91505092915050565b612e24806200012f6000396000f3fe6080604052600436106100a75760003560e01c80639507d39a116100645780639507d39a146101e657806397b270fd14610223578063a87d942c14610260578063b1d6046d1461028b578063d30f3f48146102a7578063f640a006146102e4576100a7565b806301738281146100ac5780633ed2b77a146100e957806353ed51431461012a57806361b8ce8c146101555780638324180314610180578063879c04ce146101bd575b600080fd5b3480156100b857600080fd5b506100d360048036038101906100ce9190611ac8565b610321565b6040516100e09190611b23565b60405180910390f35b3480156100f557600080fd5b50610110600480360381019061010b9190611b3e565b610472565b604051610121959493929190611dc0565b60405180910390f35b34801561013657600080fd5b5061013f610635565b60405161014c9190611fc7565b60405180910390f35b34801561016157600080fd5b5061016a61064e565b6040516101779190611fe9565b60405180910390f35b34801561018c57600080fd5b506101a760048036038101906101a2919061214c565b610654565b6040516101b49190611fc7565b60405180910390f35b3480156101c957600080fd5b506101e460048036038101906101df91906121c1565b610666565b005b3480156101f257600080fd5b5061020d60048036038101906102089190611b3e565b610a1a565b60405161021a919061228a565b60405180910390f35b34801561022f57600080fd5b5061024a60048036038101906102459190611ac8565b610c3d565b604051610257919061228a565b60405180910390f35b34801561026c57600080fd5b50610275610e9e565b6040516102829190611fe9565b60405180910390f35b6102a560048036038101906102a091906122d0565b610eaf565b005b3480156102b357600080fd5b506102ce60048036038101906102c99190611b3e565b61125c565b6040516102db9190611fc7565b60405180910390f35b3480156102f057600080fd5b5061030b60048036038101906103069190611b3e565b611288565b60405161031891906123db565b60405180910390f35b60008173ffffffffffffffffffffffffffffffffffffffff166003600085815260200190815260200160002060020160010160009054906101000a900473ffffffffffffffffffffffffffffffffffffffff1673ffffffffffffffffffffffffffffffffffffffff161415610399576001905061046c565b60005b6003600085815260200190815260200160002060020160020180549050811015610466578273ffffffffffffffffffffffffffffffffffffffff16600360008681526020019081526020016000206002016002018281548110610402576104016123fd565b5b9060005260206000200160009054906101000a900473ffffffffffffffffffffffffffffffffffffffff1673ffffffffffffffffffffffffffffffffffffffff16141561045357600191505061046c565b808061045e9061245b565b91505061039c565b50600090505b92915050565b6003602052806000526040600020600091509050806000015490806001015490806002016040518060600160405290816000820180546104b1906124d3565b80601f01602080910402602001604051908101604052809291908181526020018280546104dd906124d3565b801561052a5780601f106104ff5761010080835404028352916020019161052a565b820191906000526020600020905b81548152906001019060200180831161050d57829003601f168201915b505050505081526020016001820160009054906101000a900473ffffffffffffffffffffffffffffffffffffffff1673ffffffffffffffffffffffffffffffffffffffff1673ffffffffffffffffffffffffffffffffffffffff1681526020016002820180548060200260200160405190810160405280929190818152602001828054801561060e57602002820191906000526020600020905b8160009054906101000a900473ffffffffffffffffffffffffffffffffffffffff1673ffffffffffffffffffffffffffffffffffffffff16815260200190600101908083116105c4575b505050505081525050908060050160009054906101000a900460ff16908060060154905085565b606061064961064460016112ac565b6112cd565b905090565b60045481565b606061065f826112cd565b9050919050565b8260008054906101000a900473ffffffffffffffffffffffffffffffffffffffff1673ffffffffffffffffffffffffffffffffffffffff16635a5d096c82336040518363ffffffff1660e01b81526004016106c2929190612514565b602060405180830381865afa1580156106df573d6000803e3d6000fd5b505050506040513d601f19601f820116820180604052508101906107039190612552565b610742576040517f08c379a0000000000000000000000000000000000000000000000000000000008152600401610739906125dc565b60405180910390fd5b6001600381111561075657610755611d49565b5b6003600085815260200190815260200160002060050160009054906101000a900460ff16600381111561078c5761078b611d49565b5b146107cc576040517f08c379a00000000000000000000000000000000000000000000000000000000081526004016107c390612648565b60405180910390fd5b60011515821515141561081d5760026003600085815260200190815260200160002060050160006101000a81548160ff0219169083600381111561081357610812611d49565b5b0217905550610a14565b6000600167ffffffffffffffff81111561083a57610839612009565b5b6040519080825280602002602001820160405280156108685781602001602082028036833780820191505090505b50905084816000815181106108805761087f6123fd565b5b60200260200101818152505060008060009054906101000a900473ffffffffffffffffffffffffffffffffffffffff1673ffffffffffffffffffffffffffffffffffffffff166383241803836040518263ffffffff1660e01b81526004016108e891906123db565b600060405180830381865afa158015610905573d6000803e3d6000fd5b505050506040513d6000823e3d601f19601f8201168201806040525081019061092e91906129e4565b600081518110610941576109406123fd565b5b60200260200101519050600380600087815260200190815260200160002060050160006101000a81548160ff0219169083600381111561098457610983611d49565b5b02179055506003600086815260200190815260200160002060020160010160009054906101000a900473ffffffffffffffffffffffffffffffffffffffff1673ffffffffffffffffffffffffffffffffffffffff166108fc8260200151604001519081150290604051600060405180830381858888f19350505050158015610a10573d6000803e3d6000fd5b5050505b50505050565b610a22611875565b60036000610a3a84600161158f90919063ffffffff16565b81526020019081526020016000206040518060a0016040529081600082015481526020016001820154815260200160028201604051806060016040529081600082018054610a87906124d3565b80601f0160208091040260200160405190810160405280929190818152602001828054610ab3906124d3565b8015610b005780601f10610ad557610100808354040283529160200191610b00565b820191906000526020600020905b815481529060010190602001808311610ae357829003601f168201915b505050505081526020016001820160009054906101000a900473ffffffffffffffffffffffffffffffffffffffff1673ffffffffffffffffffffffffffffffffffffffff1673ffffffffffffffffffffffffffffffffffffffff16815260200160028201805480602002602001604051908101604052809291908181526020018280548015610be457602002820191906000526020600020905b8160009054906101000a900473ffffffffffffffffffffffffffffffffffffffff1673ffffffffffffffffffffffffffffffffffffffff1681526020019060010190808311610b9a575b50505050508152505081526020016005820160009054906101000a900460ff166003811115610c1657610c15611d49565b5b6003811115610c2857610c27611d49565b5b81526020016006820154815250509050919050565b610c45611875565b600360006005600086815260200190815260200160002060008573ffffffffffffffffffffffffffffffffffffffff1673ffffffffffffffffffffffffffffffffffffffff1681526020019081526020016000205481526020019081526020016000206040518060a0016040529081600082015481526020016001820154815260200160028201604051806060016040529081600082018054610ce7906124d3565b80601f0160208091040260200160405190810160405280929190818152602001828054610d13906124d3565b8015610d605780601f10610d3557610100808354040283529160200191610d60565b820191906000526020600020905b815481529060010190602001808311610d4357829003601f168201915b505050505081526020016001820160009054906101000a900473ffffffffffffffffffffffffffffffffffffffff1673ffffffffffffffffffffffffffffffffffffffff1673ffffffffffffffffffffffffffffffffffffffff16815260200160028201805480602002602001604051908101604052809291908181526020018280548015610e4457602002820191906000526020600020905b8160009054906101000a900473ffffffffffffffffffffffffffffffffffffffff1673ffffffffffffffffffffffffffffffffffffffff1681526020019060010190808311610dfa575b50505050508152505081526020016005820160009054906101000a900460ff166003811115610e7657610e75611d49565b5b6003811115610e8857610e87611d49565b5b8152602001600682015481525050905092915050565b6000610eaa60016115a9565b905090565b8160008054906101000a900473ffffffffffffffffffffffffffffffffffffffff1673ffffffffffffffffffffffffffffffffffffffff1663e4dc1491826040518263ffffffff1660e01b8152600401610f099190611fe9565b602060405180830381865afa158015610f26573d6000803e3d6000fd5b505050506040513d601f19601f82011682018060405250810190610f4a9190612552565b610f89576040517f08c379a0000000000000000000000000000000000000000000000000000000008152600401610f8090612a79565b60405180910390fd5b6000600167ffffffffffffffff811115610fa657610fa5612009565b5b604051908082528060200260200182016040528015610fd45781602001602082028036833780820191505090505b5090508381600081518110610fec57610feb6123fd565b5b60200260200101818152505060008060009054906101000a900473ffffffffffffffffffffffffffffffffffffffff1673ffffffffffffffffffffffffffffffffffffffff166383241803836040518263ffffffff1660e01b815260040161105491906123db565b600060405180830381865afa158015611071573d6000803e3d6000fd5b505050506040513d6000823e3d601f19601f8201168201806040525081019061109a91906129e4565b6000815181106110ad576110ac6123fd565b5b602002602001015190508060200151604001513414611101576040517f08c379a00000000000000000000000000000000000000000000000000000000081526004016110f890612ae5565b60405180910390fd5b60045460056000878152602001908152602001600020600086602001602081019061112c9190612b31565b73ffffffffffffffffffffffffffffffffffffffff1673ffffffffffffffffffffffffffffffffffffffff1681526020019081526020016000208190555060005b84806040019061117d9190612b6d565b9050811015611225576004546005600088815260200190815260200160002060008780604001906111ae9190612b6d565b858181106111bf576111be6123fd565b5b90506020020160208101906111d49190612bd0565b73ffffffffffffffffffffffffffffffffffffffff1673ffffffffffffffffffffffffffffffffffffffff16815260200190815260200160002081905550808061121d9061245b565b91505061116d565b5061125461123386866115be565b6006600088815260200190815260200160002061173090919063ffffffff16565b505050505050565b606061128161127c600660008581526020019081526020016000206112ac565b6112cd565b9050919050565b60606112a5600660008481526020019081526020016000206112ac565b9050919050565b606060006112bc8360000161174a565b905060608190508092505050919050565b606060008251905060008167ffffffffffffffff8111156112f1576112f0612009565b5b60405190808252806020026020018201604052801561132a57816020015b611317611875565b81526020019060019003908161130f5790505b50905060005b82811015611584576003600086838151811061134f5761134e6123fd565b5b602002602001015181526020019081526020016000206040518060a00160405290816000820154815260200160018201548152602001600282016040518060600160405290816000820180546113a4906124d3565b80601f01602080910402602001604051908101604052809291908181526020018280546113d0906124d3565b801561141d5780601f106113f25761010080835404028352916020019161141d565b820191906000526020600020905b81548152906001019060200180831161140057829003601f168201915b505050505081526020016001820160009054906101000a900473ffffffffffffffffffffffffffffffffffffffff1673ffffffffffffffffffffffffffffffffffffffff1673ffffffffffffffffffffffffffffffffffffffff1681526020016002820180548060200260200160405190810160405280929190818152602001828054801561150157602002820191906000526020600020905b8160009054906101000a900473ffffffffffffffffffffffffffffffffffffffff1673ffffffffffffffffffffffffffffffffffffffff16815260200190600101908083116114b7575b50505050508152505081526020016005820160009054906101000a900460ff16600381111561153357611532611d49565b5b600381111561154557611544611d49565b5b8152602001600682015481525050828281518110611566576115656123fd565b5b6020026020010181905250808061157c9061245b565b915050611330565b508092505050919050565b600061159e83600001836117a6565b60001c905092915050565b60006115b7826000016117d1565b9050919050565b60008060045490506115da81600161173090919063ffffffff16565b506040518060a00160405280828152602001858152602001846115fc90612ddb565b81526020016001600381111561161557611614611d49565b5b815260200142815250600360008381526020019081526020016000206000820151816000015560208201518160010155604082015181600201600082015181600001908051906020019061166a9291906118bc565b5060208201518160010160006101000a81548173ffffffffffffffffffffffffffffffffffffffff021916908373ffffffffffffffffffffffffffffffffffffffff16021790555060408201518160020190805190602001906116ce929190611942565b50505060608201518160050160006101000a81548160ff021916908360038111156116fc576116fb611d49565b5b021790555060808201518160060155905050600460008154809291906117219061245b565b91905055508091505092915050565b6000611742836000018360001b6117e2565b905092915050565b60608160000180548060200260200160405190810160405280929190818152602001828054801561179a57602002820191906000526020600020905b815481526020019060010190808311611786575b50505050509050919050565b60008260000182815481106117be576117bd6123fd565b5b9060005260206000200154905092915050565b600081600001805490509050919050565b60006117ee8383611852565b61184757826000018290806001815401808255809150506001900390600052602060002001600090919091909150558260000180549050836001016000848152602001908152602001600020819055506001905061184c565b600090505b92915050565b600080836001016000848152602001908152602001600020541415905092915050565b6040518060a0016040528060008152602001600081526020016118966119cc565b8152602001600060038111156118af576118ae611d49565b5b8152602001600081525090565b8280546118c8906124d3565b90600052602060002090601f0160209004810192826118ea5760008555611931565b82601f1061190357805160ff1916838001178555611931565b82800160010185558215611931579182015b82811115611930578251825591602001919060010190611915565b5b50905061193e9190611a03565b5090565b8280548282559060005260206000209081019282156119bb579160200282015b828111156119ba5782518260006101000a81548173ffffffffffffffffffffffffffffffffffffffff021916908373ffffffffffffffffffffffffffffffffffffffff16021790555091602001919060010190611962565b5b5090506119c89190611a03565b5090565b604051806060016040528060608152602001600073ffffffffffffffffffffffffffffffffffffffff168152602001606081525090565b5b80821115611a1c576000816000905550600101611a04565b5090565b6000604051905090565b600080fd5b600080fd5b6000819050919050565b611a4781611a34565b8114611a5257600080fd5b50565b600081359050611a6481611a3e565b92915050565b600073ffffffffffffffffffffffffffffffffffffffff82169050919050565b6000611a9582611a6a565b9050919050565b611aa581611a8a565b8114611ab057600080fd5b50565b600081359050611ac281611a9c565b92915050565b60008060408385031215611adf57611ade611a2a565b5b6000611aed85828601611a55565b9250506020611afe85828601611ab3565b9150509250929050565b60008115159050919050565b611b1d81611b08565b82525050565b6000602082019050611b386000830184611b14565b92915050565b600060208284031215611b5457611b53611a2a565b5b6000611b6284828501611a55565b91505092915050565b611b7481611a34565b82525050565b600081519050919050565b600082825260208201905092915050565b60005b83811015611bb4578082015181840152602081019050611b99565b83811115611bc3576000848401525b50505050565b6000601f19601f8301169050919050565b6000611be582611b7a565b611bef8185611b85565b9350611bff818560208601611b96565b611c0881611bc9565b840191505092915050565b6000611c1e82611a6a565b9050919050565b611c2e81611c13565b82525050565b600081519050919050565b600082825260208201905092915050565b6000819050602082019050919050565b611c6981611a8a565b82525050565b6000611c7b8383611c60565b60208301905092915050565b6000602082019050919050565b6000611c9f82611c34565b611ca98185611c3f565b9350611cb483611c50565b8060005b83811015611ce5578151611ccc8882611c6f565b9750611cd783611c87565b925050600181019050611cb8565b5085935050505092915050565b60006060830160008301518482036000860152611d0f8282611bda565b9150506020830151611d246020860182611c25565b5060408301518482036040860152611d3c8282611c94565b9150508091505092915050565b7f4e487b7100000000000000000000000000000000000000000000000000000000600052602160045260246000fd5b60048110611d8957611d88611d49565b5b50565b6000819050611d9a82611d78565b919050565b6000611daa82611d8c565b9050919050565b611dba81611d9f565b82525050565b600060a082019050611dd56000830188611b6b565b611de26020830187611b6b565b8181036040830152611df48186611cf2565b9050611e036060830185611db1565b611e106080830184611b6b565b9695505050505050565b600081519050919050565b600082825260208201905092915050565b6000819050602082019050919050565b611e4f81611a34565b82525050565b60006060830160008301518482036000860152611e728282611bda565b9150506020830151611e876020860182611c25565b5060408301518482036040860152611e9f8282611c94565b9150508091505092915050565b611eb581611d9f565b82525050565b600060a083016000830151611ed36000860182611e46565b506020830151611ee66020860182611e46565b5060408301518482036040860152611efe8282611e55565b9150506060830151611f136060860182611eac565b506080830151611f266080860182611e46565b508091505092915050565b6000611f3d8383611ebb565b905092915050565b6000602082019050919050565b6000611f5d82611e1a565b611f678185611e25565b935083602082028501611f7985611e36565b8060005b85811015611fb55784840389528151611f968582611f31565b9450611fa183611f45565b925060208a01995050600181019050611f7d565b50829750879550505050505092915050565b60006020820190508181036000830152611fe18184611f52565b905092915050565b6000602082019050611ffe6000830184611b6b565b92915050565b600080fd5b7f4e487b7100000000000000000000000000000000000000000000000000000000600052604160045260246000fd5b61204182611bc9565b810181811067ffffffffffffffff821117156120605761205f612009565b5b80604052505050565b6000612073611a20565b905061207f8282612038565b919050565b600067ffffffffffffffff82111561209f5761209e612009565b5b602082029050602081019050919050565b600080fd5b60006120c86120c384612084565b612069565b905080838252602082019050602084028301858111156120eb576120ea6120b0565b5b835b8181101561211457806121008882611a55565b8452602084019350506020810190506120ed565b5050509392505050565b600082601f83011261213357612132612004565b5b81356121438482602086016120b5565b91505092915050565b60006020828403121561216257612161611a2a565b5b600082013567ffffffffffffffff8111156121805761217f611a2f565b5b61218c8482850161211e565b91505092915050565b61219e81611b08565b81146121a957600080fd5b50565b6000813590506121bb81612195565b92915050565b6000806000606084860312156121da576121d9611a2a565b5b60006121e886828701611a55565b93505060206121f986828701611a55565b925050604061220a868287016121ac565b9150509250925092565b600060a08301600083015161222c6000860182611e46565b50602083015161223f6020860182611e46565b50604083015184820360408601526122578282611e55565b915050606083015161226c6060860182611eac565b50608083015161227f6080860182611e46565b508091505092915050565b600060208201905081810360008301526122a48184612214565b905092915050565b600080fd5b6000606082840312156122c7576122c66122ac565b5b81905092915050565b600080604083850312156122e7576122e6611a2a565b5b60006122f585828601611a55565b925050602083013567ffffffffffffffff81111561231657612315611a2f565b5b612322858286016122b1565b9150509250929050565b600081519050919050565b600082825260208201905092915050565b6000819050602082019050919050565b60006123648383611e46565b60208301905092915050565b6000602082019050919050565b60006123888261232c565b6123928185612337565b935061239d83612348565b8060005b838110156123ce5781516123b58882612358565b97506123c083612370565b9250506001810190506123a1565b5085935050505092915050565b600060208201905081810360008301526123f5818461237d565b905092915050565b7f4e487b7100000000000000000000000000000000000000000000000000000000600052603260045260246000fd5b7f4e487b7100000000000000000000000000000000000000000000000000000000600052601160045260246000fd5b600061246682611a34565b91507fffffffffffffffffffffffffffffffffffffffffffffffffffffffffffffffff8214156124995761249861242c565b5b600182019050919050565b7f4e487b7100000000000000000000000000000000000000000000000000000000600052602260045260246000fd5b600060028204905060018216806124eb57607f821691505b602082108114156124ff576124fe6124a4565b5b50919050565b61250e81611a8a565b82525050565b60006040820190506125296000830185611b6b565b6125366020830184612505565b9392505050565b60008151905061254c81612195565b92915050565b60006020828403121561256857612567611a2a565b5b60006125768482850161253d565b91505092915050565b600082825260208201905092915050565b7f6f6e6c7920636f6e74657374206f776e65720000000000000000000000000000600082015250565b60006125c660128361257f565b91506125d182612590565b602082019050919050565b600060208201905081810360008301526125f5816125b9565b9050919050565b7f77726f6e67207465616d20737461746500000000000000000000000000000000600082015250565b600061263260108361257f565b915061263d826125fc565b602082019050919050565b6000602082019050818103600083015261266181612625565b9050919050565b600067ffffffffffffffff82111561268357612682612009565b5b602082029050602081019050919050565b600080fd5b600080fd5b6000815190506126ad81611a3e565b92915050565b600080fd5b600067ffffffffffffffff8211156126d3576126d2612009565b5b6126dc82611bc9565b9050602081019050919050565b60006126fc6126f7846126b8565b612069565b905082815260208101848484011115612718576127176126b3565b5b612723848285611b96565b509392505050565b600082601f8301126127405761273f612004565b5b81516127508482602086016126e9565b91505092915050565b600060c0828403121561276f5761276e612694565b5b61277960c0612069565b9050600082015167ffffffffffffffff81111561279957612798612699565b5b6127a58482850161272b565b600083015250602082015167ffffffffffffffff8111156127c9576127c8612699565b5b6127d58482850161272b565b60208301525060406127e98482850161269e565b60408301525060606127fd8482850161269e565b60608301525060806128118482850161269e565b60808301525060a082015167ffffffffffffffff81111561283557612834612699565b5b6128418482850161272b565b60a08301525092915050565b60008151905061285c81611a9c565b92915050565b6004811061286f57600080fd5b50565b60008151905061288181612862565b92915050565b600060a0828403121561289d5761289c612694565b5b6128a760a0612069565b905060006128b78482850161269e565b600083015250602082015167ffffffffffffffff8111156128db576128da612699565b5b6128e784828501612759565b60208301525060406128fb8482850161284d565b604083015250606061290f84828501612872565b60608301525060806129238482850161269e565b60808301525092915050565b600061294261293d84612668565b612069565b90508083825260208201905060208402830185811115612965576129646120b0565b5b835b818110156129ac57805167ffffffffffffffff81111561298a57612989612004565b5b8086016129978982612887565b85526020850194505050602081019050612967565b5050509392505050565b600082601f8301126129cb576129ca612004565b5b81516129db84826020860161292f565b91505092915050565b6000602082840312156129fa576129f9611a2a565b5b600082015167ffffffffffffffff811115612a1857612a17611a2f565b5b612a24848285016129b6565b91505092915050565b7f6f6e6c7920636f6e746573742065786973740000000000000000000000000000600082015250565b6000612a6360128361257f565b9150612a6e82612a2d565b602082019050919050565b60006020820190508181036000830152612a9281612a56565b9050919050565b7f6e6f74207175616c696669656420636f6e746573742066656500000000000000600082015250565b6000612acf60198361257f565b9150612ada82612a99565b602082019050919050565b60006020820190508181036000830152612afe81612ac2565b9050919050565b612b0e81611c13565b8114612b1957600080fd5b50565b600081359050612b2b81612b05565b92915050565b600060208284031215612b4757612b46611a2a565b5b6000612b5584828501612b1c565b91505092915050565b600080fd5b600080fd5b600080fd5b60008083356001602003843603038112612b8a57612b89612b5e565b5b80840192508235915067ffffffffffffffff821115612bac57612bab612b63565b5b602083019250602082023603831315612bc857612bc7612b68565b5b509250929050565b600060208284031215612be657612be5611a2a565b5b6000612bf484828501611ab3565b91505092915050565b82818337600083830152505050565b6000612c1f612c1a846126b8565b612069565b905082815260208101848484011115612c3b57612c3a6126b3565b5b612c46848285612bfd565b509392505050565b600082601f830112612c6357612c62612004565b5b8135612c73848260208601612c0c565b91505092915050565b600067ffffffffffffffff821115612c9757612c96612009565b5b602082029050602081019050919050565b6000612cbb612cb684612c7c565b612069565b90508083825260208201905060208402830185811115612cde57612cdd6120b0565b5b835b81811015612d075780612cf38882611ab3565b845260208401935050602081019050612ce0565b5050509392505050565b600082601f830112612d2657612d25612004565b5b8135612d36848260208601612ca8565b91505092915050565b600060608284031215612d5557612d54612694565b5b612d5f6060612069565b9050600082013567ffffffffffffffff811115612d7f57612d7e612699565b5b612d8b84828501612c4e565b6000830152506020612d9f84828501612b1c565b602083015250604082013567ffffffffffffffff811115612dc357612dc2612699565b5b612dcf84828501612d11565b60408301525092915050565b6000612de73683612d3f565b905091905056fea26469706673582212205af50c9d7d1ff3487348965da88dd34e2b7c98bbaa3fb2d1599ee90b027bd27f64736f6c634300080a0033",
  "immutableReferences": {},
  "source": "// SPDX-License-Identifier: MIT\npragma solidity ^0.8.10;\npragma experimental ABIEncoderV2;\n\nimport \"@openzeppelin/contracts/access/IAccessControl.sol\";\nimport \"@openzeppelin/contracts/utils/structs/EnumerableSet.sol\";\nimport \"./ITeams.sol\";\nimport \"./IContests.sol\";\n\ncontract Teams is ITeams {\n    using EnumerableSet for EnumerableSet.UintSet;\n\n    IContests Contests;\n\n    constructor(address _Contests) {\n        Contests = IContests(_Contests);\n    }\n\n    //ContestId => TeamIds\n    EnumerableSet.UintSet ids;\n    //TeamId => Team\n    mapping(uint => Team) public teams;\n    uint public nextId = 1;\n\n    // index\n    //contestId + address => teamId\n    mapping(uint => mapping(address => uint)) addressToTeamId;\n    mapping(uint => EnumerableSet.UintSet) contestTeams;\n\n    function _gets(uint [] memory _ids) internal view returns (Team [] memory) {\n        uint number = _ids.length;\n        Team [] memory result = new Team [](number);\n        for (uint i = 0; i < number; i++) {\n            result[i] = teams[_ids[i]];\n        }\n        return result;\n    }\n\n    function _add(uint contestId, ITeam calldata team) internal returns (uint) {\n        uint id = nextId;\n        ids.add(id);\n        teams[id] = Team(id, contestId, team, TeamState.APPLIED, block.timestamp);\n        nextId++;\n        return id;\n    }\n\n    function applyContest(uint contestId, ITeam calldata team) external payable\n    onlyContestExist(contestId) {\n        uint [] memory _ids = new uint [] (1);\n        _ids[0] = contestId;\n        IContests.Contest memory contest = Contests.getSome(_ids)[0];\n        require(msg.value == contest.contestInfo.fee, \"not qualified contest fee\");\n        addressToTeamId[contestId][team.captain] = nextId;\n        for (uint i = 0; i < team.members.length; i++) {\n            addressToTeamId[contestId][team.members[i]] = nextId;\n        }\n        contestTeams[contestId].add(_add(contestId, team));\n    }\n\n    function auditTeam(uint contestId, uint teamId, bool result) external\n    onlyContestOwner(contestId) {\n        require(teams[teamId].state == ITeams.TeamState.APPLIED, \"wrong team state\");\n        if (result == true) {\n            teams[teamId].state = ITeams.TeamState.APPROVED;\n            return;\n        }\n        uint [] memory _ids = new uint [] (1);\n        _ids[0] = contestId;\n        IContests.Contest memory contest = Contests.getSome(_ids)[0];\n        teams[teamId].state = ITeams.TeamState.REJECTED;\n        teams[teamId].teamInfo.captain.transfer(contest.contestInfo.fee);\n    }\n\n    function isTeamMember(uint teamId, address account) external view returns(bool) {\n        if(teams[teamId].teamInfo.captain == account) return true;\n        for (uint i = 0; i < teams[teamId].teamInfo.members.length; i++) {\n            if(teams[teamId].teamInfo.members[i] == account) return true;\n        }\n        return false;\n    }\n\n    function getAll() external view returns (Team [] memory) {\n        return _gets(ids.values());\n    }\n\n    function getSome(uint [] memory _ids) external view returns (Team [] memory) {\n        return _gets(_ids);\n    }\n\n    function gets(uint contestId) external view returns (Team [] memory) {\n        return _gets(contestTeams[contestId].values());\n    }\n    function getsId(uint contestId) external view returns (uint [] memory) {\n        return contestTeams[contestId].values();\n    }\n\n    function getOne(uint contestId, address account) external view returns (Team memory) {\n        return teams[addressToTeamId[contestId][account]];\n    }\n\n    function getCount() external view returns (uint) {\n        return ids.length();\n    }\n\n    function get(uint index) external view returns (Team memory) {\n        return teams[ids.at(index)];\n    }\n\n    modifier onlyTeamExist(uint id){\n        require(ids.contains(id), \"team does not exist\");\n        _;\n    }\n\n    modifier onlyContestOwner(uint contestId){\n        require(Contests.isOwner(contestId, msg.sender), \"only contest owner\");\n        _;\n    }\n\n    modifier onlyContestExist(uint contestId){\n        require(Contests.Exist(contestId), \"only contest exist\");\n        _;\n    }\n}",
  "sourcePath": "/Users/yhy/Code/GitHub/DCTF/contracts/Teams.sol",
  "compiler": {
    "name": "solc",
    "version": "0.8.10+commit.fc410830.Emscripten.clang"
  },
  "schemaVersion": "3.4.4",
  "updatedAt": "2022-02-16T09:02:01.622Z",
  "networkType": "ethereum",
  "devdoc": {
    "kind": "dev",
    "methods": {},
    "version": 1
  },
  "userdoc": {
    "kind": "user",
    "methods": {},
    "version": 1
  }
}