{
  "contractName": "Teams",
  "abi": [
    {
      "inputs": [
        {
          "internalType": "address",
          "name": "_Contests",
          "type": "address"
        }
      ],
      "stateMutability": "nonpayable",
      "type": "constructor"
    },
    {
      "inputs": [
        {
          "internalType": "uint256",
          "name": "",
          "type": "uint256"
        },
        {
          "internalType": "address",
          "name": "",
          "type": "address"
        }
      ],
      "name": "addressToTeamId",
      "outputs": [
        {
          "internalType": "uint256",
          "name": "",
          "type": "uint256"
        }
      ],
      "stateMutability": "view",
      "type": "function",
      "constant": true
    },
    {
      "inputs": [],
      "name": "nextId",
      "outputs": [
        {
          "internalType": "uint256",
          "name": "",
          "type": "uint256"
        }
      ],
      "stateMutability": "view",
      "type": "function",
      "constant": true
    },
    {
      "inputs": [
        {
          "internalType": "uint256",
          "name": "",
          "type": "uint256"
        }
      ],
      "name": "teams",
      "outputs": [
        {
          "internalType": "uint256",
          "name": "id",
          "type": "uint256"
        },
        {
          "internalType": "uint256",
          "name": "contestId",
          "type": "uint256"
        },
        {
          "components": [
            {
              "internalType": "string",
              "name": "name",
              "type": "string"
            },
            {
              "internalType": "address payable",
              "name": "captain",
              "type": "address"
            },
            {
              "internalType": "address[]",
              "name": "members",
              "type": "address[]"
            }
          ],
          "internalType": "struct ITeams.ITeam",
          "name": "info",
          "type": "tuple"
        },
        {
          "internalType": "enum ITeams.TeamState",
          "name": "state",
          "type": "uint8"
        },
        {
          "internalType": "uint256",
          "name": "timeStamp",
          "type": "uint256"
        }
      ],
      "stateMutability": "view",
      "type": "function",
      "constant": true
    },
    {
      "inputs": [
        {
          "internalType": "uint256",
          "name": "contestId",
          "type": "uint256"
        },
        {
          "components": [
            {
              "internalType": "string",
              "name": "name",
              "type": "string"
            },
            {
              "internalType": "address payable",
              "name": "captain",
              "type": "address"
            },
            {
              "internalType": "address[]",
              "name": "members",
              "type": "address[]"
            }
          ],
          "internalType": "struct ITeams.ITeam",
          "name": "team",
          "type": "tuple"
        }
      ],
      "name": "add",
      "outputs": [],
      "stateMutability": "payable",
      "type": "function",
      "payable": true
    },
    {
      "inputs": [],
      "name": "getMyContestIds",
      "outputs": [
        {
          "internalType": "uint256[]",
          "name": "",
          "type": "uint256[]"
        }
      ],
      "stateMutability": "view",
      "type": "function",
      "constant": true
    },
    {
      "inputs": [
        {
          "internalType": "uint256",
          "name": "contestId",
          "type": "uint256"
        }
      ],
      "name": "getMyTeamId",
      "outputs": [
        {
          "internalType": "uint256",
          "name": "",
          "type": "uint256"
        }
      ],
      "stateMutability": "view",
      "type": "function",
      "constant": true
    },
    {
      "inputs": [
        {
          "internalType": "uint256",
          "name": "contestId",
          "type": "uint256"
        }
      ],
      "name": "getContestTeamIds",
      "outputs": [
        {
          "internalType": "uint256[]",
          "name": "",
          "type": "uint256[]"
        }
      ],
      "stateMutability": "view",
      "type": "function",
      "constant": true
    },
    {
      "inputs": [],
      "name": "getCount",
      "outputs": [
        {
          "internalType": "uint256",
          "name": "",
          "type": "uint256"
        }
      ],
      "stateMutability": "view",
      "type": "function",
      "constant": true
    },
    {
      "inputs": [
        {
          "internalType": "uint256",
          "name": "index",
          "type": "uint256"
        }
      ],
      "name": "get",
      "outputs": [
        {
          "components": [
            {
              "internalType": "uint256",
              "name": "id",
              "type": "uint256"
            },
            {
              "internalType": "uint256",
              "name": "contestId",
              "type": "uint256"
            },
            {
              "components": [
                {
                  "internalType": "string",
                  "name": "name",
                  "type": "string"
                },
                {
                  "internalType": "address payable",
                  "name": "captain",
                  "type": "address"
                },
                {
                  "internalType": "address[]",
                  "name": "members",
                  "type": "address[]"
                }
              ],
              "internalType": "struct ITeams.ITeam",
              "name": "info",
              "type": "tuple"
            },
            {
              "internalType": "enum ITeams.TeamState",
              "name": "state",
              "type": "uint8"
            },
            {
              "internalType": "uint256",
              "name": "timeStamp",
              "type": "uint256"
            }
          ],
          "internalType": "struct ITeams.Team",
          "name": "",
          "type": "tuple"
        }
      ],
      "stateMutability": "view",
      "type": "function",
      "constant": true
    },
    {
      "inputs": [
        {
          "internalType": "uint256",
          "name": "id",
          "type": "uint256"
        }
      ],
      "name": "getTeam",
      "outputs": [
        {
          "components": [
            {
              "internalType": "uint256",
              "name": "id",
              "type": "uint256"
            },
            {
              "internalType": "uint256",
              "name": "contestId",
              "type": "uint256"
            },
            {
              "components": [
                {
                  "internalType": "string",
                  "name": "name",
                  "type": "string"
                },
                {
                  "internalType": "address payable",
                  "name": "captain",
                  "type": "address"
                },
                {
                  "internalType": "address[]",
                  "name": "members",
                  "type": "address[]"
                }
              ],
              "internalType": "struct ITeams.ITeam",
              "name": "info",
              "type": "tuple"
            },
            {
              "internalType": "enum ITeams.TeamState",
              "name": "state",
              "type": "uint8"
            },
            {
              "internalType": "uint256",
              "name": "timeStamp",
              "type": "uint256"
            }
          ],
          "internalType": "struct ITeams.Team",
          "name": "",
          "type": "tuple"
        }
      ],
      "stateMutability": "view",
      "type": "function",
      "constant": true
    }
  ],
  "bytecode": "0x608060405260016004553480156200001657600080fd5b506040516200247e3803806200247e83398181016040528101906200003c9190620000ed565b806000806101000a81548173ffffffffffffffffffffffffffffffffffffffff021916908373ffffffffffffffffffffffffffffffffffffffff160217905550506200011f565b600080fd5b600073ffffffffffffffffffffffffffffffffffffffff82169050919050565b6000620000b58262000088565b9050919050565b620000c781620000a8565b8114620000d357600080fd5b50565b600081519050620000e781620000bc565b92915050565b60006020828403121562000106576200010562000083565b5b60006200011684828501620000d6565b91505092915050565b61234f806200012f6000396000f3fe6080604052600436106100905760003560e01c806397c8a3c11161005957806397c8a3c1146101b8578063a3cb7242146101d4578063a87d942c146101ff578063bd5e84971461022a578063ef0a96271461026757610090565b80628e0f1b146100955780631be0dbf1146100d25780633ed2b77a1461010f57806361b8ce8c146101505780639507d39a1461017b575b600080fd5b3480156100a157600080fd5b506100bc60048036038101906100b7919061138d565b6102a4565b6040516100c991906116b7565b60405180910390f35b3480156100de57600080fd5b506100f960048036038101906100f4919061138d565b6104b4565b6040516101069190611788565b60405180910390f35b34801561011b57600080fd5b506101366004803603810190610131919061138d565b6104d8565b60405161014795949392919061181f565b60405180910390f35b34801561015c57600080fd5b5061016561069b565b6040516101729190611879565b60405180910390f35b34801561018757600080fd5b506101a2600480360381019061019d919061138d565b6106a1565b6040516101af91906116b7565b60405180910390f35b6101d260048036038101906101cd91906118b8565b6108c4565b005b3480156101e057600080fd5b506101e9610f25565b6040516101f69190611788565b60405180910390f35b34801561020b57600080fd5b50610214610f73565b6040516102219190611879565b60405180910390f35b34801561023657600080fd5b50610251600480360381019061024c919061138d565b610f84565b60405161025e9190611879565b60405180910390f35b34801561027357600080fd5b5061028e60048036038101906102899190611940565b610fde565b60405161029b9190611879565b60405180910390f35b6102ac611198565b600360008381526020019081526020016000206040518060a00160405290816000820154815260200160018201548152602001600282016040518060600160405290816000820180546102fe906119af565b80601f016020809104026020016040519081016040528092919081815260200182805461032a906119af565b80156103775780601f1061034c57610100808354040283529160200191610377565b820191906000526020600020905b81548152906001019060200180831161035a57829003601f168201915b505050505081526020016001820160009054906101000a900473ffffffffffffffffffffffffffffffffffffffff1673ffffffffffffffffffffffffffffffffffffffff1673ffffffffffffffffffffffffffffffffffffffff1681526020016002820180548060200260200160405190810160405280929190818152602001828054801561045b57602002820191906000526020600020905b8160009054906101000a900473ffffffffffffffffffffffffffffffffffffffff1673ffffffffffffffffffffffffffffffffffffffff1681526020019060010190808311610411575b50505050508152505081526020016005820160009054906101000a900460ff16600381111561048d5761048c6115ca565b5b600381111561049f5761049e6115ca565b5b81526020016006820154815250509050919050565b60606104d160076000848152602001908152602001600020611003565b9050919050565b600360205280600052604060002060009150905080600001549080600101549080600201604051806060016040529081600082018054610517906119af565b80601f0160208091040260200160405190810160405280929190818152602001828054610543906119af565b80156105905780601f1061056557610100808354040283529160200191610590565b820191906000526020600020905b81548152906001019060200180831161057357829003601f168201915b505050505081526020016001820160009054906101000a900473ffffffffffffffffffffffffffffffffffffffff1673ffffffffffffffffffffffffffffffffffffffff1673ffffffffffffffffffffffffffffffffffffffff1681526020016002820180548060200260200160405190810160405280929190818152602001828054801561067457602002820191906000526020600020905b8160009054906101000a900473ffffffffffffffffffffffffffffffffffffffff1673ffffffffffffffffffffffffffffffffffffffff168152602001906001019080831161062a575b505050505081525050908060050160009054906101000a900460ff16908060060154905085565b60045481565b6106a9611198565b600360006106c184600161102490919063ffffffff16565b81526020019081526020016000206040518060a001604052908160008201548152602001600182015481526020016002820160405180606001604052908160008201805461070e906119af565b80601f016020809104026020016040519081016040528092919081815260200182805461073a906119af565b80156107875780601f1061075c57610100808354040283529160200191610787565b820191906000526020600020905b81548152906001019060200180831161076a57829003601f168201915b505050505081526020016001820160009054906101000a900473ffffffffffffffffffffffffffffffffffffffff1673ffffffffffffffffffffffffffffffffffffffff1673ffffffffffffffffffffffffffffffffffffffff1681526020016002820180548060200260200160405190810160405280929190818152602001828054801561086b57602002820191906000526020600020905b8160009054906101000a900473ffffffffffffffffffffffffffffffffffffffff1673ffffffffffffffffffffffffffffffffffffffff1681526020019060010190808311610821575b50505050508152505081526020016005820160009054906101000a900460ff16600381111561089d5761089c6115ca565b5b60038111156108af576108ae6115ca565b5b81526020016006820154815250509050919050565b8160008060009054906101000a900473ffffffffffffffffffffffffffffffffffffffff1673ffffffffffffffffffffffffffffffffffffffff1663904b9f72836040518263ffffffff1660e01b81526004016109219190611879565b600060405180830381865afa15801561093e573d6000803e3d6000fd5b505050506040513d6000823e3d601f19601f820116820180604052508101906109679190611d10565b905060008160000151116109b0576040517f08c379a00000000000000000000000000000000000000000000000000000000081526004016109a790611db6565b60405180910390fd5b83600160008054906101000a900473ffffffffffffffffffffffffffffffffffffffff1673ffffffffffffffffffffffffffffffffffffffff1663434e540b83836040518363ffffffff1660e01b8152600401610a0e929190611e1e565b6020604051808303816000875af1158015610a2d573d6000803e3d6000fd5b505050506040513d601f19601f82011682018060405250810190610a519190611e7f565b610a90576040517f08c379a0000000000000000000000000000000000000000000000000000000008152600401610a8790611ef8565b60405180910390fd5b60008060009054906101000a900473ffffffffffffffffffffffffffffffffffffffff1673ffffffffffffffffffffffffffffffffffffffff1663904b9f72886040518263ffffffff1660e01b8152600401610aec9190611879565b600060405180830381865afa158015610b09573d6000803e3d6000fd5b505050506040513d6000823e3d601f19601f82011682018060405250810190610b329190611d10565b90508060200151604001513414610b7e576040517f08c379a0000000000000000000000000000000000000000000000000000000008152600401610b7590611f64565b60405180910390fd5b600454600560008981526020019081526020016000206000886020016020810190610ba99190611fb0565b73ffffffffffffffffffffffffffffffffffffffff1673ffffffffffffffffffffffffffffffffffffffff16815260200190815260200160002081905550610c4a8760066000896020016020810190610c029190611fb0565b73ffffffffffffffffffffffffffffffffffffffff1673ffffffffffffffffffffffffffffffffffffffff16815260200190815260200160002061103e90919063ffffffff16565b5060005b868060400190610c5e9190611fec565b9050811015610d8d57600454600560008a81526020019081526020016000206000898060400190610c8f9190611fec565b85818110610ca057610c9f61204f565b5b9050602002016020810190610cb5919061207e565b73ffffffffffffffffffffffffffffffffffffffff1673ffffffffffffffffffffffffffffffffffffffff16815260200190815260200160002081905550610d7988600660008a8060400190610d0b9190611fec565b86818110610d1c57610d1b61204f565b5b9050602002016020810190610d31919061207e565b73ffffffffffffffffffffffffffffffffffffffff1673ffffffffffffffffffffffffffffffffffffffff16815260200190815260200160002061103e90919063ffffffff16565b508080610d85906120da565b915050610c4e565b50610db5600454600760008a815260200190815260200160002061103e90919063ffffffff16565b50610dcc600454600161103e90919063ffffffff16565b506040518060a00160405280600454815260200188815260200187610df090612306565b815260200160016003811115610e0957610e086115ca565b5b81526020014281525060036000600454815260200190815260200160002060008201518160000155602082015181600101556040820151816002016000820151816000019080519060200190610e609291906111df565b5060208201518160010160006101000a81548173ffffffffffffffffffffffffffffffffffffffff021916908373ffffffffffffffffffffffffffffffffffffffff1602179055506040820151816002019080519060200190610ec4929190611265565b50505060608201518160050160006101000a81548160ff02191690836003811115610ef257610ef16115ca565b5b02179055506080820151816006015590505060046000815480929190610f17906120da565b919050555050505050505050565b6060610f6e600660003373ffffffffffffffffffffffffffffffffffffffff1673ffffffffffffffffffffffffffffffffffffffff168152602001908152602001600020611003565b905090565b6000610f7f6001611058565b905090565b60006005600083815260200190815260200160002060003373ffffffffffffffffffffffffffffffffffffffff1673ffffffffffffffffffffffffffffffffffffffff168152602001908152602001600020549050919050565b6005602052816000526040600020602052806000526040600020600091509150505481565b606060006110138360000161106d565b905060608190508092505050919050565b600061103383600001836110c9565b60001c905092915050565b6000611050836000018360001b6110f4565b905092915050565b600061106682600001611164565b9050919050565b6060816000018054806020026020016040519081016040528092919081815260200182805480156110bd57602002820191906000526020600020905b8154815260200190600101908083116110a9575b50505050509050919050565b60008260000182815481106110e1576110e061204f565b5b9060005260206000200154905092915050565b60006111008383611175565b61115957826000018290806001815401808255809150506001900390600052602060002001600090919091909150558260000180549050836001016000848152602001908152602001600020819055506001905061115e565b600090505b92915050565b600081600001805490509050919050565b600080836001016000848152602001908152602001600020541415905092915050565b6040518060a0016040528060008152602001600081526020016111b96112ef565b8152602001600060038111156111d2576111d16115ca565b5b8152602001600081525090565b8280546111eb906119af565b90600052602060002090601f01602090048101928261120d5760008555611254565b82601f1061122657805160ff1916838001178555611254565b82800160010185558215611254579182015b82811115611253578251825591602001919060010190611238565b5b5090506112619190611326565b5090565b8280548282559060005260206000209081019282156112de579160200282015b828111156112dd5782518260006101000a81548173ffffffffffffffffffffffffffffffffffffffff021916908373ffffffffffffffffffffffffffffffffffffffff16021790555091602001919060010190611285565b5b5090506112eb9190611326565b5090565b604051806060016040528060608152602001600073ffffffffffffffffffffffffffffffffffffffff168152602001606081525090565b5b8082111561133f576000816000905550600101611327565b5090565b6000604051905090565b600080fd5b600080fd5b6000819050919050565b61136a81611357565b811461137557600080fd5b50565b60008135905061138781611361565b92915050565b6000602082840312156113a3576113a261134d565b5b60006113b184828501611378565b91505092915050565b6113c381611357565b82525050565b600081519050919050565b600082825260208201905092915050565b60005b838110156114035780820151818401526020810190506113e8565b83811115611412576000848401525b50505050565b6000601f19601f8301169050919050565b6000611434826113c9565b61143e81856113d4565b935061144e8185602086016113e5565b61145781611418565b840191505092915050565b600073ffffffffffffffffffffffffffffffffffffffff82169050919050565b600061148d82611462565b9050919050565b61149d81611482565b82525050565b600081519050919050565b600082825260208201905092915050565b6000819050602082019050919050565b60006114da82611462565b9050919050565b6114ea816114cf565b82525050565b60006114fc83836114e1565b60208301905092915050565b6000602082019050919050565b6000611520826114a3565b61152a81856114ae565b9350611535836114bf565b8060005b8381101561156657815161154d88826114f0565b975061155883611508565b925050600181019050611539565b5085935050505092915050565b600060608301600083015184820360008601526115908282611429565b91505060208301516115a56020860182611494565b50604083015184820360408601526115bd8282611515565b9150508091505092915050565b7f4e487b7100000000000000000000000000000000000000000000000000000000600052602160045260246000fd5b6004811061160a576116096115ca565b5b50565b600081905061161b826115f9565b919050565b600061162b8261160d565b9050919050565b61163b81611620565b82525050565b600060a08301600083015161165960008601826113ba565b50602083015161166c60208601826113ba565b50604083015184820360408601526116848282611573565b91505060608301516116996060860182611632565b5060808301516116ac60808601826113ba565b508091505092915050565b600060208201905081810360008301526116d18184611641565b905092915050565b600081519050919050565b600082825260208201905092915050565b6000819050602082019050919050565b600061171183836113ba565b60208301905092915050565b6000602082019050919050565b6000611735826116d9565b61173f81856116e4565b935061174a836116f5565b8060005b8381101561177b5781516117628882611705565b975061176d8361171d565b92505060018101905061174e565b5085935050505092915050565b600060208201905081810360008301526117a2818461172a565b905092915050565b6117b381611357565b82525050565b600060608301600083015184820360008601526117d68282611429565b91505060208301516117eb6020860182611494565b50604083015184820360408601526118038282611515565b9150508091505092915050565b61181981611620565b82525050565b600060a08201905061183460008301886117aa565b61184160208301876117aa565b818103604083015261185381866117b9565b90506118626060830185611810565b61186f60808301846117aa565b9695505050505050565b600060208201905061188e60008301846117aa565b92915050565b600080fd5b6000606082840312156118af576118ae611894565b5b81905092915050565b600080604083850312156118cf576118ce61134d565b5b60006118dd85828601611378565b925050602083013567ffffffffffffffff8111156118fe576118fd611352565b5b61190a85828601611899565b9150509250929050565b61191d816114cf565b811461192857600080fd5b50565b60008135905061193a81611914565b92915050565b600080604083850312156119575761195661134d565b5b600061196585828601611378565b92505060206119768582860161192b565b9150509250929050565b7f4e487b7100000000000000000000000000000000000000000000000000000000600052602260045260246000fd5b600060028204905060018216806119c757607f821691505b602082108114156119db576119da611980565b5b50919050565b600080fd5b7f4e487b7100000000000000000000000000000000000000000000000000000000600052604160045260246000fd5b611a1e82611418565b810181811067ffffffffffffffff82111715611a3d57611a3c6119e6565b5b80604052505050565b6000611a50611343565b9050611a5c8282611a15565b919050565b600080fd5b600081519050611a7581611361565b92915050565b600080fd5b600080fd5b600067ffffffffffffffff821115611aa057611a9f6119e6565b5b611aa982611418565b9050602081019050919050565b6000611ac9611ac484611a85565b611a46565b905082815260208101848484011115611ae557611ae4611a80565b5b611af08482856113e5565b509392505050565b600082601f830112611b0d57611b0c611a7b565b5b8151611b1d848260208601611ab6565b91505092915050565b600060e08284031215611b3c57611b3b6119e1565b5b611b4660e0611a46565b9050600082015167ffffffffffffffff811115611b6657611b65611a61565b5b611b7284828501611af8565b600083015250602082015167ffffffffffffffff811115611b9657611b95611a61565b5b611ba284828501611af8565b6020830152506040611bb684828501611a66565b6040830152506060611bca84828501611a66565b6060830152506080611bde84828501611a66565b60808301525060a0611bf284828501611a66565b60a08301525060c082015167ffffffffffffffff811115611c1657611c15611a61565b5b611c2284828501611af8565b60c08301525092915050565b600081519050611c3d81611914565b92915050565b60058110611c5057600080fd5b50565b600081519050611c6281611c43565b92915050565b600060a08284031215611c7e57611c7d6119e1565b5b611c8860a0611a46565b90506000611c9884828501611a66565b600083015250602082015167ffffffffffffffff811115611cbc57611cbb611a61565b5b611cc884828501611b26565b6020830152506040611cdc84828501611c2e565b6040830152506060611cf084828501611c53565b6060830152506080611d0484828501611a66565b60808301525092915050565b600060208284031215611d2657611d2561134d565b5b600082015167ffffffffffffffff811115611d4457611d43611352565b5b611d5084828501611c68565b91505092915050565b600082825260208201905092915050565b7f6f6e6c7920636f6e746573742065786973740000000000000000000000000000600082015250565b6000611da0601283611d59565b9150611dab82611d6a565b602082019050919050565b60006020820190508181036000830152611dcf81611d93565b9050919050565b60058110611de757611de66115ca565b5b50565b6000819050611df882611dd6565b919050565b6000611e0882611dea565b9050919050565b611e1881611dfd565b82525050565b6000604082019050611e3360008301856117aa565b611e406020830184611e0f565b9392505050565b60008115159050919050565b611e5c81611e47565b8114611e6757600080fd5b50565b600081519050611e7981611e53565b92915050565b600060208284031215611e9557611e9461134d565b5b6000611ea384828501611e6a565b91505092915050565b7f77726f6e6720636f6e7465737420737461746500000000000000000000000000600082015250565b6000611ee2601383611d59565b9150611eed82611eac565b602082019050919050565b60006020820190508181036000830152611f1181611ed5565b9050919050565b7f6e6f74207175616c696669656420636f6e746573742066656500000000000000600082015250565b6000611f4e601983611d59565b9150611f5982611f18565b602082019050919050565b60006020820190508181036000830152611f7d81611f41565b9050919050565b611f8d81611482565b8114611f9857600080fd5b50565b600081359050611faa81611f84565b92915050565b600060208284031215611fc657611fc561134d565b5b6000611fd484828501611f9b565b91505092915050565b600080fd5b600080fd5b600080fd5b6000808335600160200384360303811261200957612008611fdd565b5b80840192508235915067ffffffffffffffff82111561202b5761202a611fe2565b5b60208301925060208202360383131561204757612046611fe7565b5b509250929050565b7f4e487b7100000000000000000000000000000000000000000000000000000000600052603260045260246000fd5b6000602082840312156120945761209361134d565b5b60006120a28482850161192b565b91505092915050565b7f4e487b7100000000000000000000000000000000000000000000000000000000600052601160045260246000fd5b60006120e582611357565b91507fffffffffffffffffffffffffffffffffffffffffffffffffffffffffffffffff821415612118576121176120ab565b5b600182019050919050565b82818337600083830152505050565b600061214561214084611a85565b611a46565b90508281526020810184848401111561216157612160611a80565b5b61216c848285612123565b509392505050565b600082601f83011261218957612188611a7b565b5b8135612199848260208601612132565b91505092915050565b600067ffffffffffffffff8211156121bd576121bc6119e6565b5b602082029050602081019050919050565b600080fd5b60006121e66121e1846121a2565b611a46565b90508083825260208201905060208402830185811115612209576122086121ce565b5b835b81811015612232578061221e888261192b565b84526020840193505060208101905061220b565b5050509392505050565b600082601f83011261225157612250611a7b565b5b81356122618482602086016121d3565b91505092915050565b6000606082840312156122805761227f6119e1565b5b61228a6060611a46565b9050600082013567ffffffffffffffff8111156122aa576122a9611a61565b5b6122b684828501612174565b60008301525060206122ca84828501611f9b565b602083015250604082013567ffffffffffffffff8111156122ee576122ed611a61565b5b6122fa8482850161223c565b60408301525092915050565b6000612312368361226a565b905091905056fea2646970667358221220bc7ac44c9dfe88ebea3a10cd43a16480f9b6e1498ab7e4c9d784dbda4141208264736f6c634300080a0033",
  "immutableReferences": {},
  "source": "// SPDX-License-Identifier: MIT\npragma solidity ^0.8.10;\npragma experimental ABIEncoderV2;\n\nimport \"@openzeppelin/contracts/utils/structs/EnumerableSet.sol\";\nimport \"./ITeams.sol\";\nimport \"./IContests.sol\";\n\ncontract Teams is ITeams {\n    using EnumerableSet for EnumerableSet.UintSet;\n\n    IContests Contests;\n\n    constructor(address _Contests) {\n        Contests = IContests(_Contests);\n    }\n\n    EnumerableSet.UintSet ids;\n    mapping(uint => Team) public teams;\n    uint public nextId = 1;\n\n    mapping(uint => mapping(address => uint)) public addressToTeamId;\n    mapping(address => EnumerableSet.UintSet) addressToContests;\n    mapping(uint => EnumerableSet.UintSet) contestTeams;\n\n    function add(uint contestId, ITeam calldata team) external payable\n    onlyContestExist(contestId)\n    onlyContestInState(contestId, IContests.ContestState.CREATED) {\n\n        IContests.Contest memory contest = Contests.getContest(contestId);\n\n        require(msg.value == contest.info.fee, \"not qualified contest fee\");\n\n        addressToTeamId[contestId][team.captain] = nextId;\n        addressToContests[team.captain].add(contestId);\n        for (uint i = 0; i < team.members.length; i++) {\n            addressToTeamId[contestId][team.members[i]] = nextId;\n            addressToContests[team.members[i]].add(contestId);\n        }\n        contestTeams[contestId].add(nextId);\n        ids.add(nextId);\n        teams[nextId] = Team(nextId, contestId, team, TeamState.APPLIED, block.timestamp);\n        nextId++;\n    }\n\n    function getMyContestIds() external view returns (uint [] memory) {\n        return addressToContests[msg.sender].values();\n    }\n\n    function getMyTeamId(uint contestId) external view returns (uint) {\n        return addressToTeamId[contestId][msg.sender];\n    }\n\n    function getContestTeamIds(uint contestId) external view returns (uint [] memory) {\n        return contestTeams[contestId].values();\n    }\n\n    function getCount() external view returns (uint) {\n        return ids.length();\n    }\n\n    function get(uint index) external view returns (Team memory) {\n        return teams[ids.at(index)];\n    }\n\n    function getTeam(uint id) external view returns (Team memory) {\n        return teams[id];\n    }\n\n    modifier onlyContestExist(uint contestId){\n        IContests.Contest memory contest = Contests.getContest(contestId);\n        require(contest.id > 0, \"only contest exist\");\n        _;\n    }\n    modifier onlyContestInState(uint contestId, IContests.ContestState state){\n        require(Contests.contestInState(contestId, state), \"wrong contest state\");\n        _;\n    }\n}",
  "sourcePath": "/Users/yhy/Code/GitHub/DCTF/contracts/Teams.sol",
  "compiler": {
    "name": "solc",
    "version": "0.8.10+commit.fc410830.Emscripten.clang"
  },
  "schemaVersion": "3.4.4",
  "updatedAt": "2022-03-04T12:31:25.793Z",
  "networkType": "ethereum",
  "devdoc": {
    "kind": "dev",
    "methods": {},
    "version": 1
  },
  "userdoc": {
    "kind": "user",
    "methods": {},
    "version": 1
  }
}