{
  "contractName": "test",
  "abi": [
    {
      "anonymous": false,
      "inputs": [
        {
          "indexed": true,
          "internalType": "bytes32",
          "name": "role",
          "type": "bytes32"
        },
        {
          "indexed": true,
          "internalType": "bytes32",
          "name": "previousAdminRole",
          "type": "bytes32"
        },
        {
          "indexed": true,
          "internalType": "bytes32",
          "name": "newAdminRole",
          "type": "bytes32"
        }
      ],
      "name": "RoleAdminChanged",
      "type": "event"
    },
    {
      "anonymous": false,
      "inputs": [
        {
          "indexed": true,
          "internalType": "bytes32",
          "name": "role",
          "type": "bytes32"
        },
        {
          "indexed": true,
          "internalType": "address",
          "name": "account",
          "type": "address"
        },
        {
          "indexed": true,
          "internalType": "address",
          "name": "sender",
          "type": "address"
        }
      ],
      "name": "RoleGranted",
      "type": "event"
    },
    {
      "anonymous": false,
      "inputs": [
        {
          "indexed": true,
          "internalType": "bytes32",
          "name": "role",
          "type": "bytes32"
        },
        {
          "indexed": true,
          "internalType": "address",
          "name": "account",
          "type": "address"
        },
        {
          "indexed": true,
          "internalType": "address",
          "name": "sender",
          "type": "address"
        }
      ],
      "name": "RoleRevoked",
      "type": "event"
    },
    {
      "inputs": [],
      "name": "DEFAULT_ADMIN_ROLE",
      "outputs": [
        {
          "internalType": "bytes32",
          "name": "",
          "type": "bytes32"
        }
      ],
      "stateMutability": "view",
      "type": "function"
    },
    {
      "inputs": [
        {
          "internalType": "bytes32",
          "name": "role",
          "type": "bytes32"
        }
      ],
      "name": "getRoleAdmin",
      "outputs": [
        {
          "internalType": "bytes32",
          "name": "",
          "type": "bytes32"
        }
      ],
      "stateMutability": "view",
      "type": "function"
    },
    {
      "inputs": [
        {
          "internalType": "bytes32",
          "name": "role",
          "type": "bytes32"
        },
        {
          "internalType": "address",
          "name": "account",
          "type": "address"
        }
      ],
      "name": "grantRole",
      "outputs": [],
      "stateMutability": "nonpayable",
      "type": "function"
    },
    {
      "inputs": [
        {
          "internalType": "bytes32",
          "name": "role",
          "type": "bytes32"
        },
        {
          "internalType": "address",
          "name": "account",
          "type": "address"
        }
      ],
      "name": "hasRole",
      "outputs": [
        {
          "internalType": "bool",
          "name": "",
          "type": "bool"
        }
      ],
      "stateMutability": "view",
      "type": "function"
    },
    {
      "inputs": [
        {
          "internalType": "bytes32",
          "name": "role",
          "type": "bytes32"
        },
        {
          "internalType": "address",
          "name": "account",
          "type": "address"
        }
      ],
      "name": "renounceRole",
      "outputs": [],
      "stateMutability": "nonpayable",
      "type": "function"
    },
    {
      "inputs": [
        {
          "internalType": "bytes32",
          "name": "role",
          "type": "bytes32"
        },
        {
          "internalType": "address",
          "name": "account",
          "type": "address"
        }
      ],
      "name": "revokeRole",
      "outputs": [],
      "stateMutability": "nonpayable",
      "type": "function"
    },
    {
      "inputs": [
        {
          "internalType": "bytes4",
          "name": "interfaceId",
          "type": "bytes4"
        }
      ],
      "name": "supportsInterface",
      "outputs": [
        {
          "internalType": "bool",
          "name": "",
          "type": "bool"
        }
      ],
      "stateMutability": "view",
      "type": "function"
    },
    {
      "inputs": [
        {
          "internalType": "bytes32",
          "name": "role",
          "type": "bytes32"
        },
        {
          "internalType": "address",
          "name": "account",
          "type": "address"
        }
      ],
      "name": "setupRole",
      "outputs": [],
      "stateMutability": "nonpayable",
      "type": "function"
    }
  ],
  "bytecode": "0x608060405234801561001057600080fd5b50610f70806100206000396000f3fe608060405234801561001057600080fd5b50600436106100885760003560e01c806391d148541161005b57806391d1485414610125578063a217fddf14610155578063d547741f14610173578063fa82ac761461018f57610088565b806301ffc9a71461008d578063248a9ca3146100bd5780632f2ff15d146100ed57806336568abe14610109575b600080fd5b6100a760048036038101906100a29190610974565b6101ab565b6040516100b491906109bc565b60405180910390f35b6100d760048036038101906100d29190610a0d565b610225565b6040516100e49190610a49565b60405180910390f35b61010760048036038101906101029190610ac2565b610244565b005b610123600480360381019061011e9190610ac2565b61026d565b005b61013f600480360381019061013a9190610ac2565b6102f0565b60405161014c91906109bc565b60405180910390f35b61015d61035a565b60405161016a9190610a49565b60405180910390f35b61018d60048036038101906101889190610ac2565b610361565b005b6101a960048036038101906101a49190610ac2565b61038a565b005b60007f7965db0b000000000000000000000000000000000000000000000000000000007bffffffffffffffffffffffffffffffffffffffffffffffffffffffff1916827bffffffffffffffffffffffffffffffffffffffffffffffffffffffff1916148061021e575061021d826103a2565b5b9050919050565b6000806000838152602001908152602001600020600101549050919050565b61024d82610225565b61025e8161025961040c565b610414565b61026883836104b1565b505050565b61027561040c565b73ffffffffffffffffffffffffffffffffffffffff168173ffffffffffffffffffffffffffffffffffffffff16146102e2576040517f08c379a00000000000000000000000000000000000000000000000000000000081526004016102d990610b85565b60405180910390fd5b6102ec8282610591565b5050565b600080600084815260200190815260200160002060000160008373ffffffffffffffffffffffffffffffffffffffff1673ffffffffffffffffffffffffffffffffffffffff16815260200190815260200160002060009054906101000a900460ff16905092915050565b6000801b81565b61036a82610225565b61037b8161037661040c565b610414565b6103858383610591565b505050565b6103948282610672565b61039e8283610680565b5050565b60007f01ffc9a7000000000000000000000000000000000000000000000000000000007bffffffffffffffffffffffffffffffffffffffffffffffffffffffff1916827bffffffffffffffffffffffffffffffffffffffffffffffffffffffff1916149050919050565b600033905090565b61041e82826102f0565b6104ad576104438173ffffffffffffffffffffffffffffffffffffffff1660146106db565b6104518360001c60206106db565b604051602001610462929190610cb7565b6040516020818303038152906040526040517f08c379a00000000000000000000000000000000000000000000000000000000081526004016104a49190610d3b565b60405180910390fd5b5050565b6104bb82826102f0565b61058d57600160008084815260200190815260200160002060000160008373ffffffffffffffffffffffffffffffffffffffff1673ffffffffffffffffffffffffffffffffffffffff16815260200190815260200160002060006101000a81548160ff02191690831515021790555061053261040c565b73ffffffffffffffffffffffffffffffffffffffff168173ffffffffffffffffffffffffffffffffffffffff16837f2f8788117e7eff1d82e926ec794901d17c78024a50270940304540a733656f0d60405160405180910390a45b5050565b61059b82826102f0565b1561066e57600080600084815260200190815260200160002060000160008373ffffffffffffffffffffffffffffffffffffffff1673ffffffffffffffffffffffffffffffffffffffff16815260200190815260200160002060006101000a81548160ff02191690831515021790555061061361040c565b73ffffffffffffffffffffffffffffffffffffffff168173ffffffffffffffffffffffffffffffffffffffff16837ff6391f5c32d9c69d2a47ea670b442974b53935d1edc7fd64eb21e047a839171b60405160405180910390a45b5050565b61067c82826104b1565b5050565b600061068b83610225565b905081600080858152602001908152602001600020600101819055508181847fbd79b86ffe0ab8e8776151514217cd7cacd52c909f66475c3af44e129f0b00ff60405160405180910390a4505050565b6060600060028360026106ee9190610d96565b6106f89190610df0565b67ffffffffffffffff81111561071157610710610e46565b5b6040519080825280601f01601f1916602001820160405280156107435781602001600182028036833780820191505090505b5090507f30000000000000000000000000000000000000000000000000000000000000008160008151811061077b5761077a610e75565b5b60200101907effffffffffffffffffffffffffffffffffffffffffffffffffffffffffffff1916908160001a9053507f7800000000000000000000000000000000000000000000000000000000000000816001815181106107df576107de610e75565b5b60200101907effffffffffffffffffffffffffffffffffffffffffffffffffffffffffffff1916908160001a9053506000600184600261081f9190610d96565b6108299190610df0565b90505b60018111156108c9577f3031323334353637383961626364656600000000000000000000000000000000600f86166010811061086b5761086a610e75565b5b1a60f81b82828151811061088257610881610e75565b5b60200101907effffffffffffffffffffffffffffffffffffffffffffffffffffffffffffff1916908160001a905350600485901c9450806108c290610ea4565b905061082c565b506000841461090d576040517f08c379a000000000000000000000000000000000000000000000000000000000815260040161090490610f1a565b60405180910390fd5b8091505092915050565b600080fd5b60007fffffffff0000000000000000000000000000000000000000000000000000000082169050919050565b6109518161091c565b811461095c57600080fd5b50565b60008135905061096e81610948565b92915050565b60006020828403121561098a57610989610917565b5b60006109988482850161095f565b91505092915050565b60008115159050919050565b6109b6816109a1565b82525050565b60006020820190506109d160008301846109ad565b92915050565b6000819050919050565b6109ea816109d7565b81146109f557600080fd5b50565b600081359050610a07816109e1565b92915050565b600060208284031215610a2357610a22610917565b5b6000610a31848285016109f8565b91505092915050565b610a43816109d7565b82525050565b6000602082019050610a5e6000830184610a3a565b92915050565b600073ffffffffffffffffffffffffffffffffffffffff82169050919050565b6000610a8f82610a64565b9050919050565b610a9f81610a84565b8114610aaa57600080fd5b50565b600081359050610abc81610a96565b92915050565b60008060408385031215610ad957610ad8610917565b5b6000610ae7858286016109f8565b9250506020610af885828601610aad565b9150509250929050565b600082825260208201905092915050565b7f416363657373436f6e74726f6c3a2063616e206f6e6c792072656e6f756e636560008201527f20726f6c657320666f722073656c660000000000000000000000000000000000602082015250565b6000610b6f602f83610b02565b9150610b7a82610b13565b604082019050919050565b60006020820190508181036000830152610b9e81610b62565b9050919050565b600081905092915050565b7f416363657373436f6e74726f6c3a206163636f756e7420000000000000000000600082015250565b6000610be6601783610ba5565b9150610bf182610bb0565b601782019050919050565b600081519050919050565b60005b83811015610c25578082015181840152602081019050610c0a565b83811115610c34576000848401525b50505050565b6000610c4582610bfc565b610c4f8185610ba5565b9350610c5f818560208601610c07565b80840191505092915050565b7f206973206d697373696e6720726f6c6520000000000000000000000000000000600082015250565b6000610ca1601183610ba5565b9150610cac82610c6b565b601182019050919050565b6000610cc282610bd9565b9150610cce8285610c3a565b9150610cd982610c94565b9150610ce58284610c3a565b91508190509392505050565b6000601f19601f8301169050919050565b6000610d0d82610bfc565b610d178185610b02565b9350610d27818560208601610c07565b610d3081610cf1565b840191505092915050565b60006020820190508181036000830152610d558184610d02565b905092915050565b6000819050919050565b7f4e487b7100000000000000000000000000000000000000000000000000000000600052601160045260246000fd5b6000610da182610d5d565b9150610dac83610d5d565b9250817fffffffffffffffffffffffffffffffffffffffffffffffffffffffffffffffff0483118215151615610de557610de4610d67565b5b828202905092915050565b6000610dfb82610d5d565b9150610e0683610d5d565b9250827fffffffffffffffffffffffffffffffffffffffffffffffffffffffffffffffff03821115610e3b57610e3a610d67565b5b828201905092915050565b7f4e487b7100000000000000000000000000000000000000000000000000000000600052604160045260246000fd5b7f4e487b7100000000000000000000000000000000000000000000000000000000600052603260045260246000fd5b6000610eaf82610d5d565b91506000821415610ec357610ec2610d67565b5b600182039050919050565b7f537472696e67733a20686578206c656e67746820696e73756666696369656e74600082015250565b6000610f04602083610b02565b9150610f0f82610ece565b602082019050919050565b60006020820190508181036000830152610f3381610ef7565b905091905056fea26469706673582212207ce4991f12144cf24cb0407e81697ee4a70c6936c771f456bcc4dd90c3b2df7d64736f6c634300080a0033",
  "immutableReferences": {},
  "source": "pragma solidity ^0.8.10;\nimport \"@openzeppelin/contracts/access/AccessControl.sol\";\n\ncontract test is AccessControl {\n        function setupRole(bytes32 role, address account) external {\n        _setupRole(role,account);\n        _setRoleAdmin(role, role);\n    }\n}\n",
  "sourcePath": "/Users/yhy/Code/GitHub/Graduation-Project/contracts/test.sol",
  "compiler": {
    "name": "solc",
    "version": "0.8.10+commit.fc410830.Emscripten.clang"
  },
  "schemaVersion": "3.4.4",
  "updatedAt": "2022-02-06T05:47:55.000Z",
  "devdoc": {
    "kind": "dev",
    "methods": {
      "getRoleAdmin(bytes32)": {
        "details": "Returns the admin role that controls `role`. See {grantRole} and {revokeRole}. To change a role's admin, use {_setRoleAdmin}."
      },
      "grantRole(bytes32,address)": {
        "details": "Grants `role` to `account`. If `account` had not been already granted `role`, emits a {RoleGranted} event. Requirements: - the caller must have ``role``'s admin role."
      },
      "hasRole(bytes32,address)": {
        "details": "Returns `true` if `account` has been granted `role`."
      },
      "renounceRole(bytes32,address)": {
        "details": "Revokes `role` from the calling account. Roles are often managed via {grantRole} and {revokeRole}: this function's purpose is to provide a mechanism for accounts to lose their privileges if they are compromised (such as when a trusted device is misplaced). If the calling account had been revoked `role`, emits a {RoleRevoked} event. Requirements: - the caller must be `account`."
      },
      "revokeRole(bytes32,address)": {
        "details": "Revokes `role` from `account`. If `account` had been granted `role`, emits a {RoleRevoked} event. Requirements: - the caller must have ``role``'s admin role."
      },
      "supportsInterface(bytes4)": {
        "details": "See {IERC165-supportsInterface}."
      }
    },
    "version": 1
  },
  "userdoc": {
    "kind": "user",
    "methods": {},
    "version": 1
  }
}